{
  "address": "0x423A067699ccF73CF1fE62ef93abecca48a67863",
  "abi": [
    {
      "inputs": [],
      "name": "ZeroAddress",
      "type": "error"
    },
    {
      "anonymous": false,
      "inputs": [
        {
          "indexed": false,
          "internalType": "address",
          "name": "oldAcross",
          "type": "address"
        },
        {
          "indexed": false,
          "internalType": "address",
          "name": "newAcross",
          "type": "address"
        }
      ],
      "name": "AcrossUpdated",
      "type": "event"
    },
    {
      "anonymous": false,
      "inputs": [
        {
          "indexed": false,
          "internalType": "uint8",
          "name": "version",
          "type": "uint8"
        }
      ],
      "name": "Initialized",
      "type": "event"
    },
    {
      "anonymous": false,
      "inputs": [
        {
          "indexed": false,
          "internalType": "uint256",
          "name": "uniqueCounter",
          "type": "uint256"
        },
        {
          "indexed": false,
          "internalType": "bytes",
          "name": "data",
          "type": "bytes"
        },
        {
          "indexed": false,
          "internalType": "address",
          "name": "sourceChainInputToken",
          "type": "address"
        },
        {
          "indexed": false,
          "internalType": "uint256",
          "name": "amount",
          "type": "uint256"
        }
      ],
      "name": "MsgSent",
      "type": "event"
    },
    {
      "anonymous": false,
      "inputs": [
        {
          "indexed": false,
          "internalType": "uint256",
          "name": "uniqueCounter",
          "type": "uint256"
        },
        {
          "indexed": false,
          "internalType": "bytes",
          "name": "data",
          "type": "bytes"
        },
        {
          "indexed": false,
          "internalType": "address",
          "name": "sourceChainInputToken",
          "type": "address"
        },
        {
          "indexed": false,
          "internalType": "uint256",
          "name": "amount",
          "type": "uint256"
        }
      ],
      "name": "MsgSentRune",
      "type": "event"
    },
    {
      "anonymous": false,
      "inputs": [
        {
          "indexed": true,
          "internalType": "address",
          "name": "previousOwner",
          "type": "address"
        },
        {
          "indexed": true,
          "internalType": "address",
          "name": "newOwner",
          "type": "address"
        }
      ],
      "name": "OwnershipTransferred",
      "type": "event"
    },
    {
      "anonymous": false,
      "inputs": [
        {
          "indexed": false,
          "internalType": "address",
          "name": "account",
          "type": "address"
        }
      ],
      "name": "Paused",
      "type": "event"
    },
    {
      "anonymous": false,
      "inputs": [
        {
          "indexed": false,
          "internalType": "address",
          "name": "oldTargetChainConnector",
          "type": "address"
        },
        {
          "indexed": false,
          "internalType": "address",
          "name": "newTargetChainConnector",
          "type": "address"
        }
      ],
      "name": "TargetChainConnectorUpdated",
      "type": "event"
    },
    {
      "anonymous": false,
      "inputs": [
        {
          "indexed": false,
          "internalType": "address",
          "name": "account",
          "type": "address"
        }
      ],
      "name": "Unpaused",
      "type": "event"
    },
    {
      "anonymous": false,
      "inputs": [
        {
          "indexed": false,
          "internalType": "address",
          "name": "oldWrappedNativeToken",
          "type": "address"
        },
        {
          "indexed": false,
          "internalType": "address",
          "name": "newWrappedNativeToken",
          "type": "address"
        }
      ],
      "name": "WrappedNativeTokenUpdated",
      "type": "event"
    },
    {
      "inputs": [],
      "name": "ETH_ADDR",
      "outputs": [
        {
          "internalType": "address",
          "name": "",
          "type": "address"
        }
      ],
      "stateMutability": "view",
      "type": "function"
    },
    {
      "inputs": [],
      "name": "ONE_HUNDRED_PERCENT",
      "outputs": [
        {
          "internalType": "uint256",
          "name": "",
          "type": "uint256"
        }
      ],
      "stateMutability": "view",
      "type": "function"
    },
    {
      "inputs": [],
      "name": "across",
      "outputs": [
        {
          "internalType": "address",
          "name": "",
          "type": "address"
        }
      ],
      "stateMutability": "view",
      "type": "function"
    },
    {
      "inputs": [],
      "name": "currChainId",
      "outputs": [
        {
          "internalType": "uint256",
          "name": "",
          "type": "uint256"
        }
      ],
      "stateMutability": "view",
      "type": "function"
    },
    {
      "inputs": [
        {
          "internalType": "address",
          "name": "_token",
          "type": "address"
        },
        {
          "internalType": "address",
          "name": "_to",
          "type": "address"
        },
        {
          "internalType": "uint256",
          "name": "_amount",
          "type": "uint256"
        }
      ],
      "name": "emergencyWithdraw",
      "outputs": [],
      "stateMutability": "nonpayable",
      "type": "function"
    },
    {
      "inputs": [],
      "name": "emptyAddress",
      "outputs": [
        {
          "internalType": "address",
          "name": "",
          "type": "address"
        }
      ],
      "stateMutability": "view",
      "type": "function"
    },
    {
      "inputs": [
        {
          "internalType": "address",
          "name": "_across",
          "type": "address"
        },
        {
          "internalType": "address",
          "name": "_wrappedNativeToken",
          "type": "address"
        },
        {
          "internalType": "uint256",
          "name": "_targetChainId",
          "type": "uint256"
        },
        {
          "internalType": "uint256",
          "name": "_currChainId",
          "type": "uint256"
        }
      ],
      "name": "initialize",
      "outputs": [],
      "stateMutability": "nonpayable",
      "type": "function"
    },
    {
      "inputs": [],
      "name": "owner",
      "outputs": [
        {
          "internalType": "address",
          "name": "",
          "type": "address"
        }
      ],
      "stateMutability": "view",
      "type": "function"
    },
    {
      "inputs": [],
      "name": "paused",
      "outputs": [
        {
          "internalType": "bool",
          "name": "",
          "type": "bool"
        }
      ],
      "stateMutability": "view",
      "type": "function"
    },
    {
      "inputs": [],
      "name": "renounceOwnership",
      "outputs": [],
      "stateMutability": "nonpayable",
      "type": "function"
    },
    {
      "inputs": [
        {
          "internalType": "address",
          "name": "_across",
          "type": "address"
        }
      ],
      "name": "setAcross",
      "outputs": [],
      "stateMutability": "nonpayable",
      "type": "function"
    },
    {
      "inputs": [
        {
          "internalType": "address",
          "name": "_targetChainConnectorProxy",
          "type": "address"
        }
      ],
      "name": "setTargetChainConnectorProxy",
      "outputs": [],
      "stateMutability": "nonpayable",
      "type": "function"
    },
    {
      "inputs": [
        {
          "internalType": "address",
          "name": "_wrappedNativeToken",
          "type": "address"
        }
      ],
      "name": "setWrappedNativeToken",
      "outputs": [],
      "stateMutability": "nonpayable",
      "type": "function"
    },
    {
      "inputs": [
        {
          "internalType": "address",
          "name": "_token",
          "type": "address"
        },
        {
          "internalType": "address",
          "name": "_exchangeConnector",
          "type": "address"
        },
        {
          "internalType": "uint256[]",
          "name": "_amounts",
          "type": "uint256[]"
        },
        {
          "internalType": "bool",
          "name": "_isInputFixed",
          "type": "bool"
        },
        {
          "internalType": "address[]",
          "name": "_path",
          "type": "address[]"
        },
        {
          "components": [
            {
              "internalType": "bytes",
              "name": "userScript",
              "type": "bytes"
            },
            {
              "internalType": "enum ScriptTypes",
              "name": "scriptType",
              "type": "uint8"
            },
            {
              "internalType": "bytes",
              "name": "lockerLockingScript",
              "type": "bytes"
            }
          ],
          "internalType": "struct IEthConnector.UserAndLockerScript",
          "name": "_userAndLockerScript",
          "type": "tuple"
        },
        {
          "internalType": "int64",
          "name": "_relayerFeePercentage",
          "type": "int64"
        },
        {
          "internalType": "uint256",
          "name": "_thirdParty",
          "type": "uint256"
        }
      ],
      "name": "swapAndUnwrap",
      "outputs": [],
      "stateMutability": "payable",
      "type": "function"
    },
    {
      "inputs": [
        {
          "internalType": "address",
          "name": "_token",
          "type": "address"
        },
        {
          "internalType": "uint256",
          "name": "_appId",
          "type": "uint256"
        },
        {
          "internalType": "uint256[]",
          "name": "_amounts",
          "type": "uint256[]"
        },
        {
          "internalType": "uint256",
          "name": "_internalId",
          "type": "uint256"
        },
        {
          "internalType": "address[]",
          "name": "_path",
          "type": "address[]"
        },
        {
          "components": [
            {
              "internalType": "bytes",
              "name": "userScript",
              "type": "bytes"
            },
            {
              "internalType": "enum ScriptTypes",
              "name": "scriptType",
              "type": "uint8"
            }
          ],
          "internalType": "struct IEthConnector.UserScript",
          "name": "_userScript",
          "type": "tuple"
        },
        {
          "internalType": "int64",
          "name": "_relayerFeePercentage",
          "type": "int64"
        },
        {
          "internalType": "uint256",
          "name": "_thirdParty",
          "type": "uint256"
        }
      ],
      "name": "swapAndUnwrapRune",
      "outputs": [],
      "stateMutability": "payable",
      "type": "function"
    },
    {
      "inputs": [],
      "name": "targetChainConnectorProxy",
      "outputs": [
        {
          "internalType": "address",
          "name": "",
          "type": "address"
        }
      ],
      "stateMutability": "view",
      "type": "function"
    },
    {
      "inputs": [],
      "name": "targetChainId",
      "outputs": [
        {
          "internalType": "uint256",
          "name": "",
          "type": "uint256"
        }
      ],
      "stateMutability": "view",
      "type": "function"
    },
    {
      "inputs": [
        {
          "internalType": "address",
          "name": "newOwner",
          "type": "address"
        }
      ],
      "name": "transferOwnership",
      "outputs": [],
      "stateMutability": "nonpayable",
      "type": "function"
    },
    {
      "inputs": [],
      "name": "uniqueCounter",
      "outputs": [
        {
          "internalType": "uint256",
          "name": "",
          "type": "uint256"
        }
      ],
      "stateMutability": "view",
      "type": "function"
    },
    {
      "inputs": [],
      "name": "unwrapFee",
      "outputs": [
        {
          "internalType": "uint256",
          "name": "",
          "type": "uint256"
        }
      ],
      "stateMutability": "view",
      "type": "function"
    },
    {
      "inputs": [],
      "name": "wrappedNativeToken",
      "outputs": [
        {
          "internalType": "address",
          "name": "",
          "type": "address"
        }
      ],
      "stateMutability": "view",
      "type": "function"
    },
    {
      "stateMutability": "payable",
      "type": "receive"
    }
  ],
  "transactionHash": "0xf3138f39ff140c5425a07ff68fb69dfbc4fe94a2480cbd6319383cc437949a25",
  "args": [],
  "numDeployments": 1,
  "solcInputHash": "6be2f7ca6fb2aa0c5f8f3973c410876d",
  "bytecode": "0x608060405234801561001057600080fd5b506119ad806100206000396000f3fe6080604052600436106100fe5760003560e01c8063032ca3d41461010a578063146ffb261461014757806317fcb39b1461016b578063201c527c1461018b578063292c1d92146101a05780634d5f71bb146101c05780635c975abb146101e057806361be10f214610203578063715018a6146102235780637753f47b1461023857806389fa612c146102605780638da5cb5b146102735780639aed427914610288578063a197cbe61461029e578063d4dfc8c3146102be578063d83f0fc5146102d4578063da058ae3146102ea578063dd0081c71461030a578063e63ea40814610320578063eb990c5914610340578063f2fde38b1461036057600080fd5b3661010557005b600080fd5b34801561011657600080fd5b5060cb5461012a906001600160a01b031681565b6040516001600160a01b0390911681526020015b60405180910390f35b34801561015357600080fd5b5061015d60cc5481565b60405190815260200161013e565b34801561017757600080fd5b5060cd5461012a906001600160a01b031681565b61019e610199366004611260565b610380565b005b3480156101ac57600080fd5b5060c95461012a906001600160a01b031681565b3480156101cc57600080fd5b5060ca5461012a906001600160a01b031681565b3480156101ec57600080fd5b5060975460ff16604051901515815260200161013e565b34801561020f57600080fd5b5061019e61021e366004611246565b6104d0565b34801561022f57600080fd5b5061019e6104e4565b34801561024457600080fd5b5061012a73eeeeeeeeeeeeeeeeeeeeeeeeeeeeeeeeeeeeeeee81565b61019e61026e3660046113ba565b6104f8565b34801561027f57600080fd5b5061012a6105d3565b34801561029457600080fd5b5061015d60d05481565b3480156102aa57600080fd5b5061019e6102b9366004611246565b6105e2565b3480156102ca57600080fd5b5061015d60ce5481565b3480156102e057600080fd5b5061015d60cf5481565b3480156102f657600080fd5b5061019e610305366004611246565b6105f3565b34801561031657600080fd5b5061015d61271081565b34801561032c57600080fd5b5061019e61033b36600461133e565b610604565b34801561034c57600080fd5b5061019e61035b366004611379565b6106a0565b34801561036c57600080fd5b5061019e61037b366004611246565b6107eb565b610388610861565b6103b98a898960008181106103ad57634e487b7160e01b600052603260045260246000fd5b905060200201356108bb565b600060ce5460cf546103c83390565b8c8c8c60018181106103ea57634e487b7160e01b600052603260045260246000fd5b905060200201358b8b8b8b8a60405160200161040f9a99989796959493929190611684565b60405160208183030381529060405290507fe69fe079b662ff18874cc35b6a12c636af0eca0fd56cbd0cee7ddec918aea82760ce54828d8c8c600081811061046757634e487b7160e01b600052603260045260246000fd5b9050602002013560405161047e9493929190611874565b60405180910390a16104b98b8a8a60008181106104ab57634e487b7160e01b600052603260045260246000fd5b905060200201358386610939565b506104c46001606555565b50505050505050505050565b6104d8610a06565b6104e181610a65565b50565b6104ec610a06565b6104f66000610af7565b565b610500610861565b6105258a898960008181106103ad57634e487b7160e01b600052603260045260246000fd5b600060ce5460cf546105343390565b8c8c8c600181811061055657634e487b7160e01b600052603260045260246000fd5b905060200201358b8b8b8b8a60405160200161057b9a99989796959493929190611723565b60405160208183030381529060405290507f049299c569714e65d7d663734f646c72701fb3b0b4928b18a22ef12e71cbb05760ce54828d8c8c600081811061046757634e487b7160e01b600052603260045260246000fd5b6033546001600160a01b031690565b6105ea610a06565b6104e181610b49565b6105fb610a06565b6104e181610bdb565b61060c610a06565b6001600160a01b03831673eeeeeeeeeeeeeeeeeeeeeeeeeeeeeeeeeeeeeeee1415610687576040516001600160a01b038316908290600081818185875af1925050503d806000811461067a576040519150601f19603f3d011682016040523d82523d6000602084013e61067f565b606091505b505050505050565b61069b6001600160a01b0384168383610c6d565b505050565b600054610100900460ff16158080156106c05750600054600160ff909116105b806106da5750303b1580156106da575060005460ff166001145b6107425760405162461bcd60e51b815260206004820152602e60248201527f496e697469616c697a61626c653a20636f6e747261637420697320616c72656160448201526d191e481a5b9a5d1a585b1a5e995960921b60648201526084015b60405180910390fd5b6000805460ff191660011790558015610765576000805461ff0019166101001790555b61076d610cc3565b610775610cf2565b61077d610d21565b61078685610a65565b61078f84610bdb565b60cc83905560cf829055600060ce5580156107e4576000805461ff0019169055604051600181527f7f26b83ff96e1f2b6a682f133852f6798a09c465da95921460cefb38474024989060200160405180910390a15b5050505050565b6107f3610a06565b6001600160a01b0381166108585760405162461bcd60e51b815260206004820152602660248201527f4f776e61626c653a206e6577206f776e657220697320746865207a65726f206160448201526564647265737360d01b6064820152608401610739565b6104e181610af7565b600260655414156108b45760405162461bcd60e51b815260206004820152601f60248201527f5265656e7472616e637947756172643a207265656e7472616e742063616c6c006044820152606401610739565b6002606555565b8034141561091b576001600160a01b03821673eeeeeeeeeeeeeeeeeeeeeeeeeeeeeeeeeeeeeeee14806108fb575060cd546001600160a01b038381169116145b6109175760405162461bcd60e51b8152600401610739906117f2565b5050565b34156109175760405162461bcd60e51b8152600401610739906117f2565b60ce805490600061094983611919565b909155505034156109675760cd546001600160a01b03169350610996565b61097c6001600160a01b038516333086610d50565b60c954610996906001600160a01b03868116911685610d8e565b60c95460ca5460cc546040516107e4936001600160a01b03908116936109cf9391169189918991889042908b90600019906024016115f1565b60408051601f198184030181529190526020810180516001600160e01b0316631186ec3360e01b17905234610ea0565b6001606555565b33610a0f6105d3565b6001600160a01b0316146104f65760405162461bcd60e51b815260206004820181905260248201527f4f776e61626c653a2063616c6c6572206973206e6f7420746865206f776e65726044820152606401610739565b806001600160a01b038116610a8d5760405163d92e233d60e01b815260040160405180910390fd5b60c9546040517f06e5f2ca1234f717a2031f662608c02182d4f8bdc3dab013ec4c04eb9755313291610acc916001600160a01b039091169085906115d7565b60405180910390a15060c980546001600160a01b0319166001600160a01b0392909216919091179055565b603380546001600160a01b038381166001600160a01b0319831681179093556040519116919082907f8be0079c531659141344cd1fd0a4f28419497f9722a3daafe3b4186f6b6457e090600090a35050565b806001600160a01b038116610b715760405163d92e233d60e01b815260040160405180910390fd5b60ca546040517fbac4f45eeeeb3c9688d046eddcdd28783777a2aa7beffcdf0acb76487d79636491610bb0916001600160a01b039091169085906115d7565b60405180910390a15060ca80546001600160a01b0319166001600160a01b0392909216919091179055565b806001600160a01b038116610c035760405163d92e233d60e01b815260040160405180910390fd5b60cd546040517fffd9582901c27177dbd18194ae8017f10d8b21f98a0da2ea5197e0b20dc13d7091610c42916001600160a01b039091169085906115d7565b60405180910390a15060cd80546001600160a01b0319166001600160a01b0392909216919091179055565b61069b8363a9059cbb60e01b8484604051602401610c8c929190611658565b60408051601f198184030181529190526020810180516001600160e01b03166001600160e01b031990931692909217909152610ed0565b600054610100900460ff16610cea5760405162461bcd60e51b815260040161073990611829565b6104f6610fa2565b600054610100900460ff16610d195760405162461bcd60e51b815260040161073990611829565b6104f6610fd2565b600054610100900460ff16610d485760405162461bcd60e51b815260040161073990611829565b6104f6610ff9565b6040516001600160a01b0380851660248301528316604482015260648101829052610d889085906323b872dd60e01b90608401610c8c565b50505050565b801580610e165750604051636eb1769f60e11b81526001600160a01b0384169063dd62ed3e90610dc490309086906004016115d7565b60206040518083038186803b158015610ddc57600080fd5b505afa158015610df0573d6000803e3d6000fd5b505050506040513d601f19601f82011682018060405250810190610e14919061147c565b155b610e815760405162461bcd60e51b815260206004820152603660248201527f5361666545524332303a20617070726f76652066726f6d206e6f6e2d7a65726f60448201527520746f206e6f6e2d7a65726f20616c6c6f77616e636560501b6064820152608401610739565b61069b8363095ea7b360e01b8484604051602401610c8c929190611658565b6060610ec684848460405180606001604052806029815260200161194f6029913961102c565b90505b9392505050565b6000610f25826040518060400160405280602081526020017f5361666545524332303a206c6f772d6c6576656c2063616c6c206661696c6564815250856001600160a01b03166111549092919063ffffffff16565b80519091501561069b5780806020019051810190610f439190611460565b61069b5760405162461bcd60e51b815260206004820152602a60248201527f5361666545524332303a204552433230206f7065726174696f6e20646964206e6044820152691bdd081cdd58d8d9595960b21b6064820152608401610739565b600054610100900460ff16610fc95760405162461bcd60e51b815260040161073990611829565b6104f633610af7565b600054610100900460ff166109ff5760405162461bcd60e51b815260040161073990611829565b600054610100900460ff166110205760405162461bcd60e51b815260040161073990611829565b6097805460ff19169055565b60608247101561108d5760405162461bcd60e51b815260206004820152602660248201527f416464726573733a20696e73756666696369656e742062616c616e636520666f6044820152651c8818d85b1b60d21b6064820152608401610739565b843b6110db5760405162461bcd60e51b815260206004820152601d60248201527f416464726573733a2063616c6c20746f206e6f6e2d636f6e74726163740000006044820152606401610739565b600080866001600160a01b031685876040516110f791906115bb565b60006040518083038185875af1925050503d8060008114611134576040519150601f19603f3d011682016040523d82523d6000602084013e611139565b606091505b5091509150611149828286611163565b979650505050505050565b6060610ec6848460008561102c565b60608315611172575081610ec9565b8251156111825782518084602001fd5b8160405162461bcd60e51b81526004016107399190611671565b80356001600160a01b03811681146111b357600080fd5b919050565b60008083601f8401126111c9578182fd5b5081356001600160401b038111156111df578182fd5b6020830191508360208260051b85010111156111fa57600080fd5b9250929050565b80356111b381611940565b8035600781900b81146111b357600080fd5b60006060828403121561122f578081fd5b50919050565b60006040828403121561122f578081fd5b600060208284031215611257578081fd5b610ec98261119c565b6000806000806000806000806000806101008b8d03121561127f578586fd5b6112888b61119c565b995061129660208c0161119c565b985060408b01356001600160401b03808211156112b1578788fd5b6112bd8e838f016111b8565b909a5098508891506112d160608e01611201565b975060808d01359150808211156112e6578687fd5b6112f28e838f016111b8565b909750955060a08d013591508082111561130a578485fd5b506113178d828e0161121e565b93505061132660c08c0161120c565b915060e08b013590509295989b9194979a5092959850565b600080600060608486031215611352578283fd5b61135b8461119c565b92506113696020850161119c565b9150604084013590509250925092565b6000806000806080858703121561138e578384fd5b6113978561119c565b93506113a56020860161119c565b93969395505050506040820135916060013590565b6000806000806000806000806000806101008b8d0312156113d9578586fd5b6113e28b61119c565b995060208b0135985060408b01356001600160401b0380821115611404578788fd5b6114108e838f016111b8565b909a50985060608d0135975060808d013591508082111561142f578687fd5b61143b8e838f016111b8565b909750955060a08d0135915080821115611453578485fd5b506113178d828e01611235565b600060208284031215611471578081fd5b8151610ec981611940565b60006020828403121561148d578081fd5b5051919050565b81835260006020808501945082825b858110156114cf576001600160a01b036114bc8361119c565b16875295820195908201906001016114a3565b509495945050505050565b81835281816020850137506000828201602090810191909152601f909101601f19169091010190565b6000815180845261151b8160208601602086016118ed565b601f01601f19169290920160200192915050565b6006811061154d57634e487b7160e01b600052602160045260246000fd5b9052565b600061155d82836118a9565b6060855261156f6060860182846114da565b915050602083013560068110611583578283fd5b611590602086018261152f565b5061159e60408401846118a9565b85830360408701526115b18382846114da565b9695505050505050565b600082516115cd8184602087016118ed565b9190910192915050565b6001600160a01b0392831681529116602082015260400190565b6001600160a01b038981168252881660208201526040810187905260608101869052600785900b608082015263ffffffff841660a082015261010060c0820181905260009061164283820186611503565b9150508260e08301529998505050505050505050565b6001600160a01b03929092168252602082015260400190565b602081526000610ec96020830184611503565b610140808252600d908201526c073776170416e64556e7772617609c1b610160820152602081018b9052604081018a90526001600160a01b0389811660608301528816608082015260a0810187905285151560c082015261018060e082018190526000906116f58184018789611494565b905082810361010084015261170a8186611551565b915050826101208301529b9a5050505050505050505050565b6000610140808352601181840152507073776170416e64556e7772617052756e6560781b6101608301526101808c60208401528b604084015260018060a01b038b1660608401528960808401528860a08401528760c08401528060e084015261178f8184018789611494565b90508281036101008401526117a485866118a9565b604083526117b66040840182846114da565b9150506020860135600681106117ca578384fd5b6117d7602084018261152f565b506101209390930193909352509a9950505050505050505050565b6020808252601e908201527f457468436f6e6e6563746f724c6f6769633a2077726f6e672076616c75650000604082015260600190565b6020808252602b908201527f496e697469616c697a61626c653a20636f6e7472616374206973206e6f74206960408201526a6e697469616c697a696e6760a81b606082015260800190565b84815260806020820152600061188d6080830186611503565b6001600160a01b03949094166040830152506060015292915050565b6000808335601e198436030181126118bf578283fd5b83016020810192503590506001600160401b038111156118de57600080fd5b8036038313156111fa57600080fd5b60005b838110156119085781810151838201526020016118f0565b83811115610d885750506000910152565b600060001982141561193957634e487b7160e01b81526011600452602481fd5b5060010190565b80151581146104e157600080fdfe416464726573733a206c6f772d6c6576656c2063616c6c20776974682076616c7565206661696c6564a26469706673582212209e7f257aeb87bdd2d9bdbdab43892aa285cf9bcfdc250422f042a03b1aab861f64736f6c63430008040033",
  "devdoc": {
    "kind": "dev",
    "methods": {
      "emergencyWithdraw(address,address,uint256)": {
        "details": "Only owner can call this"
      },
      "owner()": {
        "details": "Returns the address of the current owner."
      },
      "paused()": {
        "details": "Returns true if the contract is paused, and false otherwise."
      },
      "renounceOwnership()": {
        "details": "Leaves the contract without owner. It will not be possible to call `onlyOwner` functions. Can only be called by the current owner. NOTE: Renouncing ownership will leave the contract without an owner, thereby disabling any functionality that is only available to the owner."
      },
      "swapAndUnwrap(address,address,uint256[],bool,address[],(bytes,uint8,bytes),int64,uint256)": {
        "details": "To find teleBTCAmount, _relayerFeePercentage should be reduced from the inputTokenAmount",
        "params": {
          "_amounts": "[inputTokenAmount, teleBTCAmount]",
          "_exchangeConnector": "Address of exchange connector to be used",
          "_path": "of exchanging inputToken to teleBTC (these are Polygon token addresses, so _path[0] != _token)",
          "_relayerFeePercentage": "Fee percentage for relayer",
          "_thirdParty": "Id of third party",
          "_token": "Address of input token (on the current chain)"
        }
      },
      "transferOwnership(address)": {
        "details": "Transfers ownership of the contract to a new account (`newOwner`). Can only be called by the current owner."
      }
    },
    "version": 1
  },
  "userdoc": {
    "kind": "user",
    "methods": {
      "emergencyWithdraw(address,address,uint256)": {
        "notice": "Withdraw tokens in the emergency case"
      },
      "setAcross(address)": {
        "notice": "Setter for Across"
      },
      "setTargetChainConnectorProxy(address)": {
        "notice": "Setter for TargetChainConnectorProxy"
      },
      "setWrappedNativeToken(address)": {
        "notice": "Setter for WrappedNativeToken"
      },
      "swapAndUnwrap(address,address,uint256[],bool,address[],(bytes,uint8,bytes),int64,uint256)": {
        "notice": "Request exchanging token for BTC"
      },
      "swapAndUnwrapRune(address,uint256,uint256[],uint256,address[],(bytes,uint8),int64,uint256)": {
        "notice": "Request exchanging token for RUNE"
      }
    },
    "version": 1
  },
  "storageLayout": {
    "storage": [
      {
        "astId": 11827,
        "contract": "contracts/chain_connectors/EthConnectorLogic.sol:EthConnectorLogic",
        "label": "_initialized",
        "offset": 0,
        "slot": "0",
        "type": "t_uint8"
      },
      {
        "astId": 11830,
        "contract": "contracts/chain_connectors/EthConnectorLogic.sol:EthConnectorLogic",
        "label": "_initializing",
        "offset": 1,
        "slot": "0",
        "type": "t_bool"
      },
      {
        "astId": 13298,
        "contract": "contracts/chain_connectors/EthConnectorLogic.sol:EthConnectorLogic",
        "label": "__gap",
        "offset": 0,
        "slot": "1",
        "type": "t_array(t_uint256)50_storage"
      },
      {
        "astId": 11699,
        "contract": "contracts/chain_connectors/EthConnectorLogic.sol:EthConnectorLogic",
        "label": "_owner",
        "offset": 0,
        "slot": "51",
        "type": "t_address"
      },
      {
        "astId": 11819,
        "contract": "contracts/chain_connectors/EthConnectorLogic.sol:EthConnectorLogic",
        "label": "__gap",
        "offset": 0,
        "slot": "52",
        "type": "t_array(t_uint256)49_storage"
      },
      {
        "astId": 12132,
        "contract": "contracts/chain_connectors/EthConnectorLogic.sol:EthConnectorLogic",
        "label": "_status",
        "offset": 0,
        "slot": "101",
        "type": "t_uint256"
      },
      {
        "astId": 12201,
        "contract": "contracts/chain_connectors/EthConnectorLogic.sol:EthConnectorLogic",
        "label": "__gap",
        "offset": 0,
        "slot": "102",
        "type": "t_array(t_uint256)49_storage"
      },
      {
        "astId": 12011,
        "contract": "contracts/chain_connectors/EthConnectorLogic.sol:EthConnectorLogic",
        "label": "_paused",
        "offset": 0,
        "slot": "151",
        "type": "t_bool"
      },
      {
        "astId": 12116,
        "contract": "contracts/chain_connectors/EthConnectorLogic.sol:EthConnectorLogic",
        "label": "__gap",
        "offset": 0,
        "slot": "152",
        "type": "t_array(t_uint256)49_storage"
      },
      {
        "astId": 24029,
        "contract": "contracts/chain_connectors/EthConnectorLogic.sol:EthConnectorLogic",
        "label": "across",
        "offset": 0,
        "slot": "201",
        "type": "t_address"
      },
      {
        "astId": 24031,
        "contract": "contracts/chain_connectors/EthConnectorLogic.sol:EthConnectorLogic",
        "label": "targetChainConnectorProxy",
        "offset": 0,
        "slot": "202",
        "type": "t_address"
      },
      {
        "astId": 24033,
        "contract": "contracts/chain_connectors/EthConnectorLogic.sol:EthConnectorLogic",
        "label": "emptyAddress",
        "offset": 0,
        "slot": "203",
        "type": "t_address"
      },
      {
        "astId": 24035,
        "contract": "contracts/chain_connectors/EthConnectorLogic.sol:EthConnectorLogic",
        "label": "targetChainId",
        "offset": 0,
        "slot": "204",
        "type": "t_uint256"
      },
      {
        "astId": 24037,
        "contract": "contracts/chain_connectors/EthConnectorLogic.sol:EthConnectorLogic",
        "label": "wrappedNativeToken",
        "offset": 0,
        "slot": "205",
        "type": "t_address"
      },
      {
        "astId": 24039,
        "contract": "contracts/chain_connectors/EthConnectorLogic.sol:EthConnectorLogic",
        "label": "uniqueCounter",
        "offset": 0,
        "slot": "206",
        "type": "t_uint256"
      },
      {
        "astId": 24041,
        "contract": "contracts/chain_connectors/EthConnectorLogic.sol:EthConnectorLogic",
        "label": "currChainId",
        "offset": 0,
        "slot": "207",
        "type": "t_uint256"
      },
      {
        "astId": 24043,
        "contract": "contracts/chain_connectors/EthConnectorLogic.sol:EthConnectorLogic",
        "label": "unwrapFee",
        "offset": 0,
        "slot": "208",
        "type": "t_uint256"
      }
    ],
    "types": {
      "t_address": {
        "encoding": "inplace",
        "label": "address",
        "numberOfBytes": "20"
      },
      "t_array(t_uint256)49_storage": {
        "base": "t_uint256",
        "encoding": "inplace",
        "label": "uint256[49]",
        "numberOfBytes": "1568"
      },
      "t_array(t_uint256)50_storage": {
        "base": "t_uint256",
        "encoding": "inplace",
        "label": "uint256[50]",
        "numberOfBytes": "1600"
      },
      "t_bool": {
        "encoding": "inplace",
        "label": "bool",
        "numberOfBytes": "1"
      },
      "t_uint256": {
        "encoding": "inplace",
        "label": "uint256",
        "numberOfBytes": "32"
      },
      "t_uint8": {
        "encoding": "inplace",
        "label": "uint8",
        "numberOfBytes": "1"
      }
    }
  }
}