{
  "address": "0x68c7Fec1EBfAFf1B9b1e70c3312dB313Fc339c44",
  "abi": [
    {
      "inputs": [],
      "name": "ZeroAddress",
      "type": "error"
    },
    {
      "anonymous": false,
      "inputs": [
        {
          "indexed": true,
          "internalType": "address",
          "name": "userTargetAddress",
          "type": "address"
        },
        {
          "indexed": true,
          "internalType": "address",
          "name": "_lockerTargetAddress",
          "type": "address"
        },
        {
          "indexed": false,
          "internalType": "bytes",
          "name": "lockerLockingScript",
          "type": "bytes"
        },
        {
          "indexed": false,
          "internalType": "uint256",
          "name": "requestIdOfLocker",
          "type": "uint256"
        }
      ],
      "name": "BurnDispute",
      "type": "event"
    },
    {
      "anonymous": false,
      "inputs": [
        {
          "indexed": true,
          "internalType": "uint256",
          "name": "chainId",
          "type": "uint256"
        },
        {
          "indexed": true,
          "internalType": "bytes32",
          "name": "token",
          "type": "bytes32"
        },
        {
          "indexed": false,
          "internalType": "uint256[]",
          "name": "thirdPartyIds",
          "type": "uint256[]"
        },
        {
          "indexed": false,
          "internalType": "uint256[]",
          "name": "tierIndexes",
          "type": "uint256[]"
        },
        {
          "indexed": false,
          "internalType": "uint256[]",
          "name": "fees",
          "type": "uint256[]"
        }
      ],
      "name": "DynamicLockerFeeSet",
      "type": "event"
    },
    {
      "anonymous": false,
      "inputs": [
        {
          "indexed": false,
          "internalType": "uint256[]",
          "name": "boundaries",
          "type": "uint256[]"
        }
      ],
      "name": "FeeTierBoundariesSet",
      "type": "event"
    },
    {
      "anonymous": false,
      "inputs": [
        {
          "indexed": false,
          "internalType": "uint8",
          "name": "version",
          "type": "uint8"
        }
      ],
      "name": "Initialized",
      "type": "event"
    },
    {
      "anonymous": false,
      "inputs": [
        {
          "indexed": false,
          "internalType": "address",
          "name": "_lockerTargetAddress",
          "type": "address"
        },
        {
          "indexed": false,
          "internalType": "bytes",
          "name": "lockerLockingScript",
          "type": "bytes"
        },
        {
          "indexed": false,
          "internalType": "uint256",
          "name": "_blockNumber",
          "type": "uint256"
        },
        {
          "indexed": false,
          "internalType": "bytes32",
          "name": "txId",
          "type": "bytes32"
        },
        {
          "indexed": false,
          "internalType": "uint256",
          "name": "amount",
          "type": "uint256"
        }
      ],
      "name": "LockerDispute",
      "type": "event"
    },
    {
      "anonymous": false,
      "inputs": [
        {
          "indexed": false,
          "internalType": "address",
          "name": "oldLockers",
          "type": "address"
        },
        {
          "indexed": false,
          "internalType": "address",
          "name": "newLockers",
          "type": "address"
        }
      ],
      "name": "NewLockers",
      "type": "event"
    },
    {
      "anonymous": false,
      "inputs": [
        {
          "indexed": false,
          "internalType": "uint256",
          "name": "oldNetworkFee",
          "type": "uint256"
        },
        {
          "indexed": false,
          "internalType": "uint256",
          "name": "newNetworkFee",
          "type": "uint256"
        }
      ],
      "name": "NewNetworkFee",
      "type": "event"
    },
    {
      "anonymous": false,
      "inputs": [
        {
          "indexed": false,
          "internalType": "address",
          "name": "oldNetworkFeeOracle",
          "type": "address"
        },
        {
          "indexed": false,
          "internalType": "address",
          "name": "newNetworkFeeOracle",
          "type": "address"
        }
      ],
      "name": "NewNetworkFeeOracle",
      "type": "event"
    },
    {
      "anonymous": false,
      "inputs": [
        {
          "indexed": false,
          "internalType": "uint256",
          "name": "oldProtocolPercentageFee",
          "type": "uint256"
        },
        {
          "indexed": false,
          "internalType": "uint256",
          "name": "newProtocolPercentageFee",
          "type": "uint256"
        }
      ],
      "name": "NewProtocolPercentageFee",
      "type": "event"
    },
    {
      "anonymous": false,
      "inputs": [
        {
          "indexed": false,
          "internalType": "address",
          "name": "oldRelay",
          "type": "address"
        },
        {
          "indexed": false,
          "internalType": "address",
          "name": "newRelay",
          "type": "address"
        }
      ],
      "name": "NewRelay",
      "type": "event"
    },
    {
      "anonymous": false,
      "inputs": [
        {
          "indexed": false,
          "internalType": "uint256",
          "name": "oldSlasherPercentageFee",
          "type": "uint256"
        },
        {
          "indexed": false,
          "internalType": "uint256",
          "name": "newSlasherPercentageFee",
          "type": "uint256"
        }
      ],
      "name": "NewSlasherPercentageFee",
      "type": "event"
    },
    {
      "anonymous": false,
      "inputs": [
        {
          "indexed": false,
          "internalType": "address",
          "name": "oldTeleBTC",
          "type": "address"
        },
        {
          "indexed": false,
          "internalType": "address",
          "name": "newTeleBTC",
          "type": "address"
        }
      ],
      "name": "NewTeleBTC",
      "type": "event"
    },
    {
      "anonymous": false,
      "inputs": [
        {
          "indexed": false,
          "internalType": "uint256",
          "name": "thirdPartyId",
          "type": "uint256"
        },
        {
          "indexed": false,
          "internalType": "address",
          "name": "oldThirdPartyAddress",
          "type": "address"
        },
        {
          "indexed": false,
          "internalType": "address",
          "name": "newThirdPartyAddress",
          "type": "address"
        }
      ],
      "name": "NewThirdPartyAddress",
      "type": "event"
    },
    {
      "anonymous": false,
      "inputs": [
        {
          "indexed": false,
          "internalType": "uint256",
          "name": "thirdPartyId",
          "type": "uint256"
        },
        {
          "indexed": false,
          "internalType": "uint256",
          "name": "oldThirdPartyFee",
          "type": "uint256"
        },
        {
          "indexed": false,
          "internalType": "uint256",
          "name": "newThirdPartyFee",
          "type": "uint256"
        }
      ],
      "name": "NewThirdPartyFee",
      "type": "event"
    },
    {
      "anonymous": false,
      "inputs": [
        {
          "indexed": false,
          "internalType": "uint256",
          "name": "oldTransferDeadline",
          "type": "uint256"
        },
        {
          "indexed": false,
          "internalType": "uint256",
          "name": "newTransferDeadline",
          "type": "uint256"
        }
      ],
      "name": "NewTransferDeadline",
      "type": "event"
    },
    {
      "anonymous": false,
      "inputs": [
        {
          "indexed": false,
          "internalType": "address",
          "name": "oldTreasury",
          "type": "address"
        },
        {
          "indexed": false,
          "internalType": "address",
          "name": "newTreasury",
          "type": "address"
        }
      ],
      "name": "NewTreasury",
      "type": "event"
    },
    {
      "anonymous": false,
      "inputs": [
        {
          "indexed": false,
          "internalType": "bytes",
          "name": "userScript",
          "type": "bytes"
        },
        {
          "indexed": false,
          "internalType": "enum ScriptTypes",
          "name": "scriptType",
          "type": "uint8"
        },
        {
          "indexed": false,
          "internalType": "address",
          "name": "lockerTargetAddress",
          "type": "address"
        },
        {
          "indexed": true,
          "internalType": "address",
          "name": "userTargetAddress",
          "type": "address"
        },
        {
          "indexed": false,
          "internalType": "uint256",
          "name": "requestIdOfLocker",
          "type": "uint256"
        },
        {
          "indexed": true,
          "internalType": "uint256",
          "name": "deadline",
          "type": "uint256"
        },
        {
          "indexed": false,
          "internalType": "uint256",
          "name": "thirdPartyId",
          "type": "uint256"
        },
        {
          "indexed": false,
          "internalType": "address",
          "name": "inputToken",
          "type": "address"
        },
        {
          "indexed": false,
          "internalType": "uint256[3]",
          "name": "amounts",
          "type": "uint256[3]"
        },
        {
          "indexed": false,
          "internalType": "uint256[4]",
          "name": "fees",
          "type": "uint256[4]"
        }
      ],
      "name": "NewUnwrap",
      "type": "event"
    },
    {
      "anonymous": false,
      "inputs": [
        {
          "indexed": false,
          "internalType": "address",
          "name": "oldWrappedNativeToken",
          "type": "address"
        },
        {
          "indexed": false,
          "internalType": "address",
          "name": "newWrappedNativeToken",
          "type": "address"
        }
      ],
      "name": "NewWrappedNativeToken",
      "type": "event"
    },
    {
      "anonymous": false,
      "inputs": [
        {
          "indexed": true,
          "internalType": "address",
          "name": "previousOwner",
          "type": "address"
        },
        {
          "indexed": true,
          "internalType": "address",
          "name": "newOwner",
          "type": "address"
        }
      ],
      "name": "OwnershipTransferred",
      "type": "event"
    },
    {
      "anonymous": false,
      "inputs": [
        {
          "indexed": true,
          "internalType": "address",
          "name": "lockerTargetAddress",
          "type": "address"
        },
        {
          "indexed": false,
          "internalType": "uint256",
          "name": "requestIdOfLocker",
          "type": "uint256"
        },
        {
          "indexed": false,
          "internalType": "bytes32",
          "name": "bitcoinTxId",
          "type": "bytes32"
        },
        {
          "indexed": false,
          "internalType": "uint256",
          "name": "bitcoinTxOutputIndex",
          "type": "uint256"
        }
      ],
      "name": "PaidUnwrap",
      "type": "event"
    },
    {
      "inputs": [],
      "name": "DUST_SATOSHI_AMOUNT",
      "outputs": [
        {
          "internalType": "uint256",
          "name": "",
          "type": "uint256"
        }
      ],
      "stateMutability": "view",
      "type": "function"
    },
    {
      "inputs": [],
      "name": "bitcoinFee",
      "outputs": [
        {
          "internalType": "uint256",
          "name": "",
          "type": "uint256"
        }
      ],
      "stateMutability": "view",
      "type": "function"
    },
    {
      "inputs": [],
      "name": "bitcoinFeeOracle",
      "outputs": [
        {
          "internalType": "address",
          "name": "",
          "type": "address"
        }
      ],
      "stateMutability": "view",
      "type": "function"
    },
    {
      "inputs": [
        {
          "internalType": "bytes4",
          "name": "_version",
          "type": "bytes4"
        },
        {
          "internalType": "bytes",
          "name": "_vin",
          "type": "bytes"
        },
        {
          "internalType": "bytes",
          "name": "_vout",
          "type": "bytes"
        },
        {
          "internalType": "bytes4",
          "name": "_locktime",
          "type": "bytes4"
        },
        {
          "internalType": "uint256",
          "name": "_blockNumber",
          "type": "uint256"
        },
        {
          "internalType": "bytes",
          "name": "_intermediateNodes",
          "type": "bytes"
        },
        {
          "internalType": "uint256",
          "name": "_index",
          "type": "uint256"
        },
        {
          "internalType": "bytes",
          "name": "_lockerLockingScript",
          "type": "bytes"
        },
        {
          "internalType": "uint256[]",
          "name": "_burnReqIndexes",
          "type": "uint256[]"
        },
        {
          "internalType": "uint256[]",
          "name": "_voutIndexes",
          "type": "uint256[]"
        }
      ],
      "name": "burnProof",
      "outputs": [
        {
          "internalType": "bool",
          "name": "",
          "type": "bool"
        }
      ],
      "stateMutability": "payable",
      "type": "function"
    },
    {
      "inputs": [
        {
          "internalType": "address",
          "name": "",
          "type": "address"
        }
      ],
      "name": "burnRequestCounter",
      "outputs": [
        {
          "internalType": "uint256",
          "name": "",
          "type": "uint256"
        }
      ],
      "stateMutability": "view",
      "type": "function"
    },
    {
      "inputs": [
        {
          "internalType": "address",
          "name": "",
          "type": "address"
        },
        {
          "internalType": "uint256",
          "name": "",
          "type": "uint256"
        }
      ],
      "name": "burnRequests",
      "outputs": [
        {
          "internalType": "uint256",
          "name": "amount",
          "type": "uint256"
        },
        {
          "internalType": "uint256",
          "name": "burntAmount",
          "type": "uint256"
        },
        {
          "internalType": "address",
          "name": "sender",
          "type": "address"
        },
        {
          "internalType": "bytes",
          "name": "userScript",
          "type": "bytes"
        },
        {
          "internalType": "uint256",
          "name": "deadline",
          "type": "uint256"
        },
        {
          "internalType": "bool",
          "name": "isTransferred",
          "type": "bool"
        },
        {
          "internalType": "enum ScriptTypes",
          "name": "scriptType",
          "type": "uint8"
        },
        {
          "internalType": "uint256",
          "name": "requestIdOfLocker",
          "type": "uint256"
        }
      ],
      "stateMutability": "view",
      "type": "function"
    },
    {
      "inputs": [
        {
          "internalType": "bytes",
          "name": "_lockerLockingScript",
          "type": "bytes"
        },
        {
          "internalType": "uint256[]",
          "name": "_indices",
          "type": "uint256[]"
        }
      ],
      "name": "disputeBurn",
      "outputs": [],
      "stateMutability": "nonpayable",
      "type": "function"
    },
    {
      "inputs": [
        {
          "internalType": "bytes",
          "name": "_lockerLockingScript",
          "type": "bytes"
        },
        {
          "internalType": "bytes4[]",
          "name": "_versions",
          "type": "bytes4[]"
        },
        {
          "internalType": "bytes",
          "name": "_inputVin",
          "type": "bytes"
        },
        {
          "internalType": "bytes",
          "name": "_inputVout",
          "type": "bytes"
        },
        {
          "internalType": "bytes",
          "name": "_outputVin",
          "type": "bytes"
        },
        {
          "internalType": "bytes",
          "name": "_outputVout",
          "type": "bytes"
        },
        {
          "internalType": "bytes4[]",
          "name": "_locktimes",
          "type": "bytes4[]"
        },
        {
          "internalType": "bytes",
          "name": "_inputIntermediateNodes",
          "type": "bytes"
        },
        {
          "internalType": "uint256[]",
          "name": "_indexesAndBlockNumbers",
          "type": "uint256[]"
        }
      ],
      "name": "disputeLocker",
      "outputs": [],
      "stateMutability": "payable",
      "type": "function"
    },
    {
      "inputs": [
        {
          "internalType": "uint256",
          "name": "",
          "type": "uint256"
        },
        {
          "internalType": "bytes32",
          "name": "",
          "type": "bytes32"
        },
        {
          "internalType": "uint256",
          "name": "",
          "type": "uint256"
        },
        {
          "internalType": "uint256",
          "name": "",
          "type": "uint256"
        }
      ],
      "name": "dynamicLockerFee",
      "outputs": [
        {
          "internalType": "uint256",
          "name": "",
          "type": "uint256"
        }
      ],
      "stateMutability": "view",
      "type": "function"
    },
    {
      "inputs": [
        {
          "internalType": "uint256",
          "name": "",
          "type": "uint256"
        }
      ],
      "name": "feeTierBoundaries",
      "outputs": [
        {
          "internalType": "uint256",
          "name": "",
          "type": "uint256"
        }
      ],
      "stateMutability": "view",
      "type": "function"
    },
    {
      "inputs": [
        {
          "internalType": "uint256",
          "name": "_sourceChainId",
          "type": "uint256"
        },
        {
          "internalType": "bytes32",
          "name": "_sourceToken",
          "type": "bytes32"
        },
        {
          "internalType": "uint256",
          "name": "_thirdPartyId",
          "type": "uint256"
        },
        {
          "internalType": "uint256",
          "name": "_amount",
          "type": "uint256"
        }
      ],
      "name": "getEffectiveLockerFee",
      "outputs": [
        {
          "internalType": "uint256",
          "name": "",
          "type": "uint256"
        }
      ],
      "stateMutability": "view",
      "type": "function"
    },
    {
      "inputs": [
        {
          "internalType": "uint256",
          "name": "_startingBlockNumber",
          "type": "uint256"
        },
        {
          "internalType": "address",
          "name": "_relay",
          "type": "address"
        },
        {
          "internalType": "address",
          "name": "_lockers",
          "type": "address"
        },
        {
          "internalType": "address",
          "name": "_treasury",
          "type": "address"
        },
        {
          "internalType": "address",
          "name": "_teleBTC",
          "type": "address"
        },
        {
          "internalType": "uint256",
          "name": "_transferDeadline",
          "type": "uint256"
        },
        {
          "internalType": "uint256",
          "name": "_protocolPercentageFee",
          "type": "uint256"
        },
        {
          "internalType": "uint256",
          "name": "_lockerPercentageFee",
          "type": "uint256"
        },
        {
          "internalType": "uint256",
          "name": "_slasherPercentageReward",
          "type": "uint256"
        },
        {
          "internalType": "uint256",
          "name": "_networkFee",
          "type": "uint256"
        },
        {
          "internalType": "address",
          "name": "_wrappedNativeToken",
          "type": "address"
        }
      ],
      "name": "initialize",
      "outputs": [],
      "stateMutability": "nonpayable",
      "type": "function"
    },
    {
      "inputs": [
        {
          "internalType": "address",
          "name": "_lockerTargetAddress",
          "type": "address"
        },
        {
          "internalType": "uint256",
          "name": "_index",
          "type": "uint256"
        }
      ],
      "name": "isTransferred",
      "outputs": [
        {
          "internalType": "bool",
          "name": "",
          "type": "bool"
        }
      ],
      "stateMutability": "view",
      "type": "function"
    },
    {
      "inputs": [
        {
          "internalType": "bytes32",
          "name": "",
          "type": "bytes32"
        }
      ],
      "name": "isUsedAsBurnProof",
      "outputs": [
        {
          "internalType": "bool",
          "name": "",
          "type": "bool"
        }
      ],
      "stateMutability": "view",
      "type": "function"
    },
    {
      "inputs": [],
      "name": "lockerPercentageFee",
      "outputs": [
        {
          "internalType": "uint256",
          "name": "",
          "type": "uint256"
        }
      ],
      "stateMutability": "view",
      "type": "function"
    },
    {
      "inputs": [],
      "name": "lockers",
      "outputs": [
        {
          "internalType": "address",
          "name": "",
          "type": "address"
        }
      ],
      "stateMutability": "view",
      "type": "function"
    },
    {
      "inputs": [],
      "name": "owner",
      "outputs": [
        {
          "internalType": "address",
          "name": "",
          "type": "address"
        }
      ],
      "stateMutability": "view",
      "type": "function"
    },
    {
      "inputs": [],
      "name": "protocolPercentageFee",
      "outputs": [
        {
          "internalType": "uint256",
          "name": "",
          "type": "uint256"
        }
      ],
      "stateMutability": "view",
      "type": "function"
    },
    {
      "inputs": [],
      "name": "relay",
      "outputs": [
        {
          "internalType": "address",
          "name": "",
          "type": "address"
        }
      ],
      "stateMutability": "view",
      "type": "function"
    },
    {
      "inputs": [],
      "name": "renounceOwnership",
      "outputs": [],
      "stateMutability": "nonpayable",
      "type": "function"
    },
    {
      "inputs": [],
      "name": "rewardDistributor",
      "outputs": [
        {
          "internalType": "address",
          "name": "",
          "type": "address"
        }
      ],
      "stateMutability": "view",
      "type": "function"
    },
    {
      "inputs": [
        {
          "internalType": "uint256",
          "name": "_sourceChainId",
          "type": "uint256"
        },
        {
          "internalType": "bytes32",
          "name": "_sourceToken",
          "type": "bytes32"
        },
        {
          "internalType": "uint256[]",
          "name": "_thirdPartyIds",
          "type": "uint256[]"
        },
        {
          "internalType": "uint256[]",
          "name": "_tierIndexes",
          "type": "uint256[]"
        },
        {
          "internalType": "uint256[]",
          "name": "_fees",
          "type": "uint256[]"
        }
      ],
      "name": "setDynamicLockerFee",
      "outputs": [],
      "stateMutability": "nonpayable",
      "type": "function"
    },
    {
      "inputs": [
        {
          "internalType": "uint256[]",
          "name": "_boundaries",
          "type": "uint256[]"
        }
      ],
      "name": "setFeeTierBoundaries",
      "outputs": [],
      "stateMutability": "nonpayable",
      "type": "function"
    },
    {
      "inputs": [
        {
          "internalType": "uint256",
          "name": "_lockerPercentageFee",
          "type": "uint256"
        }
      ],
      "name": "setLockerPercentageFee",
      "outputs": [],
      "stateMutability": "nonpayable",
      "type": "function"
    },
    {
      "inputs": [
        {
          "internalType": "address",
          "name": "_lockers",
          "type": "address"
        }
      ],
      "name": "setLockers",
      "outputs": [],
      "stateMutability": "nonpayable",
      "type": "function"
    },
    {
      "inputs": [
        {
          "internalType": "uint256",
          "name": "_networkFee",
          "type": "uint256"
        }
      ],
      "name": "setNetworkFee",
      "outputs": [],
      "stateMutability": "nonpayable",
      "type": "function"
    },
    {
      "inputs": [
        {
          "internalType": "address",
          "name": "_networkFeeOracle",
          "type": "address"
        }
      ],
      "name": "setNetworkFeeOracle",
      "outputs": [],
      "stateMutability": "nonpayable",
      "type": "function"
    },
    {
      "inputs": [
        {
          "internalType": "uint256",
          "name": "_protocolPercentageFee",
          "type": "uint256"
        }
      ],
      "name": "setProtocolPercentageFee",
      "outputs": [],
      "stateMutability": "nonpayable",
      "type": "function"
    },
    {
      "inputs": [
        {
          "internalType": "address",
          "name": "_relay",
          "type": "address"
        }
      ],
      "name": "setRelay",
      "outputs": [],
      "stateMutability": "nonpayable",
      "type": "function"
    },
    {
      "inputs": [
        {
          "internalType": "address",
          "name": "_rewardDistributor",
          "type": "address"
        }
      ],
      "name": "setRewardDistributor",
      "outputs": [],
      "stateMutability": "nonpayable",
      "type": "function"
    },
    {
      "inputs": [
        {
          "internalType": "uint256",
          "name": "_slasherPercentageReward",
          "type": "uint256"
        }
      ],
      "name": "setSlasherPercentageReward",
      "outputs": [],
      "stateMutability": "nonpayable",
      "type": "function"
    },
    {
      "inputs": [
        {
          "internalType": "uint256",
          "name": "_startingBlockNumber",
          "type": "uint256"
        }
      ],
      "name": "setStartingBlockNumber",
      "outputs": [],
      "stateMutability": "nonpayable",
      "type": "function"
    },
    {
      "inputs": [
        {
          "internalType": "address",
          "name": "_teleBTC",
          "type": "address"
        }
      ],
      "name": "setTeleBTC",
      "outputs": [],
      "stateMutability": "nonpayable",
      "type": "function"
    },
    {
      "inputs": [
        {
          "internalType": "uint256",
          "name": "_thirdPartyId",
          "type": "uint256"
        },
        {
          "internalType": "address",
          "name": "_thirdPartyAddress",
          "type": "address"
        }
      ],
      "name": "setThirdPartyAddress",
      "outputs": [],
      "stateMutability": "nonpayable",
      "type": "function"
    },
    {
      "inputs": [
        {
          "internalType": "uint256",
          "name": "_thirdPartyId",
          "type": "uint256"
        },
        {
          "internalType": "uint256",
          "name": "_thirdPartyFee",
          "type": "uint256"
        }
      ],
      "name": "setThirdPartyFee",
      "outputs": [],
      "stateMutability": "nonpayable",
      "type": "function"
    },
    {
      "inputs": [
        {
          "internalType": "uint256",
          "name": "_transferDeadline",
          "type": "uint256"
        }
      ],
      "name": "setTransferDeadline",
      "outputs": [],
      "stateMutability": "nonpayable",
      "type": "function"
    },
    {
      "inputs": [
        {
          "internalType": "address",
          "name": "_treasury",
          "type": "address"
        }
      ],
      "name": "setTreasury",
      "outputs": [],
      "stateMutability": "nonpayable",
      "type": "function"
    },
    {
      "inputs": [
        {
          "internalType": "address",
          "name": "_wrappedNativeToken",
          "type": "address"
        }
      ],
      "name": "setWrappedNativeToken",
      "outputs": [],
      "stateMutability": "nonpayable",
      "type": "function"
    },
    {
      "inputs": [],
      "name": "slasherPercentageReward",
      "outputs": [
        {
          "internalType": "uint256",
          "name": "",
          "type": "uint256"
        }
      ],
      "stateMutability": "view",
      "type": "function"
    },
    {
      "inputs": [],
      "name": "startingBlockNumber",
      "outputs": [
        {
          "internalType": "uint256",
          "name": "",
          "type": "uint256"
        }
      ],
      "stateMutability": "view",
      "type": "function"
    },
    {
      "inputs": [
        {
          "internalType": "address",
          "name": "_exchangeConnector",
          "type": "address"
        },
        {
          "internalType": "uint256[]",
          "name": "_amounts",
          "type": "uint256[]"
        },
        {
          "internalType": "bool",
          "name": "_isFixedToken",
          "type": "bool"
        },
        {
          "internalType": "address[]",
          "name": "_path",
          "type": "address[]"
        },
        {
          "internalType": "uint256",
          "name": "_deadline",
          "type": "uint256"
        },
        {
          "internalType": "bytes",
          "name": "_userScript",
          "type": "bytes"
        },
        {
          "internalType": "enum ScriptTypes",
          "name": "_scriptType",
          "type": "uint8"
        },
        {
          "internalType": "bytes",
          "name": "_lockerLockingScript",
          "type": "bytes"
        },
        {
          "internalType": "uint256",
          "name": "thirdParty",
          "type": "uint256"
        }
      ],
      "name": "swapAndUnwrap",
      "outputs": [
        {
          "internalType": "uint256",
          "name": "",
          "type": "uint256"
        }
      ],
      "stateMutability": "payable",
      "type": "function"
    },
    {
      "inputs": [
        {
          "internalType": "address",
          "name": "_exchangeConnector",
          "type": "address"
        },
        {
          "internalType": "uint256[]",
          "name": "_amounts",
          "type": "uint256[]"
        },
        {
          "internalType": "bool",
          "name": "_isFixedToken",
          "type": "bool"
        },
        {
          "internalType": "address[]",
          "name": "_path",
          "type": "address[]"
        },
        {
          "internalType": "uint256",
          "name": "_deadline",
          "type": "uint256"
        },
        {
          "internalType": "bytes",
          "name": "_userScript",
          "type": "bytes"
        },
        {
          "internalType": "enum ScriptTypes",
          "name": "_scriptType",
          "type": "uint8"
        },
        {
          "internalType": "bytes",
          "name": "_lockerLockingScript",
          "type": "bytes"
        },
        {
          "internalType": "uint256",
          "name": "_thirdParty",
          "type": "uint256"
        },
        {
          "internalType": "uint256",
          "name": "_sourceChainId",
          "type": "uint256"
        },
        {
          "internalType": "bytes32",
          "name": "_sourceToken",
          "type": "bytes32"
        }
      ],
      "name": "swapAndUnwrapWithDynamicFee",
      "outputs": [
        {
          "internalType": "uint256",
          "name": "",
          "type": "uint256"
        }
      ],
      "stateMutability": "payable",
      "type": "function"
    },
    {
      "inputs": [],
      "name": "teleBTC",
      "outputs": [
        {
          "internalType": "address",
          "name": "",
          "type": "address"
        }
      ],
      "stateMutability": "view",
      "type": "function"
    },
    {
      "inputs": [
        {
          "internalType": "uint256",
          "name": "",
          "type": "uint256"
        }
      ],
      "name": "thirdPartyAddress",
      "outputs": [
        {
          "internalType": "address",
          "name": "",
          "type": "address"
        }
      ],
      "stateMutability": "view",
      "type": "function"
    },
    {
      "inputs": [
        {
          "internalType": "uint256",
          "name": "",
          "type": "uint256"
        }
      ],
      "name": "thirdPartyFee",
      "outputs": [
        {
          "internalType": "uint256",
          "name": "",
          "type": "uint256"
        }
      ],
      "stateMutability": "view",
      "type": "function"
    },
    {
      "inputs": [],
      "name": "transferDeadline",
      "outputs": [
        {
          "internalType": "uint256",
          "name": "",
          "type": "uint256"
        }
      ],
      "stateMutability": "view",
      "type": "function"
    },
    {
      "inputs": [
        {
          "internalType": "address",
          "name": "newOwner",
          "type": "address"
        }
      ],
      "name": "transferOwnership",
      "outputs": [],
      "stateMutability": "nonpayable",
      "type": "function"
    },
    {
      "inputs": [],
      "name": "treasury",
      "outputs": [
        {
          "internalType": "address",
          "name": "",
          "type": "address"
        }
      ],
      "stateMutability": "view",
      "type": "function"
    },
    {
      "inputs": [
        {
          "internalType": "uint256",
          "name": "_amount",
          "type": "uint256"
        },
        {
          "internalType": "bytes",
          "name": "_userScript",
          "type": "bytes"
        },
        {
          "internalType": "enum ScriptTypes",
          "name": "_scriptType",
          "type": "uint8"
        },
        {
          "internalType": "bytes",
          "name": "_lockerLockingScript",
          "type": "bytes"
        },
        {
          "internalType": "uint256",
          "name": "thirdParty",
          "type": "uint256"
        }
      ],
      "name": "unwrap",
      "outputs": [
        {
          "internalType": "uint256",
          "name": "burntAmount",
          "type": "uint256"
        }
      ],
      "stateMutability": "nonpayable",
      "type": "function"
    },
    {
      "inputs": [],
      "name": "wrappedNativeToken",
      "outputs": [
        {
          "internalType": "address",
          "name": "",
          "type": "address"
        }
      ],
      "stateMutability": "view",
      "type": "function"
    },
    {
      "stateMutability": "payable",
      "type": "receive"
    }
  ],
  "transactionHash": "0x0d5ecccfba5d504f1e49d4db5d0c464cccbab224ad5d3d08607490a2b7948693",
  "args": [],
  "numDeployments": 1,
  "solcInputHash": "d9b7352e907befb3582d4e96b6873df3",
  "bytecode": "0x608060405234801561001057600080fd5b50615feb80620000216000396000f3fe60806040526004361061023d5760003560e01c806304433dc71461024957806317fcb39b1461027c5780631812adb6146102a95780631876dec4146102bf5780631e236168146102df5780631e7107c71461031f57806322e4d547146103415780632d0ea4b11461036157806333453d15146103775780633fea436714610397578063419cba7f146103b757806344dd6aa5146103cd5780634782bc36146103e057806350a058361461040057806359fd0b0c146104205780635c4f5f3e1461044d57806361d027b31461046d578063639080201461048d5780636600203d146104a357806370872aa5146104c3578063715018a6146104d957806373532b2a146104ee578063755ec2331461050e5780637ed557481461052e5780637f0f18171461054e5780637ffe9a921461056e5780638d3d78cd1461058e5780638d5fc1d4146105ae5780638da5cb5b146105ce5780638f9eb78b146105e3578063930a60e814610603578063a1809b9514610630578063a9b6827114610650578063aaebab9214610686578063acc2166a146106a6578063b14d3532146106c6578063b59589d1146106e6578063b74d0d3514610706578063bed6a6021461071c578063c780c03f14610732578063c805f68b14610745578063ca3fc40014610765578063cf3641f514610785578063cf54ce4714610798578063da058ae3146107b8578063ea732637146107d8578063ee333f11146107eb578063f0f4426014610832578063f2fde38b14610852578063f47e22401461087257600080fd5b3661024457005b600080fd5b34801561025557600080fd5b50610269610264366004614f7e565b6108a6565b6040519081526020015b60405180910390f35b34801561028857600080fd5b5060a65461029c906001600160a01b031681565b60405161027391906156cf565b3480156102b557600080fd5b5061026960075481565b3480156102cb57600080fd5b5060015461029c906001600160a01b031681565b3480156102eb57600080fd5b5061030f6102fa366004614f7e565b600c6020526000908152604090205460ff1681565b6040519015158152602001610273565b34801561032b57600080fd5b5061033f61033a366004614f7e565b6108c7565b005b34801561034d57600080fd5b5061033f61035c366004614f23565b61093b565b34801561036d57600080fd5b506102696103e881565b34801561038357600080fd5b5061033f610392366004614c53565b610aa4565b3480156103a357600080fd5b506102696103b2366004615447565b610b15565b3480156103c357600080fd5b5061026960085481565b6102696103db366004614c8b565b610c83565b3480156103ec57600080fd5b5061033f6103fb366004614f7e565b610dfb565b34801561040c57600080fd5b5060045461029c906001600160a01b031681565b34801561042c57600080fd5b5061026961043b366004614f7e565b60a46020526000908152604090205481565b34801561045957600080fd5b5061033f610468366004614f7e565b610e95565b34801561047957600080fd5b5060035461029c906001600160a01b031681565b34801561049957600080fd5b5061026960a75481565b3480156104af57600080fd5b5061033f6104be366004614f7e565b61102b565b3480156104cf57600080fd5b5061026960055481565b3480156104e557600080fd5b5061033f61105a565b3480156104fa57600080fd5b5061033f6105093660046150d3565b611064565b34801561051a57600080fd5b5061033f6105293660046152c1565b61168a565b34801561053a57600080fd5b5061033f610549366004614f7e565b61181c565b34801561055a57600080fd5b5061033f610569366004614c53565b611886565b34801561057a57600080fd5b5061030f610589366004614ec2565b611920565b34801561059a57600080fd5b5060025461029c906001600160a01b031681565b3480156105ba57600080fd5b5061033f6105c9366004615292565b611978565b3480156105da57600080fd5b5061029c611a1c565b3480156105ef57600080fd5b5061033f6105fe3660046154d0565b611a2b565b34801561060f57600080fd5b5061026961061e366004614c53565b600b6020526000908152604090205481565b34801561063c57600080fd5b5061033f61064b366004614c53565b611a90565b34801561065c57600080fd5b5061029c61066b366004614f7e565b60a5602052600090815260409020546001600160a01b031681565b34801561069257600080fd5b5061033f6106a136600461536e565b611aba565b3480156106b257600080fd5b5060a85461029c906001600160a01b031681565b3480156106d257600080fd5b5061033f6106e1366004614c53565b611d11565b3480156106f257600080fd5b5060005461029c906001600160a01b031681565b34801561071257600080fd5b5061026960095481565b34801561072857600080fd5b5061026960065481565b61033f610740366004615138565b611dab565b34801561075157600080fd5b5061033f610760366004614c53565b611f29565b34801561077157600080fd5b50610269610780366004615416565b611fc3565b610269610793366004614da3565b611fdc565b3480156107a457600080fd5b5061033f6107b3366004614f7e565b6120cf565b3480156107c457600080fd5b5061033f6107d3366004614c53565b61216a565b61030f6107e6366004614fae565b6121db565b3480156107f757600080fd5b50610269610806366004615416565b60a960209081526000948552604080862082529385528385208152918452828420909152825290205481565b34801561083e57600080fd5b5061033f61084d366004614c53565b61254c565b34801561085e57600080fd5b5061033f61086d366004614c53565b6125e6565b34801561087e57600080fd5b5061089261088d366004614ec2565b61265f565b604051610273989796959493929190615cf8565b60aa81815481106108b657600080fd5b600091825260209091200154905081565b6108cf61275c565b60055481116109365760405162461bcd60e51b815260206004820152602860248201527f4275726e526f757465724c6f6769633a206c6f77207374617274696e67426c6f60448201526731b5a73ab6b132b960c11b60648201526084015b60405180910390fd5b600555565b6004546001600160a01b031633148061096c5750610957611a1c565b6001600160a01b0316336001600160a01b0316145b6109885760405162461bcd60e51b815260040161092d90615be7565b60015b81811015610a595782826109a0600184615eb0565b8181106109bd57634e487b7160e01b600052603260045260246000fd5b905060200201358383838181106109e457634e487b7160e01b600052603260045260246000fd5b9050602002013511610a475760405162461bcd60e51b815260206004820152602660248201527f4275726e526f757465724c6f6769633a20626f756e646172696573206e6f74206044820152651cdbdc9d195960d21b606482015260840161092d565b80610a5181615f4b565b91505061098b565b50610a6660aa83836149d7565b507f088675d10df3ad0c72e31e44105834f08d850b54b07a06c99fd853b36605538f8282604051610a9892919061592b565b60405180910390a15050565b610aac61275c565b6004546040517f68bf625687194a1bbeeccbaa327c37aa1f9940a3c6c9e8fe84f06f1dc14fd17691610aeb916001600160a01b039091169084906156e3565b60405180910390a1600480546001600160a01b0319166001600160a01b0392909216919091179055565b6000610b1f6127bb565b6002546001600160a01b03166323b872dd336040516001600160e01b031960e084901b1681526001600160a01b039091166004820152306024820152604481018a9052606401602060405180830381600087803b158015610b7f57600080fd5b505af1158015610b93573d6000803e3d6000fd5b505050506040513d601f19601f82011682018060405250810190610bb79190614f62565b610c0f5760405162461bcd60e51b8152602060048201526024808201527f4275726e526f757465724c6f6769633a207472616e7366657246726f6d2066616044820152631a5b195960e21b606482015260840161092d565b610c6d600260009054906101000a90046001600160a01b03168860008a8a8a8a8a8080601f01602080910402602001604051908101604052809392919081815260200183838082843760009201829052508d93509150819050612815565b9050610c796001607255565b9695505050505050565b6000610c8d6127bb565b6000610d118e8e8e80806020026020016040519081016040528093929190818152602001838360200280828437600081840152601f19601f820116905080830192505050505050508d8d8d808060200260200160405190810160405280939291908181526020018383602002808284376000920191909152508f9250612c1d915050565b9050610dde8d8d6000818110610d3757634e487b7160e01b600052603260045260246000fd5b905060200201358b8b6000818110610d5f57634e487b7160e01b600052603260045260246000fd5b9050602002016020810190610d749190614c53565b8f8f6001818110610d9557634e487b7160e01b600052603260045260246000fd5b90506020020135848b8b8b8b8080601f01602080910402602001604051908101604052809392919081815260200183838082843760009201829052508e93509150819050612cc3565b915050610deb6001607255565b9c9b505050505050505050505050565b610e0361275c565b806127101015610e555760405162461bcd60e51b815260206004820152601f60248201527f4275726e526f757465724c6f6769633a20696e76616c69642072657761726400604482015260640161092d565b7faa50b3683e42a13535a5b9c2c32780cccf956fb546b523a3542ac4ad8b544f6760085482604051610e88929190615cea565b60405180910390a1600855565b600080546040516353bcd1c960e11b8152732756cA1c98697EFC08EFDF72F1B8e34EC7e63a119163a779a39291610ed8916001600160a01b0316906004016156cf565b60206040518083038186803b158015610ef057600080fd5b505af4158015610f04573d6000803e3d6000fd5b505050506040513d601f19601f82011682018060405250810190610f289190614f96565b9050610f32611a1c565b6001600160a01b0316336001600160a01b03161480610f52575080600654105b610f9b5760405162461bcd60e51b815260206004820152601a602482015279109d5c9b949bdd5d195c931bd9da58ce881b9bc81c195c9b5a5d60321b604482015260640161092d565b808211610fea5760405162461bcd60e51b815260206004820152601d60248201527f4275726e526f757465724c6f6769633a206c6f7720646561646c696e65000000604482015260640161092d565b7f92c10a242ca42973030420e2ee32b3ba7818cc643f896958f620c606cf3004166006548360405161101d929190615cea565b60405180910390a150600655565b61103361275c565b8061271010156110555760405162461bcd60e51b815260040161092d90615c1e565b60a755565b61106261275c565b565b61106c6127bb565b61107461275c565b60015460405163aff2faa360e01b81526001600160a01b039091169063aff2faa3906110a69086908690600401615988565b60206040518083038186803b1580156110be57600080fd5b505afa1580156110d2573d6000803e3d6000fd5b505050506040513d601f19601f820116820180604052508101906110f69190614f62565b6111125760405162461bcd60e51b815260040161092d90615c54565b60015460405163626885b560e11b81526000916001600160a01b03169063c4d10b6a906111459087908790600401615988565b60206040518083038186803b15801561115d57600080fd5b505afa158015611171573d6000803e3d6000fd5b505050506040513d601f19601f820116820180604052508101906111959190614c6f565b905060005b825181101561167957732756cA1c98697EFC08EFDF72F1B8e34EC7e63a116315755789600a848685815181106111e057634e487b7160e01b600052603260045260246000fd5b60209081029190910101516006546000546040516310889dc360e01b8152732756cA1c98697EFC08EFDF72F1B8e34EC7e63a11916310889dc391611230916001600160a01b0316906004016156cf565b60206040518083038186803b15801561124857600080fd5b505af415801561125c573d6000803e3d6000fd5b505050506040513d601f19601f820116820180604052508101906112809190614f96565b6005546040516001600160e01b031960e089901b16815260048101969096526001600160a01b03909416602486015260448501929092526064840152608483015260a482015260c40160006040518083038186803b1580156112e157600080fd5b505af41580156112f5573d6000803e3d6000fd5b50506001546008546001600160a01b038681166000908152600a602052604090208851919093169450631697565b93508692612710929189908890811061134c57634e487b7160e01b600052603260045260246000fd5b60200260200101518154811061137257634e487b7160e01b600052603260045260246000fd5b90600052602060002090600702016000015461138e9190615e68565b6113989190615e48565b336001600160a01b0387166000908152600a6020526040902088518990889081106113d357634e487b7160e01b600052603260045260246000fd5b6020026020010151815481106113f957634e487b7160e01b600052603260045260246000fd5b906000526020600020906007020160000154600a6000896001600160a01b03166001600160a01b0316815260200190815260200160002089888151811061145057634e487b7160e01b600052603260045260246000fd5b60200260200101518154811061147657634e487b7160e01b600052603260045260246000fd5b600091825260209091206007909102016002015460405160e087901b6001600160e01b03191681526001600160a01b03958616600482015260248101949094529184166044840152606483015291909116608482015260a401602060405180830381600087803b1580156114e957600080fd5b505af11580156114fd573d6000803e3d6000fd5b505050506040513d601f19601f820116820180604052508101906115219190614f62565b506001600160a01b0382166000818152600a60205260409020845185908490811061155c57634e487b7160e01b600052603260045260246000fd5b60200260200101518154811061158257634e487b7160e01b600052603260045260246000fd5b906000526020600020906007020160020160009054906101000a90046001600160a01b03166001600160a01b03167f58c23b4ae0617be275628875bcfd65759a441263099a256eeb27899fb5dd846d8787600a6000886001600160a01b03166001600160a01b0316815260200190815260200160002088878151811061161857634e487b7160e01b600052603260045260246000fd5b60200260200101518154811061163e57634e487b7160e01b600052603260045260246000fd5b90600052602060002090600702016006015460405161165f9392919061599c565b60405180910390a38061167181615f4b565b91505061119a565b50506116856001607255565b505050565b600d54610100900460ff16158080156116aa5750600d54600160ff909116105b806116c45750303b1580156116c45750600d5460ff166001145b6117275760405162461bcd60e51b815260206004820152602e60248201527f496e697469616c697a61626c653a20636f6e747261637420697320616c72656160448201526d191e481a5b9a5d1a585b1a5e995960921b606482015260840161092d565b600d805460ff19166001179055801561174a57600d805461ff0019166101001790555b611752612cd8565b61175a612d07565b6117638c6108c7565b61176c8b611f29565b6117758a611d11565b61177e8961254c565b61178788611886565b61179087610e95565b6117998661181c565b6117a28561102b565b6117ab84610dfb565b6117b6610392611a1c565b6117bf836120cf565b6117c88261216a565b801561180e57600d805461ff0019169055604051600181527f7f26b83ff96e1f2b6a682f133852f6798a09c465da95921460cefb38474024989060200160405180910390a15b505050505050505050505050565b61182461275c565b8061271010156118465760405162461bcd60e51b815260040161092d90615c1e565b7f7d205f60891f60851c61cd244ba387d72b6589e7c0ac41b9d909ab0ce2c2a53b60075482604051611879929190615cea565b60405180910390a1600755565b61188e61275c565b806001600160a01b0381166118b65760405163d92e233d60e01b815260040160405180910390fd5b6002546040517f36a4c08a38b736dcecb6c328dba61238529620e83ccb23db2cc43cd34ec26096916118f5916001600160a01b039091169085906156e3565b60405180910390a150600280546001600160a01b0319166001600160a01b0392909216919091179055565b6001600160a01b0382166000908152600a6020526040812080548390811061195857634e487b7160e01b600052603260045260246000fd5b600091825260209091206005600790920201015460ff1690505b92915050565b61198061275c565b600082815260a56020526040908190205490517f1e73962bcff5b98a9ac70c9b0f71fbb31dc0f5a09348c6d3ceab164169a9e729916119e69185916001600160a01b03169085909283526001600160a01b03918216602084015216604082015260600190565b60405180910390a1600091825260a5602052604090912080546001600160a01b0319166001600160a01b03909216919091179055565b6040546001600160a01b031690565b611a3361275c565b600082815260a46020526040908190205490517f188adabf806a6b6d814acc1dbd9f09e5a251c8c065d6285749a5824e4579b64591611a76918591908590615cd4565b60405180910390a1600091825260a4602052604090912055565b611a9861275c565b60a880546001600160a01b0319166001600160a01b0392909216919091179055565b6004546001600160a01b0316331480611aeb5750611ad6611a1c565b6001600160a01b0316336001600160a01b0316145b611b075760405162461bcd60e51b815260040161092d90615be7565b8483148015611b1557508281145b611b705760405162461bcd60e51b815260206004820152602660248201527f4275726e526f757465724c6f6769633a206172726179206c656e677468206d696044820152650e6dac2e8c6d60d31b606482015260840161092d565b60005b81811015611cc357612710838383818110611b9e57634e487b7160e01b600052603260045260246000fd5b905060200201351115611bfd5760405162461bcd60e51b815260206004820152602160248201527f4275726e526f757465724c6f6769633a20666565206f7574206f662072616e676044820152606560f81b606482015260840161092d565b828282818110611c1d57634e487b7160e01b600052603260045260246000fd5b60008c815260a9602090815260408083208e8452825282209202939093013592909150898985818110611c6057634e487b7160e01b600052603260045260246000fd5b9050602002013581526020019081526020016000206000878785818110611c9757634e487b7160e01b600052603260045260246000fd5b905060200201358152602001908152602001600020819055508080611cbb90615f4b565b915050611b73565b5086887f70355afeb4e663de755cdb0e6f9a7b9179231933ad90bf94c1257a3a526946a5888888888888604051611cff9695949392919061593f565b60405180910390a35050505050505050565b611d1961275c565b806001600160a01b038116611d415760405163d92e233d60e01b815260040160405180910390fd5b6001546040517ffa021c2ec0f46429a53e7f88b88065e40001f50c9d38b2e8b713beaf9828d4c391611d80916001600160a01b039091169085906156e3565b60405180910390a150600180546001600160a01b0319166001600160a01b0392909216919091179055565b611db36127bb565b611dbb61275c565b6000611e1989600081518110611de157634e487b7160e01b600052603260045260246000fd5b6020026020010151898987600081518110611e0c57634e487b7160e01b600052603260045260246000fd5b6020026020010151612d36565b9050732756cA1c98697EFC08EFDF72F1B8e34EC7e63a1163441d3a21600160009054906101000a90046001600160a01b03168c8c60405180606001604052808e81526020018c81526020018b815250600c60065460008054906101000a90046001600160a01b03166005548a8e8e8e6040518d63ffffffff1660e01b8152600401611eaf9c9b9a999897969594939291906157c6565b60006040518083038186803b158015611ec757600080fd5b505af4158015611edb573d6000803e3d6000fd5b50505050611f13878b8385600281518110611f0657634e487b7160e01b600052603260045260246000fd5b6020026020010151612e94565b50611f1e6001607255565b505050505050505050565b611f3161275c565b806001600160a01b038116611f595760405163d92e233d60e01b815260040160405180910390fd5b6000546040517f4c28a3f61a715259c4dc930c23e7423b8fa52e13232c061a6e488729c66184f491611f98916001600160a01b039091169085906156e3565b60405180910390a150600080546001600160a01b0319166001600160a01b0392909216919091179055565b6000611fd18585858561303e565b90505b949350505050565b6000611fe66127bb565b60006120368e8e8e8e8e80806020026020016040519081016040528093929190818152602001838360200280828437600081840152601f19601f820116905080830192505050505050508d612c1d565b9050610dde8d60008151811061205c57634e487b7160e01b600052603260045260246000fd5b60200260200101518c8c600081811061208557634e487b7160e01b600052603260045260246000fd5b905060200201602081019061209a9190614c53565b8f6001815181106120bb57634e487b7160e01b600052603260045260246000fd5b6020026020010151848c8c8c8c8c8c612cc3565b60045433906001600160a01b031681146121295760405162461bcd60e51b815260206004820152601b60248201527a4275726e526f757465724c6f6769633a206e6f74206f7261636c6560281b604482015260640161092d565b7f890eb41e398fd9cf425695b34269b781ad56c257422859094a28db47fb78f1b36009548360405161215c929190615cea565b60405180910390a150600955565b61217261275c565b60a6546040517f4da8064030e901e42f6de0ab04f4c322d7936d0120503addfe8a51f127090689916121b1916001600160a01b039091169084906156e3565b60405180910390a160a680546001600160a01b0319166001600160a01b0392909216919091179055565b60006121e56127bb565b60015460405163626885b560e11b81526000916001600160a01b03169063c4d10b6a906122169088906004016159c0565b60206040518083038186803b15801561222e57600080fd5b505afa158015612242573d6000803e3d6000fd5b505050506040513d601f19601f820116820180604052508101906122669190614c6f565b9050336001600160a01b038216148061229257506004546001600160a01b0316336001600160a01b0316145b6122ae5760405162461bcd60e51b815260040161092d90615c54565b732756cA1c98697EFC08EFDF72F1B8e34EC7e63a116344922b64896005548c600160009054906101000a90046001600160a01b03168a8a518a516040518863ffffffff1660e01b815260040161230a9796959493929190615d5b565b60006040518083038186803b15801561232257600080fd5b505af4158015612336573d6000803e3d6000fd5b5050505060006123488d8d8d8d612d36565b600054604051637ebc232760e01b8152919250732756cA1c98697EFC08EFDF72F1B8e34EC7e63a1191637ebc232791612397916001600160a01b039091169085908e908e908e90600401615787565b60206040518083038186803b1580156123af57600080fd5b505af41580156123c3573d6000803e3d6000fd5b505050506040513d601f19601f820116820180604052508101906123e79190614f62565b6124335760405162461bcd60e51b815260206004820152601e60248201527f4275726e526f757465724c6f6769633a206e6f742066696e616c697a65640000604482015260640161092d565b6000612443828b858f8a8a613091565b9050732756cA1c98697EFC08EFDF72F1B8e34EC7e63a1163191e28dc600c838f8b876040518663ffffffff1660e01b8152600401612485959493929190615ba3565b60206040518083038186803b15801561249d57600080fd5b505af41580156124b1573d6000803e3d6000fd5b505050506040513d601f19601f820116820180604052508101906124d59190614f62565b61252d5760405162461bcd60e51b815260206004820152602360248201527f4275726e526f757465724c6f6769633a20696e76616c6964206275726e20707260448201526237b7b360e91b606482015260840161092d565b6001935050505061253e6001607255565b9a9950505050505050505050565b61255461275c565b806001600160a01b03811661257c5760405163d92e233d60e01b815260040160405180910390fd5b6003546040517f567657fa3f286518b318f4a29870674f433f622fdfc819691acb13105b228225916125bb916001600160a01b039091169085906156e3565b60405180910390a150600380546001600160a01b0319166001600160a01b0392909216919091179055565b6125ee61275c565b6001600160a01b0381166126535760405162461bcd60e51b815260206004820152602660248201527f4f776e61626c653a206e6577206f776e657220697320746865207a65726f206160448201526564647265737360d01b606482015260840161092d565b61265c8161328c565b50565b600a602052816000526040600020818154811061267b57600080fd5b600091825260209091206007909102018054600182015460028301546003840180549396509194506001600160a01b031692916126b790615f16565b80601f01602080910402602001604051908101604052809291908181526020018280546126e390615f16565b80156127305780601f1061270557610100808354040283529160200191612730565b820191906000526020600020905b81548152906001019060200180831161271357829003601f168201915b505050600484015460058501546006909501549394909360ff8083169450610100909204909116915088565b33612765611a1c565b6001600160a01b0316146110625760405162461bcd60e51b815260206004820181905260248201527f4f776e61626c653a2063616c6c6572206973206e6f7420746865206f776e6572604482015260640161092d565b6002607254141561280e5760405162461bcd60e51b815260206004820152601f60248201527f5265656e7472616e637947756172643a207265656e7472616e742063616c6c00604482015260640161092d565b6002607255565b600154604051630f87661560e41b8152600091732756cA1c98697EFC08EFDF72F1B8e34EC7e63a119163f876615091612862918b918b916001600160a01b03909116908b906004016159d3565b60006040518083038186803b15801561287a57600080fd5b505af415801561288e573d6000803e3d6000fd5b5050505061289a614a1e565b6128a8898b888888886132dc565b60025460015460405163095ea7b360e01b81529295509293506001600160a01b039081169263095ea7b3926128e592909116908690600401615912565b602060405180830381600087803b1580156128ff57600080fd5b505af1158015612913573d6000803e3d6000fd5b505050506040513d601f19601f820116820180604052508101906129379190614f62565b506001546040516338463cff60e01b81526001600160a01b03909116906338463cff9061296a9089908690600401615abd565b602060405180830381600087803b15801561298457600080fd5b505af1158015612998573d6000803e3d6000fd5b505050506040513d601f19601f820116820180604052508101906129bc9190614f96565b5060015460405163626885b560e11b81526000916001600160a01b03169063c4d10b6a906129ee908a906004016159c0565b60206040518083038186803b158015612a0657600080fd5b505afa158015612a1a573d6000803e3d6000fd5b505050506040513d601f19601f82011682018060405250810190612a3e9190614c6f565b6000546040516310889dc360e01b8152919250612ae5918c9186918d918d91732756cA1c98697EFC08EFDF72F1B8e34EC7e63a11916310889dc391612a8f916001600160a01b0316906004016156cf565b60206040518083038186803b158015612aa757600080fd5b505af4158015612abb573d6000803e3d6000fd5b505050506040513d601f19601f82011682018060405250810190612adf9190614f96565b86613855565b604080516060810182528d815260208082018d90528183018690526001600160a01b0384166000908152600a9091529190912080548f9190612b2990600190615eb0565b81548110612b4757634e487b7160e01b600052603260045260246000fd5b906000526020600020906007020160040154612b603390565b6001600160a01b038581166000908152600a60205260409020805492909116917f6b5c22e69db87534a562352580358411dc7b2d98d24684765342f2ebf2dd8c31918f918f918991612bb490600190615eb0565b81548110612bd257634e487b7160e01b600052603260045260246000fd5b9060005260206000209060070201600601548e888a8d604051612bfc989796959493929190615a14565b60405180910390a3505050509a9950505050505050505050565b6001607255565b60025460a654604051634ef0330360e11b8152600092732756cA1c98697EFC08EFDF72F1B8e34EC7e63a1192639de0660692612c73926001600160a01b039081169216908b908b908b908b908b906004016156fd565b60206040518083038186803b158015612c8b57600080fd5b505af4158015612c9f573d6000803e3d6000fd5b505050506040513d601f19601f82011682018060405250810190610c799190614f96565b600080610deb8b8d8c8c8c8c8c8c8c8c612815565b600d54610100900460ff16612cff5760405162461bcd60e51b815260040161092d90615c89565b611062613901565b600d54610100900460ff16612d2e5760405162461bcd60e51b815260040161092d90615c89565b611062613931565b600080612d4b612d468683613958565b61397c565b905062ffffff198082161415612da05760405162461bcd60e51b815260206004820152601a602482015279109a5d18dbda5b92195b1c195c8e881d9a5b881a5cc81b9d5b1b60321b604482015260640161092d565b6000600287878787604051602001612dbb9493929190615660565b60408051601f1981840301815290829052612dd5916156b3565b602060405180830381855afa158015612df2573d6000803e3d6000fd5b5050506040513d601f19601f82011682018060405250810190612e159190614f96565b90506000600282604051602001612e2e91815260200190565b60408051601f1981840301815290829052612e48916156b3565b602060405180830381855afa158015612e65573d6000803e3d6000fd5b5050506040513d601f19601f82011682018060405250810190612e889190614f96565b98975050505050505050565b60015460085460405163846852f960e01b815260009283928392732756cA1c98697EFC08EFDF72F1B8e34EC7e63a119263846852f992612eea926001600160a01b03909216918c918c9161271090600401615886565b60606040518083038186803b158015612f0257600080fd5b505af4158015612f16573d6000803e3d6000fd5b505050506040513d601f19601f82011682018060405250810190612f3a9190614eed565b60015492955090935091506001600160a01b031663b734de2684843360405160e085901b6001600160e01b03191681526001600160a01b0393841660048201526024810192909252909116604482015260648101849052608401602060405180830381600087803b158015612fae57600080fd5b505af1158015612fc2573d6000803e3d6000fd5b505050506040513d601f19601f82011682018060405250810190612fe69190614f62565b506000612ff38383615e05565b90507f7ff138134e34ccab071315c38e38eec079f54726b890304ab46e2c5ab6f722bb848887898560405161302c9594939291906158d1565b60405180910390a15050505050505050565b60008061304a83613ac9565b600087815260a96020908152604080832089845282528083208884528252808320848452909152902054909150806130845760a754613086565b805b979650505050505050565b60405163fadc646560e01b8152600090732756cA1c98697EFC08EFDF72F1B8e34EC7e63a119063fadc6465906130d690600a908a908a908a908a908a90600401615b50565b60206040518083038186803b1580156130ee57600080fd5b505af4158015613102573d6000803e3d6000fd5b505050506040513d601f19601f820116820180604052508101906131269190614f96565b905060005b835181101561328157600084828151811061315657634e487b7160e01b600052603260045260246000fd5b60200260200101519050600a6000886001600160a01b03166001600160a01b0316815260200190815260200160002081815481106131a457634e487b7160e01b600052603260045260246000fd5b600091825260209091206005600790920201015460ff161561326e576001600160a01b0387166000818152600a6020526040902080547f7b8cb33b1d4dc1e5d05c58e9945c383eb161ac22029c5b963989d08c3d0ef4da91908490811061321b57634e487b7160e01b600052603260045260246000fd5b9060005260206000209060070201600601548b87868151811061324e57634e487b7160e01b600052603260045260246000fd5b602002602001015160405161326593929190615cd4565b60405180910390a25b508061327981615f4b565b91505061312b565b509695505050505050565b604080546001600160a01b038381166001600160a01b031983168117845592519116919082907f8be0079c531659141344cd1fd0a4f28419497f9722a3daafe3b4186f6b6457e090600090a35050565b6132e4614a1e565b6000806127106007548a6132f89190615e68565b6133029190615e48565b600087815260a460205260408120549192509061271090613323908c615e68565b61332d9190615e48565b9050600061333d87878a8e61303e565b9050600061271061334e838e615e68565b6133589190615e48565b90506009548184868f61336b9190615eb0565b6133759190615eb0565b61337f9190615eb0565b6133899190615eb0565b94506103e88510156133dd5760405162461bcd60e51b815260206004820181905260248201527f4275726e526f757465724c6f6769633a206c6f776572207468616e2064757374604482015260640161092d565b8a85101561343b5760405162461bcd60e51b815260206004820152602560248201527f4275726e526f757465724c6f6769633a206c6f776572207468616e2072657175604482015264195cdd195960da1b606482015260840161092d565b83156135215760025460035460405163a9059cbb60e01b81526001600160a01b039283169263a9059cbb92613477929116908890600401615912565b602060405180830381600087803b15801561349157600080fd5b505af11580156134a5573d6000803e3d6000fd5b505050506040513d601f19601f820116820180604052508101906134c99190614f62565b6135215760405162461bcd60e51b8152602060048201526024808201527f4275726e526f757465724c6f6769633a20666565207472616e736665722066616044820152631a5b195960e21b606482015260840161092d565b82156136215760025460008a815260a560205260409081902054905163a9059cbb60e01b81526001600160a01b039283169263a9059cbb9261356a929116908790600401615912565b602060405180830381600087803b15801561358457600080fd5b505af1158015613598573d6000803e3d6000fd5b505050506040513d601f19601f820116820180604052508101906135bc9190614f62565b6136215760405162461bcd60e51b815260206004820152603060248201527f4275726e526f757465724c6f6769633a2074686972642070617274792066656560448201526f081d1c985b9cd9995c8819985a5b195960821b606482015260840161092d565b600954156137965760015460405163626885b560e11b81526000916001600160a01b03169063c4d10b6a9061365a908e906004016159c0565b60206040518083038186803b15801561367257600080fd5b505afa158015613686573d6000803e3d6000fd5b505050506040513d601f19601f820116820180604052508101906136aa9190614c6f565b60025460095460405163a9059cbb60e01b81529293506001600160a01b039091169163a9059cbb916136e191859190600401615912565b602060405180830381600087803b1580156136fb57600080fd5b505af115801561370f573d6000803e3d6000fd5b505050506040513d601f19601f820116820180604052508101906137339190614f62565b6137945760405162461bcd60e51b815260206004820152602c60248201527f4275726e526f757465724c6f6769633a206e6574776f726b206665652074726160448201526b1b9cd9995c8819985a5b195960a21b606482015260840161092d565b505b80156138255760015460405163626885b560e11b8152613825916001600160a01b03169063c4d10b6a906137ce908e906004016159c0565b60206040518083038186803b1580156137e657600080fd5b505afa1580156137fa573d6000803e3d6000fd5b505050506040513d601f19601f8201168201806040525081019061381e9190614c6f565b828b613b2c565b60408051608081018252600954815260208101929092528101939093525060608201529890975095505050505050565b732756cA1c98697EFC08EFDF72F1B8e34EC7e63a1163aa25f840600a600b8989898989896006546138833390565b6040518b63ffffffff1660e01b81526004016138a89a99989796959493929190615adf565b60206040518083038186803b1580156138c057600080fd5b505af41580156138d4573d6000803e3d6000fd5b505050506040513d601f19601f820116820180604052508101906138f89190614f96565b50505050505050565b600d54610100900460ff166139285760405162461bcd60e51b815260040161092d90615c89565b6110623361328c565b600d54610100900460ff16612c165760405162461bcd60e51b815260040161092d90615c89565b81516000906020840161397364ffffffffff85168284613cb4565b95945050505050565b60008181613992815b62ffffff19841690613cfb565b506139a262ffffff198516613dd5565b6001600160601b03166139be576139b7613de4565b9250613ac2565b60006139cb856000613dec565b905060006139de62ffffff198716613dd5565b6001600160601b031690506001600160401b038216613a08576139ff613de4565b94505050613ac2565b6000613a1383613f35565b60ff16905060005b836001600160401b0316811015613a8f57828210613a4657613a3b613de4565b965050505050613ac2565b6000613a64613a558486615eb0565b62ffffff198b16906005613f93565b9050613a6f81613fbd565b613a799084615e05565b9250508080613a8790615f4b565b915050613a1b565b50818114613aa957613a9f613de4565b9550505050613ac2565b6301000000600160d81b038716600360d91b1795505050505b5050919050565b6000805b60aa54811015613b225760aa8181548110613af857634e487b7160e01b600052603260045260246000fd5b9060005260206000200154831015613b105792915050565b80613b1a81615f4b565b915050613acd565b505060aa54919050565b81156116855760a8546001600160a01b03161580613b4957508015155b15613bd85760025460405163a9059cbb60e01b81526001600160a01b039091169063a9059cbb90613b809086908690600401615912565b602060405180830381600087803b158015613b9a57600080fd5b505af1158015613bae573d6000803e3d6000fd5b505050506040513d601f19601f82011682018060405250810190613bd29190614f62565b50505050565b60025460a85460405163095ea7b360e01b81526001600160a01b039283169263095ea7b392613c0e929116908690600401615912565b602060405180830381600087803b158015613c2857600080fd5b505af1158015613c3c573d6000803e3d6000fd5b505050506040513d601f19601f82011682018060405250810190613c609190614f62565b5060a854604051613bd2916001600160a01b031690613c859086908690602401615912565b60408051601f198184030181529190526020810180516001600160e01b0316637db4e28f60e01b179052614011565b600080613cc18385615e05565b9050604051811115613cd1575060005b80613ce35762ffffff19915050613cf4565b5050606083811b8317901b811760181b5b9392505050565b6000613d078383614053565b613dce576000613d26613d1a8560d81c90565b64ffffffffff16614076565b9150506000613d3b8464ffffffffff16614076565b6040517f5479706520617373657274696f6e206661696c65642e20476f7420307800000060208201526001600160b01b031960b086811b8216603d8401526c05c408af0e0cac6e8cac84060f609b1b604784015283901b16605482015290925060009150605e015b60405160208183030381529060405290508060405162461bcd60e51b815260040161092d91906159c0565b5090919050565b60181c6001600160601b031690565b62ffffff1990565b600080613e0162ffffff198516846001614122565b905060fc8111613e1c57613e1481614152565b915050611972565b8060fd1415613e8257613e4a613e45613e36856001615e05565b62ffffff1987169060026141be565b614152565b9150613e5582613f35565b60ff16600314613e7d57613e7b613e7662ffffff1986168560036000614301565b614367565b505b613f2e565b8060fe1415613ed757613eab613e45613e9c856001615e05565b62ffffff1987169060046141be565b9150613eb682613f35565b60ff16600514613e7d57613e7b613e7662ffffff1986168560056000614301565b8060ff1415613f2e57613f00613e45613ef1856001615e05565b62ffffff1987169060086141be565b9150613f0b82613f35565b60ff16600914613f2e57613f2c613e7662ffffff1986168560096000614301565b505b5092915050565b600060fc826001600160401b031611613f5057506001919050565b61ffff826001600160401b031611613f6a57506003919050565b63ffffffff826001600160401b031611613f8657506005919050565b506009919050565b919050565b6000611fd48484613fa387613dd5565b6001600160601b0316613fb69190615eb0565b8585614301565b6000816005613fcb81613985565b506000613fd9856024613dec565b9050806001600160401b0316613fee82613f35565b60ff16613ffb9190615e05565b614006906024615e05565b613973906004615e05565b6060613cf483836040518060400160405280601e81526020017f416464726573733a206c6f772d6c6576656c2063616c6c206661696c656400008152506143ef565b60008164ffffffffff166140678460d81c90565b64ffffffffff16149392505050565b600080601f5b600f8160ff1611156140d4576000614095826008615e87565b60ff1685901c90506140a6816143fe565b61ffff16841793508160ff166010146140c157601084901b93505b506140cd600182615ec7565b905061407c565b50600f5b60ff8160ff16101561411c5760ff600882021684901c6140f7816143fe565b61ffff16831792508160ff1660001461411257601083901b92505b50600019016140d8565b50915091565b600061412f826020615ec7565b61413a906008615e87565b60ff16614148858585614430565b901c949350505050565b60006001600160401b038211156141ba5760405162461bcd60e51b815260206004820152602660248201527f53616665436173743a2076616c756520646f65736e27742066697420696e203660448201526534206269747360d01b606482015260840161092d565b5090565b6000611fd46141ce858585614430565b60008190506008817eff00ff00ff00ff00ff00ff00ff00ff00ff00ff00ff00ff00ff00ff00ff00ff16901b600882901c7eff00ff00ff00ff00ff00ff00ff00ff00ff00ff00ff00ff00ff00ff00ff00ff161790506010817dffff0000ffff0000ffff0000ffff0000ffff0000ffff0000ffff0000ffff16901b601082901c7dffff0000ffff0000ffff0000ffff0000ffff0000ffff0000ffff0000ffff161790506020817bffffffff00000000ffffffff00000000ffffffff00000000ffffffff16901b602082901c7bffffffff00000000ffffffff00000000ffffffff00000000ffffffff161790506040816001600160401b03600160801b03600160c01b0316901b604082901c6001600160401b03600160801b03600160c01b0316179050608081901b608082901c179050919050565b60008061430d8661455e565b6001600160601b031690506143218661456d565b8461432c8784615e05565b6143369190615e05565b11156143495762ffffff19915050611fd4565b6143538582615e05565b9050610c798364ffffffffff168286613cb4565b606060006143a56143a08261439261438462ffffff198816613dd5565b6001600160601b031661459a565b62ffffff1987169190614122565b614076565b6040517a09cdedc5adad2dcd2dac2d840ecc2e440d2dce85c408edee84060f602b1b60208201526001600160701b0319607083901b16603b82015290925060009150604d01613da3565b6060611fd484846000856145fb565b600061441060048360ff16901c614718565b60ff1661ffff919091161760081b61442782614718565b60ff1617919050565b600060ff821661444257506000613cf4565b61444b84613dd5565b6001600160601b031661446160ff841685615e05565b11156144b1576144986144738561455e565b6001600160601b031661448586613dd5565b6001600160601b0316858560ff16614874565b60405162461bcd60e51b815260040161092d91906159c0565b60208260ff1611156145285760405162461bcd60e51b815260206004820152603a60248201527f54797065644d656d566965772f696e646578202d20417474656d7074656420746044820152796f20696e646578206d6f7265207468616e20333220627974657360301b606482015260840161092d565b6008820260006145378661455e565b6001600160601b031690506000600160ff1b60001984011d91909501511695945050505050565b60781c6001600160601b031690565b600061457882613dd5565b6145818361455e565b61458b9190615e1d565b6001600160601b031692915050565b600060ff8211156141ba5760405162461bcd60e51b815260206004820152602560248201527f53616665436173743a2076616c756520646f65736e27742066697420696e2038604482015264206269747360d81b606482015260840161092d565b60608247101561465c5760405162461bcd60e51b815260206004820152602660248201527f416464726573733a20696e73756666696369656e742062616c616e636520666f6044820152651c8818d85b1b60d21b606482015260840161092d565b843b6146aa5760405162461bcd60e51b815260206004820152601d60248201527f416464726573733a2063616c6c20746f206e6f6e2d636f6e7472616374000000604482015260640161092d565b600080866001600160a01b031685876040516146c691906156b3565b60006040518083038185875af1925050503d8060008114614703576040519150601f19603f3d011682016040523d82523d6000602084013e614708565b606091505b509150915061308682828661499e565b600060f08083179060ff821614156147335750603092915050565b8060ff1660f114156147485750603192915050565b8060ff1660f2141561475d5750603292915050565b8060ff1660f314156147725750603392915050565b8060ff1660f414156147875750603492915050565b8060ff1660f5141561479c5750603592915050565b8060ff1660f614156147b15750603692915050565b8060ff1660f714156147c65750603792915050565b8060ff1660f814156147db5750603892915050565b8060ff1660f914156147f05750603992915050565b8060ff1660fa14156148055750606192915050565b8060ff1660fb141561481a5750606292915050565b8060ff1660fc141561482f5750606392915050565b8060ff1660fd14156148445750606492915050565b8060ff1660fe14156148595750606592915050565b8060ff1660ff141561486e5750606692915050565b50919050565b6060600061488186614076565b915050600061488f86614076565b915050600061489d86614076565b91505060006148ab86614076565b604080517f54797065644d656d566965772f696e646578202d204f76657272616e20746865602082015274040ecd2caee5c40a6d8d2c6ca40d2e640c2e84060f605b1b818301526001600160d01b031960d098891b811660558301526e040eed2e8d040d8cadccee8d04060f608b1b605b830181905297891b8116606a8301527f2e20417474656d7074656420746f20696e646578206174206f666673657420306070830152600f60fb1b609083015295881b861660918201526097810196909652951b90921660a68401525050601760f91b60ac8201528151808203608d01815260ad90910190915295945050505050565b606083156149ad575081613cf4565b8251156149bd5782518084602001fd5b8160405162461bcd60e51b815260040161092d91906159c0565b828054828255906000526020600020908101928215614a12579160200282015b82811115614a125782358255916020019190600101906149f7565b506141ba929150614a3c565b60405180608001604052806004906020820280368337509192915050565b5b808211156141ba5760008155600101614a3d565b8035613f8e81615f92565b60008083601f840112614a6d578182fd5b5081356001600160401b03811115614a83578182fd5b6020830191508360208260051b8501011115614a9e57600080fd5b9250929050565b600082601f830112614ab5578081fd5b81356020614aca614ac583615de2565b615db2565b80838252828201915082860187848660051b8901011115614ae9578586fd5b855b85811015614b0e57614afc82614b83565b84529284019290840190600101614aeb565b5090979650505050505050565b600082601f830112614b2b578081fd5b81356020614b3b614ac583615de2565b80838252828201915082860187848660051b8901011115614b5a578586fd5b855b85811015614b0e57813584529284019290840190600101614b5c565b8035613f8e81615fa7565b80356001600160e01b031981168114613f8e57600080fd5b60008083601f840112614bac578182fd5b5081356001600160401b03811115614bc2578182fd5b602083019150836020828501011115614a9e57600080fd5b600082601f830112614bea578081fd5b81356001600160401b03811115614c0357614c03615f7c565b614c16601f8201601f1916602001615db2565b818152846020838601011115614c2a578283fd5b816020850160208301379081016020019190915292915050565b803560068110613f8e57600080fd5b600060208284031215614c64578081fd5b8135613cf481615f92565b600060208284031215614c80578081fd5b8151613cf481615f92565b6000806000806000806000806000806000806101208d8f031215614cad578788fd5b614cb68d614a51565b9b506001600160401b0360208e01351115614ccf578788fd5b614cdf8e60208f01358f01614a5c565b909b509950614cf060408e01614b78565b98506001600160401b0360608e01351115614d09578788fd5b614d198e60608f01358f01614a5c565b909850965060808d013595506001600160401b0360a08e01351115614d3c578485fd5b614d4c8e60a08f01358f01614bda565b9450614d5a60c08e01614c44565b93506001600160401b0360e08e01351115614d73578283fd5b614d838e60e08f01358f01614b9b565b81945080935050506101008d013590509295989b509295989b509295989b565b6000806000806000806000806000806000806101608d8f031215614dc5578081fd5b614dce8d614a51565b9b506001600160401b0360208e01351115614de7578081fd5b614df78e60208f01358f01614b1b565b9a50614e0560408e01614b78565b99506001600160401b0360608e01351115614e1e578081fd5b614e2e8e60608f01358f01614a5c565b909950975060808d013596506001600160401b0360a08e01351115614e51578081fd5b614e618e60a08f01358f01614bda565b9550614e6f60c08e01614c44565b94506001600160401b0360e08e01351115614e88578081fd5b614e988e60e08f01358f01614bda565b93506101008d013592506101208d013591506101408d013590509295989b509295989b509295989b565b60008060408385031215614ed4578182fd5b8235614edf81615f92565b946020939093013593505050565b600080600060608486031215614f01578081fd5b8351614f0c81615f92565b602085015160409095015190969495509392505050565b60008060208385031215614f35578182fd5b82356001600160401b03811115614f4a578283fd5b614f5685828601614a5c565b90969095509350505050565b600060208284031215614f73578081fd5b8151613cf481615fa7565b600060208284031215614f8f578081fd5b5035919050565b600060208284031215614fa7578081fd5b5051919050565b6000806000806000806000806000806101408b8d031215614fcd578384fd5b614fd68b614b83565b995060208b01356001600160401b0380821115614ff1578586fd5b614ffd8e838f01614bda565b9a5060408d0135915080821115615012578586fd5b61501e8e838f01614bda565b995061502c60608e01614b83565b985060808d0135975060a08d0135915080821115615048578586fd5b6150548e838f01614bda565b965060c08d0135955060e08d0135915080821115615070578485fd5b61507c8e838f01614bda565b94506101008d0135915080821115615092578384fd5b61509e8e838f01614b1b565b93506101208d01359150808211156150b4578283fd5b506150c18d828e01614b1b565b9150509295989b9194979a5092959850565b6000806000604084860312156150e7578081fd5b83356001600160401b03808211156150fd578283fd5b61510987838801614b9b565b90955093506020860135915080821115615121578283fd5b5061512e86828701614b1b565b9150509250925092565b60008060008060008060008060006101208a8c031215615156578283fd5b89356001600160401b038082111561516c578485fd5b6151788d838e01614bda565b9a5060208c013591508082111561518d578485fd5b6151998d838e01614aa5565b995060408c01359150808211156151ae578485fd5b6151ba8d838e01614bda565b985060608c01359150808211156151cf578485fd5b6151db8d838e01614bda565b975060808c01359150808211156151f0578485fd5b6151fc8d838e01614bda565b965060a08c0135915080821115615211578485fd5b61521d8d838e01614bda565b955060c08c0135915080821115615232578485fd5b61523e8d838e01614aa5565b945060e08c0135915080821115615253578384fd5b61525f8d838e01614bda565b93506101008c0135915080821115615275578283fd5b506152828c828d01614b1b565b9150509295985092959850929598565b600080604083850312156152a4578182fd5b8235915060208301356152b681615f92565b809150509250929050565b60008060008060008060008060008060006101608c8e0312156152e2578485fd5b8b359a5060208c01356152f481615f92565b995060408c013561530481615f92565b985060608c013561531481615f92565b975060808c013561532481615f92565b965060a08c0135955060c08c0135945060e08c013593506101008c013592506101208c013591506101408c013561535a81615f92565b809150509295989b509295989b9093969950565b60008060008060008060008060a0898b031215615389578182fd5b883597506020890135965060408901356001600160401b03808211156153ad578384fd5b6153b98c838d01614a5c565b909850965060608b01359150808211156153d1578384fd5b6153dd8c838d01614a5c565b909650945060808b01359150808211156153f5578384fd5b506154028b828c01614a5c565b999c989b5096995094979396929594505050565b6000806000806080858703121561542b578182fd5b5050823594602084013594506040840135936060013592509050565b60008060008060008060a0878903121561545f578384fd5b8635955060208701356001600160401b038082111561547c578586fd5b6154888a838b01614bda565b965061549660408a01614c44565b955060608901359150808211156154ab578384fd5b506154b889828a01614b9b565b979a9699509497949695608090950135949350505050565b600080604083850312156154e2578182fd5b50508035926020909101359150565b6001600160a01b03169052565b6000815180845260208085019450808401835b838110156155375781516001600160e01b03191687529582019590820190600101615511565b509495945050505050565b6000826060810183835b600381101561557b578383038752615565838351615612565b602097880197909350919091019060010161554c565b509095945050505050565b81835260006001600160fb1b0383111561559e578081fd5b8260051b80836020870137939093016020019283525090919050565b6000815180845260208085019450808401835b83811015615537578151875295820195908201906001016155cd565b81835281816020850137506000828201602090810191909152601f909101601f19169091010190565b6000815180845261562a816020860160208601615eea565b601f01601f19169290920160200192915050565b6006811061565c57634e487b7160e01b600052602160045260246000fd5b9052565b600063ffffffff60e01b80871683528551615682816004860160208a01615eea565b855190840190615699816004840160208a01615eea565b919094169301600481019390935250506008019392505050565b600082516156c5818460208701615eea565b9190910192915050565b6001600160a01b0391909116815260200190565b6001600160a01b0392831681529116602082015260400190565b600060018060a01b03808a1683526020818a1681850152818916604085015260e0606085015261573060e08501896155ba565b871515608086015284810360a0860152865180825282880191830190855b8181101561576c57835186168352928401929184019160010161574e565b5050809450505050508260c083015298975050505050505050565b60018060a01b038616815284602082015283604082015260a0606082015260006157b460a0830185615612565b90508260808301529695505050505050565b6157d0818e6154f1565b610180602082015260006157e861018083018e615612565b82810360408401526157fa818e6154fe565b9050828103606084015261580e818d615542565b90508a60808401528960a084015261582960c084018a6154f1565b8760e08401528661010084015282810361012084015261584981876154fe565b905082810361014084015261585e8186615612565b905082810361016084015261587381856155ba565b9f9e505050505050505050505050505050565b6001600160a01b038616815260a0602082018190526000906158aa90830187615612565b82810360408401526158bc8187615612565b60608401959095525050608001529392505050565b6001600160a01b038616815260a0602082018190526000906158f590830187615612565b604083019590955250606081019290925260809091015292915050565b6001600160a01b03929092168252602082015260400190565b602081526000611fd4602083018486615586565b60608152600061595360608301888a615586565b8281036020840152615966818789615586565b9050828103604084015261597b818587615586565b9998505050505050505050565b602081526000611fd46020830184866155e9565b6040815260006159b06040830185876155e9565b9050826020830152949350505050565b602081526000613cf46020830184615612565b6080815260006159e66080830187615612565b6159f3602084018761563e565b6001600160a01b038516604084015282810360608401526130868185615612565b60006101a0808352615a288184018c615612565b9150506020615a398184018b61563e565b6001600160a01b0389811660408501526060840189905260808401889052861660a084015260c083018560005b6003811015615a8357815183529183019190830190600101615a66565b50505061012083018460005b6004811015615aac57815183529183019190830190600101615a8f565b505050509998505050505050505050565b604081526000615ad06040830185615612565b90508260208301529392505050565b60006101408c83528b60208401528a6040840152896060840152806080840152615b0b8184018a615612565b915050615b1b60a083018861563e565b60c08201959095526001600160a01b0393841660e0820152610100810192909252909116610120909101529695505050505050565b86815285602082015260018060a01b038516604082015260c060608201526000615b7d60c0830186615612565b8281036080840152615b8f81866155ba565b905082810360a084015261597b81856155ba565b85815284602082015260a060408201526000615bc260a0830186615612565b8281036060840152615bd48186615612565b9150508260808301529695505050505050565b6020808252601f908201527f4275726e526f757465724c6f6769633a206e6f7420617574686f72697a656400604082015260600190565b6020808252601c908201527b4275726e526f757465724c6f6769633a20696e76616c69642066656560201b604082015260600190565b6020808252601b908201527a213ab9372937baba32b92637b3b4b19d103737ba103637b1b5b2b960291b604082015260600190565b6020808252602b908201527f496e697469616c697a61626c653a20636f6e7472616374206973206e6f74206960408201526a6e697469616c697a696e6760a81b606082015260800190565b9283526020830191909152604082015260600190565b918252602082015260400190565b888152602081018890526001600160a01b038716604082015261010060608201819052600090615d2a83820189615612565b91505085608083015284151560a0830152615d4860c083018561563e565b8260e08301529998505050505050505050565b878152602081018790526001600160e01b0319861660408201526001600160a01b038516606082015260e060808201819052600090615d9c90830186615612565b60a08301949094525060c0015295945050505050565b604051601f8201601f191681016001600160401b0381118282101715615dda57615dda615f7c565b604052919050565b60006001600160401b03821115615dfb57615dfb615f7c565b5060051b60200190565b60008219821115615e1857615e18615f66565b500190565b60006001600160601b03828116848216808303821115615e3f57615e3f615f66565b01949350505050565b600082615e6357634e487b7160e01b81526012600452602481fd5b500490565b6000816000190483118215151615615e8257615e82615f66565b500290565b600060ff821660ff84168160ff0481118215151615615ea857615ea8615f66565b029392505050565b600082821015615ec257615ec2615f66565b500390565b600060ff821660ff841680821015615ee157615ee1615f66565b90039392505050565b60005b83811015615f05578181015183820152602001615eed565b83811115613bd25750506000910152565b600181811c90821680615f2a57607f821691505b6020821081141561486e57634e487b7160e01b600052602260045260246000fd5b6000600019821415615f5f57615f5f615f66565b5060010190565b634e487b7160e01b600052601160045260246000fd5b634e487b7160e01b600052604160045260246000fd5b6001600160a01b038116811461265c57600080fd5b801515811461265c57600080fdfea264697066735822122023dae05e6d1057c73f779d428217fb7f34c1e4636718d7021b08c7e23af4328b64736f6c63430008040033",
  "deployedBytecode": "0x60806040526004361061023d5760003560e01c806304433dc71461024957806317fcb39b1461027c5780631812adb6146102a95780631876dec4146102bf5780631e236168146102df5780631e7107c71461031f57806322e4d547146103415780632d0ea4b11461036157806333453d15146103775780633fea436714610397578063419cba7f146103b757806344dd6aa5146103cd5780634782bc36146103e057806350a058361461040057806359fd0b0c146104205780635c4f5f3e1461044d57806361d027b31461046d578063639080201461048d5780636600203d146104a357806370872aa5146104c3578063715018a6146104d957806373532b2a146104ee578063755ec2331461050e5780637ed557481461052e5780637f0f18171461054e5780637ffe9a921461056e5780638d3d78cd1461058e5780638d5fc1d4146105ae5780638da5cb5b146105ce5780638f9eb78b146105e3578063930a60e814610603578063a1809b9514610630578063a9b6827114610650578063aaebab9214610686578063acc2166a146106a6578063b14d3532146106c6578063b59589d1146106e6578063b74d0d3514610706578063bed6a6021461071c578063c780c03f14610732578063c805f68b14610745578063ca3fc40014610765578063cf3641f514610785578063cf54ce4714610798578063da058ae3146107b8578063ea732637146107d8578063ee333f11146107eb578063f0f4426014610832578063f2fde38b14610852578063f47e22401461087257600080fd5b3661024457005b600080fd5b34801561025557600080fd5b50610269610264366004614f7e565b6108a6565b6040519081526020015b60405180910390f35b34801561028857600080fd5b5060a65461029c906001600160a01b031681565b60405161027391906156cf565b3480156102b557600080fd5b5061026960075481565b3480156102cb57600080fd5b5060015461029c906001600160a01b031681565b3480156102eb57600080fd5b5061030f6102fa366004614f7e565b600c6020526000908152604090205460ff1681565b6040519015158152602001610273565b34801561032b57600080fd5b5061033f61033a366004614f7e565b6108c7565b005b34801561034d57600080fd5b5061033f61035c366004614f23565b61093b565b34801561036d57600080fd5b506102696103e881565b34801561038357600080fd5b5061033f610392366004614c53565b610aa4565b3480156103a357600080fd5b506102696103b2366004615447565b610b15565b3480156103c357600080fd5b5061026960085481565b6102696103db366004614c8b565b610c83565b3480156103ec57600080fd5b5061033f6103fb366004614f7e565b610dfb565b34801561040c57600080fd5b5060045461029c906001600160a01b031681565b34801561042c57600080fd5b5061026961043b366004614f7e565b60a46020526000908152604090205481565b34801561045957600080fd5b5061033f610468366004614f7e565b610e95565b34801561047957600080fd5b5060035461029c906001600160a01b031681565b34801561049957600080fd5b5061026960a75481565b3480156104af57600080fd5b5061033f6104be366004614f7e565b61102b565b3480156104cf57600080fd5b5061026960055481565b3480156104e557600080fd5b5061033f61105a565b3480156104fa57600080fd5b5061033f6105093660046150d3565b611064565b34801561051a57600080fd5b5061033f6105293660046152c1565b61168a565b34801561053a57600080fd5b5061033f610549366004614f7e565b61181c565b34801561055a57600080fd5b5061033f610569366004614c53565b611886565b34801561057a57600080fd5b5061030f610589366004614ec2565b611920565b34801561059a57600080fd5b5060025461029c906001600160a01b031681565b3480156105ba57600080fd5b5061033f6105c9366004615292565b611978565b3480156105da57600080fd5b5061029c611a1c565b3480156105ef57600080fd5b5061033f6105fe3660046154d0565b611a2b565b34801561060f57600080fd5b5061026961061e366004614c53565b600b6020526000908152604090205481565b34801561063c57600080fd5b5061033f61064b366004614c53565b611a90565b34801561065c57600080fd5b5061029c61066b366004614f7e565b60a5602052600090815260409020546001600160a01b031681565b34801561069257600080fd5b5061033f6106a136600461536e565b611aba565b3480156106b257600080fd5b5060a85461029c906001600160a01b031681565b3480156106d257600080fd5b5061033f6106e1366004614c53565b611d11565b3480156106f257600080fd5b5060005461029c906001600160a01b031681565b34801561071257600080fd5b5061026960095481565b34801561072857600080fd5b5061026960065481565b61033f610740366004615138565b611dab565b34801561075157600080fd5b5061033f610760366004614c53565b611f29565b34801561077157600080fd5b50610269610780366004615416565b611fc3565b610269610793366004614da3565b611fdc565b3480156107a457600080fd5b5061033f6107b3366004614f7e565b6120cf565b3480156107c457600080fd5b5061033f6107d3366004614c53565b61216a565b61030f6107e6366004614fae565b6121db565b3480156107f757600080fd5b50610269610806366004615416565b60a960209081526000948552604080862082529385528385208152918452828420909152825290205481565b34801561083e57600080fd5b5061033f61084d366004614c53565b61254c565b34801561085e57600080fd5b5061033f61086d366004614c53565b6125e6565b34801561087e57600080fd5b5061089261088d366004614ec2565b61265f565b604051610273989796959493929190615cf8565b60aa81815481106108b657600080fd5b600091825260209091200154905081565b6108cf61275c565b60055481116109365760405162461bcd60e51b815260206004820152602860248201527f4275726e526f757465724c6f6769633a206c6f77207374617274696e67426c6f60448201526731b5a73ab6b132b960c11b60648201526084015b60405180910390fd5b600555565b6004546001600160a01b031633148061096c5750610957611a1c565b6001600160a01b0316336001600160a01b0316145b6109885760405162461bcd60e51b815260040161092d90615be7565b60015b81811015610a595782826109a0600184615eb0565b8181106109bd57634e487b7160e01b600052603260045260246000fd5b905060200201358383838181106109e457634e487b7160e01b600052603260045260246000fd5b9050602002013511610a475760405162461bcd60e51b815260206004820152602660248201527f4275726e526f757465724c6f6769633a20626f756e646172696573206e6f74206044820152651cdbdc9d195960d21b606482015260840161092d565b80610a5181615f4b565b91505061098b565b50610a6660aa83836149d7565b507f088675d10df3ad0c72e31e44105834f08d850b54b07a06c99fd853b36605538f8282604051610a9892919061592b565b60405180910390a15050565b610aac61275c565b6004546040517f68bf625687194a1bbeeccbaa327c37aa1f9940a3c6c9e8fe84f06f1dc14fd17691610aeb916001600160a01b039091169084906156e3565b60405180910390a1600480546001600160a01b0319166001600160a01b0392909216919091179055565b6000610b1f6127bb565b6002546001600160a01b03166323b872dd336040516001600160e01b031960e084901b1681526001600160a01b039091166004820152306024820152604481018a9052606401602060405180830381600087803b158015610b7f57600080fd5b505af1158015610b93573d6000803e3d6000fd5b505050506040513d601f19601f82011682018060405250810190610bb79190614f62565b610c0f5760405162461bcd60e51b8152602060048201526024808201527f4275726e526f757465724c6f6769633a207472616e7366657246726f6d2066616044820152631a5b195960e21b606482015260840161092d565b610c6d600260009054906101000a90046001600160a01b03168860008a8a8a8a8a8080601f01602080910402602001604051908101604052809392919081815260200183838082843760009201829052508d93509150819050612815565b9050610c796001607255565b9695505050505050565b6000610c8d6127bb565b6000610d118e8e8e80806020026020016040519081016040528093929190818152602001838360200280828437600081840152601f19601f820116905080830192505050505050508d8d8d808060200260200160405190810160405280939291908181526020018383602002808284376000920191909152508f9250612c1d915050565b9050610dde8d8d6000818110610d3757634e487b7160e01b600052603260045260246000fd5b905060200201358b8b6000818110610d5f57634e487b7160e01b600052603260045260246000fd5b9050602002016020810190610d749190614c53565b8f8f6001818110610d9557634e487b7160e01b600052603260045260246000fd5b90506020020135848b8b8b8b8080601f01602080910402602001604051908101604052809392919081815260200183838082843760009201829052508e93509150819050612cc3565b915050610deb6001607255565b9c9b505050505050505050505050565b610e0361275c565b806127101015610e555760405162461bcd60e51b815260206004820152601f60248201527f4275726e526f757465724c6f6769633a20696e76616c69642072657761726400604482015260640161092d565b7faa50b3683e42a13535a5b9c2c32780cccf956fb546b523a3542ac4ad8b544f6760085482604051610e88929190615cea565b60405180910390a1600855565b600080546040516353bcd1c960e11b815273__$c65f3a446ccd8d7ab73874f642eb6191e5$__9163a779a39291610ed8916001600160a01b0316906004016156cf565b60206040518083038186803b158015610ef057600080fd5b505af4158015610f04573d6000803e3d6000fd5b505050506040513d601f19601f82011682018060405250810190610f289190614f96565b9050610f32611a1c565b6001600160a01b0316336001600160a01b03161480610f52575080600654105b610f9b5760405162461bcd60e51b815260206004820152601a602482015279109d5c9b949bdd5d195c931bd9da58ce881b9bc81c195c9b5a5d60321b604482015260640161092d565b808211610fea5760405162461bcd60e51b815260206004820152601d60248201527f4275726e526f757465724c6f6769633a206c6f7720646561646c696e65000000604482015260640161092d565b7f92c10a242ca42973030420e2ee32b3ba7818cc643f896958f620c606cf3004166006548360405161101d929190615cea565b60405180910390a150600655565b61103361275c565b8061271010156110555760405162461bcd60e51b815260040161092d90615c1e565b60a755565b61106261275c565b565b61106c6127bb565b61107461275c565b60015460405163aff2faa360e01b81526001600160a01b039091169063aff2faa3906110a69086908690600401615988565b60206040518083038186803b1580156110be57600080fd5b505afa1580156110d2573d6000803e3d6000fd5b505050506040513d601f19601f820116820180604052508101906110f69190614f62565b6111125760405162461bcd60e51b815260040161092d90615c54565b60015460405163626885b560e11b81526000916001600160a01b03169063c4d10b6a906111459087908790600401615988565b60206040518083038186803b15801561115d57600080fd5b505afa158015611171573d6000803e3d6000fd5b505050506040513d601f19601f820116820180604052508101906111959190614c6f565b905060005b82518110156116795773__$c65f3a446ccd8d7ab73874f642eb6191e5$__6315755789600a848685815181106111e057634e487b7160e01b600052603260045260246000fd5b60209081029190910101516006546000546040516310889dc360e01b815273__$c65f3a446ccd8d7ab73874f642eb6191e5$__916310889dc391611230916001600160a01b0316906004016156cf565b60206040518083038186803b15801561124857600080fd5b505af415801561125c573d6000803e3d6000fd5b505050506040513d601f19601f820116820180604052508101906112809190614f96565b6005546040516001600160e01b031960e089901b16815260048101969096526001600160a01b03909416602486015260448501929092526064840152608483015260a482015260c40160006040518083038186803b1580156112e157600080fd5b505af41580156112f5573d6000803e3d6000fd5b50506001546008546001600160a01b038681166000908152600a602052604090208851919093169450631697565b93508692612710929189908890811061134c57634e487b7160e01b600052603260045260246000fd5b60200260200101518154811061137257634e487b7160e01b600052603260045260246000fd5b90600052602060002090600702016000015461138e9190615e68565b6113989190615e48565b336001600160a01b0387166000908152600a6020526040902088518990889081106113d357634e487b7160e01b600052603260045260246000fd5b6020026020010151815481106113f957634e487b7160e01b600052603260045260246000fd5b906000526020600020906007020160000154600a6000896001600160a01b03166001600160a01b0316815260200190815260200160002089888151811061145057634e487b7160e01b600052603260045260246000fd5b60200260200101518154811061147657634e487b7160e01b600052603260045260246000fd5b600091825260209091206007909102016002015460405160e087901b6001600160e01b03191681526001600160a01b03958616600482015260248101949094529184166044840152606483015291909116608482015260a401602060405180830381600087803b1580156114e957600080fd5b505af11580156114fd573d6000803e3d6000fd5b505050506040513d601f19601f820116820180604052508101906115219190614f62565b506001600160a01b0382166000818152600a60205260409020845185908490811061155c57634e487b7160e01b600052603260045260246000fd5b60200260200101518154811061158257634e487b7160e01b600052603260045260246000fd5b906000526020600020906007020160020160009054906101000a90046001600160a01b03166001600160a01b03167f58c23b4ae0617be275628875bcfd65759a441263099a256eeb27899fb5dd846d8787600a6000886001600160a01b03166001600160a01b0316815260200190815260200160002088878151811061161857634e487b7160e01b600052603260045260246000fd5b60200260200101518154811061163e57634e487b7160e01b600052603260045260246000fd5b90600052602060002090600702016006015460405161165f9392919061599c565b60405180910390a38061167181615f4b565b91505061119a565b50506116856001607255565b505050565b600d54610100900460ff16158080156116aa5750600d54600160ff909116105b806116c45750303b1580156116c45750600d5460ff166001145b6117275760405162461bcd60e51b815260206004820152602e60248201527f496e697469616c697a61626c653a20636f6e747261637420697320616c72656160448201526d191e481a5b9a5d1a585b1a5e995960921b606482015260840161092d565b600d805460ff19166001179055801561174a57600d805461ff0019166101001790555b611752612cd8565b61175a612d07565b6117638c6108c7565b61176c8b611f29565b6117758a611d11565b61177e8961254c565b61178788611886565b61179087610e95565b6117998661181c565b6117a28561102b565b6117ab84610dfb565b6117b6610392611a1c565b6117bf836120cf565b6117c88261216a565b801561180e57600d805461ff0019169055604051600181527f7f26b83ff96e1f2b6a682f133852f6798a09c465da95921460cefb38474024989060200160405180910390a15b505050505050505050505050565b61182461275c565b8061271010156118465760405162461bcd60e51b815260040161092d90615c1e565b7f7d205f60891f60851c61cd244ba387d72b6589e7c0ac41b9d909ab0ce2c2a53b60075482604051611879929190615cea565b60405180910390a1600755565b61188e61275c565b806001600160a01b0381166118b65760405163d92e233d60e01b815260040160405180910390fd5b6002546040517f36a4c08a38b736dcecb6c328dba61238529620e83ccb23db2cc43cd34ec26096916118f5916001600160a01b039091169085906156e3565b60405180910390a150600280546001600160a01b0319166001600160a01b0392909216919091179055565b6001600160a01b0382166000908152600a6020526040812080548390811061195857634e487b7160e01b600052603260045260246000fd5b600091825260209091206005600790920201015460ff1690505b92915050565b61198061275c565b600082815260a56020526040908190205490517f1e73962bcff5b98a9ac70c9b0f71fbb31dc0f5a09348c6d3ceab164169a9e729916119e69185916001600160a01b03169085909283526001600160a01b03918216602084015216604082015260600190565b60405180910390a1600091825260a5602052604090912080546001600160a01b0319166001600160a01b03909216919091179055565b6040546001600160a01b031690565b611a3361275c565b600082815260a46020526040908190205490517f188adabf806a6b6d814acc1dbd9f09e5a251c8c065d6285749a5824e4579b64591611a76918591908590615cd4565b60405180910390a1600091825260a4602052604090912055565b611a9861275c565b60a880546001600160a01b0319166001600160a01b0392909216919091179055565b6004546001600160a01b0316331480611aeb5750611ad6611a1c565b6001600160a01b0316336001600160a01b0316145b611b075760405162461bcd60e51b815260040161092d90615be7565b8483148015611b1557508281145b611b705760405162461bcd60e51b815260206004820152602660248201527f4275726e526f757465724c6f6769633a206172726179206c656e677468206d696044820152650e6dac2e8c6d60d31b606482015260840161092d565b60005b81811015611cc357612710838383818110611b9e57634e487b7160e01b600052603260045260246000fd5b905060200201351115611bfd5760405162461bcd60e51b815260206004820152602160248201527f4275726e526f757465724c6f6769633a20666565206f7574206f662072616e676044820152606560f81b606482015260840161092d565b828282818110611c1d57634e487b7160e01b600052603260045260246000fd5b60008c815260a9602090815260408083208e8452825282209202939093013592909150898985818110611c6057634e487b7160e01b600052603260045260246000fd5b9050602002013581526020019081526020016000206000878785818110611c9757634e487b7160e01b600052603260045260246000fd5b905060200201358152602001908152602001600020819055508080611cbb90615f4b565b915050611b73565b5086887f70355afeb4e663de755cdb0e6f9a7b9179231933ad90bf94c1257a3a526946a5888888888888604051611cff9695949392919061593f565b60405180910390a35050505050505050565b611d1961275c565b806001600160a01b038116611d415760405163d92e233d60e01b815260040160405180910390fd5b6001546040517ffa021c2ec0f46429a53e7f88b88065e40001f50c9d38b2e8b713beaf9828d4c391611d80916001600160a01b039091169085906156e3565b60405180910390a150600180546001600160a01b0319166001600160a01b0392909216919091179055565b611db36127bb565b611dbb61275c565b6000611e1989600081518110611de157634e487b7160e01b600052603260045260246000fd5b6020026020010151898987600081518110611e0c57634e487b7160e01b600052603260045260246000fd5b6020026020010151612d36565b905073__$c65f3a446ccd8d7ab73874f642eb6191e5$__63441d3a21600160009054906101000a90046001600160a01b03168c8c60405180606001604052808e81526020018c81526020018b815250600c60065460008054906101000a90046001600160a01b03166005548a8e8e8e6040518d63ffffffff1660e01b8152600401611eaf9c9b9a999897969594939291906157c6565b60006040518083038186803b158015611ec757600080fd5b505af4158015611edb573d6000803e3d6000fd5b50505050611f13878b8385600281518110611f0657634e487b7160e01b600052603260045260246000fd5b6020026020010151612e94565b50611f1e6001607255565b505050505050505050565b611f3161275c565b806001600160a01b038116611f595760405163d92e233d60e01b815260040160405180910390fd5b6000546040517f4c28a3f61a715259c4dc930c23e7423b8fa52e13232c061a6e488729c66184f491611f98916001600160a01b039091169085906156e3565b60405180910390a150600080546001600160a01b0319166001600160a01b0392909216919091179055565b6000611fd18585858561303e565b90505b949350505050565b6000611fe66127bb565b60006120368e8e8e8e8e80806020026020016040519081016040528093929190818152602001838360200280828437600081840152601f19601f820116905080830192505050505050508d612c1d565b9050610dde8d60008151811061205c57634e487b7160e01b600052603260045260246000fd5b60200260200101518c8c600081811061208557634e487b7160e01b600052603260045260246000fd5b905060200201602081019061209a9190614c53565b8f6001815181106120bb57634e487b7160e01b600052603260045260246000fd5b6020026020010151848c8c8c8c8c8c612cc3565b60045433906001600160a01b031681146121295760405162461bcd60e51b815260206004820152601b60248201527a4275726e526f757465724c6f6769633a206e6f74206f7261636c6560281b604482015260640161092d565b7f890eb41e398fd9cf425695b34269b781ad56c257422859094a28db47fb78f1b36009548360405161215c929190615cea565b60405180910390a150600955565b61217261275c565b60a6546040517f4da8064030e901e42f6de0ab04f4c322d7936d0120503addfe8a51f127090689916121b1916001600160a01b039091169084906156e3565b60405180910390a160a680546001600160a01b0319166001600160a01b0392909216919091179055565b60006121e56127bb565b60015460405163626885b560e11b81526000916001600160a01b03169063c4d10b6a906122169088906004016159c0565b60206040518083038186803b15801561222e57600080fd5b505afa158015612242573d6000803e3d6000fd5b505050506040513d601f19601f820116820180604052508101906122669190614c6f565b9050336001600160a01b038216148061229257506004546001600160a01b0316336001600160a01b0316145b6122ae5760405162461bcd60e51b815260040161092d90615c54565b73__$c65f3a446ccd8d7ab73874f642eb6191e5$__6344922b64896005548c600160009054906101000a90046001600160a01b03168a8a518a516040518863ffffffff1660e01b815260040161230a9796959493929190615d5b565b60006040518083038186803b15801561232257600080fd5b505af4158015612336573d6000803e3d6000fd5b5050505060006123488d8d8d8d612d36565b600054604051637ebc232760e01b815291925073__$c65f3a446ccd8d7ab73874f642eb6191e5$__91637ebc232791612397916001600160a01b039091169085908e908e908e90600401615787565b60206040518083038186803b1580156123af57600080fd5b505af41580156123c3573d6000803e3d6000fd5b505050506040513d601f19601f820116820180604052508101906123e79190614f62565b6124335760405162461bcd60e51b815260206004820152601e60248201527f4275726e526f757465724c6f6769633a206e6f742066696e616c697a65640000604482015260640161092d565b6000612443828b858f8a8a613091565b905073__$c65f3a446ccd8d7ab73874f642eb6191e5$__63191e28dc600c838f8b876040518663ffffffff1660e01b8152600401612485959493929190615ba3565b60206040518083038186803b15801561249d57600080fd5b505af41580156124b1573d6000803e3d6000fd5b505050506040513d601f19601f820116820180604052508101906124d59190614f62565b61252d5760405162461bcd60e51b815260206004820152602360248201527f4275726e526f757465724c6f6769633a20696e76616c6964206275726e20707260448201526237b7b360e91b606482015260840161092d565b6001935050505061253e6001607255565b9a9950505050505050505050565b61255461275c565b806001600160a01b03811661257c5760405163d92e233d60e01b815260040160405180910390fd5b6003546040517f567657fa3f286518b318f4a29870674f433f622fdfc819691acb13105b228225916125bb916001600160a01b039091169085906156e3565b60405180910390a150600380546001600160a01b0319166001600160a01b0392909216919091179055565b6125ee61275c565b6001600160a01b0381166126535760405162461bcd60e51b815260206004820152602660248201527f4f776e61626c653a206e6577206f776e657220697320746865207a65726f206160448201526564647265737360d01b606482015260840161092d565b61265c8161328c565b50565b600a602052816000526040600020818154811061267b57600080fd5b600091825260209091206007909102018054600182015460028301546003840180549396509194506001600160a01b031692916126b790615f16565b80601f01602080910402602001604051908101604052809291908181526020018280546126e390615f16565b80156127305780601f1061270557610100808354040283529160200191612730565b820191906000526020600020905b81548152906001019060200180831161271357829003601f168201915b505050600484015460058501546006909501549394909360ff8083169450610100909204909116915088565b33612765611a1c565b6001600160a01b0316146110625760405162461bcd60e51b815260206004820181905260248201527f4f776e61626c653a2063616c6c6572206973206e6f7420746865206f776e6572604482015260640161092d565b6002607254141561280e5760405162461bcd60e51b815260206004820152601f60248201527f5265656e7472616e637947756172643a207265656e7472616e742063616c6c00604482015260640161092d565b6002607255565b600154604051630f87661560e41b815260009173__$c65f3a446ccd8d7ab73874f642eb6191e5$__9163f876615091612862918b918b916001600160a01b03909116908b906004016159d3565b60006040518083038186803b15801561287a57600080fd5b505af415801561288e573d6000803e3d6000fd5b5050505061289a614a1e565b6128a8898b888888886132dc565b60025460015460405163095ea7b360e01b81529295509293506001600160a01b039081169263095ea7b3926128e592909116908690600401615912565b602060405180830381600087803b1580156128ff57600080fd5b505af1158015612913573d6000803e3d6000fd5b505050506040513d601f19601f820116820180604052508101906129379190614f62565b506001546040516338463cff60e01b81526001600160a01b03909116906338463cff9061296a9089908690600401615abd565b602060405180830381600087803b15801561298457600080fd5b505af1158015612998573d6000803e3d6000fd5b505050506040513d601f19601f820116820180604052508101906129bc9190614f96565b5060015460405163626885b560e11b81526000916001600160a01b03169063c4d10b6a906129ee908a906004016159c0565b60206040518083038186803b158015612a0657600080fd5b505afa158015612a1a573d6000803e3d6000fd5b505050506040513d601f19601f82011682018060405250810190612a3e9190614c6f565b6000546040516310889dc360e01b8152919250612ae5918c9186918d918d9173__$c65f3a446ccd8d7ab73874f642eb6191e5$__916310889dc391612a8f916001600160a01b0316906004016156cf565b60206040518083038186803b158015612aa757600080fd5b505af4158015612abb573d6000803e3d6000fd5b505050506040513d601f19601f82011682018060405250810190612adf9190614f96565b86613855565b604080516060810182528d815260208082018d90528183018690526001600160a01b0384166000908152600a9091529190912080548f9190612b2990600190615eb0565b81548110612b4757634e487b7160e01b600052603260045260246000fd5b906000526020600020906007020160040154612b603390565b6001600160a01b038581166000908152600a60205260409020805492909116917f6b5c22e69db87534a562352580358411dc7b2d98d24684765342f2ebf2dd8c31918f918f918991612bb490600190615eb0565b81548110612bd257634e487b7160e01b600052603260045260246000fd5b9060005260206000209060070201600601548e888a8d604051612bfc989796959493929190615a14565b60405180910390a3505050509a9950505050505050505050565b6001607255565b60025460a654604051634ef0330360e11b815260009273__$c65f3a446ccd8d7ab73874f642eb6191e5$__92639de0660692612c73926001600160a01b039081169216908b908b908b908b908b906004016156fd565b60206040518083038186803b158015612c8b57600080fd5b505af4158015612c9f573d6000803e3d6000fd5b505050506040513d601f19601f82011682018060405250810190610c799190614f96565b600080610deb8b8d8c8c8c8c8c8c8c8c612815565b600d54610100900460ff16612cff5760405162461bcd60e51b815260040161092d90615c89565b611062613901565b600d54610100900460ff16612d2e5760405162461bcd60e51b815260040161092d90615c89565b611062613931565b600080612d4b612d468683613958565b61397c565b905062ffffff198082161415612da05760405162461bcd60e51b815260206004820152601a602482015279109a5d18dbda5b92195b1c195c8e881d9a5b881a5cc81b9d5b1b60321b604482015260640161092d565b6000600287878787604051602001612dbb9493929190615660565b60408051601f1981840301815290829052612dd5916156b3565b602060405180830381855afa158015612df2573d6000803e3d6000fd5b5050506040513d601f19601f82011682018060405250810190612e159190614f96565b90506000600282604051602001612e2e91815260200190565b60408051601f1981840301815290829052612e48916156b3565b602060405180830381855afa158015612e65573d6000803e3d6000fd5b5050506040513d601f19601f82011682018060405250810190612e889190614f96565b98975050505050505050565b60015460085460405163846852f960e01b81526000928392839273__$c65f3a446ccd8d7ab73874f642eb6191e5$__9263846852f992612eea926001600160a01b03909216918c918c9161271090600401615886565b60606040518083038186803b158015612f0257600080fd5b505af4158015612f16573d6000803e3d6000fd5b505050506040513d601f19601f82011682018060405250810190612f3a9190614eed565b60015492955090935091506001600160a01b031663b734de2684843360405160e085901b6001600160e01b03191681526001600160a01b0393841660048201526024810192909252909116604482015260648101849052608401602060405180830381600087803b158015612fae57600080fd5b505af1158015612fc2573d6000803e3d6000fd5b505050506040513d601f19601f82011682018060405250810190612fe69190614f62565b506000612ff38383615e05565b90507f7ff138134e34ccab071315c38e38eec079f54726b890304ab46e2c5ab6f722bb848887898560405161302c9594939291906158d1565b60405180910390a15050505050505050565b60008061304a83613ac9565b600087815260a96020908152604080832089845282528083208884528252808320848452909152902054909150806130845760a754613086565b805b979650505050505050565b60405163fadc646560e01b815260009073__$c65f3a446ccd8d7ab73874f642eb6191e5$__9063fadc6465906130d690600a908a908a908a908a908a90600401615b50565b60206040518083038186803b1580156130ee57600080fd5b505af4158015613102573d6000803e3d6000fd5b505050506040513d601f19601f820116820180604052508101906131269190614f96565b905060005b835181101561328157600084828151811061315657634e487b7160e01b600052603260045260246000fd5b60200260200101519050600a6000886001600160a01b03166001600160a01b0316815260200190815260200160002081815481106131a457634e487b7160e01b600052603260045260246000fd5b600091825260209091206005600790920201015460ff161561326e576001600160a01b0387166000818152600a6020526040902080547f7b8cb33b1d4dc1e5d05c58e9945c383eb161ac22029c5b963989d08c3d0ef4da91908490811061321b57634e487b7160e01b600052603260045260246000fd5b9060005260206000209060070201600601548b87868151811061324e57634e487b7160e01b600052603260045260246000fd5b602002602001015160405161326593929190615cd4565b60405180910390a25b508061327981615f4b565b91505061312b565b509695505050505050565b604080546001600160a01b038381166001600160a01b031983168117845592519116919082907f8be0079c531659141344cd1fd0a4f28419497f9722a3daafe3b4186f6b6457e090600090a35050565b6132e4614a1e565b6000806127106007548a6132f89190615e68565b6133029190615e48565b600087815260a460205260408120549192509061271090613323908c615e68565b61332d9190615e48565b9050600061333d87878a8e61303e565b9050600061271061334e838e615e68565b6133589190615e48565b90506009548184868f61336b9190615eb0565b6133759190615eb0565b61337f9190615eb0565b6133899190615eb0565b94506103e88510156133dd5760405162461bcd60e51b815260206004820181905260248201527f4275726e526f757465724c6f6769633a206c6f776572207468616e2064757374604482015260640161092d565b8a85101561343b5760405162461bcd60e51b815260206004820152602560248201527f4275726e526f757465724c6f6769633a206c6f776572207468616e2072657175604482015264195cdd195960da1b606482015260840161092d565b83156135215760025460035460405163a9059cbb60e01b81526001600160a01b039283169263a9059cbb92613477929116908890600401615912565b602060405180830381600087803b15801561349157600080fd5b505af11580156134a5573d6000803e3d6000fd5b505050506040513d601f19601f820116820180604052508101906134c99190614f62565b6135215760405162461bcd60e51b8152602060048201526024808201527f4275726e526f757465724c6f6769633a20666565207472616e736665722066616044820152631a5b195960e21b606482015260840161092d565b82156136215760025460008a815260a560205260409081902054905163a9059cbb60e01b81526001600160a01b039283169263a9059cbb9261356a929116908790600401615912565b602060405180830381600087803b15801561358457600080fd5b505af1158015613598573d6000803e3d6000fd5b505050506040513d601f19601f820116820180604052508101906135bc9190614f62565b6136215760405162461bcd60e51b815260206004820152603060248201527f4275726e526f757465724c6f6769633a2074686972642070617274792066656560448201526f081d1c985b9cd9995c8819985a5b195960821b606482015260840161092d565b600954156137965760015460405163626885b560e11b81526000916001600160a01b03169063c4d10b6a9061365a908e906004016159c0565b60206040518083038186803b15801561367257600080fd5b505afa158015613686573d6000803e3d6000fd5b505050506040513d601f19601f820116820180604052508101906136aa9190614c6f565b60025460095460405163a9059cbb60e01b81529293506001600160a01b039091169163a9059cbb916136e191859190600401615912565b602060405180830381600087803b1580156136fb57600080fd5b505af115801561370f573d6000803e3d6000fd5b505050506040513d601f19601f820116820180604052508101906137339190614f62565b6137945760405162461bcd60e51b815260206004820152602c60248201527f4275726e526f757465724c6f6769633a206e6574776f726b206665652074726160448201526b1b9cd9995c8819985a5b195960a21b606482015260840161092d565b505b80156138255760015460405163626885b560e11b8152613825916001600160a01b03169063c4d10b6a906137ce908e906004016159c0565b60206040518083038186803b1580156137e657600080fd5b505afa1580156137fa573d6000803e3d6000fd5b505050506040513d601f19601f8201168201806040525081019061381e9190614c6f565b828b613b2c565b60408051608081018252600954815260208101929092528101939093525060608201529890975095505050505050565b73__$c65f3a446ccd8d7ab73874f642eb6191e5$__63aa25f840600a600b8989898989896006546138833390565b6040518b63ffffffff1660e01b81526004016138a89a99989796959493929190615adf565b60206040518083038186803b1580156138c057600080fd5b505af41580156138d4573d6000803e3d6000fd5b505050506040513d601f19601f820116820180604052508101906138f89190614f96565b50505050505050565b600d54610100900460ff166139285760405162461bcd60e51b815260040161092d90615c89565b6110623361328c565b600d54610100900460ff16612c165760405162461bcd60e51b815260040161092d90615c89565b81516000906020840161397364ffffffffff85168284613cb4565b95945050505050565b60008181613992815b62ffffff19841690613cfb565b506139a262ffffff198516613dd5565b6001600160601b03166139be576139b7613de4565b9250613ac2565b60006139cb856000613dec565b905060006139de62ffffff198716613dd5565b6001600160601b031690506001600160401b038216613a08576139ff613de4565b94505050613ac2565b6000613a1383613f35565b60ff16905060005b836001600160401b0316811015613a8f57828210613a4657613a3b613de4565b965050505050613ac2565b6000613a64613a558486615eb0565b62ffffff198b16906005613f93565b9050613a6f81613fbd565b613a799084615e05565b9250508080613a8790615f4b565b915050613a1b565b50818114613aa957613a9f613de4565b9550505050613ac2565b6301000000600160d81b038716600360d91b1795505050505b5050919050565b6000805b60aa54811015613b225760aa8181548110613af857634e487b7160e01b600052603260045260246000fd5b9060005260206000200154831015613b105792915050565b80613b1a81615f4b565b915050613acd565b505060aa54919050565b81156116855760a8546001600160a01b03161580613b4957508015155b15613bd85760025460405163a9059cbb60e01b81526001600160a01b039091169063a9059cbb90613b809086908690600401615912565b602060405180830381600087803b158015613b9a57600080fd5b505af1158015613bae573d6000803e3d6000fd5b505050506040513d601f19601f82011682018060405250810190613bd29190614f62565b50505050565b60025460a85460405163095ea7b360e01b81526001600160a01b039283169263095ea7b392613c0e929116908690600401615912565b602060405180830381600087803b158015613c2857600080fd5b505af1158015613c3c573d6000803e3d6000fd5b505050506040513d601f19601f82011682018060405250810190613c609190614f62565b5060a854604051613bd2916001600160a01b031690613c859086908690602401615912565b60408051601f198184030181529190526020810180516001600160e01b0316637db4e28f60e01b179052614011565b600080613cc18385615e05565b9050604051811115613cd1575060005b80613ce35762ffffff19915050613cf4565b5050606083811b8317901b811760181b5b9392505050565b6000613d078383614053565b613dce576000613d26613d1a8560d81c90565b64ffffffffff16614076565b9150506000613d3b8464ffffffffff16614076565b6040517f5479706520617373657274696f6e206661696c65642e20476f7420307800000060208201526001600160b01b031960b086811b8216603d8401526c05c408af0e0cac6e8cac84060f609b1b604784015283901b16605482015290925060009150605e015b60405160208183030381529060405290508060405162461bcd60e51b815260040161092d91906159c0565b5090919050565b60181c6001600160601b031690565b62ffffff1990565b600080613e0162ffffff198516846001614122565b905060fc8111613e1c57613e1481614152565b915050611972565b8060fd1415613e8257613e4a613e45613e36856001615e05565b62ffffff1987169060026141be565b614152565b9150613e5582613f35565b60ff16600314613e7d57613e7b613e7662ffffff1986168560036000614301565b614367565b505b613f2e565b8060fe1415613ed757613eab613e45613e9c856001615e05565b62ffffff1987169060046141be565b9150613eb682613f35565b60ff16600514613e7d57613e7b613e7662ffffff1986168560056000614301565b8060ff1415613f2e57613f00613e45613ef1856001615e05565b62ffffff1987169060086141be565b9150613f0b82613f35565b60ff16600914613f2e57613f2c613e7662ffffff1986168560096000614301565b505b5092915050565b600060fc826001600160401b031611613f5057506001919050565b61ffff826001600160401b031611613f6a57506003919050565b63ffffffff826001600160401b031611613f8657506005919050565b506009919050565b919050565b6000611fd48484613fa387613dd5565b6001600160601b0316613fb69190615eb0565b8585614301565b6000816005613fcb81613985565b506000613fd9856024613dec565b9050806001600160401b0316613fee82613f35565b60ff16613ffb9190615e05565b614006906024615e05565b613973906004615e05565b6060613cf483836040518060400160405280601e81526020017f416464726573733a206c6f772d6c6576656c2063616c6c206661696c656400008152506143ef565b60008164ffffffffff166140678460d81c90565b64ffffffffff16149392505050565b600080601f5b600f8160ff1611156140d4576000614095826008615e87565b60ff1685901c90506140a6816143fe565b61ffff16841793508160ff166010146140c157601084901b93505b506140cd600182615ec7565b905061407c565b50600f5b60ff8160ff16101561411c5760ff600882021684901c6140f7816143fe565b61ffff16831792508160ff1660001461411257601083901b92505b50600019016140d8565b50915091565b600061412f826020615ec7565b61413a906008615e87565b60ff16614148858585614430565b901c949350505050565b60006001600160401b038211156141ba5760405162461bcd60e51b815260206004820152602660248201527f53616665436173743a2076616c756520646f65736e27742066697420696e203660448201526534206269747360d01b606482015260840161092d565b5090565b6000611fd46141ce858585614430565b60008190506008817eff00ff00ff00ff00ff00ff00ff00ff00ff00ff00ff00ff00ff00ff00ff00ff16901b600882901c7eff00ff00ff00ff00ff00ff00ff00ff00ff00ff00ff00ff00ff00ff00ff00ff161790506010817dffff0000ffff0000ffff0000ffff0000ffff0000ffff0000ffff0000ffff16901b601082901c7dffff0000ffff0000ffff0000ffff0000ffff0000ffff0000ffff0000ffff161790506020817bffffffff00000000ffffffff00000000ffffffff00000000ffffffff16901b602082901c7bffffffff00000000ffffffff00000000ffffffff00000000ffffffff161790506040816001600160401b03600160801b03600160c01b0316901b604082901c6001600160401b03600160801b03600160c01b0316179050608081901b608082901c179050919050565b60008061430d8661455e565b6001600160601b031690506143218661456d565b8461432c8784615e05565b6143369190615e05565b11156143495762ffffff19915050611fd4565b6143538582615e05565b9050610c798364ffffffffff168286613cb4565b606060006143a56143a08261439261438462ffffff198816613dd5565b6001600160601b031661459a565b62ffffff1987169190614122565b614076565b6040517a09cdedc5adad2dcd2dac2d840ecc2e440d2dce85c408edee84060f602b1b60208201526001600160701b0319607083901b16603b82015290925060009150604d01613da3565b6060611fd484846000856145fb565b600061441060048360ff16901c614718565b60ff1661ffff919091161760081b61442782614718565b60ff1617919050565b600060ff821661444257506000613cf4565b61444b84613dd5565b6001600160601b031661446160ff841685615e05565b11156144b1576144986144738561455e565b6001600160601b031661448586613dd5565b6001600160601b0316858560ff16614874565b60405162461bcd60e51b815260040161092d91906159c0565b60208260ff1611156145285760405162461bcd60e51b815260206004820152603a60248201527f54797065644d656d566965772f696e646578202d20417474656d7074656420746044820152796f20696e646578206d6f7265207468616e20333220627974657360301b606482015260840161092d565b6008820260006145378661455e565b6001600160601b031690506000600160ff1b60001984011d91909501511695945050505050565b60781c6001600160601b031690565b600061457882613dd5565b6145818361455e565b61458b9190615e1d565b6001600160601b031692915050565b600060ff8211156141ba5760405162461bcd60e51b815260206004820152602560248201527f53616665436173743a2076616c756520646f65736e27742066697420696e2038604482015264206269747360d81b606482015260840161092d565b60608247101561465c5760405162461bcd60e51b815260206004820152602660248201527f416464726573733a20696e73756666696369656e742062616c616e636520666f6044820152651c8818d85b1b60d21b606482015260840161092d565b843b6146aa5760405162461bcd60e51b815260206004820152601d60248201527f416464726573733a2063616c6c20746f206e6f6e2d636f6e7472616374000000604482015260640161092d565b600080866001600160a01b031685876040516146c691906156b3565b60006040518083038185875af1925050503d8060008114614703576040519150601f19603f3d011682016040523d82523d6000602084013e614708565b606091505b509150915061308682828661499e565b600060f08083179060ff821614156147335750603092915050565b8060ff1660f114156147485750603192915050565b8060ff1660f2141561475d5750603292915050565b8060ff1660f314156147725750603392915050565b8060ff1660f414156147875750603492915050565b8060ff1660f5141561479c5750603592915050565b8060ff1660f614156147b15750603692915050565b8060ff1660f714156147c65750603792915050565b8060ff1660f814156147db5750603892915050565b8060ff1660f914156147f05750603992915050565b8060ff1660fa14156148055750606192915050565b8060ff1660fb141561481a5750606292915050565b8060ff1660fc141561482f5750606392915050565b8060ff1660fd14156148445750606492915050565b8060ff1660fe14156148595750606592915050565b8060ff1660ff141561486e5750606692915050565b50919050565b6060600061488186614076565b915050600061488f86614076565b915050600061489d86614076565b91505060006148ab86614076565b604080517f54797065644d656d566965772f696e646578202d204f76657272616e20746865602082015274040ecd2caee5c40a6d8d2c6ca40d2e640c2e84060f605b1b818301526001600160d01b031960d098891b811660558301526e040eed2e8d040d8cadccee8d04060f608b1b605b830181905297891b8116606a8301527f2e20417474656d7074656420746f20696e646578206174206f666673657420306070830152600f60fb1b609083015295881b861660918201526097810196909652951b90921660a68401525050601760f91b60ac8201528151808203608d01815260ad90910190915295945050505050565b606083156149ad575081613cf4565b8251156149bd5782518084602001fd5b8160405162461bcd60e51b815260040161092d91906159c0565b828054828255906000526020600020908101928215614a12579160200282015b82811115614a125782358255916020019190600101906149f7565b506141ba929150614a3c565b60405180608001604052806004906020820280368337509192915050565b5b808211156141ba5760008155600101614a3d565b8035613f8e81615f92565b60008083601f840112614a6d578182fd5b5081356001600160401b03811115614a83578182fd5b6020830191508360208260051b8501011115614a9e57600080fd5b9250929050565b600082601f830112614ab5578081fd5b81356020614aca614ac583615de2565b615db2565b80838252828201915082860187848660051b8901011115614ae9578586fd5b855b85811015614b0e57614afc82614b83565b84529284019290840190600101614aeb565b5090979650505050505050565b600082601f830112614b2b578081fd5b81356020614b3b614ac583615de2565b80838252828201915082860187848660051b8901011115614b5a578586fd5b855b85811015614b0e57813584529284019290840190600101614b5c565b8035613f8e81615fa7565b80356001600160e01b031981168114613f8e57600080fd5b60008083601f840112614bac578182fd5b5081356001600160401b03811115614bc2578182fd5b602083019150836020828501011115614a9e57600080fd5b600082601f830112614bea578081fd5b81356001600160401b03811115614c0357614c03615f7c565b614c16601f8201601f1916602001615db2565b818152846020838601011115614c2a578283fd5b816020850160208301379081016020019190915292915050565b803560068110613f8e57600080fd5b600060208284031215614c64578081fd5b8135613cf481615f92565b600060208284031215614c80578081fd5b8151613cf481615f92565b6000806000806000806000806000806000806101208d8f031215614cad578788fd5b614cb68d614a51565b9b506001600160401b0360208e01351115614ccf578788fd5b614cdf8e60208f01358f01614a5c565b909b509950614cf060408e01614b78565b98506001600160401b0360608e01351115614d09578788fd5b614d198e60608f01358f01614a5c565b909850965060808d013595506001600160401b0360a08e01351115614d3c578485fd5b614d4c8e60a08f01358f01614bda565b9450614d5a60c08e01614c44565b93506001600160401b0360e08e01351115614d73578283fd5b614d838e60e08f01358f01614b9b565b81945080935050506101008d013590509295989b509295989b509295989b565b6000806000806000806000806000806000806101608d8f031215614dc5578081fd5b614dce8d614a51565b9b506001600160401b0360208e01351115614de7578081fd5b614df78e60208f01358f01614b1b565b9a50614e0560408e01614b78565b99506001600160401b0360608e01351115614e1e578081fd5b614e2e8e60608f01358f01614a5c565b909950975060808d013596506001600160401b0360a08e01351115614e51578081fd5b614e618e60a08f01358f01614bda565b9550614e6f60c08e01614c44565b94506001600160401b0360e08e01351115614e88578081fd5b614e988e60e08f01358f01614bda565b93506101008d013592506101208d013591506101408d013590509295989b509295989b509295989b565b60008060408385031215614ed4578182fd5b8235614edf81615f92565b946020939093013593505050565b600080600060608486031215614f01578081fd5b8351614f0c81615f92565b602085015160409095015190969495509392505050565b60008060208385031215614f35578182fd5b82356001600160401b03811115614f4a578283fd5b614f5685828601614a5c565b90969095509350505050565b600060208284031215614f73578081fd5b8151613cf481615fa7565b600060208284031215614f8f578081fd5b5035919050565b600060208284031215614fa7578081fd5b5051919050565b6000806000806000806000806000806101408b8d031215614fcd578384fd5b614fd68b614b83565b995060208b01356001600160401b0380821115614ff1578586fd5b614ffd8e838f01614bda565b9a5060408d0135915080821115615012578586fd5b61501e8e838f01614bda565b995061502c60608e01614b83565b985060808d0135975060a08d0135915080821115615048578586fd5b6150548e838f01614bda565b965060c08d0135955060e08d0135915080821115615070578485fd5b61507c8e838f01614bda565b94506101008d0135915080821115615092578384fd5b61509e8e838f01614b1b565b93506101208d01359150808211156150b4578283fd5b506150c18d828e01614b1b565b9150509295989b9194979a5092959850565b6000806000604084860312156150e7578081fd5b83356001600160401b03808211156150fd578283fd5b61510987838801614b9b565b90955093506020860135915080821115615121578283fd5b5061512e86828701614b1b565b9150509250925092565b60008060008060008060008060006101208a8c031215615156578283fd5b89356001600160401b038082111561516c578485fd5b6151788d838e01614bda565b9a5060208c013591508082111561518d578485fd5b6151998d838e01614aa5565b995060408c01359150808211156151ae578485fd5b6151ba8d838e01614bda565b985060608c01359150808211156151cf578485fd5b6151db8d838e01614bda565b975060808c01359150808211156151f0578485fd5b6151fc8d838e01614bda565b965060a08c0135915080821115615211578485fd5b61521d8d838e01614bda565b955060c08c0135915080821115615232578485fd5b61523e8d838e01614aa5565b945060e08c0135915080821115615253578384fd5b61525f8d838e01614bda565b93506101008c0135915080821115615275578283fd5b506152828c828d01614b1b565b9150509295985092959850929598565b600080604083850312156152a4578182fd5b8235915060208301356152b681615f92565b809150509250929050565b60008060008060008060008060008060006101608c8e0312156152e2578485fd5b8b359a5060208c01356152f481615f92565b995060408c013561530481615f92565b985060608c013561531481615f92565b975060808c013561532481615f92565b965060a08c0135955060c08c0135945060e08c013593506101008c013592506101208c013591506101408c013561535a81615f92565b809150509295989b509295989b9093969950565b60008060008060008060008060a0898b031215615389578182fd5b883597506020890135965060408901356001600160401b03808211156153ad578384fd5b6153b98c838d01614a5c565b909850965060608b01359150808211156153d1578384fd5b6153dd8c838d01614a5c565b909650945060808b01359150808211156153f5578384fd5b506154028b828c01614a5c565b999c989b5096995094979396929594505050565b6000806000806080858703121561542b578182fd5b5050823594602084013594506040840135936060013592509050565b60008060008060008060a0878903121561545f578384fd5b8635955060208701356001600160401b038082111561547c578586fd5b6154888a838b01614bda565b965061549660408a01614c44565b955060608901359150808211156154ab578384fd5b506154b889828a01614b9b565b979a9699509497949695608090950135949350505050565b600080604083850312156154e2578182fd5b50508035926020909101359150565b6001600160a01b03169052565b6000815180845260208085019450808401835b838110156155375781516001600160e01b03191687529582019590820190600101615511565b509495945050505050565b6000826060810183835b600381101561557b578383038752615565838351615612565b602097880197909350919091019060010161554c565b509095945050505050565b81835260006001600160fb1b0383111561559e578081fd5b8260051b80836020870137939093016020019283525090919050565b6000815180845260208085019450808401835b83811015615537578151875295820195908201906001016155cd565b81835281816020850137506000828201602090810191909152601f909101601f19169091010190565b6000815180845261562a816020860160208601615eea565b601f01601f19169290920160200192915050565b6006811061565c57634e487b7160e01b600052602160045260246000fd5b9052565b600063ffffffff60e01b80871683528551615682816004860160208a01615eea565b855190840190615699816004840160208a01615eea565b919094169301600481019390935250506008019392505050565b600082516156c5818460208701615eea565b9190910192915050565b6001600160a01b0391909116815260200190565b6001600160a01b0392831681529116602082015260400190565b600060018060a01b03808a1683526020818a1681850152818916604085015260e0606085015261573060e08501896155ba565b871515608086015284810360a0860152865180825282880191830190855b8181101561576c57835186168352928401929184019160010161574e565b5050809450505050508260c083015298975050505050505050565b60018060a01b038616815284602082015283604082015260a0606082015260006157b460a0830185615612565b90508260808301529695505050505050565b6157d0818e6154f1565b610180602082015260006157e861018083018e615612565b82810360408401526157fa818e6154fe565b9050828103606084015261580e818d615542565b90508a60808401528960a084015261582960c084018a6154f1565b8760e08401528661010084015282810361012084015261584981876154fe565b905082810361014084015261585e8186615612565b905082810361016084015261587381856155ba565b9f9e505050505050505050505050505050565b6001600160a01b038616815260a0602082018190526000906158aa90830187615612565b82810360408401526158bc8187615612565b60608401959095525050608001529392505050565b6001600160a01b038616815260a0602082018190526000906158f590830187615612565b604083019590955250606081019290925260809091015292915050565b6001600160a01b03929092168252602082015260400190565b602081526000611fd4602083018486615586565b60608152600061595360608301888a615586565b8281036020840152615966818789615586565b9050828103604084015261597b818587615586565b9998505050505050505050565b602081526000611fd46020830184866155e9565b6040815260006159b06040830185876155e9565b9050826020830152949350505050565b602081526000613cf46020830184615612565b6080815260006159e66080830187615612565b6159f3602084018761563e565b6001600160a01b038516604084015282810360608401526130868185615612565b60006101a0808352615a288184018c615612565b9150506020615a398184018b61563e565b6001600160a01b0389811660408501526060840189905260808401889052861660a084015260c083018560005b6003811015615a8357815183529183019190830190600101615a66565b50505061012083018460005b6004811015615aac57815183529183019190830190600101615a8f565b505050509998505050505050505050565b604081526000615ad06040830185615612565b90508260208301529392505050565b60006101408c83528b60208401528a6040840152896060840152806080840152615b0b8184018a615612565b915050615b1b60a083018861563e565b60c08201959095526001600160a01b0393841660e0820152610100810192909252909116610120909101529695505050505050565b86815285602082015260018060a01b038516604082015260c060608201526000615b7d60c0830186615612565b8281036080840152615b8f81866155ba565b905082810360a084015261597b81856155ba565b85815284602082015260a060408201526000615bc260a0830186615612565b8281036060840152615bd48186615612565b9150508260808301529695505050505050565b6020808252601f908201527f4275726e526f757465724c6f6769633a206e6f7420617574686f72697a656400604082015260600190565b6020808252601c908201527b4275726e526f757465724c6f6769633a20696e76616c69642066656560201b604082015260600190565b6020808252601b908201527a213ab9372937baba32b92637b3b4b19d103737ba103637b1b5b2b960291b604082015260600190565b6020808252602b908201527f496e697469616c697a61626c653a20636f6e7472616374206973206e6f74206960408201526a6e697469616c697a696e6760a81b606082015260800190565b9283526020830191909152604082015260600190565b918252602082015260400190565b888152602081018890526001600160a01b038716604082015261010060608201819052600090615d2a83820189615612565b91505085608083015284151560a0830152615d4860c083018561563e565b8260e08301529998505050505050505050565b878152602081018790526001600160e01b0319861660408201526001600160a01b038516606082015260e060808201819052600090615d9c90830186615612565b60a08301949094525060c0015295945050505050565b604051601f8201601f191681016001600160401b0381118282101715615dda57615dda615f7c565b604052919050565b60006001600160401b03821115615dfb57615dfb615f7c565b5060051b60200190565b60008219821115615e1857615e18615f66565b500190565b60006001600160601b03828116848216808303821115615e3f57615e3f615f66565b01949350505050565b600082615e6357634e487b7160e01b81526012600452602481fd5b500490565b6000816000190483118215151615615e8257615e82615f66565b500290565b600060ff821660ff84168160ff0481118215151615615ea857615ea8615f66565b029392505050565b600082821015615ec257615ec2615f66565b500390565b600060ff821660ff841680821015615ee157615ee1615f66565b90039392505050565b60005b83811015615f05578181015183820152602001615eed565b83811115613bd25750506000910152565b600181811c90821680615f2a57607f821691505b6020821081141561486e57634e487b7160e01b600052602260045260246000fd5b6000600019821415615f5f57615f5f615f66565b5060010190565b634e487b7160e01b600052601160045260246000fd5b634e487b7160e01b600052604160045260246000fd5b6001600160a01b038116811461265c57600080fd5b801515811461265c57600080fdfea264697066735822122023dae05e6d1057c73f779d428217fb7f34c1e4636718d7021b08c7e23af4328b64736f6c63430008040033",
  "libraries": {
    "BurnRouterLib": "0x2756cA1c98697EFC08EFDF72F1B8e34EC7e63a11"
  },
  "devdoc": {
    "kind": "dev",
    "methods": {
      "burnProof(bytes4,bytes,bytes,bytes4,uint256,bytes,uint256,bytes,uint256[],uint256[])": {
        "details": "Makes isTransferred flag true for the paid requests",
        "params": {
          "_blockNumber": "Height of the block containing the Bitcoin tx",
          "_burnReqIndexes": "Indexes of requests that locker wants to provide proof for them",
          "_index": "Index of the Bitcoin tx the block",
          "_intermediateNodes": "Merkle inclusion proof for the Bitcoin tx",
          "_lockerLockingScript": "Locker's locking script that this burn request belongs to",
          "_locktime": "Lock time of the Bitcoin tx",
          "_version": "Version of the Bitcoin tx",
          "_vin": "Inputs of the Bitcoin tx",
          "_vout": "Outputs of the Bitcoin tx",
          "_voutIndexes": "Indexes of outputs that were used to pay burn requests.                     _voutIndexes[i] belongs to _burnReqIndexes[i]"
        }
      },
      "disputeBurn(bytes,uint256[])": {
        "params": {
          "_indices": "Indices of requests that their deadline has passed",
          "_lockerLockingScript": "Locker's locking script that the unpaid request belongs to"
        }
      },
      "disputeLocker(bytes,bytes4[],bytes,bytes,bytes,bytes,bytes4[],bytes,uint256[])": {
        "details": "Input tx is a malicious tx which shows that locker spent BTC      Output tx is the tx that was spent by locker in input tx      Output tx shows money goes to locker      Input tx shows locker steals the funds",
        "params": {
          "_indexesAndBlockNumbers": "Indices of malicious input in input tx,                                input tx in block and block number of input tx",
          "_inputIntermediateNodes": "Merkle inclusion proof for the malicious transaction",
          "_inputVin": "Inputs of the malicious transaction",
          "_inputVout": "Outputs of the malicious transaction",
          "_lockerLockingScript": "Suspicious locker's locking script",
          "_locktimes": "Locktimes of input and output tx",
          "_outputVin": "Inputs of the spent transaction",
          "_outputVout": "Outputs of the spent transaction",
          "_versions": "Versions of input and output tx"
        }
      },
      "initialize(uint256,address,address,address,address,uint256,uint256,uint256,uint256,uint256,address)": {
        "params": {
          "_lockers": "Address of lockers contract",
          "_networkFee": "Fee of submitting a transaction on Network",
          "_protocolPercentageFee": "Percentage of tokens that user pays to protocol for burning",
          "_relay": "Address of relay contract",
          "_slasherPercentageReward": "Percentage of tokens that slasher receives after slashing a locker",
          "_startingBlockNumber": "Requests that are included in a block older                             than _startingBlockNumber cannot be executed",
          "_teleBTC": "Address of teleBTC contract",
          "_transferDeadline": "of sending BTC to user (aster submitting a burn request)",
          "_treasury": "Address of the treasury of the protocol"
        }
      },
      "isTransferred(address,uint256)": {
        "params": {
          "_index": "the request for the locker",
          "_lockerTargetAddress": "Locker address on the target chain"
        }
      },
      "owner()": {
        "details": "Returns the address of the current owner."
      },
      "renounceOwnership()": {
        "details": "Leaves the contract without owner. It will not be possible to call `onlyOwner` functions. Can only be called by the current owner. NOTE: Renouncing ownership will leave the contract without an owner, thereby disabling any functionality that is only available to the owner."
      },
      "setDynamicLockerFee(uint256,bytes32,uint256[],uint256[],uint256[])": {
        "details": "Callable by owner OR bitcoinFeeOracle."
      },
      "setFeeTierBoundaries(uint256[])": {
        "details": "Replaces the entire array. Boundaries must be sorted ascending."
      },
      "setLockers(address)": {
        "details": "Only owner can call this",
        "params": {
          "_lockers": "The new lockers contract address"
        }
      },
      "setNetworkFee(uint256)": {
        "details": "Only owner can call this",
        "params": {
          "_networkFee": "The new Bitcoin transaction fee"
        }
      },
      "setNetworkFeeOracle(address)": {
        "details": "Only owner can call this",
        "params": {
          "_networkFeeOracle": "Address of oracle who can update burn fee"
        }
      },
      "setProtocolPercentageFee(uint256)": {
        "details": "Only owner can call this",
        "params": {
          "_protocolPercentageFee": "The new protocol percentage fee"
        }
      },
      "setRelay(address)": {
        "details": "Only owner can call this",
        "params": {
          "_relay": "The new relay contract address"
        }
      },
      "setRewardDistributor(address)": {
        "details": "This contract distributes locker fee between locker and stakers"
      },
      "setSlasherPercentageReward(uint256)": {
        "details": "Only owner can call this",
        "params": {
          "_slasherPercentageReward": "The new slasher percentage reward"
        }
      },
      "setTeleBTC(address)": {
        "details": "Only owner can call this",
        "params": {
          "_teleBTC": "The new teleBTC contract address"
        }
      },
      "setThirdPartyAddress(uint256,address)": {
        "details": "Only owner can call this",
        "params": {
          "_thirdPartyAddress": "third party address"
        }
      },
      "setThirdPartyFee(uint256,uint256)": {
        "details": "Only owner can call this",
        "params": {
          "_thirdPartyFee": "third party fee"
        }
      },
      "setTransferDeadline(uint256)": {
        "details": "Only owner can call this      Deadline should be greater than relay finalization parameter",
        "params": {
          "_transferDeadline": "The new transfer deadline"
        }
      },
      "setTreasury(address)": {
        "details": "Only owner can call this",
        "params": {
          "_treasury": "The new treasury address"
        }
      },
      "swapAndUnwrap(address,uint256[],bool,address[],uint256,bytes,uint8,bytes,uint256)": {
        "details": "After exchanging, rest of the process is similar to ccBurn",
        "params": {
          "_amounts": "[inputTokenAmount, teleBTCAmount]",
          "_deadline": "of exchanging",
          "_exchangeConnector": "Address of exchange connectBurnRouterLogicor to be used",
          "_isFixedToken": "True if input token amount is fixed",
          "_path": "of exchanging inputToken to teleBTC",
          "thirdParty": "Third party id"
        },
        "returns": {
          "_0": "Amount of BTC that user receives"
        }
      },
      "swapAndUnwrapWithDynamicFee(address,uint256[],bool,address[],uint256,bytes,uint8,bytes,uint256,uint256,bytes32)": {
        "details": "Existing swapAndUnwrap() remains unchanged and uses default lockerPercentageFee"
      },
      "transferOwnership(address)": {
        "details": "Transfers ownership of the contract to a new account (`newOwner`). Can only be called by the current owner."
      },
      "unwrap(uint256,bytes,uint8,bytes,uint256)": {
        "details": "After submitting the burn request, Locker has a limited time      to send BTC and provide burn proof",
        "params": {
          "_amount": "of teleBTC that user wants to burn",
          "_lockerLockingScript": "of locker that should execute the burn request",
          "_scriptType": "User script type",
          "_userScript": "User script hash",
          "thirdParty": "Third party id"
        },
        "returns": {
          "burntAmount": "Amount of BTC that user receives"
        }
      }
    },
    "version": 1
  },
  "userdoc": {
    "events": {
      "LockerDispute(address,bytes,uint256,bytes32,uint256)": {
        "notice": "Emits when a locker gets slashed for withdrawing BTC without proper reason"
      },
      "NewLockers(address,address)": {
        "notice": "Emits when lockers address is updated"
      },
      "NewNetworkFee(uint256,uint256)": {
        "notice": "Emits when network fee is updated"
      },
      "NewNetworkFeeOracle(address,address)": {
        "notice": "Emits when network fee oracle is updated"
      },
      "NewProtocolPercentageFee(uint256,uint256)": {
        "notice": "Emits when percentage fee is updated"
      },
      "NewRelay(address,address)": {
        "notice": "Emits when relay address is updated"
      },
      "NewSlasherPercentageFee(uint256,uint256)": {
        "notice": "Emits when slasher percentage fee is updated"
      },
      "NewTeleBTC(address,address)": {
        "notice": "Emits when TeleBTC address is updated"
      },
      "NewThirdPartyAddress(uint256,address,address)": {
        "notice": "Emits when changes made to third party address"
      },
      "NewThirdPartyFee(uint256,uint256,uint256)": {
        "notice": "Emits when changes made to third party fee"
      },
      "NewTransferDeadline(uint256,uint256)": {
        "notice": "Emits when transfer deadline is updated"
      },
      "NewTreasury(address,address)": {
        "notice": "Emits when treasury address is updated"
      },
      "NewUnwrap(bytes,uint8,address,address,uint256,uint256,uint256,address,uint256[3],uint256[4])": {
        "notice": "Emits when a burn request gets submitted"
      },
      "PaidUnwrap(address,uint256,bytes32,uint256)": {
        "notice": "Emits when a burn proof is provided"
      }
    },
    "kind": "user",
    "methods": {
      "burnProof(bytes4,bytes,bytes,bytes4,uint256,bytes,uint256,bytes,uint256[],uint256[])": {
        "notice": "Checks the correctness of burn proof (which is a Bitcoin tx)"
      },
      "disputeBurn(bytes,uint256[])": {
        "notice": "Slashes a locker if did not pay a cc burn request before its deadline"
      },
      "disputeLocker(bytes,bytes4[],bytes,bytes,bytes,bytes,bytes4[],bytes,uint256[])": {
        "notice": "Slashes a locker if they issue a tx that doesn't match any burn request"
      },
      "getEffectiveLockerFee(uint256,bytes32,uint256,uint256)": {
        "notice": "View: get effective locker fee for given unwrap params"
      },
      "initialize(uint256,address,address,address,address,uint256,uint256,uint256,uint256,uint256,address)": {
        "notice": "Handles cross-chain burn requests"
      },
      "isTransferred(address,uint256)": {
        "notice": "Returns true is request has been processed"
      },
      "setDynamicLockerFee(uint256,bytes32,uint256[],uint256[],uint256[])": {
        "notice": "Batch-set dynamic fees for one (chainId, token) pair across multiple         thirdParty/tier combos. Arrays must be equal length."
      },
      "setFeeTierBoundaries(uint256[])": {
        "notice": "Set the global tier boundaries for amount-based fee tiers"
      },
      "setLockers(address)": {
        "notice": "Updates lockers contract address"
      },
      "setNetworkFee(uint256)": {
        "notice": "Updates Bitcoin transaction fee"
      },
      "setNetworkFeeOracle(address)": {
        "notice": "Updates Bitcoin oracle"
      },
      "setProtocolPercentageFee(uint256)": {
        "notice": "Updates protocol percentage fee for burning tokens"
      },
      "setRelay(address)": {
        "notice": "Updates relay contract address"
      },
      "setRewardDistributor(address)": {
        "notice": "Setter for reward distributor"
      },
      "setSlasherPercentageReward(uint256)": {
        "notice": "Updates slasher percentage reward for disputing lockers"
      },
      "setStartingBlockNumber(uint256)": {
        "notice": "Setter for starting block number"
      },
      "setTeleBTC(address)": {
        "notice": "Updates teleBTC contract address"
      },
      "setThirdPartyAddress(uint256,address)": {
        "notice": "Setter for third party address"
      },
      "setThirdPartyFee(uint256,uint256)": {
        "notice": "Setter for third party fee"
      },
      "setTransferDeadline(uint256)": {
        "notice": "Updates deadline of executing burn requests"
      },
      "setTreasury(address)": {
        "notice": "Updates protocol treasury address"
      },
      "setWrappedNativeToken(address)": {
        "notice": "Change the wrapped native token address"
      },
      "swapAndUnwrap(address,uint256[],bool,address[],uint256,bytes,uint8,bytes,uint256)": {
        "notice": "Exchanges input token for teleBTC then burns it"
      },
      "swapAndUnwrapWithDynamicFee(address,uint256[],bool,address[],uint256,bytes,uint8,bytes,uint256,uint256,bytes32)": {
        "notice": "New entry point: swapAndUnwrap with dynamic fee context"
      },
      "unwrap(uint256,bytes,uint8,bytes,uint256)": {
        "notice": "Records users burn request"
      }
    },
    "version": 1
  },
  "storageLayout": {
    "storage": [
      {
        "astId": 17908,
        "contract": "contracts/routers/BurnRouterLogic.sol:BurnRouterLogic",
        "label": "relay",
        "offset": 0,
        "slot": "0",
        "type": "t_address"
      },
      {
        "astId": 17911,
        "contract": "contracts/routers/BurnRouterLogic.sol:BurnRouterLogic",
        "label": "lockers",
        "offset": 0,
        "slot": "1",
        "type": "t_address"
      },
      {
        "astId": 17914,
        "contract": "contracts/routers/BurnRouterLogic.sol:BurnRouterLogic",
        "label": "teleBTC",
        "offset": 0,
        "slot": "2",
        "type": "t_address"
      },
      {
        "astId": 17917,
        "contract": "contracts/routers/BurnRouterLogic.sol:BurnRouterLogic",
        "label": "treasury",
        "offset": 0,
        "slot": "3",
        "type": "t_address"
      },
      {
        "astId": 17920,
        "contract": "contracts/routers/BurnRouterLogic.sol:BurnRouterLogic",
        "label": "bitcoinFeeOracle",
        "offset": 0,
        "slot": "4",
        "type": "t_address"
      },
      {
        "astId": 17923,
        "contract": "contracts/routers/BurnRouterLogic.sol:BurnRouterLogic",
        "label": "startingBlockNumber",
        "offset": 0,
        "slot": "5",
        "type": "t_uint256"
      },
      {
        "astId": 17926,
        "contract": "contracts/routers/BurnRouterLogic.sol:BurnRouterLogic",
        "label": "transferDeadline",
        "offset": 0,
        "slot": "6",
        "type": "t_uint256"
      },
      {
        "astId": 17929,
        "contract": "contracts/routers/BurnRouterLogic.sol:BurnRouterLogic",
        "label": "protocolPercentageFee",
        "offset": 0,
        "slot": "7",
        "type": "t_uint256"
      },
      {
        "astId": 17932,
        "contract": "contracts/routers/BurnRouterLogic.sol:BurnRouterLogic",
        "label": "slasherPercentageReward",
        "offset": 0,
        "slot": "8",
        "type": "t_uint256"
      },
      {
        "astId": 17935,
        "contract": "contracts/routers/BurnRouterLogic.sol:BurnRouterLogic",
        "label": "bitcoinFee",
        "offset": 0,
        "slot": "9",
        "type": "t_uint256"
      },
      {
        "astId": 17941,
        "contract": "contracts/routers/BurnRouterLogic.sol:BurnRouterLogic",
        "label": "burnRequests",
        "offset": 0,
        "slot": "10",
        "type": "t_mapping(t_address,t_array(t_struct(burnRequest)25455_storage)dyn_storage)"
      },
      {
        "astId": 17945,
        "contract": "contracts/routers/BurnRouterLogic.sol:BurnRouterLogic",
        "label": "burnRequestCounter",
        "offset": 0,
        "slot": "11",
        "type": "t_mapping(t_address,t_uint256)"
      },
      {
        "astId": 17950,
        "contract": "contracts/routers/BurnRouterLogic.sol:BurnRouterLogic",
        "label": "isUsedAsBurnProof",
        "offset": 0,
        "slot": "12",
        "type": "t_mapping(t_bytes32,t_bool)"
      },
      {
        "astId": 139,
        "contract": "contracts/routers/BurnRouterLogic.sol:BurnRouterLogic",
        "label": "_initialized",
        "offset": 0,
        "slot": "13",
        "type": "t_uint8"
      },
      {
        "astId": 142,
        "contract": "contracts/routers/BurnRouterLogic.sol:BurnRouterLogic",
        "label": "_initializing",
        "offset": 1,
        "slot": "13",
        "type": "t_bool"
      },
      {
        "astId": 972,
        "contract": "contracts/routers/BurnRouterLogic.sol:BurnRouterLogic",
        "label": "__gap",
        "offset": 0,
        "slot": "14",
        "type": "t_array(t_uint256)50_storage"
      },
      {
        "astId": 11,
        "contract": "contracts/routers/BurnRouterLogic.sol:BurnRouterLogic",
        "label": "_owner",
        "offset": 0,
        "slot": "64",
        "type": "t_address"
      },
      {
        "astId": 131,
        "contract": "contracts/routers/BurnRouterLogic.sol:BurnRouterLogic",
        "label": "__gap",
        "offset": 0,
        "slot": "65",
        "type": "t_array(t_uint256)49_storage"
      },
      {
        "astId": 444,
        "contract": "contracts/routers/BurnRouterLogic.sol:BurnRouterLogic",
        "label": "_status",
        "offset": 0,
        "slot": "114",
        "type": "t_uint256"
      },
      {
        "astId": 513,
        "contract": "contracts/routers/BurnRouterLogic.sol:BurnRouterLogic",
        "label": "__gap",
        "offset": 0,
        "slot": "115",
        "type": "t_array(t_uint256)49_storage"
      },
      {
        "astId": 17960,
        "contract": "contracts/routers/BurnRouterLogic.sol:BurnRouterLogic",
        "label": "thirdPartyFee",
        "offset": 0,
        "slot": "164",
        "type": "t_mapping(t_uint256,t_uint256)"
      },
      {
        "astId": 17964,
        "contract": "contracts/routers/BurnRouterLogic.sol:BurnRouterLogic",
        "label": "thirdPartyAddress",
        "offset": 0,
        "slot": "165",
        "type": "t_mapping(t_uint256,t_address)"
      },
      {
        "astId": 17966,
        "contract": "contracts/routers/BurnRouterLogic.sol:BurnRouterLogic",
        "label": "wrappedNativeToken",
        "offset": 0,
        "slot": "166",
        "type": "t_address"
      },
      {
        "astId": 17971,
        "contract": "contracts/routers/BurnRouterLogic.sol:BurnRouterLogic",
        "label": "lockerPercentageFee",
        "offset": 0,
        "slot": "167",
        "type": "t_uint256"
      },
      {
        "astId": 17973,
        "contract": "contracts/routers/BurnRouterLogic.sol:BurnRouterLogic",
        "label": "rewardDistributor",
        "offset": 0,
        "slot": "168",
        "type": "t_address"
      },
      {
        "astId": 17984,
        "contract": "contracts/routers/BurnRouterLogic.sol:BurnRouterLogic",
        "label": "dynamicLockerFee",
        "offset": 0,
        "slot": "169",
        "type": "t_mapping(t_uint256,t_mapping(t_bytes32,t_mapping(t_uint256,t_mapping(t_uint256,t_uint256))))"
      },
      {
        "astId": 17988,
        "contract": "contracts/routers/BurnRouterLogic.sol:BurnRouterLogic",
        "label": "feeTierBoundaries",
        "offset": 0,
        "slot": "170",
        "type": "t_array(t_uint256)dyn_storage"
      }
    ],
    "types": {
      "t_address": {
        "encoding": "inplace",
        "label": "address",
        "numberOfBytes": "20"
      },
      "t_array(t_struct(burnRequest)25455_storage)dyn_storage": {
        "base": "t_struct(burnRequest)25455_storage",
        "encoding": "dynamic_array",
        "label": "struct IBurnRouter.burnRequest[]",
        "numberOfBytes": "32"
      },
      "t_array(t_uint256)49_storage": {
        "base": "t_uint256",
        "encoding": "inplace",
        "label": "uint256[49]",
        "numberOfBytes": "1568"
      },
      "t_array(t_uint256)50_storage": {
        "base": "t_uint256",
        "encoding": "inplace",
        "label": "uint256[50]",
        "numberOfBytes": "1600"
      },
      "t_array(t_uint256)dyn_storage": {
        "base": "t_uint256",
        "encoding": "dynamic_array",
        "label": "uint256[]",
        "numberOfBytes": "32"
      },
      "t_bool": {
        "encoding": "inplace",
        "label": "bool",
        "numberOfBytes": "1"
      },
      "t_bytes32": {
        "encoding": "inplace",
        "label": "bytes32",
        "numberOfBytes": "32"
      },
      "t_bytes_storage": {
        "encoding": "bytes",
        "label": "bytes",
        "numberOfBytes": "32"
      },
      "t_enum(ScriptTypes)6931": {
        "encoding": "inplace",
        "label": "enum ScriptTypes",
        "numberOfBytes": "1"
      },
      "t_mapping(t_address,t_array(t_struct(burnRequest)25455_storage)dyn_storage)": {
        "encoding": "mapping",
        "key": "t_address",
        "label": "mapping(address => struct IBurnRouter.burnRequest[])",
        "numberOfBytes": "32",
        "value": "t_array(t_struct(burnRequest)25455_storage)dyn_storage"
      },
      "t_mapping(t_address,t_uint256)": {
        "encoding": "mapping",
        "key": "t_address",
        "label": "mapping(address => uint256)",
        "numberOfBytes": "32",
        "value": "t_uint256"
      },
      "t_mapping(t_bytes32,t_bool)": {
        "encoding": "mapping",
        "key": "t_bytes32",
        "label": "mapping(bytes32 => bool)",
        "numberOfBytes": "32",
        "value": "t_bool"
      },
      "t_mapping(t_bytes32,t_mapping(t_uint256,t_mapping(t_uint256,t_uint256)))": {
        "encoding": "mapping",
        "key": "t_bytes32",
        "label": "mapping(bytes32 => mapping(uint256 => mapping(uint256 => uint256)))",
        "numberOfBytes": "32",
        "value": "t_mapping(t_uint256,t_mapping(t_uint256,t_uint256))"
      },
      "t_mapping(t_uint256,t_address)": {
        "encoding": "mapping",
        "key": "t_uint256",
        "label": "mapping(uint256 => address)",
        "numberOfBytes": "32",
        "value": "t_address"
      },
      "t_mapping(t_uint256,t_mapping(t_bytes32,t_mapping(t_uint256,t_mapping(t_uint256,t_uint256))))": {
        "encoding": "mapping",
        "key": "t_uint256",
        "label": "mapping(uint256 => mapping(bytes32 => mapping(uint256 => mapping(uint256 => uint256))))",
        "numberOfBytes": "32",
        "value": "t_mapping(t_bytes32,t_mapping(t_uint256,t_mapping(t_uint256,t_uint256)))"
      },
      "t_mapping(t_uint256,t_mapping(t_uint256,t_uint256))": {
        "encoding": "mapping",
        "key": "t_uint256",
        "label": "mapping(uint256 => mapping(uint256 => uint256))",
        "numberOfBytes": "32",
        "value": "t_mapping(t_uint256,t_uint256)"
      },
      "t_mapping(t_uint256,t_uint256)": {
        "encoding": "mapping",
        "key": "t_uint256",
        "label": "mapping(uint256 => uint256)",
        "numberOfBytes": "32",
        "value": "t_uint256"
      },
      "t_struct(burnRequest)25455_storage": {
        "encoding": "inplace",
        "label": "struct IBurnRouter.burnRequest",
        "members": [
          {
            "astId": 25439,
            "contract": "contracts/routers/BurnRouterLogic.sol:BurnRouterLogic",
            "label": "amount",
            "offset": 0,
            "slot": "0",
            "type": "t_uint256"
          },
          {
            "astId": 25441,
            "contract": "contracts/routers/BurnRouterLogic.sol:BurnRouterLogic",
            "label": "burntAmount",
            "offset": 0,
            "slot": "1",
            "type": "t_uint256"
          },
          {
            "astId": 25443,
            "contract": "contracts/routers/BurnRouterLogic.sol:BurnRouterLogic",
            "label": "sender",
            "offset": 0,
            "slot": "2",
            "type": "t_address"
          },
          {
            "astId": 25445,
            "contract": "contracts/routers/BurnRouterLogic.sol:BurnRouterLogic",
            "label": "userScript",
            "offset": 0,
            "slot": "3",
            "type": "t_bytes_storage"
          },
          {
            "astId": 25447,
            "contract": "contracts/routers/BurnRouterLogic.sol:BurnRouterLogic",
            "label": "deadline",
            "offset": 0,
            "slot": "4",
            "type": "t_uint256"
          },
          {
            "astId": 25449,
            "contract": "contracts/routers/BurnRouterLogic.sol:BurnRouterLogic",
            "label": "isTransferred",
            "offset": 0,
            "slot": "5",
            "type": "t_bool"
          },
          {
            "astId": 25452,
            "contract": "contracts/routers/BurnRouterLogic.sol:BurnRouterLogic",
            "label": "scriptType",
            "offset": 1,
            "slot": "5",
            "type": "t_enum(ScriptTypes)6931"
          },
          {
            "astId": 25454,
            "contract": "contracts/routers/BurnRouterLogic.sol:BurnRouterLogic",
            "label": "requestIdOfLocker",
            "offset": 0,
            "slot": "6",
            "type": "t_uint256"
          }
        ],
        "numberOfBytes": "224"
      },
      "t_uint256": {
        "encoding": "inplace",
        "label": "uint256",
        "numberOfBytes": "32"
      },
      "t_uint8": {
        "encoding": "inplace",
        "label": "uint8",
        "numberOfBytes": "1"
      }
    }
  }
}