{
  "address": "0xCa6886DaAF3c7937f80Ae8C925f772Bf0095d981",
  "abi": [
    {
      "inputs": [],
      "name": "ZeroAddress",
      "type": "error"
    },
    {
      "anonymous": false,
      "inputs": [
        {
          "indexed": true,
          "internalType": "address",
          "name": "userTargetAddress",
          "type": "address"
        },
        {
          "indexed": true,
          "internalType": "address",
          "name": "_lockerTargetAddress",
          "type": "address"
        },
        {
          "indexed": false,
          "internalType": "bytes",
          "name": "lockerLockingScript",
          "type": "bytes"
        },
        {
          "indexed": false,
          "internalType": "uint256",
          "name": "requestIdOfLocker",
          "type": "uint256"
        }
      ],
      "name": "BurnDispute",
      "type": "event"
    },
    {
      "anonymous": false,
      "inputs": [
        {
          "indexed": false,
          "internalType": "uint8",
          "name": "version",
          "type": "uint8"
        }
      ],
      "name": "Initialized",
      "type": "event"
    },
    {
      "anonymous": false,
      "inputs": [
        {
          "indexed": false,
          "internalType": "address",
          "name": "_lockerTargetAddress",
          "type": "address"
        },
        {
          "indexed": false,
          "internalType": "bytes",
          "name": "lockerLockingScript",
          "type": "bytes"
        },
        {
          "indexed": false,
          "internalType": "uint256",
          "name": "_blockNumber",
          "type": "uint256"
        },
        {
          "indexed": false,
          "internalType": "bytes32",
          "name": "txId",
          "type": "bytes32"
        },
        {
          "indexed": false,
          "internalType": "uint256",
          "name": "amount",
          "type": "uint256"
        }
      ],
      "name": "LockerDispute",
      "type": "event"
    },
    {
      "anonymous": false,
      "inputs": [
        {
          "indexed": false,
          "internalType": "address",
          "name": "oldLockers",
          "type": "address"
        },
        {
          "indexed": false,
          "internalType": "address",
          "name": "newLockers",
          "type": "address"
        }
      ],
      "name": "NewLockers",
      "type": "event"
    },
    {
      "anonymous": false,
      "inputs": [
        {
          "indexed": false,
          "internalType": "uint256",
          "name": "oldNetworkFee",
          "type": "uint256"
        },
        {
          "indexed": false,
          "internalType": "uint256",
          "name": "newNetworkFee",
          "type": "uint256"
        }
      ],
      "name": "NewNetworkFee",
      "type": "event"
    },
    {
      "anonymous": false,
      "inputs": [
        {
          "indexed": false,
          "internalType": "address",
          "name": "oldNetworkFeeOracle",
          "type": "address"
        },
        {
          "indexed": false,
          "internalType": "address",
          "name": "newNetworkFeeOracle",
          "type": "address"
        }
      ],
      "name": "NewNetworkFeeOracle",
      "type": "event"
    },
    {
      "anonymous": false,
      "inputs": [
        {
          "indexed": false,
          "internalType": "uint256",
          "name": "oldProtocolPercentageFee",
          "type": "uint256"
        },
        {
          "indexed": false,
          "internalType": "uint256",
          "name": "newProtocolPercentageFee",
          "type": "uint256"
        }
      ],
      "name": "NewProtocolPercentageFee",
      "type": "event"
    },
    {
      "anonymous": false,
      "inputs": [
        {
          "indexed": false,
          "internalType": "address",
          "name": "oldRelay",
          "type": "address"
        },
        {
          "indexed": false,
          "internalType": "address",
          "name": "newRelay",
          "type": "address"
        }
      ],
      "name": "NewRelay",
      "type": "event"
    },
    {
      "anonymous": false,
      "inputs": [
        {
          "indexed": false,
          "internalType": "uint256",
          "name": "oldSlasherPercentageFee",
          "type": "uint256"
        },
        {
          "indexed": false,
          "internalType": "uint256",
          "name": "newSlasherPercentageFee",
          "type": "uint256"
        }
      ],
      "name": "NewSlasherPercentageFee",
      "type": "event"
    },
    {
      "anonymous": false,
      "inputs": [
        {
          "indexed": false,
          "internalType": "address",
          "name": "oldTeleBTC",
          "type": "address"
        },
        {
          "indexed": false,
          "internalType": "address",
          "name": "newTeleBTC",
          "type": "address"
        }
      ],
      "name": "NewTeleBTC",
      "type": "event"
    },
    {
      "anonymous": false,
      "inputs": [
        {
          "indexed": false,
          "internalType": "uint256",
          "name": "thirdPartyId",
          "type": "uint256"
        },
        {
          "indexed": false,
          "internalType": "address",
          "name": "oldThirdPartyAddress",
          "type": "address"
        },
        {
          "indexed": false,
          "internalType": "address",
          "name": "newThirdPartyAddress",
          "type": "address"
        }
      ],
      "name": "NewThirdPartyAddress",
      "type": "event"
    },
    {
      "anonymous": false,
      "inputs": [
        {
          "indexed": false,
          "internalType": "uint256",
          "name": "thirdPartyId",
          "type": "uint256"
        },
        {
          "indexed": false,
          "internalType": "uint256",
          "name": "oldThirdPartyFee",
          "type": "uint256"
        },
        {
          "indexed": false,
          "internalType": "uint256",
          "name": "newThirdPartyFee",
          "type": "uint256"
        }
      ],
      "name": "NewThirdPartyFee",
      "type": "event"
    },
    {
      "anonymous": false,
      "inputs": [
        {
          "indexed": false,
          "internalType": "uint256",
          "name": "oldTransferDeadline",
          "type": "uint256"
        },
        {
          "indexed": false,
          "internalType": "uint256",
          "name": "newTransferDeadline",
          "type": "uint256"
        }
      ],
      "name": "NewTransferDeadline",
      "type": "event"
    },
    {
      "anonymous": false,
      "inputs": [
        {
          "indexed": false,
          "internalType": "address",
          "name": "oldTreasury",
          "type": "address"
        },
        {
          "indexed": false,
          "internalType": "address",
          "name": "newTreasury",
          "type": "address"
        }
      ],
      "name": "NewTreasury",
      "type": "event"
    },
    {
      "anonymous": false,
      "inputs": [
        {
          "indexed": false,
          "internalType": "bytes",
          "name": "userScript",
          "type": "bytes"
        },
        {
          "indexed": false,
          "internalType": "enum ScriptTypes",
          "name": "scriptType",
          "type": "uint8"
        },
        {
          "indexed": false,
          "internalType": "address",
          "name": "lockerTargetAddress",
          "type": "address"
        },
        {
          "indexed": true,
          "internalType": "address",
          "name": "userTargetAddress",
          "type": "address"
        },
        {
          "indexed": false,
          "internalType": "uint256",
          "name": "requestIdOfLocker",
          "type": "uint256"
        },
        {
          "indexed": true,
          "internalType": "uint256",
          "name": "deadline",
          "type": "uint256"
        },
        {
          "indexed": false,
          "internalType": "uint256",
          "name": "thirdPartyId",
          "type": "uint256"
        },
        {
          "indexed": false,
          "internalType": "address",
          "name": "inputToken",
          "type": "address"
        },
        {
          "indexed": false,
          "internalType": "uint256[3]",
          "name": "amounts",
          "type": "uint256[3]"
        },
        {
          "indexed": false,
          "internalType": "uint256[4]",
          "name": "fees",
          "type": "uint256[4]"
        }
      ],
      "name": "NewUnwrap",
      "type": "event"
    },
    {
      "anonymous": false,
      "inputs": [
        {
          "indexed": false,
          "internalType": "address",
          "name": "oldWrappedNativeToken",
          "type": "address"
        },
        {
          "indexed": false,
          "internalType": "address",
          "name": "newWrappedNativeToken",
          "type": "address"
        }
      ],
      "name": "NewWrappedNativeToken",
      "type": "event"
    },
    {
      "anonymous": false,
      "inputs": [
        {
          "indexed": true,
          "internalType": "address",
          "name": "previousOwner",
          "type": "address"
        },
        {
          "indexed": true,
          "internalType": "address",
          "name": "newOwner",
          "type": "address"
        }
      ],
      "name": "OwnershipTransferred",
      "type": "event"
    },
    {
      "anonymous": false,
      "inputs": [
        {
          "indexed": true,
          "internalType": "address",
          "name": "lockerTargetAddress",
          "type": "address"
        },
        {
          "indexed": false,
          "internalType": "uint256",
          "name": "requestIdOfLocker",
          "type": "uint256"
        },
        {
          "indexed": false,
          "internalType": "bytes32",
          "name": "bitcoinTxId",
          "type": "bytes32"
        },
        {
          "indexed": false,
          "internalType": "uint256",
          "name": "bitcoinTxOutputIndex",
          "type": "uint256"
        }
      ],
      "name": "PaidUnwrap",
      "type": "event"
    },
    {
      "inputs": [],
      "name": "DUST_SATOSHI_AMOUNT",
      "outputs": [
        {
          "internalType": "uint256",
          "name": "",
          "type": "uint256"
        }
      ],
      "stateMutability": "view",
      "type": "function"
    },
    {
      "inputs": [],
      "name": "bitcoinFee",
      "outputs": [
        {
          "internalType": "uint256",
          "name": "",
          "type": "uint256"
        }
      ],
      "stateMutability": "view",
      "type": "function"
    },
    {
      "inputs": [],
      "name": "bitcoinFeeOracle",
      "outputs": [
        {
          "internalType": "address",
          "name": "",
          "type": "address"
        }
      ],
      "stateMutability": "view",
      "type": "function"
    },
    {
      "inputs": [
        {
          "internalType": "bytes4",
          "name": "_version",
          "type": "bytes4"
        },
        {
          "internalType": "bytes",
          "name": "_vin",
          "type": "bytes"
        },
        {
          "internalType": "bytes",
          "name": "_vout",
          "type": "bytes"
        },
        {
          "internalType": "bytes4",
          "name": "_locktime",
          "type": "bytes4"
        },
        {
          "internalType": "uint256",
          "name": "_blockNumber",
          "type": "uint256"
        },
        {
          "internalType": "bytes",
          "name": "_intermediateNodes",
          "type": "bytes"
        },
        {
          "internalType": "uint256",
          "name": "_index",
          "type": "uint256"
        },
        {
          "internalType": "bytes",
          "name": "_lockerLockingScript",
          "type": "bytes"
        },
        {
          "internalType": "uint256[]",
          "name": "_burnReqIndexes",
          "type": "uint256[]"
        },
        {
          "internalType": "uint256[]",
          "name": "_voutIndexes",
          "type": "uint256[]"
        }
      ],
      "name": "burnProof",
      "outputs": [
        {
          "internalType": "bool",
          "name": "",
          "type": "bool"
        }
      ],
      "stateMutability": "payable",
      "type": "function"
    },
    {
      "inputs": [
        {
          "internalType": "address",
          "name": "",
          "type": "address"
        }
      ],
      "name": "burnRequestCounter",
      "outputs": [
        {
          "internalType": "uint256",
          "name": "",
          "type": "uint256"
        }
      ],
      "stateMutability": "view",
      "type": "function"
    },
    {
      "inputs": [
        {
          "internalType": "address",
          "name": "",
          "type": "address"
        },
        {
          "internalType": "uint256",
          "name": "",
          "type": "uint256"
        }
      ],
      "name": "burnRequests",
      "outputs": [
        {
          "internalType": "uint256",
          "name": "amount",
          "type": "uint256"
        },
        {
          "internalType": "uint256",
          "name": "burntAmount",
          "type": "uint256"
        },
        {
          "internalType": "address",
          "name": "sender",
          "type": "address"
        },
        {
          "internalType": "bytes",
          "name": "userScript",
          "type": "bytes"
        },
        {
          "internalType": "uint256",
          "name": "deadline",
          "type": "uint256"
        },
        {
          "internalType": "bool",
          "name": "isTransferred",
          "type": "bool"
        },
        {
          "internalType": "enum ScriptTypes",
          "name": "scriptType",
          "type": "uint8"
        },
        {
          "internalType": "uint256",
          "name": "requestIdOfLocker",
          "type": "uint256"
        }
      ],
      "stateMutability": "view",
      "type": "function"
    },
    {
      "inputs": [
        {
          "internalType": "bytes",
          "name": "_lockerLockingScript",
          "type": "bytes"
        },
        {
          "internalType": "uint256[]",
          "name": "_indices",
          "type": "uint256[]"
        }
      ],
      "name": "disputeBurn",
      "outputs": [],
      "stateMutability": "nonpayable",
      "type": "function"
    },
    {
      "inputs": [
        {
          "internalType": "bytes",
          "name": "_lockerLockingScript",
          "type": "bytes"
        },
        {
          "internalType": "bytes4[]",
          "name": "_versions",
          "type": "bytes4[]"
        },
        {
          "internalType": "bytes",
          "name": "_inputVin",
          "type": "bytes"
        },
        {
          "internalType": "bytes",
          "name": "_inputVout",
          "type": "bytes"
        },
        {
          "internalType": "bytes",
          "name": "_outputVin",
          "type": "bytes"
        },
        {
          "internalType": "bytes",
          "name": "_outputVout",
          "type": "bytes"
        },
        {
          "internalType": "bytes4[]",
          "name": "_locktimes",
          "type": "bytes4[]"
        },
        {
          "internalType": "bytes",
          "name": "_inputIntermediateNodes",
          "type": "bytes"
        },
        {
          "internalType": "uint256[]",
          "name": "_indexesAndBlockNumbers",
          "type": "uint256[]"
        }
      ],
      "name": "disputeLocker",
      "outputs": [],
      "stateMutability": "payable",
      "type": "function"
    },
    {
      "inputs": [
        {
          "internalType": "uint256",
          "name": "_startingBlockNumber",
          "type": "uint256"
        },
        {
          "internalType": "address",
          "name": "_relay",
          "type": "address"
        },
        {
          "internalType": "address",
          "name": "_lockers",
          "type": "address"
        },
        {
          "internalType": "address",
          "name": "_treasury",
          "type": "address"
        },
        {
          "internalType": "address",
          "name": "_teleBTC",
          "type": "address"
        },
        {
          "internalType": "uint256",
          "name": "_transferDeadline",
          "type": "uint256"
        },
        {
          "internalType": "uint256",
          "name": "_protocolPercentageFee",
          "type": "uint256"
        },
        {
          "internalType": "uint256",
          "name": "_lockerPercentageFee",
          "type": "uint256"
        },
        {
          "internalType": "uint256",
          "name": "_slasherPercentageReward",
          "type": "uint256"
        },
        {
          "internalType": "uint256",
          "name": "_networkFee",
          "type": "uint256"
        },
        {
          "internalType": "address",
          "name": "_wrappedNativeToken",
          "type": "address"
        }
      ],
      "name": "initialize",
      "outputs": [],
      "stateMutability": "nonpayable",
      "type": "function"
    },
    {
      "inputs": [
        {
          "internalType": "address",
          "name": "_lockerTargetAddress",
          "type": "address"
        },
        {
          "internalType": "uint256",
          "name": "_index",
          "type": "uint256"
        }
      ],
      "name": "isTransferred",
      "outputs": [
        {
          "internalType": "bool",
          "name": "",
          "type": "bool"
        }
      ],
      "stateMutability": "view",
      "type": "function"
    },
    {
      "inputs": [
        {
          "internalType": "bytes32",
          "name": "",
          "type": "bytes32"
        }
      ],
      "name": "isUsedAsBurnProof",
      "outputs": [
        {
          "internalType": "bool",
          "name": "",
          "type": "bool"
        }
      ],
      "stateMutability": "view",
      "type": "function"
    },
    {
      "inputs": [],
      "name": "lockerPercentageFee",
      "outputs": [
        {
          "internalType": "uint256",
          "name": "",
          "type": "uint256"
        }
      ],
      "stateMutability": "view",
      "type": "function"
    },
    {
      "inputs": [],
      "name": "lockers",
      "outputs": [
        {
          "internalType": "address",
          "name": "",
          "type": "address"
        }
      ],
      "stateMutability": "view",
      "type": "function"
    },
    {
      "inputs": [],
      "name": "owner",
      "outputs": [
        {
          "internalType": "address",
          "name": "",
          "type": "address"
        }
      ],
      "stateMutability": "view",
      "type": "function"
    },
    {
      "inputs": [],
      "name": "protocolPercentageFee",
      "outputs": [
        {
          "internalType": "uint256",
          "name": "",
          "type": "uint256"
        }
      ],
      "stateMutability": "view",
      "type": "function"
    },
    {
      "inputs": [],
      "name": "relay",
      "outputs": [
        {
          "internalType": "address",
          "name": "",
          "type": "address"
        }
      ],
      "stateMutability": "view",
      "type": "function"
    },
    {
      "inputs": [],
      "name": "renounceOwnership",
      "outputs": [],
      "stateMutability": "nonpayable",
      "type": "function"
    },
    {
      "inputs": [],
      "name": "rewardDistributor",
      "outputs": [
        {
          "internalType": "address",
          "name": "",
          "type": "address"
        }
      ],
      "stateMutability": "view",
      "type": "function"
    },
    {
      "inputs": [
        {
          "internalType": "uint256",
          "name": "_lockerPercentageFee",
          "type": "uint256"
        }
      ],
      "name": "setLockerPercentageFee",
      "outputs": [],
      "stateMutability": "nonpayable",
      "type": "function"
    },
    {
      "inputs": [
        {
          "internalType": "address",
          "name": "_lockers",
          "type": "address"
        }
      ],
      "name": "setLockers",
      "outputs": [],
      "stateMutability": "nonpayable",
      "type": "function"
    },
    {
      "inputs": [
        {
          "internalType": "uint256",
          "name": "_networkFee",
          "type": "uint256"
        }
      ],
      "name": "setNetworkFee",
      "outputs": [],
      "stateMutability": "nonpayable",
      "type": "function"
    },
    {
      "inputs": [
        {
          "internalType": "address",
          "name": "_networkFeeOracle",
          "type": "address"
        }
      ],
      "name": "setNetworkFeeOracle",
      "outputs": [],
      "stateMutability": "nonpayable",
      "type": "function"
    },
    {
      "inputs": [
        {
          "internalType": "uint256",
          "name": "_protocolPercentageFee",
          "type": "uint256"
        }
      ],
      "name": "setProtocolPercentageFee",
      "outputs": [],
      "stateMutability": "nonpayable",
      "type": "function"
    },
    {
      "inputs": [
        {
          "internalType": "address",
          "name": "_relay",
          "type": "address"
        }
      ],
      "name": "setRelay",
      "outputs": [],
      "stateMutability": "nonpayable",
      "type": "function"
    },
    {
      "inputs": [
        {
          "internalType": "address",
          "name": "_rewardDistributor",
          "type": "address"
        }
      ],
      "name": "setRewardDistributor",
      "outputs": [],
      "stateMutability": "nonpayable",
      "type": "function"
    },
    {
      "inputs": [
        {
          "internalType": "uint256",
          "name": "_slasherPercentageReward",
          "type": "uint256"
        }
      ],
      "name": "setSlasherPercentageReward",
      "outputs": [],
      "stateMutability": "nonpayable",
      "type": "function"
    },
    {
      "inputs": [
        {
          "internalType": "uint256",
          "name": "_startingBlockNumber",
          "type": "uint256"
        }
      ],
      "name": "setStartingBlockNumber",
      "outputs": [],
      "stateMutability": "nonpayable",
      "type": "function"
    },
    {
      "inputs": [
        {
          "internalType": "address",
          "name": "_teleBTC",
          "type": "address"
        }
      ],
      "name": "setTeleBTC",
      "outputs": [],
      "stateMutability": "nonpayable",
      "type": "function"
    },
    {
      "inputs": [
        {
          "internalType": "uint256",
          "name": "_thirdPartyId",
          "type": "uint256"
        },
        {
          "internalType": "address",
          "name": "_thirdPartyAddress",
          "type": "address"
        }
      ],
      "name": "setThirdPartyAddress",
      "outputs": [],
      "stateMutability": "nonpayable",
      "type": "function"
    },
    {
      "inputs": [
        {
          "internalType": "uint256",
          "name": "_thirdPartyId",
          "type": "uint256"
        },
        {
          "internalType": "uint256",
          "name": "_thirdPartyFee",
          "type": "uint256"
        }
      ],
      "name": "setThirdPartyFee",
      "outputs": [],
      "stateMutability": "nonpayable",
      "type": "function"
    },
    {
      "inputs": [
        {
          "internalType": "uint256",
          "name": "_transferDeadline",
          "type": "uint256"
        }
      ],
      "name": "setTransferDeadline",
      "outputs": [],
      "stateMutability": "nonpayable",
      "type": "function"
    },
    {
      "inputs": [
        {
          "internalType": "address",
          "name": "_treasury",
          "type": "address"
        }
      ],
      "name": "setTreasury",
      "outputs": [],
      "stateMutability": "nonpayable",
      "type": "function"
    },
    {
      "inputs": [
        {
          "internalType": "address",
          "name": "_wrappedNativeToken",
          "type": "address"
        }
      ],
      "name": "setWrappedNativeToken",
      "outputs": [],
      "stateMutability": "nonpayable",
      "type": "function"
    },
    {
      "inputs": [],
      "name": "slasherPercentageReward",
      "outputs": [
        {
          "internalType": "uint256",
          "name": "",
          "type": "uint256"
        }
      ],
      "stateMutability": "view",
      "type": "function"
    },
    {
      "inputs": [],
      "name": "startingBlockNumber",
      "outputs": [
        {
          "internalType": "uint256",
          "name": "",
          "type": "uint256"
        }
      ],
      "stateMutability": "view",
      "type": "function"
    },
    {
      "inputs": [
        {
          "internalType": "address",
          "name": "_exchangeConnector",
          "type": "address"
        },
        {
          "internalType": "uint256[]",
          "name": "_amounts",
          "type": "uint256[]"
        },
        {
          "internalType": "bool",
          "name": "_isFixedToken",
          "type": "bool"
        },
        {
          "internalType": "address[]",
          "name": "_path",
          "type": "address[]"
        },
        {
          "internalType": "uint256",
          "name": "_deadline",
          "type": "uint256"
        },
        {
          "internalType": "bytes",
          "name": "_userScript",
          "type": "bytes"
        },
        {
          "internalType": "enum ScriptTypes",
          "name": "_scriptType",
          "type": "uint8"
        },
        {
          "internalType": "bytes",
          "name": "_lockerLockingScript",
          "type": "bytes"
        },
        {
          "internalType": "uint256",
          "name": "thirdParty",
          "type": "uint256"
        }
      ],
      "name": "swapAndUnwrap",
      "outputs": [
        {
          "internalType": "uint256",
          "name": "",
          "type": "uint256"
        }
      ],
      "stateMutability": "payable",
      "type": "function"
    },
    {
      "inputs": [],
      "name": "teleBTC",
      "outputs": [
        {
          "internalType": "address",
          "name": "",
          "type": "address"
        }
      ],
      "stateMutability": "view",
      "type": "function"
    },
    {
      "inputs": [
        {
          "internalType": "uint256",
          "name": "",
          "type": "uint256"
        }
      ],
      "name": "thirdPartyAddress",
      "outputs": [
        {
          "internalType": "address",
          "name": "",
          "type": "address"
        }
      ],
      "stateMutability": "view",
      "type": "function"
    },
    {
      "inputs": [
        {
          "internalType": "uint256",
          "name": "",
          "type": "uint256"
        }
      ],
      "name": "thirdPartyFee",
      "outputs": [
        {
          "internalType": "uint256",
          "name": "",
          "type": "uint256"
        }
      ],
      "stateMutability": "view",
      "type": "function"
    },
    {
      "inputs": [],
      "name": "transferDeadline",
      "outputs": [
        {
          "internalType": "uint256",
          "name": "",
          "type": "uint256"
        }
      ],
      "stateMutability": "view",
      "type": "function"
    },
    {
      "inputs": [
        {
          "internalType": "address",
          "name": "newOwner",
          "type": "address"
        }
      ],
      "name": "transferOwnership",
      "outputs": [],
      "stateMutability": "nonpayable",
      "type": "function"
    },
    {
      "inputs": [],
      "name": "treasury",
      "outputs": [
        {
          "internalType": "address",
          "name": "",
          "type": "address"
        }
      ],
      "stateMutability": "view",
      "type": "function"
    },
    {
      "inputs": [
        {
          "internalType": "uint256",
          "name": "_amount",
          "type": "uint256"
        },
        {
          "internalType": "bytes",
          "name": "_userScript",
          "type": "bytes"
        },
        {
          "internalType": "enum ScriptTypes",
          "name": "_scriptType",
          "type": "uint8"
        },
        {
          "internalType": "bytes",
          "name": "_lockerLockingScript",
          "type": "bytes"
        },
        {
          "internalType": "uint256",
          "name": "thirdParty",
          "type": "uint256"
        }
      ],
      "name": "unwrap",
      "outputs": [
        {
          "internalType": "uint256",
          "name": "burntAmount",
          "type": "uint256"
        }
      ],
      "stateMutability": "nonpayable",
      "type": "function"
    },
    {
      "inputs": [],
      "name": "wrappedNativeToken",
      "outputs": [
        {
          "internalType": "address",
          "name": "",
          "type": "address"
        }
      ],
      "stateMutability": "view",
      "type": "function"
    },
    {
      "stateMutability": "payable",
      "type": "receive"
    }
  ],
  "transactionHash": "0xed621c50595025899ad262b8edf458cdfa2270104ee76202b9e0e2d81d353f4a",
  "args": [],
  "numDeployments": 1,
  "solcInputHash": "b496b8bb2a6d207ab7e096886b970f74",
  "bytecode": "0x608060405234801561001057600080fd5b50615a5a80620000216000396000f3fe6080604052600436106101fb5760003560e01c806317fcb39b146102075780631812adb61461023d5780631876dec4146102615780631e236168146102815780631e7107c7146102c15780632d0ea4b1146102e357806333453d15146102f95780633fea436714610319578063419cba7f1461033957806344dd6aa51461034f5780634782bc361461036257806350a058361461038257806359fd0b0c146103a25780635c4f5f3e146103cf57806361d027b3146103ef578063639080201461040f5780636600203d1461042557806370872aa514610445578063715018a61461045b57806373532b2a14610470578063755ec233146104905780637ed55748146104b05780637f0f1817146104d05780637ffe9a92146104f05780638d3d78cd146105105780638d5fc1d4146105305780638da5cb5b146105505780638f9eb78b14610565578063930a60e814610585578063a1809b95146105b2578063a9b68271146105d2578063acc2166a14610608578063b14d353214610628578063b59589d114610648578063b74d0d3514610668578063bed6a6021461067e578063c780c03f14610694578063c805f68b146106a7578063cf54ce47146106c7578063da058ae3146106e7578063ea73263714610707578063f0f442601461071a578063f2fde38b1461073a578063f47e22401461075a57600080fd5b3661020257005b600080fd5b34801561021357600080fd5b5060a654610227906001600160a01b031681565b604051610234919061518a565b60405180910390f35b34801561024957600080fd5b5061025360075481565b604051908152602001610234565b34801561026d57600080fd5b50600154610227906001600160a01b031681565b34801561028d57600080fd5b506102b161029c366004614b46565b600c6020526000908152604090205460ff1681565b6040519015158152602001610234565b3480156102cd57600080fd5b506102e16102dc366004614b46565b61078e565b005b3480156102ef57600080fd5b506102536103e881565b34801561030557600080fd5b506102e16103143660046148d0565b610802565b34801561032557600080fd5b50610253610334366004614f36565b610873565b34801561034557600080fd5b5061025360085481565b61025361035d366004614908565b61098b565b34801561036e57600080fd5b506102e161037d366004614b46565b610a31565b34801561038e57600080fd5b50600454610227906001600160a01b031681565b3480156103ae57600080fd5b506102536103bd366004614b46565b60a46020526000908152604090205481565b3480156103db57600080fd5b506102e16103ea366004614b46565b610acb565b3480156103fb57600080fd5b50600354610227906001600160a01b031681565b34801561041b57600080fd5b5061025360a75481565b34801561043157600080fd5b506102e1610440366004614b46565b610c61565b34801561045157600080fd5b5061025360055481565b34801561046757600080fd5b506102e1610c90565b34801561047c57600080fd5b506102e161048b366004614c9b565b610c9a565b34801561049c57600080fd5b506102e16104ab366004614e89565b6112c0565b3480156104bc57600080fd5b506102e16104cb366004614b46565b611452565b3480156104dc57600080fd5b506102e16104eb3660046148d0565b6114bc565b3480156104fc57600080fd5b506102b161050b366004614a20565b611556565b34801561051c57600080fd5b50600254610227906001600160a01b031681565b34801561053c57600080fd5b506102e161054b366004614e5a565b6115ae565b34801561055c57600080fd5b50610227611652565b34801561057157600080fd5b506102e1610580366004614fbf565b611661565b34801561059157600080fd5b506102536105a03660046148d0565b600b6020526000908152604090205481565b3480156105be57600080fd5b506102e16105cd3660046148d0565b6116c6565b3480156105de57600080fd5b506102276105ed366004614b46565b60a5602052600090815260409020546001600160a01b031681565b34801561061457600080fd5b5060a854610227906001600160a01b031681565b34801561063457600080fd5b506102e16106433660046148d0565b6116f0565b34801561065457600080fd5b50600054610227906001600160a01b031681565b34801561067457600080fd5b5061025360095481565b34801561068a57600080fd5b5061025360065481565b6102e16106a2366004614d00565b61178a565b3480156106b357600080fd5b506102e16106c23660046148d0565b611908565b3480156106d357600080fd5b506102e16106e2366004614b46565b6119a2565b3480156106f357600080fd5b506102e16107023660046148d0565b611a3d565b6102b1610715366004614b76565b611aae565b34801561072657600080fd5b506102e16107353660046148d0565b611e1f565b34801561074657600080fd5b506102e16107553660046148d0565b611eb9565b34801561076657600080fd5b5061077a610775366004614a20565b611f32565b6040516102349897969594939291906156e8565b61079661202f565b60055481116107fd5760405162461bcd60e51b815260206004820152602860248201527f4275726e526f757465724c6f6769633a206c6f77207374617274696e67426c6f60448201526731b5a73ab6b132b960c11b60648201526084015b60405180910390fd5b600555565b61080a61202f565b6004546040517f68bf625687194a1bbeeccbaa327c37aa1f9940a3c6c9e8fe84f06f1dc14fd17691610849916001600160a01b0390911690849061519e565b60405180910390a1600480546001600160a01b0319166001600160a01b0392909216919091179055565b600061087d61208e565b6002546001600160a01b03166323b872dd33308a6040518463ffffffff1660e01b81526004016108af939291906151b8565b602060405180830381600087803b1580156108c957600080fd5b505af11580156108dd573d6000803e3d6000fd5b505050506040513d601f19601f820116820180604052508101906109019190614a81565b6109595760405162461bcd60e51b8152602060048201526024808201527f4275726e526f757465724c6f6769633a207472616e7366657246726f6d2066616044820152631a5b195960e21b60648201526084016107f4565b600254610975906001600160a01b0316888089898989896120e8565b90506109816001607255565b9695505050505050565b600061099561208e565b60006109a68e8e8e8e8e8e8e6125bf565b9050610a148d8d60008181106109cc57634e487b7160e01b600052603260045260246000fd5b905060200201358b8b60008181106109f457634e487b7160e01b600052603260045260246000fd5b9050602002016020810190610a0991906148d0565b838a8a8a8a8a612b01565b915050610a216001607255565b9c9b505050505050505050505050565b610a3961202f565b806127101015610a8b5760405162461bcd60e51b815260206004820152601f60248201527f4275726e526f757465724c6f6769633a20696e76616c6964207265776172640060448201526064016107f4565b7faa50b3683e42a13535a5b9c2c32780cccf956fb546b523a3542ac4ad8b544f6760085482604051610abe9291906156da565b60405180910390a1600855565b600080546040516353bcd1c960e11b8152734C415DD3e0Afc5D6Bd1Ca5C2a9C0f8D4bcE1de079163a779a39291610b0e916001600160a01b03169060040161518a565b60206040518083038186803b158015610b2657600080fd5b505af4158015610b3a573d6000803e3d6000fd5b505050506040513d601f19601f82011682018060405250810190610b5e9190614b5e565b9050610b68611652565b6001600160a01b0316336001600160a01b03161480610b88575080600654105b610bd15760405162461bcd60e51b815260206004820152601a602482015279109d5c9b949bdd5d195c931bd9da58ce881b9bc81c195c9b5a5d60321b60448201526064016107f4565b808211610c205760405162461bcd60e51b815260206004820152601d60248201527f4275726e526f757465724c6f6769633a206c6f7720646561646c696e6500000060448201526064016107f4565b7f92c10a242ca42973030420e2ee32b3ba7818cc643f896958f620c606cf30041660065483604051610c539291906156da565b60405180910390a150600655565b610c6961202f565b806127101015610c8b5760405162461bcd60e51b81526004016107f4906155d7565b60a755565b610c9861202f565b565b610ca261208e565b610caa61202f565b60015460405163aff2faa360e01b81526001600160a01b039091169063aff2faa390610cdc9086908690600401615380565b60206040518083038186803b158015610cf457600080fd5b505afa158015610d08573d6000803e3d6000fd5b505050506040513d601f19601f82011682018060405250810190610d2c9190614a81565b610d485760405162461bcd60e51b81526004016107f49061560d565b60015460405163626885b560e11b81526000916001600160a01b03169063c4d10b6a90610d7b9087908790600401615380565b60206040518083038186803b158015610d9357600080fd5b505afa158015610da7573d6000803e3d6000fd5b505050506040513d601f19601f82011682018060405250810190610dcb91906148ec565b905060005b82518110156112af57734C415DD3e0Afc5D6Bd1Ca5C2a9C0f8D4bcE1de076315755789600a84868581518110610e1657634e487b7160e01b600052603260045260246000fd5b60209081029190910101516006546000546040516310889dc360e01b8152734C415DD3e0Afc5D6Bd1Ca5C2a9C0f8D4bcE1de07916310889dc391610e66916001600160a01b03169060040161518a565b60206040518083038186803b158015610e7e57600080fd5b505af4158015610e92573d6000803e3d6000fd5b505050506040513d601f19601f82011682018060405250810190610eb69190614b5e565b6005546040516001600160e01b031960e089901b16815260048101969096526001600160a01b03909416602486015260448501929092526064840152608483015260a482015260c40160006040518083038186803b158015610f1757600080fd5b505af4158015610f2b573d6000803e3d6000fd5b50506001546008546001600160a01b038681166000908152600a602052604090208851919093169450631697565b935086926127109291899088908110610f8257634e487b7160e01b600052603260045260246000fd5b602002602001015181548110610fa857634e487b7160e01b600052603260045260246000fd5b906000526020600020906007020160000154610fc491906158d7565b610fce91906158b7565b336001600160a01b0387166000908152600a60205260409020885189908890811061100957634e487b7160e01b600052603260045260246000fd5b60200260200101518154811061102f57634e487b7160e01b600052603260045260246000fd5b906000526020600020906007020160000154600a6000896001600160a01b03166001600160a01b0316815260200190815260200160002089888151811061108657634e487b7160e01b600052603260045260246000fd5b6020026020010151815481106110ac57634e487b7160e01b600052603260045260246000fd5b600091825260209091206007909102016002015460405160e087901b6001600160e01b03191681526001600160a01b03958616600482015260248101949094529184166044840152606483015291909116608482015260a401602060405180830381600087803b15801561111f57600080fd5b505af1158015611133573d6000803e3d6000fd5b505050506040513d601f19601f820116820180604052508101906111579190614a81565b506001600160a01b0382166000818152600a60205260409020845185908490811061119257634e487b7160e01b600052603260045260246000fd5b6020026020010151815481106111b857634e487b7160e01b600052603260045260246000fd5b906000526020600020906007020160020160009054906101000a90046001600160a01b03166001600160a01b03167f58c23b4ae0617be275628875bcfd65759a441263099a256eeb27899fb5dd846d8787600a6000886001600160a01b03166001600160a01b0316815260200190815260200160002088878151811061124e57634e487b7160e01b600052603260045260246000fd5b60200260200101518154811061127457634e487b7160e01b600052603260045260246000fd5b90600052602060002090600702016006015460405161129593929190615394565b60405180910390a3806112a7816159ba565b915050610dd0565b50506112bb6001607255565b505050565b600d54610100900460ff16158080156112e05750600d54600160ff909116105b806112fa5750303b1580156112fa5750600d5460ff166001145b61135d5760405162461bcd60e51b815260206004820152602e60248201527f496e697469616c697a61626c653a20636f6e747261637420697320616c72656160448201526d191e481a5b9a5d1a585b1a5e995960921b60648201526084016107f4565b600d805460ff19166001179055801561138057600d805461ff0019166101001790555b611388612b14565b611390612b43565b6113998c61078e565b6113a28b611908565b6113ab8a6116f0565b6113b489611e1f565b6113bd886114bc565b6113c687610acb565b6113cf86611452565b6113d885610c61565b6113e184610a31565b6113ec610314611652565b6113f5836119a2565b6113fe82611a3d565b801561144457600d805461ff0019169055604051600181527f7f26b83ff96e1f2b6a682f133852f6798a09c465da95921460cefb38474024989060200160405180910390a15b505050505050505050505050565b61145a61202f565b80612710101561147c5760405162461bcd60e51b81526004016107f4906155d7565b7f7d205f60891f60851c61cd244ba387d72b6589e7c0ac41b9d909ab0ce2c2a53b600754826040516114af9291906156da565b60405180910390a1600755565b6114c461202f565b806001600160a01b0381166114ec5760405163d92e233d60e01b815260040160405180910390fd5b6002546040517f36a4c08a38b736dcecb6c328dba61238529620e83ccb23db2cc43cd34ec260969161152b916001600160a01b0390911690859061519e565b60405180910390a150600280546001600160a01b0319166001600160a01b0392909216919091179055565b6001600160a01b0382166000908152600a6020526040812080548390811061158e57634e487b7160e01b600052603260045260246000fd5b600091825260209091206005600790920201015460ff1690505b92915050565b6115b661202f565b600082815260a56020526040908190205490517f1e73962bcff5b98a9ac70c9b0f71fbb31dc0f5a09348c6d3ceab164169a9e7299161161c9185916001600160a01b03169085909283526001600160a01b03918216602084015216604082015260600190565b60405180910390a1600091825260a5602052604090912080546001600160a01b0319166001600160a01b03909216919091179055565b6040546001600160a01b031690565b61166961202f565b600082815260a46020526040908190205490517f188adabf806a6b6d814acc1dbd9f09e5a251c8c065d6285749a5824e4579b645916116ac9185919085906156c4565b60405180910390a1600091825260a4602052604090912055565b6116ce61202f565b60a880546001600160a01b0319166001600160a01b0392909216919091179055565b6116f861202f565b806001600160a01b0381166117205760405163d92e233d60e01b815260040160405180910390fd5b6001546040517ffa021c2ec0f46429a53e7f88b88065e40001f50c9d38b2e8b713beaf9828d4c39161175f916001600160a01b0390911690859061519e565b60405180910390a150600180546001600160a01b0319166001600160a01b0392909216919091179055565b61179261208e565b61179a61202f565b60006117f8896000815181106117c057634e487b7160e01b600052603260045260246000fd5b60200260200101518989876000815181106117eb57634e487b7160e01b600052603260045260246000fd5b6020026020010151612b72565b9050734C415DD3e0Afc5D6Bd1Ca5C2a9C0f8D4bcE1de0763441d3a21600160009054906101000a90046001600160a01b03168c8c60405180606001604052808e81526020018c81526020018b815250600c60065460008054906101000a90046001600160a01b03166005548a8e8e8e6040518d63ffffffff1660e01b815260040161188e9c9b9a9998979695949392919061521b565b60006040518083038186803b1580156118a657600080fd5b505af41580156118ba573d6000803e3d6000fd5b505050506118f2878b83856002815181106118e557634e487b7160e01b600052603260045260246000fd5b6020026020010151612cd2565b506118fd6001607255565b505050505050505050565b61191061202f565b806001600160a01b0381166119385760405163d92e233d60e01b815260040160405180910390fd5b6000546040517f4c28a3f61a715259c4dc930c23e7423b8fa52e13232c061a6e488729c66184f491611977916001600160a01b0390911690859061519e565b60405180910390a150600080546001600160a01b0319166001600160a01b0392909216919091179055565b60045433906001600160a01b031681146119fc5760405162461bcd60e51b815260206004820152601b60248201527a4275726e526f757465724c6f6769633a206e6f74206f7261636c6560281b60448201526064016107f4565b7f890eb41e398fd9cf425695b34269b781ad56c257422859094a28db47fb78f1b360095483604051611a2f9291906156da565b60405180910390a150600955565b611a4561202f565b60a6546040517f4da8064030e901e42f6de0ab04f4c322d7936d0120503addfe8a51f12709068991611a84916001600160a01b0390911690849061519e565b60405180910390a160a680546001600160a01b0319166001600160a01b0392909216919091179055565b6000611ab861208e565b60015460405163626885b560e11b81526000916001600160a01b03169063c4d10b6a90611ae99088906004016153b8565b60206040518083038186803b158015611b0157600080fd5b505afa158015611b15573d6000803e3d6000fd5b505050506040513d601f19601f82011682018060405250810190611b3991906148ec565b9050336001600160a01b0382161480611b6557506004546001600160a01b0316336001600160a01b0316145b611b815760405162461bcd60e51b81526004016107f49061560d565b734C415DD3e0Afc5D6Bd1Ca5C2a9C0f8D4bcE1de076344922b64896005548c600160009054906101000a90046001600160a01b03168a8a518a516040518863ffffffff1660e01b8152600401611bdd97969594939291906157ca565b60006040518083038186803b158015611bf557600080fd5b505af4158015611c09573d6000803e3d6000fd5b505050506000611c1b8d8d8d8d612b72565b600054604051637ebc232760e01b8152919250734C415DD3e0Afc5D6Bd1Ca5C2a9C0f8D4bcE1de0791637ebc232791611c6a916001600160a01b039091169085908e908e908e906004016151dc565b60206040518083038186803b158015611c8257600080fd5b505af4158015611c96573d6000803e3d6000fd5b505050506040513d601f19601f82011682018060405250810190611cba9190614a81565b611d065760405162461bcd60e51b815260206004820152601e60248201527f4275726e526f757465724c6f6769633a206e6f742066696e616c697a6564000060448201526064016107f4565b6000611d16828b858f8a8a612e7c565b9050734C415DD3e0Afc5D6Bd1Ca5C2a9C0f8D4bcE1de0763191e28dc600c838f8b876040518663ffffffff1660e01b8152600401611d58959493929190615593565b60206040518083038186803b158015611d7057600080fd5b505af4158015611d84573d6000803e3d6000fd5b505050506040513d601f19601f82011682018060405250810190611da89190614a81565b611e005760405162461bcd60e51b815260206004820152602360248201527f4275726e526f757465724c6f6769633a20696e76616c6964206275726e20707260448201526237b7b360e91b60648201526084016107f4565b60019350505050611e116001607255565b9a9950505050505050505050565b611e2761202f565b806001600160a01b038116611e4f5760405163d92e233d60e01b815260040160405180910390fd5b6003546040517f567657fa3f286518b318f4a29870674f433f622fdfc819691acb13105b22822591611e8e916001600160a01b0390911690859061519e565b60405180910390a150600380546001600160a01b0319166001600160a01b0392909216919091179055565b611ec161202f565b6001600160a01b038116611f265760405162461bcd60e51b815260206004820152602660248201527f4f776e61626c653a206e6577206f776e657220697320746865207a65726f206160448201526564647265737360d01b60648201526084016107f4565b611f2f81613077565b50565b600a6020528160005260406000208181548110611f4e57600080fd5b600091825260209091206007909102018054600182015460028301546003840180549396509194506001600160a01b03169291611f8a90615985565b80601f0160208091040260200160405190810160405280929190818152602001828054611fb690615985565b80156120035780601f10611fd857610100808354040283529160200191612003565b820191906000526020600020905b815481529060010190602001808311611fe657829003601f168201915b505050600484015460058501546006909501549394909360ff8083169450610100909204909116915088565b33612038611652565b6001600160a01b031614610c985760405162461bcd60e51b815260206004820181905260248201527f4f776e61626c653a2063616c6c6572206973206e6f7420746865206f776e657260448201526064016107f4565b600260725414156120e15760405162461bcd60e51b815260206004820152601f60248201527f5265656e7472616e637947756172643a207265656e7472616e742063616c6c0060448201526064016107f4565b6002607255565b600154604051630f87661560e41b8152600091734C415DD3e0Afc5D6Bd1Ca5C2a9C0f8D4bcE1de079163f876615091612137918a918a916001600160a01b03909116908a908a906004016153cb565b60006040518083038186803b15801561214f57600080fd5b505af4158015612163573d6000803e3d6000fd5b5050505060008060006121ae8a88888080601f0160208091040260200160405190810160405280939291908181526020018383808284376000920191909152508a92506130c7915050565b60025460015460405163095ea7b360e01b815295995093975091955093506001600160a01b039081169263095ea7b3926121ee9216908890600401615367565b602060405180830381600087803b15801561220857600080fd5b505af115801561221c573d6000803e3d6000fd5b505050506040513d601f19601f820116820180604052508101906122409190614a81565b506001546040516338463cff60e01b81526001600160a01b03909116906338463cff90612275908a908a908990600401615394565b602060405180830381600087803b15801561228f57600080fd5b505af11580156122a3573d6000803e3d6000fd5b505050506040513d601f19601f820116820180604052508101906122c79190614b5e565b5060015460405163626885b560e11b81526000916001600160a01b03169063c4d10b6a906122fb908b908b90600401615380565b60206040518083038186803b15801561231357600080fd5b505afa158015612327573d6000803e3d6000fd5b505050506040513d601f19601f8201168201806040525081019061234b91906148ec565b6000546040516310889dc360e01b81529192506123f2918d9188918e918e91734C415DD3e0Afc5D6Bd1Ca5C2a9C0f8D4bcE1de07916310889dc39161239c916001600160a01b03169060040161518a565b60206040518083038186803b1580156123b457600080fd5b505af41580156123c8573d6000803e3d6000fd5b505050506040513d601f19601f820116820180604052508101906123ec9190614b5e565b866135a4565b60008d9050600060405180606001604052808f81526020018e8152602001888152509050600060405180608001604052806009548152602001868152602001888152602001878152509050600a6000856001600160a01b03166001600160a01b031681526020019081526020016000206001600a6000876001600160a01b03166001600160a01b0316815260200190815260200160002080549050612497919061591f565b815481106124b557634e487b7160e01b600052603260045260246000fd5b9060005260206000209060070201600401546124ce3390565b6001600160a01b03167f6b5c22e69db87534a562352580358411dc7b2d98d24684765342f2ebf2dd8c318f8f88600a60008b6001600160a01b03166001600160a01b031681526020019081526020016000206001600a60008d6001600160a01b03166001600160a01b0316815260200190815260200160002080549050612555919061591f565b8154811061257357634e487b7160e01b600052603260045260246000fd5b9060005260206000209060070201600601548f8a8a8a60405161259d989796959493929190615419565b60405180910390a35050505050505098975050505050505050565b6001607255565b6002546000906001600160a01b031684846125db60018261591f565b8181106125f857634e487b7160e01b600052603260045260246000fd5b905060200201602081019061260d91906148d0565b6001600160a01b0316146126335760405162461bcd60e51b81526004016107f49061568d565b600286146126835760405162461bcd60e51b815260206004820152601e60248201527f4275726e526f757465724c6f6769633a2077726f6e6720616d6f756e7473000060448201526064016107f4565b34156127d057868660008181106126aa57634e487b7160e01b600052603260045260246000fd5b9050602002013534146126ff5760405162461bcd60e51b815260206004820152601f60248201527f4275726e526f757465724c6f6769633a20696e76616c696420616d6f756e740060448201526064016107f4565b8383600081811061272057634e487b7160e01b600052603260045260246000fd5b905060200201602081019061273591906148d0565b60a6546001600160a01b039081169116146127625760405162461bcd60e51b81526004016107f49061568d565b60a660009054906101000a90046001600160a01b03166001600160a01b031663d0e30db0346040518263ffffffff1660e01b81526004016000604051808303818588803b1580156127b257600080fd5b505af11580156127c6573d6000803e3d6000fd5b50505050506128b0565b838360008181106127f157634e487b7160e01b600052603260045260246000fd5b905060200201602081019061280691906148d0565b6001600160a01b03166323b872dd33308a8a600081811061283757634e487b7160e01b600052603260045260246000fd5b905060200201356040518463ffffffff1660e01b815260040161285c939291906151b8565b602060405180830381600087803b15801561287657600080fd5b505af115801561288a573d6000803e3d6000fd5b505050506040513d601f19601f820116820180604052508101906128ae9190614a81565b505b838360008181106128d157634e487b7160e01b600052603260045260246000fd5b90506020020160208101906128e691906148d0565b6001600160a01b031663095ea7b3898989600081811061291657634e487b7160e01b600052603260045260246000fd5b905060200201356040518363ffffffff1660e01b815260040161293a929190615367565b602060405180830381600087803b15801561295457600080fd5b505af1158015612968573d6000803e3d6000fd5b505050506040513d601f19601f8201168201806040525081019061298c9190614a81565b50600080896001600160a01b031663b0bbcd888a8a60008181106129c057634e487b7160e01b600052603260045260246000fd5b905060200201358b8b60018181106129e857634e487b7160e01b600052603260045260246000fd5b905060200201358989308a8e6040518863ffffffff1660e01b8152600401612a16979695949392919061574b565b600060405180830381600087803b158015612a3057600080fd5b505af1158015612a44573d6000803e3d6000fd5b505050506040513d6000823e601f3d908101601f19168201604052612a6c9190810190614a9d565b9150915081612abd5760405162461bcd60e51b815260206004820181905260248201527f4275726e526f757465724c6f6769633a2065786368616e6765206661696c656460448201526064016107f4565b8060018251612acc919061591f565b81518110612aea57634e487b7160e01b600052603260045260246000fd5b602002602001015192505050979650505050505050565b600080611e11898b8a8a8a8a8a8a6120e8565b600d54610100900460ff16612b3b5760405162461bcd60e51b81526004016107f490615642565b610c98613650565b600d54610100900460ff16612b6a5760405162461bcd60e51b81526004016107f490615642565b610c98613680565b600080612b87612b8286836136a7565b6136cb565b905062ffffff198082161415612bdc5760405162461bcd60e51b815260206004820152601a602482015279109a5d18dbda5b92195b1c195c8e881d9a5b881a5cc81b9d5b1b60321b60448201526064016107f4565b6000600287878787604051602001612bf7949392919061511b565b60408051601f1981840301815290829052612c119161516e565b602060405180830381855afa158015612c2e573d6000803e3d6000fd5b5050506040513d601f19601f82011682018060405250810190612c519190614b5e565b90506000600282604051602001612c6a91815260200190565b60408051601f1981840301815290829052612c849161516e565b602060405180830381855afa158015612ca1573d6000803e3d6000fd5b5050506040513d601f19601f82011682018060405250810190612cc49190614b5e565b93505050505b949350505050565b60015460085460405163846852f960e01b815260009283928392734C415DD3e0Afc5D6Bd1Ca5C2a9C0f8D4bcE1de079263846852f992612d28926001600160a01b03909216918c918c91612710906004016152db565b60606040518083038186803b158015612d4057600080fd5b505af4158015612d54573d6000803e3d6000fd5b505050506040513d601f19601f82011682018060405250810190612d789190614a4b565b60015492955090935091506001600160a01b031663b734de2684843360405160e085901b6001600160e01b03191681526001600160a01b0393841660048201526024810192909252909116604482015260648101849052608401602060405180830381600087803b158015612dec57600080fd5b505af1158015612e00573d6000803e3d6000fd5b505050506040513d601f19601f82011682018060405250810190612e249190614a81565b506000612e318383615874565b90507f7ff138134e34ccab071315c38e38eec079f54726b890304ab46e2c5ab6f722bb8488878985604051612e6a959493929190615326565b60405180910390a15050505050505050565b60405163fadc646560e01b8152600090734C415DD3e0Afc5D6Bd1Ca5C2a9C0f8D4bcE1de079063fadc646590612ec190600a908a908a908a908a908a90600401615533565b60206040518083038186803b158015612ed957600080fd5b505af4158015612eed573d6000803e3d6000fd5b505050506040513d601f19601f82011682018060405250810190612f119190614b5e565b905060005b835181101561306c576000848281518110612f4157634e487b7160e01b600052603260045260246000fd5b60200260200101519050600a6000886001600160a01b03166001600160a01b031681526020019081526020016000208181548110612f8f57634e487b7160e01b600052603260045260246000fd5b600091825260209091206005600790920201015460ff1615613059576001600160a01b0387166000818152600a6020526040902080547f7b8cb33b1d4dc1e5d05c58e9945c383eb161ac22029c5b963989d08c3d0ef4da91908490811061300657634e487b7160e01b600052603260045260246000fd5b9060005260206000209060070201600601548b87868151811061303957634e487b7160e01b600052603260045260246000fd5b6020026020010151604051613050939291906156c4565b60405180910390a25b5080613064816159ba565b915050612f16565b509695505050505050565b604080546001600160a01b038381166001600160a01b031983168117845592519116919082907f8be0079c531659141344cd1fd0a4f28419497f9722a3daafe3b4186f6b6457e090600090a35050565b600080600080612710600754886130de91906158d7565b6130e891906158b7565b600086815260a460205260409020549093506127109061310890896158d7565b61311291906158b7565b915061271060a7548861312591906158d7565b61312f91906158b7565b6009549091508183613141868b61591f565b61314b919061591f565b613155919061591f565b61315f919061591f565b93506103e88410156131b15760405162461bcd60e51b815260206004820152601b60248201527a109d5c9b949bdd5d195c931bd9da58ce881b1bddc8185b5bdd5b9d602a1b60448201526064016107f4565b82156132975760025460035460405163a9059cbb60e01b81526001600160a01b039283169263a9059cbb926131ed929116908790600401615367565b602060405180830381600087803b15801561320757600080fd5b505af115801561321b573d6000803e3d6000fd5b505050506040513d601f19601f8201168201806040525081019061323f9190614a81565b6132975760405162461bcd60e51b8152602060048201526024808201527f4275726e526f757465724c6f6769633a20666565207472616e736665722066616044820152631a5b195960e21b60648201526084016107f4565b811561339757600254600086815260a560205260409081902054905163a9059cbb60e01b81526001600160a01b039283169263a9059cbb926132e0929116908690600401615367565b602060405180830381600087803b1580156132fa57600080fd5b505af115801561330e573d6000803e3d6000fd5b505050506040513d601f19601f820116820180604052508101906133329190614a81565b6133975760405162461bcd60e51b815260206004820152603060248201527f4275726e526f757465724c6f6769633a2074686972642070617274792066656560448201526f081d1c985b9cd9995c8819985a5b195960821b60648201526084016107f4565b6009541561350c5760015460405163626885b560e11b81526000916001600160a01b03169063c4d10b6a906133d0908a906004016153b8565b60206040518083038186803b1580156133e857600080fd5b505afa1580156133fc573d6000803e3d6000fd5b505050506040513d601f19601f8201168201806040525081019061342091906148ec565b60025460095460405163a9059cbb60e01b81529293506001600160a01b039091169163a9059cbb9161345791859190600401615367565b602060405180830381600087803b15801561347157600080fd5b505af1158015613485573d6000803e3d6000fd5b505050506040513d601f19601f820116820180604052508101906134a99190614a81565b61350a5760405162461bcd60e51b815260206004820152602c60248201527f4275726e526f757465724c6f6769633a206e6574776f726b206665652074726160448201526b1b9cd9995c8819985a5b195960a21b60648201526084016107f4565b505b801561359b5760015460405163626885b560e11b815261359b916001600160a01b03169063c4d10b6a90613544908a906004016153b8565b60206040518083038186803b15801561355c57600080fd5b505afa158015613570573d6000803e3d6000fd5b505050506040513d601f19601f8201168201806040525081019061359491906148ec565b8287613818565b93509350935093565b734C415DD3e0Afc5D6Bd1Ca5C2a9C0f8D4bcE1de0763aa25f840600a600b8989898989896006546135d23390565b6040518b63ffffffff1660e01b81526004016135f79a999897969594939291906154c2565b60206040518083038186803b15801561360f57600080fd5b505af4158015613623573d6000803e3d6000fd5b505050506040513d601f19601f820116820180604052508101906136479190614b5e565b50505050505050565b600d54610100900460ff166136775760405162461bcd60e51b81526004016107f490615642565b610c9833613077565b600d54610100900460ff166125b85760405162461bcd60e51b81526004016107f490615642565b8151600090602084016136c264ffffffffff851682846139a0565b95945050505050565b600081816136e1815b62ffffff198416906139e7565b506136f162ffffff198516613ac1565b6001600160601b031661370d57613706613ad0565b9250613811565b600061371a856000613ad8565b9050600061372d62ffffff198716613ac1565b6001600160601b031690506001600160401b0382166137575761374e613ad0565b94505050613811565b600061376283613c21565b60ff16905060005b836001600160401b03168110156137de578282106137955761378a613ad0565b965050505050613811565b60006137b36137a4848661591f565b62ffffff198b16906005613c7f565b90506137be81613ca9565b6137c89084615874565b92505080806137d6906159ba565b91505061376a565b508181146137f8576137ee613ad0565b9550505050613811565b6301000000600160d81b038716600360d91b1795505050505b5050919050565b81156112bb5760a8546001600160a01b0316158061383557508015155b156138c45760025460405163a9059cbb60e01b81526001600160a01b039091169063a9059cbb9061386c9086908690600401615367565b602060405180830381600087803b15801561388657600080fd5b505af115801561389a573d6000803e3d6000fd5b505050506040513d601f19601f820116820180604052508101906138be9190614a81565b50505050565b60025460a85460405163095ea7b360e01b81526001600160a01b039283169263095ea7b3926138fa929116908690600401615367565b602060405180830381600087803b15801561391457600080fd5b505af1158015613928573d6000803e3d6000fd5b505050506040513d601f19601f8201168201806040525081019061394c9190614a81565b5060a8546040516138be916001600160a01b0316906139719086908690602401615367565b60408051601f198184030181529190526020810180516001600160e01b0316637db4e28f60e01b179052613cfd565b6000806139ad8385615874565b90506040518111156139bd575060005b806139cf5762ffffff199150506139e0565b5050606083811b8317901b811760181b5b9392505050565b60006139f38383613d3f565b613aba576000613a12613a068560d81c90565b64ffffffffff16613d62565b9150506000613a278464ffffffffff16613d62565b6040517f5479706520617373657274696f6e206661696c65642e20476f7420307800000060208201526001600160b01b031960b086811b8216603d8401526c05c408af0e0cac6e8cac84060f609b1b604784015283901b16605482015290925060009150605e015b60405160208183030381529060405290508060405162461bcd60e51b81526004016107f491906153b8565b5090919050565b60181c6001600160601b031690565b62ffffff1990565b600080613aed62ffffff198516846001613e0e565b905060fc8111613b0857613b0081613e3e565b9150506115a8565b8060fd1415613b6e57613b36613b31613b22856001615874565b62ffffff198716906002613eaa565b613e3e565b9150613b4182613c21565b60ff16600314613b6957613b67613b6262ffffff1986168560036000613fed565b614053565b505b613c1a565b8060fe1415613bc357613b97613b31613b88856001615874565b62ffffff198716906004613eaa565b9150613ba282613c21565b60ff16600514613b6957613b67613b6262ffffff1986168560056000613fed565b8060ff1415613c1a57613bec613b31613bdd856001615874565b62ffffff198716906008613eaa565b9150613bf782613c21565b60ff16600914613c1a57613c18613b6262ffffff1986168560096000613fed565b505b5092915050565b600060fc826001600160401b031611613c3c57506001919050565b61ffff826001600160401b031611613c5657506003919050565b63ffffffff826001600160401b031611613c7257506005919050565b506009919050565b919050565b6000612cca8484613c8f87613ac1565b6001600160601b0316613ca2919061591f565b8585613fed565b6000816005613cb7816136d4565b506000613cc5856024613ad8565b9050806001600160401b0316613cda82613c21565b60ff16613ce79190615874565b613cf2906024615874565b6136c2906004615874565b60606139e083836040518060400160405280601e81526020017f416464726573733a206c6f772d6c6576656c2063616c6c206661696c656400008152506140db565b60008164ffffffffff16613d538460d81c90565b64ffffffffff16149392505050565b600080601f5b600f8160ff161115613dc0576000613d818260086158f6565b60ff1685901c9050613d92816140ea565b61ffff16841793508160ff16601014613dad57601084901b93505b50613db9600182615936565b9050613d68565b50600f5b60ff8160ff161015613e085760ff600882021684901c613de3816140ea565b61ffff16831792508160ff16600014613dfe57601083901b92505b5060001901613dc4565b50915091565b6000613e1b826020615936565b613e269060086158f6565b60ff16613e3485858561411c565b901c949350505050565b60006001600160401b03821115613ea65760405162461bcd60e51b815260206004820152602660248201527f53616665436173743a2076616c756520646f65736e27742066697420696e203660448201526534206269747360d01b60648201526084016107f4565b5090565b6000612cca613eba85858561411c565b60008190506008817eff00ff00ff00ff00ff00ff00ff00ff00ff00ff00ff00ff00ff00ff00ff00ff16901b600882901c7eff00ff00ff00ff00ff00ff00ff00ff00ff00ff00ff00ff00ff00ff00ff00ff161790506010817dffff0000ffff0000ffff0000ffff0000ffff0000ffff0000ffff0000ffff16901b601082901c7dffff0000ffff0000ffff0000ffff0000ffff0000ffff0000ffff0000ffff161790506020817bffffffff00000000ffffffff00000000ffffffff00000000ffffffff16901b602082901c7bffffffff00000000ffffffff00000000ffffffff00000000ffffffff161790506040816001600160401b03600160801b03600160c01b0316901b604082901c6001600160401b03600160801b03600160c01b0316179050608081901b608082901c179050919050565b600080613ff98661424a565b6001600160601b0316905061400d86614259565b846140188784615874565b6140229190615874565b11156140355762ffffff19915050612cca565b61403f8582615874565b90506109818364ffffffffff1682866139a0565b6060600061409161408c8261407e61407062ffffff198816613ac1565b6001600160601b0316614286565b62ffffff1987169190613e0e565b613d62565b6040517a09cdedc5adad2dcd2dac2d840ecc2e440d2dce85c408edee84060f602b1b60208201526001600160701b0319607083901b16603b82015290925060009150604d01613a8f565b6060612cca84846000856142e7565b60006140fc60048360ff16901c61440f565b60ff1661ffff919091161760081b6141138261440f565b60ff1617919050565b600060ff821661412e575060006139e0565b61413784613ac1565b6001600160601b031661414d60ff841685615874565b111561419d5761418461415f8561424a565b6001600160601b031661417186613ac1565b6001600160601b0316858560ff1661456b565b60405162461bcd60e51b81526004016107f491906153b8565b60208260ff1611156142145760405162461bcd60e51b815260206004820152603a60248201527f54797065644d656d566965772f696e646578202d20417474656d7074656420746044820152796f20696e646578206d6f7265207468616e20333220627974657360301b60648201526084016107f4565b6008820260006142238661424a565b6001600160601b031690506000600160ff1b60001984011d91909501511695945050505050565b60781c6001600160601b031690565b600061426482613ac1565b61426d8361424a565b614277919061588c565b6001600160601b031692915050565b600060ff821115613ea65760405162461bcd60e51b815260206004820152602560248201527f53616665436173743a2076616c756520646f65736e27742066697420696e2038604482015264206269747360d81b60648201526084016107f4565b6060824710156143485760405162461bcd60e51b815260206004820152602660248201527f416464726573733a20696e73756666696369656e742062616c616e636520666f6044820152651c8818d85b1b60d21b60648201526084016107f4565b843b6143965760405162461bcd60e51b815260206004820152601d60248201527f416464726573733a2063616c6c20746f206e6f6e2d636f6e747261637400000060448201526064016107f4565b600080866001600160a01b031685876040516143b2919061516e565b60006040518083038185875af1925050503d80600081146143ef576040519150601f19603f3d011682016040523d82523d6000602084013e6143f4565b606091505b5091509150614404828286614695565b979650505050505050565b600060f08083179060ff8216141561442a5750603092915050565b8060ff1660f1141561443f5750603192915050565b8060ff1660f214156144545750603292915050565b8060ff1660f314156144695750603392915050565b8060ff1660f4141561447e5750603492915050565b8060ff1660f514156144935750603592915050565b8060ff1660f614156144a85750603692915050565b8060ff1660f714156144bd5750603792915050565b8060ff1660f814156144d25750603892915050565b8060ff1660f914156144e75750603992915050565b8060ff1660fa14156144fc5750606192915050565b8060ff1660fb14156145115750606292915050565b8060ff1660fc14156145265750606392915050565b8060ff1660fd141561453b5750606492915050565b8060ff1660fe14156145505750606592915050565b8060ff1660ff14156145655750606692915050565b50919050565b6060600061457886613d62565b915050600061458686613d62565b915050600061459486613d62565b91505060006145a286613d62565b604080517f54797065644d656d566965772f696e646578202d204f76657272616e20746865602082015274040ecd2caee5c40a6d8d2c6ca40d2e640c2e84060f605b1b818301526001600160d01b031960d098891b811660558301526e040eed2e8d040d8cadccee8d04060f608b1b605b830181905297891b8116606a8301527f2e20417474656d7074656420746f20696e646578206174206f666673657420306070830152600f60fb1b609083015295881b861660918201526097810196909652951b90921660a68401525050601760f91b60ac8201528151808203608d01815260ad90910190915295945050505050565b606083156146a45750816139e0565b8251156146b45782518084602001fd5b8160405162461bcd60e51b81526004016107f491906153b8565b8035613c7a81615a01565b60008083601f8401126146ea578182fd5b5081356001600160401b03811115614700578182fd5b6020830191508360208260051b850101111561471b57600080fd5b9250929050565b600082601f830112614732578081fd5b8135602061474761474283615851565b615821565b80838252828201915082860187848660051b8901011115614766578586fd5b855b8581101561478b5761477982614800565b84529284019290840190600101614768565b5090979650505050505050565b600082601f8301126147a8578081fd5b813560206147b861474283615851565b80838252828201915082860187848660051b89010111156147d7578586fd5b855b8581101561478b578135845292840192908401906001016147d9565b8035613c7a81615a16565b80356001600160e01b031981168114613c7a57600080fd5b60008083601f840112614829578182fd5b5081356001600160401b0381111561483f578182fd5b60208301915083602082850101111561471b57600080fd5b600082601f830112614867578081fd5b81356001600160401b03811115614880576148806159eb565b614893601f8201601f1916602001615821565b8181528460208386010111156148a7578283fd5b816020850160208301379081016020019190915292915050565b803560068110613c7a57600080fd5b6000602082840312156148e1578081fd5b81356139e081615a01565b6000602082840312156148fd578081fd5b81516139e081615a01565b6000806000806000806000806000806000806101208d8f03121561492a578788fd5b6149338d6146ce565b9b506001600160401b0360208e0135111561494c578788fd5b61495c8e60208f01358f016146d9565b909b50995061496d60408e016147f5565b98506001600160401b0360608e01351115614986578788fd5b6149968e60608f01358f016146d9565b909850965060808d013595506001600160401b0360a08e013511156149b9578485fd5b6149c98e60a08f01358f01614857565b94506149d760c08e016148c1565b93506001600160401b0360e08e013511156149f0578283fd5b614a008e60e08f01358f01614818565b81945080935050506101008d013590509295989b509295989b509295989b565b60008060408385031215614a32578182fd5b8235614a3d81615a01565b946020939093013593505050565b600080600060608486031215614a5f578081fd5b8351614a6a81615a01565b602085015160409095015190969495509392505050565b600060208284031215614a92578081fd5b81516139e081615a16565b60008060408385031215614aaf578182fd5b8251614aba81615a16565b602084810151919350906001600160401b03811115614ad7578283fd5b8401601f81018613614ae7578283fd5b8051614af561474282615851565b80828252848201915084840189868560051b8701011115614b14578687fd5b8694505b83851015614b36578051835260019490940193918501918501614b18565b5080955050505050509250929050565b600060208284031215614b57578081fd5b5035919050565b600060208284031215614b6f578081fd5b5051919050565b6000806000806000806000806000806101408b8d031215614b95578384fd5b614b9e8b614800565b995060208b01356001600160401b0380821115614bb9578586fd5b614bc58e838f01614857565b9a5060408d0135915080821115614bda578586fd5b614be68e838f01614857565b9950614bf460608e01614800565b985060808d0135975060a08d0135915080821115614c10578586fd5b614c1c8e838f01614857565b965060c08d0135955060e08d0135915080821115614c38578485fd5b614c448e838f01614857565b94506101008d0135915080821115614c5a578384fd5b614c668e838f01614798565b93506101208d0135915080821115614c7c578283fd5b50614c898d828e01614798565b9150509295989b9194979a5092959850565b600080600060408486031215614caf578081fd5b83356001600160401b0380821115614cc5578283fd5b614cd187838801614818565b90955093506020860135915080821115614ce9578283fd5b50614cf686828701614798565b9150509250925092565b60008060008060008060008060006101208a8c031215614d1e578283fd5b89356001600160401b0380821115614d34578485fd5b614d408d838e01614857565b9a5060208c0135915080821115614d55578485fd5b614d618d838e01614722565b995060408c0135915080821115614d76578485fd5b614d828d838e01614857565b985060608c0135915080821115614d97578485fd5b614da38d838e01614857565b975060808c0135915080821115614db8578485fd5b614dc48d838e01614857565b965060a08c0135915080821115614dd9578485fd5b614de58d838e01614857565b955060c08c0135915080821115614dfa578485fd5b614e068d838e01614722565b945060e08c0135915080821115614e1b578384fd5b614e278d838e01614857565b93506101008c0135915080821115614e3d578283fd5b50614e4a8c828d01614798565b9150509295985092959850929598565b60008060408385031215614e6c578182fd5b823591506020830135614e7e81615a01565b809150509250929050565b60008060008060008060008060008060006101608c8e031215614eaa578485fd5b8b359a5060208c0135614ebc81615a01565b995060408c0135614ecc81615a01565b985060608c0135614edc81615a01565b975060808c0135614eec81615a01565b965060a08c0135955060c08c0135945060e08c013593506101008c013592506101208c013591506101408c0135614f2281615a01565b809150509295989b509295989b9093969950565b60008060008060008060a08789031215614f4e578384fd5b8635955060208701356001600160401b0380821115614f6b578586fd5b614f778a838b01614857565b9650614f8560408a016148c1565b95506060890135915080821115614f9a578384fd5b50614fa789828a01614818565b979a9699509497949695608090950135949350505050565b60008060408385031215614fd1578182fd5b50508035926020909101359150565b6001600160a01b03169052565b6000815180845260208085019450808401835b838110156150265781516001600160e01b03191687529582019590820190600101615000565b509495945050505050565b6000826060810183835b600381101561506a5783830387526150548383516150cd565b602097880197909350919091019060010161503b565b509095945050505050565b6000815180845260208085019450808401835b8381101561502657815187529582019590820190600101615088565b81835281816020850137506000828201602090810191909152601f909101601f19169091010190565b600081518084526150e5816020860160208601615959565b601f01601f19169290920160200192915050565b6006811061511757634e487b7160e01b600052602160045260246000fd5b9052565b600063ffffffff60e01b8087168352855161513d816004860160208a01615959565b855190840190615154816004840160208a01615959565b919094169301600481019390935250506008019392505050565b60008251615180818460208701615959565b9190910192915050565b6001600160a01b0391909116815260200190565b6001600160a01b0392831681529116602082015260400190565b6001600160a01b039384168152919092166020820152604081019190915260600190565b60018060a01b038616815284602082015283604082015260a06060820152600061520960a08301856150cd565b90508260808301529695505050505050565b615225818e614fe0565b6101806020820152600061523d61018083018e6150cd565b828103604084015261524f818e614fed565b90508281036060840152615263818d615031565b90508a60808401528960a084015261527e60c084018a614fe0565b8760e08401528661010084015282810361012084015261529e8187614fed565b90508281036101408401526152b381866150cd565b90508281036101608401526152c88185615075565b9f9e505050505050505050505050505050565b6001600160a01b038616815260a0602082018190526000906152ff908301876150cd565b828103604084015261531181876150cd565b60608401959095525050608001529392505050565b6001600160a01b038616815260a06020820181905260009061534a908301876150cd565b604083019590955250606081019290925260809091015292915050565b6001600160a01b03929092168252602082015260400190565b602081526000612cca6020830184866150a4565b6040815260006153a86040830185876150a4565b9050826020830152949350505050565b6020815260006139e060208301846150cd565b6080815260006153de60808301886150cd565b6153eb60208401886150f9565b6001600160a01b0386166040840152828103606084015261540d8185876150a4565b98975050505050505050565b60006101a080835261542d8184018c6150cd565b915050602061543e8184018b6150f9565b6001600160a01b0389811660408501526060840189905260808401889052861660a084015260c083018560005b60038110156154885781518352918301919083019060010161546b565b50505061012083018460005b60048110156154b157815183529183019190830190600101615494565b505050509998505050505050505050565b60006101408c83528b60208401528a60408401528960608401528060808401526154ee8184018a6150cd565b9150506154fe60a08301886150f9565b60c08201959095526001600160a01b0393841660e0820152610100810192909252909116610120909101529695505050505050565b86815285602082015260018060a01b038516604082015260c06060820152600061556060c08301866150cd565b82810360808401526155728186615075565b905082810360a08401526155868185615075565b9998505050505050505050565b85815284602082015260a0604082015260006155b260a08301866150cd565b82810360608401526155c481866150cd565b9150508260808301529695505050505050565b6020808252601c908201527b4275726e526f757465724c6f6769633a20696e76616c69642066656560201b604082015260600190565b6020808252601b908201527a213ab9372937baba32b92637b3b4b19d103737ba103637b1b5b2b960291b604082015260600190565b6020808252602b908201527f496e697469616c697a61626c653a20636f6e7472616374206973206e6f74206960408201526a6e697469616c697a696e6760a81b606082015260800190565b6020808252601d908201527f4275726e526f757465724c6f6769633a20696e76616c69642070617468000000604082015260600190565b9283526020830191909152604082015260600190565b918252602082015260400190565b888152602081018890526001600160a01b03871660408201526101006060820181905260009061571a838201896150cd565b91505085608083015284151560a083015261573860c08301856150f9565b8260e08301529998505050505050505050565b878152602080820188905260c0604083018190528201869052600090879060e08401835b8981101561579d57833561578281615a01565b6001600160a01b03168252928201929082019060010161576f565b506001600160a01b039790971660608501525050506080810192909252151560a090910152949350505050565b878152602081018790526001600160e01b0319861660408201526001600160a01b038516606082015260e06080820181905260009061580b908301866150cd565b60a08301949094525060c0015295945050505050565b604051601f8201601f191681016001600160401b0381118282101715615849576158496159eb565b604052919050565b60006001600160401b0382111561586a5761586a6159eb565b5060051b60200190565b60008219821115615887576158876159d5565b500190565b60006001600160601b038281168482168083038211156158ae576158ae6159d5565b01949350505050565b6000826158d257634e487b7160e01b81526012600452602481fd5b500490565b60008160001904831182151516156158f1576158f16159d5565b500290565b600060ff821660ff84168160ff0481118215151615615917576159176159d5565b029392505050565b600082821015615931576159316159d5565b500390565b600060ff821660ff841680821015615950576159506159d5565b90039392505050565b60005b8381101561597457818101518382015260200161595c565b838111156138be5750506000910152565b600181811c9082168061599957607f821691505b6020821081141561456557634e487b7160e01b600052602260045260246000fd5b60006000198214156159ce576159ce6159d5565b5060010190565b634e487b7160e01b600052601160045260246000fd5b634e487b7160e01b600052604160045260246000fd5b6001600160a01b0381168114611f2f57600080fd5b8015158114611f2f57600080fdfea26469706673582212200fb15ebf27c93367445881f7b9f9f50b7184684ececd4f753c408e6f5763de6064736f6c63430008040033",
  "deployedBytecode": "0x6080604052600436106101fb5760003560e01c806317fcb39b146102075780631812adb61461023d5780631876dec4146102615780631e236168146102815780631e7107c7146102c15780632d0ea4b1146102e357806333453d15146102f95780633fea436714610319578063419cba7f1461033957806344dd6aa51461034f5780634782bc361461036257806350a058361461038257806359fd0b0c146103a25780635c4f5f3e146103cf57806361d027b3146103ef578063639080201461040f5780636600203d1461042557806370872aa514610445578063715018a61461045b57806373532b2a14610470578063755ec233146104905780637ed55748146104b05780637f0f1817146104d05780637ffe9a92146104f05780638d3d78cd146105105780638d5fc1d4146105305780638da5cb5b146105505780638f9eb78b14610565578063930a60e814610585578063a1809b95146105b2578063a9b68271146105d2578063acc2166a14610608578063b14d353214610628578063b59589d114610648578063b74d0d3514610668578063bed6a6021461067e578063c780c03f14610694578063c805f68b146106a7578063cf54ce47146106c7578063da058ae3146106e7578063ea73263714610707578063f0f442601461071a578063f2fde38b1461073a578063f47e22401461075a57600080fd5b3661020257005b600080fd5b34801561021357600080fd5b5060a654610227906001600160a01b031681565b604051610234919061518a565b60405180910390f35b34801561024957600080fd5b5061025360075481565b604051908152602001610234565b34801561026d57600080fd5b50600154610227906001600160a01b031681565b34801561028d57600080fd5b506102b161029c366004614b46565b600c6020526000908152604090205460ff1681565b6040519015158152602001610234565b3480156102cd57600080fd5b506102e16102dc366004614b46565b61078e565b005b3480156102ef57600080fd5b506102536103e881565b34801561030557600080fd5b506102e16103143660046148d0565b610802565b34801561032557600080fd5b50610253610334366004614f36565b610873565b34801561034557600080fd5b5061025360085481565b61025361035d366004614908565b61098b565b34801561036e57600080fd5b506102e161037d366004614b46565b610a31565b34801561038e57600080fd5b50600454610227906001600160a01b031681565b3480156103ae57600080fd5b506102536103bd366004614b46565b60a46020526000908152604090205481565b3480156103db57600080fd5b506102e16103ea366004614b46565b610acb565b3480156103fb57600080fd5b50600354610227906001600160a01b031681565b34801561041b57600080fd5b5061025360a75481565b34801561043157600080fd5b506102e1610440366004614b46565b610c61565b34801561045157600080fd5b5061025360055481565b34801561046757600080fd5b506102e1610c90565b34801561047c57600080fd5b506102e161048b366004614c9b565b610c9a565b34801561049c57600080fd5b506102e16104ab366004614e89565b6112c0565b3480156104bc57600080fd5b506102e16104cb366004614b46565b611452565b3480156104dc57600080fd5b506102e16104eb3660046148d0565b6114bc565b3480156104fc57600080fd5b506102b161050b366004614a20565b611556565b34801561051c57600080fd5b50600254610227906001600160a01b031681565b34801561053c57600080fd5b506102e161054b366004614e5a565b6115ae565b34801561055c57600080fd5b50610227611652565b34801561057157600080fd5b506102e1610580366004614fbf565b611661565b34801561059157600080fd5b506102536105a03660046148d0565b600b6020526000908152604090205481565b3480156105be57600080fd5b506102e16105cd3660046148d0565b6116c6565b3480156105de57600080fd5b506102276105ed366004614b46565b60a5602052600090815260409020546001600160a01b031681565b34801561061457600080fd5b5060a854610227906001600160a01b031681565b34801561063457600080fd5b506102e16106433660046148d0565b6116f0565b34801561065457600080fd5b50600054610227906001600160a01b031681565b34801561067457600080fd5b5061025360095481565b34801561068a57600080fd5b5061025360065481565b6102e16106a2366004614d00565b61178a565b3480156106b357600080fd5b506102e16106c23660046148d0565b611908565b3480156106d357600080fd5b506102e16106e2366004614b46565b6119a2565b3480156106f357600080fd5b506102e16107023660046148d0565b611a3d565b6102b1610715366004614b76565b611aae565b34801561072657600080fd5b506102e16107353660046148d0565b611e1f565b34801561074657600080fd5b506102e16107553660046148d0565b611eb9565b34801561076657600080fd5b5061077a610775366004614a20565b611f32565b6040516102349897969594939291906156e8565b61079661202f565b60055481116107fd5760405162461bcd60e51b815260206004820152602860248201527f4275726e526f757465724c6f6769633a206c6f77207374617274696e67426c6f60448201526731b5a73ab6b132b960c11b60648201526084015b60405180910390fd5b600555565b61080a61202f565b6004546040517f68bf625687194a1bbeeccbaa327c37aa1f9940a3c6c9e8fe84f06f1dc14fd17691610849916001600160a01b0390911690849061519e565b60405180910390a1600480546001600160a01b0319166001600160a01b0392909216919091179055565b600061087d61208e565b6002546001600160a01b03166323b872dd33308a6040518463ffffffff1660e01b81526004016108af939291906151b8565b602060405180830381600087803b1580156108c957600080fd5b505af11580156108dd573d6000803e3d6000fd5b505050506040513d601f19601f820116820180604052508101906109019190614a81565b6109595760405162461bcd60e51b8152602060048201526024808201527f4275726e526f757465724c6f6769633a207472616e7366657246726f6d2066616044820152631a5b195960e21b60648201526084016107f4565b600254610975906001600160a01b0316888089898989896120e8565b90506109816001607255565b9695505050505050565b600061099561208e565b60006109a68e8e8e8e8e8e8e6125bf565b9050610a148d8d60008181106109cc57634e487b7160e01b600052603260045260246000fd5b905060200201358b8b60008181106109f457634e487b7160e01b600052603260045260246000fd5b9050602002016020810190610a0991906148d0565b838a8a8a8a8a612b01565b915050610a216001607255565b9c9b505050505050505050505050565b610a3961202f565b806127101015610a8b5760405162461bcd60e51b815260206004820152601f60248201527f4275726e526f757465724c6f6769633a20696e76616c6964207265776172640060448201526064016107f4565b7faa50b3683e42a13535a5b9c2c32780cccf956fb546b523a3542ac4ad8b544f6760085482604051610abe9291906156da565b60405180910390a1600855565b600080546040516353bcd1c960e11b815273__$c65f3a446ccd8d7ab73874f642eb6191e5$__9163a779a39291610b0e916001600160a01b03169060040161518a565b60206040518083038186803b158015610b2657600080fd5b505af4158015610b3a573d6000803e3d6000fd5b505050506040513d601f19601f82011682018060405250810190610b5e9190614b5e565b9050610b68611652565b6001600160a01b0316336001600160a01b03161480610b88575080600654105b610bd15760405162461bcd60e51b815260206004820152601a602482015279109d5c9b949bdd5d195c931bd9da58ce881b9bc81c195c9b5a5d60321b60448201526064016107f4565b808211610c205760405162461bcd60e51b815260206004820152601d60248201527f4275726e526f757465724c6f6769633a206c6f7720646561646c696e6500000060448201526064016107f4565b7f92c10a242ca42973030420e2ee32b3ba7818cc643f896958f620c606cf30041660065483604051610c539291906156da565b60405180910390a150600655565b610c6961202f565b806127101015610c8b5760405162461bcd60e51b81526004016107f4906155d7565b60a755565b610c9861202f565b565b610ca261208e565b610caa61202f565b60015460405163aff2faa360e01b81526001600160a01b039091169063aff2faa390610cdc9086908690600401615380565b60206040518083038186803b158015610cf457600080fd5b505afa158015610d08573d6000803e3d6000fd5b505050506040513d601f19601f82011682018060405250810190610d2c9190614a81565b610d485760405162461bcd60e51b81526004016107f49061560d565b60015460405163626885b560e11b81526000916001600160a01b03169063c4d10b6a90610d7b9087908790600401615380565b60206040518083038186803b158015610d9357600080fd5b505afa158015610da7573d6000803e3d6000fd5b505050506040513d601f19601f82011682018060405250810190610dcb91906148ec565b905060005b82518110156112af5773__$c65f3a446ccd8d7ab73874f642eb6191e5$__6315755789600a84868581518110610e1657634e487b7160e01b600052603260045260246000fd5b60209081029190910101516006546000546040516310889dc360e01b815273__$c65f3a446ccd8d7ab73874f642eb6191e5$__916310889dc391610e66916001600160a01b03169060040161518a565b60206040518083038186803b158015610e7e57600080fd5b505af4158015610e92573d6000803e3d6000fd5b505050506040513d601f19601f82011682018060405250810190610eb69190614b5e565b6005546040516001600160e01b031960e089901b16815260048101969096526001600160a01b03909416602486015260448501929092526064840152608483015260a482015260c40160006040518083038186803b158015610f1757600080fd5b505af4158015610f2b573d6000803e3d6000fd5b50506001546008546001600160a01b038681166000908152600a602052604090208851919093169450631697565b935086926127109291899088908110610f8257634e487b7160e01b600052603260045260246000fd5b602002602001015181548110610fa857634e487b7160e01b600052603260045260246000fd5b906000526020600020906007020160000154610fc491906158d7565b610fce91906158b7565b336001600160a01b0387166000908152600a60205260409020885189908890811061100957634e487b7160e01b600052603260045260246000fd5b60200260200101518154811061102f57634e487b7160e01b600052603260045260246000fd5b906000526020600020906007020160000154600a6000896001600160a01b03166001600160a01b0316815260200190815260200160002089888151811061108657634e487b7160e01b600052603260045260246000fd5b6020026020010151815481106110ac57634e487b7160e01b600052603260045260246000fd5b600091825260209091206007909102016002015460405160e087901b6001600160e01b03191681526001600160a01b03958616600482015260248101949094529184166044840152606483015291909116608482015260a401602060405180830381600087803b15801561111f57600080fd5b505af1158015611133573d6000803e3d6000fd5b505050506040513d601f19601f820116820180604052508101906111579190614a81565b506001600160a01b0382166000818152600a60205260409020845185908490811061119257634e487b7160e01b600052603260045260246000fd5b6020026020010151815481106111b857634e487b7160e01b600052603260045260246000fd5b906000526020600020906007020160020160009054906101000a90046001600160a01b03166001600160a01b03167f58c23b4ae0617be275628875bcfd65759a441263099a256eeb27899fb5dd846d8787600a6000886001600160a01b03166001600160a01b0316815260200190815260200160002088878151811061124e57634e487b7160e01b600052603260045260246000fd5b60200260200101518154811061127457634e487b7160e01b600052603260045260246000fd5b90600052602060002090600702016006015460405161129593929190615394565b60405180910390a3806112a7816159ba565b915050610dd0565b50506112bb6001607255565b505050565b600d54610100900460ff16158080156112e05750600d54600160ff909116105b806112fa5750303b1580156112fa5750600d5460ff166001145b61135d5760405162461bcd60e51b815260206004820152602e60248201527f496e697469616c697a61626c653a20636f6e747261637420697320616c72656160448201526d191e481a5b9a5d1a585b1a5e995960921b60648201526084016107f4565b600d805460ff19166001179055801561138057600d805461ff0019166101001790555b611388612b14565b611390612b43565b6113998c61078e565b6113a28b611908565b6113ab8a6116f0565b6113b489611e1f565b6113bd886114bc565b6113c687610acb565b6113cf86611452565b6113d885610c61565b6113e184610a31565b6113ec610314611652565b6113f5836119a2565b6113fe82611a3d565b801561144457600d805461ff0019169055604051600181527f7f26b83ff96e1f2b6a682f133852f6798a09c465da95921460cefb38474024989060200160405180910390a15b505050505050505050505050565b61145a61202f565b80612710101561147c5760405162461bcd60e51b81526004016107f4906155d7565b7f7d205f60891f60851c61cd244ba387d72b6589e7c0ac41b9d909ab0ce2c2a53b600754826040516114af9291906156da565b60405180910390a1600755565b6114c461202f565b806001600160a01b0381166114ec5760405163d92e233d60e01b815260040160405180910390fd5b6002546040517f36a4c08a38b736dcecb6c328dba61238529620e83ccb23db2cc43cd34ec260969161152b916001600160a01b0390911690859061519e565b60405180910390a150600280546001600160a01b0319166001600160a01b0392909216919091179055565b6001600160a01b0382166000908152600a6020526040812080548390811061158e57634e487b7160e01b600052603260045260246000fd5b600091825260209091206005600790920201015460ff1690505b92915050565b6115b661202f565b600082815260a56020526040908190205490517f1e73962bcff5b98a9ac70c9b0f71fbb31dc0f5a09348c6d3ceab164169a9e7299161161c9185916001600160a01b03169085909283526001600160a01b03918216602084015216604082015260600190565b60405180910390a1600091825260a5602052604090912080546001600160a01b0319166001600160a01b03909216919091179055565b6040546001600160a01b031690565b61166961202f565b600082815260a46020526040908190205490517f188adabf806a6b6d814acc1dbd9f09e5a251c8c065d6285749a5824e4579b645916116ac9185919085906156c4565b60405180910390a1600091825260a4602052604090912055565b6116ce61202f565b60a880546001600160a01b0319166001600160a01b0392909216919091179055565b6116f861202f565b806001600160a01b0381166117205760405163d92e233d60e01b815260040160405180910390fd5b6001546040517ffa021c2ec0f46429a53e7f88b88065e40001f50c9d38b2e8b713beaf9828d4c39161175f916001600160a01b0390911690859061519e565b60405180910390a150600180546001600160a01b0319166001600160a01b0392909216919091179055565b61179261208e565b61179a61202f565b60006117f8896000815181106117c057634e487b7160e01b600052603260045260246000fd5b60200260200101518989876000815181106117eb57634e487b7160e01b600052603260045260246000fd5b6020026020010151612b72565b905073__$c65f3a446ccd8d7ab73874f642eb6191e5$__63441d3a21600160009054906101000a90046001600160a01b03168c8c60405180606001604052808e81526020018c81526020018b815250600c60065460008054906101000a90046001600160a01b03166005548a8e8e8e6040518d63ffffffff1660e01b815260040161188e9c9b9a9998979695949392919061521b565b60006040518083038186803b1580156118a657600080fd5b505af41580156118ba573d6000803e3d6000fd5b505050506118f2878b83856002815181106118e557634e487b7160e01b600052603260045260246000fd5b6020026020010151612cd2565b506118fd6001607255565b505050505050505050565b61191061202f565b806001600160a01b0381166119385760405163d92e233d60e01b815260040160405180910390fd5b6000546040517f4c28a3f61a715259c4dc930c23e7423b8fa52e13232c061a6e488729c66184f491611977916001600160a01b0390911690859061519e565b60405180910390a150600080546001600160a01b0319166001600160a01b0392909216919091179055565b60045433906001600160a01b031681146119fc5760405162461bcd60e51b815260206004820152601b60248201527a4275726e526f757465724c6f6769633a206e6f74206f7261636c6560281b60448201526064016107f4565b7f890eb41e398fd9cf425695b34269b781ad56c257422859094a28db47fb78f1b360095483604051611a2f9291906156da565b60405180910390a150600955565b611a4561202f565b60a6546040517f4da8064030e901e42f6de0ab04f4c322d7936d0120503addfe8a51f12709068991611a84916001600160a01b0390911690849061519e565b60405180910390a160a680546001600160a01b0319166001600160a01b0392909216919091179055565b6000611ab861208e565b60015460405163626885b560e11b81526000916001600160a01b03169063c4d10b6a90611ae99088906004016153b8565b60206040518083038186803b158015611b0157600080fd5b505afa158015611b15573d6000803e3d6000fd5b505050506040513d601f19601f82011682018060405250810190611b3991906148ec565b9050336001600160a01b0382161480611b6557506004546001600160a01b0316336001600160a01b0316145b611b815760405162461bcd60e51b81526004016107f49061560d565b73__$c65f3a446ccd8d7ab73874f642eb6191e5$__6344922b64896005548c600160009054906101000a90046001600160a01b03168a8a518a516040518863ffffffff1660e01b8152600401611bdd97969594939291906157ca565b60006040518083038186803b158015611bf557600080fd5b505af4158015611c09573d6000803e3d6000fd5b505050506000611c1b8d8d8d8d612b72565b600054604051637ebc232760e01b815291925073__$c65f3a446ccd8d7ab73874f642eb6191e5$__91637ebc232791611c6a916001600160a01b039091169085908e908e908e906004016151dc565b60206040518083038186803b158015611c8257600080fd5b505af4158015611c96573d6000803e3d6000fd5b505050506040513d601f19601f82011682018060405250810190611cba9190614a81565b611d065760405162461bcd60e51b815260206004820152601e60248201527f4275726e526f757465724c6f6769633a206e6f742066696e616c697a6564000060448201526064016107f4565b6000611d16828b858f8a8a612e7c565b905073__$c65f3a446ccd8d7ab73874f642eb6191e5$__63191e28dc600c838f8b876040518663ffffffff1660e01b8152600401611d58959493929190615593565b60206040518083038186803b158015611d7057600080fd5b505af4158015611d84573d6000803e3d6000fd5b505050506040513d601f19601f82011682018060405250810190611da89190614a81565b611e005760405162461bcd60e51b815260206004820152602360248201527f4275726e526f757465724c6f6769633a20696e76616c6964206275726e20707260448201526237b7b360e91b60648201526084016107f4565b60019350505050611e116001607255565b9a9950505050505050505050565b611e2761202f565b806001600160a01b038116611e4f5760405163d92e233d60e01b815260040160405180910390fd5b6003546040517f567657fa3f286518b318f4a29870674f433f622fdfc819691acb13105b22822591611e8e916001600160a01b0390911690859061519e565b60405180910390a150600380546001600160a01b0319166001600160a01b0392909216919091179055565b611ec161202f565b6001600160a01b038116611f265760405162461bcd60e51b815260206004820152602660248201527f4f776e61626c653a206e6577206f776e657220697320746865207a65726f206160448201526564647265737360d01b60648201526084016107f4565b611f2f81613077565b50565b600a6020528160005260406000208181548110611f4e57600080fd5b600091825260209091206007909102018054600182015460028301546003840180549396509194506001600160a01b03169291611f8a90615985565b80601f0160208091040260200160405190810160405280929190818152602001828054611fb690615985565b80156120035780601f10611fd857610100808354040283529160200191612003565b820191906000526020600020905b815481529060010190602001808311611fe657829003601f168201915b505050600484015460058501546006909501549394909360ff8083169450610100909204909116915088565b33612038611652565b6001600160a01b031614610c985760405162461bcd60e51b815260206004820181905260248201527f4f776e61626c653a2063616c6c6572206973206e6f7420746865206f776e657260448201526064016107f4565b600260725414156120e15760405162461bcd60e51b815260206004820152601f60248201527f5265656e7472616e637947756172643a207265656e7472616e742063616c6c0060448201526064016107f4565b6002607255565b600154604051630f87661560e41b815260009173__$c65f3a446ccd8d7ab73874f642eb6191e5$__9163f876615091612137918a918a916001600160a01b03909116908a908a906004016153cb565b60006040518083038186803b15801561214f57600080fd5b505af4158015612163573d6000803e3d6000fd5b5050505060008060006121ae8a88888080601f0160208091040260200160405190810160405280939291908181526020018383808284376000920191909152508a92506130c7915050565b60025460015460405163095ea7b360e01b815295995093975091955093506001600160a01b039081169263095ea7b3926121ee9216908890600401615367565b602060405180830381600087803b15801561220857600080fd5b505af115801561221c573d6000803e3d6000fd5b505050506040513d601f19601f820116820180604052508101906122409190614a81565b506001546040516338463cff60e01b81526001600160a01b03909116906338463cff90612275908a908a908990600401615394565b602060405180830381600087803b15801561228f57600080fd5b505af11580156122a3573d6000803e3d6000fd5b505050506040513d601f19601f820116820180604052508101906122c79190614b5e565b5060015460405163626885b560e11b81526000916001600160a01b03169063c4d10b6a906122fb908b908b90600401615380565b60206040518083038186803b15801561231357600080fd5b505afa158015612327573d6000803e3d6000fd5b505050506040513d601f19601f8201168201806040525081019061234b91906148ec565b6000546040516310889dc360e01b81529192506123f2918d9188918e918e9173__$c65f3a446ccd8d7ab73874f642eb6191e5$__916310889dc39161239c916001600160a01b03169060040161518a565b60206040518083038186803b1580156123b457600080fd5b505af41580156123c8573d6000803e3d6000fd5b505050506040513d601f19601f820116820180604052508101906123ec9190614b5e565b866135a4565b60008d9050600060405180606001604052808f81526020018e8152602001888152509050600060405180608001604052806009548152602001868152602001888152602001878152509050600a6000856001600160a01b03166001600160a01b031681526020019081526020016000206001600a6000876001600160a01b03166001600160a01b0316815260200190815260200160002080549050612497919061591f565b815481106124b557634e487b7160e01b600052603260045260246000fd5b9060005260206000209060070201600401546124ce3390565b6001600160a01b03167f6b5c22e69db87534a562352580358411dc7b2d98d24684765342f2ebf2dd8c318f8f88600a60008b6001600160a01b03166001600160a01b031681526020019081526020016000206001600a60008d6001600160a01b03166001600160a01b0316815260200190815260200160002080549050612555919061591f565b8154811061257357634e487b7160e01b600052603260045260246000fd5b9060005260206000209060070201600601548f8a8a8a60405161259d989796959493929190615419565b60405180910390a35050505050505098975050505050505050565b6001607255565b6002546000906001600160a01b031684846125db60018261591f565b8181106125f857634e487b7160e01b600052603260045260246000fd5b905060200201602081019061260d91906148d0565b6001600160a01b0316146126335760405162461bcd60e51b81526004016107f49061568d565b600286146126835760405162461bcd60e51b815260206004820152601e60248201527f4275726e526f757465724c6f6769633a2077726f6e6720616d6f756e7473000060448201526064016107f4565b34156127d057868660008181106126aa57634e487b7160e01b600052603260045260246000fd5b9050602002013534146126ff5760405162461bcd60e51b815260206004820152601f60248201527f4275726e526f757465724c6f6769633a20696e76616c696420616d6f756e740060448201526064016107f4565b8383600081811061272057634e487b7160e01b600052603260045260246000fd5b905060200201602081019061273591906148d0565b60a6546001600160a01b039081169116146127625760405162461bcd60e51b81526004016107f49061568d565b60a660009054906101000a90046001600160a01b03166001600160a01b031663d0e30db0346040518263ffffffff1660e01b81526004016000604051808303818588803b1580156127b257600080fd5b505af11580156127c6573d6000803e3d6000fd5b50505050506128b0565b838360008181106127f157634e487b7160e01b600052603260045260246000fd5b905060200201602081019061280691906148d0565b6001600160a01b03166323b872dd33308a8a600081811061283757634e487b7160e01b600052603260045260246000fd5b905060200201356040518463ffffffff1660e01b815260040161285c939291906151b8565b602060405180830381600087803b15801561287657600080fd5b505af115801561288a573d6000803e3d6000fd5b505050506040513d601f19601f820116820180604052508101906128ae9190614a81565b505b838360008181106128d157634e487b7160e01b600052603260045260246000fd5b90506020020160208101906128e691906148d0565b6001600160a01b031663095ea7b3898989600081811061291657634e487b7160e01b600052603260045260246000fd5b905060200201356040518363ffffffff1660e01b815260040161293a929190615367565b602060405180830381600087803b15801561295457600080fd5b505af1158015612968573d6000803e3d6000fd5b505050506040513d601f19601f8201168201806040525081019061298c9190614a81565b50600080896001600160a01b031663b0bbcd888a8a60008181106129c057634e487b7160e01b600052603260045260246000fd5b905060200201358b8b60018181106129e857634e487b7160e01b600052603260045260246000fd5b905060200201358989308a8e6040518863ffffffff1660e01b8152600401612a16979695949392919061574b565b600060405180830381600087803b158015612a3057600080fd5b505af1158015612a44573d6000803e3d6000fd5b505050506040513d6000823e601f3d908101601f19168201604052612a6c9190810190614a9d565b9150915081612abd5760405162461bcd60e51b815260206004820181905260248201527f4275726e526f757465724c6f6769633a2065786368616e6765206661696c656460448201526064016107f4565b8060018251612acc919061591f565b81518110612aea57634e487b7160e01b600052603260045260246000fd5b602002602001015192505050979650505050505050565b600080611e11898b8a8a8a8a8a8a6120e8565b600d54610100900460ff16612b3b5760405162461bcd60e51b81526004016107f490615642565b610c98613650565b600d54610100900460ff16612b6a5760405162461bcd60e51b81526004016107f490615642565b610c98613680565b600080612b87612b8286836136a7565b6136cb565b905062ffffff198082161415612bdc5760405162461bcd60e51b815260206004820152601a602482015279109a5d18dbda5b92195b1c195c8e881d9a5b881a5cc81b9d5b1b60321b60448201526064016107f4565b6000600287878787604051602001612bf7949392919061511b565b60408051601f1981840301815290829052612c119161516e565b602060405180830381855afa158015612c2e573d6000803e3d6000fd5b5050506040513d601f19601f82011682018060405250810190612c519190614b5e565b90506000600282604051602001612c6a91815260200190565b60408051601f1981840301815290829052612c849161516e565b602060405180830381855afa158015612ca1573d6000803e3d6000fd5b5050506040513d601f19601f82011682018060405250810190612cc49190614b5e565b93505050505b949350505050565b60015460085460405163846852f960e01b81526000928392839273__$c65f3a446ccd8d7ab73874f642eb6191e5$__9263846852f992612d28926001600160a01b03909216918c918c91612710906004016152db565b60606040518083038186803b158015612d4057600080fd5b505af4158015612d54573d6000803e3d6000fd5b505050506040513d601f19601f82011682018060405250810190612d789190614a4b565b60015492955090935091506001600160a01b031663b734de2684843360405160e085901b6001600160e01b03191681526001600160a01b0393841660048201526024810192909252909116604482015260648101849052608401602060405180830381600087803b158015612dec57600080fd5b505af1158015612e00573d6000803e3d6000fd5b505050506040513d601f19601f82011682018060405250810190612e249190614a81565b506000612e318383615874565b90507f7ff138134e34ccab071315c38e38eec079f54726b890304ab46e2c5ab6f722bb8488878985604051612e6a959493929190615326565b60405180910390a15050505050505050565b60405163fadc646560e01b815260009073__$c65f3a446ccd8d7ab73874f642eb6191e5$__9063fadc646590612ec190600a908a908a908a908a908a90600401615533565b60206040518083038186803b158015612ed957600080fd5b505af4158015612eed573d6000803e3d6000fd5b505050506040513d601f19601f82011682018060405250810190612f119190614b5e565b905060005b835181101561306c576000848281518110612f4157634e487b7160e01b600052603260045260246000fd5b60200260200101519050600a6000886001600160a01b03166001600160a01b031681526020019081526020016000208181548110612f8f57634e487b7160e01b600052603260045260246000fd5b600091825260209091206005600790920201015460ff1615613059576001600160a01b0387166000818152600a6020526040902080547f7b8cb33b1d4dc1e5d05c58e9945c383eb161ac22029c5b963989d08c3d0ef4da91908490811061300657634e487b7160e01b600052603260045260246000fd5b9060005260206000209060070201600601548b87868151811061303957634e487b7160e01b600052603260045260246000fd5b6020026020010151604051613050939291906156c4565b60405180910390a25b5080613064816159ba565b915050612f16565b509695505050505050565b604080546001600160a01b038381166001600160a01b031983168117845592519116919082907f8be0079c531659141344cd1fd0a4f28419497f9722a3daafe3b4186f6b6457e090600090a35050565b600080600080612710600754886130de91906158d7565b6130e891906158b7565b600086815260a460205260409020549093506127109061310890896158d7565b61311291906158b7565b915061271060a7548861312591906158d7565b61312f91906158b7565b6009549091508183613141868b61591f565b61314b919061591f565b613155919061591f565b61315f919061591f565b93506103e88410156131b15760405162461bcd60e51b815260206004820152601b60248201527a109d5c9b949bdd5d195c931bd9da58ce881b1bddc8185b5bdd5b9d602a1b60448201526064016107f4565b82156132975760025460035460405163a9059cbb60e01b81526001600160a01b039283169263a9059cbb926131ed929116908790600401615367565b602060405180830381600087803b15801561320757600080fd5b505af115801561321b573d6000803e3d6000fd5b505050506040513d601f19601f8201168201806040525081019061323f9190614a81565b6132975760405162461bcd60e51b8152602060048201526024808201527f4275726e526f757465724c6f6769633a20666565207472616e736665722066616044820152631a5b195960e21b60648201526084016107f4565b811561339757600254600086815260a560205260409081902054905163a9059cbb60e01b81526001600160a01b039283169263a9059cbb926132e0929116908690600401615367565b602060405180830381600087803b1580156132fa57600080fd5b505af115801561330e573d6000803e3d6000fd5b505050506040513d601f19601f820116820180604052508101906133329190614a81565b6133975760405162461bcd60e51b815260206004820152603060248201527f4275726e526f757465724c6f6769633a2074686972642070617274792066656560448201526f081d1c985b9cd9995c8819985a5b195960821b60648201526084016107f4565b6009541561350c5760015460405163626885b560e11b81526000916001600160a01b03169063c4d10b6a906133d0908a906004016153b8565b60206040518083038186803b1580156133e857600080fd5b505afa1580156133fc573d6000803e3d6000fd5b505050506040513d601f19601f8201168201806040525081019061342091906148ec565b60025460095460405163a9059cbb60e01b81529293506001600160a01b039091169163a9059cbb9161345791859190600401615367565b602060405180830381600087803b15801561347157600080fd5b505af1158015613485573d6000803e3d6000fd5b505050506040513d601f19601f820116820180604052508101906134a99190614a81565b61350a5760405162461bcd60e51b815260206004820152602c60248201527f4275726e526f757465724c6f6769633a206e6574776f726b206665652074726160448201526b1b9cd9995c8819985a5b195960a21b60648201526084016107f4565b505b801561359b5760015460405163626885b560e11b815261359b916001600160a01b03169063c4d10b6a90613544908a906004016153b8565b60206040518083038186803b15801561355c57600080fd5b505afa158015613570573d6000803e3d6000fd5b505050506040513d601f19601f8201168201806040525081019061359491906148ec565b8287613818565b93509350935093565b73__$c65f3a446ccd8d7ab73874f642eb6191e5$__63aa25f840600a600b8989898989896006546135d23390565b6040518b63ffffffff1660e01b81526004016135f79a999897969594939291906154c2565b60206040518083038186803b15801561360f57600080fd5b505af4158015613623573d6000803e3d6000fd5b505050506040513d601f19601f820116820180604052508101906136479190614b5e565b50505050505050565b600d54610100900460ff166136775760405162461bcd60e51b81526004016107f490615642565b610c9833613077565b600d54610100900460ff166125b85760405162461bcd60e51b81526004016107f490615642565b8151600090602084016136c264ffffffffff851682846139a0565b95945050505050565b600081816136e1815b62ffffff198416906139e7565b506136f162ffffff198516613ac1565b6001600160601b031661370d57613706613ad0565b9250613811565b600061371a856000613ad8565b9050600061372d62ffffff198716613ac1565b6001600160601b031690506001600160401b0382166137575761374e613ad0565b94505050613811565b600061376283613c21565b60ff16905060005b836001600160401b03168110156137de578282106137955761378a613ad0565b965050505050613811565b60006137b36137a4848661591f565b62ffffff198b16906005613c7f565b90506137be81613ca9565b6137c89084615874565b92505080806137d6906159ba565b91505061376a565b508181146137f8576137ee613ad0565b9550505050613811565b6301000000600160d81b038716600360d91b1795505050505b5050919050565b81156112bb5760a8546001600160a01b0316158061383557508015155b156138c45760025460405163a9059cbb60e01b81526001600160a01b039091169063a9059cbb9061386c9086908690600401615367565b602060405180830381600087803b15801561388657600080fd5b505af115801561389a573d6000803e3d6000fd5b505050506040513d601f19601f820116820180604052508101906138be9190614a81565b50505050565b60025460a85460405163095ea7b360e01b81526001600160a01b039283169263095ea7b3926138fa929116908690600401615367565b602060405180830381600087803b15801561391457600080fd5b505af1158015613928573d6000803e3d6000fd5b505050506040513d601f19601f8201168201806040525081019061394c9190614a81565b5060a8546040516138be916001600160a01b0316906139719086908690602401615367565b60408051601f198184030181529190526020810180516001600160e01b0316637db4e28f60e01b179052613cfd565b6000806139ad8385615874565b90506040518111156139bd575060005b806139cf5762ffffff199150506139e0565b5050606083811b8317901b811760181b5b9392505050565b60006139f38383613d3f565b613aba576000613a12613a068560d81c90565b64ffffffffff16613d62565b9150506000613a278464ffffffffff16613d62565b6040517f5479706520617373657274696f6e206661696c65642e20476f7420307800000060208201526001600160b01b031960b086811b8216603d8401526c05c408af0e0cac6e8cac84060f609b1b604784015283901b16605482015290925060009150605e015b60405160208183030381529060405290508060405162461bcd60e51b81526004016107f491906153b8565b5090919050565b60181c6001600160601b031690565b62ffffff1990565b600080613aed62ffffff198516846001613e0e565b905060fc8111613b0857613b0081613e3e565b9150506115a8565b8060fd1415613b6e57613b36613b31613b22856001615874565b62ffffff198716906002613eaa565b613e3e565b9150613b4182613c21565b60ff16600314613b6957613b67613b6262ffffff1986168560036000613fed565b614053565b505b613c1a565b8060fe1415613bc357613b97613b31613b88856001615874565b62ffffff198716906004613eaa565b9150613ba282613c21565b60ff16600514613b6957613b67613b6262ffffff1986168560056000613fed565b8060ff1415613c1a57613bec613b31613bdd856001615874565b62ffffff198716906008613eaa565b9150613bf782613c21565b60ff16600914613c1a57613c18613b6262ffffff1986168560096000613fed565b505b5092915050565b600060fc826001600160401b031611613c3c57506001919050565b61ffff826001600160401b031611613c5657506003919050565b63ffffffff826001600160401b031611613c7257506005919050565b506009919050565b919050565b6000612cca8484613c8f87613ac1565b6001600160601b0316613ca2919061591f565b8585613fed565b6000816005613cb7816136d4565b506000613cc5856024613ad8565b9050806001600160401b0316613cda82613c21565b60ff16613ce79190615874565b613cf2906024615874565b6136c2906004615874565b60606139e083836040518060400160405280601e81526020017f416464726573733a206c6f772d6c6576656c2063616c6c206661696c656400008152506140db565b60008164ffffffffff16613d538460d81c90565b64ffffffffff16149392505050565b600080601f5b600f8160ff161115613dc0576000613d818260086158f6565b60ff1685901c9050613d92816140ea565b61ffff16841793508160ff16601014613dad57601084901b93505b50613db9600182615936565b9050613d68565b50600f5b60ff8160ff161015613e085760ff600882021684901c613de3816140ea565b61ffff16831792508160ff16600014613dfe57601083901b92505b5060001901613dc4565b50915091565b6000613e1b826020615936565b613e269060086158f6565b60ff16613e3485858561411c565b901c949350505050565b60006001600160401b03821115613ea65760405162461bcd60e51b815260206004820152602660248201527f53616665436173743a2076616c756520646f65736e27742066697420696e203660448201526534206269747360d01b60648201526084016107f4565b5090565b6000612cca613eba85858561411c565b60008190506008817eff00ff00ff00ff00ff00ff00ff00ff00ff00ff00ff00ff00ff00ff00ff00ff16901b600882901c7eff00ff00ff00ff00ff00ff00ff00ff00ff00ff00ff00ff00ff00ff00ff00ff161790506010817dffff0000ffff0000ffff0000ffff0000ffff0000ffff0000ffff0000ffff16901b601082901c7dffff0000ffff0000ffff0000ffff0000ffff0000ffff0000ffff0000ffff161790506020817bffffffff00000000ffffffff00000000ffffffff00000000ffffffff16901b602082901c7bffffffff00000000ffffffff00000000ffffffff00000000ffffffff161790506040816001600160401b03600160801b03600160c01b0316901b604082901c6001600160401b03600160801b03600160c01b0316179050608081901b608082901c179050919050565b600080613ff98661424a565b6001600160601b0316905061400d86614259565b846140188784615874565b6140229190615874565b11156140355762ffffff19915050612cca565b61403f8582615874565b90506109818364ffffffffff1682866139a0565b6060600061409161408c8261407e61407062ffffff198816613ac1565b6001600160601b0316614286565b62ffffff1987169190613e0e565b613d62565b6040517a09cdedc5adad2dcd2dac2d840ecc2e440d2dce85c408edee84060f602b1b60208201526001600160701b0319607083901b16603b82015290925060009150604d01613a8f565b6060612cca84846000856142e7565b60006140fc60048360ff16901c61440f565b60ff1661ffff919091161760081b6141138261440f565b60ff1617919050565b600060ff821661412e575060006139e0565b61413784613ac1565b6001600160601b031661414d60ff841685615874565b111561419d5761418461415f8561424a565b6001600160601b031661417186613ac1565b6001600160601b0316858560ff1661456b565b60405162461bcd60e51b81526004016107f491906153b8565b60208260ff1611156142145760405162461bcd60e51b815260206004820152603a60248201527f54797065644d656d566965772f696e646578202d20417474656d7074656420746044820152796f20696e646578206d6f7265207468616e20333220627974657360301b60648201526084016107f4565b6008820260006142238661424a565b6001600160601b031690506000600160ff1b60001984011d91909501511695945050505050565b60781c6001600160601b031690565b600061426482613ac1565b61426d8361424a565b614277919061588c565b6001600160601b031692915050565b600060ff821115613ea65760405162461bcd60e51b815260206004820152602560248201527f53616665436173743a2076616c756520646f65736e27742066697420696e2038604482015264206269747360d81b60648201526084016107f4565b6060824710156143485760405162461bcd60e51b815260206004820152602660248201527f416464726573733a20696e73756666696369656e742062616c616e636520666f6044820152651c8818d85b1b60d21b60648201526084016107f4565b843b6143965760405162461bcd60e51b815260206004820152601d60248201527f416464726573733a2063616c6c20746f206e6f6e2d636f6e747261637400000060448201526064016107f4565b600080866001600160a01b031685876040516143b2919061516e565b60006040518083038185875af1925050503d80600081146143ef576040519150601f19603f3d011682016040523d82523d6000602084013e6143f4565b606091505b5091509150614404828286614695565b979650505050505050565b600060f08083179060ff8216141561442a5750603092915050565b8060ff1660f1141561443f5750603192915050565b8060ff1660f214156144545750603292915050565b8060ff1660f314156144695750603392915050565b8060ff1660f4141561447e5750603492915050565b8060ff1660f514156144935750603592915050565b8060ff1660f614156144a85750603692915050565b8060ff1660f714156144bd5750603792915050565b8060ff1660f814156144d25750603892915050565b8060ff1660f914156144e75750603992915050565b8060ff1660fa14156144fc5750606192915050565b8060ff1660fb14156145115750606292915050565b8060ff1660fc14156145265750606392915050565b8060ff1660fd141561453b5750606492915050565b8060ff1660fe14156145505750606592915050565b8060ff1660ff14156145655750606692915050565b50919050565b6060600061457886613d62565b915050600061458686613d62565b915050600061459486613d62565b91505060006145a286613d62565b604080517f54797065644d656d566965772f696e646578202d204f76657272616e20746865602082015274040ecd2caee5c40a6d8d2c6ca40d2e640c2e84060f605b1b818301526001600160d01b031960d098891b811660558301526e040eed2e8d040d8cadccee8d04060f608b1b605b830181905297891b8116606a8301527f2e20417474656d7074656420746f20696e646578206174206f666673657420306070830152600f60fb1b609083015295881b861660918201526097810196909652951b90921660a68401525050601760f91b60ac8201528151808203608d01815260ad90910190915295945050505050565b606083156146a45750816139e0565b8251156146b45782518084602001fd5b8160405162461bcd60e51b81526004016107f491906153b8565b8035613c7a81615a01565b60008083601f8401126146ea578182fd5b5081356001600160401b03811115614700578182fd5b6020830191508360208260051b850101111561471b57600080fd5b9250929050565b600082601f830112614732578081fd5b8135602061474761474283615851565b615821565b80838252828201915082860187848660051b8901011115614766578586fd5b855b8581101561478b5761477982614800565b84529284019290840190600101614768565b5090979650505050505050565b600082601f8301126147a8578081fd5b813560206147b861474283615851565b80838252828201915082860187848660051b89010111156147d7578586fd5b855b8581101561478b578135845292840192908401906001016147d9565b8035613c7a81615a16565b80356001600160e01b031981168114613c7a57600080fd5b60008083601f840112614829578182fd5b5081356001600160401b0381111561483f578182fd5b60208301915083602082850101111561471b57600080fd5b600082601f830112614867578081fd5b81356001600160401b03811115614880576148806159eb565b614893601f8201601f1916602001615821565b8181528460208386010111156148a7578283fd5b816020850160208301379081016020019190915292915050565b803560068110613c7a57600080fd5b6000602082840312156148e1578081fd5b81356139e081615a01565b6000602082840312156148fd578081fd5b81516139e081615a01565b6000806000806000806000806000806000806101208d8f03121561492a578788fd5b6149338d6146ce565b9b506001600160401b0360208e0135111561494c578788fd5b61495c8e60208f01358f016146d9565b909b50995061496d60408e016147f5565b98506001600160401b0360608e01351115614986578788fd5b6149968e60608f01358f016146d9565b909850965060808d013595506001600160401b0360a08e013511156149b9578485fd5b6149c98e60a08f01358f01614857565b94506149d760c08e016148c1565b93506001600160401b0360e08e013511156149f0578283fd5b614a008e60e08f01358f01614818565b81945080935050506101008d013590509295989b509295989b509295989b565b60008060408385031215614a32578182fd5b8235614a3d81615a01565b946020939093013593505050565b600080600060608486031215614a5f578081fd5b8351614a6a81615a01565b602085015160409095015190969495509392505050565b600060208284031215614a92578081fd5b81516139e081615a16565b60008060408385031215614aaf578182fd5b8251614aba81615a16565b602084810151919350906001600160401b03811115614ad7578283fd5b8401601f81018613614ae7578283fd5b8051614af561474282615851565b80828252848201915084840189868560051b8701011115614b14578687fd5b8694505b83851015614b36578051835260019490940193918501918501614b18565b5080955050505050509250929050565b600060208284031215614b57578081fd5b5035919050565b600060208284031215614b6f578081fd5b5051919050565b6000806000806000806000806000806101408b8d031215614b95578384fd5b614b9e8b614800565b995060208b01356001600160401b0380821115614bb9578586fd5b614bc58e838f01614857565b9a5060408d0135915080821115614bda578586fd5b614be68e838f01614857565b9950614bf460608e01614800565b985060808d0135975060a08d0135915080821115614c10578586fd5b614c1c8e838f01614857565b965060c08d0135955060e08d0135915080821115614c38578485fd5b614c448e838f01614857565b94506101008d0135915080821115614c5a578384fd5b614c668e838f01614798565b93506101208d0135915080821115614c7c578283fd5b50614c898d828e01614798565b9150509295989b9194979a5092959850565b600080600060408486031215614caf578081fd5b83356001600160401b0380821115614cc5578283fd5b614cd187838801614818565b90955093506020860135915080821115614ce9578283fd5b50614cf686828701614798565b9150509250925092565b60008060008060008060008060006101208a8c031215614d1e578283fd5b89356001600160401b0380821115614d34578485fd5b614d408d838e01614857565b9a5060208c0135915080821115614d55578485fd5b614d618d838e01614722565b995060408c0135915080821115614d76578485fd5b614d828d838e01614857565b985060608c0135915080821115614d97578485fd5b614da38d838e01614857565b975060808c0135915080821115614db8578485fd5b614dc48d838e01614857565b965060a08c0135915080821115614dd9578485fd5b614de58d838e01614857565b955060c08c0135915080821115614dfa578485fd5b614e068d838e01614722565b945060e08c0135915080821115614e1b578384fd5b614e278d838e01614857565b93506101008c0135915080821115614e3d578283fd5b50614e4a8c828d01614798565b9150509295985092959850929598565b60008060408385031215614e6c578182fd5b823591506020830135614e7e81615a01565b809150509250929050565b60008060008060008060008060008060006101608c8e031215614eaa578485fd5b8b359a5060208c0135614ebc81615a01565b995060408c0135614ecc81615a01565b985060608c0135614edc81615a01565b975060808c0135614eec81615a01565b965060a08c0135955060c08c0135945060e08c013593506101008c013592506101208c013591506101408c0135614f2281615a01565b809150509295989b509295989b9093969950565b60008060008060008060a08789031215614f4e578384fd5b8635955060208701356001600160401b0380821115614f6b578586fd5b614f778a838b01614857565b9650614f8560408a016148c1565b95506060890135915080821115614f9a578384fd5b50614fa789828a01614818565b979a9699509497949695608090950135949350505050565b60008060408385031215614fd1578182fd5b50508035926020909101359150565b6001600160a01b03169052565b6000815180845260208085019450808401835b838110156150265781516001600160e01b03191687529582019590820190600101615000565b509495945050505050565b6000826060810183835b600381101561506a5783830387526150548383516150cd565b602097880197909350919091019060010161503b565b509095945050505050565b6000815180845260208085019450808401835b8381101561502657815187529582019590820190600101615088565b81835281816020850137506000828201602090810191909152601f909101601f19169091010190565b600081518084526150e5816020860160208601615959565b601f01601f19169290920160200192915050565b6006811061511757634e487b7160e01b600052602160045260246000fd5b9052565b600063ffffffff60e01b8087168352855161513d816004860160208a01615959565b855190840190615154816004840160208a01615959565b919094169301600481019390935250506008019392505050565b60008251615180818460208701615959565b9190910192915050565b6001600160a01b0391909116815260200190565b6001600160a01b0392831681529116602082015260400190565b6001600160a01b039384168152919092166020820152604081019190915260600190565b60018060a01b038616815284602082015283604082015260a06060820152600061520960a08301856150cd565b90508260808301529695505050505050565b615225818e614fe0565b6101806020820152600061523d61018083018e6150cd565b828103604084015261524f818e614fed565b90508281036060840152615263818d615031565b90508a60808401528960a084015261527e60c084018a614fe0565b8760e08401528661010084015282810361012084015261529e8187614fed565b90508281036101408401526152b381866150cd565b90508281036101608401526152c88185615075565b9f9e505050505050505050505050505050565b6001600160a01b038616815260a0602082018190526000906152ff908301876150cd565b828103604084015261531181876150cd565b60608401959095525050608001529392505050565b6001600160a01b038616815260a06020820181905260009061534a908301876150cd565b604083019590955250606081019290925260809091015292915050565b6001600160a01b03929092168252602082015260400190565b602081526000612cca6020830184866150a4565b6040815260006153a86040830185876150a4565b9050826020830152949350505050565b6020815260006139e060208301846150cd565b6080815260006153de60808301886150cd565b6153eb60208401886150f9565b6001600160a01b0386166040840152828103606084015261540d8185876150a4565b98975050505050505050565b60006101a080835261542d8184018c6150cd565b915050602061543e8184018b6150f9565b6001600160a01b0389811660408501526060840189905260808401889052861660a084015260c083018560005b60038110156154885781518352918301919083019060010161546b565b50505061012083018460005b60048110156154b157815183529183019190830190600101615494565b505050509998505050505050505050565b60006101408c83528b60208401528a60408401528960608401528060808401526154ee8184018a6150cd565b9150506154fe60a08301886150f9565b60c08201959095526001600160a01b0393841660e0820152610100810192909252909116610120909101529695505050505050565b86815285602082015260018060a01b038516604082015260c06060820152600061556060c08301866150cd565b82810360808401526155728186615075565b905082810360a08401526155868185615075565b9998505050505050505050565b85815284602082015260a0604082015260006155b260a08301866150cd565b82810360608401526155c481866150cd565b9150508260808301529695505050505050565b6020808252601c908201527b4275726e526f757465724c6f6769633a20696e76616c69642066656560201b604082015260600190565b6020808252601b908201527a213ab9372937baba32b92637b3b4b19d103737ba103637b1b5b2b960291b604082015260600190565b6020808252602b908201527f496e697469616c697a61626c653a20636f6e7472616374206973206e6f74206960408201526a6e697469616c697a696e6760a81b606082015260800190565b6020808252601d908201527f4275726e526f757465724c6f6769633a20696e76616c69642070617468000000604082015260600190565b9283526020830191909152604082015260600190565b918252602082015260400190565b888152602081018890526001600160a01b03871660408201526101006060820181905260009061571a838201896150cd565b91505085608083015284151560a083015261573860c08301856150f9565b8260e08301529998505050505050505050565b878152602080820188905260c0604083018190528201869052600090879060e08401835b8981101561579d57833561578281615a01565b6001600160a01b03168252928201929082019060010161576f565b506001600160a01b039790971660608501525050506080810192909252151560a090910152949350505050565b878152602081018790526001600160e01b0319861660408201526001600160a01b038516606082015260e06080820181905260009061580b908301866150cd565b60a08301949094525060c0015295945050505050565b604051601f8201601f191681016001600160401b0381118282101715615849576158496159eb565b604052919050565b60006001600160401b0382111561586a5761586a6159eb565b5060051b60200190565b60008219821115615887576158876159d5565b500190565b60006001600160601b038281168482168083038211156158ae576158ae6159d5565b01949350505050565b6000826158d257634e487b7160e01b81526012600452602481fd5b500490565b60008160001904831182151516156158f1576158f16159d5565b500290565b600060ff821660ff84168160ff0481118215151615615917576159176159d5565b029392505050565b600082821015615931576159316159d5565b500390565b600060ff821660ff841680821015615950576159506159d5565b90039392505050565b60005b8381101561597457818101518382015260200161595c565b838111156138be5750506000910152565b600181811c9082168061599957607f821691505b6020821081141561456557634e487b7160e01b600052602260045260246000fd5b60006000198214156159ce576159ce6159d5565b5060010190565b634e487b7160e01b600052601160045260246000fd5b634e487b7160e01b600052604160045260246000fd5b6001600160a01b0381168114611f2f57600080fd5b8015158114611f2f57600080fdfea26469706673582212200fb15ebf27c93367445881f7b9f9f50b7184684ececd4f753c408e6f5763de6064736f6c63430008040033",
  "libraries": {
    "BurnRouterLib": "0x4C415DD3e0Afc5D6Bd1Ca5C2a9C0f8D4bcE1de07"
  },
  "devdoc": {
    "kind": "dev",
    "methods": {
      "burnProof(bytes4,bytes,bytes,bytes4,uint256,bytes,uint256,bytes,uint256[],uint256[])": {
        "details": "Makes isTransferred flag true for the paid requests",
        "params": {
          "_blockNumber": "Height of the block containing the Bitcoin tx",
          "_burnReqIndexes": "Indexes of requests that locker wants to provide proof for them",
          "_index": "Index of the Bitcoin tx the block",
          "_intermediateNodes": "Merkle inclusion proof for the Bitcoin tx",
          "_lockerLockingScript": "Locker's locking script that this burn request belongs to",
          "_locktime": "Lock time of the Bitcoin tx",
          "_version": "Version of the Bitcoin tx",
          "_vin": "Inputs of the Bitcoin tx",
          "_vout": "Outputs of the Bitcoin tx",
          "_voutIndexes": "Indexes of outputs that were used to pay burn requests.                     _voutIndexes[i] belongs to _burnReqIndexes[i]"
        }
      },
      "disputeBurn(bytes,uint256[])": {
        "params": {
          "_indices": "Indices of requests that their deadline has passed",
          "_lockerLockingScript": "Locker's locking script that the unpaid request belongs to"
        }
      },
      "disputeLocker(bytes,bytes4[],bytes,bytes,bytes,bytes,bytes4[],bytes,uint256[])": {
        "details": "Input tx is a malicious tx which shows that locker spent BTC      Output tx is the tx that was spent by locker in input tx      Output tx shows money goes to locker      Input tx shows locker steals the funds",
        "params": {
          "_indexesAndBlockNumbers": "Indices of malicious input in input tx,                                input tx in block and block number of input tx",
          "_inputIntermediateNodes": "Merkle inclusion proof for the malicious transaction",
          "_inputVin": "Inputs of the malicious transaction",
          "_inputVout": "Outputs of the malicious transaction",
          "_lockerLockingScript": "Suspicious locker's locking script",
          "_locktimes": "Locktimes of input and output tx",
          "_outputVin": "Inputs of the spent transaction",
          "_outputVout": "Outputs of the spent transaction",
          "_versions": "Versions of input and output tx"
        }
      },
      "initialize(uint256,address,address,address,address,uint256,uint256,uint256,uint256,uint256,address)": {
        "params": {
          "_lockers": "Address of lockers contract",
          "_networkFee": "Fee of submitting a transaction on Network",
          "_protocolPercentageFee": "Percentage of tokens that user pays to protocol for burning",
          "_relay": "Address of relay contract",
          "_slasherPercentageReward": "Percentage of tokens that slasher receives after slashing a locker",
          "_startingBlockNumber": "Requests that are included in a block older                             than _startingBlockNumber cannot be executed",
          "_teleBTC": "Address of teleBTC contract",
          "_transferDeadline": "of sending BTC to user (aster submitting a burn request)",
          "_treasury": "Address of the treasury of the protocol"
        }
      },
      "isTransferred(address,uint256)": {
        "params": {
          "_index": "the request for the locker",
          "_lockerTargetAddress": "Locker address on the target chain"
        }
      },
      "owner()": {
        "details": "Returns the address of the current owner."
      },
      "renounceOwnership()": {
        "details": "Leaves the contract without owner. It will not be possible to call `onlyOwner` functions. Can only be called by the current owner. NOTE: Renouncing ownership will leave the contract without an owner, thereby disabling any functionality that is only available to the owner."
      },
      "setLockers(address)": {
        "details": "Only owner can call this",
        "params": {
          "_lockers": "The new lockers contract address"
        }
      },
      "setNetworkFee(uint256)": {
        "details": "Only owner can call this",
        "params": {
          "_networkFee": "The new Bitcoin transaction fee"
        }
      },
      "setNetworkFeeOracle(address)": {
        "details": "Only owner can call this",
        "params": {
          "_networkFeeOracle": "Address of oracle who can update burn fee"
        }
      },
      "setProtocolPercentageFee(uint256)": {
        "details": "Only owner can call this",
        "params": {
          "_protocolPercentageFee": "The new protocol percentage fee"
        }
      },
      "setRelay(address)": {
        "details": "Only owner can call this",
        "params": {
          "_relay": "The new relay contract address"
        }
      },
      "setRewardDistributor(address)": {
        "details": "This contract distributes locker fee between locker and stakers"
      },
      "setSlasherPercentageReward(uint256)": {
        "details": "Only owner can call this",
        "params": {
          "_slasherPercentageReward": "The new slasher percentage reward"
        }
      },
      "setTeleBTC(address)": {
        "details": "Only owner can call this",
        "params": {
          "_teleBTC": "The new teleBTC contract address"
        }
      },
      "setThirdPartyAddress(uint256,address)": {
        "details": "Only owner can call this",
        "params": {
          "_thirdPartyAddress": "third party address"
        }
      },
      "setThirdPartyFee(uint256,uint256)": {
        "details": "Only owner can call this",
        "params": {
          "_thirdPartyFee": "third party fee"
        }
      },
      "setTransferDeadline(uint256)": {
        "details": "Only owner can call this      Deadline should be greater than relay finalization parameter",
        "params": {
          "_transferDeadline": "The new transfer deadline"
        }
      },
      "setTreasury(address)": {
        "details": "Only owner can call this",
        "params": {
          "_treasury": "The new treasury address"
        }
      },
      "swapAndUnwrap(address,uint256[],bool,address[],uint256,bytes,uint8,bytes,uint256)": {
        "details": "After exchanging, rest of the process is similar to ccBurn",
        "params": {
          "_amounts": "[inputTokenAmount, teleBTCAmount]",
          "_deadline": "of exchanging",
          "_exchangeConnector": "Address of exchange connectBurnRouterLogicor to be used",
          "_isFixedToken": "True if input token amount is fixed",
          "_path": "of exchanging inputToken to teleBTC",
          "thirdParty": "Third party id"
        },
        "returns": {
          "_0": "Amount of BTC that user receives"
        }
      },
      "transferOwnership(address)": {
        "details": "Transfers ownership of the contract to a new account (`newOwner`). Can only be called by the current owner."
      },
      "unwrap(uint256,bytes,uint8,bytes,uint256)": {
        "details": "After submitting the burn request, Locker has a limited time      to send BTC and provide burn proof",
        "params": {
          "_amount": "of teleBTC that user wants to burn",
          "_lockerLockingScript": "of locker that should execute the burn request",
          "_scriptType": "User script type",
          "_userScript": "User script hash",
          "thirdParty": "Third party id"
        },
        "returns": {
          "burntAmount": "Amount of BTC that user receives"
        }
      }
    },
    "version": 1
  },
  "userdoc": {
    "events": {
      "LockerDispute(address,bytes,uint256,bytes32,uint256)": {
        "notice": "Emits when a locker gets slashed for withdrawing BTC without proper reason"
      },
      "NewLockers(address,address)": {
        "notice": "Emits when lockers address is updated"
      },
      "NewNetworkFee(uint256,uint256)": {
        "notice": "Emits when network fee is updated"
      },
      "NewNetworkFeeOracle(address,address)": {
        "notice": "Emits when network fee oracle is updated"
      },
      "NewProtocolPercentageFee(uint256,uint256)": {
        "notice": "Emits when percentage fee is updated"
      },
      "NewRelay(address,address)": {
        "notice": "Emits when relay address is updated"
      },
      "NewSlasherPercentageFee(uint256,uint256)": {
        "notice": "Emits when slasher percentage fee is updated"
      },
      "NewTeleBTC(address,address)": {
        "notice": "Emits when TeleBTC address is updated"
      },
      "NewThirdPartyAddress(uint256,address,address)": {
        "notice": "Emits when changes made to third party address"
      },
      "NewThirdPartyFee(uint256,uint256,uint256)": {
        "notice": "Emits when changes made to third party fee"
      },
      "NewTransferDeadline(uint256,uint256)": {
        "notice": "Emits when transfer deadline is updated"
      },
      "NewTreasury(address,address)": {
        "notice": "Emits when treasury address is updated"
      },
      "NewUnwrap(bytes,uint8,address,address,uint256,uint256,uint256,address,uint256[3],uint256[4])": {
        "notice": "Emits when a burn request gets submitted"
      },
      "PaidUnwrap(address,uint256,bytes32,uint256)": {
        "notice": "Emits when a burn proof is provided"
      }
    },
    "kind": "user",
    "methods": {
      "burnProof(bytes4,bytes,bytes,bytes4,uint256,bytes,uint256,bytes,uint256[],uint256[])": {
        "notice": "Checks the correctness of burn proof (which is a Bitcoin tx)"
      },
      "disputeBurn(bytes,uint256[])": {
        "notice": "Slashes a locker if did not pay a cc burn request before its deadline"
      },
      "disputeLocker(bytes,bytes4[],bytes,bytes,bytes,bytes,bytes4[],bytes,uint256[])": {
        "notice": "Slashes a locker if they issue a tx that doesn't match any burn request"
      },
      "initialize(uint256,address,address,address,address,uint256,uint256,uint256,uint256,uint256,address)": {
        "notice": "Handles cross-chain burn requests"
      },
      "isTransferred(address,uint256)": {
        "notice": "Returns true is request has been processed"
      },
      "setLockers(address)": {
        "notice": "Updates lockers contract address"
      },
      "setNetworkFee(uint256)": {
        "notice": "Updates Bitcoin transaction fee"
      },
      "setNetworkFeeOracle(address)": {
        "notice": "Updates Bitcoin oracle"
      },
      "setProtocolPercentageFee(uint256)": {
        "notice": "Updates protocol percentage fee for burning tokens"
      },
      "setRelay(address)": {
        "notice": "Updates relay contract address"
      },
      "setRewardDistributor(address)": {
        "notice": "Setter for reward distributor"
      },
      "setSlasherPercentageReward(uint256)": {
        "notice": "Updates slasher percentage reward for disputing lockers"
      },
      "setStartingBlockNumber(uint256)": {
        "notice": "Setter for starting block number"
      },
      "setTeleBTC(address)": {
        "notice": "Updates teleBTC contract address"
      },
      "setThirdPartyAddress(uint256,address)": {
        "notice": "Setter for third party address"
      },
      "setThirdPartyFee(uint256,uint256)": {
        "notice": "Setter for third party fee"
      },
      "setTransferDeadline(uint256)": {
        "notice": "Updates deadline of executing burn requests"
      },
      "setTreasury(address)": {
        "notice": "Updates protocol treasury address"
      },
      "setWrappedNativeToken(address)": {
        "notice": "Change the wrapped native token address"
      },
      "swapAndUnwrap(address,uint256[],bool,address[],uint256,bytes,uint8,bytes,uint256)": {
        "notice": "Exchanges input token for teleBTC then burns it"
      },
      "unwrap(uint256,bytes,uint8,bytes,uint256)": {
        "notice": "Records users burn request"
      }
    },
    "version": 1
  },
  "storageLayout": {
    "storage": [
      {
        "astId": 9788,
        "contract": "contracts/routers/BurnRouterLogic.sol:BurnRouterLogic",
        "label": "relay",
        "offset": 0,
        "slot": "0",
        "type": "t_address"
      },
      {
        "astId": 9791,
        "contract": "contracts/routers/BurnRouterLogic.sol:BurnRouterLogic",
        "label": "lockers",
        "offset": 0,
        "slot": "1",
        "type": "t_address"
      },
      {
        "astId": 9794,
        "contract": "contracts/routers/BurnRouterLogic.sol:BurnRouterLogic",
        "label": "teleBTC",
        "offset": 0,
        "slot": "2",
        "type": "t_address"
      },
      {
        "astId": 9797,
        "contract": "contracts/routers/BurnRouterLogic.sol:BurnRouterLogic",
        "label": "treasury",
        "offset": 0,
        "slot": "3",
        "type": "t_address"
      },
      {
        "astId": 9800,
        "contract": "contracts/routers/BurnRouterLogic.sol:BurnRouterLogic",
        "label": "bitcoinFeeOracle",
        "offset": 0,
        "slot": "4",
        "type": "t_address"
      },
      {
        "astId": 9803,
        "contract": "contracts/routers/BurnRouterLogic.sol:BurnRouterLogic",
        "label": "startingBlockNumber",
        "offset": 0,
        "slot": "5",
        "type": "t_uint256"
      },
      {
        "astId": 9806,
        "contract": "contracts/routers/BurnRouterLogic.sol:BurnRouterLogic",
        "label": "transferDeadline",
        "offset": 0,
        "slot": "6",
        "type": "t_uint256"
      },
      {
        "astId": 9809,
        "contract": "contracts/routers/BurnRouterLogic.sol:BurnRouterLogic",
        "label": "protocolPercentageFee",
        "offset": 0,
        "slot": "7",
        "type": "t_uint256"
      },
      {
        "astId": 9812,
        "contract": "contracts/routers/BurnRouterLogic.sol:BurnRouterLogic",
        "label": "slasherPercentageReward",
        "offset": 0,
        "slot": "8",
        "type": "t_uint256"
      },
      {
        "astId": 9815,
        "contract": "contracts/routers/BurnRouterLogic.sol:BurnRouterLogic",
        "label": "bitcoinFee",
        "offset": 0,
        "slot": "9",
        "type": "t_uint256"
      },
      {
        "astId": 9821,
        "contract": "contracts/routers/BurnRouterLogic.sol:BurnRouterLogic",
        "label": "burnRequests",
        "offset": 0,
        "slot": "10",
        "type": "t_mapping(t_address,t_array(t_struct(burnRequest)9875_storage)dyn_storage)"
      },
      {
        "astId": 9825,
        "contract": "contracts/routers/BurnRouterLogic.sol:BurnRouterLogic",
        "label": "burnRequestCounter",
        "offset": 0,
        "slot": "11",
        "type": "t_mapping(t_address,t_uint256)"
      },
      {
        "astId": 9830,
        "contract": "contracts/routers/BurnRouterLogic.sol:BurnRouterLogic",
        "label": "isUsedAsBurnProof",
        "offset": 0,
        "slot": "12",
        "type": "t_mapping(t_bytes32,t_bool)"
      },
      {
        "astId": 139,
        "contract": "contracts/routers/BurnRouterLogic.sol:BurnRouterLogic",
        "label": "_initialized",
        "offset": 0,
        "slot": "13",
        "type": "t_uint8"
      },
      {
        "astId": 142,
        "contract": "contracts/routers/BurnRouterLogic.sol:BurnRouterLogic",
        "label": "_initializing",
        "offset": 1,
        "slot": "13",
        "type": "t_bool"
      },
      {
        "astId": 766,
        "contract": "contracts/routers/BurnRouterLogic.sol:BurnRouterLogic",
        "label": "__gap",
        "offset": 0,
        "slot": "14",
        "type": "t_array(t_uint256)50_storage"
      },
      {
        "astId": 11,
        "contract": "contracts/routers/BurnRouterLogic.sol:BurnRouterLogic",
        "label": "_owner",
        "offset": 0,
        "slot": "64",
        "type": "t_address"
      },
      {
        "astId": 131,
        "contract": "contracts/routers/BurnRouterLogic.sol:BurnRouterLogic",
        "label": "__gap",
        "offset": 0,
        "slot": "65",
        "type": "t_array(t_uint256)49_storage"
      },
      {
        "astId": 316,
        "contract": "contracts/routers/BurnRouterLogic.sol:BurnRouterLogic",
        "label": "_status",
        "offset": 0,
        "slot": "114",
        "type": "t_uint256"
      },
      {
        "astId": 385,
        "contract": "contracts/routers/BurnRouterLogic.sol:BurnRouterLogic",
        "label": "__gap",
        "offset": 0,
        "slot": "115",
        "type": "t_array(t_uint256)49_storage"
      },
      {
        "astId": 9840,
        "contract": "contracts/routers/BurnRouterLogic.sol:BurnRouterLogic",
        "label": "thirdPartyFee",
        "offset": 0,
        "slot": "164",
        "type": "t_mapping(t_uint256,t_uint256)"
      },
      {
        "astId": 9844,
        "contract": "contracts/routers/BurnRouterLogic.sol:BurnRouterLogic",
        "label": "thirdPartyAddress",
        "offset": 0,
        "slot": "165",
        "type": "t_mapping(t_uint256,t_address)"
      },
      {
        "astId": 9846,
        "contract": "contracts/routers/BurnRouterLogic.sol:BurnRouterLogic",
        "label": "wrappedNativeToken",
        "offset": 0,
        "slot": "166",
        "type": "t_address"
      },
      {
        "astId": 9851,
        "contract": "contracts/routers/BurnRouterLogic.sol:BurnRouterLogic",
        "label": "lockerPercentageFee",
        "offset": 0,
        "slot": "167",
        "type": "t_uint256"
      },
      {
        "astId": 9853,
        "contract": "contracts/routers/BurnRouterLogic.sol:BurnRouterLogic",
        "label": "rewardDistributor",
        "offset": 0,
        "slot": "168",
        "type": "t_address"
      }
    ],
    "types": {
      "t_address": {
        "encoding": "inplace",
        "label": "address",
        "numberOfBytes": "20"
      },
      "t_array(t_struct(burnRequest)9875_storage)dyn_storage": {
        "base": "t_struct(burnRequest)9875_storage",
        "encoding": "dynamic_array",
        "label": "struct IBurnRouter.burnRequest[]",
        "numberOfBytes": "32"
      },
      "t_array(t_uint256)49_storage": {
        "base": "t_uint256",
        "encoding": "inplace",
        "label": "uint256[49]",
        "numberOfBytes": "1568"
      },
      "t_array(t_uint256)50_storage": {
        "base": "t_uint256",
        "encoding": "inplace",
        "label": "uint256[50]",
        "numberOfBytes": "1600"
      },
      "t_bool": {
        "encoding": "inplace",
        "label": "bool",
        "numberOfBytes": "1"
      },
      "t_bytes32": {
        "encoding": "inplace",
        "label": "bytes32",
        "numberOfBytes": "32"
      },
      "t_bytes_storage": {
        "encoding": "bytes",
        "label": "bytes",
        "numberOfBytes": "32"
      },
      "t_enum(ScriptTypes)6501": {
        "encoding": "inplace",
        "label": "enum ScriptTypes",
        "numberOfBytes": "1"
      },
      "t_mapping(t_address,t_array(t_struct(burnRequest)9875_storage)dyn_storage)": {
        "encoding": "mapping",
        "key": "t_address",
        "label": "mapping(address => struct IBurnRouter.burnRequest[])",
        "numberOfBytes": "32",
        "value": "t_array(t_struct(burnRequest)9875_storage)dyn_storage"
      },
      "t_mapping(t_address,t_uint256)": {
        "encoding": "mapping",
        "key": "t_address",
        "label": "mapping(address => uint256)",
        "numberOfBytes": "32",
        "value": "t_uint256"
      },
      "t_mapping(t_bytes32,t_bool)": {
        "encoding": "mapping",
        "key": "t_bytes32",
        "label": "mapping(bytes32 => bool)",
        "numberOfBytes": "32",
        "value": "t_bool"
      },
      "t_mapping(t_uint256,t_address)": {
        "encoding": "mapping",
        "key": "t_uint256",
        "label": "mapping(uint256 => address)",
        "numberOfBytes": "32",
        "value": "t_address"
      },
      "t_mapping(t_uint256,t_uint256)": {
        "encoding": "mapping",
        "key": "t_uint256",
        "label": "mapping(uint256 => uint256)",
        "numberOfBytes": "32",
        "value": "t_uint256"
      },
      "t_struct(burnRequest)9875_storage": {
        "encoding": "inplace",
        "label": "struct IBurnRouter.burnRequest",
        "members": [
          {
            "astId": 9859,
            "contract": "contracts/routers/BurnRouterLogic.sol:BurnRouterLogic",
            "label": "amount",
            "offset": 0,
            "slot": "0",
            "type": "t_uint256"
          },
          {
            "astId": 9861,
            "contract": "contracts/routers/BurnRouterLogic.sol:BurnRouterLogic",
            "label": "burntAmount",
            "offset": 0,
            "slot": "1",
            "type": "t_uint256"
          },
          {
            "astId": 9863,
            "contract": "contracts/routers/BurnRouterLogic.sol:BurnRouterLogic",
            "label": "sender",
            "offset": 0,
            "slot": "2",
            "type": "t_address"
          },
          {
            "astId": 9865,
            "contract": "contracts/routers/BurnRouterLogic.sol:BurnRouterLogic",
            "label": "userScript",
            "offset": 0,
            "slot": "3",
            "type": "t_bytes_storage"
          },
          {
            "astId": 9867,
            "contract": "contracts/routers/BurnRouterLogic.sol:BurnRouterLogic",
            "label": "deadline",
            "offset": 0,
            "slot": "4",
            "type": "t_uint256"
          },
          {
            "astId": 9869,
            "contract": "contracts/routers/BurnRouterLogic.sol:BurnRouterLogic",
            "label": "isTransferred",
            "offset": 0,
            "slot": "5",
            "type": "t_bool"
          },
          {
            "astId": 9872,
            "contract": "contracts/routers/BurnRouterLogic.sol:BurnRouterLogic",
            "label": "scriptType",
            "offset": 1,
            "slot": "5",
            "type": "t_enum(ScriptTypes)6501"
          },
          {
            "astId": 9874,
            "contract": "contracts/routers/BurnRouterLogic.sol:BurnRouterLogic",
            "label": "requestIdOfLocker",
            "offset": 0,
            "slot": "6",
            "type": "t_uint256"
          }
        ],
        "numberOfBytes": "224"
      },
      "t_uint256": {
        "encoding": "inplace",
        "label": "uint256",
        "numberOfBytes": "32"
      },
      "t_uint8": {
        "encoding": "inplace",
        "label": "uint8",
        "numberOfBytes": "1"
      }
    }
  }
}