{
  "address": "0x5469958a50aD64B0e707E1079eB6c181e489Bf8A",
  "abi": [
    {
      "inputs": [],
      "name": "ZeroAddress",
      "type": "error"
    },
    {
      "anonymous": false,
      "inputs": [
        {
          "indexed": false,
          "internalType": "address",
          "name": "oldAcross",
          "type": "address"
        },
        {
          "indexed": false,
          "internalType": "address",
          "name": "newAcross",
          "type": "address"
        }
      ],
      "name": "AcrossUpdated",
      "type": "event"
    },
    {
      "anonymous": false,
      "inputs": [
        {
          "indexed": false,
          "internalType": "address",
          "name": "oldBurnRouter",
          "type": "address"
        },
        {
          "indexed": false,
          "internalType": "address",
          "name": "newBurnRouter",
          "type": "address"
        }
      ],
      "name": "BurnRouterUpdated",
      "type": "event"
    },
    {
      "anonymous": false,
      "inputs": [
        {
          "indexed": false,
          "internalType": "address",
          "name": "lockerTargetAddress",
          "type": "address"
        },
        {
          "indexed": true,
          "internalType": "bytes32",
          "name": "recipientAddress",
          "type": "bytes32"
        },
        {
          "indexed": false,
          "internalType": "bytes32[3]",
          "name": "inputIntermediaryOutputToken",
          "type": "bytes32[3]"
        },
        {
          "indexed": false,
          "internalType": "uint256[3]",
          "name": "inputIntermediaryOutputAmount",
          "type": "uint256[3]"
        },
        {
          "indexed": true,
          "internalType": "uint256",
          "name": "speed",
          "type": "uint256"
        },
        {
          "indexed": true,
          "internalType": "address",
          "name": "teleporter",
          "type": "address"
        },
        {
          "indexed": false,
          "internalType": "bytes32",
          "name": "bitcoinTxId",
          "type": "bytes32"
        },
        {
          "indexed": false,
          "internalType": "uint256",
          "name": "appId",
          "type": "uint256"
        },
        {
          "indexed": false,
          "internalType": "uint256",
          "name": "thirdPartyId",
          "type": "uint256"
        },
        {
          "indexed": false,
          "internalType": "uint256[5]",
          "name": "fees",
          "type": "uint256[5]"
        },
        {
          "indexed": false,
          "internalType": "uint256",
          "name": "destinationChainId",
          "type": "uint256"
        }
      ],
      "name": "FailedWrapAndSwapV2",
      "type": "event"
    },
    {
      "anonymous": false,
      "inputs": [
        {
          "indexed": false,
          "internalType": "address",
          "name": "filler",
          "type": "address"
        },
        {
          "indexed": false,
          "internalType": "bytes32",
          "name": "bitcoinTxId",
          "type": "bytes32"
        },
        {
          "indexed": false,
          "internalType": "uint256",
          "name": "amount",
          "type": "uint256"
        }
      ],
      "name": "FillerRefunded",
      "type": "event"
    },
    {
      "anonymous": false,
      "inputs": [
        {
          "indexed": false,
          "internalType": "uint8",
          "name": "version",
          "type": "uint8"
        }
      ],
      "name": "Initialized",
      "type": "event"
    },
    {
      "anonymous": false,
      "inputs": [
        {
          "indexed": false,
          "internalType": "uint256",
          "name": "destinationChain",
          "type": "uint256"
        },
        {
          "indexed": false,
          "internalType": "uint256",
          "name": "mappedChainId",
          "type": "uint256"
        }
      ],
      "name": "NewChainIdMapping",
      "type": "event"
    },
    {
      "anonymous": false,
      "inputs": [
        {
          "indexed": false,
          "internalType": "address",
          "name": "oldLockers",
          "type": "address"
        },
        {
          "indexed": false,
          "internalType": "address",
          "name": "newLockers",
          "type": "address"
        }
      ],
      "name": "NewLockers",
      "type": "event"
    },
    {
      "anonymous": false,
      "inputs": [
        {
          "indexed": false,
          "internalType": "uint256",
          "name": "oldProtocolPercentageFee",
          "type": "uint256"
        },
        {
          "indexed": false,
          "internalType": "uint256",
          "name": "newProtocolPercentageFee",
          "type": "uint256"
        }
      ],
      "name": "NewProtocolPercentageFee",
      "type": "event"
    },
    {
      "anonymous": false,
      "inputs": [
        {
          "indexed": false,
          "internalType": "address",
          "name": "oldRelay",
          "type": "address"
        },
        {
          "indexed": false,
          "internalType": "address",
          "name": "newRelay",
          "type": "address"
        }
      ],
      "name": "NewRelay",
      "type": "event"
    },
    {
      "anonymous": false,
      "inputs": [
        {
          "indexed": false,
          "internalType": "address",
          "name": "oldTeleBTC",
          "type": "address"
        },
        {
          "indexed": false,
          "internalType": "address",
          "name": "newTeleBTC",
          "type": "address"
        }
      ],
      "name": "NewTeleBTC",
      "type": "event"
    },
    {
      "anonymous": false,
      "inputs": [
        {
          "indexed": false,
          "internalType": "uint256",
          "name": "thirdPartyId",
          "type": "uint256"
        },
        {
          "indexed": false,
          "internalType": "address",
          "name": "oldThirdPartyAddress",
          "type": "address"
        },
        {
          "indexed": false,
          "internalType": "address",
          "name": "newThirdPartyAddress",
          "type": "address"
        }
      ],
      "name": "NewThirdPartyAddress",
      "type": "event"
    },
    {
      "anonymous": false,
      "inputs": [
        {
          "indexed": false,
          "internalType": "uint256",
          "name": "thirdPartyId",
          "type": "uint256"
        },
        {
          "indexed": false,
          "internalType": "uint256",
          "name": "oldThirdPartyFee",
          "type": "uint256"
        },
        {
          "indexed": false,
          "internalType": "uint256",
          "name": "newThirdPartyFee",
          "type": "uint256"
        }
      ],
      "name": "NewThirdPartyFee",
      "type": "event"
    },
    {
      "anonymous": false,
      "inputs": [
        {
          "indexed": false,
          "internalType": "address",
          "name": "oldTreasury",
          "type": "address"
        },
        {
          "indexed": false,
          "internalType": "address",
          "name": "newTreasury",
          "type": "address"
        }
      ],
      "name": "NewTreasury",
      "type": "event"
    },
    {
      "anonymous": false,
      "inputs": [
        {
          "indexed": false,
          "internalType": "address",
          "name": "lockerTargetAddress",
          "type": "address"
        },
        {
          "indexed": true,
          "internalType": "bytes32",
          "name": "user",
          "type": "bytes32"
        },
        {
          "indexed": false,
          "internalType": "bytes32[3]",
          "name": "inputIntermediaryOutputToken",
          "type": "bytes32[3]"
        },
        {
          "indexed": false,
          "internalType": "uint256[3]",
          "name": "inputIntermediaryOutputAmount",
          "type": "uint256[3]"
        },
        {
          "indexed": true,
          "internalType": "uint256",
          "name": "speed",
          "type": "uint256"
        },
        {
          "indexed": true,
          "internalType": "address",
          "name": "teleporter",
          "type": "address"
        },
        {
          "indexed": false,
          "internalType": "bytes32",
          "name": "bitcoinTxId",
          "type": "bytes32"
        },
        {
          "indexed": false,
          "internalType": "uint256",
          "name": "appId",
          "type": "uint256"
        },
        {
          "indexed": false,
          "internalType": "uint256",
          "name": "thirdPartyId",
          "type": "uint256"
        },
        {
          "indexed": false,
          "internalType": "uint256[5]",
          "name": "fees",
          "type": "uint256[5]"
        },
        {
          "indexed": false,
          "internalType": "uint256",
          "name": "destinationChainId",
          "type": "uint256"
        }
      ],
      "name": "NewWrapAndSwapV2",
      "type": "event"
    },
    {
      "anonymous": false,
      "inputs": [
        {
          "indexed": false,
          "internalType": "address",
          "name": "oldWrappedNativeToken",
          "type": "address"
        },
        {
          "indexed": false,
          "internalType": "address",
          "name": "newWrappedNativeToken",
          "type": "address"
        }
      ],
      "name": "NewWrappedNativeToken",
      "type": "event"
    },
    {
      "anonymous": false,
      "inputs": [
        {
          "indexed": true,
          "internalType": "address",
          "name": "previousOwner",
          "type": "address"
        },
        {
          "indexed": true,
          "internalType": "address",
          "name": "newOwner",
          "type": "address"
        }
      ],
      "name": "OwnershipTransferred",
      "type": "event"
    },
    {
      "anonymous": false,
      "inputs": [
        {
          "indexed": true,
          "internalType": "bytes32",
          "name": "txId",
          "type": "bytes32"
        },
        {
          "indexed": true,
          "internalType": "address",
          "name": "refundedBy",
          "type": "address"
        },
        {
          "indexed": false,
          "internalType": "uint256",
          "name": "failedRequestAmount",
          "type": "uint256"
        },
        {
          "indexed": false,
          "internalType": "uint256",
          "name": "refundAmount",
          "type": "uint256"
        },
        {
          "indexed": false,
          "internalType": "bytes",
          "name": "userScript",
          "type": "bytes"
        },
        {
          "indexed": false,
          "internalType": "uint8",
          "name": "scriptType",
          "type": "uint8"
        },
        {
          "indexed": false,
          "internalType": "address",
          "name": "lockerTargetAddress",
          "type": "address"
        },
        {
          "indexed": false,
          "internalType": "uint256",
          "name": "burnRequestCounter",
          "type": "uint256"
        }
      ],
      "name": "RefundProcessed",
      "type": "event"
    },
    {
      "anonymous": false,
      "inputs": [
        {
          "indexed": false,
          "internalType": "address",
          "name": "filler",
          "type": "address"
        },
        {
          "indexed": false,
          "internalType": "bytes32",
          "name": "user",
          "type": "bytes32"
        },
        {
          "indexed": false,
          "internalType": "address",
          "name": "lockerTargetAddress",
          "type": "address"
        },
        {
          "indexed": false,
          "internalType": "bytes32",
          "name": "bitcoinTxId",
          "type": "bytes32"
        },
        {
          "indexed": false,
          "internalType": "address[2]",
          "name": "inputAndOutputToken",
          "type": "address[2]"
        },
        {
          "indexed": false,
          "internalType": "uint256",
          "name": "fillAmount",
          "type": "uint256"
        },
        {
          "indexed": false,
          "internalType": "uint256",
          "name": "finalAmount",
          "type": "uint256"
        },
        {
          "indexed": false,
          "internalType": "uint256",
          "name": "userRequestedAmount",
          "type": "uint256"
        },
        {
          "indexed": false,
          "internalType": "uint256",
          "name": "destinationChainId",
          "type": "uint256"
        },
        {
          "indexed": false,
          "internalType": "uint256",
          "name": "bridgePercentageFee",
          "type": "uint256"
        }
      ],
      "name": "RequestFilledV2",
      "type": "event"
    },
    {
      "anonymous": false,
      "inputs": [
        {
          "indexed": false,
          "internalType": "uint256",
          "name": "appId",
          "type": "uint256"
        },
        {
          "indexed": false,
          "internalType": "address",
          "name": "exchangeConnector",
          "type": "address"
        }
      ],
      "name": "SetExchangeConnector",
      "type": "event"
    },
    {
      "inputs": [],
      "name": "across",
      "outputs": [
        {
          "internalType": "address",
          "name": "",
          "type": "address"
        }
      ],
      "stateMutability": "view",
      "type": "function"
    },
    {
      "inputs": [],
      "name": "acrossAdmin",
      "outputs": [
        {
          "internalType": "address",
          "name": "",
          "type": "address"
        }
      ],
      "stateMutability": "view",
      "type": "function"
    },
    {
      "inputs": [
        {
          "internalType": "bytes8",
          "name": "",
          "type": "bytes8"
        },
        {
          "internalType": "uint256",
          "name": "",
          "type": "uint256"
        }
      ],
      "name": "bridgeTokenIDMapping",
      "outputs": [
        {
          "internalType": "bytes32",
          "name": "",
          "type": "bytes32"
        }
      ],
      "stateMutability": "view",
      "type": "function"
    },
    {
      "inputs": [
        {
          "internalType": "address",
          "name": "",
          "type": "address"
        },
        {
          "internalType": "uint256",
          "name": "",
          "type": "uint256"
        }
      ],
      "name": "bridgeTokenMapping",
      "outputs": [
        {
          "internalType": "address",
          "name": "",
          "type": "address"
        }
      ],
      "stateMutability": "view",
      "type": "function"
    },
    {
      "inputs": [],
      "name": "burnRouter",
      "outputs": [
        {
          "internalType": "address",
          "name": "",
          "type": "address"
        }
      ],
      "stateMutability": "view",
      "type": "function"
    },
    {
      "inputs": [],
      "name": "chainId",
      "outputs": [
        {
          "internalType": "uint256",
          "name": "",
          "type": "uint256"
        }
      ],
      "stateMutability": "view",
      "type": "function"
    },
    {
      "inputs": [
        {
          "internalType": "uint256",
          "name": "",
          "type": "uint256"
        }
      ],
      "name": "chainIdMapping",
      "outputs": [
        {
          "internalType": "uint256",
          "name": "middleChain",
          "type": "uint256"
        },
        {
          "internalType": "uint256",
          "name": "destinationChain",
          "type": "uint256"
        }
      ],
      "stateMutability": "view",
      "type": "function"
    },
    {
      "inputs": [
        {
          "internalType": "address",
          "name": "_token",
          "type": "address"
        },
        {
          "internalType": "uint256",
          "name": "_amount",
          "type": "uint256"
        }
      ],
      "name": "emergencyWithdraw",
      "outputs": [],
      "stateMutability": "nonpayable",
      "type": "function"
    },
    {
      "inputs": [
        {
          "internalType": "uint256",
          "name": "",
          "type": "uint256"
        }
      ],
      "name": "exchangeConnector",
      "outputs": [
        {
          "internalType": "address",
          "name": "",
          "type": "address"
        }
      ],
      "stateMutability": "view",
      "type": "function"
    },
    {
      "inputs": [
        {
          "internalType": "bytes32",
          "name": "",
          "type": "bytes32"
        }
      ],
      "name": "extendedCcExchangeRequests",
      "outputs": [
        {
          "internalType": "uint256",
          "name": "destAssignedChainId",
          "type": "uint256"
        },
        {
          "internalType": "bool",
          "name": "isRequestCompleted",
          "type": "bool"
        },
        {
          "internalType": "uint256",
          "name": "remainedInputAmount",
          "type": "uint256"
        },
        {
          "internalType": "uint256",
          "name": "bridgePercentageFee",
          "type": "uint256"
        },
        {
          "internalType": "uint256",
          "name": "thirdParty",
          "type": "uint256"
        },
        {
          "internalType": "uint256",
          "name": "protocolFee",
          "type": "uint256"
        },
        {
          "internalType": "uint256",
          "name": "thirdPartyFee",
          "type": "uint256"
        },
        {
          "internalType": "uint256",
          "name": "lockerFee",
          "type": "uint256"
        }
      ],
      "stateMutability": "view",
      "type": "function"
    },
    {
      "inputs": [
        {
          "internalType": "bytes32",
          "name": "_txId",
          "type": "bytes32"
        },
        {
          "internalType": "bytes32",
          "name": "_recipient",
          "type": "bytes32"
        },
        {
          "internalType": "address",
          "name": "_intermediaryToken",
          "type": "address"
        },
        {
          "internalType": "bytes32",
          "name": "_outputToken",
          "type": "bytes32"
        },
        {
          "internalType": "uint256",
          "name": "_fillAmount",
          "type": "uint256"
        },
        {
          "internalType": "uint256",
          "name": "_userRequestedAmount",
          "type": "uint256"
        },
        {
          "internalType": "uint256",
          "name": "_destRealChainId",
          "type": "uint256"
        },
        {
          "internalType": "uint256",
          "name": "_bridgePercentageFee",
          "type": "uint256"
        },
        {
          "internalType": "bytes",
          "name": "_lockerLockingScript",
          "type": "bytes"
        }
      ],
      "name": "fillTxV2",
      "outputs": [],
      "stateMutability": "payable",
      "type": "function"
    },
    {
      "inputs": [
        {
          "internalType": "bytes32",
          "name": "",
          "type": "bytes32"
        },
        {
          "internalType": "address",
          "name": "",
          "type": "address"
        },
        {
          "internalType": "address",
          "name": "",
          "type": "address"
        },
        {
          "internalType": "uint256",
          "name": "",
          "type": "uint256"
        },
        {
          "internalType": "uint256",
          "name": "",
          "type": "uint256"
        },
        {
          "internalType": "uint256",
          "name": "",
          "type": "uint256"
        }
      ],
      "name": "fillerAddress",
      "outputs": [
        {
          "internalType": "address",
          "name": "",
          "type": "address"
        }
      ],
      "stateMutability": "view",
      "type": "function"
    },
    {
      "inputs": [
        {
          "internalType": "bytes32",
          "name": "",
          "type": "bytes32"
        },
        {
          "internalType": "bytes32",
          "name": "",
          "type": "bytes32"
        },
        {
          "internalType": "address",
          "name": "",
          "type": "address"
        },
        {
          "internalType": "uint256",
          "name": "",
          "type": "uint256"
        },
        {
          "internalType": "uint256",
          "name": "",
          "type": "uint256"
        },
        {
          "internalType": "uint256",
          "name": "",
          "type": "uint256"
        }
      ],
      "name": "fillerAddressV2",
      "outputs": [
        {
          "internalType": "address",
          "name": "",
          "type": "address"
        }
      ],
      "stateMutability": "view",
      "type": "function"
    },
    {
      "inputs": [
        {
          "internalType": "bytes32",
          "name": "",
          "type": "bytes32"
        }
      ],
      "name": "finalAmount",
      "outputs": [
        {
          "internalType": "uint256",
          "name": "",
          "type": "uint256"
        }
      ],
      "stateMutability": "view",
      "type": "function"
    },
    {
      "inputs": [
        {
          "internalType": "uint256",
          "name": "_assignedChainId",
          "type": "uint256"
        }
      ],
      "name": "getRealChainId",
      "outputs": [
        {
          "internalType": "uint256",
          "name": "",
          "type": "uint256"
        }
      ],
      "stateMutability": "view",
      "type": "function"
    },
    {
      "inputs": [
        {
          "internalType": "uint256",
          "name": "_startingBlockNumber",
          "type": "uint256"
        },
        {
          "internalType": "uint256",
          "name": "_protocolPercentageFee",
          "type": "uint256"
        },
        {
          "internalType": "uint256",
          "name": "_lockerPercentageFee",
          "type": "uint256"
        },
        {
          "internalType": "uint256",
          "name": "_chainId",
          "type": "uint256"
        },
        {
          "internalType": "address",
          "name": "_lockers",
          "type": "address"
        },
        {
          "internalType": "address",
          "name": "_relay",
          "type": "address"
        },
        {
          "internalType": "address",
          "name": "_teleBTC",
          "type": "address"
        },
        {
          "internalType": "address",
          "name": "_treasury",
          "type": "address"
        },
        {
          "internalType": "address",
          "name": "_across",
          "type": "address"
        },
        {
          "internalType": "address",
          "name": "_burnRouter",
          "type": "address"
        }
      ],
      "name": "initialize",
      "outputs": [],
      "stateMutability": "nonpayable",
      "type": "function"
    },
    {
      "inputs": [
        {
          "internalType": "address",
          "name": "",
          "type": "address"
        }
      ],
      "name": "inputTokenDecimalsOnDestinationChain",
      "outputs": [
        {
          "internalType": "uint256",
          "name": "",
          "type": "uint256"
        }
      ],
      "stateMutability": "view",
      "type": "function"
    },
    {
      "inputs": [
        {
          "internalType": "bytes8",
          "name": "",
          "type": "bytes8"
        }
      ],
      "name": "intermediaryTokenMapping",
      "outputs": [
        {
          "internalType": "address",
          "name": "",
          "type": "address"
        }
      ],
      "stateMutability": "view",
      "type": "function"
    },
    {
      "inputs": [
        {
          "internalType": "uint256",
          "name": "",
          "type": "uint256"
        }
      ],
      "name": "isChainSupported",
      "outputs": [
        {
          "internalType": "bool",
          "name": "",
          "type": "bool"
        }
      ],
      "stateMutability": "view",
      "type": "function"
    },
    {
      "inputs": [
        {
          "internalType": "bytes32",
          "name": "_txId",
          "type": "bytes32"
        }
      ],
      "name": "isRequestUsed",
      "outputs": [
        {
          "internalType": "bool",
          "name": "",
          "type": "bool"
        }
      ],
      "stateMutability": "view",
      "type": "function"
    },
    {
      "inputs": [
        {
          "internalType": "address",
          "name": "",
          "type": "address"
        }
      ],
      "name": "isTeleporter",
      "outputs": [
        {
          "internalType": "bool",
          "name": "",
          "type": "bool"
        }
      ],
      "stateMutability": "view",
      "type": "function"
    },
    {
      "inputs": [
        {
          "internalType": "uint256",
          "name": "",
          "type": "uint256"
        },
        {
          "internalType": "address",
          "name": "",
          "type": "address"
        }
      ],
      "name": "isTokenSupported",
      "outputs": [
        {
          "internalType": "bool",
          "name": "",
          "type": "bool"
        }
      ],
      "stateMutability": "view",
      "type": "function"
    },
    {
      "inputs": [],
      "name": "lockerPercentageFee",
      "outputs": [
        {
          "internalType": "uint256",
          "name": "",
          "type": "uint256"
        }
      ],
      "stateMutability": "view",
      "type": "function"
    },
    {
      "inputs": [],
      "name": "lockers",
      "outputs": [
        {
          "internalType": "address",
          "name": "",
          "type": "address"
        }
      ],
      "stateMutability": "view",
      "type": "function"
    },
    {
      "inputs": [],
      "name": "owner",
      "outputs": [
        {
          "internalType": "address",
          "name": "",
          "type": "address"
        }
      ],
      "stateMutability": "view",
      "type": "function"
    },
    {
      "inputs": [],
      "name": "protocolPercentageFee",
      "outputs": [
        {
          "internalType": "uint256",
          "name": "",
          "type": "uint256"
        }
      ],
      "stateMutability": "view",
      "type": "function"
    },
    {
      "inputs": [
        {
          "internalType": "bytes32",
          "name": "_txId",
          "type": "bytes32"
        },
        {
          "internalType": "uint8",
          "name": "_scriptType",
          "type": "uint8"
        },
        {
          "internalType": "bytes",
          "name": "_userScript",
          "type": "bytes"
        },
        {
          "internalType": "bytes",
          "name": "_lockerLockingScript",
          "type": "bytes"
        }
      ],
      "name": "refundByOwnerOrAdmin",
      "outputs": [],
      "stateMutability": "nonpayable",
      "type": "function"
    },
    {
      "inputs": [],
      "name": "relay",
      "outputs": [
        {
          "internalType": "address",
          "name": "",
          "type": "address"
        }
      ],
      "stateMutability": "view",
      "type": "function"
    },
    {
      "inputs": [],
      "name": "renounceOwnership",
      "outputs": [],
      "stateMutability": "nonpayable",
      "type": "function"
    },
    {
      "inputs": [],
      "name": "rewardDistributor",
      "outputs": [
        {
          "internalType": "address",
          "name": "",
          "type": "address"
        }
      ],
      "stateMutability": "view",
      "type": "function"
    },
    {
      "inputs": [
        {
          "internalType": "address",
          "name": "_across",
          "type": "address"
        }
      ],
      "name": "setAcross",
      "outputs": [],
      "stateMutability": "nonpayable",
      "type": "function"
    },
    {
      "inputs": [
        {
          "internalType": "address",
          "name": "_acrossAdmin",
          "type": "address"
        }
      ],
      "name": "setAcrossAdmin",
      "outputs": [],
      "stateMutability": "nonpayable",
      "type": "function"
    },
    {
      "inputs": [
        {
          "internalType": "bytes8",
          "name": "_tokenID",
          "type": "bytes8"
        },
        {
          "internalType": "uint256",
          "name": "_destinationChainId",
          "type": "uint256"
        },
        {
          "internalType": "bytes32",
          "name": "_destinationToken",
          "type": "bytes32"
        }
      ],
      "name": "setBridgeTokenIDMapping",
      "outputs": [],
      "stateMutability": "nonpayable",
      "type": "function"
    },
    {
      "inputs": [
        {
          "internalType": "address",
          "name": "_sourceToken",
          "type": "address"
        },
        {
          "internalType": "uint256",
          "name": "_destinationChainId",
          "type": "uint256"
        },
        {
          "internalType": "address",
          "name": "_destinationToken",
          "type": "address"
        }
      ],
      "name": "setBridgeTokenMapping",
      "outputs": [],
      "stateMutability": "nonpayable",
      "type": "function"
    },
    {
      "inputs": [
        {
          "internalType": "address",
          "name": "_burnRouter",
          "type": "address"
        }
      ],
      "name": "setBurnRouter",
      "outputs": [],
      "stateMutability": "nonpayable",
      "type": "function"
    },
    {
      "inputs": [
        {
          "internalType": "uint256",
          "name": "_destinationChain",
          "type": "uint256"
        },
        {
          "internalType": "uint256",
          "name": "_mappedId",
          "type": "uint256"
        }
      ],
      "name": "setChainIdMapping",
      "outputs": [],
      "stateMutability": "nonpayable",
      "type": "function"
    },
    {
      "inputs": [
        {
          "internalType": "uint256",
          "name": "_appId",
          "type": "uint256"
        },
        {
          "internalType": "address",
          "name": "_exchangeConnector",
          "type": "address"
        }
      ],
      "name": "setExchangeConnector",
      "outputs": [],
      "stateMutability": "nonpayable",
      "type": "function"
    },
    {
      "inputs": [
        {
          "internalType": "address",
          "name": "_inputToken",
          "type": "address"
        },
        {
          "internalType": "uint256",
          "name": "_decimalsOnDestinationChain",
          "type": "uint256"
        }
      ],
      "name": "setInputTokenDecimalsOnDestinationChain",
      "outputs": [],
      "stateMutability": "nonpayable",
      "type": "function"
    },
    {
      "inputs": [
        {
          "internalType": "bytes8",
          "name": "_destinationTokenID",
          "type": "bytes8"
        },
        {
          "internalType": "address",
          "name": "_intermediaryToken",
          "type": "address"
        }
      ],
      "name": "setIntermediaryTokenMapping",
      "outputs": [],
      "stateMutability": "nonpayable",
      "type": "function"
    },
    {
      "inputs": [
        {
          "internalType": "uint256",
          "name": "_lockerPercentageFee",
          "type": "uint256"
        }
      ],
      "name": "setLockerPercentageFee",
      "outputs": [],
      "stateMutability": "nonpayable",
      "type": "function"
    },
    {
      "inputs": [
        {
          "internalType": "address",
          "name": "_lockers",
          "type": "address"
        }
      ],
      "name": "setLockers",
      "outputs": [],
      "stateMutability": "nonpayable",
      "type": "function"
    },
    {
      "inputs": [
        {
          "internalType": "uint256",
          "name": "_protocolPercentageFee",
          "type": "uint256"
        }
      ],
      "name": "setProtocolPercentageFee",
      "outputs": [],
      "stateMutability": "nonpayable",
      "type": "function"
    },
    {
      "inputs": [
        {
          "internalType": "address",
          "name": "_relay",
          "type": "address"
        }
      ],
      "name": "setRelay",
      "outputs": [],
      "stateMutability": "nonpayable",
      "type": "function"
    },
    {
      "inputs": [
        {
          "internalType": "address",
          "name": "_rewardDistributor",
          "type": "address"
        }
      ],
      "name": "setRewardDistributor",
      "outputs": [],
      "stateMutability": "nonpayable",
      "type": "function"
    },
    {
      "inputs": [
        {
          "internalType": "uint256",
          "name": "_startingBlockNumber",
          "type": "uint256"
        }
      ],
      "name": "setStartingBlockNumber",
      "outputs": [],
      "stateMutability": "nonpayable",
      "type": "function"
    },
    {
      "inputs": [
        {
          "internalType": "address",
          "name": "_teleBTC",
          "type": "address"
        }
      ],
      "name": "setTeleBTC",
      "outputs": [],
      "stateMutability": "nonpayable",
      "type": "function"
    },
    {
      "inputs": [
        {
          "internalType": "address",
          "name": "_teleporter",
          "type": "address"
        },
        {
          "internalType": "bool",
          "name": "_isTeleporter",
          "type": "bool"
        }
      ],
      "name": "setTeleporter",
      "outputs": [],
      "stateMutability": "nonpayable",
      "type": "function"
    },
    {
      "inputs": [
        {
          "internalType": "uint256",
          "name": "_thirdPartyId",
          "type": "uint256"
        },
        {
          "internalType": "address",
          "name": "_thirdPartyAddress",
          "type": "address"
        }
      ],
      "name": "setThirdPartyAddress",
      "outputs": [],
      "stateMutability": "nonpayable",
      "type": "function"
    },
    {
      "inputs": [
        {
          "internalType": "uint256",
          "name": "_thirdPartyId",
          "type": "uint256"
        },
        {
          "internalType": "uint256",
          "name": "_thirdPartyFee",
          "type": "uint256"
        }
      ],
      "name": "setThirdPartyFee",
      "outputs": [],
      "stateMutability": "nonpayable",
      "type": "function"
    },
    {
      "inputs": [
        {
          "internalType": "address",
          "name": "_treasury",
          "type": "address"
        }
      ],
      "name": "setTreasury",
      "outputs": [],
      "stateMutability": "nonpayable",
      "type": "function"
    },
    {
      "inputs": [
        {
          "internalType": "address",
          "name": "_wrappedNativeToken",
          "type": "address"
        }
      ],
      "name": "setWrappedNativeToken",
      "outputs": [],
      "stateMutability": "nonpayable",
      "type": "function"
    },
    {
      "inputs": [],
      "name": "specialTeleporter",
      "outputs": [
        {
          "internalType": "address",
          "name": "",
          "type": "address"
        }
      ],
      "stateMutability": "view",
      "type": "function"
    },
    {
      "inputs": [],
      "name": "startingBlockNumber",
      "outputs": [
        {
          "internalType": "uint256",
          "name": "",
          "type": "uint256"
        }
      ],
      "stateMutability": "view",
      "type": "function"
    },
    {
      "inputs": [],
      "name": "teleBTC",
      "outputs": [
        {
          "internalType": "address",
          "name": "",
          "type": "address"
        }
      ],
      "stateMutability": "view",
      "type": "function"
    },
    {
      "inputs": [
        {
          "internalType": "uint256",
          "name": "",
          "type": "uint256"
        }
      ],
      "name": "thirdPartyAddress",
      "outputs": [
        {
          "internalType": "address",
          "name": "",
          "type": "address"
        }
      ],
      "stateMutability": "view",
      "type": "function"
    },
    {
      "inputs": [
        {
          "internalType": "uint256",
          "name": "",
          "type": "uint256"
        }
      ],
      "name": "thirdPartyFee",
      "outputs": [
        {
          "internalType": "uint256",
          "name": "",
          "type": "uint256"
        }
      ],
      "stateMutability": "view",
      "type": "function"
    },
    {
      "inputs": [
        {
          "internalType": "address",
          "name": "newOwner",
          "type": "address"
        }
      ],
      "name": "transferOwnership",
      "outputs": [],
      "stateMutability": "nonpayable",
      "type": "function"
    },
    {
      "inputs": [],
      "name": "treasury",
      "outputs": [
        {
          "internalType": "address",
          "name": "",
          "type": "address"
        }
      ],
      "stateMutability": "view",
      "type": "function"
    },
    {
      "inputs": [
        {
          "components": [
            {
              "internalType": "bytes4",
              "name": "version",
              "type": "bytes4"
            },
            {
              "internalType": "bytes",
              "name": "vin",
              "type": "bytes"
            },
            {
              "internalType": "bytes",
              "name": "vout",
              "type": "bytes"
            },
            {
              "internalType": "bytes4",
              "name": "locktime",
              "type": "bytes4"
            },
            {
              "internalType": "uint256",
              "name": "blockNumber",
              "type": "uint256"
            },
            {
              "internalType": "bytes",
              "name": "intermediateNodes",
              "type": "bytes"
            },
            {
              "internalType": "uint256",
              "name": "index",
              "type": "uint256"
            }
          ],
          "internalType": "struct ICcExchangeRouter.TxAndProof",
          "name": "_txAndProof",
          "type": "tuple"
        },
        {
          "internalType": "bytes",
          "name": "_lockerLockingScript",
          "type": "bytes"
        },
        {
          "internalType": "address[]",
          "name": "_path",
          "type": "address[]"
        }
      ],
      "name": "wrapAndSwapV2",
      "outputs": [
        {
          "internalType": "bool",
          "name": "",
          "type": "bool"
        }
      ],
      "stateMutability": "payable",
      "type": "function"
    },
    {
      "inputs": [],
      "name": "wrappedNativeToken",
      "outputs": [
        {
          "internalType": "address",
          "name": "",
          "type": "address"
        }
      ],
      "stateMutability": "view",
      "type": "function"
    },
    {
      "stateMutability": "payable",
      "type": "receive"
    }
  ],
  "transactionHash": "0xb875166e4df31c8f2e5b31e77ff453bb575f440d07fe979f90060dd43f242bcf",
  "args": [],
  "numDeployments": 1,
  "solcInputHash": "a3ca6885c4d7ceab766149e6deb665c5",
  "bytecode": "0x608060405234801561001057600080fd5b50614f0f806100206000396000f3fe6080604052600436106102ab5760003560e01c806303c67359146102b757806306be8b0e146102fc5780630f8320ce1461039957806316e1d491146103dc57806317fcb39b146104225780631812adb6146104425780631876dec4146104585780631dc4b09c146104785780631e7107c71461049a5780632554a14c146104ba578063292c1d92146104cd57806329b0db8b146104ed578063303a785d146105005780634e63ba95146105205780635221c1f01461056957806359fd0b0c146105995780635f949129146105c657806361be10f21461060757806361d027b31461062757806363908020146106475780636600203d1461065d5780636b2857ef1461067d5780636c32b2ec1461069d5780636e550f43146106bd5780636e8adf611461071c5780636f37b7c01461075257806370872aa51461077f578063715018a61461079557806375979f79146107aa57806379023909146107e55780637ed55748146108055780637f0f18171461082557806380bc47261461084557806383a369541461087857806386338fe814610898578063878269b5146108b857806387c554f8146108d85780638c0d9dca146108f85780638d3d78cd146109185780638d5fc1d4146109385780638da5cb5b146109585780638f0c50831461096d5780638f9eb78b1461098d57806395ccea67146109ad5780639a8a0592146109cd578063a1809b95146109e3578063a9b6827114610a03578063acc2166a14610a39578063acc6e09214610a59578063b07acef214610ab8578063b14d353214610ad8578063b59589d114610af8578063c805f68b14610b18578063d7fe6b7d14610b38578063da058ae314610b58578063daf44b9314610b78578063e509463814610b98578063f0f4426014610bb8578063f2fde38b14610bd8578063fcb070e214610bf857600080fd5b366102b257005b600080fd5b3480156102c357600080fd5b506102e76102d2366004613dea565b60b46020526000908152604090205460ff1681565b60405190151581526020015b60405180910390f35b34801561030857600080fd5b5061035e610317366004613f8b565b60a76020526000908152604090208054600182015460028301546003840154600485015460058601546006870154600790970154959660ff90951695939492939192909188565b604080519889529615156020890152958701949094526060860192909252608085015260a084015260c083015260e0820152610100016102f3565b3480156103a557600080fd5b506103cf6103b4366004614160565b60b7602052600090815260409020546001600160a01b031681565b6040516102f3919061454f565b3480156103e857600080fd5b506104146103f73660046141a5565b60b560209081526000928352604080842090915290825290205481565b6040519081526020016102f3565b34801561042e57600080fd5b5060a9546103cf906001600160a01b031681565b34801561044e57600080fd5b5061041460025481565b34801561046457600080fd5b506005546103cf906001600160a01b031681565b34801561048457600080fd5b50610498610493366004613dea565b610c25565b005b3480156104a657600080fd5b506104986104b5366004613f8b565b610c39565b6102e76104c83660046141f2565b610c4a565b3480156104d957600080fd5b5060a8546103cf906001600160a01b031681565b6104986104fb366004614016565b61136c565b34801561050c57600080fd5b5061049861051b3660046140d8565b611962565b34801561052c57600080fd5b5061055461053b366004613f8b565b60ab602052600090815260409020805460019091015482565b604080519283526020830191909152016102f3565b34801561057557600080fd5b506102e7610584366004613f8b565b60a66020526000908152604090205460ff1681565b3480156105a557600080fd5b506104146105b4366004613f8b565b60ac6020526000908152604090205481565b3480156105d257600080fd5b506103cf6105e1366004613e5a565b60b26020908152600092835260408084209091529082529020546001600160a01b031681565b34801561061357600080fd5b50610498610622366004613dea565b611cfa565b34801561063357600080fd5b506007546103cf906001600160a01b031681565b34801561065357600080fd5b5061041460b05481565b34801561066957600080fd5b50610498610678366004613f8b565b611d0b565b34801561068957600080fd5b50610498610698366004614325565b611d1c565b3480156106a957600080fd5b5060aa546103cf906001600160a01b031681565b3480156106c957600080fd5b506103cf6106d83660046140a7565b60b86020908152600096875260408088208252958752858720815293865284862084529185528385208352845282842090915282529020546001600160a01b031681565b34801561072857600080fd5b506103cf610737366004613f8b565b6008602052600090815260409020546001600160a01b031681565b34801561075e57600080fd5b5061041461076d366004613f8b565b60b36020526000908152604090205481565b34801561078b57600080fd5b5061041460005481565b3480156107a157600080fd5b50610498611d8a565b3480156107b657600080fd5b506102e76107c5366004614325565b60a560209081526000928352604080842090915290825290205460ff1681565b3480156107f157600080fd5b506004546103cf906001600160a01b031681565b34801561081157600080fd5b50610498610820366004613f8b565b611d94565b34801561083157600080fd5b50610498610840366004613dea565b611da5565b34801561085157600080fd5b506102e7610860366004613f8b565b600090815260b6602052604090206007015460ff1690565b34801561088457600080fd5b50610414610893366004613f8b565b611db6565b3480156108a457600080fd5b506104986108b3366004613e5a565b611dcb565b3480156108c457600080fd5b506104986108d3366004613dea565b611df4565b3480156108e457600080fd5b5060af546103cf906001600160a01b031681565b34801561090457600080fd5b5061049861091336600461436a565b611e1e565b34801561092457600080fd5b506006546103cf906001600160a01b031681565b34801561094457600080fd5b50610498610953366004614325565b611f97565b34801561096457600080fd5b506103cf611fa9565b34801561097957600080fd5b50610498610988366004614349565b611fb8565b34801561099957600080fd5b506104986109a8366004614349565b611fca565b3480156109b957600080fd5b506104986109c8366004613e5a565b611fdc565b3480156109d957600080fd5b5061041460015481565b3480156109ef57600080fd5b506104986109fe366004613dea565b6120a7565b348015610a0f57600080fd5b506103cf610a1e366004613f8b565b60ad602052600090815260409020546001600160a01b031681565b348015610a4557600080fd5b5060b1546103cf906001600160a01b031681565b348015610a6557600080fd5b506103cf610a74366004613fbb565b60ae6020908152600096875260408088208252958752858720815293865284862084529185528385208352845282842090915282529020546001600160a01b031681565b348015610ac457600080fd5b50610498610ad3366004613e22565b6120d1565b348015610ae457600080fd5b50610498610af3366004613dea565b612104565b348015610b0457600080fd5b506003546103cf906001600160a01b031681565b348015610b2457600080fd5b50610498610b33366004613dea565b612115565b348015610b4457600080fd5b50610498610b53366004613e85565b612126565b348015610b6457600080fd5b50610498610b73366004613dea565b612169565b348015610b8457600080fd5b50610498610b933660046141c0565b61217a565b348015610ba457600080fd5b50610498610bb336600461417a565b6121af565b348015610bc457600080fd5b50610498610bd3366004613dea565b6121ed565b348015610be457600080fd5b50610498610bf3366004613dea565b6121fe565b348015610c0457600080fd5b50610414610c13366004613dea565b60b96020526000908152604090205481565b610c2d612274565b610c36816122d3565b50565b610c41612274565b610c3681612365565b6000610c546123cd565b33600090815260b4602052604090205460ff16610cb85760405162461bcd60e51b815260206004820152601e60248201527f45786368616e6765526f757465723a20696e76616c69642073656e646572000060448201526064015b60405180910390fd5b60005485608001511015610d0c5760405162461bcd60e51b815260206004820152601b60248201527a115e18da185b99d9549bdd5d195c8e881bdb19081c995c5d595cdd602a1b6044820152606401610caf565b60055460405163aff2faa360e01b81526001600160a01b039091169063aff2faa390610d3e90879087906004016147e7565b60206040518083038186803b158015610d5657600080fd5b505afa158015610d6a573d6000803e3d6000fd5b505050506040513d601f19601f82011682018060405250810190610d8e9190613ec6565b610dd75760405162461bcd60e51b815260206004820152601a60248201527922bc31b430b733b2a937baba32b91d103737ba103637b1b5b2b960311b6044820152606401610caf565b600654600354604051633b06f0e560e21b8152600092738776926e75aB6A204fc83BdA4926A7B3257cB0d79263ec1bc39492610e31928b9260b69260a7926001600160a01b03908116928e928e9290911690600401614943565b60206040518083038186803b158015610e4957600080fd5b505af4158015610e5d573d6000803e3d6000fd5b505050506040513d601f19601f82011682018060405250810190610e819190613fa3565b905082600081518110610ea457634e487b7160e01b600052603260045260246000fd5b60209081029190910101516006546001600160a01b039081169116148015610f7f57508260018451610ed69190614e47565b81518110610ef457634e487b7160e01b600052603260045260246000fd5b60200260200101516001600160a01b031660b7600060b66000858152602001908152602001600020600801600160028110610f3f57634e487b7160e01b600052603260045260246000fd5b60048104919091015460039091166008026101000a900460c01b6001600160c01b03191681526020810191909152604001600020546001600160a01b0316145b610fca5760405162461bcd60e51b815260206004820152601c60248201527b08af0c6d0c2dccecaa4deeae8cae47440d2dcecc2d8d2c840e0c2e8d60231b6044820152606401610caf565b600081815260a76020526040812054610fe290611db6565b9050806110315760405162461bcd60e51b815260206004820181905260248201527f45786368616e6765526f757465723a20696e76616c696420636861696e2069646044820152606401610caf565b600082815260b660209081526040808320600880820154600160401b900460c01b6001600160c01b031916855260b584528285208686528452828520546009830155905484529091529020546001600160a01b0316806110d35760405162461bcd60e51b815260206004820152601d60248201527f45786368616e6765526f757465723a20696e76616c69642061707049640000006044820152606401610caf565b61111487878080601f016020809104026020016040519081016040528093929190818152602001838380828437600092019190915250879250612427915050565b600083815260b66020908152604080832081516101a081018352815481526001820154938101939093526002808201548484015260038201546060850152600482015460ff90811615156080860152600583015460a0860152600683015460c0860152600783015416151560e085015282518084019384905291926101008501929160088501918288855b82829054906101000a900460c01b6001600160c01b0319168152602001906008019060208260070104928301926001038202915080841161119f5790505050505050815260200160098201548152602001600a8201548152602001600b8201548152602001600c820154815250509050806101600151600114156112fd57600084815260b86020908152604080832060a08501518452825280832087845260b6835281842060080154600160401b900460c01b6001600160c01b031916845260b78352818420546001600160a01b0390811685529083528184208583015185528352818420878552835281842088855260a78452828520600301548552909252909120541680156112fb576112ed81868b8b8080601f0160208091040260200160405190810160405280939291908181526020018383808284376000920191909152508a92506125b9915050565b60019550505050505061135a565b505b6113518289898080601f01602080910402602001604051908101604052809392919081815260200183838082843760009201829052508a815260a760205260409020600301548a93508c9250905088612855565b60019450505050505b6113646001606f55565b949350505050565b6113746123cd565b600089815260b6602052604090206007015460ff16156113a65760405162461bcd60e51b8152600401610caf9061483c565b6001600160c01b031960c087901b16600090815260b760205260409020546001600160a01b038881169116146114315760405162461bcd60e51b815260206004820152602a60248201527f45786368616e6765526f757465723a20696e76616c696420696e7465726d656460448201526934b0b93c903a37b5b2b760b11b6064820152608401610caf565b600061143e888786612b72565b90506000670de0b6b3a76400006114558582614e47565b61145f9084614e28565b6114699190614d1d565b9050858110156114cc5760405162461bcd60e51b815260206004820152602860248201527f45786368616e6765526f757465723a20696e73756666696369656e742066696c6044820152671b08185b5bdd5b9d60c21b6064820152608401610caf565b60008b815260b8602090815260408083208d845282528083206001600160a01b038d811685529083528184208a8552835281842089855283528184208885529092529091205416156115605760405162461bcd60e51b815260206004820152601e60248201527f45786368616e6765526f757465723a20616c72656164792066696c6c656400006044820152606401610caf565b60008b815260b8602090815260408083208d845282528083206001600160a01b038d168452825280832089845282528083208884528252808320878452825280832080546001600160a01b031916331790558d835260b3909152902081905560015485141561178b5760a9546001600160a01b038a8116911614156116ed576040516323b872dd60e01b81526001600160a01b038a16906323b872dd9061160f90339030908c90600401614609565b602060405180830381600087803b15801561162957600080fd5b505af115801561163d573d6000803e3d6000fd5b505050506040513d601f19601f820116820180604052508101906116619190613ec6565b61167d5760405162461bcd60e51b8152600401610caf9061487d565b60a954604051632e1a7d4d60e01b8152600481018990526001600160a01b0390911690632e1a7d4d90602401600060405180830381600087803b1580156116c357600080fd5b505af11580156116d7573d6000803e3d6000fd5b505050506116e88a60001c88612c32565b611837565b6040516323b872dd60e01b81526001600160a01b038a16906323b872dd9061171d9033908e908c90600401614609565b602060405180830381600087803b15801561173757600080fd5b505af115801561174b573d6000803e3d6000fd5b505050506040513d601f19601f8201168201806040525081019061176f9190613ec6565b6116e85760405162461bcd60e51b8152600401610caf9061487d565b6040516323b872dd60e01b81526001600160a01b038a16906323b872dd906117bb90339030908c90600401614609565b602060405180830381600087803b1580156117d557600080fd5b505af11580156117e9573d6000803e3d6000fd5b505050506040513d601f19601f8201168201806040525081019061180d9190613ec6565b6118295760405162461bcd60e51b8152600401610caf9061487d565b611837858a8a8a8e89612d48565b7ff2de1389799f0ec6ba8aa31dc85397078c1cdf33a39d903c8463f872606176973360055460405163626885b560e11b81528d916001600160a01b03169063c4d10b6a906118899089906004016147fb565b60206040518083038186803b1580156118a157600080fd5b505afa1580156118b5573d6000803e3d6000fd5b505050506040513d601f19601f820116820180604052508101906118d99190613e06565b8e6040518060400160405280600660009054906101000a90046001600160a01b03166001600160a01b03166001600160a01b031681526020018f6001600160a01b03166001600160a01b03168152508c878d8d8d6040516119439a999897969594939291906146c6565b60405180910390a150506119576001606f55565b505050505050505050565b61196a6123cd565b60af546001600160a01b031633148061199b5750611986611fa9565b6001600160a01b0316336001600160a01b0316145b6119e75760405162461bcd60e51b815260206004820152601e60248201527f45786368616e6765526f757465723a206e6f7420617574686f72697a656400006044820152606401610caf565b600085815260a7602052604090206001015460ff1615611a195760405162461bcd60e51b8152600401610caf9061483c565b600085815260a76020526040908190206001818101805460ff191690911790556002015460065460aa54925163095ea7b360e01b815291926001600160a01b039182169263095ea7b392611a739216908590600401614754565b602060405180830381600087803b158015611a8d57600080fd5b505af1158015611aa1573d6000803e3d6000fd5b505050506040513d601f19601f82011682018060405250810190611ac59190613ec6565b5060055460405163626885b560e11b81526000916001600160a01b03169063c4d10b6a90611af990879087906004016147e7565b60206040518083038186803b158015611b1157600080fd5b505afa158015611b25573d6000803e3d6000fd5b505050506040513d601f19601f82011682018060405250810190611b499190613e06565b60aa549091506000906001600160a01b0316633fea4367848860ff8b166005811115611b8557634e487b7160e01b600052602160045260246000fd5b898960006040518763ffffffff1660e01b8152600401611baa96959493929190614bdf565b602060405180830381600087803b158015611bc457600080fd5b505af1158015611bd8573d6000803e3d6000fd5b505050506040513d601f19601f82011682018060405250810190611bfc9190613fa3565b9050336001600160a01b0316887f79bab54e96d1977794ba96251faf4af21e4c1e824335ed0e33ad672cc463194b85848a8c88600160aa60009054906101000a90046001600160a01b03166001600160a01b031663930a60e88c6040518263ffffffff1660e01b8152600401611c72919061454f565b60206040518083038186803b158015611c8a57600080fd5b505afa158015611c9e573d6000803e3d6000fd5b505050506040513d601f19601f82011682018060405250810190611cc29190613fa3565b611ccc9190614e47565b604051611cde96959493929190614c41565b60405180910390a3505050611cf36001606f55565b5050505050565b611d02612274565b610c3681612f4c565b611d13612274565b610c3681612fb5565b611d24612274565b60008281526008602090815260409182902080546001600160a01b0319166001600160a01b0385169081179091558251858152918201527f31a8c4e62daac2a3ed5d713004d9ae867d6dcddfa35603db2a4b65d9236b1bc1910160405180910390a15050565b611d92612274565b565b611d9c612274565b610c3681612fdc565b611dad612274565b610c368161303f565b600090815260ab602052604090206001015490565b611dd3612274565b6001600160a01b0391909116600090815260b96020526040902055565b5050565b611dfc612274565b60af80546001600160a01b0319166001600160a01b0392909216919091179055565b600a54610100900460ff1615808015611e3e5750600a54600160ff909116105b80611e585750303b158015611e585750600a5460ff166001145b611ebb5760405162461bcd60e51b815260206004820152602e60248201527f496e697469616c697a61626c653a20636f6e747261637420697320616c72656160448201526d191e481a5b9a5d1a585b1a5e995960921b6064820152608401610caf565b600a805460ff191660011790558015611ede57600a805461ff0019166101001790555b611ee66130d1565b611eee613100565b6001889055611efc8b612365565b611f058a612fdc565b611f0e89612fb5565b611f178661312f565b611f20876131c1565b611f298561303f565b611f3284613253565b611f3b83612f4c565b611f44826122d3565b8015611f8a57600a805461ff0019169055604051600181527f7f26b83ff96e1f2b6a682f133852f6798a09c465da95921460cefb38474024989060200160405180910390a15b5050505050505050505050565b611f9f612274565b611df082826132e5565b603d546001600160a01b031690565b611fc0612274565b611df08282613381565b611fd2612274565b611df082826133e9565b611fe4612274565b611fec6123cd565b6001600160a01b038216600114156120145761200f612009611fa9565b82612c32565b61209d565b816001600160a01b031663a9059cbb61202b611fa9565b836040518363ffffffff1660e01b8152600401612049929190614754565b602060405180830381600087803b15801561206357600080fd5b505af1158015612077573d6000803e3d6000fd5b505050506040513d601f19601f8201168201806040525081019061209b9190613ec6565b505b611df06001606f55565b6120af612274565b60b180546001600160a01b0319166001600160a01b0392909216919091179055565b6120d9612274565b6001600160a01b0391909116600090815260b460205260409020805460ff1916911515919091179055565b61210c612274565b610c36816131c1565b61211d612274565b610c368161312f565b61212e612274565b6001600160a01b03928316600090815260b2602090815260408083209483529390529190912080546001600160a01b03191691909216179055565b612171612274565b610c368161344a565b612182612274565b6001600160c01b031992909216600090815260b5602090815260408083209383529290522055565b505050565b6121b7612274565b6001600160c01b03198216600090815260b76020526040902080546001600160a01b0319166001600160a01b0383161790555050565b6121f5612274565b610c3681613253565b612206612274565b6001600160a01b03811661226b5760405162461bcd60e51b815260206004820152602660248201527f4f776e61626c653a206e6577206f776e657220697320746865207a65726f206160448201526564647265737360d01b6064820152608401610caf565b610c36816134b3565b3361227d611fa9565b6001600160a01b031614611d925760405162461bcd60e51b815260206004820181905260248201527f4f776e61626c653a2063616c6c6572206973206e6f7420746865206f776e65726044820152606401610caf565b806001600160a01b0381166122fb5760405163d92e233d60e01b815260040160405180910390fd5b60aa546040517f5b663d57fa8cf393f8c8019f514b25c1b3223c9324a2ce3efe28ce5aef0e62fe9161233a916001600160a01b03909116908590614563565b60405180910390a15060aa80546001600160a01b0319166001600160a01b0392909216919091179055565b60005481116123c85760405162461bcd60e51b815260206004820152602960248201527f434345786368616e6765526f757465723a206c6f77207374617274696e67426c60448201526837b1b5a73ab6b132b960b91b6064820152608401610caf565b600055565b6002606f5414156124205760405162461bcd60e51b815260206004820152601f60248201527f5265656e7472616e637947756172643a207265656e7472616e742063616c6c006044820152606401610caf565b6002606f55565b600081815260b6602052604090819020600181015460069091015460055492516307f3f86760e21b8152919290916001600160a01b0390911690631fcfe19c906124799087903090879060040161480e565b602060405180830381600087803b15801561249357600080fd5b505af11580156124a7573d6000803e3d6000fd5b505050506040513d601f19601f820116820180604052508101906124cb9190613fa3565b50612710600254836124dd9190614e28565b6124e79190614d1d565b600084815260a7602090815260408083206005810194909455600490930154825260ac905220546127109061251c9084614e28565b6125269190614d1d565b600084815260a7602052604090206006015560b054612710906125499084614e28565b6125539190614d1d565b600084815260a7602052604090206007810182905560068101546005909101549091839161258091614d05565b61258a9190614d05565b6125949190614d05565b61259e9083614e47565b600093845260a7602052604090932060020192909255505050565b6125c38383613505565b600083815260a76020526040908190206001818101805460ff191690911790556006546002820154925163a9059cbb60e01b815291926001600160a01b039091169163a9059cbb9161261a91899190600401614754565b602060405180830381600087803b15801561263457600080fd5b505af1158015612648573d6000803e3d6000fd5b505050506040513d601f19601f8201168201806040525081019061266c9190613ec6565b506002810154604080516001600160a01b03881681526020810187905280820192909252517fa691ee9f18c723075ade0e555d96de55c74e3e7b7cddc63a0ecbbff7ee6352e79181900360600190a1600084815260b66020908152604080832060b3909252909120546126dd613c51565b6006546001600160a01b0390811682526008840154600160401b900460c01b6001600160c01b031916600090815260b760209081526040918290205490921691830191909152600984015490820152612734613c51565b600285015481526003840154602082015260408101839052612754613c6f565b600685810154825260078701546020830152600587015460408301528601546060820152600386015461278f90670de0b6b3a7640000614e47565b600387015461279e9086614e28565b6127a89190614d1d565b608082015260055460405163626885b560e11b8152612849916001600160a01b03169063c4d10b6a906127df908c906004016147fb565b60206040518083038186803b1580156127f757600080fd5b505afa15801561280b573d6000803e3d6000fd5b505050506040513d601f19601f8201168201806040525081019061282f9190613e06565b6005870154338c89600001548b600401548d8a8a8a6137e7565b50505050505050505050565b6040805160e080820183528382526020808301899052600088815260b6825284812085516101a081018752815481526001820154938101939093526002808201548488015260038201546060850152600482015460ff90811615156080860152600583015460a0860152600683015460c0860152600783015416151594840194909452855180870180885292968796612a019690959186019491939261010085019290916008850191828b855b82829054906101000a900460c01b6001600160c01b03191681526020019060080190602082600701049283019260010382029150808411612902575050509284525050506009820154602080830191909152600a830154604080840191909152600b840154606080850191909152600c9094015460809384015293855260008d815260a7825284902084516101008101865281548152600182015460ff16151581840152600282015481870152600382015481860152600482015481850152600582015460a0820152600682015460c082015260079091015460e0820152908501529183018b905282018990526001600160a01b038c16910152613845565b915091508115612ae357600086815260a7602052604090206001908101805460ff19169091179055612a338688613505565b6001548314612ade57612ade838660018851612a4f9190614e47565b81518110612a6d57634e487b7160e01b600052603260045260246000fd5b602002602001015160b660008a8152602001908152602001600020600901548460018651612a9b9190614e47565b81518110612ab957634e487b7160e01b600052603260045260246000fd5b602002602001015160b660008c81526020019081526020016000206005015489612d48565b612b61565b600086815260a760208181526040808420600781015460b68452918520600690810154949093526005810154920154909291612b1e91614d05565b612b289190614d05565b612b329190614d05565b90508060a760008981526020019081526020016000206002016000828254612b5a9190614d05565b9091555050505b5050505050505050565b6001606f55565b6001600160a01b038316600090815260b96020526040902054829015612c2b576001548214612c2b5760015460381415612be6576001600160a01b038416600090815260b96020526040902054612bca906012614e47565b612bd590600a614d80565b612bdf9084614d1d565b9050612c2b565b8160381415612c2b576001600160a01b038416600090815260b96020526040902054612c13906012614e47565b612c1e90600a614d80565b612c289084614e28565b90505b9392505050565b80471015612c825760405162461bcd60e51b815260206004820152601d60248201527f416464726573733a20696e73756666696369656e742062616c616e63650000006044820152606401610caf565b6000826001600160a01b03168260405160006040518083038185875af1925050503d8060008114612ccf576040519150601f19603f3d011682016040523d82523d6000602084013e612cd4565b606091505b50509050806121aa5760405162461bcd60e51b815260206004820152603a60248201527f416464726573733a20756e61626c6520746f2073656e642076616c75652c20726044820152791958da5c1a595b9d081b585e481a185d99481c995d995c9d195960321b6064820152608401610caf565b60a85460405163095ea7b360e01b81526001600160a01b038781169263095ea7b392612d7c92909116908790600401614754565b602060405180830381600087803b158015612d9657600080fd5b505af1158015612daa573d6000803e3d6000fd5b505050506040513d601f19601f82011682018060405250810190612dce9190613ec6565b5060606000612dde87868a612b72565b90506000670de0b6b3a7640000612df58582614e47565b612dff9084614e28565b612e099190614d1d565b905088651f2abb7bf89b1415612e995760af546001600160a01b039081169086908a168989858e600042612e3f81613840614d05565b6040805160208101825260008082529151612e689c9b9a9998979695949392919060240161476d565b60408051601f198184030181529190526020810180516001600160e01b03166356aa12e360e11b1790529250612f10565b60af546001600160a01b031685898989858e600042612eba81613840614d05565b6040805160208101825260008082529151612ee39c9b9a9998979695949392919060240161457d565b60408051601f198184030181529190526020810180516001600160e01b0316633dc9c91960e11b17905292505b600083604051602001612f239190614526565b60408051601f1981840301815291905260a854909150611f8a906001600160a01b03168261391c565b60a8546040517f06e5f2ca1234f717a2031f662608c02182d4f8bdc3dab013ec4c04eb9755313291612f8b916001600160a01b03909116908490614563565b60405180910390a160a880546001600160a01b0319166001600160a01b0392909216919091179055565b806127101015612fd75760405162461bcd60e51b8152600401610caf906148b3565b60b055565b806127101015612ffe5760405162461bcd60e51b8152600401610caf906148b3565b60025460408051918252602082018390527f7d205f60891f60851c61cd244ba387d72b6589e7c0ac41b9d909ab0ce2c2a53b910160405180910390a1600255565b806001600160a01b0381166130675760405163d92e233d60e01b815260040160405180910390fd5b6006546040517f36a4c08a38b736dcecb6c328dba61238529620e83ccb23db2cc43cd34ec26096916130a6916001600160a01b03909116908590614563565b60405180910390a150600680546001600160a01b0319166001600160a01b0392909216919091179055565b600a54610100900460ff166130f85760405162461bcd60e51b8152600401610caf906148f8565b611d92613967565b600a54610100900460ff166131275760405162461bcd60e51b8152600401610caf906148f8565b611d92613997565b806001600160a01b0381166131575760405163d92e233d60e01b815260040160405180910390fd5b6003546040517f4c28a3f61a715259c4dc930c23e7423b8fa52e13232c061a6e488729c66184f491613196916001600160a01b03909116908590614563565b60405180910390a150600380546001600160a01b0319166001600160a01b0392909216919091179055565b806001600160a01b0381166131e95760405163d92e233d60e01b815260040160405180910390fd5b6005546040517ffa021c2ec0f46429a53e7f88b88065e40001f50c9d38b2e8b713beaf9828d4c391613228916001600160a01b03909116908590614563565b60405180910390a150600580546001600160a01b0319166001600160a01b0392909216919091179055565b806001600160a01b03811661327b5760405163d92e233d60e01b815260040160405180910390fd5b6007546040517f567657fa3f286518b318f4a29870674f433f622fdfc819691acb13105b228225916132ba916001600160a01b03909116908590614563565b60405180910390a150600780546001600160a01b0319166001600160a01b0392909216919091179055565b600082815260ad6020526040908190205490517f1e73962bcff5b98a9ac70c9b0f71fbb31dc0f5a09348c6d3ceab164169a9e7299161334b9185916001600160a01b03169085909283526001600160a01b03918216602084015216604082015260600190565b60405180910390a1600091825260ad602052604090912080546001600160a01b0319166001600160a01b03909216919091179055565b60408051838152602081018390527f102cb592c601969e68b19c6d96d1fc5f09b9b7214423c922de7dd67fe04cf801910160405180910390a16040805180820182526001805482526020808301958652600094855260ab905291909220915182559151910155565b600082815260ac6020908152604091829020548251858152918201529081018290527f188adabf806a6b6d814acc1dbd9f09e5a251c8c065d6285749a5824e4579b6459060600160405180910390a1600091825260ac602052604090912055565b60a9546040517f4da8064030e901e42f6de0ab04f4c322d7936d0120503addfe8a51f12709068991613489916001600160a01b03909116908490614563565b60405180910390a160a980546001600160a01b0319166001600160a01b0392909216919091179055565b603d80546001600160a01b038381166001600160a01b0319831681179093556040519116919082907f8be0079c531659141344cd1fd0a4f28419497f9722a3daafe3b4186f6b6457e090600090a35050565b600082815260b66020526040902060060154156135b7576006546001600160a01b031663a9059cbb33600085815260b66020526040908190206006015490516001600160e01b031960e085901b168152613563929190600401614754565b602060405180830381600087803b15801561357d57600080fd5b505af1158015613591573d6000803e3d6000fd5b505050506040513d601f19601f820116820180604052508101906135b59190613ec6565b505b600082815260a760205260409020600501541561366957600654600754600084815260a760205260409081902060050154905163a9059cbb60e01b81526001600160a01b039384169363a9059cbb9361361593911691600401614754565b602060405180830381600087803b15801561362f57600080fd5b505af1158015613643573d6000803e3d6000fd5b505050506040513d601f19601f820116820180604052508101906136679190613ec6565b505b600082815260a76020526040902060060154156137305760068054600084815260a760208181526040808420600480820154865260ad845282862054958a905293909252940154935163a9059cbb60e01b81526001600160a01b039384169463a9059cbb946136dc941692909101614754565b602060405180830381600087803b1580156136f657600080fd5b505af115801561370a573d6000803e3d6000fd5b505050506040513d601f19601f8201168201806040525081019061372e9190613ec6565b505b600082815260a7602052604090206007015415611df05760055460405163626885b560e11b8152611df0916001600160a01b03169063c4d10b6a906137799085906004016147fb565b60206040518083038186803b15801561379157600080fd5b505afa1580156137a5573d6000803e3d6000fd5b505050506040513d601f19601f820116820180604052508101906137c99190613e06565b600084815260a76020526040902060078101546004909101546139be565b876001600160a01b031660018a7f49235eee15ff9b68c03c5efd6133fb7c0b976247122a03209c2cb97aabd5558b8d87878d8d8d8a8e60405161383198979695949392919061462d565b60405180910390a450505050505050505050565b6040805160a0810182526006546001600160a01b03908116825260a95481166020830152600154828401526005541660608083019190915233608083015291516341f6f44f60e11b81526000929173d00F8236d8c374aD123B1d74DAA93B5E67eFf655916383ede89e916138be91879190600401614a20565b60006040518083038186803b1580156138d657600080fd5b505af41580156138ea573d6000803e3d6000fd5b505050506040513d6000823e601f3d908101601f191682016040526139129190810190613ee2565b9094909350915050565b606061395e83836040518060400160405280601e81526020017f416464726573733a206c6f772d6c6576656c2063616c6c206661696c65640000815250613b46565b90505b92915050565b600a54610100900460ff1661398e5760405162461bcd60e51b8152600401610caf906148f8565b611d92336134b3565b600a54610100900460ff16612b6b5760405162461bcd60e51b8152600401610caf906148f8565b81156121aa5760b1546001600160a01b031615806139db57508015155b15613a6a5760065460405163a9059cbb60e01b81526001600160a01b039091169063a9059cbb90613a129086908690600401614754565b602060405180830381600087803b158015613a2c57600080fd5b505af1158015613a40573d6000803e3d6000fd5b505050506040513d601f19601f82011682018060405250810190613a649190613ec6565b50505050565b60065460b15460405163095ea7b360e01b81526001600160a01b039283169263095ea7b392613aa0929116908690600401614754565b602060405180830381600087803b158015613aba57600080fd5b505af1158015613ace573d6000803e3d6000fd5b505050506040513d601f19601f82011682018060405250810190613af29190613ec6565b5060b154604051613a64916001600160a01b031690613b179086908690602401614754565b60408051601f198184030181529190526020810180516001600160e01b0316637db4e28f60e01b17905261391c565b6060612c28848460008585843b613b9f5760405162461bcd60e51b815260206004820152601d60248201527f416464726573733a2063616c6c20746f206e6f6e2d636f6e74726163740000006044820152606401610caf565b600080866001600160a01b03168587604051613bbb919061450a565b60006040518083038185875af1925050503d8060008114613bf8576040519150601f19603f3d011682016040523d82523d6000602084013e613bfd565b606091505b5091509150613c0d828286613c18565b979650505050505050565b60608315613c27575081612c2b565b825115613c375782518084602001fd5b8160405162461bcd60e51b8152600401610caf91906147fb565b60405180606001604052806003906020820280368337509192915050565b6040518060a001604052806005906020820280368337509192915050565b600082601f830112613c9d578081fd5b81356020613cb2613cad83614ce2565b614cb2565b80838252828201915082860187848660051b8901011115613cd1578586fd5b855b85811015613cf8578135613ce681614eb6565b84529284019290840190600101613cd3565b5090979650505050505050565b80356001600160e01b031981168114613d1d57600080fd5b919050565b80356001600160c01b031981168114613d1d57600080fd5b60008083601f840112613d4b578182fd5b5081356001600160401b03811115613d61578182fd5b602083019150836020828501011115613d7957600080fd5b9250929050565b600082601f830112613d90578081fd5b81356001600160401b03811115613da957613da9614ea0565b613dbc601f8201601f1916602001614cb2565b818152846020838601011115613dd0578283fd5b816020850160208301379081016020019190915292915050565b600060208284031215613dfb578081fd5b8135612c2b81614eb6565b600060208284031215613e17578081fd5b8151612c2b81614eb6565b60008060408385031215613e34578081fd5b8235613e3f81614eb6565b91506020830135613e4f81614ecb565b809150509250929050565b60008060408385031215613e6c578182fd5b8235613e7781614eb6565b946020939093013593505050565b600080600060608486031215613e99578081fd5b8335613ea481614eb6565b9250602084013591506040840135613ebb81614eb6565b809150509250925092565b600060208284031215613ed7578081fd5b8151612c2b81614ecb565b60008060408385031215613ef4578182fd5b8251613eff81614ecb565b602084810151919350906001600160401b03811115613f1c578283fd5b8401601f81018613613f2c578283fd5b8051613f3a613cad82614ce2565b80828252848201915084840189868560051b8701011115613f59578687fd5b8694505b83851015613f7b578051835260019490940193918501918501613f5d565b5080955050505050509250929050565b600060208284031215613f9c578081fd5b5035919050565b600060208284031215613fb4578081fd5b5051919050565b60008060008060008060c08789031215613fd3578384fd5b863595506020870135613fe581614eb6565b94506040870135613ff581614eb6565b959894975094956060810135955060808101359460a0909101359350915050565b60008060008060008060008060006101208a8c031215614034578687fd5b8935985060208a0135975060408a013561404d81614eb6565b965060608a0135955060808a0135945060a08a0135935060c08a0135925060e08a013591506101008a01356001600160401b0381111561408b578182fd5b6140978c828d01613d80565b9150509295985092959850929598565b60008060008060008060c087890312156140bf578384fd5b86359550602087013594506040870135613ff581614eb6565b6000806000806000608086880312156140ef578283fd5b85359450602086013560ff81168114614106578384fd5b935060408601356001600160401b0380821115614121578485fd5b61412d89838a01613d80565b94506060880135915080821115614142578283fd5b5061414f88828901613d3a565b969995985093965092949392505050565b600060208284031215614171578081fd5b61395e82613d22565b6000806040838503121561418c578182fd5b61419583613d22565b91506020830135613e4f81614eb6565b600080604083850312156141b7578182fd5b613e7783613d22565b6000806000606084860312156141d4578081fd5b6141dd84613d22565b95602085013595506040909401359392505050565b60008060008060608587031215614207578182fd5b84356001600160401b038082111561421d578384fd5b9086019060e08289031215614230578384fd5b614238614c8a565b61424183613d05565b8152602083013582811115614254578586fd5b6142608a828601613d80565b602083015250604083013582811115614277578586fd5b6142838a828601613d80565b60408301525061429560608401613d05565b60608201526080830135608082015260a0830135828111156142b5578586fd5b6142c18a828601613d80565b60a08301525060c083013560c08201528096505060208701359150808211156142e8578384fd5b6142f488838901613d3a565b9095509350604087013591508082111561430c578283fd5b5061431987828801613c8d565b91505092959194509250565b60008060408385031215614337578182fd5b823591506020830135613e4f81614eb6565b6000806040838503121561435b578182fd5b50508035926020909101359150565b6000806000806000806000806000806101408b8d031215614389578384fd5b8a35995060208b0135985060408b0135975060608b0135965060808b01356143b081614eb6565b955060a08b01356143c081614eb6565b945060c08b01356143d081614eb6565b935060e08b01356143e081614eb6565b92506101008b01356143f181614eb6565b91506101208b013561440281614eb6565b809150509295989b9194979a5092959850565b6001600160a01b03169052565b6000815180845260208085019450808401835b8381101561445a5781516001600160a01b031687529582019590820190600101614435565b509495945050505050565b8060005b6002811015613a645781516001600160c01b031916845260209384019390910190600101614469565b8060005b6005811015613a64578151845260209384019390910190600101614496565b81835281816020850137506000828201602090810191909152601f909101601f19169091010190565b600081518084526144f6816020860160208601614e5e565b601f01601f19169290920160200192915050565b6000825161451c818460208701614e5e565b9190910192915050565b60008251614538818460208701614e5e565b641dc0de008360d81b920191825250600501919050565b6001600160a01b0391909116815260200190565b6001600160a01b0392831681529116602082015260400190565b6001600160a01b038d811682528c811660208301528b811660408301528a81166060830152608082018a905260a0820189905260c08201889052861660e082015263ffffffff858116610100830152841661012082015260ff831661014082015260006101806101608301526145f76101808301846144de565b9e9d5050505050505050505050505050565b6001600160a01b039384168152919092166020820152604081019190915260600190565b6001600160a01b0389168152610200810160208083018a60005b600381101561466457815183529183019190830190600101614647565b505050608083018960005b600381101561468c5781518352918301919083019060010161466f565b505050508660e083015285610100830152846101208301526146b2610140830185614492565b826101e08301529998505050505050505050565b6001600160a01b038b8116825260208083018c9052908a1660408301526060820189905261016082019060808301908960005b60028110156147215781516001600160a01b03168452602084019350908201906001016146f9565b5050505060c082019690965260e08101949094526101008401929092526101208301526101409091015295945050505050565b6001600160a01b03929092168252602082015260400190565b60006101808e83528d60208401528c60408401528b60608401528a60808401528960a08401528860c08401528760e084015263ffffffff8088166101008501528087166101208501525060ff8516610140840152806101608401526147d4818401856144de565b9f9e505050505050505050505050505050565b602081526000612c286020830184866144b5565b60208152600061395e60208301846144de565b60608152600061482160608301866144de565b6001600160a01b039490941660208301525060400152919050565b60208082526021908201527f45786368616e6765526f757465723a20616c72656164792070726f63657373656040820152601960fa1b606082015260800190565b6020808252601c908201527b45786368616e6765526f757465723a206e6f20616c6c6f77616e636560201b604082015260600190565b60208082526025908201527f434345786368616e6765526f757465723a20666565206973206f7574206f662060408201526472616e676560d81b606082015260800190565b6020808252602b908201527f496e697469616c697a61626c653a20636f6e7472616374206973206e6f74206960408201526a6e697469616c697a696e6760a81b606082015260800190565b60c08152600063ffffffff60e01b808a511660c084015260208a015160e0808501526149736101a08501826144de565b905060408b015160bf19808684030161010087015261499283836144de565b92508360608e01511661012087015260808d015161014087015260a08d01519350808684030161016087015250506149ca81836144de565b91505060c08a01516101808401528860208401528760408401526149f16060840188614415565b8281036080840152614a048186886144b5565b915050614a1460a0830184614415565b98975050505050505050565b60c08152825160c08201526000602084015161036060e0840152614a486104208401826144de565b90506040850151610100815181860152602082015161012081818801526040840151915061014082818901526060850151925061016083818a015260808601519350610180614a9a818b018615159052565b60a08701516101a08b015260c08701516101c08b015260e08701518015156101e08c015294509486015194614ad36102008b0187614465565b928601516102408a01529085015161026089015284015161028088015292909201516102a0860152505060608581015180516102c0860152602081015115156102e0860152604081015161030086015290810151610320850152608081015161034085015260a081015161036085015260c081015161038085015260e08101516103a08501525060808501516103c084015260a085015183820360bf19016103e0850152614b818282614422565b91505060c0850151614b97610400850182614415565b509050612c2b602083018480516001600160a01b0390811683526020808301518216908401526040808301519084015260608083015182169084015260809182015116910152565b86815260a060208201526000614bf860a08301886144de565b60068710614c1457634e487b7160e01b82526021600452602482fd5b8660408401528281036060840152614c2d8186886144b5565b915050826080830152979650505050505050565b86815285602082015260c060408201526000614c6060c08301876144de565b60ff959095166060830152506001600160a01b0392909216608083015260a0909101529392505050565b60405160e081016001600160401b0381118282101715614cac57614cac614ea0565b60405290565b604051601f8201601f191681016001600160401b0381118282101715614cda57614cda614ea0565b604052919050565b60006001600160401b03821115614cfb57614cfb614ea0565b5060051b60200190565b60008219821115614d1857614d18614e8a565b500190565b600082614d3857634e487b7160e01b81526012600452602481fd5b500490565b600181815b80851115614d78578160001904821115614d5e57614d5e614e8a565b80851615614d6b57918102915b93841c9390800290614d42565b509250929050565b600061395e8383600082614d9657506001613961565b81614da357506000613961565b8160018114614db95760028114614dc357614ddf565b6001915050613961565b60ff841115614dd457614dd4614e8a565b50506001821b613961565b5060208310610133831016604e8410600b8410161715614e02575081810a613961565b614e0c8383614d3d565b8060001904821115614e2057614e20614e8a565b029392505050565b6000816000190483118215151615614e4257614e42614e8a565b500290565b600082821015614e5957614e59614e8a565b500390565b60005b83811015614e79578181015183820152602001614e61565b83811115613a645750506000910152565b634e487b7160e01b600052601160045260246000fd5b634e487b7160e01b600052604160045260246000fd5b6001600160a01b0381168114610c3657600080fd5b8015158114610c3657600080fdfea264697066735822122044c8339e4a5ac24188272ff095537b51e03f31431cde229149336d321b07a29364736f6c63430008040033",
  "deployedBytecode": "0x6080604052600436106102ab5760003560e01c806303c67359146102b757806306be8b0e146102fc5780630f8320ce1461039957806316e1d491146103dc57806317fcb39b146104225780631812adb6146104425780631876dec4146104585780631dc4b09c146104785780631e7107c71461049a5780632554a14c146104ba578063292c1d92146104cd57806329b0db8b146104ed578063303a785d146105005780634e63ba95146105205780635221c1f01461056957806359fd0b0c146105995780635f949129146105c657806361be10f21461060757806361d027b31461062757806363908020146106475780636600203d1461065d5780636b2857ef1461067d5780636c32b2ec1461069d5780636e550f43146106bd5780636e8adf611461071c5780636f37b7c01461075257806370872aa51461077f578063715018a61461079557806375979f79146107aa57806379023909146107e55780637ed55748146108055780637f0f18171461082557806380bc47261461084557806383a369541461087857806386338fe814610898578063878269b5146108b857806387c554f8146108d85780638c0d9dca146108f85780638d3d78cd146109185780638d5fc1d4146109385780638da5cb5b146109585780638f0c50831461096d5780638f9eb78b1461098d57806395ccea67146109ad5780639a8a0592146109cd578063a1809b95146109e3578063a9b6827114610a03578063acc2166a14610a39578063acc6e09214610a59578063b07acef214610ab8578063b14d353214610ad8578063b59589d114610af8578063c805f68b14610b18578063d7fe6b7d14610b38578063da058ae314610b58578063daf44b9314610b78578063e509463814610b98578063f0f4426014610bb8578063f2fde38b14610bd8578063fcb070e214610bf857600080fd5b366102b257005b600080fd5b3480156102c357600080fd5b506102e76102d2366004613dea565b60b46020526000908152604090205460ff1681565b60405190151581526020015b60405180910390f35b34801561030857600080fd5b5061035e610317366004613f8b565b60a76020526000908152604090208054600182015460028301546003840154600485015460058601546006870154600790970154959660ff90951695939492939192909188565b604080519889529615156020890152958701949094526060860192909252608085015260a084015260c083015260e0820152610100016102f3565b3480156103a557600080fd5b506103cf6103b4366004614160565b60b7602052600090815260409020546001600160a01b031681565b6040516102f3919061454f565b3480156103e857600080fd5b506104146103f73660046141a5565b60b560209081526000928352604080842090915290825290205481565b6040519081526020016102f3565b34801561042e57600080fd5b5060a9546103cf906001600160a01b031681565b34801561044e57600080fd5b5061041460025481565b34801561046457600080fd5b506005546103cf906001600160a01b031681565b34801561048457600080fd5b50610498610493366004613dea565b610c25565b005b3480156104a657600080fd5b506104986104b5366004613f8b565b610c39565b6102e76104c83660046141f2565b610c4a565b3480156104d957600080fd5b5060a8546103cf906001600160a01b031681565b6104986104fb366004614016565b61136c565b34801561050c57600080fd5b5061049861051b3660046140d8565b611962565b34801561052c57600080fd5b5061055461053b366004613f8b565b60ab602052600090815260409020805460019091015482565b604080519283526020830191909152016102f3565b34801561057557600080fd5b506102e7610584366004613f8b565b60a66020526000908152604090205460ff1681565b3480156105a557600080fd5b506104146105b4366004613f8b565b60ac6020526000908152604090205481565b3480156105d257600080fd5b506103cf6105e1366004613e5a565b60b26020908152600092835260408084209091529082529020546001600160a01b031681565b34801561061357600080fd5b50610498610622366004613dea565b611cfa565b34801561063357600080fd5b506007546103cf906001600160a01b031681565b34801561065357600080fd5b5061041460b05481565b34801561066957600080fd5b50610498610678366004613f8b565b611d0b565b34801561068957600080fd5b50610498610698366004614325565b611d1c565b3480156106a957600080fd5b5060aa546103cf906001600160a01b031681565b3480156106c957600080fd5b506103cf6106d83660046140a7565b60b86020908152600096875260408088208252958752858720815293865284862084529185528385208352845282842090915282529020546001600160a01b031681565b34801561072857600080fd5b506103cf610737366004613f8b565b6008602052600090815260409020546001600160a01b031681565b34801561075e57600080fd5b5061041461076d366004613f8b565b60b36020526000908152604090205481565b34801561078b57600080fd5b5061041460005481565b3480156107a157600080fd5b50610498611d8a565b3480156107b657600080fd5b506102e76107c5366004614325565b60a560209081526000928352604080842090915290825290205460ff1681565b3480156107f157600080fd5b506004546103cf906001600160a01b031681565b34801561081157600080fd5b50610498610820366004613f8b565b611d94565b34801561083157600080fd5b50610498610840366004613dea565b611da5565b34801561085157600080fd5b506102e7610860366004613f8b565b600090815260b6602052604090206007015460ff1690565b34801561088457600080fd5b50610414610893366004613f8b565b611db6565b3480156108a457600080fd5b506104986108b3366004613e5a565b611dcb565b3480156108c457600080fd5b506104986108d3366004613dea565b611df4565b3480156108e457600080fd5b5060af546103cf906001600160a01b031681565b34801561090457600080fd5b5061049861091336600461436a565b611e1e565b34801561092457600080fd5b506006546103cf906001600160a01b031681565b34801561094457600080fd5b50610498610953366004614325565b611f97565b34801561096457600080fd5b506103cf611fa9565b34801561097957600080fd5b50610498610988366004614349565b611fb8565b34801561099957600080fd5b506104986109a8366004614349565b611fca565b3480156109b957600080fd5b506104986109c8366004613e5a565b611fdc565b3480156109d957600080fd5b5061041460015481565b3480156109ef57600080fd5b506104986109fe366004613dea565b6120a7565b348015610a0f57600080fd5b506103cf610a1e366004613f8b565b60ad602052600090815260409020546001600160a01b031681565b348015610a4557600080fd5b5060b1546103cf906001600160a01b031681565b348015610a6557600080fd5b506103cf610a74366004613fbb565b60ae6020908152600096875260408088208252958752858720815293865284862084529185528385208352845282842090915282529020546001600160a01b031681565b348015610ac457600080fd5b50610498610ad3366004613e22565b6120d1565b348015610ae457600080fd5b50610498610af3366004613dea565b612104565b348015610b0457600080fd5b506003546103cf906001600160a01b031681565b348015610b2457600080fd5b50610498610b33366004613dea565b612115565b348015610b4457600080fd5b50610498610b53366004613e85565b612126565b348015610b6457600080fd5b50610498610b73366004613dea565b612169565b348015610b8457600080fd5b50610498610b933660046141c0565b61217a565b348015610ba457600080fd5b50610498610bb336600461417a565b6121af565b348015610bc457600080fd5b50610498610bd3366004613dea565b6121ed565b348015610be457600080fd5b50610498610bf3366004613dea565b6121fe565b348015610c0457600080fd5b50610414610c13366004613dea565b60b96020526000908152604090205481565b610c2d612274565b610c36816122d3565b50565b610c41612274565b610c3681612365565b6000610c546123cd565b33600090815260b4602052604090205460ff16610cb85760405162461bcd60e51b815260206004820152601e60248201527f45786368616e6765526f757465723a20696e76616c69642073656e646572000060448201526064015b60405180910390fd5b60005485608001511015610d0c5760405162461bcd60e51b815260206004820152601b60248201527a115e18da185b99d9549bdd5d195c8e881bdb19081c995c5d595cdd602a1b6044820152606401610caf565b60055460405163aff2faa360e01b81526001600160a01b039091169063aff2faa390610d3e90879087906004016147e7565b60206040518083038186803b158015610d5657600080fd5b505afa158015610d6a573d6000803e3d6000fd5b505050506040513d601f19601f82011682018060405250810190610d8e9190613ec6565b610dd75760405162461bcd60e51b815260206004820152601a60248201527922bc31b430b733b2a937baba32b91d103737ba103637b1b5b2b960311b6044820152606401610caf565b600654600354604051633b06f0e560e21b815260009273__$62116a2d8fdb45afa1e131c95c47186d10$__9263ec1bc39492610e31928b9260b69260a7926001600160a01b03908116928e928e9290911690600401614943565b60206040518083038186803b158015610e4957600080fd5b505af4158015610e5d573d6000803e3d6000fd5b505050506040513d601f19601f82011682018060405250810190610e819190613fa3565b905082600081518110610ea457634e487b7160e01b600052603260045260246000fd5b60209081029190910101516006546001600160a01b039081169116148015610f7f57508260018451610ed69190614e47565b81518110610ef457634e487b7160e01b600052603260045260246000fd5b60200260200101516001600160a01b031660b7600060b66000858152602001908152602001600020600801600160028110610f3f57634e487b7160e01b600052603260045260246000fd5b60048104919091015460039091166008026101000a900460c01b6001600160c01b03191681526020810191909152604001600020546001600160a01b0316145b610fca5760405162461bcd60e51b815260206004820152601c60248201527b08af0c6d0c2dccecaa4deeae8cae47440d2dcecc2d8d2c840e0c2e8d60231b6044820152606401610caf565b600081815260a76020526040812054610fe290611db6565b9050806110315760405162461bcd60e51b815260206004820181905260248201527f45786368616e6765526f757465723a20696e76616c696420636861696e2069646044820152606401610caf565b600082815260b660209081526040808320600880820154600160401b900460c01b6001600160c01b031916855260b584528285208686528452828520546009830155905484529091529020546001600160a01b0316806110d35760405162461bcd60e51b815260206004820152601d60248201527f45786368616e6765526f757465723a20696e76616c69642061707049640000006044820152606401610caf565b61111487878080601f016020809104026020016040519081016040528093929190818152602001838380828437600092019190915250879250612427915050565b600083815260b66020908152604080832081516101a081018352815481526001820154938101939093526002808201548484015260038201546060850152600482015460ff90811615156080860152600583015460a0860152600683015460c0860152600783015416151560e085015282518084019384905291926101008501929160088501918288855b82829054906101000a900460c01b6001600160c01b0319168152602001906008019060208260070104928301926001038202915080841161119f5790505050505050815260200160098201548152602001600a8201548152602001600b8201548152602001600c820154815250509050806101600151600114156112fd57600084815260b86020908152604080832060a08501518452825280832087845260b6835281842060080154600160401b900460c01b6001600160c01b031916845260b78352818420546001600160a01b0390811685529083528184208583015185528352818420878552835281842088855260a78452828520600301548552909252909120541680156112fb576112ed81868b8b8080601f0160208091040260200160405190810160405280939291908181526020018383808284376000920191909152508a92506125b9915050565b60019550505050505061135a565b505b6113518289898080601f01602080910402602001604051908101604052809392919081815260200183838082843760009201829052508a815260a760205260409020600301548a93508c9250905088612855565b60019450505050505b6113646001606f55565b949350505050565b6113746123cd565b600089815260b6602052604090206007015460ff16156113a65760405162461bcd60e51b8152600401610caf9061483c565b6001600160c01b031960c087901b16600090815260b760205260409020546001600160a01b038881169116146114315760405162461bcd60e51b815260206004820152602a60248201527f45786368616e6765526f757465723a20696e76616c696420696e7465726d656460448201526934b0b93c903a37b5b2b760b11b6064820152608401610caf565b600061143e888786612b72565b90506000670de0b6b3a76400006114558582614e47565b61145f9084614e28565b6114699190614d1d565b9050858110156114cc5760405162461bcd60e51b815260206004820152602860248201527f45786368616e6765526f757465723a20696e73756666696369656e742066696c6044820152671b08185b5bdd5b9d60c21b6064820152608401610caf565b60008b815260b8602090815260408083208d845282528083206001600160a01b038d811685529083528184208a8552835281842089855283528184208885529092529091205416156115605760405162461bcd60e51b815260206004820152601e60248201527f45786368616e6765526f757465723a20616c72656164792066696c6c656400006044820152606401610caf565b60008b815260b8602090815260408083208d845282528083206001600160a01b038d168452825280832089845282528083208884528252808320878452825280832080546001600160a01b031916331790558d835260b3909152902081905560015485141561178b5760a9546001600160a01b038a8116911614156116ed576040516323b872dd60e01b81526001600160a01b038a16906323b872dd9061160f90339030908c90600401614609565b602060405180830381600087803b15801561162957600080fd5b505af115801561163d573d6000803e3d6000fd5b505050506040513d601f19601f820116820180604052508101906116619190613ec6565b61167d5760405162461bcd60e51b8152600401610caf9061487d565b60a954604051632e1a7d4d60e01b8152600481018990526001600160a01b0390911690632e1a7d4d90602401600060405180830381600087803b1580156116c357600080fd5b505af11580156116d7573d6000803e3d6000fd5b505050506116e88a60001c88612c32565b611837565b6040516323b872dd60e01b81526001600160a01b038a16906323b872dd9061171d9033908e908c90600401614609565b602060405180830381600087803b15801561173757600080fd5b505af115801561174b573d6000803e3d6000fd5b505050506040513d601f19601f8201168201806040525081019061176f9190613ec6565b6116e85760405162461bcd60e51b8152600401610caf9061487d565b6040516323b872dd60e01b81526001600160a01b038a16906323b872dd906117bb90339030908c90600401614609565b602060405180830381600087803b1580156117d557600080fd5b505af11580156117e9573d6000803e3d6000fd5b505050506040513d601f19601f8201168201806040525081019061180d9190613ec6565b6118295760405162461bcd60e51b8152600401610caf9061487d565b611837858a8a8a8e89612d48565b7ff2de1389799f0ec6ba8aa31dc85397078c1cdf33a39d903c8463f872606176973360055460405163626885b560e11b81528d916001600160a01b03169063c4d10b6a906118899089906004016147fb565b60206040518083038186803b1580156118a157600080fd5b505afa1580156118b5573d6000803e3d6000fd5b505050506040513d601f19601f820116820180604052508101906118d99190613e06565b8e6040518060400160405280600660009054906101000a90046001600160a01b03166001600160a01b03166001600160a01b031681526020018f6001600160a01b03166001600160a01b03168152508c878d8d8d6040516119439a999897969594939291906146c6565b60405180910390a150506119576001606f55565b505050505050505050565b61196a6123cd565b60af546001600160a01b031633148061199b5750611986611fa9565b6001600160a01b0316336001600160a01b0316145b6119e75760405162461bcd60e51b815260206004820152601e60248201527f45786368616e6765526f757465723a206e6f7420617574686f72697a656400006044820152606401610caf565b600085815260a7602052604090206001015460ff1615611a195760405162461bcd60e51b8152600401610caf9061483c565b600085815260a76020526040908190206001818101805460ff191690911790556002015460065460aa54925163095ea7b360e01b815291926001600160a01b039182169263095ea7b392611a739216908590600401614754565b602060405180830381600087803b158015611a8d57600080fd5b505af1158015611aa1573d6000803e3d6000fd5b505050506040513d601f19601f82011682018060405250810190611ac59190613ec6565b5060055460405163626885b560e11b81526000916001600160a01b03169063c4d10b6a90611af990879087906004016147e7565b60206040518083038186803b158015611b1157600080fd5b505afa158015611b25573d6000803e3d6000fd5b505050506040513d601f19601f82011682018060405250810190611b499190613e06565b60aa549091506000906001600160a01b0316633fea4367848860ff8b166005811115611b8557634e487b7160e01b600052602160045260246000fd5b898960006040518763ffffffff1660e01b8152600401611baa96959493929190614bdf565b602060405180830381600087803b158015611bc457600080fd5b505af1158015611bd8573d6000803e3d6000fd5b505050506040513d601f19601f82011682018060405250810190611bfc9190613fa3565b9050336001600160a01b0316887f79bab54e96d1977794ba96251faf4af21e4c1e824335ed0e33ad672cc463194b85848a8c88600160aa60009054906101000a90046001600160a01b03166001600160a01b031663930a60e88c6040518263ffffffff1660e01b8152600401611c72919061454f565b60206040518083038186803b158015611c8a57600080fd5b505afa158015611c9e573d6000803e3d6000fd5b505050506040513d601f19601f82011682018060405250810190611cc29190613fa3565b611ccc9190614e47565b604051611cde96959493929190614c41565b60405180910390a3505050611cf36001606f55565b5050505050565b611d02612274565b610c3681612f4c565b611d13612274565b610c3681612fb5565b611d24612274565b60008281526008602090815260409182902080546001600160a01b0319166001600160a01b0385169081179091558251858152918201527f31a8c4e62daac2a3ed5d713004d9ae867d6dcddfa35603db2a4b65d9236b1bc1910160405180910390a15050565b611d92612274565b565b611d9c612274565b610c3681612fdc565b611dad612274565b610c368161303f565b600090815260ab602052604090206001015490565b611dd3612274565b6001600160a01b0391909116600090815260b96020526040902055565b5050565b611dfc612274565b60af80546001600160a01b0319166001600160a01b0392909216919091179055565b600a54610100900460ff1615808015611e3e5750600a54600160ff909116105b80611e585750303b158015611e585750600a5460ff166001145b611ebb5760405162461bcd60e51b815260206004820152602e60248201527f496e697469616c697a61626c653a20636f6e747261637420697320616c72656160448201526d191e481a5b9a5d1a585b1a5e995960921b6064820152608401610caf565b600a805460ff191660011790558015611ede57600a805461ff0019166101001790555b611ee66130d1565b611eee613100565b6001889055611efc8b612365565b611f058a612fdc565b611f0e89612fb5565b611f178661312f565b611f20876131c1565b611f298561303f565b611f3284613253565b611f3b83612f4c565b611f44826122d3565b8015611f8a57600a805461ff0019169055604051600181527f7f26b83ff96e1f2b6a682f133852f6798a09c465da95921460cefb38474024989060200160405180910390a15b5050505050505050505050565b611f9f612274565b611df082826132e5565b603d546001600160a01b031690565b611fc0612274565b611df08282613381565b611fd2612274565b611df082826133e9565b611fe4612274565b611fec6123cd565b6001600160a01b038216600114156120145761200f612009611fa9565b82612c32565b61209d565b816001600160a01b031663a9059cbb61202b611fa9565b836040518363ffffffff1660e01b8152600401612049929190614754565b602060405180830381600087803b15801561206357600080fd5b505af1158015612077573d6000803e3d6000fd5b505050506040513d601f19601f8201168201806040525081019061209b9190613ec6565b505b611df06001606f55565b6120af612274565b60b180546001600160a01b0319166001600160a01b0392909216919091179055565b6120d9612274565b6001600160a01b0391909116600090815260b460205260409020805460ff1916911515919091179055565b61210c612274565b610c36816131c1565b61211d612274565b610c368161312f565b61212e612274565b6001600160a01b03928316600090815260b2602090815260408083209483529390529190912080546001600160a01b03191691909216179055565b612171612274565b610c368161344a565b612182612274565b6001600160c01b031992909216600090815260b5602090815260408083209383529290522055565b505050565b6121b7612274565b6001600160c01b03198216600090815260b76020526040902080546001600160a01b0319166001600160a01b0383161790555050565b6121f5612274565b610c3681613253565b612206612274565b6001600160a01b03811661226b5760405162461bcd60e51b815260206004820152602660248201527f4f776e61626c653a206e6577206f776e657220697320746865207a65726f206160448201526564647265737360d01b6064820152608401610caf565b610c36816134b3565b3361227d611fa9565b6001600160a01b031614611d925760405162461bcd60e51b815260206004820181905260248201527f4f776e61626c653a2063616c6c6572206973206e6f7420746865206f776e65726044820152606401610caf565b806001600160a01b0381166122fb5760405163d92e233d60e01b815260040160405180910390fd5b60aa546040517f5b663d57fa8cf393f8c8019f514b25c1b3223c9324a2ce3efe28ce5aef0e62fe9161233a916001600160a01b03909116908590614563565b60405180910390a15060aa80546001600160a01b0319166001600160a01b0392909216919091179055565b60005481116123c85760405162461bcd60e51b815260206004820152602960248201527f434345786368616e6765526f757465723a206c6f77207374617274696e67426c60448201526837b1b5a73ab6b132b960b91b6064820152608401610caf565b600055565b6002606f5414156124205760405162461bcd60e51b815260206004820152601f60248201527f5265656e7472616e637947756172643a207265656e7472616e742063616c6c006044820152606401610caf565b6002606f55565b600081815260b6602052604090819020600181015460069091015460055492516307f3f86760e21b8152919290916001600160a01b0390911690631fcfe19c906124799087903090879060040161480e565b602060405180830381600087803b15801561249357600080fd5b505af11580156124a7573d6000803e3d6000fd5b505050506040513d601f19601f820116820180604052508101906124cb9190613fa3565b50612710600254836124dd9190614e28565b6124e79190614d1d565b600084815260a7602090815260408083206005810194909455600490930154825260ac905220546127109061251c9084614e28565b6125269190614d1d565b600084815260a7602052604090206006015560b054612710906125499084614e28565b6125539190614d1d565b600084815260a7602052604090206007810182905560068101546005909101549091839161258091614d05565b61258a9190614d05565b6125949190614d05565b61259e9083614e47565b600093845260a7602052604090932060020192909255505050565b6125c38383613505565b600083815260a76020526040908190206001818101805460ff191690911790556006546002820154925163a9059cbb60e01b815291926001600160a01b039091169163a9059cbb9161261a91899190600401614754565b602060405180830381600087803b15801561263457600080fd5b505af1158015612648573d6000803e3d6000fd5b505050506040513d601f19601f8201168201806040525081019061266c9190613ec6565b506002810154604080516001600160a01b03881681526020810187905280820192909252517fa691ee9f18c723075ade0e555d96de55c74e3e7b7cddc63a0ecbbff7ee6352e79181900360600190a1600084815260b66020908152604080832060b3909252909120546126dd613c51565b6006546001600160a01b0390811682526008840154600160401b900460c01b6001600160c01b031916600090815260b760209081526040918290205490921691830191909152600984015490820152612734613c51565b600285015481526003840154602082015260408101839052612754613c6f565b600685810154825260078701546020830152600587015460408301528601546060820152600386015461278f90670de0b6b3a7640000614e47565b600387015461279e9086614e28565b6127a89190614d1d565b608082015260055460405163626885b560e11b8152612849916001600160a01b03169063c4d10b6a906127df908c906004016147fb565b60206040518083038186803b1580156127f757600080fd5b505afa15801561280b573d6000803e3d6000fd5b505050506040513d601f19601f8201168201806040525081019061282f9190613e06565b6005870154338c89600001548b600401548d8a8a8a6137e7565b50505050505050505050565b6040805160e080820183528382526020808301899052600088815260b6825284812085516101a081018752815481526001820154938101939093526002808201548488015260038201546060850152600482015460ff90811615156080860152600583015460a0860152600683015460c0860152600783015416151594840194909452855180870180885292968796612a019690959186019491939261010085019290916008850191828b855b82829054906101000a900460c01b6001600160c01b03191681526020019060080190602082600701049283019260010382029150808411612902575050509284525050506009820154602080830191909152600a830154604080840191909152600b840154606080850191909152600c9094015460809384015293855260008d815260a7825284902084516101008101865281548152600182015460ff16151581840152600282015481870152600382015481860152600482015481850152600582015460a0820152600682015460c082015260079091015460e0820152908501529183018b905282018990526001600160a01b038c16910152613845565b915091508115612ae357600086815260a7602052604090206001908101805460ff19169091179055612a338688613505565b6001548314612ade57612ade838660018851612a4f9190614e47565b81518110612a6d57634e487b7160e01b600052603260045260246000fd5b602002602001015160b660008a8152602001908152602001600020600901548460018651612a9b9190614e47565b81518110612ab957634e487b7160e01b600052603260045260246000fd5b602002602001015160b660008c81526020019081526020016000206005015489612d48565b612b61565b600086815260a760208181526040808420600781015460b68452918520600690810154949093526005810154920154909291612b1e91614d05565b612b289190614d05565b612b329190614d05565b90508060a760008981526020019081526020016000206002016000828254612b5a9190614d05565b9091555050505b5050505050505050565b6001606f55565b6001600160a01b038316600090815260b96020526040902054829015612c2b576001548214612c2b5760015460381415612be6576001600160a01b038416600090815260b96020526040902054612bca906012614e47565b612bd590600a614d80565b612bdf9084614d1d565b9050612c2b565b8160381415612c2b576001600160a01b038416600090815260b96020526040902054612c13906012614e47565b612c1e90600a614d80565b612c289084614e28565b90505b9392505050565b80471015612c825760405162461bcd60e51b815260206004820152601d60248201527f416464726573733a20696e73756666696369656e742062616c616e63650000006044820152606401610caf565b6000826001600160a01b03168260405160006040518083038185875af1925050503d8060008114612ccf576040519150601f19603f3d011682016040523d82523d6000602084013e612cd4565b606091505b50509050806121aa5760405162461bcd60e51b815260206004820152603a60248201527f416464726573733a20756e61626c6520746f2073656e642076616c75652c20726044820152791958da5c1a595b9d081b585e481a185d99481c995d995c9d195960321b6064820152608401610caf565b60a85460405163095ea7b360e01b81526001600160a01b038781169263095ea7b392612d7c92909116908790600401614754565b602060405180830381600087803b158015612d9657600080fd5b505af1158015612daa573d6000803e3d6000fd5b505050506040513d601f19601f82011682018060405250810190612dce9190613ec6565b5060606000612dde87868a612b72565b90506000670de0b6b3a7640000612df58582614e47565b612dff9084614e28565b612e099190614d1d565b905088651f2abb7bf89b1415612e995760af546001600160a01b039081169086908a168989858e600042612e3f81613840614d05565b6040805160208101825260008082529151612e689c9b9a9998979695949392919060240161476d565b60408051601f198184030181529190526020810180516001600160e01b03166356aa12e360e11b1790529250612f10565b60af546001600160a01b031685898989858e600042612eba81613840614d05565b6040805160208101825260008082529151612ee39c9b9a9998979695949392919060240161457d565b60408051601f198184030181529190526020810180516001600160e01b0316633dc9c91960e11b17905292505b600083604051602001612f239190614526565b60408051601f1981840301815291905260a854909150611f8a906001600160a01b03168261391c565b60a8546040517f06e5f2ca1234f717a2031f662608c02182d4f8bdc3dab013ec4c04eb9755313291612f8b916001600160a01b03909116908490614563565b60405180910390a160a880546001600160a01b0319166001600160a01b0392909216919091179055565b806127101015612fd75760405162461bcd60e51b8152600401610caf906148b3565b60b055565b806127101015612ffe5760405162461bcd60e51b8152600401610caf906148b3565b60025460408051918252602082018390527f7d205f60891f60851c61cd244ba387d72b6589e7c0ac41b9d909ab0ce2c2a53b910160405180910390a1600255565b806001600160a01b0381166130675760405163d92e233d60e01b815260040160405180910390fd5b6006546040517f36a4c08a38b736dcecb6c328dba61238529620e83ccb23db2cc43cd34ec26096916130a6916001600160a01b03909116908590614563565b60405180910390a150600680546001600160a01b0319166001600160a01b0392909216919091179055565b600a54610100900460ff166130f85760405162461bcd60e51b8152600401610caf906148f8565b611d92613967565b600a54610100900460ff166131275760405162461bcd60e51b8152600401610caf906148f8565b611d92613997565b806001600160a01b0381166131575760405163d92e233d60e01b815260040160405180910390fd5b6003546040517f4c28a3f61a715259c4dc930c23e7423b8fa52e13232c061a6e488729c66184f491613196916001600160a01b03909116908590614563565b60405180910390a150600380546001600160a01b0319166001600160a01b0392909216919091179055565b806001600160a01b0381166131e95760405163d92e233d60e01b815260040160405180910390fd5b6005546040517ffa021c2ec0f46429a53e7f88b88065e40001f50c9d38b2e8b713beaf9828d4c391613228916001600160a01b03909116908590614563565b60405180910390a150600580546001600160a01b0319166001600160a01b0392909216919091179055565b806001600160a01b03811661327b5760405163d92e233d60e01b815260040160405180910390fd5b6007546040517f567657fa3f286518b318f4a29870674f433f622fdfc819691acb13105b228225916132ba916001600160a01b03909116908590614563565b60405180910390a150600780546001600160a01b0319166001600160a01b0392909216919091179055565b600082815260ad6020526040908190205490517f1e73962bcff5b98a9ac70c9b0f71fbb31dc0f5a09348c6d3ceab164169a9e7299161334b9185916001600160a01b03169085909283526001600160a01b03918216602084015216604082015260600190565b60405180910390a1600091825260ad602052604090912080546001600160a01b0319166001600160a01b03909216919091179055565b60408051838152602081018390527f102cb592c601969e68b19c6d96d1fc5f09b9b7214423c922de7dd67fe04cf801910160405180910390a16040805180820182526001805482526020808301958652600094855260ab905291909220915182559151910155565b600082815260ac6020908152604091829020548251858152918201529081018290527f188adabf806a6b6d814acc1dbd9f09e5a251c8c065d6285749a5824e4579b6459060600160405180910390a1600091825260ac602052604090912055565b60a9546040517f4da8064030e901e42f6de0ab04f4c322d7936d0120503addfe8a51f12709068991613489916001600160a01b03909116908490614563565b60405180910390a160a980546001600160a01b0319166001600160a01b0392909216919091179055565b603d80546001600160a01b038381166001600160a01b0319831681179093556040519116919082907f8be0079c531659141344cd1fd0a4f28419497f9722a3daafe3b4186f6b6457e090600090a35050565b600082815260b66020526040902060060154156135b7576006546001600160a01b031663a9059cbb33600085815260b66020526040908190206006015490516001600160e01b031960e085901b168152613563929190600401614754565b602060405180830381600087803b15801561357d57600080fd5b505af1158015613591573d6000803e3d6000fd5b505050506040513d601f19601f820116820180604052508101906135b59190613ec6565b505b600082815260a760205260409020600501541561366957600654600754600084815260a760205260409081902060050154905163a9059cbb60e01b81526001600160a01b039384169363a9059cbb9361361593911691600401614754565b602060405180830381600087803b15801561362f57600080fd5b505af1158015613643573d6000803e3d6000fd5b505050506040513d601f19601f820116820180604052508101906136679190613ec6565b505b600082815260a76020526040902060060154156137305760068054600084815260a760208181526040808420600480820154865260ad845282862054958a905293909252940154935163a9059cbb60e01b81526001600160a01b039384169463a9059cbb946136dc941692909101614754565b602060405180830381600087803b1580156136f657600080fd5b505af115801561370a573d6000803e3d6000fd5b505050506040513d601f19601f8201168201806040525081019061372e9190613ec6565b505b600082815260a7602052604090206007015415611df05760055460405163626885b560e11b8152611df0916001600160a01b03169063c4d10b6a906137799085906004016147fb565b60206040518083038186803b15801561379157600080fd5b505afa1580156137a5573d6000803e3d6000fd5b505050506040513d601f19601f820116820180604052508101906137c99190613e06565b600084815260a76020526040902060078101546004909101546139be565b876001600160a01b031660018a7f49235eee15ff9b68c03c5efd6133fb7c0b976247122a03209c2cb97aabd5558b8d87878d8d8d8a8e60405161383198979695949392919061462d565b60405180910390a450505050505050505050565b6040805160a0810182526006546001600160a01b03908116825260a95481166020830152600154828401526005541660608083019190915233608083015291516341f6f44f60e11b81526000929173__$66c666c7ce54dc3842da163fba5a8df280$__916383ede89e916138be91879190600401614a20565b60006040518083038186803b1580156138d657600080fd5b505af41580156138ea573d6000803e3d6000fd5b505050506040513d6000823e601f3d908101601f191682016040526139129190810190613ee2565b9094909350915050565b606061395e83836040518060400160405280601e81526020017f416464726573733a206c6f772d6c6576656c2063616c6c206661696c65640000815250613b46565b90505b92915050565b600a54610100900460ff1661398e5760405162461bcd60e51b8152600401610caf906148f8565b611d92336134b3565b600a54610100900460ff16612b6b5760405162461bcd60e51b8152600401610caf906148f8565b81156121aa5760b1546001600160a01b031615806139db57508015155b15613a6a5760065460405163a9059cbb60e01b81526001600160a01b039091169063a9059cbb90613a129086908690600401614754565b602060405180830381600087803b158015613a2c57600080fd5b505af1158015613a40573d6000803e3d6000fd5b505050506040513d601f19601f82011682018060405250810190613a649190613ec6565b50505050565b60065460b15460405163095ea7b360e01b81526001600160a01b039283169263095ea7b392613aa0929116908690600401614754565b602060405180830381600087803b158015613aba57600080fd5b505af1158015613ace573d6000803e3d6000fd5b505050506040513d601f19601f82011682018060405250810190613af29190613ec6565b5060b154604051613a64916001600160a01b031690613b179086908690602401614754565b60408051601f198184030181529190526020810180516001600160e01b0316637db4e28f60e01b17905261391c565b6060612c28848460008585843b613b9f5760405162461bcd60e51b815260206004820152601d60248201527f416464726573733a2063616c6c20746f206e6f6e2d636f6e74726163740000006044820152606401610caf565b600080866001600160a01b03168587604051613bbb919061450a565b60006040518083038185875af1925050503d8060008114613bf8576040519150601f19603f3d011682016040523d82523d6000602084013e613bfd565b606091505b5091509150613c0d828286613c18565b979650505050505050565b60608315613c27575081612c2b565b825115613c375782518084602001fd5b8160405162461bcd60e51b8152600401610caf91906147fb565b60405180606001604052806003906020820280368337509192915050565b6040518060a001604052806005906020820280368337509192915050565b600082601f830112613c9d578081fd5b81356020613cb2613cad83614ce2565b614cb2565b80838252828201915082860187848660051b8901011115613cd1578586fd5b855b85811015613cf8578135613ce681614eb6565b84529284019290840190600101613cd3565b5090979650505050505050565b80356001600160e01b031981168114613d1d57600080fd5b919050565b80356001600160c01b031981168114613d1d57600080fd5b60008083601f840112613d4b578182fd5b5081356001600160401b03811115613d61578182fd5b602083019150836020828501011115613d7957600080fd5b9250929050565b600082601f830112613d90578081fd5b81356001600160401b03811115613da957613da9614ea0565b613dbc601f8201601f1916602001614cb2565b818152846020838601011115613dd0578283fd5b816020850160208301379081016020019190915292915050565b600060208284031215613dfb578081fd5b8135612c2b81614eb6565b600060208284031215613e17578081fd5b8151612c2b81614eb6565b60008060408385031215613e34578081fd5b8235613e3f81614eb6565b91506020830135613e4f81614ecb565b809150509250929050565b60008060408385031215613e6c578182fd5b8235613e7781614eb6565b946020939093013593505050565b600080600060608486031215613e99578081fd5b8335613ea481614eb6565b9250602084013591506040840135613ebb81614eb6565b809150509250925092565b600060208284031215613ed7578081fd5b8151612c2b81614ecb565b60008060408385031215613ef4578182fd5b8251613eff81614ecb565b602084810151919350906001600160401b03811115613f1c578283fd5b8401601f81018613613f2c578283fd5b8051613f3a613cad82614ce2565b80828252848201915084840189868560051b8701011115613f59578687fd5b8694505b83851015613f7b578051835260019490940193918501918501613f5d565b5080955050505050509250929050565b600060208284031215613f9c578081fd5b5035919050565b600060208284031215613fb4578081fd5b5051919050565b60008060008060008060c08789031215613fd3578384fd5b863595506020870135613fe581614eb6565b94506040870135613ff581614eb6565b959894975094956060810135955060808101359460a0909101359350915050565b60008060008060008060008060006101208a8c031215614034578687fd5b8935985060208a0135975060408a013561404d81614eb6565b965060608a0135955060808a0135945060a08a0135935060c08a0135925060e08a013591506101008a01356001600160401b0381111561408b578182fd5b6140978c828d01613d80565b9150509295985092959850929598565b60008060008060008060c087890312156140bf578384fd5b86359550602087013594506040870135613ff581614eb6565b6000806000806000608086880312156140ef578283fd5b85359450602086013560ff81168114614106578384fd5b935060408601356001600160401b0380821115614121578485fd5b61412d89838a01613d80565b94506060880135915080821115614142578283fd5b5061414f88828901613d3a565b969995985093965092949392505050565b600060208284031215614171578081fd5b61395e82613d22565b6000806040838503121561418c578182fd5b61419583613d22565b91506020830135613e4f81614eb6565b600080604083850312156141b7578182fd5b613e7783613d22565b6000806000606084860312156141d4578081fd5b6141dd84613d22565b95602085013595506040909401359392505050565b60008060008060608587031215614207578182fd5b84356001600160401b038082111561421d578384fd5b9086019060e08289031215614230578384fd5b614238614c8a565b61424183613d05565b8152602083013582811115614254578586fd5b6142608a828601613d80565b602083015250604083013582811115614277578586fd5b6142838a828601613d80565b60408301525061429560608401613d05565b60608201526080830135608082015260a0830135828111156142b5578586fd5b6142c18a828601613d80565b60a08301525060c083013560c08201528096505060208701359150808211156142e8578384fd5b6142f488838901613d3a565b9095509350604087013591508082111561430c578283fd5b5061431987828801613c8d565b91505092959194509250565b60008060408385031215614337578182fd5b823591506020830135613e4f81614eb6565b6000806040838503121561435b578182fd5b50508035926020909101359150565b6000806000806000806000806000806101408b8d031215614389578384fd5b8a35995060208b0135985060408b0135975060608b0135965060808b01356143b081614eb6565b955060a08b01356143c081614eb6565b945060c08b01356143d081614eb6565b935060e08b01356143e081614eb6565b92506101008b01356143f181614eb6565b91506101208b013561440281614eb6565b809150509295989b9194979a5092959850565b6001600160a01b03169052565b6000815180845260208085019450808401835b8381101561445a5781516001600160a01b031687529582019590820190600101614435565b509495945050505050565b8060005b6002811015613a645781516001600160c01b031916845260209384019390910190600101614469565b8060005b6005811015613a64578151845260209384019390910190600101614496565b81835281816020850137506000828201602090810191909152601f909101601f19169091010190565b600081518084526144f6816020860160208601614e5e565b601f01601f19169290920160200192915050565b6000825161451c818460208701614e5e565b9190910192915050565b60008251614538818460208701614e5e565b641dc0de008360d81b920191825250600501919050565b6001600160a01b0391909116815260200190565b6001600160a01b0392831681529116602082015260400190565b6001600160a01b038d811682528c811660208301528b811660408301528a81166060830152608082018a905260a0820189905260c08201889052861660e082015263ffffffff858116610100830152841661012082015260ff831661014082015260006101806101608301526145f76101808301846144de565b9e9d5050505050505050505050505050565b6001600160a01b039384168152919092166020820152604081019190915260600190565b6001600160a01b0389168152610200810160208083018a60005b600381101561466457815183529183019190830190600101614647565b505050608083018960005b600381101561468c5781518352918301919083019060010161466f565b505050508660e083015285610100830152846101208301526146b2610140830185614492565b826101e08301529998505050505050505050565b6001600160a01b038b8116825260208083018c9052908a1660408301526060820189905261016082019060808301908960005b60028110156147215781516001600160a01b03168452602084019350908201906001016146f9565b5050505060c082019690965260e08101949094526101008401929092526101208301526101409091015295945050505050565b6001600160a01b03929092168252602082015260400190565b60006101808e83528d60208401528c60408401528b60608401528a60808401528960a08401528860c08401528760e084015263ffffffff8088166101008501528087166101208501525060ff8516610140840152806101608401526147d4818401856144de565b9f9e505050505050505050505050505050565b602081526000612c286020830184866144b5565b60208152600061395e60208301846144de565b60608152600061482160608301866144de565b6001600160a01b039490941660208301525060400152919050565b60208082526021908201527f45786368616e6765526f757465723a20616c72656164792070726f63657373656040820152601960fa1b606082015260800190565b6020808252601c908201527b45786368616e6765526f757465723a206e6f20616c6c6f77616e636560201b604082015260600190565b60208082526025908201527f434345786368616e6765526f757465723a20666565206973206f7574206f662060408201526472616e676560d81b606082015260800190565b6020808252602b908201527f496e697469616c697a61626c653a20636f6e7472616374206973206e6f74206960408201526a6e697469616c697a696e6760a81b606082015260800190565b60c08152600063ffffffff60e01b808a511660c084015260208a015160e0808501526149736101a08501826144de565b905060408b015160bf19808684030161010087015261499283836144de565b92508360608e01511661012087015260808d015161014087015260a08d01519350808684030161016087015250506149ca81836144de565b91505060c08a01516101808401528860208401528760408401526149f16060840188614415565b8281036080840152614a048186886144b5565b915050614a1460a0830184614415565b98975050505050505050565b60c08152825160c08201526000602084015161036060e0840152614a486104208401826144de565b90506040850151610100815181860152602082015161012081818801526040840151915061014082818901526060850151925061016083818a015260808601519350610180614a9a818b018615159052565b60a08701516101a08b015260c08701516101c08b015260e08701518015156101e08c015294509486015194614ad36102008b0187614465565b928601516102408a01529085015161026089015284015161028088015292909201516102a0860152505060608581015180516102c0860152602081015115156102e0860152604081015161030086015290810151610320850152608081015161034085015260a081015161036085015260c081015161038085015260e08101516103a08501525060808501516103c084015260a085015183820360bf19016103e0850152614b818282614422565b91505060c0850151614b97610400850182614415565b509050612c2b602083018480516001600160a01b0390811683526020808301518216908401526040808301519084015260608083015182169084015260809182015116910152565b86815260a060208201526000614bf860a08301886144de565b60068710614c1457634e487b7160e01b82526021600452602482fd5b8660408401528281036060840152614c2d8186886144b5565b915050826080830152979650505050505050565b86815285602082015260c060408201526000614c6060c08301876144de565b60ff959095166060830152506001600160a01b0392909216608083015260a0909101529392505050565b60405160e081016001600160401b0381118282101715614cac57614cac614ea0565b60405290565b604051601f8201601f191681016001600160401b0381118282101715614cda57614cda614ea0565b604052919050565b60006001600160401b03821115614cfb57614cfb614ea0565b5060051b60200190565b60008219821115614d1857614d18614e8a565b500190565b600082614d3857634e487b7160e01b81526012600452602481fd5b500490565b600181815b80851115614d78578160001904821115614d5e57614d5e614e8a565b80851615614d6b57918102915b93841c9390800290614d42565b509250929050565b600061395e8383600082614d9657506001613961565b81614da357506000613961565b8160018114614db95760028114614dc357614ddf565b6001915050613961565b60ff841115614dd457614dd4614e8a565b50506001821b613961565b5060208310610133831016604e8410600b8410161715614e02575081810a613961565b614e0c8383614d3d565b8060001904821115614e2057614e20614e8a565b029392505050565b6000816000190483118215151615614e4257614e42614e8a565b500290565b600082821015614e5957614e59614e8a565b500390565b60005b83811015614e79578181015183820152602001614e61565b83811115613a645750506000910152565b634e487b7160e01b600052601160045260246000fd5b634e487b7160e01b600052604160045260246000fd5b6001600160a01b0381168114610c3657600080fd5b8015158114610c3657600080fdfea264697066735822122044c8339e4a5ac24188272ff095537b51e03f31431cde229149336d321b07a29364736f6c63430008040033",
  "libraries": {
    "CcExchangeRouterLib": "0x8776926e75aB6A204fc83BdA4926A7B3257cB0d7",
    "CcExchangeRouterLibExtension": "0xd00F8236d8c374aD123B1d74DAA93B5E67eFf655"
  },
  "devdoc": {
    "kind": "dev",
    "methods": {
      "fillTxV2(bytes32,bytes32,address,bytes32,uint256,uint256,uint256,uint256,bytes)": {
        "params": {
          "_bridgePercentageFee": "Bridge percentage fee",
          "_destRealChainId": "Destination chain id",
          "_fillAmount": "Amount that filler uses to fill the request (this is not necessarily the amount that user receives)",
          "_intermediaryToken": "Address of exchange token in the request",
          "_txId": "Bitcoin request that filler wants to fill",
          "_userRequestedAmount": "Amount that user requested"
        }
      },
      "initialize(uint256,uint256,uint256,uint256,address,address,address,address,address,address)": {
        "params": {
          "_chainId": "Chain Id of the current chain",
          "_lockers": "LockersManager contract address",
          "_protocolPercentageFee": "Protocol percentage fee (min: %0.01).                               This fee goes to treasury from each wrapAndSwap request",
          "_relay": "Address of BitcoinRelay which checks Bitcoin transactions inclusion",
          "_startingBlockNumber": "Transactions that are included in blocks older                             than _startingBlockNumber cannot be processed",
          "_teleBTC": "TeleBTC token",
          "_treasury": "Treasury collects protocol fees"
        }
      },
      "isRequestUsed(bytes32)": {
        "details": "It prevents re-submitting a processed request",
        "params": {
          "_txId": "The transaction ID of request on Bitcoin"
        },
        "returns": {
          "_0": "True if the cc exchange request has been already executed"
        }
      },
      "owner()": {
        "details": "Returns the address of the current owner."
      },
      "renounceOwnership()": {
        "details": "Leaves the contract without owner. It will not be possible to call `onlyOwner` functions. Can only be called by the current owner. NOTE: Renouncing ownership will leave the contract without an owner, thereby disabling any functionality that is only available to the owner."
      },
      "setAcross(address)": {
        "details": "Across is used to send exchanged tokens to other chains"
      },
      "setBridgeTokenIDMapping(bytes8,uint256,bytes32)": {
        "params": {
          "_destinationChainId": "Chain ID of the destination chain",
          "_destinationToken": "Address of the token on the target chain (32 bytes)",
          "_tokenID": "Token ID (8 bytes)"
        }
      },
      "setBridgeTokenMapping(address,uint256,address)": {
        "params": {
          "_destinationToken": "Address of the token on the target chain",
          "_sourceToken": "Address of the token on the current chain"
        }
      },
      "setChainIdMapping(uint256,uint256)": {
        "details": "After processing a request, the exchanged token is sent to the destination chain."
      },
      "setExchangeConnector(uint256,address)": {
        "details": "Users determine which DEX to use by determining the app id."
      },
      "setIntermediaryTokenMapping(bytes8,address)": {
        "params": {
          "_destinationTokenID": "Destination token ID (8 bytes)",
          "_intermediaryToken": "Intermediary token address on the current chain"
        }
      },
      "setRewardDistributor(address)": {
        "details": "This contract distributes locker fee between locker and stakers"
      },
      "setThirdPartyAddress(uint256,address)": {
        "details": "Each third party has an id and an address.      Users determine the third party by determining the id in the request.      Third party fee is sent to the third party address."
      },
      "setThirdPartyFee(uint256,uint256)": {
        "details": "Third party fee is a percentage of the input amount.      Third parties can set their own fees."
      },
      "transferOwnership(address)": {
        "details": "Transfers ownership of the contract to a new account (`newOwner`). Can only be called by the current owner."
      },
      "wrapAndSwapV2((bytes4,bytes,bytes,bytes4,uint256,bytes,uint256),bytes,address[])": {
        "details": "Steps to process a request:      1. Check transaction inclusion on Bitcoin      2. Extract the request info      3. Mint TeleBTC and send fees to protocol, Locker, and third party      4. Exchange TeleBTC for the output token      5.1 Send the output token to the user      5.2 Send TeleBTC to user if exchange fails and the request belongs to the current chain      5.3 Keep TeleBTC if exchange fails and the request doesn't belong to the current chain",
        "params": {
          "_lockerLockingScript": "Script hash of Locker that user has sent BTC to it",
          "_path": "(Optional) Exchange path from teleBTC to the intermediary token",
          "_txAndProof": "Transaction and inclusion proof data"
        }
      }
    },
    "version": 1
  },
  "userdoc": {
    "events": {
      "FailedWrapAndSwapV2(address,bytes32,bytes32[3],uint256[3],uint256,address,bytes32,uint256,uint256,uint256[5],uint256)": {
        "notice": "Emits when a cc exchange request fails"
      },
      "NewChainIdMapping(uint256,uint256)": {
        "notice": "Emit when new chain id mapping added"
      },
      "NewLockers(address,address)": {
        "notice": "Emit when lockers contract updated"
      },
      "NewProtocolPercentageFee(uint256,uint256)": {
        "notice": "Emit when protocol fee updated"
      },
      "NewRelay(address,address)": {
        "notice": "Emit when relay contract updated"
      },
      "NewTeleBTC(address,address)": {
        "notice": "Emit when telebtc contract updated"
      },
      "NewThirdPartyAddress(uint256,address,address)": {
        "notice": "Emit when third party address updated"
      },
      "NewThirdPartyFee(uint256,uint256,uint256)": {
        "notice": "Emit when third party fee updated"
      },
      "NewTreasury(address,address)": {
        "notice": "Emit when treasury address updated"
      },
      "NewWrapAndSwapV2(address,bytes32,bytes32[3],uint256[3],uint256,address,bytes32,uint256,uint256,uint256[5],uint256)": {
        "notice": "Emits when a cc exchange request gets done"
      },
      "NewWrappedNativeToken(address,address)": {
        "notice": "Emits when wrapped native token addr updated"
      },
      "RefundProcessed(bytes32,address,uint256,uint256,bytes,uint8,address,uint256)": {
        "notice": "Emits when a failed request is refunded"
      },
      "RequestFilledV2(address,bytes32,address,bytes32,address[2],uint256,uint256,uint256,uint256,uint256)": {
        "notice": "Emits when a new filler fills a request"
      },
      "SetExchangeConnector(uint256,address)": {
        "notice": "Emits when appId for an exchange connector is set"
      }
    },
    "kind": "user",
    "methods": {
      "emergencyWithdraw(address,uint256)": {
        "notice": "Emergency withdraw tokens from contract"
      },
      "fillTxV2(bytes32,bytes32,address,bytes32,uint256,uint256,uint256,uint256,bytes)": {
        "notice": "Filler fills an upcoming exchange request"
      },
      "getRealChainId(uint256)": {
        "notice": "Return the destination chain"
      },
      "initialize(uint256,uint256,uint256,uint256,address,address,address,address,address,address)": {
        "notice": "Initialize CcExchangeRouter"
      },
      "isRequestUsed(bytes32)": {
        "notice": "Check if a request has been processed"
      },
      "setAcross(address)": {
        "notice": "Setter for across"
      },
      "setAcrossAdmin(address)": {
        "notice": "Setter for Across Admin"
      },
      "setBridgeTokenIDMapping(bytes8,uint256,bytes32)": {
        "notice": "Setter for bridge token ID mapping"
      },
      "setBridgeTokenMapping(address,uint256,address)": {
        "notice": "Setter for bridge token mapping"
      },
      "setBurnRouter(address)": {
        "notice": "Setter for BurnRouter"
      },
      "setChainIdMapping(uint256,uint256)": {
        "notice": "Setter for chain id mapping"
      },
      "setExchangeConnector(uint256,address)": {
        "notice": "Assign an exchange connector to an app id"
      },
      "setInputTokenDecimalsOnDestinationChain(address,uint256)": {
        "notice": "Setter for output token decimals"
      },
      "setIntermediaryTokenMapping(bytes8,address)": {
        "notice": "Setter for intermediary token mapping"
      },
      "setLockerPercentageFee(uint256)": {
        "notice": "Setter for locker percentage fee"
      },
      "setLockers(address)": {
        "notice": "Update LockersManager address"
      },
      "setProtocolPercentageFee(uint256)": {
        "notice": "Setter for protocol percentage fee"
      },
      "setRelay(address)": {
        "notice": "Update Relay address"
      },
      "setRewardDistributor(address)": {
        "notice": "Setter for reward distributor"
      },
      "setStartingBlockNumber(uint256)": {
        "notice": "Setter for starting block number"
      },
      "setTeleBTC(address)": {
        "notice": "Update TeleBTC address"
      },
      "setTeleporter(address,bool)": {
        "notice": "Setter for teleporter"
      },
      "setThirdPartyAddress(uint256,address)": {
        "notice": "Setter for third party"
      },
      "setThirdPartyFee(uint256,uint256)": {
        "notice": "Setter for third party fee"
      },
      "setTreasury(address)": {
        "notice": "Setter for treasury"
      },
      "setWrappedNativeToken(address)": {
        "notice": "Setter for wrapped native token"
      },
      "wrapAndSwapV2((bytes4,bytes,bytes,bytes4,uint256,bytes,uint256),bytes,address[])": {
        "notice": "Process a wrapAndSwap to Solana request after checking its inclusion on Bitcoin"
      }
    },
    "version": 1
  },
  "storageLayout": {
    "storage": [
      {
        "astId": 10888,
        "contract": "contracts/routers/CcExchangeRouterLogic.sol:CcExchangeRouterLogic",
        "label": "startingBlockNumber",
        "offset": 0,
        "slot": "0",
        "type": "t_uint256"
      },
      {
        "astId": 10891,
        "contract": "contracts/routers/CcExchangeRouterLogic.sol:CcExchangeRouterLogic",
        "label": "chainId",
        "offset": 0,
        "slot": "1",
        "type": "t_uint256"
      },
      {
        "astId": 10894,
        "contract": "contracts/routers/CcExchangeRouterLogic.sol:CcExchangeRouterLogic",
        "label": "protocolPercentageFee",
        "offset": 0,
        "slot": "2",
        "type": "t_uint256"
      },
      {
        "astId": 10897,
        "contract": "contracts/routers/CcExchangeRouterLogic.sol:CcExchangeRouterLogic",
        "label": "relay",
        "offset": 0,
        "slot": "3",
        "type": "t_address"
      },
      {
        "astId": 10899,
        "contract": "contracts/routers/CcExchangeRouterLogic.sol:CcExchangeRouterLogic",
        "label": "specialTeleporter",
        "offset": 0,
        "slot": "4",
        "type": "t_address"
      },
      {
        "astId": 10902,
        "contract": "contracts/routers/CcExchangeRouterLogic.sol:CcExchangeRouterLogic",
        "label": "lockers",
        "offset": 0,
        "slot": "5",
        "type": "t_address"
      },
      {
        "astId": 10905,
        "contract": "contracts/routers/CcExchangeRouterLogic.sol:CcExchangeRouterLogic",
        "label": "teleBTC",
        "offset": 0,
        "slot": "6",
        "type": "t_address"
      },
      {
        "astId": 10908,
        "contract": "contracts/routers/CcExchangeRouterLogic.sol:CcExchangeRouterLogic",
        "label": "treasury",
        "offset": 0,
        "slot": "7",
        "type": "t_address"
      },
      {
        "astId": 10913,
        "contract": "contracts/routers/CcExchangeRouterLogic.sol:CcExchangeRouterLogic",
        "label": "exchangeConnector",
        "offset": 0,
        "slot": "8",
        "type": "t_mapping(t_uint256,t_address)"
      },
      {
        "astId": 10918,
        "contract": "contracts/routers/CcExchangeRouterLogic.sol:CcExchangeRouterLogic",
        "label": "ccExchangeRequests",
        "offset": 0,
        "slot": "9",
        "type": "t_mapping(t_bytes32,t_struct(ccExchangeRequest)11867_storage)"
      },
      {
        "astId": 139,
        "contract": "contracts/routers/CcExchangeRouterLogic.sol:CcExchangeRouterLogic",
        "label": "_initialized",
        "offset": 0,
        "slot": "10",
        "type": "t_uint8"
      },
      {
        "astId": 142,
        "contract": "contracts/routers/CcExchangeRouterLogic.sol:CcExchangeRouterLogic",
        "label": "_initializing",
        "offset": 1,
        "slot": "10",
        "type": "t_bool"
      },
      {
        "astId": 844,
        "contract": "contracts/routers/CcExchangeRouterLogic.sol:CcExchangeRouterLogic",
        "label": "__gap",
        "offset": 0,
        "slot": "11",
        "type": "t_array(t_uint256)50_storage"
      },
      {
        "astId": 11,
        "contract": "contracts/routers/CcExchangeRouterLogic.sol:CcExchangeRouterLogic",
        "label": "_owner",
        "offset": 0,
        "slot": "61",
        "type": "t_address"
      },
      {
        "astId": 131,
        "contract": "contracts/routers/CcExchangeRouterLogic.sol:CcExchangeRouterLogic",
        "label": "__gap",
        "offset": 0,
        "slot": "62",
        "type": "t_array(t_uint256)49_storage"
      },
      {
        "astId": 316,
        "contract": "contracts/routers/CcExchangeRouterLogic.sol:CcExchangeRouterLogic",
        "label": "_status",
        "offset": 0,
        "slot": "111",
        "type": "t_uint256"
      },
      {
        "astId": 385,
        "contract": "contracts/routers/CcExchangeRouterLogic.sol:CcExchangeRouterLogic",
        "label": "__gap",
        "offset": 0,
        "slot": "112",
        "type": "t_array(t_uint256)49_storage"
      },
      {
        "astId": 10937,
        "contract": "contracts/routers/CcExchangeRouterLogic.sol:CcExchangeRouterLogic",
        "label": "one",
        "offset": 0,
        "slot": "161",
        "type": "t_uint256"
      },
      {
        "astId": 10944,
        "contract": "contracts/routers/CcExchangeRouterLogic.sol:CcExchangeRouterLogic",
        "label": "two",
        "offset": 0,
        "slot": "162",
        "type": "t_mapping(t_bytes32,t_mapping(t_address,t_struct(FillerData)11946_storage))"
      },
      {
        "astId": 10951,
        "contract": "contracts/routers/CcExchangeRouterLogic.sol:CcExchangeRouterLogic",
        "label": "three",
        "offset": 0,
        "slot": "163",
        "type": "t_mapping(t_bytes32,t_mapping(t_address,t_struct(PrefixFillSum)11952_storage))"
      },
      {
        "astId": 10956,
        "contract": "contracts/routers/CcExchangeRouterLogic.sol:CcExchangeRouterLogic",
        "label": "four",
        "offset": 0,
        "slot": "164",
        "type": "t_mapping(t_bytes32,t_struct(FillData)11939_storage)"
      },
      {
        "astId": 10963,
        "contract": "contracts/routers/CcExchangeRouterLogic.sol:CcExchangeRouterLogic",
        "label": "isTokenSupported",
        "offset": 0,
        "slot": "165",
        "type": "t_mapping(t_uint256,t_mapping(t_address,t_bool))"
      },
      {
        "astId": 10968,
        "contract": "contracts/routers/CcExchangeRouterLogic.sol:CcExchangeRouterLogic",
        "label": "isChainSupported",
        "offset": 0,
        "slot": "166",
        "type": "t_mapping(t_uint256,t_bool)"
      },
      {
        "astId": 10973,
        "contract": "contracts/routers/CcExchangeRouterLogic.sol:CcExchangeRouterLogic",
        "label": "extendedCcExchangeRequests",
        "offset": 0,
        "slot": "167",
        "type": "t_mapping(t_bytes32,t_struct(extendedCcExchangeRequest)11913_storage)"
      },
      {
        "astId": 10976,
        "contract": "contracts/routers/CcExchangeRouterLogic.sol:CcExchangeRouterLogic",
        "label": "across",
        "offset": 0,
        "slot": "168",
        "type": "t_address"
      },
      {
        "astId": 10978,
        "contract": "contracts/routers/CcExchangeRouterLogic.sol:CcExchangeRouterLogic",
        "label": "wrappedNativeToken",
        "offset": 0,
        "slot": "169",
        "type": "t_address"
      },
      {
        "astId": 10981,
        "contract": "contracts/routers/CcExchangeRouterLogic.sol:CcExchangeRouterLogic",
        "label": "burnRouter",
        "offset": 0,
        "slot": "170",
        "type": "t_address"
      },
      {
        "astId": 10986,
        "contract": "contracts/routers/CcExchangeRouterLogic.sol:CcExchangeRouterLogic",
        "label": "chainIdMapping",
        "offset": 0,
        "slot": "171",
        "type": "t_mapping(t_uint256,t_struct(chainIdStruct)11843_storage)"
      },
      {
        "astId": 10990,
        "contract": "contracts/routers/CcExchangeRouterLogic.sol:CcExchangeRouterLogic",
        "label": "thirdPartyFee",
        "offset": 0,
        "slot": "172",
        "type": "t_mapping(t_uint256,t_uint256)"
      },
      {
        "astId": 10994,
        "contract": "contracts/routers/CcExchangeRouterLogic.sol:CcExchangeRouterLogic",
        "label": "thirdPartyAddress",
        "offset": 0,
        "slot": "173",
        "type": "t_mapping(t_uint256,t_address)"
      },
      {
        "astId": 11008,
        "contract": "contracts/routers/CcExchangeRouterLogic.sol:CcExchangeRouterLogic",
        "label": "fillerAddress",
        "offset": 0,
        "slot": "174",
        "type": "t_mapping(t_bytes32,t_mapping(t_address,t_mapping(t_address,t_mapping(t_uint256,t_mapping(t_uint256,t_mapping(t_uint256,t_address))))))"
      },
      {
        "astId": 11013,
        "contract": "contracts/routers/CcExchangeRouterLogic.sol:CcExchangeRouterLogic",
        "label": "acrossAdmin",
        "offset": 0,
        "slot": "175",
        "type": "t_address"
      },
      {
        "astId": 11015,
        "contract": "contracts/routers/CcExchangeRouterLogic.sol:CcExchangeRouterLogic",
        "label": "lockerPercentageFee",
        "offset": 0,
        "slot": "176",
        "type": "t_uint256"
      },
      {
        "astId": 11017,
        "contract": "contracts/routers/CcExchangeRouterLogic.sol:CcExchangeRouterLogic",
        "label": "rewardDistributor",
        "offset": 0,
        "slot": "177",
        "type": "t_address"
      },
      {
        "astId": 11023,
        "contract": "contracts/routers/CcExchangeRouterLogic.sol:CcExchangeRouterLogic",
        "label": "bridgeTokenMapping",
        "offset": 0,
        "slot": "178",
        "type": "t_mapping(t_address,t_mapping(t_uint256,t_address))"
      },
      {
        "astId": 11027,
        "contract": "contracts/routers/CcExchangeRouterLogic.sol:CcExchangeRouterLogic",
        "label": "finalAmount",
        "offset": 0,
        "slot": "179",
        "type": "t_mapping(t_bytes32,t_uint256)"
      },
      {
        "astId": 11031,
        "contract": "contracts/routers/CcExchangeRouterLogic.sol:CcExchangeRouterLogic",
        "label": "isTeleporter",
        "offset": 0,
        "slot": "180",
        "type": "t_mapping(t_address,t_bool)"
      },
      {
        "astId": 11037,
        "contract": "contracts/routers/CcExchangeRouterLogic.sol:CcExchangeRouterLogic",
        "label": "bridgeTokenIDMapping",
        "offset": 0,
        "slot": "181",
        "type": "t_mapping(t_bytes8,t_mapping(t_uint256,t_bytes32))"
      },
      {
        "astId": 11042,
        "contract": "contracts/routers/CcExchangeRouterLogic.sol:CcExchangeRouterLogic",
        "label": "ccExchangeRequestsV2",
        "offset": 0,
        "slot": "182",
        "type": "t_mapping(t_bytes32,t_struct(ccExchangeRequestV2)11896_storage)"
      },
      {
        "astId": 11046,
        "contract": "contracts/routers/CcExchangeRouterLogic.sol:CcExchangeRouterLogic",
        "label": "intermediaryTokenMapping",
        "offset": 0,
        "slot": "183",
        "type": "t_mapping(t_bytes8,t_address)"
      },
      {
        "astId": 11060,
        "contract": "contracts/routers/CcExchangeRouterLogic.sol:CcExchangeRouterLogic",
        "label": "fillerAddressV2",
        "offset": 0,
        "slot": "184",
        "type": "t_mapping(t_bytes32,t_mapping(t_bytes32,t_mapping(t_address,t_mapping(t_uint256,t_mapping(t_uint256,t_mapping(t_uint256,t_address))))))"
      },
      {
        "astId": 11064,
        "contract": "contracts/routers/CcExchangeRouterLogic.sol:CcExchangeRouterLogic",
        "label": "inputTokenDecimalsOnDestinationChain",
        "offset": 0,
        "slot": "185",
        "type": "t_mapping(t_address,t_uint256)"
      }
    ],
    "types": {
      "t_address": {
        "encoding": "inplace",
        "label": "address",
        "numberOfBytes": "20"
      },
      "t_array(t_address)dyn_storage": {
        "base": "t_address",
        "encoding": "dynamic_array",
        "label": "address[]",
        "numberOfBytes": "32"
      },
      "t_array(t_bytes8)2_storage": {
        "base": "t_bytes8",
        "encoding": "inplace",
        "label": "bytes8[2]",
        "numberOfBytes": "32"
      },
      "t_array(t_uint256)49_storage": {
        "base": "t_uint256",
        "encoding": "inplace",
        "label": "uint256[49]",
        "numberOfBytes": "1568"
      },
      "t_array(t_uint256)50_storage": {
        "base": "t_uint256",
        "encoding": "inplace",
        "label": "uint256[50]",
        "numberOfBytes": "1600"
      },
      "t_array(t_uint256)dyn_storage": {
        "base": "t_uint256",
        "encoding": "dynamic_array",
        "label": "uint256[]",
        "numberOfBytes": "32"
      },
      "t_bool": {
        "encoding": "inplace",
        "label": "bool",
        "numberOfBytes": "1"
      },
      "t_bytes32": {
        "encoding": "inplace",
        "label": "bytes32",
        "numberOfBytes": "32"
      },
      "t_bytes8": {
        "encoding": "inplace",
        "label": "bytes8",
        "numberOfBytes": "8"
      },
      "t_mapping(t_address,t_bool)": {
        "encoding": "mapping",
        "key": "t_address",
        "label": "mapping(address => bool)",
        "numberOfBytes": "32",
        "value": "t_bool"
      },
      "t_mapping(t_address,t_mapping(t_address,t_mapping(t_uint256,t_mapping(t_uint256,t_mapping(t_uint256,t_address)))))": {
        "encoding": "mapping",
        "key": "t_address",
        "label": "mapping(address => mapping(address => mapping(uint256 => mapping(uint256 => mapping(uint256 => address)))))",
        "numberOfBytes": "32",
        "value": "t_mapping(t_address,t_mapping(t_uint256,t_mapping(t_uint256,t_mapping(t_uint256,t_address))))"
      },
      "t_mapping(t_address,t_mapping(t_uint256,t_address))": {
        "encoding": "mapping",
        "key": "t_address",
        "label": "mapping(address => mapping(uint256 => address))",
        "numberOfBytes": "32",
        "value": "t_mapping(t_uint256,t_address)"
      },
      "t_mapping(t_address,t_mapping(t_uint256,t_mapping(t_uint256,t_mapping(t_uint256,t_address))))": {
        "encoding": "mapping",
        "key": "t_address",
        "label": "mapping(address => mapping(uint256 => mapping(uint256 => mapping(uint256 => address))))",
        "numberOfBytes": "32",
        "value": "t_mapping(t_uint256,t_mapping(t_uint256,t_mapping(t_uint256,t_address)))"
      },
      "t_mapping(t_address,t_struct(FillerData)11946_storage)": {
        "encoding": "mapping",
        "key": "t_address",
        "label": "mapping(address => struct ICcExchangeRouter.FillerData)",
        "numberOfBytes": "32",
        "value": "t_struct(FillerData)11946_storage"
      },
      "t_mapping(t_address,t_struct(PrefixFillSum)11952_storage)": {
        "encoding": "mapping",
        "key": "t_address",
        "label": "mapping(address => struct ICcExchangeRouter.PrefixFillSum)",
        "numberOfBytes": "32",
        "value": "t_struct(PrefixFillSum)11952_storage"
      },
      "t_mapping(t_address,t_uint256)": {
        "encoding": "mapping",
        "key": "t_address",
        "label": "mapping(address => uint256)",
        "numberOfBytes": "32",
        "value": "t_uint256"
      },
      "t_mapping(t_bytes32,t_mapping(t_address,t_mapping(t_address,t_mapping(t_uint256,t_mapping(t_uint256,t_mapping(t_uint256,t_address))))))": {
        "encoding": "mapping",
        "key": "t_bytes32",
        "label": "mapping(bytes32 => mapping(address => mapping(address => mapping(uint256 => mapping(uint256 => mapping(uint256 => address))))))",
        "numberOfBytes": "32",
        "value": "t_mapping(t_address,t_mapping(t_address,t_mapping(t_uint256,t_mapping(t_uint256,t_mapping(t_uint256,t_address)))))"
      },
      "t_mapping(t_bytes32,t_mapping(t_address,t_mapping(t_uint256,t_mapping(t_uint256,t_mapping(t_uint256,t_address)))))": {
        "encoding": "mapping",
        "key": "t_bytes32",
        "label": "mapping(bytes32 => mapping(address => mapping(uint256 => mapping(uint256 => mapping(uint256 => address)))))",
        "numberOfBytes": "32",
        "value": "t_mapping(t_address,t_mapping(t_uint256,t_mapping(t_uint256,t_mapping(t_uint256,t_address))))"
      },
      "t_mapping(t_bytes32,t_mapping(t_address,t_struct(FillerData)11946_storage))": {
        "encoding": "mapping",
        "key": "t_bytes32",
        "label": "mapping(bytes32 => mapping(address => struct ICcExchangeRouter.FillerData))",
        "numberOfBytes": "32",
        "value": "t_mapping(t_address,t_struct(FillerData)11946_storage)"
      },
      "t_mapping(t_bytes32,t_mapping(t_address,t_struct(PrefixFillSum)11952_storage))": {
        "encoding": "mapping",
        "key": "t_bytes32",
        "label": "mapping(bytes32 => mapping(address => struct ICcExchangeRouter.PrefixFillSum))",
        "numberOfBytes": "32",
        "value": "t_mapping(t_address,t_struct(PrefixFillSum)11952_storage)"
      },
      "t_mapping(t_bytes32,t_mapping(t_bytes32,t_mapping(t_address,t_mapping(t_uint256,t_mapping(t_uint256,t_mapping(t_uint256,t_address))))))": {
        "encoding": "mapping",
        "key": "t_bytes32",
        "label": "mapping(bytes32 => mapping(bytes32 => mapping(address => mapping(uint256 => mapping(uint256 => mapping(uint256 => address))))))",
        "numberOfBytes": "32",
        "value": "t_mapping(t_bytes32,t_mapping(t_address,t_mapping(t_uint256,t_mapping(t_uint256,t_mapping(t_uint256,t_address)))))"
      },
      "t_mapping(t_bytes32,t_struct(FillData)11939_storage)": {
        "encoding": "mapping",
        "key": "t_bytes32",
        "label": "mapping(bytes32 => struct ICcExchangeRouter.FillData)",
        "numberOfBytes": "32",
        "value": "t_struct(FillData)11939_storage"
      },
      "t_mapping(t_bytes32,t_struct(ccExchangeRequest)11867_storage)": {
        "encoding": "mapping",
        "key": "t_bytes32",
        "label": "mapping(bytes32 => struct ICcExchangeRouter.ccExchangeRequest)",
        "numberOfBytes": "32",
        "value": "t_struct(ccExchangeRequest)11867_storage"
      },
      "t_mapping(t_bytes32,t_struct(ccExchangeRequestV2)11896_storage)": {
        "encoding": "mapping",
        "key": "t_bytes32",
        "label": "mapping(bytes32 => struct ICcExchangeRouter.ccExchangeRequestV2)",
        "numberOfBytes": "32",
        "value": "t_struct(ccExchangeRequestV2)11896_storage"
      },
      "t_mapping(t_bytes32,t_struct(extendedCcExchangeRequest)11913_storage)": {
        "encoding": "mapping",
        "key": "t_bytes32",
        "label": "mapping(bytes32 => struct ICcExchangeRouter.extendedCcExchangeRequest)",
        "numberOfBytes": "32",
        "value": "t_struct(extendedCcExchangeRequest)11913_storage"
      },
      "t_mapping(t_bytes32,t_uint256)": {
        "encoding": "mapping",
        "key": "t_bytes32",
        "label": "mapping(bytes32 => uint256)",
        "numberOfBytes": "32",
        "value": "t_uint256"
      },
      "t_mapping(t_bytes8,t_address)": {
        "encoding": "mapping",
        "key": "t_bytes8",
        "label": "mapping(bytes8 => address)",
        "numberOfBytes": "32",
        "value": "t_address"
      },
      "t_mapping(t_bytes8,t_mapping(t_uint256,t_bytes32))": {
        "encoding": "mapping",
        "key": "t_bytes8",
        "label": "mapping(bytes8 => mapping(uint256 => bytes32))",
        "numberOfBytes": "32",
        "value": "t_mapping(t_uint256,t_bytes32)"
      },
      "t_mapping(t_uint256,t_address)": {
        "encoding": "mapping",
        "key": "t_uint256",
        "label": "mapping(uint256 => address)",
        "numberOfBytes": "32",
        "value": "t_address"
      },
      "t_mapping(t_uint256,t_bool)": {
        "encoding": "mapping",
        "key": "t_uint256",
        "label": "mapping(uint256 => bool)",
        "numberOfBytes": "32",
        "value": "t_bool"
      },
      "t_mapping(t_uint256,t_bytes32)": {
        "encoding": "mapping",
        "key": "t_uint256",
        "label": "mapping(uint256 => bytes32)",
        "numberOfBytes": "32",
        "value": "t_bytes32"
      },
      "t_mapping(t_uint256,t_mapping(t_address,t_bool))": {
        "encoding": "mapping",
        "key": "t_uint256",
        "label": "mapping(uint256 => mapping(address => bool))",
        "numberOfBytes": "32",
        "value": "t_mapping(t_address,t_bool)"
      },
      "t_mapping(t_uint256,t_mapping(t_uint256,t_address))": {
        "encoding": "mapping",
        "key": "t_uint256",
        "label": "mapping(uint256 => mapping(uint256 => address))",
        "numberOfBytes": "32",
        "value": "t_mapping(t_uint256,t_address)"
      },
      "t_mapping(t_uint256,t_mapping(t_uint256,t_mapping(t_uint256,t_address)))": {
        "encoding": "mapping",
        "key": "t_uint256",
        "label": "mapping(uint256 => mapping(uint256 => mapping(uint256 => address)))",
        "numberOfBytes": "32",
        "value": "t_mapping(t_uint256,t_mapping(t_uint256,t_address))"
      },
      "t_mapping(t_uint256,t_struct(chainIdStruct)11843_storage)": {
        "encoding": "mapping",
        "key": "t_uint256",
        "label": "mapping(uint256 => struct ICcExchangeRouter.chainIdStruct)",
        "numberOfBytes": "32",
        "value": "t_struct(chainIdStruct)11843_storage"
      },
      "t_mapping(t_uint256,t_uint256)": {
        "encoding": "mapping",
        "key": "t_uint256",
        "label": "mapping(uint256 => uint256)",
        "numberOfBytes": "32",
        "value": "t_uint256"
      },
      "t_struct(FillData)11939_storage": {
        "encoding": "inplace",
        "label": "struct ICcExchangeRouter.FillData",
        "members": [
          {
            "astId": 11930,
            "contract": "contracts/routers/CcExchangeRouterLogic.sol:CcExchangeRouterLogic",
            "label": "startingTime",
            "offset": 0,
            "slot": "0",
            "type": "t_uint256"
          },
          {
            "astId": 11932,
            "contract": "contracts/routers/CcExchangeRouterLogic.sol:CcExchangeRouterLogic",
            "label": "reqToken",
            "offset": 0,
            "slot": "1",
            "type": "t_address"
          },
          {
            "astId": 11934,
            "contract": "contracts/routers/CcExchangeRouterLogic.sol:CcExchangeRouterLogic",
            "label": "lastUsedIdx",
            "offset": 0,
            "slot": "2",
            "type": "t_uint256"
          },
          {
            "astId": 11936,
            "contract": "contracts/routers/CcExchangeRouterLogic.sol:CcExchangeRouterLogic",
            "label": "remainingAmountOfLastFill",
            "offset": 0,
            "slot": "3",
            "type": "t_uint256"
          },
          {
            "astId": 11938,
            "contract": "contracts/routers/CcExchangeRouterLogic.sol:CcExchangeRouterLogic",
            "label": "isWithdrawnLastFill",
            "offset": 0,
            "slot": "4",
            "type": "t_bool"
          }
        ],
        "numberOfBytes": "160"
      },
      "t_struct(FillerData)11946_storage": {
        "encoding": "inplace",
        "label": "struct ICcExchangeRouter.FillerData",
        "members": [
          {
            "astId": 11941,
            "contract": "contracts/routers/CcExchangeRouterLogic.sol:CcExchangeRouterLogic",
            "label": "index",
            "offset": 0,
            "slot": "0",
            "type": "t_uint256"
          },
          {
            "astId": 11943,
            "contract": "contracts/routers/CcExchangeRouterLogic.sol:CcExchangeRouterLogic",
            "label": "token",
            "offset": 0,
            "slot": "1",
            "type": "t_address"
          },
          {
            "astId": 11945,
            "contract": "contracts/routers/CcExchangeRouterLogic.sol:CcExchangeRouterLogic",
            "label": "amount",
            "offset": 0,
            "slot": "2",
            "type": "t_uint256"
          }
        ],
        "numberOfBytes": "96"
      },
      "t_struct(PrefixFillSum)11952_storage": {
        "encoding": "inplace",
        "label": "struct ICcExchangeRouter.PrefixFillSum",
        "members": [
          {
            "astId": 11949,
            "contract": "contracts/routers/CcExchangeRouterLogic.sol:CcExchangeRouterLogic",
            "label": "prefixSum",
            "offset": 0,
            "slot": "0",
            "type": "t_array(t_uint256)dyn_storage"
          },
          {
            "astId": 11951,
            "contract": "contracts/routers/CcExchangeRouterLogic.sol:CcExchangeRouterLogic",
            "label": "currentIndex",
            "offset": 0,
            "slot": "1",
            "type": "t_uint256"
          }
        ],
        "numberOfBytes": "64"
      },
      "t_struct(ccExchangeRequest)11867_storage": {
        "encoding": "inplace",
        "label": "struct ICcExchangeRouter.ccExchangeRequest",
        "members": [
          {
            "astId": 11845,
            "contract": "contracts/routers/CcExchangeRouterLogic.sol:CcExchangeRouterLogic",
            "label": "appId",
            "offset": 0,
            "slot": "0",
            "type": "t_uint256"
          },
          {
            "astId": 11847,
            "contract": "contracts/routers/CcExchangeRouterLogic.sol:CcExchangeRouterLogic",
            "label": "inputAmount",
            "offset": 0,
            "slot": "1",
            "type": "t_uint256"
          },
          {
            "astId": 11849,
            "contract": "contracts/routers/CcExchangeRouterLogic.sol:CcExchangeRouterLogic",
            "label": "outputAmount",
            "offset": 0,
            "slot": "2",
            "type": "t_uint256"
          },
          {
            "astId": 11851,
            "contract": "contracts/routers/CcExchangeRouterLogic.sol:CcExchangeRouterLogic",
            "label": "isFixedToken",
            "offset": 0,
            "slot": "3",
            "type": "t_bool"
          },
          {
            "astId": 11853,
            "contract": "contracts/routers/CcExchangeRouterLogic.sol:CcExchangeRouterLogic",
            "label": "recipientAddress",
            "offset": 1,
            "slot": "3",
            "type": "t_address"
          },
          {
            "astId": 11855,
            "contract": "contracts/routers/CcExchangeRouterLogic.sol:CcExchangeRouterLogic",
            "label": "fee",
            "offset": 0,
            "slot": "4",
            "type": "t_uint256"
          },
          {
            "astId": 11857,
            "contract": "contracts/routers/CcExchangeRouterLogic.sol:CcExchangeRouterLogic",
            "label": "isUsed",
            "offset": 0,
            "slot": "5",
            "type": "t_bool"
          },
          {
            "astId": 11860,
            "contract": "contracts/routers/CcExchangeRouterLogic.sol:CcExchangeRouterLogic",
            "label": "path",
            "offset": 0,
            "slot": "6",
            "type": "t_array(t_address)dyn_storage"
          },
          {
            "astId": 11862,
            "contract": "contracts/routers/CcExchangeRouterLogic.sol:CcExchangeRouterLogic",
            "label": "deadline",
            "offset": 0,
            "slot": "7",
            "type": "t_uint256"
          },
          {
            "astId": 11864,
            "contract": "contracts/routers/CcExchangeRouterLogic.sol:CcExchangeRouterLogic",
            "label": "speed",
            "offset": 0,
            "slot": "8",
            "type": "t_uint256"
          },
          {
            "astId": 11866,
            "contract": "contracts/routers/CcExchangeRouterLogic.sol:CcExchangeRouterLogic",
            "label": "destinationChain",
            "offset": 0,
            "slot": "9",
            "type": "t_uint256"
          }
        ],
        "numberOfBytes": "320"
      },
      "t_struct(ccExchangeRequestV2)11896_storage": {
        "encoding": "inplace",
        "label": "struct ICcExchangeRouter.ccExchangeRequestV2",
        "members": [
          {
            "astId": 11869,
            "contract": "contracts/routers/CcExchangeRouterLogic.sol:CcExchangeRouterLogic",
            "label": "appId",
            "offset": 0,
            "slot": "0",
            "type": "t_uint256"
          },
          {
            "astId": 11871,
            "contract": "contracts/routers/CcExchangeRouterLogic.sol:CcExchangeRouterLogic",
            "label": "inputAmount",
            "offset": 0,
            "slot": "1",
            "type": "t_uint256"
          },
          {
            "astId": 11873,
            "contract": "contracts/routers/CcExchangeRouterLogic.sol:CcExchangeRouterLogic",
            "label": "outputAmount",
            "offset": 0,
            "slot": "2",
            "type": "t_uint256"
          },
          {
            "astId": 11875,
            "contract": "contracts/routers/CcExchangeRouterLogic.sol:CcExchangeRouterLogic",
            "label": "minIntermediaryTokenAmount",
            "offset": 0,
            "slot": "3",
            "type": "t_uint256"
          },
          {
            "astId": 11877,
            "contract": "contracts/routers/CcExchangeRouterLogic.sol:CcExchangeRouterLogic",
            "label": "isFixedToken",
            "offset": 0,
            "slot": "4",
            "type": "t_bool"
          },
          {
            "astId": 11879,
            "contract": "contracts/routers/CcExchangeRouterLogic.sol:CcExchangeRouterLogic",
            "label": "recipientAddress",
            "offset": 0,
            "slot": "5",
            "type": "t_bytes32"
          },
          {
            "astId": 11881,
            "contract": "contracts/routers/CcExchangeRouterLogic.sol:CcExchangeRouterLogic",
            "label": "networkFee",
            "offset": 0,
            "slot": "6",
            "type": "t_uint256"
          },
          {
            "astId": 11883,
            "contract": "contracts/routers/CcExchangeRouterLogic.sol:CcExchangeRouterLogic",
            "label": "isUsed",
            "offset": 0,
            "slot": "7",
            "type": "t_bool"
          },
          {
            "astId": 11887,
            "contract": "contracts/routers/CcExchangeRouterLogic.sol:CcExchangeRouterLogic",
            "label": "tokenIDs",
            "offset": 0,
            "slot": "8",
            "type": "t_array(t_bytes8)2_storage"
          },
          {
            "astId": 11889,
            "contract": "contracts/routers/CcExchangeRouterLogic.sol:CcExchangeRouterLogic",
            "label": "outputToken",
            "offset": 0,
            "slot": "9",
            "type": "t_bytes32"
          },
          {
            "astId": 11891,
            "contract": "contracts/routers/CcExchangeRouterLogic.sol:CcExchangeRouterLogic",
            "label": "deadline",
            "offset": 0,
            "slot": "10",
            "type": "t_uint256"
          },
          {
            "astId": 11893,
            "contract": "contracts/routers/CcExchangeRouterLogic.sol:CcExchangeRouterLogic",
            "label": "speed",
            "offset": 0,
            "slot": "11",
            "type": "t_uint256"
          },
          {
            "astId": 11895,
            "contract": "contracts/routers/CcExchangeRouterLogic.sol:CcExchangeRouterLogic",
            "label": "destRealChainId",
            "offset": 0,
            "slot": "12",
            "type": "t_uint256"
          }
        ],
        "numberOfBytes": "416"
      },
      "t_struct(chainIdStruct)11843_storage": {
        "encoding": "inplace",
        "label": "struct ICcExchangeRouter.chainIdStruct",
        "members": [
          {
            "astId": 11840,
            "contract": "contracts/routers/CcExchangeRouterLogic.sol:CcExchangeRouterLogic",
            "label": "middleChain",
            "offset": 0,
            "slot": "0",
            "type": "t_uint256"
          },
          {
            "astId": 11842,
            "contract": "contracts/routers/CcExchangeRouterLogic.sol:CcExchangeRouterLogic",
            "label": "destinationChain",
            "offset": 0,
            "slot": "1",
            "type": "t_uint256"
          }
        ],
        "numberOfBytes": "64"
      },
      "t_struct(extendedCcExchangeRequest)11913_storage": {
        "encoding": "inplace",
        "label": "struct ICcExchangeRouter.extendedCcExchangeRequest",
        "members": [
          {
            "astId": 11898,
            "contract": "contracts/routers/CcExchangeRouterLogic.sol:CcExchangeRouterLogic",
            "label": "destAssignedChainId",
            "offset": 0,
            "slot": "0",
            "type": "t_uint256"
          },
          {
            "astId": 11900,
            "contract": "contracts/routers/CcExchangeRouterLogic.sol:CcExchangeRouterLogic",
            "label": "isRequestCompleted",
            "offset": 0,
            "slot": "1",
            "type": "t_bool"
          },
          {
            "astId": 11902,
            "contract": "contracts/routers/CcExchangeRouterLogic.sol:CcExchangeRouterLogic",
            "label": "remainedInputAmount",
            "offset": 0,
            "slot": "2",
            "type": "t_uint256"
          },
          {
            "astId": 11904,
            "contract": "contracts/routers/CcExchangeRouterLogic.sol:CcExchangeRouterLogic",
            "label": "bridgePercentageFee",
            "offset": 0,
            "slot": "3",
            "type": "t_uint256"
          },
          {
            "astId": 11906,
            "contract": "contracts/routers/CcExchangeRouterLogic.sol:CcExchangeRouterLogic",
            "label": "thirdParty",
            "offset": 0,
            "slot": "4",
            "type": "t_uint256"
          },
          {
            "astId": 11908,
            "contract": "contracts/routers/CcExchangeRouterLogic.sol:CcExchangeRouterLogic",
            "label": "protocolFee",
            "offset": 0,
            "slot": "5",
            "type": "t_uint256"
          },
          {
            "astId": 11910,
            "contract": "contracts/routers/CcExchangeRouterLogic.sol:CcExchangeRouterLogic",
            "label": "thirdPartyFee",
            "offset": 0,
            "slot": "6",
            "type": "t_uint256"
          },
          {
            "astId": 11912,
            "contract": "contracts/routers/CcExchangeRouterLogic.sol:CcExchangeRouterLogic",
            "label": "lockerFee",
            "offset": 0,
            "slot": "7",
            "type": "t_uint256"
          }
        ],
        "numberOfBytes": "256"
      },
      "t_uint256": {
        "encoding": "inplace",
        "label": "uint256",
        "numberOfBytes": "32"
      },
      "t_uint8": {
        "encoding": "inplace",
        "label": "uint8",
        "numberOfBytes": "1"
      }
    }
  }
}