{
  "address": "0x34f70A424ce629265faf943A5aa71001a8eb2Ebf",
  "abi": [
    {
      "inputs": [],
      "name": "ZeroAddress",
      "type": "error"
    },
    {
      "anonymous": false,
      "inputs": [
        {
          "indexed": false,
          "internalType": "address",
          "name": "oldAcross",
          "type": "address"
        },
        {
          "indexed": false,
          "internalType": "address",
          "name": "newAcross",
          "type": "address"
        }
      ],
      "name": "AcrossUpdated",
      "type": "event"
    },
    {
      "anonymous": false,
      "inputs": [
        {
          "indexed": false,
          "internalType": "address",
          "name": "oldBurnRouter",
          "type": "address"
        },
        {
          "indexed": false,
          "internalType": "address",
          "name": "newBurnRouter",
          "type": "address"
        }
      ],
      "name": "BurnRouterUpdated",
      "type": "event"
    },
    {
      "anonymous": false,
      "inputs": [
        {
          "indexed": false,
          "internalType": "address",
          "name": "lockerTargetAddress",
          "type": "address"
        },
        {
          "indexed": true,
          "internalType": "address",
          "name": "recipientAddress",
          "type": "address"
        },
        {
          "indexed": false,
          "internalType": "address[2]",
          "name": "inputAndOutputToken",
          "type": "address[2]"
        },
        {
          "indexed": false,
          "internalType": "uint256[2]",
          "name": "inputAndOutputAmount",
          "type": "uint256[2]"
        },
        {
          "indexed": true,
          "internalType": "uint256",
          "name": "speed",
          "type": "uint256"
        },
        {
          "indexed": true,
          "internalType": "address",
          "name": "teleporter",
          "type": "address"
        },
        {
          "indexed": false,
          "internalType": "bytes32",
          "name": "bitcoinTxId",
          "type": "bytes32"
        },
        {
          "indexed": false,
          "internalType": "uint256",
          "name": "appId",
          "type": "uint256"
        },
        {
          "indexed": false,
          "internalType": "uint256",
          "name": "thirdPartyId",
          "type": "uint256"
        },
        {
          "indexed": false,
          "internalType": "uint256[5]",
          "name": "fees",
          "type": "uint256[5]"
        },
        {
          "indexed": false,
          "internalType": "uint256",
          "name": "destinationChainId",
          "type": "uint256"
        }
      ],
      "name": "FailedWrapAndSwap",
      "type": "event"
    },
    {
      "anonymous": false,
      "inputs": [
        {
          "indexed": false,
          "internalType": "address",
          "name": "lockerTargetAddress",
          "type": "address"
        },
        {
          "indexed": true,
          "internalType": "bytes32",
          "name": "recipientAddress",
          "type": "bytes32"
        },
        {
          "indexed": false,
          "internalType": "bytes32[2]",
          "name": "inputAndOutputToken",
          "type": "bytes32[2]"
        },
        {
          "indexed": false,
          "internalType": "uint256[2]",
          "name": "inputAndOutputAmount",
          "type": "uint256[2]"
        },
        {
          "indexed": true,
          "internalType": "uint256",
          "name": "speed",
          "type": "uint256"
        },
        {
          "indexed": true,
          "internalType": "address",
          "name": "teleporter",
          "type": "address"
        },
        {
          "indexed": false,
          "internalType": "bytes32",
          "name": "bitcoinTxId",
          "type": "bytes32"
        },
        {
          "indexed": false,
          "internalType": "uint256",
          "name": "appId",
          "type": "uint256"
        },
        {
          "indexed": false,
          "internalType": "uint256",
          "name": "thirdPartyId",
          "type": "uint256"
        },
        {
          "indexed": false,
          "internalType": "uint256[5]",
          "name": "fees",
          "type": "uint256[5]"
        },
        {
          "indexed": false,
          "internalType": "uint256",
          "name": "destinationChainId",
          "type": "uint256"
        }
      ],
      "name": "FailedWrapAndSwapV2",
      "type": "event"
    },
    {
      "anonymous": false,
      "inputs": [
        {
          "indexed": false,
          "internalType": "address",
          "name": "filler",
          "type": "address"
        },
        {
          "indexed": false,
          "internalType": "bytes32",
          "name": "bitcoinTxId",
          "type": "bytes32"
        },
        {
          "indexed": false,
          "internalType": "uint256",
          "name": "amount",
          "type": "uint256"
        }
      ],
      "name": "FillerRefunded",
      "type": "event"
    },
    {
      "anonymous": false,
      "inputs": [
        {
          "indexed": false,
          "internalType": "uint8",
          "name": "version",
          "type": "uint8"
        }
      ],
      "name": "Initialized",
      "type": "event"
    },
    {
      "anonymous": false,
      "inputs": [
        {
          "indexed": false,
          "internalType": "uint256",
          "name": "destinationChain",
          "type": "uint256"
        },
        {
          "indexed": false,
          "internalType": "uint256",
          "name": "mappedChainId",
          "type": "uint256"
        }
      ],
      "name": "NewChainIdMapping",
      "type": "event"
    },
    {
      "anonymous": false,
      "inputs": [
        {
          "indexed": false,
          "internalType": "address",
          "name": "oldLockers",
          "type": "address"
        },
        {
          "indexed": false,
          "internalType": "address",
          "name": "newLockers",
          "type": "address"
        }
      ],
      "name": "NewLockers",
      "type": "event"
    },
    {
      "anonymous": false,
      "inputs": [
        {
          "indexed": false,
          "internalType": "uint256",
          "name": "oldProtocolPercentageFee",
          "type": "uint256"
        },
        {
          "indexed": false,
          "internalType": "uint256",
          "name": "newProtocolPercentageFee",
          "type": "uint256"
        }
      ],
      "name": "NewProtocolPercentageFee",
      "type": "event"
    },
    {
      "anonymous": false,
      "inputs": [
        {
          "indexed": false,
          "internalType": "address",
          "name": "oldRelay",
          "type": "address"
        },
        {
          "indexed": false,
          "internalType": "address",
          "name": "newRelay",
          "type": "address"
        }
      ],
      "name": "NewRelay",
      "type": "event"
    },
    {
      "anonymous": false,
      "inputs": [
        {
          "indexed": false,
          "internalType": "address",
          "name": "oldTeleBTC",
          "type": "address"
        },
        {
          "indexed": false,
          "internalType": "address",
          "name": "newTeleBTC",
          "type": "address"
        }
      ],
      "name": "NewTeleBTC",
      "type": "event"
    },
    {
      "anonymous": false,
      "inputs": [
        {
          "indexed": false,
          "internalType": "uint256",
          "name": "thirdPartyId",
          "type": "uint256"
        },
        {
          "indexed": false,
          "internalType": "address",
          "name": "oldThirdPartyAddress",
          "type": "address"
        },
        {
          "indexed": false,
          "internalType": "address",
          "name": "newThirdPartyAddress",
          "type": "address"
        }
      ],
      "name": "NewThirdPartyAddress",
      "type": "event"
    },
    {
      "anonymous": false,
      "inputs": [
        {
          "indexed": false,
          "internalType": "uint256",
          "name": "thirdPartyId",
          "type": "uint256"
        },
        {
          "indexed": false,
          "internalType": "uint256",
          "name": "oldThirdPartyFee",
          "type": "uint256"
        },
        {
          "indexed": false,
          "internalType": "uint256",
          "name": "newThirdPartyFee",
          "type": "uint256"
        }
      ],
      "name": "NewThirdPartyFee",
      "type": "event"
    },
    {
      "anonymous": false,
      "inputs": [
        {
          "indexed": false,
          "internalType": "address",
          "name": "oldTreasury",
          "type": "address"
        },
        {
          "indexed": false,
          "internalType": "address",
          "name": "newTreasury",
          "type": "address"
        }
      ],
      "name": "NewTreasury",
      "type": "event"
    },
    {
      "anonymous": false,
      "inputs": [
        {
          "indexed": false,
          "internalType": "address",
          "name": "lockerTargetAddress",
          "type": "address"
        },
        {
          "indexed": true,
          "internalType": "address",
          "name": "user",
          "type": "address"
        },
        {
          "indexed": false,
          "internalType": "address[2]",
          "name": "inputAndOutputToken",
          "type": "address[2]"
        },
        {
          "indexed": false,
          "internalType": "uint256[2]",
          "name": "inputAndOutputAmount",
          "type": "uint256[2]"
        },
        {
          "indexed": true,
          "internalType": "uint256",
          "name": "speed",
          "type": "uint256"
        },
        {
          "indexed": true,
          "internalType": "address",
          "name": "teleporter",
          "type": "address"
        },
        {
          "indexed": false,
          "internalType": "bytes32",
          "name": "bitcoinTxId",
          "type": "bytes32"
        },
        {
          "indexed": false,
          "internalType": "uint256",
          "name": "appId",
          "type": "uint256"
        },
        {
          "indexed": false,
          "internalType": "uint256",
          "name": "thirdPartyId",
          "type": "uint256"
        },
        {
          "indexed": false,
          "internalType": "uint256[5]",
          "name": "fees",
          "type": "uint256[5]"
        },
        {
          "indexed": false,
          "internalType": "uint256",
          "name": "destinationChainId",
          "type": "uint256"
        }
      ],
      "name": "NewWrapAndSwap",
      "type": "event"
    },
    {
      "anonymous": false,
      "inputs": [
        {
          "indexed": false,
          "internalType": "address",
          "name": "lockerTargetAddress",
          "type": "address"
        },
        {
          "indexed": true,
          "internalType": "bytes32",
          "name": "user",
          "type": "bytes32"
        },
        {
          "indexed": false,
          "internalType": "bytes32[2]",
          "name": "inputAndOutputToken",
          "type": "bytes32[2]"
        },
        {
          "indexed": false,
          "internalType": "uint256[2]",
          "name": "inputAndOutputAmount",
          "type": "uint256[2]"
        },
        {
          "indexed": true,
          "internalType": "uint256",
          "name": "speed",
          "type": "uint256"
        },
        {
          "indexed": true,
          "internalType": "address",
          "name": "teleporter",
          "type": "address"
        },
        {
          "indexed": false,
          "internalType": "bytes32",
          "name": "bitcoinTxId",
          "type": "bytes32"
        },
        {
          "indexed": false,
          "internalType": "uint256",
          "name": "appId",
          "type": "uint256"
        },
        {
          "indexed": false,
          "internalType": "uint256",
          "name": "thirdPartyId",
          "type": "uint256"
        },
        {
          "indexed": false,
          "internalType": "uint256[5]",
          "name": "fees",
          "type": "uint256[5]"
        },
        {
          "indexed": false,
          "internalType": "uint256",
          "name": "destinationChainId",
          "type": "uint256"
        }
      ],
      "name": "NewWrapAndSwapV2",
      "type": "event"
    },
    {
      "anonymous": false,
      "inputs": [
        {
          "indexed": false,
          "internalType": "address",
          "name": "oldWrappedNativeToken",
          "type": "address"
        },
        {
          "indexed": false,
          "internalType": "address",
          "name": "newWrappedNativeToken",
          "type": "address"
        }
      ],
      "name": "NewWrappedNativeToken",
      "type": "event"
    },
    {
      "anonymous": false,
      "inputs": [
        {
          "indexed": true,
          "internalType": "address",
          "name": "previousOwner",
          "type": "address"
        },
        {
          "indexed": true,
          "internalType": "address",
          "name": "newOwner",
          "type": "address"
        }
      ],
      "name": "OwnershipTransferred",
      "type": "event"
    },
    {
      "anonymous": false,
      "inputs": [
        {
          "indexed": true,
          "internalType": "bytes32",
          "name": "txId",
          "type": "bytes32"
        },
        {
          "indexed": true,
          "internalType": "address",
          "name": "refundedBy",
          "type": "address"
        },
        {
          "indexed": false,
          "internalType": "uint256",
          "name": "failedRequestAmount",
          "type": "uint256"
        },
        {
          "indexed": false,
          "internalType": "uint256",
          "name": "refundAmount",
          "type": "uint256"
        },
        {
          "indexed": false,
          "internalType": "bytes",
          "name": "userScript",
          "type": "bytes"
        },
        {
          "indexed": false,
          "internalType": "uint8",
          "name": "scriptType",
          "type": "uint8"
        },
        {
          "indexed": false,
          "internalType": "address",
          "name": "lockerTargetAddress",
          "type": "address"
        },
        {
          "indexed": false,
          "internalType": "uint256",
          "name": "burnRequestCounter",
          "type": "uint256"
        }
      ],
      "name": "RefundProcessed",
      "type": "event"
    },
    {
      "anonymous": false,
      "inputs": [
        {
          "indexed": false,
          "internalType": "address",
          "name": "filler",
          "type": "address"
        },
        {
          "indexed": false,
          "internalType": "address",
          "name": "user",
          "type": "address"
        },
        {
          "indexed": false,
          "internalType": "address",
          "name": "lockerTargetAddress",
          "type": "address"
        },
        {
          "indexed": false,
          "internalType": "bytes32",
          "name": "bitcoinTxId",
          "type": "bytes32"
        },
        {
          "indexed": false,
          "internalType": "address[2]",
          "name": "inputAndOutputToken",
          "type": "address[2]"
        },
        {
          "indexed": false,
          "internalType": "uint256",
          "name": "fillAmount",
          "type": "uint256"
        },
        {
          "indexed": false,
          "internalType": "uint256",
          "name": "finalAmount",
          "type": "uint256"
        },
        {
          "indexed": false,
          "internalType": "uint256",
          "name": "userRequestedAmount",
          "type": "uint256"
        },
        {
          "indexed": false,
          "internalType": "uint256",
          "name": "destinationChainId",
          "type": "uint256"
        },
        {
          "indexed": false,
          "internalType": "uint256",
          "name": "bridgePercentageFee",
          "type": "uint256"
        }
      ],
      "name": "RequestFilled",
      "type": "event"
    },
    {
      "anonymous": false,
      "inputs": [
        {
          "indexed": false,
          "internalType": "uint256",
          "name": "appId",
          "type": "uint256"
        },
        {
          "indexed": false,
          "internalType": "address",
          "name": "exchangeConnector",
          "type": "address"
        }
      ],
      "name": "SetExchangeConnector",
      "type": "event"
    },
    {
      "inputs": [],
      "name": "across",
      "outputs": [
        {
          "internalType": "address",
          "name": "",
          "type": "address"
        }
      ],
      "stateMutability": "view",
      "type": "function"
    },
    {
      "inputs": [],
      "name": "acrossAdmin",
      "outputs": [
        {
          "internalType": "address",
          "name": "",
          "type": "address"
        }
      ],
      "stateMutability": "view",
      "type": "function"
    },
    {
      "inputs": [
        {
          "internalType": "bytes8",
          "name": "",
          "type": "bytes8"
        },
        {
          "internalType": "uint256",
          "name": "",
          "type": "uint256"
        }
      ],
      "name": "bridgeTokenIDMapping",
      "outputs": [
        {
          "internalType": "bytes32",
          "name": "",
          "type": "bytes32"
        }
      ],
      "stateMutability": "view",
      "type": "function"
    },
    {
      "inputs": [
        {
          "internalType": "address",
          "name": "",
          "type": "address"
        },
        {
          "internalType": "uint256",
          "name": "",
          "type": "uint256"
        }
      ],
      "name": "bridgeTokenMapping",
      "outputs": [
        {
          "internalType": "address",
          "name": "",
          "type": "address"
        }
      ],
      "stateMutability": "view",
      "type": "function"
    },
    {
      "inputs": [],
      "name": "burnRouter",
      "outputs": [
        {
          "internalType": "address",
          "name": "",
          "type": "address"
        }
      ],
      "stateMutability": "view",
      "type": "function"
    },
    {
      "inputs": [],
      "name": "chainId",
      "outputs": [
        {
          "internalType": "uint256",
          "name": "",
          "type": "uint256"
        }
      ],
      "stateMutability": "view",
      "type": "function"
    },
    {
      "inputs": [
        {
          "internalType": "uint256",
          "name": "",
          "type": "uint256"
        }
      ],
      "name": "chainIdMapping",
      "outputs": [
        {
          "internalType": "uint256",
          "name": "middleChain",
          "type": "uint256"
        },
        {
          "internalType": "uint256",
          "name": "destinationChain",
          "type": "uint256"
        }
      ],
      "stateMutability": "view",
      "type": "function"
    },
    {
      "inputs": [
        {
          "internalType": "address",
          "name": "_token",
          "type": "address"
        },
        {
          "internalType": "uint256",
          "name": "_amount",
          "type": "uint256"
        }
      ],
      "name": "emergencyWithdraw",
      "outputs": [],
      "stateMutability": "nonpayable",
      "type": "function"
    },
    {
      "inputs": [
        {
          "internalType": "uint256",
          "name": "",
          "type": "uint256"
        }
      ],
      "name": "exchangeConnector",
      "outputs": [
        {
          "internalType": "address",
          "name": "",
          "type": "address"
        }
      ],
      "stateMutability": "view",
      "type": "function"
    },
    {
      "inputs": [
        {
          "internalType": "bytes32",
          "name": "",
          "type": "bytes32"
        }
      ],
      "name": "extendedCcExchangeRequests",
      "outputs": [
        {
          "internalType": "uint256",
          "name": "destAssignedChainId",
          "type": "uint256"
        },
        {
          "internalType": "bool",
          "name": "isRequestCompleted",
          "type": "bool"
        },
        {
          "internalType": "uint256",
          "name": "remainedInputAmount",
          "type": "uint256"
        },
        {
          "internalType": "uint256",
          "name": "bridgePercentageFee",
          "type": "uint256"
        },
        {
          "internalType": "uint256",
          "name": "thirdParty",
          "type": "uint256"
        },
        {
          "internalType": "uint256",
          "name": "protocolFee",
          "type": "uint256"
        },
        {
          "internalType": "uint256",
          "name": "thirdPartyFee",
          "type": "uint256"
        },
        {
          "internalType": "uint256",
          "name": "lockerFee",
          "type": "uint256"
        }
      ],
      "stateMutability": "view",
      "type": "function"
    },
    {
      "inputs": [
        {
          "internalType": "bytes32",
          "name": "_txId",
          "type": "bytes32"
        },
        {
          "internalType": "address",
          "name": "_recipient",
          "type": "address"
        },
        {
          "internalType": "address",
          "name": "_token",
          "type": "address"
        },
        {
          "internalType": "uint256",
          "name": "_fillAmount",
          "type": "uint256"
        },
        {
          "internalType": "uint256",
          "name": "_userRequestedAmount",
          "type": "uint256"
        },
        {
          "internalType": "uint256",
          "name": "_destinationChainId",
          "type": "uint256"
        },
        {
          "internalType": "uint256",
          "name": "_bridgePercentageFee",
          "type": "uint256"
        },
        {
          "internalType": "bytes",
          "name": "_lockerLockingScript",
          "type": "bytes"
        }
      ],
      "name": "fillTx",
      "outputs": [],
      "stateMutability": "payable",
      "type": "function"
    },
    {
      "inputs": [
        {
          "internalType": "bytes32",
          "name": "",
          "type": "bytes32"
        },
        {
          "internalType": "address",
          "name": "",
          "type": "address"
        },
        {
          "internalType": "address",
          "name": "",
          "type": "address"
        },
        {
          "internalType": "uint256",
          "name": "",
          "type": "uint256"
        },
        {
          "internalType": "uint256",
          "name": "",
          "type": "uint256"
        },
        {
          "internalType": "uint256",
          "name": "",
          "type": "uint256"
        }
      ],
      "name": "fillerAddress",
      "outputs": [
        {
          "internalType": "address",
          "name": "",
          "type": "address"
        }
      ],
      "stateMutability": "view",
      "type": "function"
    },
    {
      "inputs": [
        {
          "internalType": "bytes32",
          "name": "",
          "type": "bytes32"
        }
      ],
      "name": "finalAmount",
      "outputs": [
        {
          "internalType": "uint256",
          "name": "",
          "type": "uint256"
        }
      ],
      "stateMutability": "view",
      "type": "function"
    },
    {
      "inputs": [
        {
          "internalType": "uint256",
          "name": "_assignedChainId",
          "type": "uint256"
        }
      ],
      "name": "getRealChainId",
      "outputs": [
        {
          "internalType": "uint256",
          "name": "",
          "type": "uint256"
        }
      ],
      "stateMutability": "view",
      "type": "function"
    },
    {
      "inputs": [
        {
          "internalType": "uint256",
          "name": "_startingBlockNumber",
          "type": "uint256"
        },
        {
          "internalType": "uint256",
          "name": "_protocolPercentageFee",
          "type": "uint256"
        },
        {
          "internalType": "uint256",
          "name": "_lockerPercentageFee",
          "type": "uint256"
        },
        {
          "internalType": "uint256",
          "name": "_chainId",
          "type": "uint256"
        },
        {
          "internalType": "address",
          "name": "_lockers",
          "type": "address"
        },
        {
          "internalType": "address",
          "name": "_relay",
          "type": "address"
        },
        {
          "internalType": "address",
          "name": "_teleBTC",
          "type": "address"
        },
        {
          "internalType": "address",
          "name": "_treasury",
          "type": "address"
        },
        {
          "internalType": "address",
          "name": "_across",
          "type": "address"
        },
        {
          "internalType": "address",
          "name": "_burnRouter",
          "type": "address"
        }
      ],
      "name": "initialize",
      "outputs": [],
      "stateMutability": "nonpayable",
      "type": "function"
    },
    {
      "inputs": [
        {
          "internalType": "bytes8",
          "name": "",
          "type": "bytes8"
        }
      ],
      "name": "intermediaryTokenMapping",
      "outputs": [
        {
          "internalType": "address",
          "name": "",
          "type": "address"
        }
      ],
      "stateMutability": "view",
      "type": "function"
    },
    {
      "inputs": [
        {
          "internalType": "uint256",
          "name": "",
          "type": "uint256"
        }
      ],
      "name": "isChainSupported",
      "outputs": [
        {
          "internalType": "bool",
          "name": "",
          "type": "bool"
        }
      ],
      "stateMutability": "view",
      "type": "function"
    },
    {
      "inputs": [
        {
          "internalType": "bytes32",
          "name": "_txId",
          "type": "bytes32"
        }
      ],
      "name": "isRequestUsed",
      "outputs": [
        {
          "internalType": "bool",
          "name": "",
          "type": "bool"
        }
      ],
      "stateMutability": "view",
      "type": "function"
    },
    {
      "inputs": [
        {
          "internalType": "address",
          "name": "",
          "type": "address"
        }
      ],
      "name": "isTeleporter",
      "outputs": [
        {
          "internalType": "bool",
          "name": "",
          "type": "bool"
        }
      ],
      "stateMutability": "view",
      "type": "function"
    },
    {
      "inputs": [
        {
          "internalType": "uint256",
          "name": "",
          "type": "uint256"
        },
        {
          "internalType": "address",
          "name": "",
          "type": "address"
        }
      ],
      "name": "isTokenSupported",
      "outputs": [
        {
          "internalType": "bool",
          "name": "",
          "type": "bool"
        }
      ],
      "stateMutability": "view",
      "type": "function"
    },
    {
      "inputs": [],
      "name": "lockerPercentageFee",
      "outputs": [
        {
          "internalType": "uint256",
          "name": "",
          "type": "uint256"
        }
      ],
      "stateMutability": "view",
      "type": "function"
    },
    {
      "inputs": [],
      "name": "lockers",
      "outputs": [
        {
          "internalType": "address",
          "name": "",
          "type": "address"
        }
      ],
      "stateMutability": "view",
      "type": "function"
    },
    {
      "inputs": [],
      "name": "owner",
      "outputs": [
        {
          "internalType": "address",
          "name": "",
          "type": "address"
        }
      ],
      "stateMutability": "view",
      "type": "function"
    },
    {
      "inputs": [],
      "name": "protocolPercentageFee",
      "outputs": [
        {
          "internalType": "uint256",
          "name": "",
          "type": "uint256"
        }
      ],
      "stateMutability": "view",
      "type": "function"
    },
    {
      "inputs": [
        {
          "internalType": "bytes32",
          "name": "_txId",
          "type": "bytes32"
        },
        {
          "internalType": "uint8",
          "name": "_scriptType",
          "type": "uint8"
        },
        {
          "internalType": "bytes",
          "name": "_userScript",
          "type": "bytes"
        },
        {
          "internalType": "bytes",
          "name": "_lockerLockingScript",
          "type": "bytes"
        }
      ],
      "name": "refundByOwnerOrAdmin",
      "outputs": [],
      "stateMutability": "nonpayable",
      "type": "function"
    },
    {
      "inputs": [],
      "name": "relay",
      "outputs": [
        {
          "internalType": "address",
          "name": "",
          "type": "address"
        }
      ],
      "stateMutability": "view",
      "type": "function"
    },
    {
      "inputs": [],
      "name": "renounceOwnership",
      "outputs": [],
      "stateMutability": "nonpayable",
      "type": "function"
    },
    {
      "inputs": [],
      "name": "rewardDistributor",
      "outputs": [
        {
          "internalType": "address",
          "name": "",
          "type": "address"
        }
      ],
      "stateMutability": "view",
      "type": "function"
    },
    {
      "inputs": [
        {
          "internalType": "address",
          "name": "_across",
          "type": "address"
        }
      ],
      "name": "setAcross",
      "outputs": [],
      "stateMutability": "nonpayable",
      "type": "function"
    },
    {
      "inputs": [
        {
          "internalType": "address",
          "name": "_acrossAdmin",
          "type": "address"
        }
      ],
      "name": "setAcrossAdmin",
      "outputs": [],
      "stateMutability": "nonpayable",
      "type": "function"
    },
    {
      "inputs": [
        {
          "internalType": "bytes8",
          "name": "_tokenID",
          "type": "bytes8"
        },
        {
          "internalType": "uint256",
          "name": "_destinationChainId",
          "type": "uint256"
        },
        {
          "internalType": "bytes32",
          "name": "_destinationToken",
          "type": "bytes32"
        }
      ],
      "name": "setBridgeTokenIDMapping",
      "outputs": [],
      "stateMutability": "nonpayable",
      "type": "function"
    },
    {
      "inputs": [
        {
          "internalType": "address",
          "name": "_sourceToken",
          "type": "address"
        },
        {
          "internalType": "uint256",
          "name": "_destinationChainId",
          "type": "uint256"
        },
        {
          "internalType": "address",
          "name": "_destinationToken",
          "type": "address"
        }
      ],
      "name": "setBridgeTokenMapping",
      "outputs": [],
      "stateMutability": "nonpayable",
      "type": "function"
    },
    {
      "inputs": [
        {
          "internalType": "address",
          "name": "_burnRouter",
          "type": "address"
        }
      ],
      "name": "setBurnRouter",
      "outputs": [],
      "stateMutability": "nonpayable",
      "type": "function"
    },
    {
      "inputs": [
        {
          "internalType": "uint256",
          "name": "_destinationChain",
          "type": "uint256"
        },
        {
          "internalType": "uint256",
          "name": "_mappedId",
          "type": "uint256"
        }
      ],
      "name": "setChainIdMapping",
      "outputs": [],
      "stateMutability": "nonpayable",
      "type": "function"
    },
    {
      "inputs": [
        {
          "internalType": "uint256",
          "name": "_appId",
          "type": "uint256"
        },
        {
          "internalType": "address",
          "name": "_exchangeConnector",
          "type": "address"
        }
      ],
      "name": "setExchangeConnector",
      "outputs": [],
      "stateMutability": "nonpayable",
      "type": "function"
    },
    {
      "inputs": [
        {
          "internalType": "bytes8",
          "name": "_destinationTokenID",
          "type": "bytes8"
        },
        {
          "internalType": "address",
          "name": "_intermediaryToken",
          "type": "address"
        }
      ],
      "name": "setIntermediaryTokenMapping",
      "outputs": [],
      "stateMutability": "nonpayable",
      "type": "function"
    },
    {
      "inputs": [
        {
          "internalType": "uint256",
          "name": "_lockerPercentageFee",
          "type": "uint256"
        }
      ],
      "name": "setLockerPercentageFee",
      "outputs": [],
      "stateMutability": "nonpayable",
      "type": "function"
    },
    {
      "inputs": [
        {
          "internalType": "address",
          "name": "_lockers",
          "type": "address"
        }
      ],
      "name": "setLockers",
      "outputs": [],
      "stateMutability": "nonpayable",
      "type": "function"
    },
    {
      "inputs": [
        {
          "internalType": "uint256",
          "name": "_protocolPercentageFee",
          "type": "uint256"
        }
      ],
      "name": "setProtocolPercentageFee",
      "outputs": [],
      "stateMutability": "nonpayable",
      "type": "function"
    },
    {
      "inputs": [
        {
          "internalType": "address",
          "name": "_relay",
          "type": "address"
        }
      ],
      "name": "setRelay",
      "outputs": [],
      "stateMutability": "nonpayable",
      "type": "function"
    },
    {
      "inputs": [
        {
          "internalType": "address",
          "name": "_rewardDistributor",
          "type": "address"
        }
      ],
      "name": "setRewardDistributor",
      "outputs": [],
      "stateMutability": "nonpayable",
      "type": "function"
    },
    {
      "inputs": [
        {
          "internalType": "uint256",
          "name": "_startingBlockNumber",
          "type": "uint256"
        }
      ],
      "name": "setStartingBlockNumber",
      "outputs": [],
      "stateMutability": "nonpayable",
      "type": "function"
    },
    {
      "inputs": [
        {
          "internalType": "address",
          "name": "_teleBTC",
          "type": "address"
        }
      ],
      "name": "setTeleBTC",
      "outputs": [],
      "stateMutability": "nonpayable",
      "type": "function"
    },
    {
      "inputs": [
        {
          "internalType": "address",
          "name": "_teleporter",
          "type": "address"
        },
        {
          "internalType": "bool",
          "name": "_isTeleporter",
          "type": "bool"
        }
      ],
      "name": "setTeleporter",
      "outputs": [],
      "stateMutability": "nonpayable",
      "type": "function"
    },
    {
      "inputs": [
        {
          "internalType": "uint256",
          "name": "_thirdPartyId",
          "type": "uint256"
        },
        {
          "internalType": "address",
          "name": "_thirdPartyAddress",
          "type": "address"
        }
      ],
      "name": "setThirdPartyAddress",
      "outputs": [],
      "stateMutability": "nonpayable",
      "type": "function"
    },
    {
      "inputs": [
        {
          "internalType": "uint256",
          "name": "_thirdPartyId",
          "type": "uint256"
        },
        {
          "internalType": "uint256",
          "name": "_thirdPartyFee",
          "type": "uint256"
        }
      ],
      "name": "setThirdPartyFee",
      "outputs": [],
      "stateMutability": "nonpayable",
      "type": "function"
    },
    {
      "inputs": [
        {
          "internalType": "address",
          "name": "_treasury",
          "type": "address"
        }
      ],
      "name": "setTreasury",
      "outputs": [],
      "stateMutability": "nonpayable",
      "type": "function"
    },
    {
      "inputs": [
        {
          "internalType": "address",
          "name": "_wrappedNativeToken",
          "type": "address"
        }
      ],
      "name": "setWrappedNativeToken",
      "outputs": [],
      "stateMutability": "nonpayable",
      "type": "function"
    },
    {
      "inputs": [],
      "name": "specialTeleporter",
      "outputs": [
        {
          "internalType": "address",
          "name": "",
          "type": "address"
        }
      ],
      "stateMutability": "view",
      "type": "function"
    },
    {
      "inputs": [],
      "name": "startingBlockNumber",
      "outputs": [
        {
          "internalType": "uint256",
          "name": "",
          "type": "uint256"
        }
      ],
      "stateMutability": "view",
      "type": "function"
    },
    {
      "inputs": [],
      "name": "teleBTC",
      "outputs": [
        {
          "internalType": "address",
          "name": "",
          "type": "address"
        }
      ],
      "stateMutability": "view",
      "type": "function"
    },
    {
      "inputs": [
        {
          "internalType": "uint256",
          "name": "",
          "type": "uint256"
        }
      ],
      "name": "thirdPartyAddress",
      "outputs": [
        {
          "internalType": "address",
          "name": "",
          "type": "address"
        }
      ],
      "stateMutability": "view",
      "type": "function"
    },
    {
      "inputs": [
        {
          "internalType": "uint256",
          "name": "",
          "type": "uint256"
        }
      ],
      "name": "thirdPartyFee",
      "outputs": [
        {
          "internalType": "uint256",
          "name": "",
          "type": "uint256"
        }
      ],
      "stateMutability": "view",
      "type": "function"
    },
    {
      "inputs": [
        {
          "internalType": "address",
          "name": "newOwner",
          "type": "address"
        }
      ],
      "name": "transferOwnership",
      "outputs": [],
      "stateMutability": "nonpayable",
      "type": "function"
    },
    {
      "inputs": [],
      "name": "treasury",
      "outputs": [
        {
          "internalType": "address",
          "name": "",
          "type": "address"
        }
      ],
      "stateMutability": "view",
      "type": "function"
    },
    {
      "inputs": [
        {
          "components": [
            {
              "internalType": "bytes4",
              "name": "version",
              "type": "bytes4"
            },
            {
              "internalType": "bytes",
              "name": "vin",
              "type": "bytes"
            },
            {
              "internalType": "bytes",
              "name": "vout",
              "type": "bytes"
            },
            {
              "internalType": "bytes4",
              "name": "locktime",
              "type": "bytes4"
            },
            {
              "internalType": "uint256",
              "name": "blockNumber",
              "type": "uint256"
            },
            {
              "internalType": "bytes",
              "name": "intermediateNodes",
              "type": "bytes"
            },
            {
              "internalType": "uint256",
              "name": "index",
              "type": "uint256"
            }
          ],
          "internalType": "struct ICcExchangeRouter.TxAndProof",
          "name": "_txAndProof",
          "type": "tuple"
        },
        {
          "internalType": "bytes",
          "name": "_lockerLockingScript",
          "type": "bytes"
        },
        {
          "internalType": "address[]",
          "name": "_path",
          "type": "address[]"
        }
      ],
      "name": "wrapAndSwap",
      "outputs": [
        {
          "internalType": "bool",
          "name": "",
          "type": "bool"
        }
      ],
      "stateMutability": "payable",
      "type": "function"
    },
    {
      "inputs": [
        {
          "components": [
            {
              "internalType": "bytes4",
              "name": "version",
              "type": "bytes4"
            },
            {
              "internalType": "bytes",
              "name": "vin",
              "type": "bytes"
            },
            {
              "internalType": "bytes",
              "name": "vout",
              "type": "bytes"
            },
            {
              "internalType": "bytes4",
              "name": "locktime",
              "type": "bytes4"
            },
            {
              "internalType": "uint256",
              "name": "blockNumber",
              "type": "uint256"
            },
            {
              "internalType": "bytes",
              "name": "intermediateNodes",
              "type": "bytes"
            },
            {
              "internalType": "uint256",
              "name": "index",
              "type": "uint256"
            }
          ],
          "internalType": "struct ICcExchangeRouter.TxAndProof",
          "name": "_txAndProof",
          "type": "tuple"
        },
        {
          "internalType": "bytes",
          "name": "_lockerLockingScript",
          "type": "bytes"
        },
        {
          "internalType": "address[]",
          "name": "_path",
          "type": "address[]"
        }
      ],
      "name": "wrapAndSwapV2",
      "outputs": [
        {
          "internalType": "bool",
          "name": "",
          "type": "bool"
        }
      ],
      "stateMutability": "payable",
      "type": "function"
    },
    {
      "inputs": [],
      "name": "wrappedNativeToken",
      "outputs": [
        {
          "internalType": "address",
          "name": "",
          "type": "address"
        }
      ],
      "stateMutability": "view",
      "type": "function"
    },
    {
      "stateMutability": "payable",
      "type": "receive"
    }
  ],
  "transactionHash": "0x333ab1454c0c61ec0d1665de28893e746a005c396524372494310a94d0b50e50",
  "args": [],
  "numDeployments": 1,
  "solcInputHash": "9e26fe45bdd1d2d8ec63dc93b700fd68",
  "bytecode": "0x608060405234801561001057600080fd5b50615d9a80620000216000396000f3fe6080604052600436106102955760003560e01c806303c67359146102a157806306be8b0e146102e65780630f8320ce1461038357806316e1d491146103c657806317fcb39b1461040c5780631812adb61461042c5780631876dec4146104425780631dc4b09c146104625780631e7107c7146104845780632554a14c146104a4578063292c1d92146104b7578063303a785d146104d75780634e63ba95146104f75780635221c1f01461054057806359fd0b0c146105705780635f9491291461059d57806361be10f2146105de57806361d027b3146105fe578063639080201461061e5780636600203d146106345780636b2857ef146106545780636c32b2ec146106745780636e8adf61146106945780636f37b7c0146106ca57806370872aa5146106f7578063715018a61461070d57806375979f7914610722578063790239091461075d5780637a2181351461077d5780637ed55748146107905780637f0f1817146107b057806380bc4726146107d05780638132191e146107f057806383a3695414610803578063878269b51461082357806387c554f8146108435780638c0d9dca146108635780638d3d78cd146108835780638d5fc1d4146108a35780638da5cb5b146108c35780638f0c5083146108d85780638f9eb78b146108f857806395ccea67146109185780639a8a059214610938578063a1809b951461094e578063a9b682711461096e578063acc2166a146109a4578063acc6e092146109c4578063b07acef214610a23578063b14d353214610a43578063b59589d114610a63578063c805f68b14610a83578063d7fe6b7d14610aa3578063da058ae314610ac3578063daf44b9314610ae3578063e509463814610b03578063f0f4426014610b23578063f2fde38b14610b4357600080fd5b3661029c57005b600080fd5b3480156102ad57600080fd5b506102d16102bc366004614c08565b60b46020526000908152604090205460ff1681565b60405190151581526020015b60405180910390f35b3480156102f257600080fd5b50610348610301366004614da9565b60a76020526000908152604090208054600182015460028301546003840154600485015460058601546006870154600790970154959660ff90951695939492939192909188565b604080519889529615156020890152958701949094526060860192909252608085015260a084015260c083015260e0820152610100016102dd565b34801561038f57600080fd5b506103b961039e366004614f4c565b60b7602052600090815260409020546001600160a01b031681565b6040516102dd91906153c2565b3480156103d257600080fd5b506103fe6103e1366004614f91565b60b560209081526000928352604080842090915290825290205481565b6040519081526020016102dd565b34801561041857600080fd5b5060a9546103b9906001600160a01b031681565b34801561043857600080fd5b506103fe60025481565b34801561044e57600080fd5b506005546103b9906001600160a01b031681565b34801561046e57600080fd5b5061048261047d366004614c08565b610b63565b005b34801561049057600080fd5b5061048261049f366004614da9565b610b77565b6102d16104b2366004614fde565b610b88565b3480156104c357600080fd5b5060a8546103b9906001600160a01b031681565b3480156104e357600080fd5b506104826104f2366004614ec4565b610fd9565b34801561050357600080fd5b5061052b610512366004614da9565b60ab602052600090815260409020805460019091015482565b604080519283526020830191909152016102dd565b34801561054c57600080fd5b506102d161055b366004614da9565b60a66020526000908152604090205460ff1681565b34801561057c57600080fd5b506103fe61058b366004614da9565b60ac6020526000908152604090205481565b3480156105a957600080fd5b506103b96105b8366004614c78565b60b26020908152600092835260408084209091529082529020546001600160a01b031681565b3480156105ea57600080fd5b506104826105f9366004614c08565b611371565b34801561060a57600080fd5b506007546103b9906001600160a01b031681565b34801561062a57600080fd5b506103fe60b05481565b34801561064057600080fd5b5061048261064f366004614da9565b611382565b34801561066057600080fd5b5061048261066f366004615111565b611393565b34801561068057600080fd5b5060aa546103b9906001600160a01b031681565b3480156106a057600080fd5b506103b96106af366004614da9565b6008602052600090815260409020546001600160a01b031681565b3480156106d657600080fd5b506103fe6106e5366004614da9565b60b36020526000908152604090205481565b34801561070357600080fd5b506103fe60005481565b34801561071957600080fd5b50610482611401565b34801561072e57600080fd5b506102d161073d366004615111565b60a560209081526000928352604080842090915290825290205460ff1681565b34801561076957600080fd5b506004546103b9906001600160a01b031681565b6102d161078b366004614fde565b61140b565b34801561079c57600080fd5b506104826107ab366004614da9565b6118eb565b3480156107bc57600080fd5b506104826107cb366004614c08565b6118fc565b3480156107dc57600080fd5b506102d16107eb366004614da9565b61190d565b6104826107fe366004614e34565b611952565b34801561080f57600080fd5b506103fe61081e366004614da9565b611e7e565b34801561082f57600080fd5b5061048261083e366004614c08565b611e93565b34801561084f57600080fd5b5060af546103b9906001600160a01b031681565b34801561086f57600080fd5b5061048261087e366004615156565b611ebd565b34801561088f57600080fd5b506006546103b9906001600160a01b031681565b3480156108af57600080fd5b506104826108be366004615111565b612036565b3480156108cf57600080fd5b506103b961204c565b3480156108e457600080fd5b506104826108f3366004615135565b61205b565b34801561090457600080fd5b50610482610913366004615135565b61206d565b34801561092457600080fd5b50610482610933366004614c78565b61207f565b34801561094457600080fd5b506103fe60015481565b34801561095a57600080fd5b50610482610969366004614c08565b61214a565b34801561097a57600080fd5b506103b9610989366004614da9565b60ad602052600090815260409020546001600160a01b031681565b3480156109b057600080fd5b5060b1546103b9906001600160a01b031681565b3480156109d057600080fd5b506103b96109df366004614dd9565b60ae6020908152600096875260408088208252958752858720815293865284862084529185528385208352845282842090915282529020546001600160a01b031681565b348015610a2f57600080fd5b50610482610a3e366004614c40565b612174565b348015610a4f57600080fd5b50610482610a5e366004614c08565b6121a7565b348015610a6f57600080fd5b506003546103b9906001600160a01b031681565b348015610a8f57600080fd5b50610482610a9e366004614c08565b6121b8565b348015610aaf57600080fd5b50610482610abe366004614ca3565b6121c9565b348015610acf57600080fd5b50610482610ade366004614c08565b61220c565b348015610aef57600080fd5b50610482610afe366004614fac565b61221d565b348015610b0f57600080fd5b50610482610b1e366004614f66565b612252565b348015610b2f57600080fd5b50610482610b3e366004614c08565b612290565b348015610b4f57600080fd5b50610482610b5e366004614c08565b6122a1565b610b6b612317565b610b7481612376565b50565b610b7f612317565b610b7481612408565b6000610b92612470565b33600090815260b4602052604090205460ff16610bca5760405162461bcd60e51b8152600401610bc1906157ab565b60405180910390fd5b60005485608001511015610bf05760405162461bcd60e51b8152600401610bc19061582d565b60055460405163aff2faa360e01b81526001600160a01b039091169063aff2faa390610c22908790879060040161562e565b60206040518083038186803b158015610c3a57600080fd5b505afa158015610c4e573d6000803e3d6000fd5b505050506040513d601f19601f82011682018060405250810190610c729190614ce4565b610c8e5760405162461bcd60e51b8152600401610bc190615862565b600654600354604051633b06f0e560e21b81526000927394bD2d4Baa0d29D1aF7dAdA68CA7Cab7c1bc01DC9263ec1bc39492610ce8928b9260b69260a7926001600160a01b03908116928e928e9290911690600401615896565b60206040518083038186803b158015610d0057600080fd5b505af4158015610d14573d6000803e3d6000fd5b505050506040513d601f19601f82011682018060405250810190610d389190614dc1565b905082600081518110610d5b57634e487b7160e01b600052603260045260246000fd5b60209081029190910101516006546001600160a01b039081169116148015610e3657508260018451610d8d9190615cb2565b81518110610dab57634e487b7160e01b600052603260045260246000fd5b60200260200101516001600160a01b031660b7600060b66000858152602001908152602001600020600801600160028110610df657634e487b7160e01b600052603260045260246000fd5b60048104919091015460039091166008026101000a900460c01b6001600160c01b03191681526020810191909152604001600020546001600160a01b0316145b610e815760405162461bcd60e51b815260206004820152601c60248201527b08af0c6d0c2dccecaa4deeae8cae47440d2dcecc2d8d2c840e0c2e8d60231b6044820152606401610bc1565b600081815260a76020526040812054610e9990611e7e565b905080610eb85760405162461bcd60e51b8152600401610bc1906156fa565b600082815260b660209081526040808320600880820154600160401b900460c01b6001600160c01b031916855260b584528285208686528452828520546009830155905484529091529020546001600160a01b031680610f2a5760405162461bcd60e51b8152600401610bc190615774565b610f6b87878080601f0160208091040260200160405190810160405280939291908181526020018383808284376000920191909152508792506124ca915050565b610fbf8188888080601f016020809104026020016040519081016040528093929190818152602001838380828437600092018290525089815260a760205260409020600301548993508b9250905087612693565b600193505050505b610fd16001606f55565b949350505050565b610fe1612470565b60af546001600160a01b03163314806110125750610ffd61204c565b6001600160a01b0316336001600160a01b0316145b61105e5760405162461bcd60e51b815260206004820152601e60248201527f45786368616e6765526f757465723a206e6f7420617574686f72697a656400006044820152606401610bc1565b600085815260a7602052604090206001015460ff16156110905760405162461bcd60e51b8152600401610bc190615683565b600085815260a76020526040908190206001818101805460ff191690911790556002015460065460aa54925163095ea7b360e01b815291926001600160a01b039182169263095ea7b3926110ea921690859060040161559b565b602060405180830381600087803b15801561110457600080fd5b505af1158015611118573d6000803e3d6000fd5b505050506040513d601f19601f8201168201806040525081019061113c9190614ce4565b5060055460405163626885b560e11b81526000916001600160a01b03169063c4d10b6a90611170908790879060040161562e565b60206040518083038186803b15801561118857600080fd5b505afa15801561119c573d6000803e3d6000fd5b505050506040513d601f19601f820116820180604052508101906111c09190614c24565b60aa549091506000906001600160a01b0316633fea4367848860ff8b1660058111156111fc57634e487b7160e01b600052602160045260246000fd5b898960006040518763ffffffff1660e01b815260040161122196959493929190615ab9565b602060405180830381600087803b15801561123b57600080fd5b505af115801561124f573d6000803e3d6000fd5b505050506040513d601f19601f820116820180604052508101906112739190614dc1565b9050336001600160a01b0316887f79bab54e96d1977794ba96251faf4af21e4c1e824335ed0e33ad672cc463194b85848a8c88600160aa60009054906101000a90046001600160a01b03166001600160a01b031663930a60e88c6040518263ffffffff1660e01b81526004016112e991906153c2565b60206040518083038186803b15801561130157600080fd5b505afa158015611315573d6000803e3d6000fd5b505050506040513d601f19601f820116820180604052508101906113399190614dc1565b6113439190615cb2565b60405161135596959493929190615b97565b60405180910390a350505061136a6001606f55565b5050505050565b611379612317565b610b74816129af565b61138a612317565b610b7481612a18565b61139b612317565b60008281526008602090815260409182902080546001600160a01b0319166001600160a01b0385169081179091558251858152918201527f31a8c4e62daac2a3ed5d713004d9ae867d6dcddfa35603db2a4b65d9236b1bc1910160405180910390a15050565b611409612317565b565b6000611415612470565b33600090815260b4602052604090205460ff166114445760405162461bcd60e51b8152600401610bc1906157ab565b6000548560800151101561146a5760405162461bcd60e51b8152600401610bc19061582d565b60055460405163aff2faa360e01b81526001600160a01b039091169063aff2faa39061149c908790879060040161562e565b60206040518083038186803b1580156114b457600080fd5b505afa1580156114c8573d6000803e3d6000fd5b505050506040513d601f19601f820116820180604052508101906114ec9190614ce4565b6115085760405162461bcd60e51b8152600401610bc190615862565b6006546003546040516342cfb5c360e11b81526000927394bD2d4Baa0d29D1aF7dAdA68CA7Cab7c1bc01DC9263859f6b8692611562928b9260099260a7926001600160a01b03908116928e928e9290911690600401615896565b60206040518083038186803b15801561157a57600080fd5b505af415801561158e573d6000803e3d6000fd5b505050506040513d601f19601f820116820180604052508101906115b29190614dc1565b600081815260a76020526040812054919250906115ce90611e7e565b9050806115ed5760405162461bcd60e51b8152600401610bc1906156fa565b600082815260096020908152604080832081516101608101835281548152600182015481850152600282015481840152600382015460ff808216151560608401526101009091046001600160a01b03166080830152600483015460a0830152600583015416151560c08201526006820180548451818702810187019095528085529194929360e08601939092908301828280156116b357602002820191906000526020600020905b81546001600160a01b03168152600190910190602001808311611695575b505050918352505060078201546020808301919091526008808401546040808501919091526009909401546060909301929092528351600090815291905220549091506001600160a01b03168061171c5760405162461bcd60e51b8152600401610bc190615774565b61175d88888080601f0160208091040260200160405190810160405280939291908181526020018383808284376000920191909152508892506124ca915050565b8161012001516001141561188557600084815260ae6020908152604080832060808601516001600160a01b03168452909152812060e084015180518391906117a790600190615cb2565b815181106117c557634e487b7160e01b600052603260045260246000fd5b6020908102919091018101516001600160a01b03908116835282820193909352604091820160009081208784015182528252828120888252825282812089825260a78352838220600301548252909152205416905080156118715761186381868b8b8080601f0160208091040260200160405190810160405280939291908181526020018383808284376000920191909152508a9250612a3f915050565b600195505050505050610fc7565b600085815260096020526040812060080155505b6118d98189898080601f01602080910402602001604051908101604052809392919081815260200183838082843760009201829052508a815260a760205260409020600301548a93508c9250905088612e3f565b6001945050505050610fd16001606f55565b6118f3612317565b610b7481613102565b611904612317565b610b7481613165565b60008181526009602052604081206005015460ff168061193e5750600082815260b6602052604090206007015460ff165b61194957600061194c565b60015b92915050565b61195a612470565b60008881526009602052604090206005015460ff161561198c5760405162461bcd60e51b8152600401610bc190615683565b6000670de0b6b3a76400006119a18482615cb2565b6119ab9088615c93565b6119b59190615c73565b905084811015611a185760405162461bcd60e51b815260206004820152602860248201527f45786368616e6765526f757465723a20696e73756666696369656e742066696c6044820152671b08185b5bdd5b9d60c21b6064820152608401610bc1565b600089815260ae602090815260408083206001600160a01b038c811685529083528184208b82168552835281842089855283528184208885528352818420878552909252909120541615611aae5760405162461bcd60e51b815260206004820152601e60248201527f45786368616e6765526f757465723a20616c72656164792066696c6c656400006044820152606401610bc1565b600089815260ae602090815260408083206001600160a01b038c81168552908352818420908b168452825280832088845282528083208784528252808320868452825280832080546001600160a01b031916331790558b835260b39091529020819055600154841415611cda5760a9546001600160a01b0388811691161415611c3c576040516323b872dd60e01b81526001600160a01b038816906323b872dd90611b6190339030908b906004016154e0565b602060405180830381600087803b158015611b7b57600080fd5b505af1158015611b8f573d6000803e3d6000fd5b505050506040513d601f19601f82011682018060405250810190611bb39190614ce4565b611bcf5760405162461bcd60e51b8152600401610bc1906156c4565b60a954604051632e1a7d4d60e01b8152600481018890526001600160a01b0390911690632e1a7d4d90602401600060405180830381600087803b158015611c1557600080fd5b505af1158015611c29573d6000803e3d6000fd5b50505050611c3788876131f7565b611d85565b6040516323b872dd60e01b81526001600160a01b038816906323b872dd90611c6c9033908c908b906004016154e0565b602060405180830381600087803b158015611c8657600080fd5b505af1158015611c9a573d6000803e3d6000fd5b505050506040513d601f19601f82011682018060405250810190611cbe9190614ce4565b611c375760405162461bcd60e51b8152600401610bc1906156c4565b6040516323b872dd60e01b81526001600160a01b038816906323b872dd90611d0a90339030908b906004016154e0565b602060405180830381600087803b158015611d2457600080fd5b505af1158015611d38573d6000803e3d6000fd5b505050506040513d601f19601f82011682018060405250810190611d5c9190614ce4565b611d785760405162461bcd60e51b8152600401610bc1906156c4565b611d858488888b8761330d565b7f4ff21ad9fa2b7f459914d205193bac58795822c5027805c709b57ec496a585a33360055460405163626885b560e11b81528b916001600160a01b03169063c4d10b6a90611dd7908890600401615642565b60206040518083038186803b158015611def57600080fd5b505afa158015611e03573d6000803e3d6000fd5b505050506040513d601f19601f82011682018060405250810190611e279190614c24565b6040805180820182526006546001600160a01b0390811682528d1660208201529051611e61949392918f918d9089908e908e908e9061547c565b60405180910390a150611e746001606f55565b5050505050505050565b600090815260ab602052604090206001015490565b611e9b612317565b60af80546001600160a01b0319166001600160a01b0392909216919091179055565b600a54610100900460ff1615808015611edd5750600a54600160ff909116105b80611ef75750303b158015611ef75750600a5460ff166001145b611f5a5760405162461bcd60e51b815260206004820152602e60248201527f496e697469616c697a61626c653a20636f6e747261637420697320616c72656160448201526d191e481a5b9a5d1a585b1a5e995960921b6064820152608401610bc1565b600a805460ff191660011790558015611f7d57600a805461ff0019166101001790555b611f856134b0565b611f8d6134df565b6001889055611f9b8b612408565b611fa48a613102565b611fad89612a18565b611fb68661350e565b611fbf876135a0565b611fc885613165565b611fd184613632565b611fda836129af565b611fe382612376565b801561202957600a805461ff0019169055604051600181527f7f26b83ff96e1f2b6a682f133852f6798a09c465da95921460cefb38474024989060200160405180910390a15b5050505050505050505050565b61203e612317565b61204882826136c4565b5050565b603d546001600160a01b031690565b612063612317565b6120488282613760565b612075612317565b61204882826137c8565b612087612317565b61208f612470565b6001600160a01b038216600114156120b7576120b26120ac61204c565b826131f7565b612140565b816001600160a01b031663a9059cbb6120ce61204c565b836040518363ffffffff1660e01b81526004016120ec92919061559b565b602060405180830381600087803b15801561210657600080fd5b505af115801561211a573d6000803e3d6000fd5b505050506040513d601f19601f8201168201806040525081019061213e9190614ce4565b505b6120486001606f55565b612152612317565b60b180546001600160a01b0319166001600160a01b0392909216919091179055565b61217c612317565b6001600160a01b0391909116600090815260b460205260409020805460ff1916911515919091179055565b6121af612317565b610b74816135a0565b6121c0612317565b610b748161350e565b6121d1612317565b6001600160a01b03928316600090815260b2602090815260408083209483529390529190912080546001600160a01b03191691909216179055565b612214612317565b610b7481613829565b612225612317565b6001600160c01b031992909216600090815260b5602090815260408083209383529290522055565b505050565b61225a612317565b6001600160c01b03198216600090815260b76020526040902080546001600160a01b0319166001600160a01b0383161790555050565b612298612317565b610b7481613632565b6122a9612317565b6001600160a01b03811661230e5760405162461bcd60e51b815260206004820152602660248201527f4f776e61626c653a206e6577206f776e657220697320746865207a65726f206160448201526564647265737360d01b6064820152608401610bc1565b610b7481613892565b3361232061204c565b6001600160a01b0316146114095760405162461bcd60e51b815260206004820181905260248201527f4f776e61626c653a2063616c6c6572206973206e6f7420746865206f776e65726044820152606401610bc1565b806001600160a01b03811661239e5760405163d92e233d60e01b815260040160405180910390fd5b60aa546040517f5b663d57fa8cf393f8c8019f514b25c1b3223c9324a2ce3efe28ce5aef0e62fe916123dd916001600160a01b039091169085906153d6565b60405180910390a15060aa80546001600160a01b0319166001600160a01b0392909216919091179055565b600054811161246b5760405162461bcd60e51b815260206004820152602960248201527f434345786368616e6765526f757465723a206c6f77207374617274696e67426c60448201526837b1b5a73ab6b132b960b91b6064820152608401610bc1565b600055565b6002606f5414156124c35760405162461bcd60e51b815260206004820152601f60248201527f5265656e7472616e637947756172643a207265656e7472616e742063616c6c006044820152606401610bc1565b6002606f55565b600081815260a76020526040812054819060651415612503575050600081815260b660205260409020600181015460069091015461251f565b5050600081815260096020526040902060018101546004909101545b6005546040516307f3f86760e21b81526001600160a01b0390911690631fcfe19c9061255390879030908790600401615655565b602060405180830381600087803b15801561256d57600080fd5b505af1158015612581573d6000803e3d6000fd5b505050506040513d601f19601f820116820180604052508101906125a59190614dc1565b50612710600254836125b79190615c93565b6125c19190615c73565b600084815260a7602090815260408083206005810194909455600490930154825260ac90522054612710906125f69084615c93565b6126009190615c73565b600084815260a7602052604090206006015560b054612710906126239084615c93565b61262d9190615c73565b600084815260a7602052604090206007810182905560068101546005909101549091839161265a91615c5b565b6126649190615c5b565b61266e9190615c5b565b6126789083615cb2565b600093845260a7602052604090932060020192909255505050565b6040805160e080820183528382526020808301899052600088815260b6825284812085516101a081018752815481526001820154938101939093526002808201548488015260038201546060850152600482015460ff90811615156080860152600583015460a0860152600683015460c086015260078301541615159484019490945285518087018088529296879661283f9690959186019491939261010085019290916008850191828b855b82829054906101000a900460c01b6001600160c01b03191681526020019060080190602082600701049283019260010382029150808411612740575050509284525050506009820154602080830191909152600a830154604080840191909152600b840154606080850191909152600c9094015460809384015293855260008d815260a7825284902084516101008101865281548152600182015460ff16151581840152600282015481870152600382015481860152600482015481850152600582015460a0820152600682015460c082015260079091015460e0820152908501529183018b905282018990526001600160a01b038c169101526138e4565b91509150811561292157600086815260a7602052604090206001908101805460ff1916909117905561287186886139ba565b600154831461291c5761291c83866001885161288d9190615cb2565b815181106128ab57634e487b7160e01b600052603260045260246000fd5b602002602001015160b660008a81526020019081526020016000206009015484600186516128d99190615cb2565b815181106128f757634e487b7160e01b600052603260045260246000fd5b602002602001015160b660008c81526020019081526020016000206005015489613cce565b611e74565b600086815260a760208181526040808420600781015460b6845291852060069081015494909352600581015492015490929161295c91615c5b565b6129669190615c5b565b6129709190615c5b565b90508060a7600089815260200190815260200160002060020160008282546129989190615c5b565b9091555050505050505050505050565b6001606f55565b60a8546040517f06e5f2ca1234f717a2031f662608c02182d4f8bdc3dab013ec4c04eb97553132916129ee916001600160a01b039091169084906153d6565b60405180910390a160a880546001600160a01b0319166001600160a01b0392909216919091179055565b806127101015612a3a5760405162461bcd60e51b8152600401610bc19061572f565b60b055565b612a4983836139ba565b600083815260096020908152604080832081516101608101835281548152600182015481850152600282015481840152600382015460ff808216151560608401526101009091046001600160a01b03166080830152600483015460a0830152600583015416151560c08201526006820180548451818702810187019095528085529194929360e0860193909290830182828015612b0f57602002820191906000526020600020905b81546001600160a01b03168152600190910190602001808311612af1575b50505091835250506007828101546020808401919091526008840154604080850191909152600990940154606093840152600089815260a7808352858220865161010081018852815481526001808301805460ff81161515848901526002850154848c0190815260038601549a85019a909a526004808601546080860152600586015460a086015260068087015460c0870152959099015460e0850152958f90529390955260ff19909316909317905590549251935163a9059cbb60e01b8152949550936001600160a01b039092169263a9059cbb92612bf2928b92910161559b565b602060405180830381600087803b158015612c0c57600080fd5b505af1158015612c20573d6000803e3d6000fd5b505050506040513d601f19601f82011682018060405250810190612c449190614ce4565b5060006040518060a001604052808460a0015181526020018360e0015181526020018360a0015181526020018360c00151815260200183606001518152509050612c8b3390565b608084015160055460405163626885b560e11b81526001600160a01b0393841693600193811692600080516020615d458339815191529291169063c4d10b6a90612cd9908c90600401615642565b60206040518083038186803b158015612cf157600080fd5b505afa158015612d05573d6000803e3d6000fd5b505050506040513d601f19601f82011682018060405250810190612d299190614c24565b604080518082019091526006546001600160a01b0316815260e08901518051602083019190612d5a90600190615cb2565b81518110612d7857634e487b7160e01b600052603260045260246000fd5b60200260200101516001600160a01b03166001600160a01b031681525060405180604001604052808960400151815260200160b360008f8152602001908152602001600020548152508c8a600001518a608001518a8e604051612de2989796959493929190615504565b60405180910390a460408083015181516001600160a01b038a16815260208101899052918201527fa691ee9f18c723075ade0e555d96de55c74e3e7b7cddc63a0ecbbff7ee6352e79060600160405180910390a150505050505050565b6040805160e08082018352838252602080830189905260008881526009825284812085516101608101875281548152600182015481850152600282015481880152600382015460ff808216151560608401526101009091046001600160a01b03166080830152600483015460a0830152600583015416151560c08201526006820180548851818702810187018a5281815294988998612fdc989097918801969495949086019390929091830182828015612f2257602002820191906000526020600020905b81546001600160a01b03168152600190910190602001808311612f04575b5050509183525050600782810154602080840191909152600884015460408085019190915260099094015460609384015293855260008d815260a7855283902083516101008101855281548152600182015460ff161515818701526002820154818601526003820154818501526004820154608080830191909152600583015460a0830152600683015460c0830152919092015460e0830152938501529083018b905282018990526001600160a01b038c16910152613eef565b9150915081156130c657600086815260a7602052604090206001908101805460ff1916909117905561300e86886139ba565b600154831461291c57600086815260a76020526040902054855161291c9190879061303b90600190615cb2565b8151811061305957634e487b7160e01b600052603260045260246000fd5b602002602001015183600185516130709190615cb2565b8151811061308e57634e487b7160e01b600052603260045260246000fd5b6020026020010151600960008b815260200190815260200160002060030160019054906101000a90046001600160a01b03168861330d565b600086815260a7602081815260408084206007810154600984529185206004015493909252600582015460069092015490929161295c91615c5b565b8061271010156131245760405162461bcd60e51b8152600401610bc19061572f565b60025460408051918252602082018390527f7d205f60891f60851c61cd244ba387d72b6589e7c0ac41b9d909ab0ce2c2a53b910160405180910390a1600255565b806001600160a01b03811661318d5760405163d92e233d60e01b815260040160405180910390fd5b6006546040517f36a4c08a38b736dcecb6c328dba61238529620e83ccb23db2cc43cd34ec26096916131cc916001600160a01b039091169085906153d6565b60405180910390a150600680546001600160a01b0319166001600160a01b0392909216919091179055565b804710156132475760405162461bcd60e51b815260206004820152601d60248201527f416464726573733a20696e73756666696369656e742062616c616e63650000006044820152606401610bc1565b6000826001600160a01b03168260405160006040518083038185875af1925050503d8060008114613294576040519150601f19603f3d011682016040523d82523d6000602084013e613299565b606091505b505090508061224d5760405162461bcd60e51b815260206004820152603a60248201527f416464726573733a20756e61626c6520746f2073656e642076616c75652c20726044820152791958da5c1a595b9d081b585e481a185d99481c995d995c9d195960321b6064820152608401610bc1565b60a85460405163095ea7b360e01b81526001600160a01b038681169263095ea7b3926133419290911690879060040161559b565b602060405180830381600087803b15801561335b57600080fd5b505af115801561336f573d6000803e3d6000fd5b505050506040513d601f19601f820116820180604052508101906133939190614ce4565b5060af546001600160a01b03858116600090815260b2602052604081209092919091169084908790846133c58b611e7e565b81526020810191909152604001600020546001600160a01b031687670de0b6b3a76400006133f38882615cb2565b6133fd908b615c93565b6134079190615c73565b6134108c611e7e565b60004261341f81613840615c5b565b60408051602081018252600080825291516134489c9b9a999897969594939291906024016153f0565b60408051601f19818403018152918152602080830180516001600160e01b0316633dc9c91960e11b179052905191925060009161348791849101615399565b60408051601f1981840301815291905260a854909150611e74906001600160a01b031682614778565b600a54610100900460ff166134d75760405162461bcd60e51b8152600401610bc1906157e2565b6114096147c1565b600a54610100900460ff166135065760405162461bcd60e51b8152600401610bc1906157e2565b6114096147f1565b806001600160a01b0381166135365760405163d92e233d60e01b815260040160405180910390fd5b6003546040517f4c28a3f61a715259c4dc930c23e7423b8fa52e13232c061a6e488729c66184f491613575916001600160a01b039091169085906153d6565b60405180910390a150600380546001600160a01b0319166001600160a01b0392909216919091179055565b806001600160a01b0381166135c85760405163d92e233d60e01b815260040160405180910390fd5b6005546040517ffa021c2ec0f46429a53e7f88b88065e40001f50c9d38b2e8b713beaf9828d4c391613607916001600160a01b039091169085906153d6565b60405180910390a150600580546001600160a01b0319166001600160a01b0392909216919091179055565b806001600160a01b03811661365a5760405163d92e233d60e01b815260040160405180910390fd5b6007546040517f567657fa3f286518b318f4a29870674f433f622fdfc819691acb13105b22822591613699916001600160a01b039091169085906153d6565b60405180910390a150600780546001600160a01b0319166001600160a01b0392909216919091179055565b600082815260ad6020526040908190205490517f1e73962bcff5b98a9ac70c9b0f71fbb31dc0f5a09348c6d3ceab164169a9e7299161372a9185916001600160a01b03169085909283526001600160a01b03918216602084015216604082015260600190565b60405180910390a1600091825260ad602052604090912080546001600160a01b0319166001600160a01b03909216919091179055565b60408051838152602081018390527f102cb592c601969e68b19c6d96d1fc5f09b9b7214423c922de7dd67fe04cf801910160405180910390a16040805180820182526001805482526020808301958652600094855260ab905291909220915182559151910155565b600082815260ac6020908152604091829020548251858152918201529081018290527f188adabf806a6b6d814acc1dbd9f09e5a251c8c065d6285749a5824e4579b6459060600160405180910390a1600091825260ac602052604090912055565b60a9546040517f4da8064030e901e42f6de0ab04f4c322d7936d0120503addfe8a51f12709068991613868916001600160a01b039091169084906153d6565b60405180910390a160a980546001600160a01b0319166001600160a01b0392909216919091179055565b603d80546001600160a01b038381166001600160a01b0319831681179093556040519116919082907f8be0079c531659141344cd1fd0a4f28419497f9722a3daafe3b4186f6b6457e090600090a35050565b6040805160a0810182526006546001600160a01b03908116825260a954811660208301528351828401526005541660608083019190915233608083015291516341f6f44f60e11b815260009291739Fb7c971be57a225BC344dB79AEB79841Ff251CF916383ede89e9161395c918791906004016158f2565b60006040518083038186803b15801561397457600080fd5b505af4158015613988573d6000803e3d6000fd5b505050506040513d6000823e601f3d908101601f191682016040526139b09190810190614d00565b9094909350915050565b600082815260096020526040812060040154156139e95750600082815260096020526040902060040154613a14565b600083815260b6602052604090206006015415613a145750600082815260b660205260409020600601545b8015613a9e576006546001600160a01b031663a9059cbb33836040518363ffffffff1660e01b8152600401613a4a92919061559b565b602060405180830381600087803b158015613a6457600080fd5b505af1158015613a78573d6000803e3d6000fd5b505050506040513d601f19601f82011682018060405250810190613a9c9190614ce4565b505b600083815260a7602052604090206005015415613b5057600654600754600085815260a760205260409081902060050154905163a9059cbb60e01b81526001600160a01b039384169363a9059cbb93613afc9391169160040161559b565b602060405180830381600087803b158015613b1657600080fd5b505af1158015613b2a573d6000803e3d6000fd5b505050506040513d601f19601f82011682018060405250810190613b4e9190614ce4565b505b600083815260a7602052604090206006015415613c175760068054600085815260a760208181526040808420600480820154865260ad845282862054958b905293909252940154935163a9059cbb60e01b81526001600160a01b039384169463a9059cbb94613bc394169290910161559b565b602060405180830381600087803b158015613bdd57600080fd5b505af1158015613bf1573d6000803e3d6000fd5b505050506040513d601f19601f82011682018060405250810190613c159190614ce4565b505b600083815260a760205260409020600701541561224d5760055460405163626885b560e11b815261224d916001600160a01b03169063c4d10b6a90613c60908690600401615642565b60206040518083038186803b158015613c7857600080fd5b505afa158015613c8c573d6000803e3d6000fd5b505050506040513d601f19601f82011682018060405250810190613cb09190614c24565b600085815260a7602052604090206007810154600490910154614818565b60a85460405163095ea7b360e01b81526001600160a01b038781169263095ea7b392613d029290911690879060040161559b565b602060405180830381600087803b158015613d1c57600080fd5b505af1158015613d30573d6000803e3d6000fd5b505050506040513d601f19601f82011682018060405250810190613d549190614ce4565b50606086651f2abb7bf89b1415613e0b5760af546001600160a01b0390811690849088168787670de0b6b3a7640000613d8d8882615cb2565b613d97908b615c93565b613da19190615c73565b8c600042613db181613840615c5b565b6040805160208101825260008082529151613dda9c9b9a999897969594939291906024016155b4565b60408051601f198184030181529190526020810180516001600160e01b03166356aa12e360e11b1790529050613ea8565b60af546001600160a01b031683878787670de0b6b3a7640000613e2e8882615cb2565b613e38908b615c93565b613e429190615c73565b8c600042613e5281613840615c5b565b6040805160208101825260008082529151613e7b9c9b9a999897969594939291906024016153f0565b60408051601f198184030181529190526020810180516001600160e01b0316633dc9c91960e11b17905290505b600081604051602001613ebb9190615399565b60408051601f1981840301815291905260a854909150613ee4906001600160a01b031682614778565b505050505050505050565b60065460c0820151606083810151604090810151905163095ea7b360e01b815260009492936001600160a01b039093169263095ea7b392613f329260040161559b565b602060405180830381600087803b158015613f4c57600080fd5b505af1158015613f60573d6000803e3d6000fd5b505050506040513d601f19601f82011682018060405250810190613f849190614ce4565b5060065460a084015180516001600160a01b0390921691600090613fb857634e487b7160e01b600052603260045260246000fd5b60200260200101516001600160a01b031614801561405f5750604083015160e001518051613fe890600190615cb2565b8151811061400657634e487b7160e01b600052603260045260246000fd5b60200260200101516001600160a01b03168360a0015160018560a001515161402e9190615cb2565b8151811061404c57634e487b7160e01b600052603260045260246000fd5b60200260200101516001600160a01b0316145b6140ab5760405162461bcd60e51b815260206004820152601e60248201527f436345786368616e6765526f757465723a20696e76616c6964207061746800006044820152606401610bc1565b8260c001516001600160a01b031663b0bbcd88846060015160400151856060015160600151670de0b6b3a76400006140e39190615cb2565b670de0b6b3a76400008760400151604001516140ff9190615c93565b6141099190615c73565b8660a00151304260016040518763ffffffff1660e01b815260040161413396959493929190615b1b565b600060405180830381600087803b15801561414d57600080fd5b505af1158015614161573d6000803e3d6000fd5b505050506040513d6000823e601f3d908101601f191682016040526141899190810190614d00565b909250905081156145b857600154835114156143315760a08301518051600091906141b690600190615cb2565b815181106141d457634e487b7160e01b600052603260045260246000fd5b60200260200101519050600082600184516141ef9190615cb2565b8151811061420d57634e487b7160e01b600052603260045260246000fd5b602090810291909101015160a9549091506001600160a01b038381169116146142be5760408086015160800151905163a9059cbb60e01b81526001600160a01b0384169163a9059cbb916142669190859060040161559b565b602060405180830381600087803b15801561428057600080fd5b505af1158015614294573d6000803e3d6000fd5b505050506040513d601f19601f820116820180604052508101906142b89190614ce4565b5061432e565b60a954604051632e1a7d4d60e01b8152600481018390526001600160a01b0390911690632e1a7d4d90602401600060405180830381600087803b15801561430457600080fd5b505af1158015614318573d6000803e3d6000fd5b5050505061432e856040015160800151826131f7565b50505b6000670de0b6b3a764000084606001516060015183600185516143549190615cb2565b8151811061437257634e487b7160e01b600052603260045260246000fd5b60200260200101516143849190615c93565b61438e9190615c73565b905060006040518060a00160405280866040015160a001518152602001866060015160e001518152602001866060015160a001518152602001866060015160c0015181526020018381525090506143e23390565b60408087015161012081015160809091015160055460208a0151935163626885b560e11b81526001600160a01b0395861695939492841693600080516020615d458339815191529392169163c4d10b6a916144409190600401615642565b60206040518083038186803b15801561445857600080fd5b505afa15801561446c573d6000803e3d6000fd5b505050506040513d601f19601f820116820180604052508101906144909190614c24565b604080518082019091526006546001600160a01b0316815260a08b015180516020830191906144c190600190615cb2565b815181106144df57634e487b7160e01b600052603260045260246000fd5b60200260200101516001600160a01b03166001600160a01b031681525060405180604001604052808a60008151811061452857634e487b7160e01b600052603260045260246000fd5b60200260200101518152602001898b60018d516145459190615cb2565b8151811061456357634e487b7160e01b600052603260045260246000fd5b60200260200101516145759190615cb2565b8152508b608001518c60400151600001518d60600151608001518a8f600001516040516145a9989796959493929190615504565b60405180910390a45050915091565b60006040518060a0016040528060008152602001600081526020016000815260200160008152602001600081525090506145ef3390565b6040808601516101208101516080909101516005546020890151935163626885b560e11b81526001600160a01b03958616959394928416937f4bdbd9bfa84241c4a39e7be48e0a8678cfbecfbcfae5d87f01b13de30b8c9e9a9392169163c4d10b6a9161465f9190600401615642565b60206040518083038186803b15801561467757600080fd5b505afa15801561468b573d6000803e3d6000fd5b505050506040513d601f19601f820116820180604052508101906146af9190614c24565b604080518082019091526006546001600160a01b0316815260a08a015180516020830191906146e090600190615cb2565b815181106146fe57634e487b7160e01b600052603260045260246000fd5b60200260200101516001600160a01b03166001600160a01b031681525060405180604001604052808b6060015160400151815260200160008152508a608001518b60400151600001518c60600151608001518a8e6000015160405161476a989796959493929190615504565b60405180910390a450915091565b60606147ba83836040518060400160405280601e81526020017f416464726573733a206c6f772d6c6576656c2063616c6c206661696c656400008152506149a0565b9392505050565b600a54610100900460ff166147e85760405162461bcd60e51b8152600401610bc1906157e2565b61140933613892565b600a54610100900460ff166129a85760405162461bcd60e51b8152600401610bc1906157e2565b811561224d5760b1546001600160a01b0316158061483557508015155b156148c45760065460405163a9059cbb60e01b81526001600160a01b039091169063a9059cbb9061486c908690869060040161559b565b602060405180830381600087803b15801561488657600080fd5b505af115801561489a573d6000803e3d6000fd5b505050506040513d601f19601f820116820180604052508101906148be9190614ce4565b50505050565b60065460b15460405163095ea7b360e01b81526001600160a01b039283169263095ea7b3926148fa92911690869060040161559b565b602060405180830381600087803b15801561491457600080fd5b505af1158015614928573d6000803e3d6000fd5b505050506040513d601f19601f8201168201806040525081019061494c9190614ce4565b5060b1546040516148be916001600160a01b031690614971908690869060240161559b565b60408051601f198184030181529190526020810180516001600160e01b0316637db4e28f60e01b179052614778565b6060610fd1848460008585843b6149f95760405162461bcd60e51b815260206004820152601d60248201527f416464726573733a2063616c6c20746f206e6f6e2d636f6e74726163740000006044820152606401610bc1565b600080866001600160a01b03168587604051614a15919061537d565b60006040518083038185875af1925050503d8060008114614a52576040519150601f19603f3d011682016040523d82523d6000602084013e614a57565b606091505b5091509150614a67828286614a72565b979650505050505050565b60608315614a815750816147ba565b825115614a915782518084602001fd5b8160405162461bcd60e51b8152600401610bc19190615642565b600082601f830112614abb578081fd5b81356020614ad0614acb83615c38565b615c08565b80838252828201915082860187848660051b8901011115614aef578586fd5b855b85811015614b16578135614b0481615d21565b84529284019290840190600101614af1565b5090979650505050505050565b80356001600160e01b031981168114614b3b57600080fd5b919050565b80356001600160c01b031981168114614b3b57600080fd5b60008083601f840112614b69578182fd5b5081356001600160401b03811115614b7f578182fd5b602083019150836020828501011115614b9757600080fd5b9250929050565b600082601f830112614bae578081fd5b81356001600160401b03811115614bc757614bc7615d0b565b614bda601f8201601f1916602001615c08565b818152846020838601011115614bee578283fd5b816020850160208301379081016020019190915292915050565b600060208284031215614c19578081fd5b81356147ba81615d21565b600060208284031215614c35578081fd5b81516147ba81615d21565b60008060408385031215614c52578081fd5b8235614c5d81615d21565b91506020830135614c6d81615d36565b809150509250929050565b60008060408385031215614c8a578182fd5b8235614c9581615d21565b946020939093013593505050565b600080600060608486031215614cb7578081fd5b8335614cc281615d21565b9250602084013591506040840135614cd981615d21565b809150509250925092565b600060208284031215614cf5578081fd5b81516147ba81615d36565b60008060408385031215614d12578182fd5b8251614d1d81615d36565b602084810151919350906001600160401b03811115614d3a578283fd5b8401601f81018613614d4a578283fd5b8051614d58614acb82615c38565b80828252848201915084840189868560051b8701011115614d77578687fd5b8694505b83851015614d99578051835260019490940193918501918501614d7b565b5080955050505050509250929050565b600060208284031215614dba578081fd5b5035919050565b600060208284031215614dd2578081fd5b5051919050565b60008060008060008060c08789031215614df1578384fd5b863595506020870135614e0381615d21565b94506040870135614e1381615d21565b959894975094956060810135955060808101359460a0909101359350915050565b600080600080600080600080610100898b031215614e50578586fd5b883597506020890135614e6281615d21565b96506040890135614e7281615d21565b9550606089013594506080890135935060a0890135925060c0890135915060e08901356001600160401b03811115614ea8578182fd5b614eb48b828c01614b9e565b9150509295985092959890939650565b600080600080600060808688031215614edb578283fd5b85359450602086013560ff81168114614ef2578384fd5b935060408601356001600160401b0380821115614f0d578485fd5b614f1989838a01614b9e565b94506060880135915080821115614f2e578283fd5b50614f3b88828901614b58565b969995985093965092949392505050565b600060208284031215614f5d578081fd5b6147ba82614b40565b60008060408385031215614f78578182fd5b614f8183614b40565b91506020830135614c6d81615d21565b60008060408385031215614fa3578182fd5b614c9583614b40565b600080600060608486031215614fc0578081fd5b614fc984614b40565b95602085013595506040909401359392505050565b60008060008060608587031215614ff3578182fd5b84356001600160401b0380821115615009578384fd5b9086019060e0828903121561501c578384fd5b615024615be0565b61502d83614b23565b8152602083013582811115615040578586fd5b61504c8a828601614b9e565b602083015250604083013582811115615063578586fd5b61506f8a828601614b9e565b60408301525061508160608401614b23565b60608201526080830135608082015260a0830135828111156150a1578586fd5b6150ad8a828601614b9e565b60a08301525060c083013560c08201528096505060208701359150808211156150d4578384fd5b6150e088838901614b58565b909550935060408701359150808211156150f8578283fd5b5061510587828801614aab565b91505092959194509250565b60008060408385031215615123578182fd5b823591506020830135614c6d81615d21565b60008060408385031215615147578182fd5b50508035926020909101359150565b6000806000806000806000806000806101408b8d031215615175578384fd5b8a35995060208b0135985060408b0135975060608b0135965060808b013561519c81615d21565b955060a08b01356151ac81615d21565b945060c08b01356151bc81615d21565b935060e08b01356151cc81615d21565b92506101008b01356151dd81615d21565b91506101208b01356151ee81615d21565b809150509295989b9194979a5092959850565b8060005b60028110156148be5781516001600160a01b0316845260209384019390910190600101615205565b6000815180845260208085019450808401835b838110156152655781516001600160a01b031687529582019590820190600101615240565b509495945050505050565b8060005b60028110156148be5781516001600160c01b031916845260209384019390910190600101615274565b81835281816020850137506000828201602090810191909152601f909101601f19169091010190565b600081518084526152de816020860160208601615cc9565b601f01601f19169290920160200192915050565b600063ffffffff60e01b808351168452602083015160e0602086015261531b60e08601826152c6565b90506040840151858203604087015261533482826152c6565b9150508160608501511660608601526080840151608086015260a0840151915084810360a086015261536681836152c6565b91505060c083015160c08501528091505092915050565b6000825161538f818460208701615cc9565b9190910192915050565b600082516153ab818460208701615cc9565b641dc0de008360d81b920191825250600501919050565b6001600160a01b0391909116815260200190565b6001600160a01b0392831681529116602082015260400190565b6001600160a01b038d811682528c811660208301528b811660408301528a81166060830152608082018a905260a0820189905260c08201889052861660e082015263ffffffff858116610100830152841661012082015260ff8316610140820152600061018061016083015261546a6101808301846152c6565b9e9d5050505050505050505050505050565b6001600160a01b038b811682528a81166020830152891660408201526060810188905261016081016154b16080830189615201565b60c082019690965260e08101949094526101008401929092526101208301526101409091015295945050505050565b6001600160a01b039384168152919092166020820152604081019190915260600190565b6001600160a01b03891681526101c0810160206155238184018b615201565b606083018960005b60028110156155485781518352918301919083019060010161552b565b5050508760a08401528660c08401528560e084015261010083018560005b600581101561558357815183529183019190830190600101615566565b50505050826101a08301529998505050505050505050565b6001600160a01b03929092168252602082015260400190565b60006101808e83528d60208401528c60408401528b60608401528a60808401528960a08401528860c08401528760e084015263ffffffff8088166101008501528087166101208501525060ff85166101408401528061016084015261561b818401856152c6565b9f9e505050505050505050505050505050565b602081526000610fd160208301848661529d565b6020815260006147ba60208301846152c6565b60608152600061566860608301866152c6565b6001600160a01b039490941660208301525060400152919050565b60208082526021908201527f45786368616e6765526f757465723a20616c72656164792070726f63657373656040820152601960fa1b606082015260800190565b6020808252601c908201527b45786368616e6765526f757465723a206e6f20616c6c6f77616e636560201b604082015260600190565b6020808252818101527f45786368616e6765526f757465723a20696e76616c696420636861696e206964604082015260600190565b60208082526025908201527f434345786368616e6765526f757465723a20666565206973206f7574206f662060408201526472616e676560d81b606082015260800190565b6020808252601d908201527f45786368616e6765526f757465723a20696e76616c6964206170704964000000604082015260600190565b6020808252601e908201527f45786368616e6765526f757465723a20696e76616c69642073656e6465720000604082015260600190565b6020808252602b908201527f496e697469616c697a61626c653a20636f6e7472616374206973206e6f74206960408201526a6e697469616c697a696e6760a81b606082015260800190565b6020808252601b908201527a115e18da185b99d9549bdd5d195c8e881bdb19081c995c5d595cdd602a1b604082015260600190565b6020808252601a908201527922bc31b430b733b2a937baba32b91d103737ba103637b1b5b2b960311b604082015260600190565b60c0815260006158a960c083018a6152f2565b60208301899052604083018890526001600160a01b03878116606085015283820360808501526158da82878961529d565b925080851660a0850152505098975050505050505050565b60c08152825160c08201526000602084015161036060e084015261591a6104208401826152c6565b90506040850151610100815181860152602082015161012081818801526040840151915061014082818901526060850151925061016083818a01526080860151935061018061596c818b018615159052565b60a08701516101a08b015260c08701516101c08b015260e08701518015156101e08c0152945094860151946159a56102008b0187615270565b928601516102408a01529085015161026089015284015161028088015292909201516102a0860152505060608581015180516102c0860152602081015115156102e0860152604081015161030086015290810151610320850152608081015161034085015260a081015161036085015260c081015161038085015260e08101516103a08501525060808501516103c084015260a085015183820360bf19016103e0850152615a53828261522d565b91505060c0850151615a716104008501826001600160a01b03169052565b5090506147ba602083018480516001600160a01b0390811683526020808301518216908401526040808301519084015260608083015182169084015260809182015116910152565b86815260a060208201526000615ad260a08301886152c6565b60068710615aee57634e487b7160e01b82526021600452602482fd5b8660408401528281036060840152615b0781868861529d565b915050826080830152979650505050505050565b600060c082018883526020888185015260c0604085015281885180845260e086019150828a019350845b81811015615b6a5784516001600160a01b031683529383019391830191600101615b45565b50506001600160a01b039790971660608501525050506080810192909252151560a0909101529392505050565b86815285602082015260c060408201526000615bb660c08301876152c6565b60ff959095166060830152506001600160a01b0392909216608083015260a0909101529392505050565b60405160e081016001600160401b0381118282101715615c0257615c02615d0b565b60405290565b604051601f8201601f191681016001600160401b0381118282101715615c3057615c30615d0b565b604052919050565b60006001600160401b03821115615c5157615c51615d0b565b5060051b60200190565b60008219821115615c6e57615c6e615cf5565b500190565b600082615c8e57634e487b7160e01b81526012600452602481fd5b500490565b6000816000190483118215151615615cad57615cad615cf5565b500290565b600082821015615cc457615cc4615cf5565b500390565b60005b83811015615ce4578181015183820152602001615ccc565b838111156148be5750506000910152565b634e487b7160e01b600052601160045260246000fd5b634e487b7160e01b600052604160045260246000fd5b6001600160a01b0381168114610b7457600080fd5b8015158114610b7457600080fdfe83f3c3e82621afa914bb49ee3bc3bcadb1d41b3d6f836aa437172cbb3d4dbb6ea264697066735822122038dcfa15c7216c42b05213519c63021ec07aff4f2da7b4a8cd6532f9b12857a764736f6c63430008040033",
  "deployedBytecode": "0x6080604052600436106102955760003560e01c806303c67359146102a157806306be8b0e146102e65780630f8320ce1461038357806316e1d491146103c657806317fcb39b1461040c5780631812adb61461042c5780631876dec4146104425780631dc4b09c146104625780631e7107c7146104845780632554a14c146104a4578063292c1d92146104b7578063303a785d146104d75780634e63ba95146104f75780635221c1f01461054057806359fd0b0c146105705780635f9491291461059d57806361be10f2146105de57806361d027b3146105fe578063639080201461061e5780636600203d146106345780636b2857ef146106545780636c32b2ec146106745780636e8adf61146106945780636f37b7c0146106ca57806370872aa5146106f7578063715018a61461070d57806375979f7914610722578063790239091461075d5780637a2181351461077d5780637ed55748146107905780637f0f1817146107b057806380bc4726146107d05780638132191e146107f057806383a3695414610803578063878269b51461082357806387c554f8146108435780638c0d9dca146108635780638d3d78cd146108835780638d5fc1d4146108a35780638da5cb5b146108c35780638f0c5083146108d85780638f9eb78b146108f857806395ccea67146109185780639a8a059214610938578063a1809b951461094e578063a9b682711461096e578063acc2166a146109a4578063acc6e092146109c4578063b07acef214610a23578063b14d353214610a43578063b59589d114610a63578063c805f68b14610a83578063d7fe6b7d14610aa3578063da058ae314610ac3578063daf44b9314610ae3578063e509463814610b03578063f0f4426014610b23578063f2fde38b14610b4357600080fd5b3661029c57005b600080fd5b3480156102ad57600080fd5b506102d16102bc366004614c08565b60b46020526000908152604090205460ff1681565b60405190151581526020015b60405180910390f35b3480156102f257600080fd5b50610348610301366004614da9565b60a76020526000908152604090208054600182015460028301546003840154600485015460058601546006870154600790970154959660ff90951695939492939192909188565b604080519889529615156020890152958701949094526060860192909252608085015260a084015260c083015260e0820152610100016102dd565b34801561038f57600080fd5b506103b961039e366004614f4c565b60b7602052600090815260409020546001600160a01b031681565b6040516102dd91906153c2565b3480156103d257600080fd5b506103fe6103e1366004614f91565b60b560209081526000928352604080842090915290825290205481565b6040519081526020016102dd565b34801561041857600080fd5b5060a9546103b9906001600160a01b031681565b34801561043857600080fd5b506103fe60025481565b34801561044e57600080fd5b506005546103b9906001600160a01b031681565b34801561046e57600080fd5b5061048261047d366004614c08565b610b63565b005b34801561049057600080fd5b5061048261049f366004614da9565b610b77565b6102d16104b2366004614fde565b610b88565b3480156104c357600080fd5b5060a8546103b9906001600160a01b031681565b3480156104e357600080fd5b506104826104f2366004614ec4565b610fd9565b34801561050357600080fd5b5061052b610512366004614da9565b60ab602052600090815260409020805460019091015482565b604080519283526020830191909152016102dd565b34801561054c57600080fd5b506102d161055b366004614da9565b60a66020526000908152604090205460ff1681565b34801561057c57600080fd5b506103fe61058b366004614da9565b60ac6020526000908152604090205481565b3480156105a957600080fd5b506103b96105b8366004614c78565b60b26020908152600092835260408084209091529082529020546001600160a01b031681565b3480156105ea57600080fd5b506104826105f9366004614c08565b611371565b34801561060a57600080fd5b506007546103b9906001600160a01b031681565b34801561062a57600080fd5b506103fe60b05481565b34801561064057600080fd5b5061048261064f366004614da9565b611382565b34801561066057600080fd5b5061048261066f366004615111565b611393565b34801561068057600080fd5b5060aa546103b9906001600160a01b031681565b3480156106a057600080fd5b506103b96106af366004614da9565b6008602052600090815260409020546001600160a01b031681565b3480156106d657600080fd5b506103fe6106e5366004614da9565b60b36020526000908152604090205481565b34801561070357600080fd5b506103fe60005481565b34801561071957600080fd5b50610482611401565b34801561072e57600080fd5b506102d161073d366004615111565b60a560209081526000928352604080842090915290825290205460ff1681565b34801561076957600080fd5b506004546103b9906001600160a01b031681565b6102d161078b366004614fde565b61140b565b34801561079c57600080fd5b506104826107ab366004614da9565b6118eb565b3480156107bc57600080fd5b506104826107cb366004614c08565b6118fc565b3480156107dc57600080fd5b506102d16107eb366004614da9565b61190d565b6104826107fe366004614e34565b611952565b34801561080f57600080fd5b506103fe61081e366004614da9565b611e7e565b34801561082f57600080fd5b5061048261083e366004614c08565b611e93565b34801561084f57600080fd5b5060af546103b9906001600160a01b031681565b34801561086f57600080fd5b5061048261087e366004615156565b611ebd565b34801561088f57600080fd5b506006546103b9906001600160a01b031681565b3480156108af57600080fd5b506104826108be366004615111565b612036565b3480156108cf57600080fd5b506103b961204c565b3480156108e457600080fd5b506104826108f3366004615135565b61205b565b34801561090457600080fd5b50610482610913366004615135565b61206d565b34801561092457600080fd5b50610482610933366004614c78565b61207f565b34801561094457600080fd5b506103fe60015481565b34801561095a57600080fd5b50610482610969366004614c08565b61214a565b34801561097a57600080fd5b506103b9610989366004614da9565b60ad602052600090815260409020546001600160a01b031681565b3480156109b057600080fd5b5060b1546103b9906001600160a01b031681565b3480156109d057600080fd5b506103b96109df366004614dd9565b60ae6020908152600096875260408088208252958752858720815293865284862084529185528385208352845282842090915282529020546001600160a01b031681565b348015610a2f57600080fd5b50610482610a3e366004614c40565b612174565b348015610a4f57600080fd5b50610482610a5e366004614c08565b6121a7565b348015610a6f57600080fd5b506003546103b9906001600160a01b031681565b348015610a8f57600080fd5b50610482610a9e366004614c08565b6121b8565b348015610aaf57600080fd5b50610482610abe366004614ca3565b6121c9565b348015610acf57600080fd5b50610482610ade366004614c08565b61220c565b348015610aef57600080fd5b50610482610afe366004614fac565b61221d565b348015610b0f57600080fd5b50610482610b1e366004614f66565b612252565b348015610b2f57600080fd5b50610482610b3e366004614c08565b612290565b348015610b4f57600080fd5b50610482610b5e366004614c08565b6122a1565b610b6b612317565b610b7481612376565b50565b610b7f612317565b610b7481612408565b6000610b92612470565b33600090815260b4602052604090205460ff16610bca5760405162461bcd60e51b8152600401610bc1906157ab565b60405180910390fd5b60005485608001511015610bf05760405162461bcd60e51b8152600401610bc19061582d565b60055460405163aff2faa360e01b81526001600160a01b039091169063aff2faa390610c22908790879060040161562e565b60206040518083038186803b158015610c3a57600080fd5b505afa158015610c4e573d6000803e3d6000fd5b505050506040513d601f19601f82011682018060405250810190610c729190614ce4565b610c8e5760405162461bcd60e51b8152600401610bc190615862565b600654600354604051633b06f0e560e21b815260009273__$62116a2d8fdb45afa1e131c95c47186d10$__9263ec1bc39492610ce8928b9260b69260a7926001600160a01b03908116928e928e9290911690600401615896565b60206040518083038186803b158015610d0057600080fd5b505af4158015610d14573d6000803e3d6000fd5b505050506040513d601f19601f82011682018060405250810190610d389190614dc1565b905082600081518110610d5b57634e487b7160e01b600052603260045260246000fd5b60209081029190910101516006546001600160a01b039081169116148015610e3657508260018451610d8d9190615cb2565b81518110610dab57634e487b7160e01b600052603260045260246000fd5b60200260200101516001600160a01b031660b7600060b66000858152602001908152602001600020600801600160028110610df657634e487b7160e01b600052603260045260246000fd5b60048104919091015460039091166008026101000a900460c01b6001600160c01b03191681526020810191909152604001600020546001600160a01b0316145b610e815760405162461bcd60e51b815260206004820152601c60248201527b08af0c6d0c2dccecaa4deeae8cae47440d2dcecc2d8d2c840e0c2e8d60231b6044820152606401610bc1565b600081815260a76020526040812054610e9990611e7e565b905080610eb85760405162461bcd60e51b8152600401610bc1906156fa565b600082815260b660209081526040808320600880820154600160401b900460c01b6001600160c01b031916855260b584528285208686528452828520546009830155905484529091529020546001600160a01b031680610f2a5760405162461bcd60e51b8152600401610bc190615774565b610f6b87878080601f0160208091040260200160405190810160405280939291908181526020018383808284376000920191909152508792506124ca915050565b610fbf8188888080601f016020809104026020016040519081016040528093929190818152602001838380828437600092018290525089815260a760205260409020600301548993508b9250905087612693565b600193505050505b610fd16001606f55565b949350505050565b610fe1612470565b60af546001600160a01b03163314806110125750610ffd61204c565b6001600160a01b0316336001600160a01b0316145b61105e5760405162461bcd60e51b815260206004820152601e60248201527f45786368616e6765526f757465723a206e6f7420617574686f72697a656400006044820152606401610bc1565b600085815260a7602052604090206001015460ff16156110905760405162461bcd60e51b8152600401610bc190615683565b600085815260a76020526040908190206001818101805460ff191690911790556002015460065460aa54925163095ea7b360e01b815291926001600160a01b039182169263095ea7b3926110ea921690859060040161559b565b602060405180830381600087803b15801561110457600080fd5b505af1158015611118573d6000803e3d6000fd5b505050506040513d601f19601f8201168201806040525081019061113c9190614ce4565b5060055460405163626885b560e11b81526000916001600160a01b03169063c4d10b6a90611170908790879060040161562e565b60206040518083038186803b15801561118857600080fd5b505afa15801561119c573d6000803e3d6000fd5b505050506040513d601f19601f820116820180604052508101906111c09190614c24565b60aa549091506000906001600160a01b0316633fea4367848860ff8b1660058111156111fc57634e487b7160e01b600052602160045260246000fd5b898960006040518763ffffffff1660e01b815260040161122196959493929190615ab9565b602060405180830381600087803b15801561123b57600080fd5b505af115801561124f573d6000803e3d6000fd5b505050506040513d601f19601f820116820180604052508101906112739190614dc1565b9050336001600160a01b0316887f79bab54e96d1977794ba96251faf4af21e4c1e824335ed0e33ad672cc463194b85848a8c88600160aa60009054906101000a90046001600160a01b03166001600160a01b031663930a60e88c6040518263ffffffff1660e01b81526004016112e991906153c2565b60206040518083038186803b15801561130157600080fd5b505afa158015611315573d6000803e3d6000fd5b505050506040513d601f19601f820116820180604052508101906113399190614dc1565b6113439190615cb2565b60405161135596959493929190615b97565b60405180910390a350505061136a6001606f55565b5050505050565b611379612317565b610b74816129af565b61138a612317565b610b7481612a18565b61139b612317565b60008281526008602090815260409182902080546001600160a01b0319166001600160a01b0385169081179091558251858152918201527f31a8c4e62daac2a3ed5d713004d9ae867d6dcddfa35603db2a4b65d9236b1bc1910160405180910390a15050565b611409612317565b565b6000611415612470565b33600090815260b4602052604090205460ff166114445760405162461bcd60e51b8152600401610bc1906157ab565b6000548560800151101561146a5760405162461bcd60e51b8152600401610bc19061582d565b60055460405163aff2faa360e01b81526001600160a01b039091169063aff2faa39061149c908790879060040161562e565b60206040518083038186803b1580156114b457600080fd5b505afa1580156114c8573d6000803e3d6000fd5b505050506040513d601f19601f820116820180604052508101906114ec9190614ce4565b6115085760405162461bcd60e51b8152600401610bc190615862565b6006546003546040516342cfb5c360e11b815260009273__$62116a2d8fdb45afa1e131c95c47186d10$__9263859f6b8692611562928b9260099260a7926001600160a01b03908116928e928e9290911690600401615896565b60206040518083038186803b15801561157a57600080fd5b505af415801561158e573d6000803e3d6000fd5b505050506040513d601f19601f820116820180604052508101906115b29190614dc1565b600081815260a76020526040812054919250906115ce90611e7e565b9050806115ed5760405162461bcd60e51b8152600401610bc1906156fa565b600082815260096020908152604080832081516101608101835281548152600182015481850152600282015481840152600382015460ff808216151560608401526101009091046001600160a01b03166080830152600483015460a0830152600583015416151560c08201526006820180548451818702810187019095528085529194929360e08601939092908301828280156116b357602002820191906000526020600020905b81546001600160a01b03168152600190910190602001808311611695575b505050918352505060078201546020808301919091526008808401546040808501919091526009909401546060909301929092528351600090815291905220549091506001600160a01b03168061171c5760405162461bcd60e51b8152600401610bc190615774565b61175d88888080601f0160208091040260200160405190810160405280939291908181526020018383808284376000920191909152508892506124ca915050565b8161012001516001141561188557600084815260ae6020908152604080832060808601516001600160a01b03168452909152812060e084015180518391906117a790600190615cb2565b815181106117c557634e487b7160e01b600052603260045260246000fd5b6020908102919091018101516001600160a01b03908116835282820193909352604091820160009081208784015182528252828120888252825282812089825260a78352838220600301548252909152205416905080156118715761186381868b8b8080601f0160208091040260200160405190810160405280939291908181526020018383808284376000920191909152508a9250612a3f915050565b600195505050505050610fc7565b600085815260096020526040812060080155505b6118d98189898080601f01602080910402602001604051908101604052809392919081815260200183838082843760009201829052508a815260a760205260409020600301548a93508c9250905088612e3f565b6001945050505050610fd16001606f55565b6118f3612317565b610b7481613102565b611904612317565b610b7481613165565b60008181526009602052604081206005015460ff168061193e5750600082815260b6602052604090206007015460ff165b61194957600061194c565b60015b92915050565b61195a612470565b60008881526009602052604090206005015460ff161561198c5760405162461bcd60e51b8152600401610bc190615683565b6000670de0b6b3a76400006119a18482615cb2565b6119ab9088615c93565b6119b59190615c73565b905084811015611a185760405162461bcd60e51b815260206004820152602860248201527f45786368616e6765526f757465723a20696e73756666696369656e742066696c6044820152671b08185b5bdd5b9d60c21b6064820152608401610bc1565b600089815260ae602090815260408083206001600160a01b038c811685529083528184208b82168552835281842089855283528184208885528352818420878552909252909120541615611aae5760405162461bcd60e51b815260206004820152601e60248201527f45786368616e6765526f757465723a20616c72656164792066696c6c656400006044820152606401610bc1565b600089815260ae602090815260408083206001600160a01b038c81168552908352818420908b168452825280832088845282528083208784528252808320868452825280832080546001600160a01b031916331790558b835260b39091529020819055600154841415611cda5760a9546001600160a01b0388811691161415611c3c576040516323b872dd60e01b81526001600160a01b038816906323b872dd90611b6190339030908b906004016154e0565b602060405180830381600087803b158015611b7b57600080fd5b505af1158015611b8f573d6000803e3d6000fd5b505050506040513d601f19601f82011682018060405250810190611bb39190614ce4565b611bcf5760405162461bcd60e51b8152600401610bc1906156c4565b60a954604051632e1a7d4d60e01b8152600481018890526001600160a01b0390911690632e1a7d4d90602401600060405180830381600087803b158015611c1557600080fd5b505af1158015611c29573d6000803e3d6000fd5b50505050611c3788876131f7565b611d85565b6040516323b872dd60e01b81526001600160a01b038816906323b872dd90611c6c9033908c908b906004016154e0565b602060405180830381600087803b158015611c8657600080fd5b505af1158015611c9a573d6000803e3d6000fd5b505050506040513d601f19601f82011682018060405250810190611cbe9190614ce4565b611c375760405162461bcd60e51b8152600401610bc1906156c4565b6040516323b872dd60e01b81526001600160a01b038816906323b872dd90611d0a90339030908b906004016154e0565b602060405180830381600087803b158015611d2457600080fd5b505af1158015611d38573d6000803e3d6000fd5b505050506040513d601f19601f82011682018060405250810190611d5c9190614ce4565b611d785760405162461bcd60e51b8152600401610bc1906156c4565b611d858488888b8761330d565b7f4ff21ad9fa2b7f459914d205193bac58795822c5027805c709b57ec496a585a33360055460405163626885b560e11b81528b916001600160a01b03169063c4d10b6a90611dd7908890600401615642565b60206040518083038186803b158015611def57600080fd5b505afa158015611e03573d6000803e3d6000fd5b505050506040513d601f19601f82011682018060405250810190611e279190614c24565b6040805180820182526006546001600160a01b0390811682528d1660208201529051611e61949392918f918d9089908e908e908e9061547c565b60405180910390a150611e746001606f55565b5050505050505050565b600090815260ab602052604090206001015490565b611e9b612317565b60af80546001600160a01b0319166001600160a01b0392909216919091179055565b600a54610100900460ff1615808015611edd5750600a54600160ff909116105b80611ef75750303b158015611ef75750600a5460ff166001145b611f5a5760405162461bcd60e51b815260206004820152602e60248201527f496e697469616c697a61626c653a20636f6e747261637420697320616c72656160448201526d191e481a5b9a5d1a585b1a5e995960921b6064820152608401610bc1565b600a805460ff191660011790558015611f7d57600a805461ff0019166101001790555b611f856134b0565b611f8d6134df565b6001889055611f9b8b612408565b611fa48a613102565b611fad89612a18565b611fb68661350e565b611fbf876135a0565b611fc885613165565b611fd184613632565b611fda836129af565b611fe382612376565b801561202957600a805461ff0019169055604051600181527f7f26b83ff96e1f2b6a682f133852f6798a09c465da95921460cefb38474024989060200160405180910390a15b5050505050505050505050565b61203e612317565b61204882826136c4565b5050565b603d546001600160a01b031690565b612063612317565b6120488282613760565b612075612317565b61204882826137c8565b612087612317565b61208f612470565b6001600160a01b038216600114156120b7576120b26120ac61204c565b826131f7565b612140565b816001600160a01b031663a9059cbb6120ce61204c565b836040518363ffffffff1660e01b81526004016120ec92919061559b565b602060405180830381600087803b15801561210657600080fd5b505af115801561211a573d6000803e3d6000fd5b505050506040513d601f19601f8201168201806040525081019061213e9190614ce4565b505b6120486001606f55565b612152612317565b60b180546001600160a01b0319166001600160a01b0392909216919091179055565b61217c612317565b6001600160a01b0391909116600090815260b460205260409020805460ff1916911515919091179055565b6121af612317565b610b74816135a0565b6121c0612317565b610b748161350e565b6121d1612317565b6001600160a01b03928316600090815260b2602090815260408083209483529390529190912080546001600160a01b03191691909216179055565b612214612317565b610b7481613829565b612225612317565b6001600160c01b031992909216600090815260b5602090815260408083209383529290522055565b505050565b61225a612317565b6001600160c01b03198216600090815260b76020526040902080546001600160a01b0319166001600160a01b0383161790555050565b612298612317565b610b7481613632565b6122a9612317565b6001600160a01b03811661230e5760405162461bcd60e51b815260206004820152602660248201527f4f776e61626c653a206e6577206f776e657220697320746865207a65726f206160448201526564647265737360d01b6064820152608401610bc1565b610b7481613892565b3361232061204c565b6001600160a01b0316146114095760405162461bcd60e51b815260206004820181905260248201527f4f776e61626c653a2063616c6c6572206973206e6f7420746865206f776e65726044820152606401610bc1565b806001600160a01b03811661239e5760405163d92e233d60e01b815260040160405180910390fd5b60aa546040517f5b663d57fa8cf393f8c8019f514b25c1b3223c9324a2ce3efe28ce5aef0e62fe916123dd916001600160a01b039091169085906153d6565b60405180910390a15060aa80546001600160a01b0319166001600160a01b0392909216919091179055565b600054811161246b5760405162461bcd60e51b815260206004820152602960248201527f434345786368616e6765526f757465723a206c6f77207374617274696e67426c60448201526837b1b5a73ab6b132b960b91b6064820152608401610bc1565b600055565b6002606f5414156124c35760405162461bcd60e51b815260206004820152601f60248201527f5265656e7472616e637947756172643a207265656e7472616e742063616c6c006044820152606401610bc1565b6002606f55565b600081815260a76020526040812054819060651415612503575050600081815260b660205260409020600181015460069091015461251f565b5050600081815260096020526040902060018101546004909101545b6005546040516307f3f86760e21b81526001600160a01b0390911690631fcfe19c9061255390879030908790600401615655565b602060405180830381600087803b15801561256d57600080fd5b505af1158015612581573d6000803e3d6000fd5b505050506040513d601f19601f820116820180604052508101906125a59190614dc1565b50612710600254836125b79190615c93565b6125c19190615c73565b600084815260a7602090815260408083206005810194909455600490930154825260ac90522054612710906125f69084615c93565b6126009190615c73565b600084815260a7602052604090206006015560b054612710906126239084615c93565b61262d9190615c73565b600084815260a7602052604090206007810182905560068101546005909101549091839161265a91615c5b565b6126649190615c5b565b61266e9190615c5b565b6126789083615cb2565b600093845260a7602052604090932060020192909255505050565b6040805160e080820183528382526020808301899052600088815260b6825284812085516101a081018752815481526001820154938101939093526002808201548488015260038201546060850152600482015460ff90811615156080860152600583015460a0860152600683015460c086015260078301541615159484019490945285518087018088529296879661283f9690959186019491939261010085019290916008850191828b855b82829054906101000a900460c01b6001600160c01b03191681526020019060080190602082600701049283019260010382029150808411612740575050509284525050506009820154602080830191909152600a830154604080840191909152600b840154606080850191909152600c9094015460809384015293855260008d815260a7825284902084516101008101865281548152600182015460ff16151581840152600282015481870152600382015481860152600482015481850152600582015460a0820152600682015460c082015260079091015460e0820152908501529183018b905282018990526001600160a01b038c169101526138e4565b91509150811561292157600086815260a7602052604090206001908101805460ff1916909117905561287186886139ba565b600154831461291c5761291c83866001885161288d9190615cb2565b815181106128ab57634e487b7160e01b600052603260045260246000fd5b602002602001015160b660008a81526020019081526020016000206009015484600186516128d99190615cb2565b815181106128f757634e487b7160e01b600052603260045260246000fd5b602002602001015160b660008c81526020019081526020016000206005015489613cce565b611e74565b600086815260a760208181526040808420600781015460b6845291852060069081015494909352600581015492015490929161295c91615c5b565b6129669190615c5b565b6129709190615c5b565b90508060a7600089815260200190815260200160002060020160008282546129989190615c5b565b9091555050505050505050505050565b6001606f55565b60a8546040517f06e5f2ca1234f717a2031f662608c02182d4f8bdc3dab013ec4c04eb97553132916129ee916001600160a01b039091169084906153d6565b60405180910390a160a880546001600160a01b0319166001600160a01b0392909216919091179055565b806127101015612a3a5760405162461bcd60e51b8152600401610bc19061572f565b60b055565b612a4983836139ba565b600083815260096020908152604080832081516101608101835281548152600182015481850152600282015481840152600382015460ff808216151560608401526101009091046001600160a01b03166080830152600483015460a0830152600583015416151560c08201526006820180548451818702810187019095528085529194929360e0860193909290830182828015612b0f57602002820191906000526020600020905b81546001600160a01b03168152600190910190602001808311612af1575b50505091835250506007828101546020808401919091526008840154604080850191909152600990940154606093840152600089815260a7808352858220865161010081018852815481526001808301805460ff81161515848901526002850154848c0190815260038601549a85019a909a526004808601546080860152600586015460a086015260068087015460c0870152959099015460e0850152958f90529390955260ff19909316909317905590549251935163a9059cbb60e01b8152949550936001600160a01b039092169263a9059cbb92612bf2928b92910161559b565b602060405180830381600087803b158015612c0c57600080fd5b505af1158015612c20573d6000803e3d6000fd5b505050506040513d601f19601f82011682018060405250810190612c449190614ce4565b5060006040518060a001604052808460a0015181526020018360e0015181526020018360a0015181526020018360c00151815260200183606001518152509050612c8b3390565b608084015160055460405163626885b560e11b81526001600160a01b0393841693600193811692600080516020615d458339815191529291169063c4d10b6a90612cd9908c90600401615642565b60206040518083038186803b158015612cf157600080fd5b505afa158015612d05573d6000803e3d6000fd5b505050506040513d601f19601f82011682018060405250810190612d299190614c24565b604080518082019091526006546001600160a01b0316815260e08901518051602083019190612d5a90600190615cb2565b81518110612d7857634e487b7160e01b600052603260045260246000fd5b60200260200101516001600160a01b03166001600160a01b031681525060405180604001604052808960400151815260200160b360008f8152602001908152602001600020548152508c8a600001518a608001518a8e604051612de2989796959493929190615504565b60405180910390a460408083015181516001600160a01b038a16815260208101899052918201527fa691ee9f18c723075ade0e555d96de55c74e3e7b7cddc63a0ecbbff7ee6352e79060600160405180910390a150505050505050565b6040805160e08082018352838252602080830189905260008881526009825284812085516101608101875281548152600182015481850152600282015481880152600382015460ff808216151560608401526101009091046001600160a01b03166080830152600483015460a0830152600583015416151560c08201526006820180548851818702810187018a5281815294988998612fdc989097918801969495949086019390929091830182828015612f2257602002820191906000526020600020905b81546001600160a01b03168152600190910190602001808311612f04575b5050509183525050600782810154602080840191909152600884015460408085019190915260099094015460609384015293855260008d815260a7855283902083516101008101855281548152600182015460ff161515818701526002820154818601526003820154818501526004820154608080830191909152600583015460a0830152600683015460c0830152919092015460e0830152938501529083018b905282018990526001600160a01b038c16910152613eef565b9150915081156130c657600086815260a7602052604090206001908101805460ff1916909117905561300e86886139ba565b600154831461291c57600086815260a76020526040902054855161291c9190879061303b90600190615cb2565b8151811061305957634e487b7160e01b600052603260045260246000fd5b602002602001015183600185516130709190615cb2565b8151811061308e57634e487b7160e01b600052603260045260246000fd5b6020026020010151600960008b815260200190815260200160002060030160019054906101000a90046001600160a01b03168861330d565b600086815260a7602081815260408084206007810154600984529185206004015493909252600582015460069092015490929161295c91615c5b565b8061271010156131245760405162461bcd60e51b8152600401610bc19061572f565b60025460408051918252602082018390527f7d205f60891f60851c61cd244ba387d72b6589e7c0ac41b9d909ab0ce2c2a53b910160405180910390a1600255565b806001600160a01b03811661318d5760405163d92e233d60e01b815260040160405180910390fd5b6006546040517f36a4c08a38b736dcecb6c328dba61238529620e83ccb23db2cc43cd34ec26096916131cc916001600160a01b039091169085906153d6565b60405180910390a150600680546001600160a01b0319166001600160a01b0392909216919091179055565b804710156132475760405162461bcd60e51b815260206004820152601d60248201527f416464726573733a20696e73756666696369656e742062616c616e63650000006044820152606401610bc1565b6000826001600160a01b03168260405160006040518083038185875af1925050503d8060008114613294576040519150601f19603f3d011682016040523d82523d6000602084013e613299565b606091505b505090508061224d5760405162461bcd60e51b815260206004820152603a60248201527f416464726573733a20756e61626c6520746f2073656e642076616c75652c20726044820152791958da5c1a595b9d081b585e481a185d99481c995d995c9d195960321b6064820152608401610bc1565b60a85460405163095ea7b360e01b81526001600160a01b038681169263095ea7b3926133419290911690879060040161559b565b602060405180830381600087803b15801561335b57600080fd5b505af115801561336f573d6000803e3d6000fd5b505050506040513d601f19601f820116820180604052508101906133939190614ce4565b5060af546001600160a01b03858116600090815260b2602052604081209092919091169084908790846133c58b611e7e565b81526020810191909152604001600020546001600160a01b031687670de0b6b3a76400006133f38882615cb2565b6133fd908b615c93565b6134079190615c73565b6134108c611e7e565b60004261341f81613840615c5b565b60408051602081018252600080825291516134489c9b9a999897969594939291906024016153f0565b60408051601f19818403018152918152602080830180516001600160e01b0316633dc9c91960e11b179052905191925060009161348791849101615399565b60408051601f1981840301815291905260a854909150611e74906001600160a01b031682614778565b600a54610100900460ff166134d75760405162461bcd60e51b8152600401610bc1906157e2565b6114096147c1565b600a54610100900460ff166135065760405162461bcd60e51b8152600401610bc1906157e2565b6114096147f1565b806001600160a01b0381166135365760405163d92e233d60e01b815260040160405180910390fd5b6003546040517f4c28a3f61a715259c4dc930c23e7423b8fa52e13232c061a6e488729c66184f491613575916001600160a01b039091169085906153d6565b60405180910390a150600380546001600160a01b0319166001600160a01b0392909216919091179055565b806001600160a01b0381166135c85760405163d92e233d60e01b815260040160405180910390fd5b6005546040517ffa021c2ec0f46429a53e7f88b88065e40001f50c9d38b2e8b713beaf9828d4c391613607916001600160a01b039091169085906153d6565b60405180910390a150600580546001600160a01b0319166001600160a01b0392909216919091179055565b806001600160a01b03811661365a5760405163d92e233d60e01b815260040160405180910390fd5b6007546040517f567657fa3f286518b318f4a29870674f433f622fdfc819691acb13105b22822591613699916001600160a01b039091169085906153d6565b60405180910390a150600780546001600160a01b0319166001600160a01b0392909216919091179055565b600082815260ad6020526040908190205490517f1e73962bcff5b98a9ac70c9b0f71fbb31dc0f5a09348c6d3ceab164169a9e7299161372a9185916001600160a01b03169085909283526001600160a01b03918216602084015216604082015260600190565b60405180910390a1600091825260ad602052604090912080546001600160a01b0319166001600160a01b03909216919091179055565b60408051838152602081018390527f102cb592c601969e68b19c6d96d1fc5f09b9b7214423c922de7dd67fe04cf801910160405180910390a16040805180820182526001805482526020808301958652600094855260ab905291909220915182559151910155565b600082815260ac6020908152604091829020548251858152918201529081018290527f188adabf806a6b6d814acc1dbd9f09e5a251c8c065d6285749a5824e4579b6459060600160405180910390a1600091825260ac602052604090912055565b60a9546040517f4da8064030e901e42f6de0ab04f4c322d7936d0120503addfe8a51f12709068991613868916001600160a01b039091169084906153d6565b60405180910390a160a980546001600160a01b0319166001600160a01b0392909216919091179055565b603d80546001600160a01b038381166001600160a01b0319831681179093556040519116919082907f8be0079c531659141344cd1fd0a4f28419497f9722a3daafe3b4186f6b6457e090600090a35050565b6040805160a0810182526006546001600160a01b03908116825260a954811660208301528351828401526005541660608083019190915233608083015291516341f6f44f60e11b81526000929173__$66c666c7ce54dc3842da163fba5a8df280$__916383ede89e9161395c918791906004016158f2565b60006040518083038186803b15801561397457600080fd5b505af4158015613988573d6000803e3d6000fd5b505050506040513d6000823e601f3d908101601f191682016040526139b09190810190614d00565b9094909350915050565b600082815260096020526040812060040154156139e95750600082815260096020526040902060040154613a14565b600083815260b6602052604090206006015415613a145750600082815260b660205260409020600601545b8015613a9e576006546001600160a01b031663a9059cbb33836040518363ffffffff1660e01b8152600401613a4a92919061559b565b602060405180830381600087803b158015613a6457600080fd5b505af1158015613a78573d6000803e3d6000fd5b505050506040513d601f19601f82011682018060405250810190613a9c9190614ce4565b505b600083815260a7602052604090206005015415613b5057600654600754600085815260a760205260409081902060050154905163a9059cbb60e01b81526001600160a01b039384169363a9059cbb93613afc9391169160040161559b565b602060405180830381600087803b158015613b1657600080fd5b505af1158015613b2a573d6000803e3d6000fd5b505050506040513d601f19601f82011682018060405250810190613b4e9190614ce4565b505b600083815260a7602052604090206006015415613c175760068054600085815260a760208181526040808420600480820154865260ad845282862054958b905293909252940154935163a9059cbb60e01b81526001600160a01b039384169463a9059cbb94613bc394169290910161559b565b602060405180830381600087803b158015613bdd57600080fd5b505af1158015613bf1573d6000803e3d6000fd5b505050506040513d601f19601f82011682018060405250810190613c159190614ce4565b505b600083815260a760205260409020600701541561224d5760055460405163626885b560e11b815261224d916001600160a01b03169063c4d10b6a90613c60908690600401615642565b60206040518083038186803b158015613c7857600080fd5b505afa158015613c8c573d6000803e3d6000fd5b505050506040513d601f19601f82011682018060405250810190613cb09190614c24565b600085815260a7602052604090206007810154600490910154614818565b60a85460405163095ea7b360e01b81526001600160a01b038781169263095ea7b392613d029290911690879060040161559b565b602060405180830381600087803b158015613d1c57600080fd5b505af1158015613d30573d6000803e3d6000fd5b505050506040513d601f19601f82011682018060405250810190613d549190614ce4565b50606086651f2abb7bf89b1415613e0b5760af546001600160a01b0390811690849088168787670de0b6b3a7640000613d8d8882615cb2565b613d97908b615c93565b613da19190615c73565b8c600042613db181613840615c5b565b6040805160208101825260008082529151613dda9c9b9a999897969594939291906024016155b4565b60408051601f198184030181529190526020810180516001600160e01b03166356aa12e360e11b1790529050613ea8565b60af546001600160a01b031683878787670de0b6b3a7640000613e2e8882615cb2565b613e38908b615c93565b613e429190615c73565b8c600042613e5281613840615c5b565b6040805160208101825260008082529151613e7b9c9b9a999897969594939291906024016153f0565b60408051601f198184030181529190526020810180516001600160e01b0316633dc9c91960e11b17905290505b600081604051602001613ebb9190615399565b60408051601f1981840301815291905260a854909150613ee4906001600160a01b031682614778565b505050505050505050565b60065460c0820151606083810151604090810151905163095ea7b360e01b815260009492936001600160a01b039093169263095ea7b392613f329260040161559b565b602060405180830381600087803b158015613f4c57600080fd5b505af1158015613f60573d6000803e3d6000fd5b505050506040513d601f19601f82011682018060405250810190613f849190614ce4565b5060065460a084015180516001600160a01b0390921691600090613fb857634e487b7160e01b600052603260045260246000fd5b60200260200101516001600160a01b031614801561405f5750604083015160e001518051613fe890600190615cb2565b8151811061400657634e487b7160e01b600052603260045260246000fd5b60200260200101516001600160a01b03168360a0015160018560a001515161402e9190615cb2565b8151811061404c57634e487b7160e01b600052603260045260246000fd5b60200260200101516001600160a01b0316145b6140ab5760405162461bcd60e51b815260206004820152601e60248201527f436345786368616e6765526f757465723a20696e76616c6964207061746800006044820152606401610bc1565b8260c001516001600160a01b031663b0bbcd88846060015160400151856060015160600151670de0b6b3a76400006140e39190615cb2565b670de0b6b3a76400008760400151604001516140ff9190615c93565b6141099190615c73565b8660a00151304260016040518763ffffffff1660e01b815260040161413396959493929190615b1b565b600060405180830381600087803b15801561414d57600080fd5b505af1158015614161573d6000803e3d6000fd5b505050506040513d6000823e601f3d908101601f191682016040526141899190810190614d00565b909250905081156145b857600154835114156143315760a08301518051600091906141b690600190615cb2565b815181106141d457634e487b7160e01b600052603260045260246000fd5b60200260200101519050600082600184516141ef9190615cb2565b8151811061420d57634e487b7160e01b600052603260045260246000fd5b602090810291909101015160a9549091506001600160a01b038381169116146142be5760408086015160800151905163a9059cbb60e01b81526001600160a01b0384169163a9059cbb916142669190859060040161559b565b602060405180830381600087803b15801561428057600080fd5b505af1158015614294573d6000803e3d6000fd5b505050506040513d601f19601f820116820180604052508101906142b89190614ce4565b5061432e565b60a954604051632e1a7d4d60e01b8152600481018390526001600160a01b0390911690632e1a7d4d90602401600060405180830381600087803b15801561430457600080fd5b505af1158015614318573d6000803e3d6000fd5b5050505061432e856040015160800151826131f7565b50505b6000670de0b6b3a764000084606001516060015183600185516143549190615cb2565b8151811061437257634e487b7160e01b600052603260045260246000fd5b60200260200101516143849190615c93565b61438e9190615c73565b905060006040518060a00160405280866040015160a001518152602001866060015160e001518152602001866060015160a001518152602001866060015160c0015181526020018381525090506143e23390565b60408087015161012081015160809091015160055460208a0151935163626885b560e11b81526001600160a01b0395861695939492841693600080516020615d458339815191529392169163c4d10b6a916144409190600401615642565b60206040518083038186803b15801561445857600080fd5b505afa15801561446c573d6000803e3d6000fd5b505050506040513d601f19601f820116820180604052508101906144909190614c24565b604080518082019091526006546001600160a01b0316815260a08b015180516020830191906144c190600190615cb2565b815181106144df57634e487b7160e01b600052603260045260246000fd5b60200260200101516001600160a01b03166001600160a01b031681525060405180604001604052808a60008151811061452857634e487b7160e01b600052603260045260246000fd5b60200260200101518152602001898b60018d516145459190615cb2565b8151811061456357634e487b7160e01b600052603260045260246000fd5b60200260200101516145759190615cb2565b8152508b608001518c60400151600001518d60600151608001518a8f600001516040516145a9989796959493929190615504565b60405180910390a45050915091565b60006040518060a0016040528060008152602001600081526020016000815260200160008152602001600081525090506145ef3390565b6040808601516101208101516080909101516005546020890151935163626885b560e11b81526001600160a01b03958616959394928416937f4bdbd9bfa84241c4a39e7be48e0a8678cfbecfbcfae5d87f01b13de30b8c9e9a9392169163c4d10b6a9161465f9190600401615642565b60206040518083038186803b15801561467757600080fd5b505afa15801561468b573d6000803e3d6000fd5b505050506040513d601f19601f820116820180604052508101906146af9190614c24565b604080518082019091526006546001600160a01b0316815260a08a015180516020830191906146e090600190615cb2565b815181106146fe57634e487b7160e01b600052603260045260246000fd5b60200260200101516001600160a01b03166001600160a01b031681525060405180604001604052808b6060015160400151815260200160008152508a608001518b60400151600001518c60600151608001518a8e6000015160405161476a989796959493929190615504565b60405180910390a450915091565b60606147ba83836040518060400160405280601e81526020017f416464726573733a206c6f772d6c6576656c2063616c6c206661696c656400008152506149a0565b9392505050565b600a54610100900460ff166147e85760405162461bcd60e51b8152600401610bc1906157e2565b61140933613892565b600a54610100900460ff166129a85760405162461bcd60e51b8152600401610bc1906157e2565b811561224d5760b1546001600160a01b0316158061483557508015155b156148c45760065460405163a9059cbb60e01b81526001600160a01b039091169063a9059cbb9061486c908690869060040161559b565b602060405180830381600087803b15801561488657600080fd5b505af115801561489a573d6000803e3d6000fd5b505050506040513d601f19601f820116820180604052508101906148be9190614ce4565b50505050565b60065460b15460405163095ea7b360e01b81526001600160a01b039283169263095ea7b3926148fa92911690869060040161559b565b602060405180830381600087803b15801561491457600080fd5b505af1158015614928573d6000803e3d6000fd5b505050506040513d601f19601f8201168201806040525081019061494c9190614ce4565b5060b1546040516148be916001600160a01b031690614971908690869060240161559b565b60408051601f198184030181529190526020810180516001600160e01b0316637db4e28f60e01b179052614778565b6060610fd1848460008585843b6149f95760405162461bcd60e51b815260206004820152601d60248201527f416464726573733a2063616c6c20746f206e6f6e2d636f6e74726163740000006044820152606401610bc1565b600080866001600160a01b03168587604051614a15919061537d565b60006040518083038185875af1925050503d8060008114614a52576040519150601f19603f3d011682016040523d82523d6000602084013e614a57565b606091505b5091509150614a67828286614a72565b979650505050505050565b60608315614a815750816147ba565b825115614a915782518084602001fd5b8160405162461bcd60e51b8152600401610bc19190615642565b600082601f830112614abb578081fd5b81356020614ad0614acb83615c38565b615c08565b80838252828201915082860187848660051b8901011115614aef578586fd5b855b85811015614b16578135614b0481615d21565b84529284019290840190600101614af1565b5090979650505050505050565b80356001600160e01b031981168114614b3b57600080fd5b919050565b80356001600160c01b031981168114614b3b57600080fd5b60008083601f840112614b69578182fd5b5081356001600160401b03811115614b7f578182fd5b602083019150836020828501011115614b9757600080fd5b9250929050565b600082601f830112614bae578081fd5b81356001600160401b03811115614bc757614bc7615d0b565b614bda601f8201601f1916602001615c08565b818152846020838601011115614bee578283fd5b816020850160208301379081016020019190915292915050565b600060208284031215614c19578081fd5b81356147ba81615d21565b600060208284031215614c35578081fd5b81516147ba81615d21565b60008060408385031215614c52578081fd5b8235614c5d81615d21565b91506020830135614c6d81615d36565b809150509250929050565b60008060408385031215614c8a578182fd5b8235614c9581615d21565b946020939093013593505050565b600080600060608486031215614cb7578081fd5b8335614cc281615d21565b9250602084013591506040840135614cd981615d21565b809150509250925092565b600060208284031215614cf5578081fd5b81516147ba81615d36565b60008060408385031215614d12578182fd5b8251614d1d81615d36565b602084810151919350906001600160401b03811115614d3a578283fd5b8401601f81018613614d4a578283fd5b8051614d58614acb82615c38565b80828252848201915084840189868560051b8701011115614d77578687fd5b8694505b83851015614d99578051835260019490940193918501918501614d7b565b5080955050505050509250929050565b600060208284031215614dba578081fd5b5035919050565b600060208284031215614dd2578081fd5b5051919050565b60008060008060008060c08789031215614df1578384fd5b863595506020870135614e0381615d21565b94506040870135614e1381615d21565b959894975094956060810135955060808101359460a0909101359350915050565b600080600080600080600080610100898b031215614e50578586fd5b883597506020890135614e6281615d21565b96506040890135614e7281615d21565b9550606089013594506080890135935060a0890135925060c0890135915060e08901356001600160401b03811115614ea8578182fd5b614eb48b828c01614b9e565b9150509295985092959890939650565b600080600080600060808688031215614edb578283fd5b85359450602086013560ff81168114614ef2578384fd5b935060408601356001600160401b0380821115614f0d578485fd5b614f1989838a01614b9e565b94506060880135915080821115614f2e578283fd5b50614f3b88828901614b58565b969995985093965092949392505050565b600060208284031215614f5d578081fd5b6147ba82614b40565b60008060408385031215614f78578182fd5b614f8183614b40565b91506020830135614c6d81615d21565b60008060408385031215614fa3578182fd5b614c9583614b40565b600080600060608486031215614fc0578081fd5b614fc984614b40565b95602085013595506040909401359392505050565b60008060008060608587031215614ff3578182fd5b84356001600160401b0380821115615009578384fd5b9086019060e0828903121561501c578384fd5b615024615be0565b61502d83614b23565b8152602083013582811115615040578586fd5b61504c8a828601614b9e565b602083015250604083013582811115615063578586fd5b61506f8a828601614b9e565b60408301525061508160608401614b23565b60608201526080830135608082015260a0830135828111156150a1578586fd5b6150ad8a828601614b9e565b60a08301525060c083013560c08201528096505060208701359150808211156150d4578384fd5b6150e088838901614b58565b909550935060408701359150808211156150f8578283fd5b5061510587828801614aab565b91505092959194509250565b60008060408385031215615123578182fd5b823591506020830135614c6d81615d21565b60008060408385031215615147578182fd5b50508035926020909101359150565b6000806000806000806000806000806101408b8d031215615175578384fd5b8a35995060208b0135985060408b0135975060608b0135965060808b013561519c81615d21565b955060a08b01356151ac81615d21565b945060c08b01356151bc81615d21565b935060e08b01356151cc81615d21565b92506101008b01356151dd81615d21565b91506101208b01356151ee81615d21565b809150509295989b9194979a5092959850565b8060005b60028110156148be5781516001600160a01b0316845260209384019390910190600101615205565b6000815180845260208085019450808401835b838110156152655781516001600160a01b031687529582019590820190600101615240565b509495945050505050565b8060005b60028110156148be5781516001600160c01b031916845260209384019390910190600101615274565b81835281816020850137506000828201602090810191909152601f909101601f19169091010190565b600081518084526152de816020860160208601615cc9565b601f01601f19169290920160200192915050565b600063ffffffff60e01b808351168452602083015160e0602086015261531b60e08601826152c6565b90506040840151858203604087015261533482826152c6565b9150508160608501511660608601526080840151608086015260a0840151915084810360a086015261536681836152c6565b91505060c083015160c08501528091505092915050565b6000825161538f818460208701615cc9565b9190910192915050565b600082516153ab818460208701615cc9565b641dc0de008360d81b920191825250600501919050565b6001600160a01b0391909116815260200190565b6001600160a01b0392831681529116602082015260400190565b6001600160a01b038d811682528c811660208301528b811660408301528a81166060830152608082018a905260a0820189905260c08201889052861660e082015263ffffffff858116610100830152841661012082015260ff8316610140820152600061018061016083015261546a6101808301846152c6565b9e9d5050505050505050505050505050565b6001600160a01b038b811682528a81166020830152891660408201526060810188905261016081016154b16080830189615201565b60c082019690965260e08101949094526101008401929092526101208301526101409091015295945050505050565b6001600160a01b039384168152919092166020820152604081019190915260600190565b6001600160a01b03891681526101c0810160206155238184018b615201565b606083018960005b60028110156155485781518352918301919083019060010161552b565b5050508760a08401528660c08401528560e084015261010083018560005b600581101561558357815183529183019190830190600101615566565b50505050826101a08301529998505050505050505050565b6001600160a01b03929092168252602082015260400190565b60006101808e83528d60208401528c60408401528b60608401528a60808401528960a08401528860c08401528760e084015263ffffffff8088166101008501528087166101208501525060ff85166101408401528061016084015261561b818401856152c6565b9f9e505050505050505050505050505050565b602081526000610fd160208301848661529d565b6020815260006147ba60208301846152c6565b60608152600061566860608301866152c6565b6001600160a01b039490941660208301525060400152919050565b60208082526021908201527f45786368616e6765526f757465723a20616c72656164792070726f63657373656040820152601960fa1b606082015260800190565b6020808252601c908201527b45786368616e6765526f757465723a206e6f20616c6c6f77616e636560201b604082015260600190565b6020808252818101527f45786368616e6765526f757465723a20696e76616c696420636861696e206964604082015260600190565b60208082526025908201527f434345786368616e6765526f757465723a20666565206973206f7574206f662060408201526472616e676560d81b606082015260800190565b6020808252601d908201527f45786368616e6765526f757465723a20696e76616c6964206170704964000000604082015260600190565b6020808252601e908201527f45786368616e6765526f757465723a20696e76616c69642073656e6465720000604082015260600190565b6020808252602b908201527f496e697469616c697a61626c653a20636f6e7472616374206973206e6f74206960408201526a6e697469616c697a696e6760a81b606082015260800190565b6020808252601b908201527a115e18da185b99d9549bdd5d195c8e881bdb19081c995c5d595cdd602a1b604082015260600190565b6020808252601a908201527922bc31b430b733b2a937baba32b91d103737ba103637b1b5b2b960311b604082015260600190565b60c0815260006158a960c083018a6152f2565b60208301899052604083018890526001600160a01b03878116606085015283820360808501526158da82878961529d565b925080851660a0850152505098975050505050505050565b60c08152825160c08201526000602084015161036060e084015261591a6104208401826152c6565b90506040850151610100815181860152602082015161012081818801526040840151915061014082818901526060850151925061016083818a01526080860151935061018061596c818b018615159052565b60a08701516101a08b015260c08701516101c08b015260e08701518015156101e08c0152945094860151946159a56102008b0187615270565b928601516102408a01529085015161026089015284015161028088015292909201516102a0860152505060608581015180516102c0860152602081015115156102e0860152604081015161030086015290810151610320850152608081015161034085015260a081015161036085015260c081015161038085015260e08101516103a08501525060808501516103c084015260a085015183820360bf19016103e0850152615a53828261522d565b91505060c0850151615a716104008501826001600160a01b03169052565b5090506147ba602083018480516001600160a01b0390811683526020808301518216908401526040808301519084015260608083015182169084015260809182015116910152565b86815260a060208201526000615ad260a08301886152c6565b60068710615aee57634e487b7160e01b82526021600452602482fd5b8660408401528281036060840152615b0781868861529d565b915050826080830152979650505050505050565b600060c082018883526020888185015260c0604085015281885180845260e086019150828a019350845b81811015615b6a5784516001600160a01b031683529383019391830191600101615b45565b50506001600160a01b039790971660608501525050506080810192909252151560a0909101529392505050565b86815285602082015260c060408201526000615bb660c08301876152c6565b60ff959095166060830152506001600160a01b0392909216608083015260a0909101529392505050565b60405160e081016001600160401b0381118282101715615c0257615c02615d0b565b60405290565b604051601f8201601f191681016001600160401b0381118282101715615c3057615c30615d0b565b604052919050565b60006001600160401b03821115615c5157615c51615d0b565b5060051b60200190565b60008219821115615c6e57615c6e615cf5565b500190565b600082615c8e57634e487b7160e01b81526012600452602481fd5b500490565b6000816000190483118215151615615cad57615cad615cf5565b500290565b600082821015615cc457615cc4615cf5565b500390565b60005b83811015615ce4578181015183820152602001615ccc565b838111156148be5750506000910152565b634e487b7160e01b600052601160045260246000fd5b634e487b7160e01b600052604160045260246000fd5b6001600160a01b0381168114610b7457600080fd5b8015158114610b7457600080fdfe83f3c3e82621afa914bb49ee3bc3bcadb1d41b3d6f836aa437172cbb3d4dbb6ea264697066735822122038dcfa15c7216c42b05213519c63021ec07aff4f2da7b4a8cd6532f9b12857a764736f6c63430008040033",
  "libraries": {
    "CcExchangeRouterLib": "0x94bD2d4Baa0d29D1aF7dAdA68CA7Cab7c1bc01DC",
    "CcExchangeRouterLibExtension": "0x9Fb7c971be57a225BC344dB79AEB79841Ff251CF"
  },
  "devdoc": {
    "kind": "dev",
    "methods": {
      "fillTx(bytes32,address,address,uint256,uint256,uint256,uint256,bytes)": {
        "params": {
          "_bridgePercentageFee": "Bridge percentage fee",
          "_destinationChainId": "Destination chain id",
          "_fillAmount": "Amount that filler uses to fill the request (this is not necessarily the amount that user receives)",
          "_token": "Address of exchange token in the request",
          "_txId": "Bitcoin request that filler wants to fill",
          "_userRequestedAmount": "Amount that user requested"
        }
      },
      "initialize(uint256,uint256,uint256,uint256,address,address,address,address,address,address)": {
        "params": {
          "_chainId": "Chain Id of the current chain",
          "_lockers": "LockersManager contract address",
          "_protocolPercentageFee": "Protocol percentage fee (min: %0.01).                               This fee goes to treasury from each wrapAndSwap request",
          "_relay": "Address of BitcoinRelay which checks Bitcoin transactions inclusion",
          "_startingBlockNumber": "Transactions that are included in blocks older                             than _startingBlockNumber cannot be processed",
          "_teleBTC": "TeleBTC token",
          "_treasury": "Treasury collects protocol fees"
        }
      },
      "isRequestUsed(bytes32)": {
        "details": "It prevents re-submitting a processed request",
        "params": {
          "_txId": "The transaction ID of request on Bitcoin"
        },
        "returns": {
          "_0": "True if the cc exchange request has been already executed"
        }
      },
      "owner()": {
        "details": "Returns the address of the current owner."
      },
      "renounceOwnership()": {
        "details": "Leaves the contract without owner. It will not be possible to call `onlyOwner` functions. Can only be called by the current owner. NOTE: Renouncing ownership will leave the contract without an owner, thereby disabling any functionality that is only available to the owner."
      },
      "setAcross(address)": {
        "details": "Across is used to send exchanged tokens to other chains"
      },
      "setBridgeTokenIDMapping(bytes8,uint256,bytes32)": {
        "params": {
          "_destinationChainId": "Chain ID of the destination chain",
          "_destinationToken": "Address of the token on the target chain (32 bytes)",
          "_tokenID": "Token ID (8 bytes)"
        }
      },
      "setBridgeTokenMapping(address,uint256,address)": {
        "params": {
          "_destinationToken": "Address of the token on the target chain",
          "_sourceToken": "Address of the token on the current chain"
        }
      },
      "setChainIdMapping(uint256,uint256)": {
        "details": "After processing a request, the exchanged token is sent to the destination chain."
      },
      "setExchangeConnector(uint256,address)": {
        "details": "Users determine which DEX to use by determining the app id."
      },
      "setIntermediaryTokenMapping(bytes8,address)": {
        "params": {
          "_destinationTokenID": "Destination token ID (8 bytes)",
          "_intermediaryToken": "Intermediary token address on the current chain"
        }
      },
      "setRewardDistributor(address)": {
        "details": "This contract distributes locker fee between locker and stakers"
      },
      "setThirdPartyAddress(uint256,address)": {
        "details": "Each third party has an id and an address.      Users determine the third party by determining the id in the request.      Third party fee is sent to the third party address."
      },
      "setThirdPartyFee(uint256,uint256)": {
        "details": "Third party fee is a percentage of the input amount.      Third parties can set their own fees."
      },
      "transferOwnership(address)": {
        "details": "Transfers ownership of the contract to a new account (`newOwner`). Can only be called by the current owner."
      },
      "wrapAndSwap((bytes4,bytes,bytes,bytes4,uint256,bytes,uint256),bytes,address[])": {
        "details": "Steps to process a request:      1. Check transaction inclusion on Bitcoin      2. Extract the request info      3. Mint TeleBTC and send fees to protocol, Locker, and third party      4. Exchange TeleBTC for the output token      5.1 Send the output token to the user      5.2 Send TeleBTC to user if exchange fails and the request belongs to the current chain      5.3 Keep TeleBTC if exchange fails and the request doesn't blong to the current chain",
        "params": {
          "_lockerLockingScript": "Script hash of Locker that user has sent BTC to it",
          "_path": "(Optional) Exchange path from teleBTC to the output token.",
          "_txAndProof": "Transaction and inclusion proof data"
        }
      },
      "wrapAndSwapV2((bytes4,bytes,bytes,bytes4,uint256,bytes,uint256),bytes,address[])": {
        "details": "Steps to process a request:      1. Check transaction inclusion on Bitcoin      2. Extract the request info      3. Mint TeleBTC and send fees to protocol, Locker, and third party      4. Exchange TeleBTC for the output token      5.1 Send the output token to the user      5.2 Send TeleBTC to user if exchange fails and the request belongs to the current chain      5.3 Keep TeleBTC if exchange fails and the request doesn't belong to the current chain",
        "params": {
          "_lockerLockingScript": "Script hash of Locker that user has sent BTC to it",
          "_path": "(Optional) Exchange path from teleBTC to the intermediary token",
          "_txAndProof": "Transaction and inclusion proof data"
        }
      }
    },
    "version": 1
  },
  "userdoc": {
    "events": {
      "FailedWrapAndSwap(address,address,address[2],uint256[2],uint256,address,bytes32,uint256,uint256,uint256[5],uint256)": {
        "notice": "Emits when a cc exchange request fails"
      },
      "FailedWrapAndSwapV2(address,bytes32,bytes32[2],uint256[2],uint256,address,bytes32,uint256,uint256,uint256[5],uint256)": {
        "notice": "Emits when a cc exchange request fails"
      },
      "NewChainIdMapping(uint256,uint256)": {
        "notice": "Emit when new chain id mapping added"
      },
      "NewLockers(address,address)": {
        "notice": "Emit when lockers contract updated"
      },
      "NewProtocolPercentageFee(uint256,uint256)": {
        "notice": "Emit when protocol fee updated"
      },
      "NewRelay(address,address)": {
        "notice": "Emit when relay contract updated"
      },
      "NewTeleBTC(address,address)": {
        "notice": "Emit when telebtc contract updated"
      },
      "NewThirdPartyAddress(uint256,address,address)": {
        "notice": "Emit when third party address updated"
      },
      "NewThirdPartyFee(uint256,uint256,uint256)": {
        "notice": "Emit when third party fee updated"
      },
      "NewTreasury(address,address)": {
        "notice": "Emit when treasury address updated"
      },
      "NewWrapAndSwap(address,address,address[2],uint256[2],uint256,address,bytes32,uint256,uint256,uint256[5],uint256)": {
        "notice": "Emits when a cc exchange request gets done"
      },
      "NewWrapAndSwapV2(address,bytes32,bytes32[2],uint256[2],uint256,address,bytes32,uint256,uint256,uint256[5],uint256)": {
        "notice": "Emits when a cc exchange request gets done"
      },
      "NewWrappedNativeToken(address,address)": {
        "notice": "Emits when wrapped native token addr updated"
      },
      "RefundProcessed(bytes32,address,uint256,uint256,bytes,uint8,address,uint256)": {
        "notice": "Emits when a failed request is refunded"
      },
      "RequestFilled(address,address,address,bytes32,address[2],uint256,uint256,uint256,uint256,uint256)": {
        "notice": "Emits when a new filler fills a request"
      },
      "SetExchangeConnector(uint256,address)": {
        "notice": "Emits when appId for an exchange connector is set"
      }
    },
    "kind": "user",
    "methods": {
      "emergencyWithdraw(address,uint256)": {
        "notice": "Emergency withdraw tokens from contract"
      },
      "fillTx(bytes32,address,address,uint256,uint256,uint256,uint256,bytes)": {
        "notice": "Filler fills an upcoming exchange request"
      },
      "getRealChainId(uint256)": {
        "notice": "Return the destination chain"
      },
      "initialize(uint256,uint256,uint256,uint256,address,address,address,address,address,address)": {
        "notice": "Initialize CcExchangeRouter"
      },
      "isRequestUsed(bytes32)": {
        "notice": "Check if a request has been processed"
      },
      "setAcross(address)": {
        "notice": "Setter for across"
      },
      "setAcrossAdmin(address)": {
        "notice": "Setter for Across Admin"
      },
      "setBridgeTokenIDMapping(bytes8,uint256,bytes32)": {
        "notice": "Setter for bridge token ID mapping"
      },
      "setBridgeTokenMapping(address,uint256,address)": {
        "notice": "Setter for bridge token mapping"
      },
      "setBurnRouter(address)": {
        "notice": "Setter for BurnRouter"
      },
      "setChainIdMapping(uint256,uint256)": {
        "notice": "Setter for chain id mapping"
      },
      "setExchangeConnector(uint256,address)": {
        "notice": "Assign an exchange connector to an app id"
      },
      "setIntermediaryTokenMapping(bytes8,address)": {
        "notice": "Setter for intermediary token mapping"
      },
      "setLockerPercentageFee(uint256)": {
        "notice": "Setter for locker percentage fee"
      },
      "setLockers(address)": {
        "notice": "Update LockersManager address"
      },
      "setProtocolPercentageFee(uint256)": {
        "notice": "Setter for protocol percentage fee"
      },
      "setRelay(address)": {
        "notice": "Update Relay address"
      },
      "setRewardDistributor(address)": {
        "notice": "Setter for reward distributor"
      },
      "setStartingBlockNumber(uint256)": {
        "notice": "Setter for starting block number"
      },
      "setTeleBTC(address)": {
        "notice": "Update TeleBTC address"
      },
      "setTeleporter(address,bool)": {
        "notice": "Setter for teleporter"
      },
      "setThirdPartyAddress(uint256,address)": {
        "notice": "Setter for third party"
      },
      "setThirdPartyFee(uint256,uint256)": {
        "notice": "Setter for third party fee"
      },
      "setTreasury(address)": {
        "notice": "Setter for treasury"
      },
      "setWrappedNativeToken(address)": {
        "notice": "Setter for wrapped native token"
      },
      "wrapAndSwap((bytes4,bytes,bytes,bytes4,uint256,bytes,uint256),bytes,address[])": {
        "notice": "Process a wrapAndSwap request after checking its inclusion on Bitcoin"
      },
      "wrapAndSwapV2((bytes4,bytes,bytes,bytes4,uint256,bytes,uint256),bytes,address[])": {
        "notice": "Process a wrapAndSwap to Solana request after checking its inclusion on Bitcoin"
      }
    },
    "version": 1
  },
  "storageLayout": {
    "storage": [
      {
        "astId": 11485,
        "contract": "contracts/routers/CcExchangeRouterLogic.sol:CcExchangeRouterLogic",
        "label": "startingBlockNumber",
        "offset": 0,
        "slot": "0",
        "type": "t_uint256"
      },
      {
        "astId": 11488,
        "contract": "contracts/routers/CcExchangeRouterLogic.sol:CcExchangeRouterLogic",
        "label": "chainId",
        "offset": 0,
        "slot": "1",
        "type": "t_uint256"
      },
      {
        "astId": 11491,
        "contract": "contracts/routers/CcExchangeRouterLogic.sol:CcExchangeRouterLogic",
        "label": "protocolPercentageFee",
        "offset": 0,
        "slot": "2",
        "type": "t_uint256"
      },
      {
        "astId": 11494,
        "contract": "contracts/routers/CcExchangeRouterLogic.sol:CcExchangeRouterLogic",
        "label": "relay",
        "offset": 0,
        "slot": "3",
        "type": "t_address"
      },
      {
        "astId": 11496,
        "contract": "contracts/routers/CcExchangeRouterLogic.sol:CcExchangeRouterLogic",
        "label": "specialTeleporter",
        "offset": 0,
        "slot": "4",
        "type": "t_address"
      },
      {
        "astId": 11499,
        "contract": "contracts/routers/CcExchangeRouterLogic.sol:CcExchangeRouterLogic",
        "label": "lockers",
        "offset": 0,
        "slot": "5",
        "type": "t_address"
      },
      {
        "astId": 11502,
        "contract": "contracts/routers/CcExchangeRouterLogic.sol:CcExchangeRouterLogic",
        "label": "teleBTC",
        "offset": 0,
        "slot": "6",
        "type": "t_address"
      },
      {
        "astId": 11505,
        "contract": "contracts/routers/CcExchangeRouterLogic.sol:CcExchangeRouterLogic",
        "label": "treasury",
        "offset": 0,
        "slot": "7",
        "type": "t_address"
      },
      {
        "astId": 11510,
        "contract": "contracts/routers/CcExchangeRouterLogic.sol:CcExchangeRouterLogic",
        "label": "exchangeConnector",
        "offset": 0,
        "slot": "8",
        "type": "t_mapping(t_uint256,t_address)"
      },
      {
        "astId": 11515,
        "contract": "contracts/routers/CcExchangeRouterLogic.sol:CcExchangeRouterLogic",
        "label": "ccExchangeRequests",
        "offset": 0,
        "slot": "9",
        "type": "t_mapping(t_bytes32,t_struct(ccExchangeRequest)12446_storage)"
      },
      {
        "astId": 139,
        "contract": "contracts/routers/CcExchangeRouterLogic.sol:CcExchangeRouterLogic",
        "label": "_initialized",
        "offset": 0,
        "slot": "10",
        "type": "t_uint8"
      },
      {
        "astId": 142,
        "contract": "contracts/routers/CcExchangeRouterLogic.sol:CcExchangeRouterLogic",
        "label": "_initializing",
        "offset": 1,
        "slot": "10",
        "type": "t_bool"
      },
      {
        "astId": 844,
        "contract": "contracts/routers/CcExchangeRouterLogic.sol:CcExchangeRouterLogic",
        "label": "__gap",
        "offset": 0,
        "slot": "11",
        "type": "t_array(t_uint256)50_storage"
      },
      {
        "astId": 11,
        "contract": "contracts/routers/CcExchangeRouterLogic.sol:CcExchangeRouterLogic",
        "label": "_owner",
        "offset": 0,
        "slot": "61",
        "type": "t_address"
      },
      {
        "astId": 131,
        "contract": "contracts/routers/CcExchangeRouterLogic.sol:CcExchangeRouterLogic",
        "label": "__gap",
        "offset": 0,
        "slot": "62",
        "type": "t_array(t_uint256)49_storage"
      },
      {
        "astId": 316,
        "contract": "contracts/routers/CcExchangeRouterLogic.sol:CcExchangeRouterLogic",
        "label": "_status",
        "offset": 0,
        "slot": "111",
        "type": "t_uint256"
      },
      {
        "astId": 385,
        "contract": "contracts/routers/CcExchangeRouterLogic.sol:CcExchangeRouterLogic",
        "label": "__gap",
        "offset": 0,
        "slot": "112",
        "type": "t_array(t_uint256)49_storage"
      },
      {
        "astId": 11534,
        "contract": "contracts/routers/CcExchangeRouterLogic.sol:CcExchangeRouterLogic",
        "label": "one",
        "offset": 0,
        "slot": "161",
        "type": "t_uint256"
      },
      {
        "astId": 11541,
        "contract": "contracts/routers/CcExchangeRouterLogic.sol:CcExchangeRouterLogic",
        "label": "two",
        "offset": 0,
        "slot": "162",
        "type": "t_mapping(t_bytes32,t_mapping(t_address,t_struct(FillerData)12525_storage))"
      },
      {
        "astId": 11548,
        "contract": "contracts/routers/CcExchangeRouterLogic.sol:CcExchangeRouterLogic",
        "label": "three",
        "offset": 0,
        "slot": "163",
        "type": "t_mapping(t_bytes32,t_mapping(t_address,t_struct(PrefixFillSum)12531_storage))"
      },
      {
        "astId": 11553,
        "contract": "contracts/routers/CcExchangeRouterLogic.sol:CcExchangeRouterLogic",
        "label": "four",
        "offset": 0,
        "slot": "164",
        "type": "t_mapping(t_bytes32,t_struct(FillData)12518_storage)"
      },
      {
        "astId": 11560,
        "contract": "contracts/routers/CcExchangeRouterLogic.sol:CcExchangeRouterLogic",
        "label": "isTokenSupported",
        "offset": 0,
        "slot": "165",
        "type": "t_mapping(t_uint256,t_mapping(t_address,t_bool))"
      },
      {
        "astId": 11565,
        "contract": "contracts/routers/CcExchangeRouterLogic.sol:CcExchangeRouterLogic",
        "label": "isChainSupported",
        "offset": 0,
        "slot": "166",
        "type": "t_mapping(t_uint256,t_bool)"
      },
      {
        "astId": 11570,
        "contract": "contracts/routers/CcExchangeRouterLogic.sol:CcExchangeRouterLogic",
        "label": "extendedCcExchangeRequests",
        "offset": 0,
        "slot": "167",
        "type": "t_mapping(t_bytes32,t_struct(extendedCcExchangeRequest)12492_storage)"
      },
      {
        "astId": 11573,
        "contract": "contracts/routers/CcExchangeRouterLogic.sol:CcExchangeRouterLogic",
        "label": "across",
        "offset": 0,
        "slot": "168",
        "type": "t_address"
      },
      {
        "astId": 11575,
        "contract": "contracts/routers/CcExchangeRouterLogic.sol:CcExchangeRouterLogic",
        "label": "wrappedNativeToken",
        "offset": 0,
        "slot": "169",
        "type": "t_address"
      },
      {
        "astId": 11578,
        "contract": "contracts/routers/CcExchangeRouterLogic.sol:CcExchangeRouterLogic",
        "label": "burnRouter",
        "offset": 0,
        "slot": "170",
        "type": "t_address"
      },
      {
        "astId": 11583,
        "contract": "contracts/routers/CcExchangeRouterLogic.sol:CcExchangeRouterLogic",
        "label": "chainIdMapping",
        "offset": 0,
        "slot": "171",
        "type": "t_mapping(t_uint256,t_struct(chainIdStruct)12422_storage)"
      },
      {
        "astId": 11587,
        "contract": "contracts/routers/CcExchangeRouterLogic.sol:CcExchangeRouterLogic",
        "label": "thirdPartyFee",
        "offset": 0,
        "slot": "172",
        "type": "t_mapping(t_uint256,t_uint256)"
      },
      {
        "astId": 11591,
        "contract": "contracts/routers/CcExchangeRouterLogic.sol:CcExchangeRouterLogic",
        "label": "thirdPartyAddress",
        "offset": 0,
        "slot": "173",
        "type": "t_mapping(t_uint256,t_address)"
      },
      {
        "astId": 11605,
        "contract": "contracts/routers/CcExchangeRouterLogic.sol:CcExchangeRouterLogic",
        "label": "fillerAddress",
        "offset": 0,
        "slot": "174",
        "type": "t_mapping(t_bytes32,t_mapping(t_address,t_mapping(t_address,t_mapping(t_uint256,t_mapping(t_uint256,t_mapping(t_uint256,t_address))))))"
      },
      {
        "astId": 11610,
        "contract": "contracts/routers/CcExchangeRouterLogic.sol:CcExchangeRouterLogic",
        "label": "acrossAdmin",
        "offset": 0,
        "slot": "175",
        "type": "t_address"
      },
      {
        "astId": 11612,
        "contract": "contracts/routers/CcExchangeRouterLogic.sol:CcExchangeRouterLogic",
        "label": "lockerPercentageFee",
        "offset": 0,
        "slot": "176",
        "type": "t_uint256"
      },
      {
        "astId": 11614,
        "contract": "contracts/routers/CcExchangeRouterLogic.sol:CcExchangeRouterLogic",
        "label": "rewardDistributor",
        "offset": 0,
        "slot": "177",
        "type": "t_address"
      },
      {
        "astId": 11620,
        "contract": "contracts/routers/CcExchangeRouterLogic.sol:CcExchangeRouterLogic",
        "label": "bridgeTokenMapping",
        "offset": 0,
        "slot": "178",
        "type": "t_mapping(t_address,t_mapping(t_uint256,t_address))"
      },
      {
        "astId": 11624,
        "contract": "contracts/routers/CcExchangeRouterLogic.sol:CcExchangeRouterLogic",
        "label": "finalAmount",
        "offset": 0,
        "slot": "179",
        "type": "t_mapping(t_bytes32,t_uint256)"
      },
      {
        "astId": 11628,
        "contract": "contracts/routers/CcExchangeRouterLogic.sol:CcExchangeRouterLogic",
        "label": "isTeleporter",
        "offset": 0,
        "slot": "180",
        "type": "t_mapping(t_address,t_bool)"
      },
      {
        "astId": 11634,
        "contract": "contracts/routers/CcExchangeRouterLogic.sol:CcExchangeRouterLogic",
        "label": "bridgeTokenIDMapping",
        "offset": 0,
        "slot": "181",
        "type": "t_mapping(t_bytes8,t_mapping(t_uint256,t_bytes32))"
      },
      {
        "astId": 11639,
        "contract": "contracts/routers/CcExchangeRouterLogic.sol:CcExchangeRouterLogic",
        "label": "ccExchangeRequestsV2",
        "offset": 0,
        "slot": "182",
        "type": "t_mapping(t_bytes32,t_struct(ccExchangeRequestV2)12475_storage)"
      },
      {
        "astId": 11643,
        "contract": "contracts/routers/CcExchangeRouterLogic.sol:CcExchangeRouterLogic",
        "label": "intermediaryTokenMapping",
        "offset": 0,
        "slot": "183",
        "type": "t_mapping(t_bytes8,t_address)"
      }
    ],
    "types": {
      "t_address": {
        "encoding": "inplace",
        "label": "address",
        "numberOfBytes": "20"
      },
      "t_array(t_address)dyn_storage": {
        "base": "t_address",
        "encoding": "dynamic_array",
        "label": "address[]",
        "numberOfBytes": "32"
      },
      "t_array(t_bytes8)2_storage": {
        "base": "t_bytes8",
        "encoding": "inplace",
        "label": "bytes8[2]",
        "numberOfBytes": "32"
      },
      "t_array(t_uint256)49_storage": {
        "base": "t_uint256",
        "encoding": "inplace",
        "label": "uint256[49]",
        "numberOfBytes": "1568"
      },
      "t_array(t_uint256)50_storage": {
        "base": "t_uint256",
        "encoding": "inplace",
        "label": "uint256[50]",
        "numberOfBytes": "1600"
      },
      "t_array(t_uint256)dyn_storage": {
        "base": "t_uint256",
        "encoding": "dynamic_array",
        "label": "uint256[]",
        "numberOfBytes": "32"
      },
      "t_bool": {
        "encoding": "inplace",
        "label": "bool",
        "numberOfBytes": "1"
      },
      "t_bytes32": {
        "encoding": "inplace",
        "label": "bytes32",
        "numberOfBytes": "32"
      },
      "t_bytes8": {
        "encoding": "inplace",
        "label": "bytes8",
        "numberOfBytes": "8"
      },
      "t_mapping(t_address,t_bool)": {
        "encoding": "mapping",
        "key": "t_address",
        "label": "mapping(address => bool)",
        "numberOfBytes": "32",
        "value": "t_bool"
      },
      "t_mapping(t_address,t_mapping(t_address,t_mapping(t_uint256,t_mapping(t_uint256,t_mapping(t_uint256,t_address)))))": {
        "encoding": "mapping",
        "key": "t_address",
        "label": "mapping(address => mapping(address => mapping(uint256 => mapping(uint256 => mapping(uint256 => address)))))",
        "numberOfBytes": "32",
        "value": "t_mapping(t_address,t_mapping(t_uint256,t_mapping(t_uint256,t_mapping(t_uint256,t_address))))"
      },
      "t_mapping(t_address,t_mapping(t_uint256,t_address))": {
        "encoding": "mapping",
        "key": "t_address",
        "label": "mapping(address => mapping(uint256 => address))",
        "numberOfBytes": "32",
        "value": "t_mapping(t_uint256,t_address)"
      },
      "t_mapping(t_address,t_mapping(t_uint256,t_mapping(t_uint256,t_mapping(t_uint256,t_address))))": {
        "encoding": "mapping",
        "key": "t_address",
        "label": "mapping(address => mapping(uint256 => mapping(uint256 => mapping(uint256 => address))))",
        "numberOfBytes": "32",
        "value": "t_mapping(t_uint256,t_mapping(t_uint256,t_mapping(t_uint256,t_address)))"
      },
      "t_mapping(t_address,t_struct(FillerData)12525_storage)": {
        "encoding": "mapping",
        "key": "t_address",
        "label": "mapping(address => struct ICcExchangeRouter.FillerData)",
        "numberOfBytes": "32",
        "value": "t_struct(FillerData)12525_storage"
      },
      "t_mapping(t_address,t_struct(PrefixFillSum)12531_storage)": {
        "encoding": "mapping",
        "key": "t_address",
        "label": "mapping(address => struct ICcExchangeRouter.PrefixFillSum)",
        "numberOfBytes": "32",
        "value": "t_struct(PrefixFillSum)12531_storage"
      },
      "t_mapping(t_bytes32,t_mapping(t_address,t_mapping(t_address,t_mapping(t_uint256,t_mapping(t_uint256,t_mapping(t_uint256,t_address))))))": {
        "encoding": "mapping",
        "key": "t_bytes32",
        "label": "mapping(bytes32 => mapping(address => mapping(address => mapping(uint256 => mapping(uint256 => mapping(uint256 => address))))))",
        "numberOfBytes": "32",
        "value": "t_mapping(t_address,t_mapping(t_address,t_mapping(t_uint256,t_mapping(t_uint256,t_mapping(t_uint256,t_address)))))"
      },
      "t_mapping(t_bytes32,t_mapping(t_address,t_struct(FillerData)12525_storage))": {
        "encoding": "mapping",
        "key": "t_bytes32",
        "label": "mapping(bytes32 => mapping(address => struct ICcExchangeRouter.FillerData))",
        "numberOfBytes": "32",
        "value": "t_mapping(t_address,t_struct(FillerData)12525_storage)"
      },
      "t_mapping(t_bytes32,t_mapping(t_address,t_struct(PrefixFillSum)12531_storage))": {
        "encoding": "mapping",
        "key": "t_bytes32",
        "label": "mapping(bytes32 => mapping(address => struct ICcExchangeRouter.PrefixFillSum))",
        "numberOfBytes": "32",
        "value": "t_mapping(t_address,t_struct(PrefixFillSum)12531_storage)"
      },
      "t_mapping(t_bytes32,t_struct(FillData)12518_storage)": {
        "encoding": "mapping",
        "key": "t_bytes32",
        "label": "mapping(bytes32 => struct ICcExchangeRouter.FillData)",
        "numberOfBytes": "32",
        "value": "t_struct(FillData)12518_storage"
      },
      "t_mapping(t_bytes32,t_struct(ccExchangeRequest)12446_storage)": {
        "encoding": "mapping",
        "key": "t_bytes32",
        "label": "mapping(bytes32 => struct ICcExchangeRouter.ccExchangeRequest)",
        "numberOfBytes": "32",
        "value": "t_struct(ccExchangeRequest)12446_storage"
      },
      "t_mapping(t_bytes32,t_struct(ccExchangeRequestV2)12475_storage)": {
        "encoding": "mapping",
        "key": "t_bytes32",
        "label": "mapping(bytes32 => struct ICcExchangeRouter.ccExchangeRequestV2)",
        "numberOfBytes": "32",
        "value": "t_struct(ccExchangeRequestV2)12475_storage"
      },
      "t_mapping(t_bytes32,t_struct(extendedCcExchangeRequest)12492_storage)": {
        "encoding": "mapping",
        "key": "t_bytes32",
        "label": "mapping(bytes32 => struct ICcExchangeRouter.extendedCcExchangeRequest)",
        "numberOfBytes": "32",
        "value": "t_struct(extendedCcExchangeRequest)12492_storage"
      },
      "t_mapping(t_bytes32,t_uint256)": {
        "encoding": "mapping",
        "key": "t_bytes32",
        "label": "mapping(bytes32 => uint256)",
        "numberOfBytes": "32",
        "value": "t_uint256"
      },
      "t_mapping(t_bytes8,t_address)": {
        "encoding": "mapping",
        "key": "t_bytes8",
        "label": "mapping(bytes8 => address)",
        "numberOfBytes": "32",
        "value": "t_address"
      },
      "t_mapping(t_bytes8,t_mapping(t_uint256,t_bytes32))": {
        "encoding": "mapping",
        "key": "t_bytes8",
        "label": "mapping(bytes8 => mapping(uint256 => bytes32))",
        "numberOfBytes": "32",
        "value": "t_mapping(t_uint256,t_bytes32)"
      },
      "t_mapping(t_uint256,t_address)": {
        "encoding": "mapping",
        "key": "t_uint256",
        "label": "mapping(uint256 => address)",
        "numberOfBytes": "32",
        "value": "t_address"
      },
      "t_mapping(t_uint256,t_bool)": {
        "encoding": "mapping",
        "key": "t_uint256",
        "label": "mapping(uint256 => bool)",
        "numberOfBytes": "32",
        "value": "t_bool"
      },
      "t_mapping(t_uint256,t_bytes32)": {
        "encoding": "mapping",
        "key": "t_uint256",
        "label": "mapping(uint256 => bytes32)",
        "numberOfBytes": "32",
        "value": "t_bytes32"
      },
      "t_mapping(t_uint256,t_mapping(t_address,t_bool))": {
        "encoding": "mapping",
        "key": "t_uint256",
        "label": "mapping(uint256 => mapping(address => bool))",
        "numberOfBytes": "32",
        "value": "t_mapping(t_address,t_bool)"
      },
      "t_mapping(t_uint256,t_mapping(t_uint256,t_address))": {
        "encoding": "mapping",
        "key": "t_uint256",
        "label": "mapping(uint256 => mapping(uint256 => address))",
        "numberOfBytes": "32",
        "value": "t_mapping(t_uint256,t_address)"
      },
      "t_mapping(t_uint256,t_mapping(t_uint256,t_mapping(t_uint256,t_address)))": {
        "encoding": "mapping",
        "key": "t_uint256",
        "label": "mapping(uint256 => mapping(uint256 => mapping(uint256 => address)))",
        "numberOfBytes": "32",
        "value": "t_mapping(t_uint256,t_mapping(t_uint256,t_address))"
      },
      "t_mapping(t_uint256,t_struct(chainIdStruct)12422_storage)": {
        "encoding": "mapping",
        "key": "t_uint256",
        "label": "mapping(uint256 => struct ICcExchangeRouter.chainIdStruct)",
        "numberOfBytes": "32",
        "value": "t_struct(chainIdStruct)12422_storage"
      },
      "t_mapping(t_uint256,t_uint256)": {
        "encoding": "mapping",
        "key": "t_uint256",
        "label": "mapping(uint256 => uint256)",
        "numberOfBytes": "32",
        "value": "t_uint256"
      },
      "t_struct(FillData)12518_storage": {
        "encoding": "inplace",
        "label": "struct ICcExchangeRouter.FillData",
        "members": [
          {
            "astId": 12509,
            "contract": "contracts/routers/CcExchangeRouterLogic.sol:CcExchangeRouterLogic",
            "label": "startingTime",
            "offset": 0,
            "slot": "0",
            "type": "t_uint256"
          },
          {
            "astId": 12511,
            "contract": "contracts/routers/CcExchangeRouterLogic.sol:CcExchangeRouterLogic",
            "label": "reqToken",
            "offset": 0,
            "slot": "1",
            "type": "t_address"
          },
          {
            "astId": 12513,
            "contract": "contracts/routers/CcExchangeRouterLogic.sol:CcExchangeRouterLogic",
            "label": "lastUsedIdx",
            "offset": 0,
            "slot": "2",
            "type": "t_uint256"
          },
          {
            "astId": 12515,
            "contract": "contracts/routers/CcExchangeRouterLogic.sol:CcExchangeRouterLogic",
            "label": "remainingAmountOfLastFill",
            "offset": 0,
            "slot": "3",
            "type": "t_uint256"
          },
          {
            "astId": 12517,
            "contract": "contracts/routers/CcExchangeRouterLogic.sol:CcExchangeRouterLogic",
            "label": "isWithdrawnLastFill",
            "offset": 0,
            "slot": "4",
            "type": "t_bool"
          }
        ],
        "numberOfBytes": "160"
      },
      "t_struct(FillerData)12525_storage": {
        "encoding": "inplace",
        "label": "struct ICcExchangeRouter.FillerData",
        "members": [
          {
            "astId": 12520,
            "contract": "contracts/routers/CcExchangeRouterLogic.sol:CcExchangeRouterLogic",
            "label": "index",
            "offset": 0,
            "slot": "0",
            "type": "t_uint256"
          },
          {
            "astId": 12522,
            "contract": "contracts/routers/CcExchangeRouterLogic.sol:CcExchangeRouterLogic",
            "label": "token",
            "offset": 0,
            "slot": "1",
            "type": "t_address"
          },
          {
            "astId": 12524,
            "contract": "contracts/routers/CcExchangeRouterLogic.sol:CcExchangeRouterLogic",
            "label": "amount",
            "offset": 0,
            "slot": "2",
            "type": "t_uint256"
          }
        ],
        "numberOfBytes": "96"
      },
      "t_struct(PrefixFillSum)12531_storage": {
        "encoding": "inplace",
        "label": "struct ICcExchangeRouter.PrefixFillSum",
        "members": [
          {
            "astId": 12528,
            "contract": "contracts/routers/CcExchangeRouterLogic.sol:CcExchangeRouterLogic",
            "label": "prefixSum",
            "offset": 0,
            "slot": "0",
            "type": "t_array(t_uint256)dyn_storage"
          },
          {
            "astId": 12530,
            "contract": "contracts/routers/CcExchangeRouterLogic.sol:CcExchangeRouterLogic",
            "label": "currentIndex",
            "offset": 0,
            "slot": "1",
            "type": "t_uint256"
          }
        ],
        "numberOfBytes": "64"
      },
      "t_struct(ccExchangeRequest)12446_storage": {
        "encoding": "inplace",
        "label": "struct ICcExchangeRouter.ccExchangeRequest",
        "members": [
          {
            "astId": 12424,
            "contract": "contracts/routers/CcExchangeRouterLogic.sol:CcExchangeRouterLogic",
            "label": "appId",
            "offset": 0,
            "slot": "0",
            "type": "t_uint256"
          },
          {
            "astId": 12426,
            "contract": "contracts/routers/CcExchangeRouterLogic.sol:CcExchangeRouterLogic",
            "label": "inputAmount",
            "offset": 0,
            "slot": "1",
            "type": "t_uint256"
          },
          {
            "astId": 12428,
            "contract": "contracts/routers/CcExchangeRouterLogic.sol:CcExchangeRouterLogic",
            "label": "outputAmount",
            "offset": 0,
            "slot": "2",
            "type": "t_uint256"
          },
          {
            "astId": 12430,
            "contract": "contracts/routers/CcExchangeRouterLogic.sol:CcExchangeRouterLogic",
            "label": "isFixedToken",
            "offset": 0,
            "slot": "3",
            "type": "t_bool"
          },
          {
            "astId": 12432,
            "contract": "contracts/routers/CcExchangeRouterLogic.sol:CcExchangeRouterLogic",
            "label": "recipientAddress",
            "offset": 1,
            "slot": "3",
            "type": "t_address"
          },
          {
            "astId": 12434,
            "contract": "contracts/routers/CcExchangeRouterLogic.sol:CcExchangeRouterLogic",
            "label": "fee",
            "offset": 0,
            "slot": "4",
            "type": "t_uint256"
          },
          {
            "astId": 12436,
            "contract": "contracts/routers/CcExchangeRouterLogic.sol:CcExchangeRouterLogic",
            "label": "isUsed",
            "offset": 0,
            "slot": "5",
            "type": "t_bool"
          },
          {
            "astId": 12439,
            "contract": "contracts/routers/CcExchangeRouterLogic.sol:CcExchangeRouterLogic",
            "label": "path",
            "offset": 0,
            "slot": "6",
            "type": "t_array(t_address)dyn_storage"
          },
          {
            "astId": 12441,
            "contract": "contracts/routers/CcExchangeRouterLogic.sol:CcExchangeRouterLogic",
            "label": "deadline",
            "offset": 0,
            "slot": "7",
            "type": "t_uint256"
          },
          {
            "astId": 12443,
            "contract": "contracts/routers/CcExchangeRouterLogic.sol:CcExchangeRouterLogic",
            "label": "speed",
            "offset": 0,
            "slot": "8",
            "type": "t_uint256"
          },
          {
            "astId": 12445,
            "contract": "contracts/routers/CcExchangeRouterLogic.sol:CcExchangeRouterLogic",
            "label": "destinationChain",
            "offset": 0,
            "slot": "9",
            "type": "t_uint256"
          }
        ],
        "numberOfBytes": "320"
      },
      "t_struct(ccExchangeRequestV2)12475_storage": {
        "encoding": "inplace",
        "label": "struct ICcExchangeRouter.ccExchangeRequestV2",
        "members": [
          {
            "astId": 12448,
            "contract": "contracts/routers/CcExchangeRouterLogic.sol:CcExchangeRouterLogic",
            "label": "appId",
            "offset": 0,
            "slot": "0",
            "type": "t_uint256"
          },
          {
            "astId": 12450,
            "contract": "contracts/routers/CcExchangeRouterLogic.sol:CcExchangeRouterLogic",
            "label": "inputAmount",
            "offset": 0,
            "slot": "1",
            "type": "t_uint256"
          },
          {
            "astId": 12452,
            "contract": "contracts/routers/CcExchangeRouterLogic.sol:CcExchangeRouterLogic",
            "label": "outputAmount",
            "offset": 0,
            "slot": "2",
            "type": "t_uint256"
          },
          {
            "astId": 12454,
            "contract": "contracts/routers/CcExchangeRouterLogic.sol:CcExchangeRouterLogic",
            "label": "minIntermediaryTokenAmount",
            "offset": 0,
            "slot": "3",
            "type": "t_uint256"
          },
          {
            "astId": 12456,
            "contract": "contracts/routers/CcExchangeRouterLogic.sol:CcExchangeRouterLogic",
            "label": "isFixedToken",
            "offset": 0,
            "slot": "4",
            "type": "t_bool"
          },
          {
            "astId": 12458,
            "contract": "contracts/routers/CcExchangeRouterLogic.sol:CcExchangeRouterLogic",
            "label": "recipientAddress",
            "offset": 0,
            "slot": "5",
            "type": "t_bytes32"
          },
          {
            "astId": 12460,
            "contract": "contracts/routers/CcExchangeRouterLogic.sol:CcExchangeRouterLogic",
            "label": "fee",
            "offset": 0,
            "slot": "6",
            "type": "t_uint256"
          },
          {
            "astId": 12462,
            "contract": "contracts/routers/CcExchangeRouterLogic.sol:CcExchangeRouterLogic",
            "label": "isUsed",
            "offset": 0,
            "slot": "7",
            "type": "t_bool"
          },
          {
            "astId": 12466,
            "contract": "contracts/routers/CcExchangeRouterLogic.sol:CcExchangeRouterLogic",
            "label": "tokenIDs",
            "offset": 0,
            "slot": "8",
            "type": "t_array(t_bytes8)2_storage"
          },
          {
            "astId": 12468,
            "contract": "contracts/routers/CcExchangeRouterLogic.sol:CcExchangeRouterLogic",
            "label": "outputToken",
            "offset": 0,
            "slot": "9",
            "type": "t_bytes32"
          },
          {
            "astId": 12470,
            "contract": "contracts/routers/CcExchangeRouterLogic.sol:CcExchangeRouterLogic",
            "label": "deadline",
            "offset": 0,
            "slot": "10",
            "type": "t_uint256"
          },
          {
            "astId": 12472,
            "contract": "contracts/routers/CcExchangeRouterLogic.sol:CcExchangeRouterLogic",
            "label": "speed",
            "offset": 0,
            "slot": "11",
            "type": "t_uint256"
          },
          {
            "astId": 12474,
            "contract": "contracts/routers/CcExchangeRouterLogic.sol:CcExchangeRouterLogic",
            "label": "destRealChainId",
            "offset": 0,
            "slot": "12",
            "type": "t_uint256"
          }
        ],
        "numberOfBytes": "416"
      },
      "t_struct(chainIdStruct)12422_storage": {
        "encoding": "inplace",
        "label": "struct ICcExchangeRouter.chainIdStruct",
        "members": [
          {
            "astId": 12419,
            "contract": "contracts/routers/CcExchangeRouterLogic.sol:CcExchangeRouterLogic",
            "label": "middleChain",
            "offset": 0,
            "slot": "0",
            "type": "t_uint256"
          },
          {
            "astId": 12421,
            "contract": "contracts/routers/CcExchangeRouterLogic.sol:CcExchangeRouterLogic",
            "label": "destinationChain",
            "offset": 0,
            "slot": "1",
            "type": "t_uint256"
          }
        ],
        "numberOfBytes": "64"
      },
      "t_struct(extendedCcExchangeRequest)12492_storage": {
        "encoding": "inplace",
        "label": "struct ICcExchangeRouter.extendedCcExchangeRequest",
        "members": [
          {
            "astId": 12477,
            "contract": "contracts/routers/CcExchangeRouterLogic.sol:CcExchangeRouterLogic",
            "label": "destAssignedChainId",
            "offset": 0,
            "slot": "0",
            "type": "t_uint256"
          },
          {
            "astId": 12479,
            "contract": "contracts/routers/CcExchangeRouterLogic.sol:CcExchangeRouterLogic",
            "label": "isRequestCompleted",
            "offset": 0,
            "slot": "1",
            "type": "t_bool"
          },
          {
            "astId": 12481,
            "contract": "contracts/routers/CcExchangeRouterLogic.sol:CcExchangeRouterLogic",
            "label": "remainedInputAmount",
            "offset": 0,
            "slot": "2",
            "type": "t_uint256"
          },
          {
            "astId": 12483,
            "contract": "contracts/routers/CcExchangeRouterLogic.sol:CcExchangeRouterLogic",
            "label": "bridgePercentageFee",
            "offset": 0,
            "slot": "3",
            "type": "t_uint256"
          },
          {
            "astId": 12485,
            "contract": "contracts/routers/CcExchangeRouterLogic.sol:CcExchangeRouterLogic",
            "label": "thirdParty",
            "offset": 0,
            "slot": "4",
            "type": "t_uint256"
          },
          {
            "astId": 12487,
            "contract": "contracts/routers/CcExchangeRouterLogic.sol:CcExchangeRouterLogic",
            "label": "protocolFee",
            "offset": 0,
            "slot": "5",
            "type": "t_uint256"
          },
          {
            "astId": 12489,
            "contract": "contracts/routers/CcExchangeRouterLogic.sol:CcExchangeRouterLogic",
            "label": "thirdPartyFee",
            "offset": 0,
            "slot": "6",
            "type": "t_uint256"
          },
          {
            "astId": 12491,
            "contract": "contracts/routers/CcExchangeRouterLogic.sol:CcExchangeRouterLogic",
            "label": "lockerFee",
            "offset": 0,
            "slot": "7",
            "type": "t_uint256"
          }
        ],
        "numberOfBytes": "256"
      },
      "t_uint256": {
        "encoding": "inplace",
        "label": "uint256",
        "numberOfBytes": "32"
      },
      "t_uint8": {
        "encoding": "inplace",
        "label": "uint8",
        "numberOfBytes": "1"
      }
    }
  }
}