{
  "address": "0xaA91e10B7e7c0Bc9ADf0712a09008F417a10Eb47",
  "abi": [
    {
      "inputs": [],
      "name": "ZeroAddress",
      "type": "error"
    },
    {
      "anonymous": false,
      "inputs": [
        {
          "indexed": false,
          "internalType": "address",
          "name": "oldAcross",
          "type": "address"
        },
        {
          "indexed": false,
          "internalType": "address",
          "name": "newAcross",
          "type": "address"
        }
      ],
      "name": "AcrossUpdated",
      "type": "event"
    },
    {
      "anonymous": false,
      "inputs": [
        {
          "indexed": false,
          "internalType": "address",
          "name": "oldBurnRouter",
          "type": "address"
        },
        {
          "indexed": false,
          "internalType": "address",
          "name": "newBurnRouter",
          "type": "address"
        }
      ],
      "name": "BurnRouterUpdated",
      "type": "event"
    },
    {
      "anonymous": false,
      "inputs": [
        {
          "indexed": false,
          "internalType": "address",
          "name": "lockerTargetAddress",
          "type": "address"
        },
        {
          "indexed": true,
          "internalType": "address",
          "name": "recipientAddress",
          "type": "address"
        },
        {
          "indexed": false,
          "internalType": "address[2]",
          "name": "inputAndOutputToken",
          "type": "address[2]"
        },
        {
          "indexed": false,
          "internalType": "uint256[2]",
          "name": "inputAndOutputAmount",
          "type": "uint256[2]"
        },
        {
          "indexed": true,
          "internalType": "uint256",
          "name": "speed",
          "type": "uint256"
        },
        {
          "indexed": true,
          "internalType": "address",
          "name": "teleporter",
          "type": "address"
        },
        {
          "indexed": false,
          "internalType": "bytes32",
          "name": "bitcoinTxId",
          "type": "bytes32"
        },
        {
          "indexed": false,
          "internalType": "uint256",
          "name": "appId",
          "type": "uint256"
        },
        {
          "indexed": false,
          "internalType": "uint256",
          "name": "thirdPartyId",
          "type": "uint256"
        },
        {
          "indexed": false,
          "internalType": "uint256[5]",
          "name": "fees",
          "type": "uint256[5]"
        },
        {
          "indexed": false,
          "internalType": "uint256",
          "name": "destinationChainId",
          "type": "uint256"
        }
      ],
      "name": "FailedWrapAndSwap",
      "type": "event"
    },
    {
      "anonymous": false,
      "inputs": [
        {
          "indexed": false,
          "internalType": "address",
          "name": "filler",
          "type": "address"
        },
        {
          "indexed": false,
          "internalType": "bytes32",
          "name": "txId",
          "type": "bytes32"
        },
        {
          "indexed": false,
          "internalType": "uint256",
          "name": "amount",
          "type": "uint256"
        }
      ],
      "name": "FillerRefunded",
      "type": "event"
    },
    {
      "anonymous": false,
      "inputs": [
        {
          "indexed": false,
          "internalType": "uint8",
          "name": "version",
          "type": "uint8"
        }
      ],
      "name": "Initialized",
      "type": "event"
    },
    {
      "anonymous": false,
      "inputs": [
        {
          "indexed": false,
          "internalType": "uint256",
          "name": "destinationChain",
          "type": "uint256"
        },
        {
          "indexed": false,
          "internalType": "uint256",
          "name": "mappedChainId",
          "type": "uint256"
        }
      ],
      "name": "NewChainIdMapping",
      "type": "event"
    },
    {
      "anonymous": false,
      "inputs": [
        {
          "indexed": false,
          "internalType": "address",
          "name": "oldLockers",
          "type": "address"
        },
        {
          "indexed": false,
          "internalType": "address",
          "name": "newLockers",
          "type": "address"
        }
      ],
      "name": "NewLockers",
      "type": "event"
    },
    {
      "anonymous": false,
      "inputs": [
        {
          "indexed": false,
          "internalType": "uint256",
          "name": "oldProtocolPercentageFee",
          "type": "uint256"
        },
        {
          "indexed": false,
          "internalType": "uint256",
          "name": "newProtocolPercentageFee",
          "type": "uint256"
        }
      ],
      "name": "NewProtocolPercentageFee",
      "type": "event"
    },
    {
      "anonymous": false,
      "inputs": [
        {
          "indexed": false,
          "internalType": "address",
          "name": "oldRelay",
          "type": "address"
        },
        {
          "indexed": false,
          "internalType": "address",
          "name": "newRelay",
          "type": "address"
        }
      ],
      "name": "NewRelay",
      "type": "event"
    },
    {
      "anonymous": false,
      "inputs": [
        {
          "indexed": false,
          "internalType": "address",
          "name": "oldSpecialTeleporter",
          "type": "address"
        },
        {
          "indexed": false,
          "internalType": "address",
          "name": "newSpecialTeleporter",
          "type": "address"
        }
      ],
      "name": "NewSpecialTeleporter",
      "type": "event"
    },
    {
      "anonymous": false,
      "inputs": [
        {
          "indexed": false,
          "internalType": "address",
          "name": "oldTeleBTC",
          "type": "address"
        },
        {
          "indexed": false,
          "internalType": "address",
          "name": "newTeleBTC",
          "type": "address"
        }
      ],
      "name": "NewTeleBTC",
      "type": "event"
    },
    {
      "anonymous": false,
      "inputs": [
        {
          "indexed": false,
          "internalType": "uint256",
          "name": "thirdPartyId",
          "type": "uint256"
        },
        {
          "indexed": false,
          "internalType": "address",
          "name": "oldThirdPartyAddress",
          "type": "address"
        },
        {
          "indexed": false,
          "internalType": "address",
          "name": "newThirdPartyAddress",
          "type": "address"
        }
      ],
      "name": "NewThirdPartyAddress",
      "type": "event"
    },
    {
      "anonymous": false,
      "inputs": [
        {
          "indexed": false,
          "internalType": "uint256",
          "name": "thirdPartyId",
          "type": "uint256"
        },
        {
          "indexed": false,
          "internalType": "uint256",
          "name": "oldThirdPartyFee",
          "type": "uint256"
        },
        {
          "indexed": false,
          "internalType": "uint256",
          "name": "newThirdPartyFee",
          "type": "uint256"
        }
      ],
      "name": "NewThirdPartyFee",
      "type": "event"
    },
    {
      "anonymous": false,
      "inputs": [
        {
          "indexed": false,
          "internalType": "address",
          "name": "oldTreasury",
          "type": "address"
        },
        {
          "indexed": false,
          "internalType": "address",
          "name": "newTreasury",
          "type": "address"
        }
      ],
      "name": "NewTreasury",
      "type": "event"
    },
    {
      "anonymous": false,
      "inputs": [
        {
          "indexed": false,
          "internalType": "address",
          "name": "lockerTargetAddress",
          "type": "address"
        },
        {
          "indexed": true,
          "internalType": "address",
          "name": "user",
          "type": "address"
        },
        {
          "indexed": false,
          "internalType": "address[2]",
          "name": "inputAndOutputToken",
          "type": "address[2]"
        },
        {
          "indexed": false,
          "internalType": "uint256[2]",
          "name": "inputAndOutputAmount",
          "type": "uint256[2]"
        },
        {
          "indexed": true,
          "internalType": "uint256",
          "name": "speed",
          "type": "uint256"
        },
        {
          "indexed": true,
          "internalType": "address",
          "name": "teleporter",
          "type": "address"
        },
        {
          "indexed": false,
          "internalType": "bytes32",
          "name": "bitcoinTxId",
          "type": "bytes32"
        },
        {
          "indexed": false,
          "internalType": "uint256",
          "name": "appId",
          "type": "uint256"
        },
        {
          "indexed": false,
          "internalType": "uint256",
          "name": "thirdPartyId",
          "type": "uint256"
        },
        {
          "indexed": false,
          "internalType": "uint256[5]",
          "name": "fees",
          "type": "uint256[5]"
        },
        {
          "indexed": false,
          "internalType": "uint256",
          "name": "destinationChainId",
          "type": "uint256"
        }
      ],
      "name": "NewWrapAndSwap",
      "type": "event"
    },
    {
      "anonymous": false,
      "inputs": [
        {
          "indexed": false,
          "internalType": "address",
          "name": "oldWrappedNativeToken",
          "type": "address"
        },
        {
          "indexed": false,
          "internalType": "address",
          "name": "newWrappedNativeToken",
          "type": "address"
        }
      ],
      "name": "NewWrappedNativeToken",
      "type": "event"
    },
    {
      "anonymous": false,
      "inputs": [
        {
          "indexed": true,
          "internalType": "address",
          "name": "previousOwner",
          "type": "address"
        },
        {
          "indexed": true,
          "internalType": "address",
          "name": "newOwner",
          "type": "address"
        }
      ],
      "name": "OwnershipTransferred",
      "type": "event"
    },
    {
      "anonymous": false,
      "inputs": [
        {
          "indexed": true,
          "internalType": "bytes32",
          "name": "txId",
          "type": "bytes32"
        },
        {
          "indexed": true,
          "internalType": "address",
          "name": "refundedBy",
          "type": "address"
        },
        {
          "indexed": false,
          "internalType": "uint256",
          "name": "failedRequestAmount",
          "type": "uint256"
        },
        {
          "indexed": false,
          "internalType": "uint256",
          "name": "refundAmount",
          "type": "uint256"
        },
        {
          "indexed": false,
          "internalType": "bytes",
          "name": "userScript",
          "type": "bytes"
        },
        {
          "indexed": false,
          "internalType": "uint8",
          "name": "scriptType",
          "type": "uint8"
        },
        {
          "indexed": false,
          "internalType": "address",
          "name": "lockerTargetAddress",
          "type": "address"
        },
        {
          "indexed": false,
          "internalType": "uint256",
          "name": "burnRequestCounter",
          "type": "uint256"
        }
      ],
      "name": "RefundProcessed",
      "type": "event"
    },
    {
      "anonymous": false,
      "inputs": [
        {
          "indexed": false,
          "internalType": "address",
          "name": "filler",
          "type": "address"
        },
        {
          "indexed": false,
          "internalType": "bytes32",
          "name": "txId",
          "type": "bytes32"
        },
        {
          "indexed": false,
          "internalType": "address",
          "name": "recipient",
          "type": "address"
        },
        {
          "indexed": false,
          "internalType": "address",
          "name": "token",
          "type": "address"
        },
        {
          "indexed": false,
          "internalType": "uint256",
          "name": "amount",
          "type": "uint256"
        },
        {
          "indexed": false,
          "internalType": "uint256",
          "name": "destinationChainId",
          "type": "uint256"
        },
        {
          "indexed": false,
          "internalType": "uint256",
          "name": "acrossRelayerFee",
          "type": "uint256"
        }
      ],
      "name": "RequestFilled",
      "type": "event"
    },
    {
      "anonymous": false,
      "inputs": [
        {
          "indexed": false,
          "internalType": "uint256",
          "name": "appId",
          "type": "uint256"
        },
        {
          "indexed": false,
          "internalType": "address",
          "name": "exchangeConnector",
          "type": "address"
        }
      ],
      "name": "SetExchangeConnector",
      "type": "event"
    },
    {
      "inputs": [],
      "name": "across",
      "outputs": [
        {
          "internalType": "address",
          "name": "",
          "type": "address"
        }
      ],
      "stateMutability": "view",
      "type": "function"
    },
    {
      "inputs": [],
      "name": "acrossAdmin",
      "outputs": [
        {
          "internalType": "address",
          "name": "",
          "type": "address"
        }
      ],
      "stateMutability": "view",
      "type": "function"
    },
    {
      "inputs": [],
      "name": "burnRouter",
      "outputs": [
        {
          "internalType": "address",
          "name": "",
          "type": "address"
        }
      ],
      "stateMutability": "view",
      "type": "function"
    },
    {
      "inputs": [],
      "name": "chainId",
      "outputs": [
        {
          "internalType": "uint256",
          "name": "",
          "type": "uint256"
        }
      ],
      "stateMutability": "view",
      "type": "function"
    },
    {
      "inputs": [
        {
          "internalType": "uint256",
          "name": "",
          "type": "uint256"
        }
      ],
      "name": "chainIdMapping",
      "outputs": [
        {
          "internalType": "uint256",
          "name": "middleChain",
          "type": "uint256"
        },
        {
          "internalType": "uint256",
          "name": "destinationChain",
          "type": "uint256"
        }
      ],
      "stateMutability": "view",
      "type": "function"
    },
    {
      "inputs": [
        {
          "internalType": "address",
          "name": "_token",
          "type": "address"
        },
        {
          "internalType": "uint256",
          "name": "_amount",
          "type": "uint256"
        }
      ],
      "name": "emergencyWithdraw",
      "outputs": [],
      "stateMutability": "nonpayable",
      "type": "function"
    },
    {
      "inputs": [
        {
          "internalType": "uint256",
          "name": "",
          "type": "uint256"
        }
      ],
      "name": "exchangeConnector",
      "outputs": [
        {
          "internalType": "address",
          "name": "",
          "type": "address"
        }
      ],
      "stateMutability": "view",
      "type": "function"
    },
    {
      "inputs": [
        {
          "internalType": "bytes32",
          "name": "",
          "type": "bytes32"
        }
      ],
      "name": "extendedCcExchangeRequests",
      "outputs": [
        {
          "internalType": "uint256",
          "name": "chainId",
          "type": "uint256"
        },
        {
          "internalType": "bool",
          "name": "isRequestCompleted",
          "type": "bool"
        },
        {
          "internalType": "uint256",
          "name": "remainedInputAmount",
          "type": "uint256"
        },
        {
          "internalType": "uint256",
          "name": "bridgeFee",
          "type": "uint256"
        },
        {
          "internalType": "uint256",
          "name": "thirdParty",
          "type": "uint256"
        },
        {
          "internalType": "uint256",
          "name": "protocolFee",
          "type": "uint256"
        },
        {
          "internalType": "uint256",
          "name": "thirdPartyFee",
          "type": "uint256"
        },
        {
          "internalType": "uint256",
          "name": "lockerFee",
          "type": "uint256"
        }
      ],
      "stateMutability": "view",
      "type": "function"
    },
    {
      "inputs": [
        {
          "internalType": "bytes32",
          "name": "_txId",
          "type": "bytes32"
        },
        {
          "internalType": "address",
          "name": "_recipient",
          "type": "address"
        },
        {
          "internalType": "address",
          "name": "_token",
          "type": "address"
        },
        {
          "internalType": "uint256",
          "name": "_amount",
          "type": "uint256"
        },
        {
          "internalType": "uint256",
          "name": "_destinationChainId",
          "type": "uint256"
        },
        {
          "internalType": "uint256",
          "name": "_bridgeFee",
          "type": "uint256"
        }
      ],
      "name": "fillTx",
      "outputs": [],
      "stateMutability": "payable",
      "type": "function"
    },
    {
      "inputs": [
        {
          "internalType": "bytes32",
          "name": "",
          "type": "bytes32"
        },
        {
          "internalType": "address",
          "name": "",
          "type": "address"
        },
        {
          "internalType": "address",
          "name": "",
          "type": "address"
        },
        {
          "internalType": "uint256",
          "name": "",
          "type": "uint256"
        },
        {
          "internalType": "uint256",
          "name": "",
          "type": "uint256"
        },
        {
          "internalType": "uint256",
          "name": "",
          "type": "uint256"
        }
      ],
      "name": "fillerAddress",
      "outputs": [
        {
          "internalType": "address",
          "name": "",
          "type": "address"
        }
      ],
      "stateMutability": "view",
      "type": "function"
    },
    {
      "inputs": [
        {
          "internalType": "uint256",
          "name": "chainId",
          "type": "uint256"
        }
      ],
      "name": "getDestChainId",
      "outputs": [
        {
          "internalType": "uint256",
          "name": "",
          "type": "uint256"
        }
      ],
      "stateMutability": "view",
      "type": "function"
    },
    {
      "inputs": [
        {
          "internalType": "uint256",
          "name": "_startingBlockNumber",
          "type": "uint256"
        },
        {
          "internalType": "uint256",
          "name": "_protocolPercentageFee",
          "type": "uint256"
        },
        {
          "internalType": "uint256",
          "name": "_lockerPercentageFee",
          "type": "uint256"
        },
        {
          "internalType": "uint256",
          "name": "_chainId",
          "type": "uint256"
        },
        {
          "internalType": "address",
          "name": "_lockers",
          "type": "address"
        },
        {
          "internalType": "address",
          "name": "_relay",
          "type": "address"
        },
        {
          "internalType": "address",
          "name": "_teleBTC",
          "type": "address"
        },
        {
          "internalType": "address",
          "name": "_treasury",
          "type": "address"
        },
        {
          "internalType": "address",
          "name": "_across",
          "type": "address"
        },
        {
          "internalType": "address",
          "name": "_burnRouter",
          "type": "address"
        }
      ],
      "name": "initialize",
      "outputs": [],
      "stateMutability": "nonpayable",
      "type": "function"
    },
    {
      "inputs": [
        {
          "internalType": "uint256",
          "name": "",
          "type": "uint256"
        }
      ],
      "name": "isChainSupported",
      "outputs": [
        {
          "internalType": "bool",
          "name": "",
          "type": "bool"
        }
      ],
      "stateMutability": "view",
      "type": "function"
    },
    {
      "inputs": [
        {
          "internalType": "bytes32",
          "name": "_txId",
          "type": "bytes32"
        }
      ],
      "name": "isRequestUsed",
      "outputs": [
        {
          "internalType": "bool",
          "name": "",
          "type": "bool"
        }
      ],
      "stateMutability": "view",
      "type": "function"
    },
    {
      "inputs": [
        {
          "internalType": "uint256",
          "name": "",
          "type": "uint256"
        },
        {
          "internalType": "address",
          "name": "",
          "type": "address"
        }
      ],
      "name": "isTokenSupported",
      "outputs": [
        {
          "internalType": "bool",
          "name": "",
          "type": "bool"
        }
      ],
      "stateMutability": "view",
      "type": "function"
    },
    {
      "inputs": [],
      "name": "lockerPercentageFee",
      "outputs": [
        {
          "internalType": "uint256",
          "name": "",
          "type": "uint256"
        }
      ],
      "stateMutability": "view",
      "type": "function"
    },
    {
      "inputs": [],
      "name": "lockers",
      "outputs": [
        {
          "internalType": "address",
          "name": "",
          "type": "address"
        }
      ],
      "stateMutability": "view",
      "type": "function"
    },
    {
      "inputs": [],
      "name": "owner",
      "outputs": [
        {
          "internalType": "address",
          "name": "",
          "type": "address"
        }
      ],
      "stateMutability": "view",
      "type": "function"
    },
    {
      "inputs": [],
      "name": "protocolPercentageFee",
      "outputs": [
        {
          "internalType": "uint256",
          "name": "",
          "type": "uint256"
        }
      ],
      "stateMutability": "view",
      "type": "function"
    },
    {
      "inputs": [
        {
          "internalType": "bytes32",
          "name": "_txId",
          "type": "bytes32"
        },
        {
          "internalType": "uint8",
          "name": "_scriptType",
          "type": "uint8"
        },
        {
          "internalType": "bytes",
          "name": "_userScript",
          "type": "bytes"
        },
        {
          "internalType": "bytes",
          "name": "_lockerLockingScript",
          "type": "bytes"
        }
      ],
      "name": "refundByOwnerOrAdmin",
      "outputs": [],
      "stateMutability": "nonpayable",
      "type": "function"
    },
    {
      "inputs": [],
      "name": "relay",
      "outputs": [
        {
          "internalType": "address",
          "name": "",
          "type": "address"
        }
      ],
      "stateMutability": "view",
      "type": "function"
    },
    {
      "inputs": [],
      "name": "renounceOwnership",
      "outputs": [],
      "stateMutability": "nonpayable",
      "type": "function"
    },
    {
      "inputs": [],
      "name": "rewardDistributor",
      "outputs": [
        {
          "internalType": "address",
          "name": "",
          "type": "address"
        }
      ],
      "stateMutability": "view",
      "type": "function"
    },
    {
      "inputs": [
        {
          "internalType": "address",
          "name": "_across",
          "type": "address"
        }
      ],
      "name": "setAcross",
      "outputs": [],
      "stateMutability": "nonpayable",
      "type": "function"
    },
    {
      "inputs": [
        {
          "internalType": "address",
          "name": "_acrossAdmin",
          "type": "address"
        }
      ],
      "name": "setAcrossAdmin",
      "outputs": [],
      "stateMutability": "nonpayable",
      "type": "function"
    },
    {
      "inputs": [
        {
          "internalType": "address",
          "name": "_burnRouter",
          "type": "address"
        }
      ],
      "name": "setBurnRouter",
      "outputs": [],
      "stateMutability": "nonpayable",
      "type": "function"
    },
    {
      "inputs": [
        {
          "internalType": "uint256",
          "name": "_destinationChain",
          "type": "uint256"
        },
        {
          "internalType": "uint256",
          "name": "_mappedId",
          "type": "uint256"
        }
      ],
      "name": "setChainIdMapping",
      "outputs": [],
      "stateMutability": "nonpayable",
      "type": "function"
    },
    {
      "inputs": [
        {
          "internalType": "uint256",
          "name": "_appId",
          "type": "uint256"
        },
        {
          "internalType": "address",
          "name": "_exchangeConnector",
          "type": "address"
        }
      ],
      "name": "setExchangeConnector",
      "outputs": [],
      "stateMutability": "nonpayable",
      "type": "function"
    },
    {
      "inputs": [
        {
          "internalType": "uint256",
          "name": "_lockerPercentageFee",
          "type": "uint256"
        }
      ],
      "name": "setLockerPercentageFee",
      "outputs": [],
      "stateMutability": "nonpayable",
      "type": "function"
    },
    {
      "inputs": [
        {
          "internalType": "address",
          "name": "_lockers",
          "type": "address"
        }
      ],
      "name": "setLockers",
      "outputs": [],
      "stateMutability": "nonpayable",
      "type": "function"
    },
    {
      "inputs": [
        {
          "internalType": "uint256",
          "name": "_protocolPercentageFee",
          "type": "uint256"
        }
      ],
      "name": "setProtocolPercentageFee",
      "outputs": [],
      "stateMutability": "nonpayable",
      "type": "function"
    },
    {
      "inputs": [
        {
          "internalType": "address",
          "name": "_relay",
          "type": "address"
        }
      ],
      "name": "setRelay",
      "outputs": [],
      "stateMutability": "nonpayable",
      "type": "function"
    },
    {
      "inputs": [
        {
          "internalType": "address",
          "name": "_rewardDistributor",
          "type": "address"
        }
      ],
      "name": "setRewardDistributor",
      "outputs": [],
      "stateMutability": "nonpayable",
      "type": "function"
    },
    {
      "inputs": [
        {
          "internalType": "address",
          "name": "_specialTeleporter",
          "type": "address"
        }
      ],
      "name": "setSpecialTeleporter",
      "outputs": [],
      "stateMutability": "nonpayable",
      "type": "function"
    },
    {
      "inputs": [
        {
          "internalType": "uint256",
          "name": "_startingBlockNumber",
          "type": "uint256"
        }
      ],
      "name": "setStartingBlockNumber",
      "outputs": [],
      "stateMutability": "nonpayable",
      "type": "function"
    },
    {
      "inputs": [
        {
          "internalType": "address",
          "name": "_teleBTC",
          "type": "address"
        }
      ],
      "name": "setTeleBTC",
      "outputs": [],
      "stateMutability": "nonpayable",
      "type": "function"
    },
    {
      "inputs": [
        {
          "internalType": "uint256",
          "name": "_thirdPartyId",
          "type": "uint256"
        },
        {
          "internalType": "address",
          "name": "_thirdPartyAddress",
          "type": "address"
        }
      ],
      "name": "setThirdPartyAddress",
      "outputs": [],
      "stateMutability": "nonpayable",
      "type": "function"
    },
    {
      "inputs": [
        {
          "internalType": "uint256",
          "name": "_thirdPartyId",
          "type": "uint256"
        },
        {
          "internalType": "uint256",
          "name": "_thirdPartyFee",
          "type": "uint256"
        }
      ],
      "name": "setThirdPartyFee",
      "outputs": [],
      "stateMutability": "nonpayable",
      "type": "function"
    },
    {
      "inputs": [
        {
          "internalType": "address",
          "name": "_treasury",
          "type": "address"
        }
      ],
      "name": "setTreasury",
      "outputs": [],
      "stateMutability": "nonpayable",
      "type": "function"
    },
    {
      "inputs": [
        {
          "internalType": "address",
          "name": "_wrappedNativeToken",
          "type": "address"
        }
      ],
      "name": "setWrappedNativeToken",
      "outputs": [],
      "stateMutability": "nonpayable",
      "type": "function"
    },
    {
      "inputs": [],
      "name": "specialTeleporter",
      "outputs": [
        {
          "internalType": "address",
          "name": "",
          "type": "address"
        }
      ],
      "stateMutability": "view",
      "type": "function"
    },
    {
      "inputs": [],
      "name": "startingBlockNumber",
      "outputs": [
        {
          "internalType": "uint256",
          "name": "",
          "type": "uint256"
        }
      ],
      "stateMutability": "view",
      "type": "function"
    },
    {
      "inputs": [],
      "name": "teleBTC",
      "outputs": [
        {
          "internalType": "address",
          "name": "",
          "type": "address"
        }
      ],
      "stateMutability": "view",
      "type": "function"
    },
    {
      "inputs": [
        {
          "internalType": "uint256",
          "name": "",
          "type": "uint256"
        }
      ],
      "name": "thirdPartyAddress",
      "outputs": [
        {
          "internalType": "address",
          "name": "",
          "type": "address"
        }
      ],
      "stateMutability": "view",
      "type": "function"
    },
    {
      "inputs": [
        {
          "internalType": "uint256",
          "name": "",
          "type": "uint256"
        }
      ],
      "name": "thirdPartyFee",
      "outputs": [
        {
          "internalType": "uint256",
          "name": "",
          "type": "uint256"
        }
      ],
      "stateMutability": "view",
      "type": "function"
    },
    {
      "inputs": [
        {
          "internalType": "address",
          "name": "newOwner",
          "type": "address"
        }
      ],
      "name": "transferOwnership",
      "outputs": [],
      "stateMutability": "nonpayable",
      "type": "function"
    },
    {
      "inputs": [],
      "name": "treasury",
      "outputs": [
        {
          "internalType": "address",
          "name": "",
          "type": "address"
        }
      ],
      "stateMutability": "view",
      "type": "function"
    },
    {
      "inputs": [
        {
          "components": [
            {
              "internalType": "bytes4",
              "name": "version",
              "type": "bytes4"
            },
            {
              "internalType": "bytes",
              "name": "vin",
              "type": "bytes"
            },
            {
              "internalType": "bytes",
              "name": "vout",
              "type": "bytes"
            },
            {
              "internalType": "bytes4",
              "name": "locktime",
              "type": "bytes4"
            },
            {
              "internalType": "uint256",
              "name": "blockNumber",
              "type": "uint256"
            },
            {
              "internalType": "bytes",
              "name": "intermediateNodes",
              "type": "bytes"
            },
            {
              "internalType": "uint256",
              "name": "index",
              "type": "uint256"
            }
          ],
          "internalType": "struct ICcExchangeRouter.TxAndProof",
          "name": "_txAndProof",
          "type": "tuple"
        },
        {
          "internalType": "bytes",
          "name": "_lockerLockingScript",
          "type": "bytes"
        },
        {
          "internalType": "address[]",
          "name": "_path",
          "type": "address[]"
        }
      ],
      "name": "wrapAndSwap",
      "outputs": [
        {
          "internalType": "bool",
          "name": "",
          "type": "bool"
        }
      ],
      "stateMutability": "payable",
      "type": "function"
    },
    {
      "inputs": [
        {
          "components": [
            {
              "internalType": "bytes4",
              "name": "version",
              "type": "bytes4"
            },
            {
              "internalType": "bytes",
              "name": "vin",
              "type": "bytes"
            },
            {
              "internalType": "bytes",
              "name": "vout",
              "type": "bytes"
            },
            {
              "internalType": "bytes4",
              "name": "locktime",
              "type": "bytes4"
            },
            {
              "internalType": "uint256",
              "name": "blockNumber",
              "type": "uint256"
            },
            {
              "internalType": "bytes",
              "name": "intermediateNodes",
              "type": "bytes"
            },
            {
              "internalType": "uint256",
              "name": "index",
              "type": "uint256"
            }
          ],
          "internalType": "struct ICcExchangeRouter.TxAndProof",
          "name": "_txAndProof",
          "type": "tuple"
        },
        {
          "internalType": "bytes",
          "name": "_lockerLockingScript",
          "type": "bytes"
        },
        {
          "internalType": "address[]",
          "name": "_path",
          "type": "address[]"
        },
        {
          "internalType": "uint256",
          "name": "_customBridgeFee",
          "type": "uint256"
        }
      ],
      "name": "wrapAndSwapWithCustomBridgeFee",
      "outputs": [
        {
          "internalType": "bool",
          "name": "",
          "type": "bool"
        }
      ],
      "stateMutability": "payable",
      "type": "function"
    },
    {
      "inputs": [],
      "name": "wrappedNativeToken",
      "outputs": [
        {
          "internalType": "address",
          "name": "",
          "type": "address"
        }
      ],
      "stateMutability": "view",
      "type": "function"
    },
    {
      "stateMutability": "payable",
      "type": "receive"
    }
  ],
  "transactionHash": "0x822181664a240dcfa070777ff0eac93df6826ecabbf3079571c9a29ce7665065",
  "args": [],
  "numDeployments": 1,
  "solcInputHash": "0d370af6c8563093199b0a9b74288a73",
  "bytecode": "0x608060405234801561001057600080fd5b50615184806100206000396000f3fe60806040526004361061023d5760003560e01c806306be8b0e1461024957806317fcb39b146102eb5780631812adb6146103185780631876dec41461033c5780631dc4b09c1461035c5780631e7107c71461037e578063292c1d921461039e578063303a785d146103be5780633bedb3d5146103de5780634e63ba95146103fe5780635221c1f01461044757806352b30d281461048757806359fd0b0c1461049a57806361be10f2146104c757806361d027b3146104e757806363908020146105075780636600203d1461051d5780636b2857ef1461053d5780636c32b2ec1461055d5780636e8adf611461057d57806370872aa5146105b3578063715018a6146105c957806375979f79146105de57806379023909146106195780637a218135146106395780637ed557481461064c5780637f0f18171461066c57806380bc47261461068c578063878269b5146106ac57806387c554f8146106cc5780638c0d9dca146106ec5780638d3d78cd1461070c5780638d5fc1d41461072c5780638da5cb5b1461074c5780638f0c5083146107615780638f9eb78b14610781578063900b0166146107a157806395ccea67146107b45780639a8a0592146107d4578063a1809b95146107ea578063a9b682711461080a578063acc2166a14610840578063acc6e09214610860578063b14d3532146108bf578063b59589d1146108df578063c805f68b146108ff578063da058ae31461091f578063f0f442601461093f578063f2fde38b1461095f578063fbb9aacf1461097f57600080fd5b3661024457005b600080fd5b34801561025557600080fd5b506102ab6102643660046145da565b60a76020526000908152604090208054600182015460028301546003840154600485015460058601546006870154600790970154959660ff90951695939492939192909188565b604080519889529615156020890152958701949094526060860192909252608085015260a084015260c083015260e0820152610100015b60405180910390f35b3480156102f757600080fd5b5060a95461030b906001600160a01b031681565b6040516102e291906149cc565b34801561032457600080fd5b5061032e60025481565b6040519081526020016102e2565b34801561034857600080fd5b5060055461030b906001600160a01b031681565b34801561036857600080fd5b5061037c6103773660046144b6565b61099f565b005b34801561038a57600080fd5b5061037c6103993660046145da565b6109b3565b3480156103aa57600080fd5b5060a85461030b906001600160a01b031681565b3480156103ca57600080fd5b5061037c6103d9366004614665565b6109c4565b3480156103ea57600080fd5b5061037c6103f93660046144b6565b610d61565b34801561040a57600080fd5b506104326104193660046145da565b60ab602052600090815260409020805460019091015482565b604080519283526020830191909152016102e2565b34801561045357600080fd5b506104776104623660046145da565b60a66020526000908152604090205460ff1681565b60405190151581526020016102e2565b61037c61049536600461460a565b610d72565b3480156104a657600080fd5b5061032e6104b53660046145da565b60ac6020526000908152604090205481565b3480156104d357600080fd5b5061037c6104e23660046144b6565b611170565b3480156104f357600080fd5b5060075461030b906001600160a01b031681565b34801561051357600080fd5b5061032e60b05481565b34801561052957600080fd5b5061037c6105383660046145da565b611181565b34801561054957600080fd5b5061037c610558366004614807565b611192565b34801561056957600080fd5b5060aa5461030b906001600160a01b031681565b34801561058957600080fd5b5061030b6105983660046145da565b6008602052600090815260409020546001600160a01b031681565b3480156105bf57600080fd5b5061032e60005481565b3480156105d557600080fd5b5061037c611200565b3480156105ea57600080fd5b506104776105f9366004614807565b60a560209081526000928352604080842090915290825290205460ff1681565b34801561062557600080fd5b5060045461030b906001600160a01b031681565b6104776106473660046146ed565b61120a565b34801561065857600080fd5b5061037c6106673660046145da565b611753565b34801561067857600080fd5b5061037c6106873660046144b6565b611764565b34801561069857600080fd5b506104776106a73660046145da565b611775565b3480156106b857600080fd5b5061037c6106c73660046144b6565b61179e565b3480156106d857600080fd5b5060af5461030b906001600160a01b031681565b3480156106f857600080fd5b5061037c610707366004614857565b6117c8565b34801561071857600080fd5b5060065461030b906001600160a01b031681565b34801561073857600080fd5b5061037c610747366004614807565b611941565b34801561075857600080fd5b5061030b611957565b34801561076d57600080fd5b5061037c61077c366004614836565b611966565b34801561078d57600080fd5b5061037c61079c366004614836565b611978565b6104776107af366004614776565b61198a565b3480156107c057600080fd5b5061037c6107cf3660046144ee565b611e6f565b3480156107e057600080fd5b5061032e60015481565b3480156107f657600080fd5b5061037c6108053660046144b6565b611f3a565b34801561081657600080fd5b5061030b6108253660046145da565b60ad602052600090815260409020546001600160a01b031681565b34801561084c57600080fd5b5060b15461030b906001600160a01b031681565b34801561086c57600080fd5b5061030b61087b36600461460a565b60ae6020908152600096875260408088208252958752858720815293865284862084529185528385208352845282842090915282529020546001600160a01b031681565b3480156108cb57600080fd5b5061037c6108da3660046144b6565b611f64565b3480156108eb57600080fd5b5060035461030b906001600160a01b031681565b34801561090b57600080fd5b5061037c61091a3660046144b6565b611f75565b34801561092b57600080fd5b5061037c61093a3660046144b6565b611f86565b34801561094b57600080fd5b5061037c61095a3660046144b6565b611f97565b34801561096b57600080fd5b5061037c61097a3660046144b6565b611fa8565b34801561098b57600080fd5b5061032e61099a3660046145da565b61201e565b6109a7612033565b6109b081612092565b50565b6109bb612033565b6109b081612124565b6109cc61218c565b60af546001600160a01b03163314806109fd57506109e8611957565b6001600160a01b0316336001600160a01b0316145b610a4e5760405162461bcd60e51b815260206004820152601e60248201527f45786368616e6765526f757465723a206e6f7420617574686f72697a6564000060448201526064015b60405180910390fd5b600085815260a7602052604090206001015460ff1615610a805760405162461bcd60e51b8152600401610a4590614bb5565b600085815260a76020526040908190206001818101805460ff191690911790556002015460065460aa54925163095ea7b360e01b815291926001600160a01b039182169263095ea7b392610ada9216908590600401614b47565b602060405180830381600087803b158015610af457600080fd5b505af1158015610b08573d6000803e3d6000fd5b505050506040513d601f19601f82011682018060405250810190610b2c9190614519565b5060055460405163626885b560e11b81526000916001600160a01b03169063c4d10b6a90610b609087908790600401614b60565b60206040518083038186803b158015610b7857600080fd5b505afa158015610b8c573d6000803e3d6000fd5b505050506040513d601f19601f82011682018060405250810190610bb091906144d2565b60aa549091506000906001600160a01b0316633fea4367848860ff8b166005811115610bec57634e487b7160e01b600052602160045260246000fd5b898960006040518763ffffffff1660e01b8152600401610c1196959493929190614eb1565b602060405180830381600087803b158015610c2b57600080fd5b505af1158015610c3f573d6000803e3d6000fd5b505050506040513d601f19601f82011682018060405250810190610c6391906145f2565b9050336001600160a01b0316887f79bab54e96d1977794ba96251faf4af21e4c1e824335ed0e33ad672cc463194b85848a8c88600160aa60009054906101000a90046001600160a01b03166001600160a01b031663930a60e88c6040518263ffffffff1660e01b8152600401610cd991906149cc565b60206040518083038186803b158015610cf157600080fd5b505afa158015610d05573d6000803e3d6000fd5b505050506040513d601f19601f82011682018060405250810190610d2991906145f2565b610d3391906150aa565b604051610d4596959493929190614f8f565b60405180910390a3505050610d5a6001606f55565b5050505050565b610d69612033565b6109b0816121ed565b610d7a61218c565b60008681526009602052604090206005015460ff1615610dac5760405162461bcd60e51b8152600401610a4590614bb5565b600086815260ae602090815260408083206001600160a01b0389811685529083528184208882168552835281842087855283528184208685528352818420858552909252909120541615610e425760405162461bcd60e51b815260206004820152601e60248201527f45786368616e6765526f757465723a20616c72656164792066696c6c656400006044820152606401610a45565b600086815260ae602090815260408083206001600160a01b0389811685529083528184209088168452825280832086845282528083208584528252808320848452909152902080546001600160a01b0319163317905560015482141561104e576001600160a01b03841660011415610fab57823414610f025760405162461bcd60e51b815260206004820152601c60248201527b115e18da185b99d9549bdd5d195c8e881ddc9bdb99c8185b5bdd5b9d60221b6044820152606401610a45565b6000856001600160a01b03168460405160006040518083038185875af1925050503d8060008114610f4f576040519150601f19603f3d011682016040523d82523d6000602084013e610f54565b606091505b5050905080610fa55760405162461bcd60e51b815260206004820152601f60248201527f45786368616e6765526f757465723a207472616e73666572206661696c6564006044820152606401610a45565b506110f9565b6040516323b872dd60e01b81526001600160a01b038516906323b872dd90610fdb90339089908890600401614a86565b602060405180830381600087803b158015610ff557600080fd5b505af1158015611009573d6000803e3d6000fd5b505050506040513d601f19601f8201168201806040525081019061102d9190614519565b6110495760405162461bcd60e51b8152600401610a4590614bf6565b6110f9565b6040516323b872dd60e01b81526001600160a01b038516906323b872dd9061107e90339030908890600401614a86565b602060405180830381600087803b15801561109857600080fd5b505af11580156110ac573d6000803e3d6000fd5b505050506040513d601f19601f820116820180604052508101906110d09190614519565b6110ec5760405162461bcd60e51b8152600401610a4590614bf6565b6110f9828585888561227f565b60408051338152602081018890526001600160a01b0387811682840152861660608201526080810185905260a0810184905260c0810183905290517fb6e47711799f0cc9b7a03c6f67a2ec7714c0f80543b870b5e4a19440cdedf8e69181900360e00190a16111686001606f55565b505050505050565b611178612033565b6109b0816123f3565b611189612033565b6109b08161245c565b61119a612033565b60008281526008602090815260409182902080546001600160a01b0319166001600160a01b0385169081179091558251858152918201527f31a8c4e62daac2a3ed5d713004d9ae867d6dcddfa35603db2a4b65d9236b1bc1910160405180910390a15050565b611208612033565b565b600061121461218c565b6004546001600160a01b0316336001600160a01b0316146112475760405162461bcd60e51b8152600401610a4590614ce9565b6000548560800151101561126d5760405162461bcd60e51b8152600401610a4590614d6b565b60608501516001600160e01b031916156112995760405162461bcd60e51b8152600401610a4590614c2c565b60055460405163aff2faa360e01b81526001600160a01b039091169063aff2faa3906112cb9087908790600401614b60565b60206040518083038186803b1580156112e357600080fd5b505afa1580156112f7573d6000803e3d6000fd5b505050506040513d601f19601f8201168201806040525081019061131b9190614519565b6113375760405162461bcd60e51b8152600401610a4590614da0565b6006546003546040516342cfb5c360e11b81526000927358a8d9F7A6e9a572B2041bc2fef0B5956387fB7A9263859f6b8692611391928b9260099260a7926001600160a01b03908116928e928e9290911690600401614dd4565b60206040518083038186803b1580156113a957600080fd5b505af41580156113bd573d6000803e3d6000fd5b505050506040513d601f19601f820116820180604052508101906113e191906145f2565b600081815260a76020526040812054919250906113fd9061201e565b90508061144c5760405162461bcd60e51b815260206004820181905260248201527f45786368616e6765526f757465723a20696e76616c696420636861696e2069646044820152606401610a45565b600082815260096020908152604080832081516101608101835281548152600182015481850152600282015481840152600382015460ff808216151560608401526101009091046001600160a01b03166080830152600483015460a0830152600583015416151560c08201526006820180548451818702810187019095528085529194929360e086019390929083018282801561151257602002820191906000526020600020905b81546001600160a01b031681526001909101906020018083116114f4575b505050918352505060078201546020808301919091526008808401546040808501919091526009909401546060909301929092528351600090815291905220549091506001600160a01b03168061157b5760405162461bcd60e51b8152600401610a4590614cb2565b6115bc88888080601f016020809104026020016040519081016040528093929190818152602001838380828437600092019190915250889250612483915050565b816101200151600114156116e457600084815260ae6020908152604080832060808601516001600160a01b03168452909152812060e08401518051839190611606906001906150aa565b8151811061162457634e487b7160e01b600052603260045260246000fd5b6020908102919091018101516001600160a01b03908116835282820193909352604091820160009081208784015182528252828120888252825282812089825260a78352838220600301548252909152205416905080156116d0576116c281868b8b8080601f0160208091040260200160405190810160405280939291908181526020018383808284376000920191909152508a9250612652915050565b600195505050505050611741565b600085815260096020526040812060080155505b6117388189898080601f01602080910402602001604051908101604052809392919081815260200183838082843760009201829052508a815260a760205260409020600301548a93508c9250905088612a43565b60019450505050505b61174b6001606f55565b949350505050565b61175b612033565b6109b081612d57565b61176c612033565b6109b081612dba565b60008181526009602052604081206005015460ff16611795576000611798565b60015b92915050565b6117a6612033565b60af80546001600160a01b0319166001600160a01b0392909216919091179055565b600a54610100900460ff16158080156117e85750600a54600160ff909116105b806118025750303b1580156118025750600a5460ff166001145b6118655760405162461bcd60e51b815260206004820152602e60248201527f496e697469616c697a61626c653a20636f6e747261637420697320616c72656160448201526d191e481a5b9a5d1a585b1a5e995960921b6064820152608401610a45565b600a805460ff19166001179055801561188857600a805461ff0019166101001790555b611890612e4c565b611898612e7b565b60018890556118a68b612124565b6118af8a612d57565b6118b88961245c565b6118c186612eaa565b6118ca87612f3c565b6118d385612dba565b6118dc84612fce565b6118e5836123f3565b6118ee82612092565b801561193457600a805461ff0019169055604051600181527f7f26b83ff96e1f2b6a682f133852f6798a09c465da95921460cefb38474024989060200160405180910390a15b5050505050505050505050565b611949612033565b6119538282613060565b5050565b603d546001600160a01b031690565b61196e612033565b61195382826130fc565b611980612033565b6119538282613164565b600061199461218c565b6004546001600160a01b0316336001600160a01b0316146119c75760405162461bcd60e51b8152600401610a4590614ce9565b600054866080015110156119ed5760405162461bcd60e51b8152600401610a4590614d6b565b60608601516001600160e01b03191615611a195760405162461bcd60e51b8152600401610a4590614c2c565b60055460405163aff2faa360e01b81526001600160a01b039091169063aff2faa390611a4b9088908890600401614b60565b60206040518083038186803b158015611a6357600080fd5b505afa158015611a77573d6000803e3d6000fd5b505050506040513d601f19601f82011682018060405250810190611a9b9190614519565b611ab75760405162461bcd60e51b8152600401610a4590614da0565b6006546003546040516342cfb5c360e11b81526000927358a8d9F7A6e9a572B2041bc2fef0B5956387fB7A9263859f6b8692611b11928c9260099260a7926001600160a01b03908116928f928f9290911690600401614dd4565b60206040518083038186803b158015611b2957600080fd5b505af4158015611b3d573d6000803e3d6000fd5b505050506040513d601f19601f82011682018060405250810190611b6191906145f2565b600081815260a7602052604081205491925090611b7d9061201e565b600083815260096020908152604080832081516101608101835281548152600182015481850152600282015481840152600382015460ff808216151560608401526101009091046001600160a01b03166080830152600483015460a0830152600583015416151560c082015260068201805484518187028101870190955280855296975094959094919360e0860193929190830182828015611c4857602002820191906000526020600020905b81546001600160a01b03168152600190910190602001808311611c2a575b505050918352505060078201546020808301919091526008808401546040808501919091526009909401546060909301929092528351600090815291905220549091506001600160a01b031680611cb15760405162461bcd60e51b8152600401610a4590614cb2565b611cf289898080601f016020809104026020016040519081016040528093929190818152602001838380828437600092019190915250889250612483915050565b81610120015160011415611e0d57600084815260ae6020908152604080832060808601516001600160a01b03168452909152812060e08401518051839190611d3c906001906150aa565b81518110611d5a57634e487b7160e01b600052603260045260246000fd5b6020908102919091018101516001600160a01b0390811683528282019390935260409182016000908120878401518252825282812088825282528281208b825290915220541690508015611df957611deb81868c8c8080601f0160208091040260200160405190810160405280939291908181526020018383808284376000920191909152508a9250612652915050565b600195505050505050611e5c565b600085815260096020526040812060080155505b611e53818a8a8080601f0160208091040260200160405190810160405280939291908181526020018383808284376000920191909152508992508c91508b905088612a43565b60019450505050505b611e666001606f55565b95945050505050565b611e77612033565b611e7f61218c565b6001600160a01b03821660011415611ea757611ea2611e9c611957565b826131c5565b611f30565b816001600160a01b031663a9059cbb611ebe611957565b836040518363ffffffff1660e01b8152600401611edc929190614b47565b602060405180830381600087803b158015611ef657600080fd5b505af1158015611f0a573d6000803e3d6000fd5b505050506040513d601f19601f82011682018060405250810190611f2e9190614519565b505b6119536001606f55565b611f42612033565b60b180546001600160a01b0319166001600160a01b0392909216919091179055565b611f6c612033565b6109b081612f3c565b611f7d612033565b6109b081612eaa565b611f8e612033565b6109b0816132e0565b611f9f612033565b6109b081612fce565b611fb0612033565b6001600160a01b0381166120155760405162461bcd60e51b815260206004820152602660248201527f4f776e61626c653a206e6577206f776e657220697320746865207a65726f206160448201526564647265737360d01b6064820152608401610a45565b6109b081613349565b600090815260ab602052604090206001015490565b3361203c611957565b6001600160a01b0316146112085760405162461bcd60e51b815260206004820181905260248201527f4f776e61626c653a2063616c6c6572206973206e6f7420746865206f776e65726044820152606401610a45565b806001600160a01b0381166120ba5760405163d92e233d60e01b815260040160405180910390fd5b60aa546040517f5b663d57fa8cf393f8c8019f514b25c1b3223c9324a2ce3efe28ce5aef0e62fe916120f9916001600160a01b039091169085906149e0565b60405180910390a15060aa80546001600160a01b0319166001600160a01b0392909216919091179055565b60005481116121875760405162461bcd60e51b815260206004820152602960248201527f434345786368616e6765526f757465723a206c6f77207374617274696e67426c60448201526837b1b5a73ab6b132b960b91b6064820152608401610a45565b600055565b6002606f5414156121df5760405162461bcd60e51b815260206004820152601f60248201527f5265656e7472616e637947756172643a207265656e7472616e742063616c6c006044820152606401610a45565b6002606f55565b6001606f55565b806001600160a01b0381166122155760405163d92e233d60e01b815260040160405180910390fd5b6004546040517f8385e8ba7df6e532c24a84c012f3c713627c7e317263aafb3c738427da86325891612254916001600160a01b039091169085906149e0565b60405180910390a150600480546001600160a01b0319166001600160a01b0392909216919091179055565b60a85460405163095ea7b360e01b81526001600160a01b038681169263095ea7b3926122b392909116908790600401614b47565b602060405180830381600087803b1580156122cd57600080fd5b505af11580156122e1573d6000803e3d6000fd5b505050506040513d601f19601f820116820180604052508101906123059190614519565b5060af546000906001600160a01b031683868387670de0b6b3a764000061232c88826150aa565b612336908b61508b565b612340919061506b565b6123498c61201e565b60004261235881613840615053565b60408051602081018252600080825291516123819c9b9a999897969594939291906024016149fa565b60408051601f19818403018152918152602080830180516001600160e01b0316633dc9c91960e11b17905290519192506000916123c0918491016149a3565b60408051601f1981840301815291905260a8549091506123e9906001600160a01b03168261339b565b5050505050505050565b60a8546040517f06e5f2ca1234f717a2031f662608c02182d4f8bdc3dab013ec4c04eb9755313291612432916001600160a01b039091169084906149e0565b60405180910390a160a880546001600160a01b0319166001600160a01b0392909216919091179055565b80612710101561247e5760405162461bcd60e51b8152600401610a4590614c6d565b60b055565b600554600082815260096020526040908190206001015490516307f3f86760e21b81526001600160a01b0390921691631fcfe19c916124c89186913091600401614b87565b602060405180830381600087803b1580156124e257600080fd5b505af11580156124f6573d6000803e3d6000fd5b505050506040513d601f19601f8201168201806040525081019061251a91906145f2565b506002546000828152600960205260409020600101546127109161253d9161508b565b612547919061506b565b600082815260a76020908152604080832060058101949094556009808352818420600480820154960154855260ac8452918420549386905290915260010154612710916125939161508b565b61259d919061506b565b600083815260a7602090815260408083206006019390935560b054600990915291902060010154612710916125d19161508b565b6125db919061506b565b600083815260a7602052604090206007810182905560068101546005909101549091839161260891615053565b6126129190615053565b61261c9190615053565b60008381526009602052604090206001015461263891906150aa565b600092835260a76020526040909220600201919091555050565b61265c83836133e4565b600083815260096020908152604080832081516101608101835281548152600182015481850152600282015481840152600382015460ff808216151560608401526101009091046001600160a01b03166080830152600483015460a0830152600583015416151560c08201526006820180548451818702810187019095528085529194929360e086019390929083018282801561272257602002820191906000526020600020905b81546001600160a01b03168152600190910190602001808311612704575b50505091835250506007828101546020808401919091526008840154604080850191909152600990940154606093840152600089815260a7808352858220865161010081018852815481526001808301805460ff81161515848901526002850154848c0190815260038601549a85019a909a526004808601546080860152600586015460a086015260068087015460c0870152959099015460e0850152958f90529390955260ff19909316909317905590549251935163a9059cbb60e01b8152949550936001600160a01b039092169263a9059cbb92612805928b929101614b47565b602060405180830381600087803b15801561281f57600080fd5b505af1158015612833573d6000803e3d6000fd5b505050506040513d601f19601f820116820180604052508101906128579190614519565b5060006040518060a001604052808460a0015181526020018360e0015181526020018360a0015181526020018360c0015181526020018360600151815250905061289e3390565b608084015160055460405163626885b560e11b81526001600160a01b039384169360019381169260008051602061512f8339815191529291169063c4d10b6a906128ec908c90600401614b74565b60206040518083038186803b15801561290457600080fd5b505afa158015612918573d6000803e3d6000fd5b505050506040513d601f19601f8201168201806040525081019061293c91906144d2565b604080518082019091526006546001600160a01b0316815260e0890151805160208301919061296d906001906150aa565b8151811061298b57634e487b7160e01b600052603260045260246000fd5b60200260200101516001600160a01b03166001600160a01b03168152506040518060400160405280896040015181526020018a604001518152508c8a600001518a608001518a8e6040516129e6989796959493929190614aaa565b60405180910390a460408083015181516001600160a01b038a16815260208101899052918201527fa691ee9f18c723075ade0e555d96de55c74e3e7b7cddc63a0ecbbff7ee6352e79060600160405180910390a150505050505050565b6040805160e08082018352838252602080830189905260008881526009825284812085516101608101875281548152600182015481850152600282015481880152600382015460ff808216151560608401526101009091046001600160a01b03166080830152600483015460a0830152600583015416151560c08201526006820180548851818702810187018a5281815294988998612be0989097918801969495949086019390929091830182828015612b2657602002820191906000526020600020905b81546001600160a01b03168152600190910190602001808311612b08575b5050509183525050600782810154602080840191909152600884015460408085019190915260099094015460609384015293855260008d815260a7855283902083516101008101855281548152600182015460ff161515818701526002820154818601526003820154818501526004820154608080830191909152600583015460a0830152600683015460c0830152919092015460e0830152938501529083018b905282018990526001600160a01b038c169101526136c2565b915091508115612ccf57600086815260a7602052604090206001908101805460ff19169091179055612c1286886133e4565b6001548314612cca57600086815260a760205260409020548551612cca91908790612c3f906001906150aa565b81518110612c5d57634e487b7160e01b600052603260045260246000fd5b60200260200101518360018551612c7491906150aa565b81518110612c9257634e487b7160e01b600052603260045260246000fd5b6020026020010151600960008b815260200190815260200160002060030160019054906101000a90046001600160a01b03168861227f565b6123e9565b600086815260a76020818152604080842060078101546009845291852060040154939092526005820154600690920154909291612d0b91615053565b612d159190615053565b612d1f9190615053565b90508060a760008981526020019081526020016000206002016000828254612d479190615053565b9091555050505050505050505050565b806127101015612d795760405162461bcd60e51b8152600401610a4590614c6d565b60025460408051918252602082018390527f7d205f60891f60851c61cd244ba387d72b6589e7c0ac41b9d909ab0ce2c2a53b910160405180910390a1600255565b806001600160a01b038116612de25760405163d92e233d60e01b815260040160405180910390fd5b6006546040517f36a4c08a38b736dcecb6c328dba61238529620e83ccb23db2cc43cd34ec2609691612e21916001600160a01b039091169085906149e0565b60405180910390a150600680546001600160a01b0319166001600160a01b0392909216919091179055565b600a54610100900460ff16612e735760405162461bcd60e51b8152600401610a4590614d20565b611208613f4a565b600a54610100900460ff16612ea25760405162461bcd60e51b8152600401610a4590614d20565b611208613f7a565b806001600160a01b038116612ed25760405163d92e233d60e01b815260040160405180910390fd5b6003546040517f4c28a3f61a715259c4dc930c23e7423b8fa52e13232c061a6e488729c66184f491612f11916001600160a01b039091169085906149e0565b60405180910390a150600380546001600160a01b0319166001600160a01b0392909216919091179055565b806001600160a01b038116612f645760405163d92e233d60e01b815260040160405180910390fd5b6005546040517ffa021c2ec0f46429a53e7f88b88065e40001f50c9d38b2e8b713beaf9828d4c391612fa3916001600160a01b039091169085906149e0565b60405180910390a150600580546001600160a01b0319166001600160a01b0392909216919091179055565b806001600160a01b038116612ff65760405163d92e233d60e01b815260040160405180910390fd5b6007546040517f567657fa3f286518b318f4a29870674f433f622fdfc819691acb13105b22822591613035916001600160a01b039091169085906149e0565b60405180910390a150600780546001600160a01b0319166001600160a01b0392909216919091179055565b600082815260ad6020526040908190205490517f1e73962bcff5b98a9ac70c9b0f71fbb31dc0f5a09348c6d3ceab164169a9e729916130c69185916001600160a01b03169085909283526001600160a01b03918216602084015216604082015260600190565b60405180910390a1600091825260ad602052604090912080546001600160a01b0319166001600160a01b03909216919091179055565b60408051838152602081018390527f102cb592c601969e68b19c6d96d1fc5f09b9b7214423c922de7dd67fe04cf801910160405180910390a16040805180820182526001805482526020808301958652600094855260ab905291909220915182559151910155565b600082815260ac6020908152604091829020548251858152918201529081018290527f188adabf806a6b6d814acc1dbd9f09e5a251c8c065d6285749a5824e4579b6459060600160405180910390a1600091825260ac602052604090912055565b804710156132155760405162461bcd60e51b815260206004820152601d60248201527f416464726573733a20696e73756666696369656e742062616c616e63650000006044820152606401610a45565b6000826001600160a01b03168260405160006040518083038185875af1925050503d8060008114613262576040519150601f19603f3d011682016040523d82523d6000602084013e613267565b606091505b50509050806132db5760405162461bcd60e51b815260206004820152603a60248201527f416464726573733a20756e61626c6520746f2073656e642076616c75652c20726044820152791958da5c1a595b9d081b585e481a185d99481c995d995c9d195960321b6064820152608401610a45565b505050565b60a9546040517f4da8064030e901e42f6de0ab04f4c322d7936d0120503addfe8a51f1270906899161331f916001600160a01b039091169084906149e0565b60405180910390a160a980546001600160a01b0319166001600160a01b0392909216919091179055565b603d80546001600160a01b038381166001600160a01b0319831681179093556040519116919082907f8be0079c531659141344cd1fd0a4f28419497f9722a3daafe3b4186f6b6457e090600090a35050565b60606133dd83836040518060400160405280601e81526020017f416464726573733a206c6f772d6c6576656c2063616c6c206661696c65640000815250613fa1565b9392505050565b600082815260096020526040902060040154156134925760065460008381526009602052604090819020600490810154915163a9059cbb60e01b81526001600160a01b039093169263a9059cbb9261343e92339201614b47565b602060405180830381600087803b15801561345857600080fd5b505af115801561346c573d6000803e3d6000fd5b505050506040513d601f19601f820116820180604052508101906134909190614519565b505b600082815260a760205260409020600501541561354457600654600754600084815260a760205260409081902060050154905163a9059cbb60e01b81526001600160a01b039384169363a9059cbb936134f093911691600401614b47565b602060405180830381600087803b15801561350a57600080fd5b505af115801561351e573d6000803e3d6000fd5b505050506040513d601f19601f820116820180604052508101906135429190614519565b505b600082815260a760205260409020600601541561360b5760068054600084815260a760208181526040808420600480820154865260ad845282862054958a905293909252940154935163a9059cbb60e01b81526001600160a01b039384169463a9059cbb946135b7941692909101614b47565b602060405180830381600087803b1580156135d157600080fd5b505af11580156135e5573d6000803e3d6000fd5b505050506040513d601f19601f820116820180604052508101906136099190614519565b505b600082815260a76020526040902060070154156119535760055460405163626885b560e11b8152611953916001600160a01b03169063c4d10b6a90613654908590600401614b74565b60206040518083038186803b15801561366c57600080fd5b505afa158015613680573d6000803e3d6000fd5b505050506040513d601f19601f820116820180604052508101906136a491906144d2565b600084815260a7602052604090206007810154600490910154613fb0565b60065460c0820151606083810151604090810151905163095ea7b360e01b815260009492936001600160a01b039093169263095ea7b39261370592600401614b47565b602060405180830381600087803b15801561371f57600080fd5b505af1158015613733573d6000803e3d6000fd5b505050506040513d601f19601f820116820180604052508101906137579190614519565b5060065460a084015180516001600160a01b039092169160009061378b57634e487b7160e01b600052603260045260246000fd5b60200260200101516001600160a01b03161480156138325750604083015160e0015180516137bb906001906150aa565b815181106137d957634e487b7160e01b600052603260045260246000fd5b60200260200101516001600160a01b03168360a0015160018560a001515161380191906150aa565b8151811061381f57634e487b7160e01b600052603260045260246000fd5b60200260200101516001600160a01b0316145b61387e5760405162461bcd60e51b815260206004820152601e60248201527f436345786368616e6765526f757465723a20696e76616c6964207061746800006044820152606401610a45565b8260c001516001600160a01b031663b0bbcd88846060015160400151856060015160600151670de0b6b3a76400006138b691906150aa565b6138c890670de0b6b3a764000061506b565b8660400151604001516138db919061508b565b8660a00151304260016040518763ffffffff1660e01b815260040161390596959493929190614f13565b600060405180830381600087803b15801561391f57600080fd5b505af1158015613933573d6000803e3d6000fd5b505050506040513d6000823e601f3d908101601f1916820160405261395b9190810190614533565b90925090508115613d8a5760015483511415613b035760a0830151805160009190613988906001906150aa565b815181106139a657634e487b7160e01b600052603260045260246000fd5b60200260200101519050600082600184516139c191906150aa565b815181106139df57634e487b7160e01b600052603260045260246000fd5b602090810291909101015160a9549091506001600160a01b03838116911614613a905760408086015160800151905163a9059cbb60e01b81526001600160a01b0384169163a9059cbb91613a3891908590600401614b47565b602060405180830381600087803b158015613a5257600080fd5b505af1158015613a66573d6000803e3d6000fd5b505050506040513d601f19601f82011682018060405250810190613a8a9190614519565b50613b00565b60a954604051632e1a7d4d60e01b8152600481018390526001600160a01b0390911690632e1a7d4d90602401600060405180830381600087803b158015613ad657600080fd5b505af1158015613aea573d6000803e3d6000fd5b50505050613b00856040015160800151826131c5565b50505b6000670de0b6b3a76400008460600151606001518360018551613b2691906150aa565b81518110613b4457634e487b7160e01b600052603260045260246000fd5b6020026020010151613b56919061508b565b613b60919061506b565b905060006040518060a00160405280866040015160a001518152602001866060015160e001518152602001866060015160a001518152602001866060015160c001518152602001838152509050613bb43390565b60408087015161012081015160809091015160055460208a0151935163626885b560e11b81526001600160a01b039586169593949284169360008051602061512f8339815191529392169163c4d10b6a91613c129190600401614b74565b60206040518083038186803b158015613c2a57600080fd5b505afa158015613c3e573d6000803e3d6000fd5b505050506040513d601f19601f82011682018060405250810190613c6291906144d2565b604080518082019091526006546001600160a01b0316815260a08b01518051602083019190613c93906001906150aa565b81518110613cb157634e487b7160e01b600052603260045260246000fd5b60200260200101516001600160a01b03166001600160a01b031681525060405180604001604052808a600081518110613cfa57634e487b7160e01b600052603260045260246000fd5b60200260200101518152602001898b60018d51613d1791906150aa565b81518110613d3557634e487b7160e01b600052603260045260246000fd5b6020026020010151613d4791906150aa565b8152508b608001518c60400151600001518d60600151608001518a8f60000151604051613d7b989796959493929190614aaa565b60405180910390a45050915091565b60006040518060a001604052806000815260200160008152602001600081526020016000815260200160008152509050613dc13390565b6040808601516101208101516080909101516005546020890151935163626885b560e11b81526001600160a01b03958616959394928416937f4bdbd9bfa84241c4a39e7be48e0a8678cfbecfbcfae5d87f01b13de30b8c9e9a9392169163c4d10b6a91613e319190600401614b74565b60206040518083038186803b158015613e4957600080fd5b505afa158015613e5d573d6000803e3d6000fd5b505050506040513d601f19601f82011682018060405250810190613e8191906144d2565b604080518082019091526006546001600160a01b0316815260a08a01518051602083019190613eb2906001906150aa565b81518110613ed057634e487b7160e01b600052603260045260246000fd5b60200260200101516001600160a01b03166001600160a01b031681525060405180604001604052808b6060015160400151815260200160008152508a608001518b60400151600001518c60600151608001518a8e60000151604051613f3c989796959493929190614aaa565b60405180910390a450915091565b600a54610100900460ff16613f715760405162461bcd60e51b8152600401610a4590614d20565b61120833613349565b600a54610100900460ff166121e65760405162461bcd60e51b8152600401610a4590614d20565b606061174b8484600085614138565b81156132db5760b1546001600160a01b03161580613fcd57508015155b1561405c5760065460405163a9059cbb60e01b81526001600160a01b039091169063a9059cbb906140049086908690600401614b47565b602060405180830381600087803b15801561401e57600080fd5b505af1158015614032573d6000803e3d6000fd5b505050506040513d601f19601f820116820180604052508101906140569190614519565b50505050565b60065460b15460405163095ea7b360e01b81526001600160a01b039283169263095ea7b392614092929116908690600401614b47565b602060405180830381600087803b1580156140ac57600080fd5b505af11580156140c0573d6000803e3d6000fd5b505050506040513d601f19601f820116820180604052508101906140e49190614519565b5060b154604051614056916001600160a01b0316906141099086908690602401614b47565b60408051601f198184030181529190526020810180516001600160e01b0316637db4e28f60e01b17905261339b565b6060824710156141995760405162461bcd60e51b815260206004820152602660248201527f416464726573733a20696e73756666696369656e742062616c616e636520666f6044820152651c8818d85b1b60d21b6064820152608401610a45565b843b6141e75760405162461bcd60e51b815260206004820152601d60248201527f416464726573733a2063616c6c20746f206e6f6e2d636f6e74726163740000006044820152606401610a45565b600080866001600160a01b031685876040516142039190614987565b60006040518083038185875af1925050503d8060008114614240576040519150601f19603f3d011682016040523d82523d6000602084013e614245565b606091505b5091509150614255828286614260565b979650505050505050565b6060831561426f5750816133dd565b82511561427f5782518084602001fd5b8160405162461bcd60e51b8152600401610a459190614b74565b600082601f8301126142a9578081fd5b813560206142be6142b983615030565b615000565b80838252828201915082860187848660051b89010111156142dd578586fd5b855b858110156143045781356142f281615119565b845292840192908401906001016142df565b5090979650505050505050565b8051801515811461432157600080fd5b919050565b80356001600160e01b03198116811461432157600080fd5b60008083601f84011261434f578182fd5b5081356001600160401b03811115614365578182fd5b60208301915083602082850101111561437d57600080fd5b9250929050565b600082601f830112614394578081fd5b81356001600160401b038111156143ad576143ad615103565b6143c0601f8201601f1916602001615000565b8181528460208386010111156143d4578283fd5b816020850160208301379081016020019190915292915050565b600060e082840312156143ff578081fd5b614407614fd8565b905061441282614326565b815260208201356001600160401b038082111561442e57600080fd5b61443a85838601614384565b6020840152604084013591508082111561445357600080fd5b61445f85838601614384565b604084015261447060608501614326565b60608401526080840135608084015260a084013591508082111561449357600080fd5b506144a084828501614384565b60a08301525060c082013560c082015292915050565b6000602082840312156144c7578081fd5b81356133dd81615119565b6000602082840312156144e3578081fd5b81516133dd81615119565b60008060408385031215614500578081fd5b823561450b81615119565b946020939093013593505050565b60006020828403121561452a578081fd5b6133dd82614311565b60008060408385031215614545578182fd5b61454e83614311565b602084810151919350906001600160401b0381111561456b578283fd5b8401601f8101861361457b578283fd5b80516145896142b982615030565b80828252848201915084840189868560051b87010111156145a8578687fd5b8694505b838510156145ca5780518352600194909401939185019185016145ac565b5080955050505050509250929050565b6000602082840312156145eb578081fd5b5035919050565b600060208284031215614603578081fd5b5051919050565b60008060008060008060c08789031215614622578182fd5b86359550602087013561463481615119565b9450604087013561464481615119565b959894975094956060810135955060808101359460a0909101359350915050565b60008060008060006080868803121561467c578283fd5b85359450602086013560ff81168114614693578384fd5b935060408601356001600160401b03808211156146ae578485fd5b6146ba89838a01614384565b945060608801359150808211156146cf578283fd5b506146dc8882890161433e565b969995985093965092949392505050565b60008060008060608587031215614702578182fd5b84356001600160401b0380821115614718578384fd5b614724888389016143ee565b95506020870135915080821115614739578384fd5b6147458883890161433e565b9095509350604087013591508082111561475d578283fd5b5061476a87828801614299565b91505092959194509250565b60008060008060006080868803121561478d578283fd5b85356001600160401b03808211156147a3578485fd5b6147af89838a016143ee565b965060208801359150808211156147c4578485fd5b6147d089838a0161433e565b909650945060408801359150808211156147e8578283fd5b506147f588828901614299565b95989497509295606001359392505050565b60008060408385031215614819578182fd5b82359150602083013561482b81615119565b809150509250929050565b60008060408385031215614848578182fd5b50508035926020909101359150565b6000806000806000806000806000806101408b8d031215614876578788fd5b8a35995060208b0135985060408b0135975060608b0135965060808b013561489d81615119565b955060a08b01356148ad81615119565b945060c08b01356148bd81615119565b935060e08b01356148cd81615119565b92506101008b01356148de81615119565b91506101208b01356148ef81615119565b809150509295989b9194979a5092959850565b6001600160a01b03169052565b8060005b6005811015614056578151845260209384019390910190600101614913565b81835281816020850137506000828201602090810191909152601f909101601f19169091010190565b600081518084526149738160208601602086016150c1565b601f01601f19169290920160200192915050565b600082516149998184602087016150c1565b9190910192915050565b600082516149b58184602087016150c1565b641dc0de008360d81b920191825250600501919050565b6001600160a01b0391909116815260200190565b6001600160a01b0392831681529116602082015260400190565b6001600160a01b038d811682528c811660208301528b811660408301528a81166060830152608082018a905260a0820189905260c08201889052861660e082015263ffffffff858116610100830152841661012082015260ff83166101408201526000610180610160830152614a7461018083018461495b565b9e9d5050505050505050505050505050565b6001600160a01b039384168152919092166020820152604081019190915260600190565b6001600160a01b0389811682526101c082019060208084018b60005b6002811015614ae5578151851683529183019190830190600101614ac6565b5050506060840191508960005b6002811015614b0f57815184529282019290820190600101614af2565b505050508660a08301528560c08301528460e0830152614b3361010083018561490f565b826101a08301529998505050505050505050565b6001600160a01b03929092168252602082015260400190565b60208152600061174b602083018486614932565b6020815260006133dd602083018461495b565b606081526000614b9a606083018661495b565b6001600160a01b039490941660208301525060400152919050565b60208082526021908201527f45786368616e6765526f757465723a20616c72656164792070726f63657373656040820152601960fa1b606082015260800190565b6020808252601c908201527b45786368616e6765526f757465723a206e6f20616c6c6f77616e636560201b604082015260600190565b60208082526021908201527f45786368616e6765526f757465723a206e6f6e2d7a65726f206c6f636b74696d6040820152606560f81b606082015260800190565b60208082526025908201527f434345786368616e6765526f757465723a20666565206973206f7574206f662060408201526472616e676560d81b606082015260800190565b6020808252601d908201527f45786368616e6765526f757465723a20696e76616c6964206170704964000000604082015260600190565b6020808252601e908201527f45786368616e6765526f757465723a20696e76616c69642073656e6465720000604082015260600190565b6020808252602b908201527f496e697469616c697a61626c653a20636f6e7472616374206973206e6f74206960408201526a6e697469616c697a696e6760a81b606082015260800190565b6020808252601b908201527a115e18da185b99d9549bdd5d195c8e881bdb19081c995c5d595cdd602a1b604082015260600190565b6020808252601a908201527922bc31b430b733b2a937baba32b91d103737ba103637b1b5b2b960311b604082015260600190565b60c08152600063ffffffff60e01b808a511660c084015260208a015160e080850152614e046101a085018261495b565b905060408b015160bf198086840301610100870152614e23838361495b565b92508360608e01511661012087015260808d015161014087015260a08d0151935080868403016101608701525050614e5b818361495b565b91505060c08a0151610180840152886020840152876040840152614e826060840188614902565b8281036080840152614e95818688614932565b915050614ea560a0830184614902565b98975050505050505050565b86815260a060208201526000614eca60a083018861495b565b60068710614ee657634e487b7160e01b82526021600452602482fd5b8660408401528281036060840152614eff818688614932565b915050826080830152979650505050505050565b600060c082018883526020888185015260c0604085015281885180845260e086019150828a019350845b81811015614f625784516001600160a01b031683529383019391830191600101614f3d565b50506001600160a01b039790971660608501525050506080810192909252151560a0909101529392505050565b86815285602082015260c060408201526000614fae60c083018761495b565b60ff959095166060830152506001600160a01b0392909216608083015260a0909101529392505050565b60405160e081016001600160401b0381118282101715614ffa57614ffa615103565b60405290565b604051601f8201601f191681016001600160401b038111828210171561502857615028615103565b604052919050565b60006001600160401b0382111561504957615049615103565b5060051b60200190565b60008219821115615066576150666150ed565b500190565b60008261508657634e487b7160e01b81526012600452602481fd5b500490565b60008160001904831182151516156150a5576150a56150ed565b500290565b6000828210156150bc576150bc6150ed565b500390565b60005b838110156150dc5781810151838201526020016150c4565b838111156140565750506000910152565b634e487b7160e01b600052601160045260246000fd5b634e487b7160e01b600052604160045260246000fd5b6001600160a01b03811681146109b057600080fdfe83f3c3e82621afa914bb49ee3bc3bcadb1d41b3d6f836aa437172cbb3d4dbb6ea2646970667358221220735b2a5b94c1451a9231d7605023d94e8473328e1541e668c757cdf19bb7602b64736f6c63430008040033",
  "deployedBytecode": "0x60806040526004361061023d5760003560e01c806306be8b0e1461024957806317fcb39b146102eb5780631812adb6146103185780631876dec41461033c5780631dc4b09c1461035c5780631e7107c71461037e578063292c1d921461039e578063303a785d146103be5780633bedb3d5146103de5780634e63ba95146103fe5780635221c1f01461044757806352b30d281461048757806359fd0b0c1461049a57806361be10f2146104c757806361d027b3146104e757806363908020146105075780636600203d1461051d5780636b2857ef1461053d5780636c32b2ec1461055d5780636e8adf611461057d57806370872aa5146105b3578063715018a6146105c957806375979f79146105de57806379023909146106195780637a218135146106395780637ed557481461064c5780637f0f18171461066c57806380bc47261461068c578063878269b5146106ac57806387c554f8146106cc5780638c0d9dca146106ec5780638d3d78cd1461070c5780638d5fc1d41461072c5780638da5cb5b1461074c5780638f0c5083146107615780638f9eb78b14610781578063900b0166146107a157806395ccea67146107b45780639a8a0592146107d4578063a1809b95146107ea578063a9b682711461080a578063acc2166a14610840578063acc6e09214610860578063b14d3532146108bf578063b59589d1146108df578063c805f68b146108ff578063da058ae31461091f578063f0f442601461093f578063f2fde38b1461095f578063fbb9aacf1461097f57600080fd5b3661024457005b600080fd5b34801561025557600080fd5b506102ab6102643660046145da565b60a76020526000908152604090208054600182015460028301546003840154600485015460058601546006870154600790970154959660ff90951695939492939192909188565b604080519889529615156020890152958701949094526060860192909252608085015260a084015260c083015260e0820152610100015b60405180910390f35b3480156102f757600080fd5b5060a95461030b906001600160a01b031681565b6040516102e291906149cc565b34801561032457600080fd5b5061032e60025481565b6040519081526020016102e2565b34801561034857600080fd5b5060055461030b906001600160a01b031681565b34801561036857600080fd5b5061037c6103773660046144b6565b61099f565b005b34801561038a57600080fd5b5061037c6103993660046145da565b6109b3565b3480156103aa57600080fd5b5060a85461030b906001600160a01b031681565b3480156103ca57600080fd5b5061037c6103d9366004614665565b6109c4565b3480156103ea57600080fd5b5061037c6103f93660046144b6565b610d61565b34801561040a57600080fd5b506104326104193660046145da565b60ab602052600090815260409020805460019091015482565b604080519283526020830191909152016102e2565b34801561045357600080fd5b506104776104623660046145da565b60a66020526000908152604090205460ff1681565b60405190151581526020016102e2565b61037c61049536600461460a565b610d72565b3480156104a657600080fd5b5061032e6104b53660046145da565b60ac6020526000908152604090205481565b3480156104d357600080fd5b5061037c6104e23660046144b6565b611170565b3480156104f357600080fd5b5060075461030b906001600160a01b031681565b34801561051357600080fd5b5061032e60b05481565b34801561052957600080fd5b5061037c6105383660046145da565b611181565b34801561054957600080fd5b5061037c610558366004614807565b611192565b34801561056957600080fd5b5060aa5461030b906001600160a01b031681565b34801561058957600080fd5b5061030b6105983660046145da565b6008602052600090815260409020546001600160a01b031681565b3480156105bf57600080fd5b5061032e60005481565b3480156105d557600080fd5b5061037c611200565b3480156105ea57600080fd5b506104776105f9366004614807565b60a560209081526000928352604080842090915290825290205460ff1681565b34801561062557600080fd5b5060045461030b906001600160a01b031681565b6104776106473660046146ed565b61120a565b34801561065857600080fd5b5061037c6106673660046145da565b611753565b34801561067857600080fd5b5061037c6106873660046144b6565b611764565b34801561069857600080fd5b506104776106a73660046145da565b611775565b3480156106b857600080fd5b5061037c6106c73660046144b6565b61179e565b3480156106d857600080fd5b5060af5461030b906001600160a01b031681565b3480156106f857600080fd5b5061037c610707366004614857565b6117c8565b34801561071857600080fd5b5060065461030b906001600160a01b031681565b34801561073857600080fd5b5061037c610747366004614807565b611941565b34801561075857600080fd5b5061030b611957565b34801561076d57600080fd5b5061037c61077c366004614836565b611966565b34801561078d57600080fd5b5061037c61079c366004614836565b611978565b6104776107af366004614776565b61198a565b3480156107c057600080fd5b5061037c6107cf3660046144ee565b611e6f565b3480156107e057600080fd5b5061032e60015481565b3480156107f657600080fd5b5061037c6108053660046144b6565b611f3a565b34801561081657600080fd5b5061030b6108253660046145da565b60ad602052600090815260409020546001600160a01b031681565b34801561084c57600080fd5b5060b15461030b906001600160a01b031681565b34801561086c57600080fd5b5061030b61087b36600461460a565b60ae6020908152600096875260408088208252958752858720815293865284862084529185528385208352845282842090915282529020546001600160a01b031681565b3480156108cb57600080fd5b5061037c6108da3660046144b6565b611f64565b3480156108eb57600080fd5b5060035461030b906001600160a01b031681565b34801561090b57600080fd5b5061037c61091a3660046144b6565b611f75565b34801561092b57600080fd5b5061037c61093a3660046144b6565b611f86565b34801561094b57600080fd5b5061037c61095a3660046144b6565b611f97565b34801561096b57600080fd5b5061037c61097a3660046144b6565b611fa8565b34801561098b57600080fd5b5061032e61099a3660046145da565b61201e565b6109a7612033565b6109b081612092565b50565b6109bb612033565b6109b081612124565b6109cc61218c565b60af546001600160a01b03163314806109fd57506109e8611957565b6001600160a01b0316336001600160a01b0316145b610a4e5760405162461bcd60e51b815260206004820152601e60248201527f45786368616e6765526f757465723a206e6f7420617574686f72697a6564000060448201526064015b60405180910390fd5b600085815260a7602052604090206001015460ff1615610a805760405162461bcd60e51b8152600401610a4590614bb5565b600085815260a76020526040908190206001818101805460ff191690911790556002015460065460aa54925163095ea7b360e01b815291926001600160a01b039182169263095ea7b392610ada9216908590600401614b47565b602060405180830381600087803b158015610af457600080fd5b505af1158015610b08573d6000803e3d6000fd5b505050506040513d601f19601f82011682018060405250810190610b2c9190614519565b5060055460405163626885b560e11b81526000916001600160a01b03169063c4d10b6a90610b609087908790600401614b60565b60206040518083038186803b158015610b7857600080fd5b505afa158015610b8c573d6000803e3d6000fd5b505050506040513d601f19601f82011682018060405250810190610bb091906144d2565b60aa549091506000906001600160a01b0316633fea4367848860ff8b166005811115610bec57634e487b7160e01b600052602160045260246000fd5b898960006040518763ffffffff1660e01b8152600401610c1196959493929190614eb1565b602060405180830381600087803b158015610c2b57600080fd5b505af1158015610c3f573d6000803e3d6000fd5b505050506040513d601f19601f82011682018060405250810190610c6391906145f2565b9050336001600160a01b0316887f79bab54e96d1977794ba96251faf4af21e4c1e824335ed0e33ad672cc463194b85848a8c88600160aa60009054906101000a90046001600160a01b03166001600160a01b031663930a60e88c6040518263ffffffff1660e01b8152600401610cd991906149cc565b60206040518083038186803b158015610cf157600080fd5b505afa158015610d05573d6000803e3d6000fd5b505050506040513d601f19601f82011682018060405250810190610d2991906145f2565b610d3391906150aa565b604051610d4596959493929190614f8f565b60405180910390a3505050610d5a6001606f55565b5050505050565b610d69612033565b6109b0816121ed565b610d7a61218c565b60008681526009602052604090206005015460ff1615610dac5760405162461bcd60e51b8152600401610a4590614bb5565b600086815260ae602090815260408083206001600160a01b0389811685529083528184208882168552835281842087855283528184208685528352818420858552909252909120541615610e425760405162461bcd60e51b815260206004820152601e60248201527f45786368616e6765526f757465723a20616c72656164792066696c6c656400006044820152606401610a45565b600086815260ae602090815260408083206001600160a01b0389811685529083528184209088168452825280832086845282528083208584528252808320848452909152902080546001600160a01b0319163317905560015482141561104e576001600160a01b03841660011415610fab57823414610f025760405162461bcd60e51b815260206004820152601c60248201527b115e18da185b99d9549bdd5d195c8e881ddc9bdb99c8185b5bdd5b9d60221b6044820152606401610a45565b6000856001600160a01b03168460405160006040518083038185875af1925050503d8060008114610f4f576040519150601f19603f3d011682016040523d82523d6000602084013e610f54565b606091505b5050905080610fa55760405162461bcd60e51b815260206004820152601f60248201527f45786368616e6765526f757465723a207472616e73666572206661696c6564006044820152606401610a45565b506110f9565b6040516323b872dd60e01b81526001600160a01b038516906323b872dd90610fdb90339089908890600401614a86565b602060405180830381600087803b158015610ff557600080fd5b505af1158015611009573d6000803e3d6000fd5b505050506040513d601f19601f8201168201806040525081019061102d9190614519565b6110495760405162461bcd60e51b8152600401610a4590614bf6565b6110f9565b6040516323b872dd60e01b81526001600160a01b038516906323b872dd9061107e90339030908890600401614a86565b602060405180830381600087803b15801561109857600080fd5b505af11580156110ac573d6000803e3d6000fd5b505050506040513d601f19601f820116820180604052508101906110d09190614519565b6110ec5760405162461bcd60e51b8152600401610a4590614bf6565b6110f9828585888561227f565b60408051338152602081018890526001600160a01b0387811682840152861660608201526080810185905260a0810184905260c0810183905290517fb6e47711799f0cc9b7a03c6f67a2ec7714c0f80543b870b5e4a19440cdedf8e69181900360e00190a16111686001606f55565b505050505050565b611178612033565b6109b0816123f3565b611189612033565b6109b08161245c565b61119a612033565b60008281526008602090815260409182902080546001600160a01b0319166001600160a01b0385169081179091558251858152918201527f31a8c4e62daac2a3ed5d713004d9ae867d6dcddfa35603db2a4b65d9236b1bc1910160405180910390a15050565b611208612033565b565b600061121461218c565b6004546001600160a01b0316336001600160a01b0316146112475760405162461bcd60e51b8152600401610a4590614ce9565b6000548560800151101561126d5760405162461bcd60e51b8152600401610a4590614d6b565b60608501516001600160e01b031916156112995760405162461bcd60e51b8152600401610a4590614c2c565b60055460405163aff2faa360e01b81526001600160a01b039091169063aff2faa3906112cb9087908790600401614b60565b60206040518083038186803b1580156112e357600080fd5b505afa1580156112f7573d6000803e3d6000fd5b505050506040513d601f19601f8201168201806040525081019061131b9190614519565b6113375760405162461bcd60e51b8152600401610a4590614da0565b6006546003546040516342cfb5c360e11b815260009273__$62116a2d8fdb45afa1e131c95c47186d10$__9263859f6b8692611391928b9260099260a7926001600160a01b03908116928e928e9290911690600401614dd4565b60206040518083038186803b1580156113a957600080fd5b505af41580156113bd573d6000803e3d6000fd5b505050506040513d601f19601f820116820180604052508101906113e191906145f2565b600081815260a76020526040812054919250906113fd9061201e565b90508061144c5760405162461bcd60e51b815260206004820181905260248201527f45786368616e6765526f757465723a20696e76616c696420636861696e2069646044820152606401610a45565b600082815260096020908152604080832081516101608101835281548152600182015481850152600282015481840152600382015460ff808216151560608401526101009091046001600160a01b03166080830152600483015460a0830152600583015416151560c08201526006820180548451818702810187019095528085529194929360e086019390929083018282801561151257602002820191906000526020600020905b81546001600160a01b031681526001909101906020018083116114f4575b505050918352505060078201546020808301919091526008808401546040808501919091526009909401546060909301929092528351600090815291905220549091506001600160a01b03168061157b5760405162461bcd60e51b8152600401610a4590614cb2565b6115bc88888080601f016020809104026020016040519081016040528093929190818152602001838380828437600092019190915250889250612483915050565b816101200151600114156116e457600084815260ae6020908152604080832060808601516001600160a01b03168452909152812060e08401518051839190611606906001906150aa565b8151811061162457634e487b7160e01b600052603260045260246000fd5b6020908102919091018101516001600160a01b03908116835282820193909352604091820160009081208784015182528252828120888252825282812089825260a78352838220600301548252909152205416905080156116d0576116c281868b8b8080601f0160208091040260200160405190810160405280939291908181526020018383808284376000920191909152508a9250612652915050565b600195505050505050611741565b600085815260096020526040812060080155505b6117388189898080601f01602080910402602001604051908101604052809392919081815260200183838082843760009201829052508a815260a760205260409020600301548a93508c9250905088612a43565b60019450505050505b61174b6001606f55565b949350505050565b61175b612033565b6109b081612d57565b61176c612033565b6109b081612dba565b60008181526009602052604081206005015460ff16611795576000611798565b60015b92915050565b6117a6612033565b60af80546001600160a01b0319166001600160a01b0392909216919091179055565b600a54610100900460ff16158080156117e85750600a54600160ff909116105b806118025750303b1580156118025750600a5460ff166001145b6118655760405162461bcd60e51b815260206004820152602e60248201527f496e697469616c697a61626c653a20636f6e747261637420697320616c72656160448201526d191e481a5b9a5d1a585b1a5e995960921b6064820152608401610a45565b600a805460ff19166001179055801561188857600a805461ff0019166101001790555b611890612e4c565b611898612e7b565b60018890556118a68b612124565b6118af8a612d57565b6118b88961245c565b6118c186612eaa565b6118ca87612f3c565b6118d385612dba565b6118dc84612fce565b6118e5836123f3565b6118ee82612092565b801561193457600a805461ff0019169055604051600181527f7f26b83ff96e1f2b6a682f133852f6798a09c465da95921460cefb38474024989060200160405180910390a15b5050505050505050505050565b611949612033565b6119538282613060565b5050565b603d546001600160a01b031690565b61196e612033565b61195382826130fc565b611980612033565b6119538282613164565b600061199461218c565b6004546001600160a01b0316336001600160a01b0316146119c75760405162461bcd60e51b8152600401610a4590614ce9565b600054866080015110156119ed5760405162461bcd60e51b8152600401610a4590614d6b565b60608601516001600160e01b03191615611a195760405162461bcd60e51b8152600401610a4590614c2c565b60055460405163aff2faa360e01b81526001600160a01b039091169063aff2faa390611a4b9088908890600401614b60565b60206040518083038186803b158015611a6357600080fd5b505afa158015611a77573d6000803e3d6000fd5b505050506040513d601f19601f82011682018060405250810190611a9b9190614519565b611ab75760405162461bcd60e51b8152600401610a4590614da0565b6006546003546040516342cfb5c360e11b815260009273__$62116a2d8fdb45afa1e131c95c47186d10$__9263859f6b8692611b11928c9260099260a7926001600160a01b03908116928f928f9290911690600401614dd4565b60206040518083038186803b158015611b2957600080fd5b505af4158015611b3d573d6000803e3d6000fd5b505050506040513d601f19601f82011682018060405250810190611b6191906145f2565b600081815260a7602052604081205491925090611b7d9061201e565b600083815260096020908152604080832081516101608101835281548152600182015481850152600282015481840152600382015460ff808216151560608401526101009091046001600160a01b03166080830152600483015460a0830152600583015416151560c082015260068201805484518187028101870190955280855296975094959094919360e0860193929190830182828015611c4857602002820191906000526020600020905b81546001600160a01b03168152600190910190602001808311611c2a575b505050918352505060078201546020808301919091526008808401546040808501919091526009909401546060909301929092528351600090815291905220549091506001600160a01b031680611cb15760405162461bcd60e51b8152600401610a4590614cb2565b611cf289898080601f016020809104026020016040519081016040528093929190818152602001838380828437600092019190915250889250612483915050565b81610120015160011415611e0d57600084815260ae6020908152604080832060808601516001600160a01b03168452909152812060e08401518051839190611d3c906001906150aa565b81518110611d5a57634e487b7160e01b600052603260045260246000fd5b6020908102919091018101516001600160a01b0390811683528282019390935260409182016000908120878401518252825282812088825282528281208b825290915220541690508015611df957611deb81868c8c8080601f0160208091040260200160405190810160405280939291908181526020018383808284376000920191909152508a9250612652915050565b600195505050505050611e5c565b600085815260096020526040812060080155505b611e53818a8a8080601f0160208091040260200160405190810160405280939291908181526020018383808284376000920191909152508992508c91508b905088612a43565b60019450505050505b611e666001606f55565b95945050505050565b611e77612033565b611e7f61218c565b6001600160a01b03821660011415611ea757611ea2611e9c611957565b826131c5565b611f30565b816001600160a01b031663a9059cbb611ebe611957565b836040518363ffffffff1660e01b8152600401611edc929190614b47565b602060405180830381600087803b158015611ef657600080fd5b505af1158015611f0a573d6000803e3d6000fd5b505050506040513d601f19601f82011682018060405250810190611f2e9190614519565b505b6119536001606f55565b611f42612033565b60b180546001600160a01b0319166001600160a01b0392909216919091179055565b611f6c612033565b6109b081612f3c565b611f7d612033565b6109b081612eaa565b611f8e612033565b6109b0816132e0565b611f9f612033565b6109b081612fce565b611fb0612033565b6001600160a01b0381166120155760405162461bcd60e51b815260206004820152602660248201527f4f776e61626c653a206e6577206f776e657220697320746865207a65726f206160448201526564647265737360d01b6064820152608401610a45565b6109b081613349565b600090815260ab602052604090206001015490565b3361203c611957565b6001600160a01b0316146112085760405162461bcd60e51b815260206004820181905260248201527f4f776e61626c653a2063616c6c6572206973206e6f7420746865206f776e65726044820152606401610a45565b806001600160a01b0381166120ba5760405163d92e233d60e01b815260040160405180910390fd5b60aa546040517f5b663d57fa8cf393f8c8019f514b25c1b3223c9324a2ce3efe28ce5aef0e62fe916120f9916001600160a01b039091169085906149e0565b60405180910390a15060aa80546001600160a01b0319166001600160a01b0392909216919091179055565b60005481116121875760405162461bcd60e51b815260206004820152602960248201527f434345786368616e6765526f757465723a206c6f77207374617274696e67426c60448201526837b1b5a73ab6b132b960b91b6064820152608401610a45565b600055565b6002606f5414156121df5760405162461bcd60e51b815260206004820152601f60248201527f5265656e7472616e637947756172643a207265656e7472616e742063616c6c006044820152606401610a45565b6002606f55565b6001606f55565b806001600160a01b0381166122155760405163d92e233d60e01b815260040160405180910390fd5b6004546040517f8385e8ba7df6e532c24a84c012f3c713627c7e317263aafb3c738427da86325891612254916001600160a01b039091169085906149e0565b60405180910390a150600480546001600160a01b0319166001600160a01b0392909216919091179055565b60a85460405163095ea7b360e01b81526001600160a01b038681169263095ea7b3926122b392909116908790600401614b47565b602060405180830381600087803b1580156122cd57600080fd5b505af11580156122e1573d6000803e3d6000fd5b505050506040513d601f19601f820116820180604052508101906123059190614519565b5060af546000906001600160a01b031683868387670de0b6b3a764000061232c88826150aa565b612336908b61508b565b612340919061506b565b6123498c61201e565b60004261235881613840615053565b60408051602081018252600080825291516123819c9b9a999897969594939291906024016149fa565b60408051601f19818403018152918152602080830180516001600160e01b0316633dc9c91960e11b17905290519192506000916123c0918491016149a3565b60408051601f1981840301815291905260a8549091506123e9906001600160a01b03168261339b565b5050505050505050565b60a8546040517f06e5f2ca1234f717a2031f662608c02182d4f8bdc3dab013ec4c04eb9755313291612432916001600160a01b039091169084906149e0565b60405180910390a160a880546001600160a01b0319166001600160a01b0392909216919091179055565b80612710101561247e5760405162461bcd60e51b8152600401610a4590614c6d565b60b055565b600554600082815260096020526040908190206001015490516307f3f86760e21b81526001600160a01b0390921691631fcfe19c916124c89186913091600401614b87565b602060405180830381600087803b1580156124e257600080fd5b505af11580156124f6573d6000803e3d6000fd5b505050506040513d601f19601f8201168201806040525081019061251a91906145f2565b506002546000828152600960205260409020600101546127109161253d9161508b565b612547919061506b565b600082815260a76020908152604080832060058101949094556009808352818420600480820154960154855260ac8452918420549386905290915260010154612710916125939161508b565b61259d919061506b565b600083815260a7602090815260408083206006019390935560b054600990915291902060010154612710916125d19161508b565b6125db919061506b565b600083815260a7602052604090206007810182905560068101546005909101549091839161260891615053565b6126129190615053565b61261c9190615053565b60008381526009602052604090206001015461263891906150aa565b600092835260a76020526040909220600201919091555050565b61265c83836133e4565b600083815260096020908152604080832081516101608101835281548152600182015481850152600282015481840152600382015460ff808216151560608401526101009091046001600160a01b03166080830152600483015460a0830152600583015416151560c08201526006820180548451818702810187019095528085529194929360e086019390929083018282801561272257602002820191906000526020600020905b81546001600160a01b03168152600190910190602001808311612704575b50505091835250506007828101546020808401919091526008840154604080850191909152600990940154606093840152600089815260a7808352858220865161010081018852815481526001808301805460ff81161515848901526002850154848c0190815260038601549a85019a909a526004808601546080860152600586015460a086015260068087015460c0870152959099015460e0850152958f90529390955260ff19909316909317905590549251935163a9059cbb60e01b8152949550936001600160a01b039092169263a9059cbb92612805928b929101614b47565b602060405180830381600087803b15801561281f57600080fd5b505af1158015612833573d6000803e3d6000fd5b505050506040513d601f19601f820116820180604052508101906128579190614519565b5060006040518060a001604052808460a0015181526020018360e0015181526020018360a0015181526020018360c0015181526020018360600151815250905061289e3390565b608084015160055460405163626885b560e11b81526001600160a01b039384169360019381169260008051602061512f8339815191529291169063c4d10b6a906128ec908c90600401614b74565b60206040518083038186803b15801561290457600080fd5b505afa158015612918573d6000803e3d6000fd5b505050506040513d601f19601f8201168201806040525081019061293c91906144d2565b604080518082019091526006546001600160a01b0316815260e0890151805160208301919061296d906001906150aa565b8151811061298b57634e487b7160e01b600052603260045260246000fd5b60200260200101516001600160a01b03166001600160a01b03168152506040518060400160405280896040015181526020018a604001518152508c8a600001518a608001518a8e6040516129e6989796959493929190614aaa565b60405180910390a460408083015181516001600160a01b038a16815260208101899052918201527fa691ee9f18c723075ade0e555d96de55c74e3e7b7cddc63a0ecbbff7ee6352e79060600160405180910390a150505050505050565b6040805160e08082018352838252602080830189905260008881526009825284812085516101608101875281548152600182015481850152600282015481880152600382015460ff808216151560608401526101009091046001600160a01b03166080830152600483015460a0830152600583015416151560c08201526006820180548851818702810187018a5281815294988998612be0989097918801969495949086019390929091830182828015612b2657602002820191906000526020600020905b81546001600160a01b03168152600190910190602001808311612b08575b5050509183525050600782810154602080840191909152600884015460408085019190915260099094015460609384015293855260008d815260a7855283902083516101008101855281548152600182015460ff161515818701526002820154818601526003820154818501526004820154608080830191909152600583015460a0830152600683015460c0830152919092015460e0830152938501529083018b905282018990526001600160a01b038c169101526136c2565b915091508115612ccf57600086815260a7602052604090206001908101805460ff19169091179055612c1286886133e4565b6001548314612cca57600086815260a760205260409020548551612cca91908790612c3f906001906150aa565b81518110612c5d57634e487b7160e01b600052603260045260246000fd5b60200260200101518360018551612c7491906150aa565b81518110612c9257634e487b7160e01b600052603260045260246000fd5b6020026020010151600960008b815260200190815260200160002060030160019054906101000a90046001600160a01b03168861227f565b6123e9565b600086815260a76020818152604080842060078101546009845291852060040154939092526005820154600690920154909291612d0b91615053565b612d159190615053565b612d1f9190615053565b90508060a760008981526020019081526020016000206002016000828254612d479190615053565b9091555050505050505050505050565b806127101015612d795760405162461bcd60e51b8152600401610a4590614c6d565b60025460408051918252602082018390527f7d205f60891f60851c61cd244ba387d72b6589e7c0ac41b9d909ab0ce2c2a53b910160405180910390a1600255565b806001600160a01b038116612de25760405163d92e233d60e01b815260040160405180910390fd5b6006546040517f36a4c08a38b736dcecb6c328dba61238529620e83ccb23db2cc43cd34ec2609691612e21916001600160a01b039091169085906149e0565b60405180910390a150600680546001600160a01b0319166001600160a01b0392909216919091179055565b600a54610100900460ff16612e735760405162461bcd60e51b8152600401610a4590614d20565b611208613f4a565b600a54610100900460ff16612ea25760405162461bcd60e51b8152600401610a4590614d20565b611208613f7a565b806001600160a01b038116612ed25760405163d92e233d60e01b815260040160405180910390fd5b6003546040517f4c28a3f61a715259c4dc930c23e7423b8fa52e13232c061a6e488729c66184f491612f11916001600160a01b039091169085906149e0565b60405180910390a150600380546001600160a01b0319166001600160a01b0392909216919091179055565b806001600160a01b038116612f645760405163d92e233d60e01b815260040160405180910390fd5b6005546040517ffa021c2ec0f46429a53e7f88b88065e40001f50c9d38b2e8b713beaf9828d4c391612fa3916001600160a01b039091169085906149e0565b60405180910390a150600580546001600160a01b0319166001600160a01b0392909216919091179055565b806001600160a01b038116612ff65760405163d92e233d60e01b815260040160405180910390fd5b6007546040517f567657fa3f286518b318f4a29870674f433f622fdfc819691acb13105b22822591613035916001600160a01b039091169085906149e0565b60405180910390a150600780546001600160a01b0319166001600160a01b0392909216919091179055565b600082815260ad6020526040908190205490517f1e73962bcff5b98a9ac70c9b0f71fbb31dc0f5a09348c6d3ceab164169a9e729916130c69185916001600160a01b03169085909283526001600160a01b03918216602084015216604082015260600190565b60405180910390a1600091825260ad602052604090912080546001600160a01b0319166001600160a01b03909216919091179055565b60408051838152602081018390527f102cb592c601969e68b19c6d96d1fc5f09b9b7214423c922de7dd67fe04cf801910160405180910390a16040805180820182526001805482526020808301958652600094855260ab905291909220915182559151910155565b600082815260ac6020908152604091829020548251858152918201529081018290527f188adabf806a6b6d814acc1dbd9f09e5a251c8c065d6285749a5824e4579b6459060600160405180910390a1600091825260ac602052604090912055565b804710156132155760405162461bcd60e51b815260206004820152601d60248201527f416464726573733a20696e73756666696369656e742062616c616e63650000006044820152606401610a45565b6000826001600160a01b03168260405160006040518083038185875af1925050503d8060008114613262576040519150601f19603f3d011682016040523d82523d6000602084013e613267565b606091505b50509050806132db5760405162461bcd60e51b815260206004820152603a60248201527f416464726573733a20756e61626c6520746f2073656e642076616c75652c20726044820152791958da5c1a595b9d081b585e481a185d99481c995d995c9d195960321b6064820152608401610a45565b505050565b60a9546040517f4da8064030e901e42f6de0ab04f4c322d7936d0120503addfe8a51f1270906899161331f916001600160a01b039091169084906149e0565b60405180910390a160a980546001600160a01b0319166001600160a01b0392909216919091179055565b603d80546001600160a01b038381166001600160a01b0319831681179093556040519116919082907f8be0079c531659141344cd1fd0a4f28419497f9722a3daafe3b4186f6b6457e090600090a35050565b60606133dd83836040518060400160405280601e81526020017f416464726573733a206c6f772d6c6576656c2063616c6c206661696c65640000815250613fa1565b9392505050565b600082815260096020526040902060040154156134925760065460008381526009602052604090819020600490810154915163a9059cbb60e01b81526001600160a01b039093169263a9059cbb9261343e92339201614b47565b602060405180830381600087803b15801561345857600080fd5b505af115801561346c573d6000803e3d6000fd5b505050506040513d601f19601f820116820180604052508101906134909190614519565b505b600082815260a760205260409020600501541561354457600654600754600084815260a760205260409081902060050154905163a9059cbb60e01b81526001600160a01b039384169363a9059cbb936134f093911691600401614b47565b602060405180830381600087803b15801561350a57600080fd5b505af115801561351e573d6000803e3d6000fd5b505050506040513d601f19601f820116820180604052508101906135429190614519565b505b600082815260a760205260409020600601541561360b5760068054600084815260a760208181526040808420600480820154865260ad845282862054958a905293909252940154935163a9059cbb60e01b81526001600160a01b039384169463a9059cbb946135b7941692909101614b47565b602060405180830381600087803b1580156135d157600080fd5b505af11580156135e5573d6000803e3d6000fd5b505050506040513d601f19601f820116820180604052508101906136099190614519565b505b600082815260a76020526040902060070154156119535760055460405163626885b560e11b8152611953916001600160a01b03169063c4d10b6a90613654908590600401614b74565b60206040518083038186803b15801561366c57600080fd5b505afa158015613680573d6000803e3d6000fd5b505050506040513d601f19601f820116820180604052508101906136a491906144d2565b600084815260a7602052604090206007810154600490910154613fb0565b60065460c0820151606083810151604090810151905163095ea7b360e01b815260009492936001600160a01b039093169263095ea7b39261370592600401614b47565b602060405180830381600087803b15801561371f57600080fd5b505af1158015613733573d6000803e3d6000fd5b505050506040513d601f19601f820116820180604052508101906137579190614519565b5060065460a084015180516001600160a01b039092169160009061378b57634e487b7160e01b600052603260045260246000fd5b60200260200101516001600160a01b03161480156138325750604083015160e0015180516137bb906001906150aa565b815181106137d957634e487b7160e01b600052603260045260246000fd5b60200260200101516001600160a01b03168360a0015160018560a001515161380191906150aa565b8151811061381f57634e487b7160e01b600052603260045260246000fd5b60200260200101516001600160a01b0316145b61387e5760405162461bcd60e51b815260206004820152601e60248201527f436345786368616e6765526f757465723a20696e76616c6964207061746800006044820152606401610a45565b8260c001516001600160a01b031663b0bbcd88846060015160400151856060015160600151670de0b6b3a76400006138b691906150aa565b6138c890670de0b6b3a764000061506b565b8660400151604001516138db919061508b565b8660a00151304260016040518763ffffffff1660e01b815260040161390596959493929190614f13565b600060405180830381600087803b15801561391f57600080fd5b505af1158015613933573d6000803e3d6000fd5b505050506040513d6000823e601f3d908101601f1916820160405261395b9190810190614533565b90925090508115613d8a5760015483511415613b035760a0830151805160009190613988906001906150aa565b815181106139a657634e487b7160e01b600052603260045260246000fd5b60200260200101519050600082600184516139c191906150aa565b815181106139df57634e487b7160e01b600052603260045260246000fd5b602090810291909101015160a9549091506001600160a01b03838116911614613a905760408086015160800151905163a9059cbb60e01b81526001600160a01b0384169163a9059cbb91613a3891908590600401614b47565b602060405180830381600087803b158015613a5257600080fd5b505af1158015613a66573d6000803e3d6000fd5b505050506040513d601f19601f82011682018060405250810190613a8a9190614519565b50613b00565b60a954604051632e1a7d4d60e01b8152600481018390526001600160a01b0390911690632e1a7d4d90602401600060405180830381600087803b158015613ad657600080fd5b505af1158015613aea573d6000803e3d6000fd5b50505050613b00856040015160800151826131c5565b50505b6000670de0b6b3a76400008460600151606001518360018551613b2691906150aa565b81518110613b4457634e487b7160e01b600052603260045260246000fd5b6020026020010151613b56919061508b565b613b60919061506b565b905060006040518060a00160405280866040015160a001518152602001866060015160e001518152602001866060015160a001518152602001866060015160c001518152602001838152509050613bb43390565b60408087015161012081015160809091015160055460208a0151935163626885b560e11b81526001600160a01b039586169593949284169360008051602061512f8339815191529392169163c4d10b6a91613c129190600401614b74565b60206040518083038186803b158015613c2a57600080fd5b505afa158015613c3e573d6000803e3d6000fd5b505050506040513d601f19601f82011682018060405250810190613c6291906144d2565b604080518082019091526006546001600160a01b0316815260a08b01518051602083019190613c93906001906150aa565b81518110613cb157634e487b7160e01b600052603260045260246000fd5b60200260200101516001600160a01b03166001600160a01b031681525060405180604001604052808a600081518110613cfa57634e487b7160e01b600052603260045260246000fd5b60200260200101518152602001898b60018d51613d1791906150aa565b81518110613d3557634e487b7160e01b600052603260045260246000fd5b6020026020010151613d4791906150aa565b8152508b608001518c60400151600001518d60600151608001518a8f60000151604051613d7b989796959493929190614aaa565b60405180910390a45050915091565b60006040518060a001604052806000815260200160008152602001600081526020016000815260200160008152509050613dc13390565b6040808601516101208101516080909101516005546020890151935163626885b560e11b81526001600160a01b03958616959394928416937f4bdbd9bfa84241c4a39e7be48e0a8678cfbecfbcfae5d87f01b13de30b8c9e9a9392169163c4d10b6a91613e319190600401614b74565b60206040518083038186803b158015613e4957600080fd5b505afa158015613e5d573d6000803e3d6000fd5b505050506040513d601f19601f82011682018060405250810190613e8191906144d2565b604080518082019091526006546001600160a01b0316815260a08a01518051602083019190613eb2906001906150aa565b81518110613ed057634e487b7160e01b600052603260045260246000fd5b60200260200101516001600160a01b03166001600160a01b031681525060405180604001604052808b6060015160400151815260200160008152508a608001518b60400151600001518c60600151608001518a8e60000151604051613f3c989796959493929190614aaa565b60405180910390a450915091565b600a54610100900460ff16613f715760405162461bcd60e51b8152600401610a4590614d20565b61120833613349565b600a54610100900460ff166121e65760405162461bcd60e51b8152600401610a4590614d20565b606061174b8484600085614138565b81156132db5760b1546001600160a01b03161580613fcd57508015155b1561405c5760065460405163a9059cbb60e01b81526001600160a01b039091169063a9059cbb906140049086908690600401614b47565b602060405180830381600087803b15801561401e57600080fd5b505af1158015614032573d6000803e3d6000fd5b505050506040513d601f19601f820116820180604052508101906140569190614519565b50505050565b60065460b15460405163095ea7b360e01b81526001600160a01b039283169263095ea7b392614092929116908690600401614b47565b602060405180830381600087803b1580156140ac57600080fd5b505af11580156140c0573d6000803e3d6000fd5b505050506040513d601f19601f820116820180604052508101906140e49190614519565b5060b154604051614056916001600160a01b0316906141099086908690602401614b47565b60408051601f198184030181529190526020810180516001600160e01b0316637db4e28f60e01b17905261339b565b6060824710156141995760405162461bcd60e51b815260206004820152602660248201527f416464726573733a20696e73756666696369656e742062616c616e636520666f6044820152651c8818d85b1b60d21b6064820152608401610a45565b843b6141e75760405162461bcd60e51b815260206004820152601d60248201527f416464726573733a2063616c6c20746f206e6f6e2d636f6e74726163740000006044820152606401610a45565b600080866001600160a01b031685876040516142039190614987565b60006040518083038185875af1925050503d8060008114614240576040519150601f19603f3d011682016040523d82523d6000602084013e614245565b606091505b5091509150614255828286614260565b979650505050505050565b6060831561426f5750816133dd565b82511561427f5782518084602001fd5b8160405162461bcd60e51b8152600401610a459190614b74565b600082601f8301126142a9578081fd5b813560206142be6142b983615030565b615000565b80838252828201915082860187848660051b89010111156142dd578586fd5b855b858110156143045781356142f281615119565b845292840192908401906001016142df565b5090979650505050505050565b8051801515811461432157600080fd5b919050565b80356001600160e01b03198116811461432157600080fd5b60008083601f84011261434f578182fd5b5081356001600160401b03811115614365578182fd5b60208301915083602082850101111561437d57600080fd5b9250929050565b600082601f830112614394578081fd5b81356001600160401b038111156143ad576143ad615103565b6143c0601f8201601f1916602001615000565b8181528460208386010111156143d4578283fd5b816020850160208301379081016020019190915292915050565b600060e082840312156143ff578081fd5b614407614fd8565b905061441282614326565b815260208201356001600160401b038082111561442e57600080fd5b61443a85838601614384565b6020840152604084013591508082111561445357600080fd5b61445f85838601614384565b604084015261447060608501614326565b60608401526080840135608084015260a084013591508082111561449357600080fd5b506144a084828501614384565b60a08301525060c082013560c082015292915050565b6000602082840312156144c7578081fd5b81356133dd81615119565b6000602082840312156144e3578081fd5b81516133dd81615119565b60008060408385031215614500578081fd5b823561450b81615119565b946020939093013593505050565b60006020828403121561452a578081fd5b6133dd82614311565b60008060408385031215614545578182fd5b61454e83614311565b602084810151919350906001600160401b0381111561456b578283fd5b8401601f8101861361457b578283fd5b80516145896142b982615030565b80828252848201915084840189868560051b87010111156145a8578687fd5b8694505b838510156145ca5780518352600194909401939185019185016145ac565b5080955050505050509250929050565b6000602082840312156145eb578081fd5b5035919050565b600060208284031215614603578081fd5b5051919050565b60008060008060008060c08789031215614622578182fd5b86359550602087013561463481615119565b9450604087013561464481615119565b959894975094956060810135955060808101359460a0909101359350915050565b60008060008060006080868803121561467c578283fd5b85359450602086013560ff81168114614693578384fd5b935060408601356001600160401b03808211156146ae578485fd5b6146ba89838a01614384565b945060608801359150808211156146cf578283fd5b506146dc8882890161433e565b969995985093965092949392505050565b60008060008060608587031215614702578182fd5b84356001600160401b0380821115614718578384fd5b614724888389016143ee565b95506020870135915080821115614739578384fd5b6147458883890161433e565b9095509350604087013591508082111561475d578283fd5b5061476a87828801614299565b91505092959194509250565b60008060008060006080868803121561478d578283fd5b85356001600160401b03808211156147a3578485fd5b6147af89838a016143ee565b965060208801359150808211156147c4578485fd5b6147d089838a0161433e565b909650945060408801359150808211156147e8578283fd5b506147f588828901614299565b95989497509295606001359392505050565b60008060408385031215614819578182fd5b82359150602083013561482b81615119565b809150509250929050565b60008060408385031215614848578182fd5b50508035926020909101359150565b6000806000806000806000806000806101408b8d031215614876578788fd5b8a35995060208b0135985060408b0135975060608b0135965060808b013561489d81615119565b955060a08b01356148ad81615119565b945060c08b01356148bd81615119565b935060e08b01356148cd81615119565b92506101008b01356148de81615119565b91506101208b01356148ef81615119565b809150509295989b9194979a5092959850565b6001600160a01b03169052565b8060005b6005811015614056578151845260209384019390910190600101614913565b81835281816020850137506000828201602090810191909152601f909101601f19169091010190565b600081518084526149738160208601602086016150c1565b601f01601f19169290920160200192915050565b600082516149998184602087016150c1565b9190910192915050565b600082516149b58184602087016150c1565b641dc0de008360d81b920191825250600501919050565b6001600160a01b0391909116815260200190565b6001600160a01b0392831681529116602082015260400190565b6001600160a01b038d811682528c811660208301528b811660408301528a81166060830152608082018a905260a0820189905260c08201889052861660e082015263ffffffff858116610100830152841661012082015260ff83166101408201526000610180610160830152614a7461018083018461495b565b9e9d5050505050505050505050505050565b6001600160a01b039384168152919092166020820152604081019190915260600190565b6001600160a01b0389811682526101c082019060208084018b60005b6002811015614ae5578151851683529183019190830190600101614ac6565b5050506060840191508960005b6002811015614b0f57815184529282019290820190600101614af2565b505050508660a08301528560c08301528460e0830152614b3361010083018561490f565b826101a08301529998505050505050505050565b6001600160a01b03929092168252602082015260400190565b60208152600061174b602083018486614932565b6020815260006133dd602083018461495b565b606081526000614b9a606083018661495b565b6001600160a01b039490941660208301525060400152919050565b60208082526021908201527f45786368616e6765526f757465723a20616c72656164792070726f63657373656040820152601960fa1b606082015260800190565b6020808252601c908201527b45786368616e6765526f757465723a206e6f20616c6c6f77616e636560201b604082015260600190565b60208082526021908201527f45786368616e6765526f757465723a206e6f6e2d7a65726f206c6f636b74696d6040820152606560f81b606082015260800190565b60208082526025908201527f434345786368616e6765526f757465723a20666565206973206f7574206f662060408201526472616e676560d81b606082015260800190565b6020808252601d908201527f45786368616e6765526f757465723a20696e76616c6964206170704964000000604082015260600190565b6020808252601e908201527f45786368616e6765526f757465723a20696e76616c69642073656e6465720000604082015260600190565b6020808252602b908201527f496e697469616c697a61626c653a20636f6e7472616374206973206e6f74206960408201526a6e697469616c697a696e6760a81b606082015260800190565b6020808252601b908201527a115e18da185b99d9549bdd5d195c8e881bdb19081c995c5d595cdd602a1b604082015260600190565b6020808252601a908201527922bc31b430b733b2a937baba32b91d103737ba103637b1b5b2b960311b604082015260600190565b60c08152600063ffffffff60e01b808a511660c084015260208a015160e080850152614e046101a085018261495b565b905060408b015160bf198086840301610100870152614e23838361495b565b92508360608e01511661012087015260808d015161014087015260a08d0151935080868403016101608701525050614e5b818361495b565b91505060c08a0151610180840152886020840152876040840152614e826060840188614902565b8281036080840152614e95818688614932565b915050614ea560a0830184614902565b98975050505050505050565b86815260a060208201526000614eca60a083018861495b565b60068710614ee657634e487b7160e01b82526021600452602482fd5b8660408401528281036060840152614eff818688614932565b915050826080830152979650505050505050565b600060c082018883526020888185015260c0604085015281885180845260e086019150828a019350845b81811015614f625784516001600160a01b031683529383019391830191600101614f3d565b50506001600160a01b039790971660608501525050506080810192909252151560a0909101529392505050565b86815285602082015260c060408201526000614fae60c083018761495b565b60ff959095166060830152506001600160a01b0392909216608083015260a0909101529392505050565b60405160e081016001600160401b0381118282101715614ffa57614ffa615103565b60405290565b604051601f8201601f191681016001600160401b038111828210171561502857615028615103565b604052919050565b60006001600160401b0382111561504957615049615103565b5060051b60200190565b60008219821115615066576150666150ed565b500190565b60008261508657634e487b7160e01b81526012600452602481fd5b500490565b60008160001904831182151516156150a5576150a56150ed565b500290565b6000828210156150bc576150bc6150ed565b500390565b60005b838110156150dc5781810151838201526020016150c4565b838111156140565750506000910152565b634e487b7160e01b600052601160045260246000fd5b634e487b7160e01b600052604160045260246000fd5b6001600160a01b03811681146109b057600080fdfe83f3c3e82621afa914bb49ee3bc3bcadb1d41b3d6f836aa437172cbb3d4dbb6ea2646970667358221220735b2a5b94c1451a9231d7605023d94e8473328e1541e668c757cdf19bb7602b64736f6c63430008040033",
  "libraries": {
    "CcExchangeRouterLib": "0x58a8d9F7A6e9a572B2041bc2fef0B5956387fB7A"
  },
  "devdoc": {
    "kind": "dev",
    "methods": {
      "fillTx(bytes32,address,address,uint256,uint256,uint256)": {
        "params": {
          "_amount": "Requested exchanging amount",
          "_token": "Address of exchange token in the request",
          "_txId": "Bitcoin request that filler wants to fill"
        }
      },
      "initialize(uint256,uint256,uint256,uint256,address,address,address,address,address,address)": {
        "params": {
          "_chainId": "Chain Id of the current chain",
          "_lockers": "LockersManager contract address",
          "_protocolPercentageFee": "Protocol percentage fee (min: %0.01).                               This fee goes to treasury from each wrapAndSwap request",
          "_relay": "Address of BitcoinRelay which checks Bitcoin transactions inclusion",
          "_startingBlockNumber": "Transactions that are included in blocks older                             than _startingBlockNumber cannot be processed",
          "_teleBTC": "TeleBTC token",
          "_treasury": "Treasury collects protocol fees"
        }
      },
      "isRequestUsed(bytes32)": {
        "details": "It prevents re-submitting a processed request",
        "params": {
          "_txId": "The transaction ID of request on Bitcoin"
        },
        "returns": {
          "_0": "True if the cc exchange request has been already executed"
        }
      },
      "owner()": {
        "details": "Returns the address of the current owner."
      },
      "renounceOwnership()": {
        "details": "Leaves the contract without owner. It will not be possible to call `onlyOwner` functions. Can only be called by the current owner. NOTE: Renouncing ownership will leave the contract without an owner, thereby disabling any functionality that is only available to the owner."
      },
      "setAcross(address)": {
        "details": "Across is used to send exchanged tokens to other chains"
      },
      "setChainIdMapping(uint256,uint256)": {
        "details": "After processing a request, the exchanged token is sent to the destination chain."
      },
      "setExchangeConnector(uint256,address)": {
        "details": "Users determine which DEX to use by determining the app id."
      },
      "setRewardDistributor(address)": {
        "details": "This contract distributes locker fee between locker and stakers"
      },
      "setThirdPartyAddress(uint256,address)": {
        "details": "Each third party has an id and an address.      Users determine the third party by determining the id in the request.      Third party fee is sent to the third party address."
      },
      "setThirdPartyFee(uint256,uint256)": {
        "details": "Third party fee is a percentage of the input amount.      Third parties can set their own fees."
      },
      "transferOwnership(address)": {
        "details": "Transfers ownership of the contract to a new account (`newOwner`). Can only be called by the current owner."
      },
      "wrapAndSwap((bytes4,bytes,bytes,bytes4,uint256,bytes,uint256),bytes,address[])": {
        "details": "Steps to process a request:      1. Check transaction inclusion on Bitcoin      2. Extract the request info      3. Mint TeleBTC and send fees to protocol, Locker, and third party      4. Exchange TeleBTC for the output token      5.1 Send the output token to the user      5.2 Send TeleBTC to user if exchange fails and the request belongs to the current chain      5.3 Keep TeleBTC if exchange fails and the request doesn't blong to the current chain",
        "params": {
          "_lockerLockingScript": "Script hash of Locker that user has sent BTC to it",
          "_path": "(Optional) Exchange path from teleBTC to the output token.",
          "_txAndProof": "Transaction and inclusion proof data"
        }
      },
      "wrapAndSwapWithCustomBridgeFee((bytes4,bytes,bytes,bytes4,uint256,bytes,uint256),bytes,address[],uint256)": {
        "details": "Similar to wrapAndSwap but allows Teleporter to specify a custom bridge fee"
      }
    },
    "version": 1
  },
  "userdoc": {
    "events": {
      "FailedWrapAndSwap(address,address,address[2],uint256[2],uint256,address,bytes32,uint256,uint256,uint256[5],uint256)": {
        "notice": "Emits when a cc exchange request fails"
      },
      "NewChainIdMapping(uint256,uint256)": {
        "notice": "Emit when new chain id mapping added"
      },
      "NewLockers(address,address)": {
        "notice": "Emit when lockers contract updated"
      },
      "NewProtocolPercentageFee(uint256,uint256)": {
        "notice": "Emit when protocol fee updated"
      },
      "NewRelay(address,address)": {
        "notice": "Emit when relay contract updated"
      },
      "NewSpecialTeleporter(address,address)": {
        "notice": "Emits when special Teleporter addr updated"
      },
      "NewTeleBTC(address,address)": {
        "notice": "Emit when telebtc contract updated"
      },
      "NewThirdPartyAddress(uint256,address,address)": {
        "notice": "Emit when third party address updated"
      },
      "NewThirdPartyFee(uint256,uint256,uint256)": {
        "notice": "Emit when third party fee updated"
      },
      "NewTreasury(address,address)": {
        "notice": "Emit when treasury address updated"
      },
      "NewWrapAndSwap(address,address,address[2],uint256[2],uint256,address,bytes32,uint256,uint256,uint256[5],uint256)": {
        "notice": "Emits when a cc exchange request gets done"
      },
      "NewWrappedNativeToken(address,address)": {
        "notice": "Emits when wrapped native token addr updated"
      },
      "RefundProcessed(bytes32,address,uint256,uint256,bytes,uint8,address,uint256)": {
        "notice": "Emits when a failed request is refunded"
      },
      "RequestFilled(address,bytes32,address,address,uint256,uint256,uint256)": {
        "notice": "Emits when a new filler fills a request"
      },
      "SetExchangeConnector(uint256,address)": {
        "notice": "Emits when appId for an exchange connector is set"
      }
    },
    "kind": "user",
    "methods": {
      "emergencyWithdraw(address,uint256)": {
        "notice": "Emergency withdraw tokens from contract"
      },
      "fillTx(bytes32,address,address,uint256,uint256,uint256)": {
        "notice": "Filler fills an upcoming exchange request"
      },
      "getDestChainId(uint256)": {
        "notice": "Return the destination chain"
      },
      "initialize(uint256,uint256,uint256,uint256,address,address,address,address,address,address)": {
        "notice": "Initialize CcExchangeRouter"
      },
      "isRequestUsed(bytes32)": {
        "notice": "Check if a request has been processed"
      },
      "setAcross(address)": {
        "notice": "Setter for across"
      },
      "setAcrossAdmin(address)": {
        "notice": "Setter for Across Admin"
      },
      "setBurnRouter(address)": {
        "notice": "Setter for BurnRouter"
      },
      "setChainIdMapping(uint256,uint256)": {
        "notice": "Setter for chain id mapping"
      },
      "setExchangeConnector(uint256,address)": {
        "notice": "Assign an exchange connector to an app id"
      },
      "setLockerPercentageFee(uint256)": {
        "notice": "Setter for locker percentage fee"
      },
      "setLockers(address)": {
        "notice": "Update LockersManager address"
      },
      "setProtocolPercentageFee(uint256)": {
        "notice": "Setter for protocol percentage fee"
      },
      "setRelay(address)": {
        "notice": "Update Relay address"
      },
      "setRewardDistributor(address)": {
        "notice": "Setter for reward distributor"
      },
      "setSpecialTeleporter(address)": {
        "notice": "Address of special Teleporter that can submit requests"
      },
      "setStartingBlockNumber(uint256)": {
        "notice": "Setter for starting block number"
      },
      "setTeleBTC(address)": {
        "notice": "Update TeleBTC address"
      },
      "setThirdPartyAddress(uint256,address)": {
        "notice": "Setter for third party"
      },
      "setThirdPartyFee(uint256,uint256)": {
        "notice": "Setter for third party fee"
      },
      "setTreasury(address)": {
        "notice": "Setter for treasury"
      },
      "setWrappedNativeToken(address)": {
        "notice": "Setter for wrapped native token"
      },
      "wrapAndSwap((bytes4,bytes,bytes,bytes4,uint256,bytes,uint256),bytes,address[])": {
        "notice": "Process a wrapAndSwap request after checking its inclusion on Bitcoin"
      },
      "wrapAndSwapWithCustomBridgeFee((bytes4,bytes,bytes,bytes4,uint256,bytes,uint256),bytes,address[],uint256)": {
        "notice": "Process a wrapAndSwap request with a custom bridge fee after checking its inclusion on Bitcoin"
      }
    },
    "version": 1
  },
  "storageLayout": {
    "storage": [
      {
        "astId": 11328,
        "contract": "contracts/routers/CcExchangeRouterLogic.sol:CcExchangeRouterLogic",
        "label": "startingBlockNumber",
        "offset": 0,
        "slot": "0",
        "type": "t_uint256"
      },
      {
        "astId": 11331,
        "contract": "contracts/routers/CcExchangeRouterLogic.sol:CcExchangeRouterLogic",
        "label": "chainId",
        "offset": 0,
        "slot": "1",
        "type": "t_uint256"
      },
      {
        "astId": 11334,
        "contract": "contracts/routers/CcExchangeRouterLogic.sol:CcExchangeRouterLogic",
        "label": "protocolPercentageFee",
        "offset": 0,
        "slot": "2",
        "type": "t_uint256"
      },
      {
        "astId": 11337,
        "contract": "contracts/routers/CcExchangeRouterLogic.sol:CcExchangeRouterLogic",
        "label": "relay",
        "offset": 0,
        "slot": "3",
        "type": "t_address"
      },
      {
        "astId": 11340,
        "contract": "contracts/routers/CcExchangeRouterLogic.sol:CcExchangeRouterLogic",
        "label": "specialTeleporter",
        "offset": 0,
        "slot": "4",
        "type": "t_address"
      },
      {
        "astId": 11343,
        "contract": "contracts/routers/CcExchangeRouterLogic.sol:CcExchangeRouterLogic",
        "label": "lockers",
        "offset": 0,
        "slot": "5",
        "type": "t_address"
      },
      {
        "astId": 11346,
        "contract": "contracts/routers/CcExchangeRouterLogic.sol:CcExchangeRouterLogic",
        "label": "teleBTC",
        "offset": 0,
        "slot": "6",
        "type": "t_address"
      },
      {
        "astId": 11349,
        "contract": "contracts/routers/CcExchangeRouterLogic.sol:CcExchangeRouterLogic",
        "label": "treasury",
        "offset": 0,
        "slot": "7",
        "type": "t_address"
      },
      {
        "astId": 11354,
        "contract": "contracts/routers/CcExchangeRouterLogic.sol:CcExchangeRouterLogic",
        "label": "exchangeConnector",
        "offset": 0,
        "slot": "8",
        "type": "t_mapping(t_uint256,t_address)"
      },
      {
        "astId": 11359,
        "contract": "contracts/routers/CcExchangeRouterLogic.sol:CcExchangeRouterLogic",
        "label": "ccExchangeRequests",
        "offset": 0,
        "slot": "9",
        "type": "t_mapping(t_bytes32,t_struct(ccExchangeRequest)12117_storage)"
      },
      {
        "astId": 139,
        "contract": "contracts/routers/CcExchangeRouterLogic.sol:CcExchangeRouterLogic",
        "label": "_initialized",
        "offset": 0,
        "slot": "10",
        "type": "t_uint8"
      },
      {
        "astId": 142,
        "contract": "contracts/routers/CcExchangeRouterLogic.sol:CcExchangeRouterLogic",
        "label": "_initializing",
        "offset": 1,
        "slot": "10",
        "type": "t_bool"
      },
      {
        "astId": 972,
        "contract": "contracts/routers/CcExchangeRouterLogic.sol:CcExchangeRouterLogic",
        "label": "__gap",
        "offset": 0,
        "slot": "11",
        "type": "t_array(t_uint256)50_storage"
      },
      {
        "astId": 11,
        "contract": "contracts/routers/CcExchangeRouterLogic.sol:CcExchangeRouterLogic",
        "label": "_owner",
        "offset": 0,
        "slot": "61",
        "type": "t_address"
      },
      {
        "astId": 131,
        "contract": "contracts/routers/CcExchangeRouterLogic.sol:CcExchangeRouterLogic",
        "label": "__gap",
        "offset": 0,
        "slot": "62",
        "type": "t_array(t_uint256)49_storage"
      },
      {
        "astId": 444,
        "contract": "contracts/routers/CcExchangeRouterLogic.sol:CcExchangeRouterLogic",
        "label": "_status",
        "offset": 0,
        "slot": "111",
        "type": "t_uint256"
      },
      {
        "astId": 513,
        "contract": "contracts/routers/CcExchangeRouterLogic.sol:CcExchangeRouterLogic",
        "label": "__gap",
        "offset": 0,
        "slot": "112",
        "type": "t_array(t_uint256)49_storage"
      },
      {
        "astId": 11378,
        "contract": "contracts/routers/CcExchangeRouterLogic.sol:CcExchangeRouterLogic",
        "label": "one",
        "offset": 0,
        "slot": "161",
        "type": "t_uint256"
      },
      {
        "astId": 11385,
        "contract": "contracts/routers/CcExchangeRouterLogic.sol:CcExchangeRouterLogic",
        "label": "two",
        "offset": 0,
        "slot": "162",
        "type": "t_mapping(t_bytes32,t_mapping(t_address,t_struct(FillerData)12167_storage))"
      },
      {
        "astId": 11392,
        "contract": "contracts/routers/CcExchangeRouterLogic.sol:CcExchangeRouterLogic",
        "label": "three",
        "offset": 0,
        "slot": "163",
        "type": "t_mapping(t_bytes32,t_mapping(t_address,t_struct(PrefixFillSum)12173_storage))"
      },
      {
        "astId": 11397,
        "contract": "contracts/routers/CcExchangeRouterLogic.sol:CcExchangeRouterLogic",
        "label": "four",
        "offset": 0,
        "slot": "164",
        "type": "t_mapping(t_bytes32,t_struct(FillData)12160_storage)"
      },
      {
        "astId": 11404,
        "contract": "contracts/routers/CcExchangeRouterLogic.sol:CcExchangeRouterLogic",
        "label": "isTokenSupported",
        "offset": 0,
        "slot": "165",
        "type": "t_mapping(t_uint256,t_mapping(t_address,t_bool))"
      },
      {
        "astId": 11409,
        "contract": "contracts/routers/CcExchangeRouterLogic.sol:CcExchangeRouterLogic",
        "label": "isChainSupported",
        "offset": 0,
        "slot": "166",
        "type": "t_mapping(t_uint256,t_bool)"
      },
      {
        "astId": 11414,
        "contract": "contracts/routers/CcExchangeRouterLogic.sol:CcExchangeRouterLogic",
        "label": "extendedCcExchangeRequests",
        "offset": 0,
        "slot": "167",
        "type": "t_mapping(t_bytes32,t_struct(extendedCcExchangeRequest)12134_storage)"
      },
      {
        "astId": 11417,
        "contract": "contracts/routers/CcExchangeRouterLogic.sol:CcExchangeRouterLogic",
        "label": "across",
        "offset": 0,
        "slot": "168",
        "type": "t_address"
      },
      {
        "astId": 11419,
        "contract": "contracts/routers/CcExchangeRouterLogic.sol:CcExchangeRouterLogic",
        "label": "wrappedNativeToken",
        "offset": 0,
        "slot": "169",
        "type": "t_address"
      },
      {
        "astId": 11422,
        "contract": "contracts/routers/CcExchangeRouterLogic.sol:CcExchangeRouterLogic",
        "label": "burnRouter",
        "offset": 0,
        "slot": "170",
        "type": "t_address"
      },
      {
        "astId": 11427,
        "contract": "contracts/routers/CcExchangeRouterLogic.sol:CcExchangeRouterLogic",
        "label": "chainIdMapping",
        "offset": 0,
        "slot": "171",
        "type": "t_mapping(t_uint256,t_struct(chainIdStruct)12093_storage)"
      },
      {
        "astId": 11431,
        "contract": "contracts/routers/CcExchangeRouterLogic.sol:CcExchangeRouterLogic",
        "label": "thirdPartyFee",
        "offset": 0,
        "slot": "172",
        "type": "t_mapping(t_uint256,t_uint256)"
      },
      {
        "astId": 11435,
        "contract": "contracts/routers/CcExchangeRouterLogic.sol:CcExchangeRouterLogic",
        "label": "thirdPartyAddress",
        "offset": 0,
        "slot": "173",
        "type": "t_mapping(t_uint256,t_address)"
      },
      {
        "astId": 11449,
        "contract": "contracts/routers/CcExchangeRouterLogic.sol:CcExchangeRouterLogic",
        "label": "fillerAddress",
        "offset": 0,
        "slot": "174",
        "type": "t_mapping(t_bytes32,t_mapping(t_address,t_mapping(t_address,t_mapping(t_uint256,t_mapping(t_uint256,t_mapping(t_uint256,t_address))))))"
      },
      {
        "astId": 11454,
        "contract": "contracts/routers/CcExchangeRouterLogic.sol:CcExchangeRouterLogic",
        "label": "acrossAdmin",
        "offset": 0,
        "slot": "175",
        "type": "t_address"
      },
      {
        "astId": 11456,
        "contract": "contracts/routers/CcExchangeRouterLogic.sol:CcExchangeRouterLogic",
        "label": "lockerPercentageFee",
        "offset": 0,
        "slot": "176",
        "type": "t_uint256"
      },
      {
        "astId": 11458,
        "contract": "contracts/routers/CcExchangeRouterLogic.sol:CcExchangeRouterLogic",
        "label": "rewardDistributor",
        "offset": 0,
        "slot": "177",
        "type": "t_address"
      }
    ],
    "types": {
      "t_address": {
        "encoding": "inplace",
        "label": "address",
        "numberOfBytes": "20"
      },
      "t_array(t_address)dyn_storage": {
        "base": "t_address",
        "encoding": "dynamic_array",
        "label": "address[]",
        "numberOfBytes": "32"
      },
      "t_array(t_uint256)49_storage": {
        "base": "t_uint256",
        "encoding": "inplace",
        "label": "uint256[49]",
        "numberOfBytes": "1568"
      },
      "t_array(t_uint256)50_storage": {
        "base": "t_uint256",
        "encoding": "inplace",
        "label": "uint256[50]",
        "numberOfBytes": "1600"
      },
      "t_array(t_uint256)dyn_storage": {
        "base": "t_uint256",
        "encoding": "dynamic_array",
        "label": "uint256[]",
        "numberOfBytes": "32"
      },
      "t_bool": {
        "encoding": "inplace",
        "label": "bool",
        "numberOfBytes": "1"
      },
      "t_bytes32": {
        "encoding": "inplace",
        "label": "bytes32",
        "numberOfBytes": "32"
      },
      "t_mapping(t_address,t_bool)": {
        "encoding": "mapping",
        "key": "t_address",
        "label": "mapping(address => bool)",
        "numberOfBytes": "32",
        "value": "t_bool"
      },
      "t_mapping(t_address,t_mapping(t_address,t_mapping(t_uint256,t_mapping(t_uint256,t_mapping(t_uint256,t_address)))))": {
        "encoding": "mapping",
        "key": "t_address",
        "label": "mapping(address => mapping(address => mapping(uint256 => mapping(uint256 => mapping(uint256 => address)))))",
        "numberOfBytes": "32",
        "value": "t_mapping(t_address,t_mapping(t_uint256,t_mapping(t_uint256,t_mapping(t_uint256,t_address))))"
      },
      "t_mapping(t_address,t_mapping(t_uint256,t_mapping(t_uint256,t_mapping(t_uint256,t_address))))": {
        "encoding": "mapping",
        "key": "t_address",
        "label": "mapping(address => mapping(uint256 => mapping(uint256 => mapping(uint256 => address))))",
        "numberOfBytes": "32",
        "value": "t_mapping(t_uint256,t_mapping(t_uint256,t_mapping(t_uint256,t_address)))"
      },
      "t_mapping(t_address,t_struct(FillerData)12167_storage)": {
        "encoding": "mapping",
        "key": "t_address",
        "label": "mapping(address => struct ICcExchangeRouter.FillerData)",
        "numberOfBytes": "32",
        "value": "t_struct(FillerData)12167_storage"
      },
      "t_mapping(t_address,t_struct(PrefixFillSum)12173_storage)": {
        "encoding": "mapping",
        "key": "t_address",
        "label": "mapping(address => struct ICcExchangeRouter.PrefixFillSum)",
        "numberOfBytes": "32",
        "value": "t_struct(PrefixFillSum)12173_storage"
      },
      "t_mapping(t_bytes32,t_mapping(t_address,t_mapping(t_address,t_mapping(t_uint256,t_mapping(t_uint256,t_mapping(t_uint256,t_address))))))": {
        "encoding": "mapping",
        "key": "t_bytes32",
        "label": "mapping(bytes32 => mapping(address => mapping(address => mapping(uint256 => mapping(uint256 => mapping(uint256 => address))))))",
        "numberOfBytes": "32",
        "value": "t_mapping(t_address,t_mapping(t_address,t_mapping(t_uint256,t_mapping(t_uint256,t_mapping(t_uint256,t_address)))))"
      },
      "t_mapping(t_bytes32,t_mapping(t_address,t_struct(FillerData)12167_storage))": {
        "encoding": "mapping",
        "key": "t_bytes32",
        "label": "mapping(bytes32 => mapping(address => struct ICcExchangeRouter.FillerData))",
        "numberOfBytes": "32",
        "value": "t_mapping(t_address,t_struct(FillerData)12167_storage)"
      },
      "t_mapping(t_bytes32,t_mapping(t_address,t_struct(PrefixFillSum)12173_storage))": {
        "encoding": "mapping",
        "key": "t_bytes32",
        "label": "mapping(bytes32 => mapping(address => struct ICcExchangeRouter.PrefixFillSum))",
        "numberOfBytes": "32",
        "value": "t_mapping(t_address,t_struct(PrefixFillSum)12173_storage)"
      },
      "t_mapping(t_bytes32,t_struct(FillData)12160_storage)": {
        "encoding": "mapping",
        "key": "t_bytes32",
        "label": "mapping(bytes32 => struct ICcExchangeRouter.FillData)",
        "numberOfBytes": "32",
        "value": "t_struct(FillData)12160_storage"
      },
      "t_mapping(t_bytes32,t_struct(ccExchangeRequest)12117_storage)": {
        "encoding": "mapping",
        "key": "t_bytes32",
        "label": "mapping(bytes32 => struct ICcExchangeRouter.ccExchangeRequest)",
        "numberOfBytes": "32",
        "value": "t_struct(ccExchangeRequest)12117_storage"
      },
      "t_mapping(t_bytes32,t_struct(extendedCcExchangeRequest)12134_storage)": {
        "encoding": "mapping",
        "key": "t_bytes32",
        "label": "mapping(bytes32 => struct ICcExchangeRouter.extendedCcExchangeRequest)",
        "numberOfBytes": "32",
        "value": "t_struct(extendedCcExchangeRequest)12134_storage"
      },
      "t_mapping(t_uint256,t_address)": {
        "encoding": "mapping",
        "key": "t_uint256",
        "label": "mapping(uint256 => address)",
        "numberOfBytes": "32",
        "value": "t_address"
      },
      "t_mapping(t_uint256,t_bool)": {
        "encoding": "mapping",
        "key": "t_uint256",
        "label": "mapping(uint256 => bool)",
        "numberOfBytes": "32",
        "value": "t_bool"
      },
      "t_mapping(t_uint256,t_mapping(t_address,t_bool))": {
        "encoding": "mapping",
        "key": "t_uint256",
        "label": "mapping(uint256 => mapping(address => bool))",
        "numberOfBytes": "32",
        "value": "t_mapping(t_address,t_bool)"
      },
      "t_mapping(t_uint256,t_mapping(t_uint256,t_address))": {
        "encoding": "mapping",
        "key": "t_uint256",
        "label": "mapping(uint256 => mapping(uint256 => address))",
        "numberOfBytes": "32",
        "value": "t_mapping(t_uint256,t_address)"
      },
      "t_mapping(t_uint256,t_mapping(t_uint256,t_mapping(t_uint256,t_address)))": {
        "encoding": "mapping",
        "key": "t_uint256",
        "label": "mapping(uint256 => mapping(uint256 => mapping(uint256 => address)))",
        "numberOfBytes": "32",
        "value": "t_mapping(t_uint256,t_mapping(t_uint256,t_address))"
      },
      "t_mapping(t_uint256,t_struct(chainIdStruct)12093_storage)": {
        "encoding": "mapping",
        "key": "t_uint256",
        "label": "mapping(uint256 => struct ICcExchangeRouter.chainIdStruct)",
        "numberOfBytes": "32",
        "value": "t_struct(chainIdStruct)12093_storage"
      },
      "t_mapping(t_uint256,t_uint256)": {
        "encoding": "mapping",
        "key": "t_uint256",
        "label": "mapping(uint256 => uint256)",
        "numberOfBytes": "32",
        "value": "t_uint256"
      },
      "t_struct(FillData)12160_storage": {
        "encoding": "inplace",
        "label": "struct ICcExchangeRouter.FillData",
        "members": [
          {
            "astId": 12151,
            "contract": "contracts/routers/CcExchangeRouterLogic.sol:CcExchangeRouterLogic",
            "label": "startingTime",
            "offset": 0,
            "slot": "0",
            "type": "t_uint256"
          },
          {
            "astId": 12153,
            "contract": "contracts/routers/CcExchangeRouterLogic.sol:CcExchangeRouterLogic",
            "label": "reqToken",
            "offset": 0,
            "slot": "1",
            "type": "t_address"
          },
          {
            "astId": 12155,
            "contract": "contracts/routers/CcExchangeRouterLogic.sol:CcExchangeRouterLogic",
            "label": "lastUsedIdx",
            "offset": 0,
            "slot": "2",
            "type": "t_uint256"
          },
          {
            "astId": 12157,
            "contract": "contracts/routers/CcExchangeRouterLogic.sol:CcExchangeRouterLogic",
            "label": "remainingAmountOfLastFill",
            "offset": 0,
            "slot": "3",
            "type": "t_uint256"
          },
          {
            "astId": 12159,
            "contract": "contracts/routers/CcExchangeRouterLogic.sol:CcExchangeRouterLogic",
            "label": "isWithdrawnLastFill",
            "offset": 0,
            "slot": "4",
            "type": "t_bool"
          }
        ],
        "numberOfBytes": "160"
      },
      "t_struct(FillerData)12167_storage": {
        "encoding": "inplace",
        "label": "struct ICcExchangeRouter.FillerData",
        "members": [
          {
            "astId": 12162,
            "contract": "contracts/routers/CcExchangeRouterLogic.sol:CcExchangeRouterLogic",
            "label": "index",
            "offset": 0,
            "slot": "0",
            "type": "t_uint256"
          },
          {
            "astId": 12164,
            "contract": "contracts/routers/CcExchangeRouterLogic.sol:CcExchangeRouterLogic",
            "label": "token",
            "offset": 0,
            "slot": "1",
            "type": "t_address"
          },
          {
            "astId": 12166,
            "contract": "contracts/routers/CcExchangeRouterLogic.sol:CcExchangeRouterLogic",
            "label": "amount",
            "offset": 0,
            "slot": "2",
            "type": "t_uint256"
          }
        ],
        "numberOfBytes": "96"
      },
      "t_struct(PrefixFillSum)12173_storage": {
        "encoding": "inplace",
        "label": "struct ICcExchangeRouter.PrefixFillSum",
        "members": [
          {
            "astId": 12170,
            "contract": "contracts/routers/CcExchangeRouterLogic.sol:CcExchangeRouterLogic",
            "label": "prefixSum",
            "offset": 0,
            "slot": "0",
            "type": "t_array(t_uint256)dyn_storage"
          },
          {
            "astId": 12172,
            "contract": "contracts/routers/CcExchangeRouterLogic.sol:CcExchangeRouterLogic",
            "label": "currentIndex",
            "offset": 0,
            "slot": "1",
            "type": "t_uint256"
          }
        ],
        "numberOfBytes": "64"
      },
      "t_struct(ccExchangeRequest)12117_storage": {
        "encoding": "inplace",
        "label": "struct ICcExchangeRouter.ccExchangeRequest",
        "members": [
          {
            "astId": 12095,
            "contract": "contracts/routers/CcExchangeRouterLogic.sol:CcExchangeRouterLogic",
            "label": "appId",
            "offset": 0,
            "slot": "0",
            "type": "t_uint256"
          },
          {
            "astId": 12097,
            "contract": "contracts/routers/CcExchangeRouterLogic.sol:CcExchangeRouterLogic",
            "label": "inputAmount",
            "offset": 0,
            "slot": "1",
            "type": "t_uint256"
          },
          {
            "astId": 12099,
            "contract": "contracts/routers/CcExchangeRouterLogic.sol:CcExchangeRouterLogic",
            "label": "outputAmount",
            "offset": 0,
            "slot": "2",
            "type": "t_uint256"
          },
          {
            "astId": 12101,
            "contract": "contracts/routers/CcExchangeRouterLogic.sol:CcExchangeRouterLogic",
            "label": "isFixedToken",
            "offset": 0,
            "slot": "3",
            "type": "t_bool"
          },
          {
            "astId": 12103,
            "contract": "contracts/routers/CcExchangeRouterLogic.sol:CcExchangeRouterLogic",
            "label": "recipientAddress",
            "offset": 1,
            "slot": "3",
            "type": "t_address"
          },
          {
            "astId": 12105,
            "contract": "contracts/routers/CcExchangeRouterLogic.sol:CcExchangeRouterLogic",
            "label": "fee",
            "offset": 0,
            "slot": "4",
            "type": "t_uint256"
          },
          {
            "astId": 12107,
            "contract": "contracts/routers/CcExchangeRouterLogic.sol:CcExchangeRouterLogic",
            "label": "isUsed",
            "offset": 0,
            "slot": "5",
            "type": "t_bool"
          },
          {
            "astId": 12110,
            "contract": "contracts/routers/CcExchangeRouterLogic.sol:CcExchangeRouterLogic",
            "label": "path",
            "offset": 0,
            "slot": "6",
            "type": "t_array(t_address)dyn_storage"
          },
          {
            "astId": 12112,
            "contract": "contracts/routers/CcExchangeRouterLogic.sol:CcExchangeRouterLogic",
            "label": "deadline",
            "offset": 0,
            "slot": "7",
            "type": "t_uint256"
          },
          {
            "astId": 12114,
            "contract": "contracts/routers/CcExchangeRouterLogic.sol:CcExchangeRouterLogic",
            "label": "speed",
            "offset": 0,
            "slot": "8",
            "type": "t_uint256"
          },
          {
            "astId": 12116,
            "contract": "contracts/routers/CcExchangeRouterLogic.sol:CcExchangeRouterLogic",
            "label": "destinationChain",
            "offset": 0,
            "slot": "9",
            "type": "t_uint256"
          }
        ],
        "numberOfBytes": "320"
      },
      "t_struct(chainIdStruct)12093_storage": {
        "encoding": "inplace",
        "label": "struct ICcExchangeRouter.chainIdStruct",
        "members": [
          {
            "astId": 12090,
            "contract": "contracts/routers/CcExchangeRouterLogic.sol:CcExchangeRouterLogic",
            "label": "middleChain",
            "offset": 0,
            "slot": "0",
            "type": "t_uint256"
          },
          {
            "astId": 12092,
            "contract": "contracts/routers/CcExchangeRouterLogic.sol:CcExchangeRouterLogic",
            "label": "destinationChain",
            "offset": 0,
            "slot": "1",
            "type": "t_uint256"
          }
        ],
        "numberOfBytes": "64"
      },
      "t_struct(extendedCcExchangeRequest)12134_storage": {
        "encoding": "inplace",
        "label": "struct ICcExchangeRouter.extendedCcExchangeRequest",
        "members": [
          {
            "astId": 12119,
            "contract": "contracts/routers/CcExchangeRouterLogic.sol:CcExchangeRouterLogic",
            "label": "chainId",
            "offset": 0,
            "slot": "0",
            "type": "t_uint256"
          },
          {
            "astId": 12121,
            "contract": "contracts/routers/CcExchangeRouterLogic.sol:CcExchangeRouterLogic",
            "label": "isRequestCompleted",
            "offset": 0,
            "slot": "1",
            "type": "t_bool"
          },
          {
            "astId": 12123,
            "contract": "contracts/routers/CcExchangeRouterLogic.sol:CcExchangeRouterLogic",
            "label": "remainedInputAmount",
            "offset": 0,
            "slot": "2",
            "type": "t_uint256"
          },
          {
            "astId": 12125,
            "contract": "contracts/routers/CcExchangeRouterLogic.sol:CcExchangeRouterLogic",
            "label": "bridgeFee",
            "offset": 0,
            "slot": "3",
            "type": "t_uint256"
          },
          {
            "astId": 12127,
            "contract": "contracts/routers/CcExchangeRouterLogic.sol:CcExchangeRouterLogic",
            "label": "thirdParty",
            "offset": 0,
            "slot": "4",
            "type": "t_uint256"
          },
          {
            "astId": 12129,
            "contract": "contracts/routers/CcExchangeRouterLogic.sol:CcExchangeRouterLogic",
            "label": "protocolFee",
            "offset": 0,
            "slot": "5",
            "type": "t_uint256"
          },
          {
            "astId": 12131,
            "contract": "contracts/routers/CcExchangeRouterLogic.sol:CcExchangeRouterLogic",
            "label": "thirdPartyFee",
            "offset": 0,
            "slot": "6",
            "type": "t_uint256"
          },
          {
            "astId": 12133,
            "contract": "contracts/routers/CcExchangeRouterLogic.sol:CcExchangeRouterLogic",
            "label": "lockerFee",
            "offset": 0,
            "slot": "7",
            "type": "t_uint256"
          }
        ],
        "numberOfBytes": "256"
      },
      "t_uint256": {
        "encoding": "inplace",
        "label": "uint256",
        "numberOfBytes": "32"
      },
      "t_uint8": {
        "encoding": "inplace",
        "label": "uint8",
        "numberOfBytes": "1"
      }
    }
  }
}