{
  "address": "0xc89C8F4c44C45b6De2B14D24F77189225cdf8607",
  "abi": [
    {
      "inputs": [
        {
          "internalType": "bytes",
          "name": "message",
          "type": "bytes"
        },
        {
          "internalType": "bytes32",
          "name": "r",
          "type": "bytes32"
        },
        {
          "internalType": "bytes32",
          "name": "s",
          "type": "bytes32"
        },
        {
          "internalType": "uint8",
          "name": "v",
          "type": "uint8"
        }
      ],
      "name": "_verifySig",
      "outputs": [
        {
          "internalType": "address",
          "name": "",
          "type": "address"
        }
      ],
      "stateMutability": "pure",
      "type": "function"
    }
  ],
  "transactionHash": "0x196b286bef117479c6282a5ebcc1ccd3e8bb803618b2656dd767f89c3c1d148a",
  "args": [],
  "numDeployments": 1,
  "solcInputHash": "2281031960eabb292d982b7cc5b71c3a",
  "bytecode": "0x6130ae61003a600b82828239805160001a60731461002d57634e487b7160e01b600052600060045260246000fd5b30600052607381538281f3fe730000000000000000000000000000000000000000301460806040526004361061004b5760003560e01c806327015de21461005057806328e25ef214610083578063859f6b86146100ae575b600080fd5b81801561005c57600080fd5b5061007061006b366004612b6d565b6100ce565b6040519081526020015b60405180910390f35b610096610091366004612a75565b6104c2565b6040516001600160a01b03909116815260200161007a565b8180156100ba57600080fd5b506100706100c9366004612ada565b6105f3565b6000806100ed8760000151886020015189604001518a606001516109e0565b60008181526020889052604090206007015490915060ff161561012b5760405162461bcd60e51b815260040161012290612e45565b60405180910390fd5b610196604051806101800160405280600081526020016000815260200160008152602001600081526020016000151581526020016000801916815260200160008152602001600015158152602001606081526020016000815260200160008152602001600081525090565b60606101a6896040015187610b46565b6001600160401b0390911660208401528051909150604d146101da5760405162461bcd60e51b815260040161012290612d6a565b60008260200151116101fe5760405162461bcd60e51b815260040161012290612e0e565b61020781610c93565b600084815260208990526040902061ffff91909116905561022781610cae565b61023b9062ffffff1664174876e800612f2e565b60008481526020899052604090206003015561025681610cc9565b600084815260208990526040902060ff9190911660049091015561027981610ce3565b60ff168252600061028982610cf2565b60c01b905061029782610d0d565b6001600160681b031660408401526102ae82610d28565b6001600160681b03166060840152600160808401526102cc82610d38565b60a08401526040805160028082526060820183529091602083019080368337505050610100840181905280516674656c6542544360c81b919060009061032257634e487b7160e01b600052603260045260246000fd5b60200260200101906001600160c01b03191690816001600160c01b031916815250508083610100015160018151811061036b57634e487b7160e01b600052603260045260246000fd5b6001600160c01b031990921660209283029190910190910152600061038f83610d53565b62ffffff16905083602001518111156103ba5760405162461bcd60e51b815260040161012290612dd8565b60c084018190526103ca83610d63565b60ff16610140850152600160e08501818152600087815260208d815260409182902088518155818901519481019490945590870151600284015560608701516003840155608087015160048401805491151560ff1992831617905560a0880151600585015560c088015160068501559151600784018054911515919093161790915561010086015180518793926104689260088501929101906127a8565b506101208201516009820155610140820151600a82015561016090910151600b909101556104978b8887610d72565b6104b35760405162461bcd60e51b815260040161012290612da1565b50929998505050505050505050565b6000808580519060200120905060008160405160200161050d91907b0ca2ba3432b932bab69029b4b3b732b21026b2b9b9b0b3b29d05199960211b8152601c810191909152603c0190565b60408051601f198184030181528282528051602091820120600080855291840180845281905260ff88169284019290925260608301899052608083018890529092509060019060a0016020604051602081039080840390855afa158015610578573d6000803e3d6000fd5b5050604051601f1901519150506001600160a01b0381166105e65760405162461bcd60e51b815260206004820152602260248201527f506f6c79676f6e436f6e6e6563746f724c6f6769633a20496e76616c69642073604482015261696760f01b6064820152608401610122565b925050505b949350505050565b600080610612886000015189602001518a604001518b606001516109e0565b60008181526020899052604090206005015490915060ff16156106475760405162461bcd60e51b815260040161012290612e45565b6106b160405180610160016040528060008152602001600081526020016000815260200160001515815260200160006001600160a01b0316815260200160008152602001600015158152602001606081526020016000815260200160008152602001600081525090565b60606106c18a6040015187610e60565b6001600160401b03909116602084015280519091506041146106f55760405162461bcd60e51b815260040161012290612d6a565b60008260200151116107195760405162461bcd60e51b815260040161012290612e0e565b61072281610c93565b600084815260208a90526040902061ffff91909116905561074281610f9a565b6107569062ffffff1664174876e800612f2e565b600084815260208a9052604090206003015561077181610faa565b600084815260208a90526040902060ff9190911660049091015561079481610ce3565b60ff16825260006107a482610fb9565b90506107af82610fd4565b6001600160701b03166040840152600160608401526107cd82610fef565b6001600160a01b03166080840152604080516002808252606082018352909160208301908036833750505060e08401819052805189919060009061082157634e487b7160e01b600052603260045260246000fd5b60200260200101906001600160a01b031690816001600160a01b031681525050808360e0015160018151811061086757634e487b7160e01b600052603260045260246000fd5b60200260200101906001600160a01b031690816001600160a01b031681525050600061089283610fff565b62ffffff16905083602001518111156108bd5760405162461bcd60e51b815260040161012290612dd8565b60a084018190526108cd8361100f565b60ff16610120850152600160c08501818152600087815260208e8152604091829020885181558189015194810194909455908701516002840155606087015160038401805460808a01516001600160a01b031661010002610100600160a81b0319931515939093166001600160a81b03199091161791909117905560a08701516004840155905160058301805491151560ff199290921691909117905560e08601518051879392610985926006850192910190612856565b5061010082015160078201556101208201516008820155610140909101516009909101556109b48c8887610d72565b6109d05760405162461bcd60e51b815260040161012290612da1565b50929a9950505050505050505050565b6000806109f76109f2825b879061101e565b611044565b9050610a0862ffffff19821661119a565b15610a525760405162461bcd60e51b815260206004820152601a602482015279109a5d18dbda5b92195b1c195c8e881d9a5b881a5cc81b9d5b1b60321b6044820152606401610122565b6000600287878787604051602001610a6d9493929190612c1d565b60408051601f1981840301815290829052610a8791612c70565b602060405180830381855afa158015610aa4573d6000803e3d6000fd5b5050506040513d601f19601f82011682018060405250810190610ac79190612a5d565b90506000600282604051602001610ae091815260200190565b60408051601f1981840301815290829052610afa91612c70565b602060405180830381855afa158015610b17573d6000803e3d6000fd5b5050506040513d601f19601f82011682018060405250810190610b3a9190612a5d565b98975050505050505050565b6000606081610b5c610b57826109eb565b6111a6565b9050610b6d62ffffff19821661119a565b15610b8a5760405162461bcd60e51b815260040161012290612cfe565b6000806000806000610b9d8660006112a7565b6001600160401b0316905060005b81811015610c8557610bbd87826113f0565b9550610bc886611515565b9450610bd386611572565b9350610bde846115bc565b925062ffffff198084161415610c615789604051602001610bff9190612c70565b60405160208183030381529060405280519060200120610c248662ffffff19166116b2565b604051602001610c349190612c70565b604051602081830303815290604052805190602001201415610c5c57610c59866116f8565b98505b610c73565b610c7062ffffff1984166116b2565b97505b80610c7d81613008565b915050610bab565b505050505050509250929050565b600080610ca3836000600161171d565b600201519392505050565b600080610cbe83604a604c61171d565b600301519392505050565b600080610cd88360278061171d565b600101519392505050565b600080610cd88360028061171d565b600080610d02836028602f61171d565b600801519392505050565b600080610d1d836030603c61171d565b600d01519392505050565b600080610d1d83603d604961171d565b600080610d48836003602261171d565b602001519392505050565b600080610cbe836023602561171d565b600080610cd88360268061171d565b600080610d838486608001516117a2565b905080341015610dd25760405162461bcd60e51b815260206004820152601a60248201527945786368616e6765526f757465724c69623a206c6f772066656560301b6044820152606401610122565b6000610e2b858588608001518960a001518a60c00151604051602401610dfb9493929190612cbb565b60408051601f198184030181529190526020810180516001600160e01b0316634354da2560e01b17905284611824565b9050610e4033610e3b8434612f76565b61184a565b80806020019051810190610e549190612a3d565b925050505b9392505050565b6000606081610e71610b57826109eb565b9050610e8262ffffff19821661119a565b15610e9f5760405162461bcd60e51b815260040161012290612cfe565b6000806000806000610eb28660006112a7565b6001600160401b0316905060005b81811015610c8557610ed287826113f0565b9550610edd86611515565b9450610ee886611572565b9350610ef384611965565b925062ffffff198084161415610f765789604051602001610f149190612c70565b60405160208183030381529060405280519060200120610f398662ffffff19166116b2565b604051602001610f499190612c70565b604051602081830303815290604052805190602001201415610f7157610f6e866116f8565b98505b610f88565b610f8562ffffff1984166116b2565b97505b80610f9281613008565b915050610ec0565b600080610cbe83603e604061171d565b600080610cd883601b8061171d565b600080610fc983601c602f61171d565b601401519392505050565b600080610fe4836030603d61171d565b600e01519392505050565b600080610fc9836003601661171d565b600080610cbe836017601961171d565b600080610cd883601a8061171d565b81516000906020840161103964ffffffffff85168284611a46565b925050505b92915050565b6000818161105a815b62ffffff19841690611a8a565b5061106a62ffffff198516611b64565b6001600160601b03166110865761107f611b73565b9250611193565b60006110938560006112a7565b905060006110a662ffffff198716611b64565b6001600160601b031690506001600160401b0382166110d0576110c7611b73565b94505050611193565b60006110db83611b7b565b60ff16905060005b836001600160401b03168110156111595782821061110e57611103611b73565b965050505050611193565b600061112e61111d8486612f76565b60055b62ffffff198c169190611bd9565b905061113981611c03565b6111439084612ea4565b925050808061115190613008565b9150506110e3565b5081811461117357611169611b73565b9550505050611193565b61118d60065b60d81b6301000000600160d81b0389161790565b95505050505b5050919050565b62ffffff199081161490565b600081816111b38161104d565b506111c362ffffff198516611b64565b6001600160601b03166111d85761107f611b73565b60006111e58560006112a7565b905060006111f862ffffff198716611b64565b6001600160601b031690506001600160401b038216611219576110c7611b73565b600061122483611b7b565b60ff16905060005b836001600160401b031681101561128d5782821061124c57611103611b73565b600061126261125b8486612f76565b600e611120565b905061126d81611c57565b6112779084612ea4565b925050808061128590613008565b91505061122c565b5081811461129d57611169611b73565b61118d600f611179565b6000806112bc62ffffff198516846001611ca0565b905060fc81116112d7576112cf81611cd0565b91505061103e565b8060fd141561133d576113056113006112f1856001612ea4565b62ffffff198716906002611d3c565b611cd0565b915061131082611b7b565b60ff166003146113385761133661133162ffffff1986168560036000611e7f565b611ee5565b505b6113e9565b8060fe141561139257611366611300611357856001612ea4565b62ffffff198716906004611d3c565b915061137182611b7b565b60ff166005146113385761133661133162ffffff1986168560056000611e7f565b8060ff14156113e9576113bb6113006113ac856001612ea4565b62ffffff198716906008611d3c565b91506113c682611b7b565b60ff166009146113e9576113e761133162ffffff1986168560096000611e7f565b505b5092915050565b600082600f6113fe8161104d565b50600061140c8660006112a7565b6001600160401b03169050600061142862ffffff198816611b64565b6001600160601b031690508186106114765760405162461bcd60e51b81526020600482015260116024820152702b37baba103932b0b21037bb32b9393ab760791b6044820152606401610122565b600061148183611b7b565b60ff1690506000805b888110156114d7576114ae61149f8486612f76565b62ffffff198c1690600e611bd9565b91506114b982611c57565b6114c39084612ea4565b92506114d0600182612ea4565b905061148a565b506114e561125b8385612f76565b905060006114f282611c57565b905061150762ffffff198b168483600d611e7f565b9a9950505050505050505050565b600081600d6115238161104d565b5060006115318560086112a7565b905061156961153f82611b7b565b61154a906008612ee7565b60ff166001600160401b03831660075b62ffffff198916929190611e7f565b95945050505050565b600081600d6115808161104d565b50600061158e8560086112a7565b905061156960088261159f84611b7b565b60ff166115ac9190612ebc565b6001600160401b0316600761155a565b60008160076115ca8161104d565b5060006115d88560006112a7565b905060006115f261130062ffffff19881660036001611ca0565b905061160662ffffff198716600180611ca0565b606a14158061163a575061161b600383612f8d565b6001600160401b031661163762ffffff19881660036001611ca0565b14155b15611647576110c7611b73565b6053826001600160401b03161115801561166b57506004826001600160401b031610155b6116875760405162461bcd60e51b815260040161012290612d33565b6116a860046001600160401b038316600c5b62ffffff198a16929190611e7f565b9695505050505050565b60606000806116c084611b64565b60405193508392506001600160601b031690506116e7846116e2846020612ea4565b611f6d565b508181016020016040529052919050565b600081600d6117068161104d565b506105eb61130062ffffff19861660006008611d3c565b60606000835b61172e846001612ea4565b8110156117995785818151811061175557634e487b7160e01b600052603260045260246000fd5b602001015160f81c60f81b91508282604051602001611775929190612c8c565b6040516020818303038152906040529250808061179190613008565b915050611723565b50509392505050565b60405163d0a8973960e01b815260048101829052600060248201819052906001600160a01b0384169063d0a897399060440160206040518083038186803b1580156117ec57600080fd5b505afa158015611800573d6000803e3d6000fd5b505050506040513d601f19601f82011682018060405250810190610e599190612a5d565b60606105eb848484604051806060016040528060298152602001613050602991396120b0565b8047101561189a5760405162461bcd60e51b815260206004820152601d60248201527f416464726573733a20696e73756666696369656e742062616c616e63650000006044820152606401610122565b6000826001600160a01b03168260405160006040518083038185875af1925050503d80600081146118e7576040519150601f19603f3d011682016040523d82523d6000602084013e6118ec565b606091505b50509050806119605760405162461bcd60e51b815260206004820152603a60248201527f416464726573733a20756e61626c6520746f2073656e642076616c75652c20726044820152791958da5c1a595b9d081b585e481a185d99481c995d995c9d195960321b6064820152608401610122565b505050565b60008160076119738161104d565b5060006119818560006112a7565b9050600061199b61130062ffffff19881660026001611ca0565b90506119af62ffffff198716600180611ca0565b606a1415806119e357506119c4600283612f8d565b6001600160401b03166119e062ffffff19881660026001611ca0565b14155b156119f0576110c7611b73565b604d826001600160401b031611158015611a1457506004826001600160401b031610155b611a305760405162461bcd60e51b815260040161012290612d33565b6116a860036001600160401b038316600c611699565b600080611a538385612ea4565b9050604051811115611a63575060005b80611a755762ffffff19915050610e59565b5050606092831b9190911790911b1760181b90565b6000611a9683836121cd565b611b5d576000611ab5611aa98560d81c90565b64ffffffffff166121f0565b9150506000611aca8464ffffffffff166121f0565b6040517f5479706520617373657274696f6e206661696c65642e20476f7420307800000060208201526001600160b01b031960b086811b8216603d8401526c05c408af0e0cac6e8cac84060f609b1b604784015283901b16605482015290925060009150605e015b60405160208183030381529060405290508060405162461bcd60e51b81526004016101229190612ceb565b5090919050565b60181c6001600160601b031690565b62ffffff1990565b600060fc826001600160401b031611611b9657506001919050565b61ffff826001600160401b031611611bb057506003919050565b63ffffffff826001600160401b031611611bcc57506005919050565b506009919050565b919050565b60006105eb8484611be987611b64565b6001600160601b0316611bfc9190612f76565b8585611e7f565b6000816005611c118161104d565b506000611c1f8560246112a7565b9050806001600160401b0316611c3482611b7b565b60ff16611c419190612ea4565b611c4c906024612ea4565b611569906004612ea4565b600081600e611c658161104d565b506000611c738560086112a7565b9050806001600160401b0316611c8882611b7b565b60ff16611c959190612ea4565b611569906008612ea4565b6000611cad826020612fb5565b611cb8906008612f4d565b60ff16611cc685858561229c565b901c949350505050565b60006001600160401b03821115611d385760405162461bcd60e51b815260206004820152602660248201527f53616665436173743a2076616c756520646f65736e27742066697420696e203660448201526534206269747360d01b6064820152608401610122565b5090565b60006105eb611d4c85858561229c565b60008190506008817eff00ff00ff00ff00ff00ff00ff00ff00ff00ff00ff00ff00ff00ff00ff00ff16901b600882901c7eff00ff00ff00ff00ff00ff00ff00ff00ff00ff00ff00ff00ff00ff00ff00ff161790506010817dffff0000ffff0000ffff0000ffff0000ffff0000ffff0000ffff0000ffff16901b601082901c7dffff0000ffff0000ffff0000ffff0000ffff0000ffff0000ffff0000ffff161790506020817bffffffff00000000ffffffff00000000ffffffff00000000ffffffff16901b602082901c7bffffffff00000000ffffffff00000000ffffffff00000000ffffffff161790506040816001600160401b03600160801b03600160c01b0316901b604082901c6001600160401b03600160801b03600160c01b0316179050608081901b608082901c179050919050565b600080611e8b866123ca565b6001600160601b03169050611e9f866123d9565b84611eaa8784612ea4565b611eb49190612ea4565b1115611ec75762ffffff199150506105eb565b611ed18582612ea4565b90506116a88364ffffffffff168286611a46565b60606000611f23611f1e82611f10611f0262ffffff198816611b64565b6001600160601b0316612406565b62ffffff1987169190611ca0565b6121f0565b6040517a09cdedc5adad2dcd2dac2d840ecc2e440d2dce85c408edee84060f602b1b60208201526001600160701b0319607083901b16603b82015290925060009150604d01611b32565b6000611f7883612467565b611fd55760405162461bcd60e51b815260206004820152602860248201527f54797065644d656d566965772f636f7079546f202d204e756c6c20706f696e7460448201526732b9103232b932b360c11b6064820152608401610122565b611fde83612479565b61203e5760405162461bcd60e51b815260206004820152602b60248201527f54797065644d656d566965772f636f7079546f202d20496e76616c696420706f60448201526a34b73a32b9103232b932b360a91b6064820152608401610122565b600061204984611b64565b6001600160601b03169050600061205f856123ca565b6001600160601b03169050600060405190508481111561207f5760206060fd5b8285848460045afa506116a86120958760d81c90565b64ffffffffff60601b606091821b168717901b841760181b90565b6060824710156121115760405162461bcd60e51b815260206004820152602660248201527f416464726573733a20696e73756666696369656e742062616c616e636520666f6044820152651c8818d85b1b60d21b6064820152608401610122565b843b61215f5760405162461bcd60e51b815260206004820152601d60248201527f416464726573733a2063616c6c20746f206e6f6e2d636f6e74726163740000006044820152606401610122565b600080866001600160a01b0316858760405161217b9190612c70565b60006040518083038185875af1925050503d80600081146121b8576040519150601f19603f3d011682016040523d82523d6000602084013e6121bd565b606091505b50915091506105e68282866124b7565b60008164ffffffffff166121e18460d81c90565b64ffffffffff16149392505050565b600080601f5b600f8160ff16111561224e57600061220f826008612f4d565b60ff1685901c9050612220816124f0565b61ffff16841793508160ff1660101461223b57601084901b93505b50612247600182612fb5565b90506121f6565b50600f5b60ff8160ff1610156122965760ff600882021684901c612271816124f0565b61ffff16831792508160ff1660001461228c57601083901b92505b5060001901612252565b50915091565b600060ff82166122ae57506000610e59565b6122b784611b64565b6001600160601b03166122cd60ff841685612ea4565b111561231d576123046122df856123ca565b6001600160601b03166122f186611b64565b6001600160601b0316858560ff16612522565b60405162461bcd60e51b81526004016101229190612ceb565b60208260ff1611156123945760405162461bcd60e51b815260206004820152603a60248201527f54797065644d656d566965772f696e646578202d20417474656d7074656420746044820152796f20696e646578206d6f7265207468616e20333220627974657360301b6064820152608401610122565b6008820260006123a3866123ca565b6001600160601b031690506000600160ff1b60001984011d91909501511695945050505050565b60781c6001600160601b031690565b60006123e482611b64565b6123ed836123ca565b6123f79190612f0c565b6001600160601b031692915050565b600060ff821115611d385760405162461bcd60e51b815260206004820152602560248201527f53616665436173743a2076616c756520646f65736e27742066697420696e2038604482015264206269747360d81b6064820152608401610122565b60006124728261119a565b1592915050565b60006124858260d81c90565b64ffffffffff1664ffffffffff14156124a057506000919050565b60006124ab836123d9565b60405110199392505050565b606083156124c6575081610e59565b8251156124d65782518084602001fd5b8160405162461bcd60e51b81526004016101229190612ceb565b600061250260048360ff16901c61264c565b60ff1661ffff919091161760081b6125198261264c565b60ff1617919050565b6060600061252f866121f0565b915050600061253d866121f0565b915050600061254b866121f0565b9150506000612559866121f0565b604080517f54797065644d656d566965772f696e646578202d204f76657272616e20746865602082015274040ecd2caee5c40a6d8d2c6ca40d2e640c2e84060f605b1b818301526001600160d01b031960d098891b811660558301526e040eed2e8d040d8cadccee8d04060f608b1b605b830181905297891b8116606a8301527f2e20417474656d7074656420746f20696e646578206174206f666673657420306070830152600f60fb1b609083015295881b861660918201526097810196909652951b90921660a68401525050601760f91b60ac8201528151808203608d01815260ad90910190915295945050505050565b600060f08083179060ff821614156126675750603092915050565b8060ff1660f1141561267c5750603192915050565b8060ff1660f214156126915750603292915050565b8060ff1660f314156126a65750603392915050565b8060ff1660f414156126bb5750603492915050565b8060ff1660f514156126d05750603592915050565b8060ff1660f614156126e55750603692915050565b8060ff1660f714156126fa5750603792915050565b8060ff1660f8141561270f5750603892915050565b8060ff1660f914156127245750603992915050565b8060ff1660fa14156127395750606192915050565b8060ff1660fb141561274e5750606292915050565b8060ff1660fc14156127635750606392915050565b8060ff1660fd14156127785750606492915050565b8060ff1660fe141561278d5750606592915050565b8060ff1660ff14156127a25750606692915050565b50919050565b8280548282559060005260206000209060030160049004810192821561284a5791602002820160005b8382111561281557835183826101000a8154816001600160401b03021916908360c01c021790555092602001926008016020816007010492830192600103026127d1565b80156128485782816101000a8154906001600160401b030219169055600801602081600701049283019260010302612815565b505b50611d389291506128ab565b82805482825590600052602060002090810192821561284a579160200282015b8281111561284a57825182546001600160a01b0319166001600160a01b03909116178255602090920191600190910190612876565b5b80821115611d3857600081556001016128ac565b80356001600160a01b0381168114611bd457600080fd5b80356001600160e01b031981168114611bd457600080fd5b600082601f8301126128ff578081fd5b81356001600160401b038082111561291957612919613039565b604051601f8301601f19908116603f0116810190828211818310171561294157612941613039565b81604052838152866020858801011115612959578485fd5b8360208701602083013792830160200193909352509392505050565b600060e08284031215612986578081fd5b61298e612e7c565b9050612999826128d7565b815260208201356001600160401b03808211156129b557600080fd5b6129c1858386016128ef565b602084015260408401359150808211156129da57600080fd5b6129e6858386016128ef565b60408401526129f7606085016128d7565b60608401526080840135608084015260a0840135915080821115612a1a57600080fd5b50612a27848285016128ef565b60a08301525060c082013560c082015292915050565b600060208284031215612a4e578081fd5b81518015158114610e59578182fd5b600060208284031215612a6e578081fd5b5051919050565b60008060008060808587031215612a8a578283fd5b84356001600160401b03811115612a9f578384fd5b612aab878288016128ef565b9450506020850135925060408501359150606085013560ff81168114612acf578182fd5b939692955090935050565b60008060008060008060c08789031215612af2578182fd5b86356001600160401b0380821115612b08578384fd5b612b148a838b01612975565b97506020890135965060408901359550612b3060608a016128c0565b94506080890135915080821115612b45578384fd5b50612b5289828a016128ef565b925050612b6160a088016128c0565b90509295509295509295565b600080600080600060a08688031215612b84578081fd5b85356001600160401b0380821115612b9a578283fd5b612ba689838a01612975565b965060208801359550604088013594506060880135915080821115612bc9578283fd5b50612bd6888289016128ef565b925050612be5608087016128c0565b90509295509295909350565b60008151808452612c09816020860160208601612fd8565b601f01601f19169290920160200192915050565b600063ffffffff60e01b80871683528551612c3f816004860160208a01612fd8565b855190840190612c56816004840160208a01612fd8565b919094169301600481019390935250506008019392505050565b60008251612c82818460208701612fd8565b9190910192915050565b60008351612c9e818460208801612fd8565b6001600160f81b0319939093169190920190815260010192915050565b848152836020820152608060408201526000612cda6080830185612bf1565b905082606083015295945050505050565b602081526000610e596020830184612bf1565b6020808252601b908201527a109a5d18dbda5b92195b1c195c8e881d9bdd5d081a5cc81b9d5b1b602a1b604082015260600190565b6020808252601f908201527f426974636f696e48656c7065723a20696e76616c6964206f7072657475726e00604082015260600190565b6020808252601e908201527f45786368616e6765526f757465724c69623a20696e76616c6964206c656e0000604082015260600190565b6020808252601d908201527f45786368616e6765526f757465723a206e6f742066696e616c697a6564000000604082015260600190565b6020808252601c908201527b45786368616e6765526f757465724c69623a2077726f6e672066656560201b604082015260600190565b6020808252601d908201527f45786368616e6765526f757465724c69623a207a65726f20696e707574000000604082015260600190565b6020808252601f908201527f45786368616e6765526f757465724c69623a20616c7265616479207573656400604082015260600190565b60405160e081016001600160401b0381118282101715612e9e57612e9e613039565b60405290565b60008219821115612eb757612eb7613023565b500190565b60006001600160401b03828116848216808303821115612ede57612ede613023565b01949350505050565b600060ff821660ff84168060ff03821115612f0457612f04613023565b019392505050565b60006001600160601b03828116848216808303821115612ede57612ede613023565b6000816000190483118215151615612f4857612f48613023565b500290565b600060ff821660ff84168160ff0481118215151615612f6e57612f6e613023565b029392505050565b600082821015612f8857612f88613023565b500390565b60006001600160401b0383811690831681811015612fad57612fad613023565b039392505050565b600060ff821660ff841680821015612fcf57612fcf613023565b90039392505050565b60005b83811015612ff3578181015183820152602001612fdb565b83811115613002576000848401525b50505050565b600060001982141561301c5761301c613023565b5060010190565b634e487b7160e01b600052601160045260246000fd5b634e487b7160e01b600052604160045260246000fdfe416464726573733a206c6f772d6c6576656c2063616c6c20776974682076616c7565206661696c6564a26469706673582212203b527f323a7331996bda0e80b307914cd418e097bd08a113677056c0f67b025c64736f6c63430008040033",
  "devdoc": {
    "kind": "dev",
    "methods": {
      "_verifySig(bytes,bytes32,bytes32,uint8)": {
        "returns": {
          "_0": "_signer Address of message signer (if signature is valid)"
        }
      }
    },
    "version": 1
  },
  "userdoc": {
    "kind": "user",
    "methods": {
      "_verifySig(bytes,bytes32,bytes32,uint8)": {
        "notice": "Verifies the signature of _msgHash"
      },
      "ccExchangeHelper(ICcExchangeRouter.TxAndProof,mapping(bytes32 => ICcExchangeRouter.ccExchangeRequest) storage,mapping(bytes32 => ICcExchangeRouter.extendedCcExchangeRequest) storage,address,bytes,address)": {
        "notice": "Parses and stores exchange request if it's valid"
      },
      "ccExchangeToSolanaHelper(ICcExchangeRouter.TxAndProof,mapping(bytes32 => ICcExchangeRouter.ccExchangeToSolanaRequest) storage,mapping(bytes32 => ICcExchangeRouter.extendedCcExchangeRequest) storage,bytes,address)": {
        "notice": "Parses and stores exchange request if it's valid for Solana requests"
      }
    },
    "version": 1
  },
  "storageLayout": {
    "storage": [],
    "types": null
  }
}