{
  "address": "0x8A8841298eBe5e97BCFc35B879ae3fa5a95433f6",
  "abi": [
    {
      "inputs": [
        {
          "internalType": "uint256[2]",
          "name": "_pA",
          "type": "uint256[2]"
        },
        {
          "internalType": "uint256[2][2]",
          "name": "_pB",
          "type": "uint256[2][2]"
        },
        {
          "internalType": "uint256[2]",
          "name": "_pC",
          "type": "uint256[2]"
        },
        {
          "internalType": "uint256[7]",
          "name": "_pubSignals",
          "type": "uint256[7]"
        }
      ],
      "name": "verifyProof",
      "outputs": [
        {
          "internalType": "bool",
          "name": "",
          "type": "bool"
        }
      ],
      "stateMutability": "view",
      "type": "function"
    }
  ],
  "transactionHash": "0x396f1d14aeaec38ee9afc5d6800838528a2fd6751ace30acfdd50f44eb67596a",
  "args": [],
  "numDeployments": 1,
  "solcInputHash": "19cf5ea38693885ab4c54345920021d5",
  "bytecode": "0x608060405234801561001057600080fd5b50610789806100206000396000f3fe608060405234801561001057600080fd5b506004361061002b5760003560e01c8063c894e75714610030575b600080fd5b61004361003e3660046106ed565b610057565b604051901515815260200160405180910390f35b6000610658565b7f30644e72e131a029b85045b68181585d2833e84879b9709143e1f593f0000001811061008f576000805260206000f35b50565b600060405183815284602082015285604082015260408160608360076107d05a03fa9150816100c5576000805260206000f35b825160408201526020830151606082015260408360808360066107d05a03fa915050806100f6576000805260206000f35b5050505050565b7f15895250f4ecc16f3ba74b24eef27033519dcdb004b2174482a20618a9ff206485527f2ba6d53e5c6c4e8af4b1bb770b3451ce04d2dcb32a995cd6c1f9ce829dae675560208601526000608086018661019a87357f2045b3d6d181a545b65a0b972c4c191e6ac683b7f27ed756b6d5b194c27256fd7f14cd2497527d9377447a16460bd17e10253adb29a2aaad09c2714c0fcd91fb8384610092565b6101ea60208801357f2ab78620bffd796c01ed16fb9f801577983557e4b580388faaf52efc29c54cc77f16fbbbef34a8cdf6e732779eeb06b04c2f21fc766f97d8cb209deb9cbd9f848884610092565b61023960408801357e5036f95be57fd1cc7d0a30c733946754d5a07c4b2cc6e747959251480f4dac7f2082e98ee58aa107a3c94ab30be541948fe39248f3c4d718ab66e1446947de2084610092565b61028960608801357f08f93e935b67ab92a07ff33bb355581ec7566ea004d7dec6647d2b6f90751bb37f219e60ae484ab678521fd404d2174d24a355f3b052136e026df4317272e3bbd684610092565b6102d960808801357f2bea162a0089d3d8726d513fae9110445d329bbc5fee79cd29f71f7638784a387f17368e29a8349d1a18f6c1840dffe455ce51de604df84e2f0360d18101b8f41284610092565b61032960a08801357f13943b8c77fc0eb6dee15faec1c562969dcac2a7de854e88970d001634bb2fb57f281fcc8393ab4a4e85176e56be586342426f7f43971821d824fd203d28a445bd84610092565b61037960c08801357f208410b49baac75ac0740cd666678d77828a14228e38c5a2e142122a1eb93ab67f17ba9744a551e44dd4f6fcd6341bb84dcbc74d9a845e3839ddc5517b5660353284610092565b50823581527f30644e72e131a029b85045b68181585d97816a916871ca8d3c208c16d87cfd4760208401357f30644e72e131a029b85045b68181585d97816a916871ca8d3c208c16d87cfd4703066020820152833560408201526020840135606082015260408401356080820152606084013560a08201527f2d4d9aa7e302d9df41749d5507949d05dbea33fbb16c643b22f599a2be6df2e260c08201527f14bedd503c37ceb061d8ec60209fe345ce89830a19230301f076caff004d192660e08201527f0967032fcbf776d1afc985f88877f182d38480a653f2decaa9794cbc3bf3060c6101008201527f0e187847ad4c798374d0d6732bf501847dd68bc0e071241e0213bc7fc13db7ab6101208201527f304cfbd1e08a704a99f5e847d93f8c3caafddec46b7a0d379da69a4d112346a76101408201527f1739c1b1a457a8c7313123d24d2f9192f896b7c63eea05a9d57f06547ad0cec8610160820152600087015161018082015260206000018701516101a08201527f198e9393920d483a7260bfb731fb5d25f1aa493335a9e71297e485b7aef312c26101c08201527f1800deef121f1e76426a00665e5c4479674322d4f75edadd46debd5cd992f6ed6101e08201527f090689d0585ff075ec9e99ad690c3395bc4b313370b38ef355acdadcd122975b6102008201527f12c85ea5db8c6deb4aab71808dcb408fe3d1e7690c43d37b4ce6cc0166fa7daa610220820152843561024082015260208501356102608201527ef8996e2ed9dd2cd8a425ad2fdea0cc4c33842295d7490a045a513ce57a9b466102808201527f0c4f6a76a3ddf8e6273342e3a8f04edffc87e26ef5576dc96284d522bfdf1cb26102a08201527f02ad9af41042ad11f428b41164d2e3d85c4f22a906ea0194cf78754518f6ed876102c08201527f07c1125c0b39799355aea80e3744d153997d5b1b56e1c9ac98bfa167000aedef6102e08201526020816103008360086107d05a03fa9051169695505050505050565b6040516103808101604052610670600084013561005e565b61067d602084013561005e565b61068a604084013561005e565b610697606084013561005e565b6106a4608084013561005e565b6106b160a084013561005e565b6106be60c084013561005e565b6106cb818486888a6100fd565b600090815260209150f35b80604081018310156106e757600080fd5b92915050565b6000806000806101e080868803121561070557600080fd5b61070f87876106d6565b945060c086018781111561072257600080fd5b60408701945061073288826106d6565b93505086818701111561074457600080fd5b5092959194509261010001915056fea26469706673582212200e8b38a6e6594aff94a98fb84a83c146f65ccfee7d78e3967d00c9150f4d8e3864736f6c63430008090033",
  "devdoc": {
    "kind": "dev",
    "methods": {},
    "version": 1
  },
  "userdoc": {
    "kind": "user",
    "methods": {},
    "version": 1
  },
  "storageLayout": {
    "storage": [],
    "types": null
  }
}