{
  "address": "0x71b6A9c55F4a0851f2aC694d00e7d4A5c0Bfe0EC",
  "abi": [
    {
      "inputs": [],
      "name": "ZeroAddress",
      "type": "error"
    },
    {
      "anonymous": false,
      "inputs": [
        {
          "indexed": false,
          "internalType": "address",
          "name": "oldAcross",
          "type": "address"
        },
        {
          "indexed": false,
          "internalType": "address",
          "name": "newAcross",
          "type": "address"
        }
      ],
      "name": "AcrossUpdated",
      "type": "event"
    },
    {
      "anonymous": false,
      "inputs": [
        {
          "indexed": false,
          "internalType": "address",
          "name": "oldBurnRouter",
          "type": "address"
        },
        {
          "indexed": false,
          "internalType": "address",
          "name": "newBurnRouter",
          "type": "address"
        }
      ],
      "name": "BurnRouterUpdated",
      "type": "event"
    },
    {
      "anonymous": false,
      "inputs": [
        {
          "indexed": false,
          "internalType": "address",
          "name": "oldEthConnector",
          "type": "address"
        },
        {
          "indexed": false,
          "internalType": "address",
          "name": "newEthConnector",
          "type": "address"
        }
      ],
      "name": "EthConnectorUpdated",
      "type": "event"
    },
    {
      "anonymous": false,
      "inputs": [
        {
          "indexed": false,
          "internalType": "uint256",
          "name": "uniqueCounter",
          "type": "uint256"
        },
        {
          "indexed": false,
          "internalType": "uint256",
          "name": "chainId",
          "type": "uint256"
        },
        {
          "indexed": false,
          "internalType": "address",
          "name": "exchangeConnector",
          "type": "address"
        },
        {
          "indexed": false,
          "internalType": "address",
          "name": "inputToken",
          "type": "address"
        },
        {
          "indexed": false,
          "internalType": "uint256",
          "name": "inputAmount",
          "type": "uint256"
        },
        {
          "indexed": true,
          "internalType": "address",
          "name": "userTargetAddress",
          "type": "address"
        },
        {
          "indexed": false,
          "internalType": "bytes",
          "name": "userScript",
          "type": "bytes"
        },
        {
          "indexed": false,
          "internalType": "enum ScriptTypes",
          "name": "scriptType",
          "type": "uint8"
        },
        {
          "indexed": false,
          "internalType": "address[]",
          "name": "path",
          "type": "address[]"
        },
        {
          "indexed": false,
          "internalType": "uint256",
          "name": "thirdPartyId",
          "type": "uint256"
        }
      ],
      "name": "FailedSwapAndUnwrap",
      "type": "event"
    },
    {
      "anonymous": false,
      "inputs": [
        {
          "indexed": false,
          "internalType": "uint256",
          "name": "uniqueCounter",
          "type": "uint256"
        },
        {
          "indexed": false,
          "internalType": "uint256",
          "name": "chainId",
          "type": "uint256"
        },
        {
          "indexed": true,
          "internalType": "address",
          "name": "userTargetAddress",
          "type": "address"
        },
        {
          "indexed": false,
          "internalType": "uint256",
          "name": "thirdPartyId",
          "type": "uint256"
        },
        {
          "indexed": false,
          "internalType": "uint256",
          "name": "internalId",
          "type": "uint256"
        },
        {
          "indexed": false,
          "internalType": "uint256",
          "name": "appId",
          "type": "uint256"
        },
        {
          "indexed": false,
          "internalType": "uint256",
          "name": "amount",
          "type": "uint256"
        },
        {
          "indexed": false,
          "internalType": "uint256",
          "name": "inputAmount",
          "type": "uint256"
        },
        {
          "indexed": false,
          "internalType": "address[]",
          "name": "path",
          "type": "address[]"
        },
        {
          "indexed": false,
          "internalType": "bytes",
          "name": "userScript",
          "type": "bytes"
        },
        {
          "indexed": false,
          "internalType": "enum ScriptTypes",
          "name": "scriptType",
          "type": "uint8"
        }
      ],
      "name": "FailedSwapAndUnwrapRune",
      "type": "event"
    },
    {
      "anonymous": false,
      "inputs": [
        {
          "indexed": false,
          "internalType": "uint256",
          "name": "uniqueCounter",
          "type": "uint256"
        },
        {
          "indexed": false,
          "internalType": "uint256",
          "name": "chainId",
          "type": "uint256"
        },
        {
          "indexed": false,
          "internalType": "address",
          "name": "exchangeConnector",
          "type": "address"
        },
        {
          "indexed": false,
          "internalType": "address",
          "name": "inputToken",
          "type": "address"
        },
        {
          "indexed": false,
          "internalType": "uint256",
          "name": "inputAmount",
          "type": "uint256"
        },
        {
          "indexed": true,
          "internalType": "bytes32",
          "name": "userTargetAddress",
          "type": "bytes32"
        },
        {
          "indexed": false,
          "internalType": "bytes",
          "name": "userScript",
          "type": "bytes"
        },
        {
          "indexed": false,
          "internalType": "enum ScriptTypes",
          "name": "scriptType",
          "type": "uint8"
        },
        {
          "indexed": false,
          "internalType": "address[]",
          "name": "path",
          "type": "address[]"
        },
        {
          "indexed": false,
          "internalType": "uint256",
          "name": "thirdPartyId",
          "type": "uint256"
        }
      ],
      "name": "FailedSwapAndUnwrapV2",
      "type": "event"
    },
    {
      "anonymous": false,
      "inputs": [
        {
          "indexed": false,
          "internalType": "uint8",
          "name": "version",
          "type": "uint8"
        }
      ],
      "name": "Initialized",
      "type": "event"
    },
    {
      "anonymous": false,
      "inputs": [
        {
          "indexed": false,
          "internalType": "address",
          "name": "oldLockersProxy",
          "type": "address"
        },
        {
          "indexed": false,
          "internalType": "address",
          "name": "newLockersProxy",
          "type": "address"
        }
      ],
      "name": "LockersProxyUpdated",
      "type": "event"
    },
    {
      "anonymous": false,
      "inputs": [
        {
          "indexed": false,
          "internalType": "string",
          "name": "functionName",
          "type": "string"
        },
        {
          "indexed": false,
          "internalType": "uint256",
          "name": "uniqueCounter",
          "type": "uint256"
        },
        {
          "indexed": false,
          "internalType": "uint256",
          "name": "chainId",
          "type": "uint256"
        },
        {
          "indexed": false,
          "internalType": "bytes",
          "name": "data",
          "type": "bytes"
        }
      ],
      "name": "MsgReceived",
      "type": "event"
    },
    {
      "anonymous": false,
      "inputs": [
        {
          "indexed": false,
          "internalType": "uint256",
          "name": "uniqueCounter",
          "type": "uint256"
        },
        {
          "indexed": false,
          "internalType": "uint256",
          "name": "chainId",
          "type": "uint256"
        },
        {
          "indexed": false,
          "internalType": "address",
          "name": "exchangeConnector",
          "type": "address"
        },
        {
          "indexed": false,
          "internalType": "address",
          "name": "inputToken",
          "type": "address"
        },
        {
          "indexed": false,
          "internalType": "uint256",
          "name": "inputAmount",
          "type": "uint256"
        },
        {
          "indexed": true,
          "internalType": "address",
          "name": "userTargetAddress",
          "type": "address"
        },
        {
          "indexed": false,
          "internalType": "bytes",
          "name": "userScript",
          "type": "bytes"
        },
        {
          "indexed": false,
          "internalType": "enum ScriptTypes",
          "name": "scriptType",
          "type": "uint8"
        },
        {
          "indexed": false,
          "internalType": "address",
          "name": "lockerTargetAddress",
          "type": "address"
        },
        {
          "indexed": false,
          "internalType": "uint256",
          "name": "requestIdOfLocker",
          "type": "uint256"
        },
        {
          "indexed": false,
          "internalType": "address[]",
          "name": "path",
          "type": "address[]"
        },
        {
          "indexed": false,
          "internalType": "uint256",
          "name": "thirdPartyId",
          "type": "uint256"
        }
      ],
      "name": "NewSwapAndUnwrap",
      "type": "event"
    },
    {
      "anonymous": false,
      "inputs": [
        {
          "indexed": false,
          "internalType": "uint256",
          "name": "uniqueCounter",
          "type": "uint256"
        },
        {
          "indexed": false,
          "internalType": "uint256",
          "name": "chainId",
          "type": "uint256"
        },
        {
          "indexed": true,
          "internalType": "address",
          "name": "userTargetAddress",
          "type": "address"
        },
        {
          "indexed": false,
          "internalType": "uint256",
          "name": "thirdPartyId",
          "type": "uint256"
        },
        {
          "indexed": false,
          "internalType": "uint256",
          "name": "internalId",
          "type": "uint256"
        },
        {
          "indexed": false,
          "internalType": "uint256",
          "name": "appId",
          "type": "uint256"
        },
        {
          "indexed": false,
          "internalType": "uint256",
          "name": "amount",
          "type": "uint256"
        },
        {
          "indexed": false,
          "internalType": "uint256",
          "name": "inputAmount",
          "type": "uint256"
        },
        {
          "indexed": false,
          "internalType": "address[]",
          "name": "path",
          "type": "address[]"
        },
        {
          "indexed": false,
          "internalType": "bytes",
          "name": "userScript",
          "type": "bytes"
        },
        {
          "indexed": false,
          "internalType": "enum ScriptTypes",
          "name": "scriptType",
          "type": "uint8"
        },
        {
          "indexed": false,
          "internalType": "uint256",
          "name": "requestIdOfLocker",
          "type": "uint256"
        }
      ],
      "name": "NewSwapAndUnwrapRune",
      "type": "event"
    },
    {
      "anonymous": false,
      "inputs": [
        {
          "indexed": false,
          "internalType": "uint256",
          "name": "uniqueCounter",
          "type": "uint256"
        },
        {
          "indexed": false,
          "internalType": "uint256",
          "name": "chainId",
          "type": "uint256"
        },
        {
          "indexed": false,
          "internalType": "address",
          "name": "exchangeConnector",
          "type": "address"
        },
        {
          "indexed": false,
          "internalType": "address",
          "name": "inputToken",
          "type": "address"
        },
        {
          "indexed": false,
          "internalType": "uint256",
          "name": "inputAmount",
          "type": "uint256"
        },
        {
          "indexed": true,
          "internalType": "bytes32",
          "name": "userTargetAddress",
          "type": "bytes32"
        },
        {
          "indexed": false,
          "internalType": "bytes",
          "name": "userScript",
          "type": "bytes"
        },
        {
          "indexed": false,
          "internalType": "enum ScriptTypes",
          "name": "scriptType",
          "type": "uint8"
        },
        {
          "indexed": false,
          "internalType": "address",
          "name": "lockerTargetAddress",
          "type": "address"
        },
        {
          "indexed": false,
          "internalType": "uint256",
          "name": "requestIdOfLocker",
          "type": "uint256"
        },
        {
          "indexed": false,
          "internalType": "address[]",
          "name": "path",
          "type": "address[]"
        },
        {
          "indexed": false,
          "internalType": "uint256",
          "name": "thirdPartyId",
          "type": "uint256"
        }
      ],
      "name": "NewSwapAndUnwrapV2",
      "type": "event"
    },
    {
      "anonymous": false,
      "inputs": [
        {
          "indexed": true,
          "internalType": "address",
          "name": "previousOwner",
          "type": "address"
        },
        {
          "indexed": true,
          "internalType": "address",
          "name": "newOwner",
          "type": "address"
        }
      ],
      "name": "OwnershipTransferred",
      "type": "event"
    },
    {
      "anonymous": false,
      "inputs": [
        {
          "indexed": false,
          "internalType": "address",
          "name": "account",
          "type": "address"
        }
      ],
      "name": "Paused",
      "type": "event"
    },
    {
      "anonymous": false,
      "inputs": [
        {
          "indexed": false,
          "internalType": "address",
          "name": "account",
          "type": "address"
        }
      ],
      "name": "Unpaused",
      "type": "event"
    },
    {
      "anonymous": false,
      "inputs": [
        {
          "indexed": false,
          "internalType": "uint256",
          "name": "uniqueCounter",
          "type": "uint256"
        },
        {
          "indexed": false,
          "internalType": "uint256",
          "name": "chainId",
          "type": "uint256"
        },
        {
          "indexed": false,
          "internalType": "address",
          "name": "token",
          "type": "address"
        },
        {
          "indexed": false,
          "internalType": "uint256",
          "name": "amount",
          "type": "uint256"
        },
        {
          "indexed": false,
          "internalType": "int64",
          "name": "relayerFeePercentage",
          "type": "int64"
        },
        {
          "indexed": false,
          "internalType": "address",
          "name": "user",
          "type": "address"
        }
      ],
      "name": "WithdrawnFundsToSourceChain",
      "type": "event"
    },
    {
      "anonymous": false,
      "inputs": [
        {
          "indexed": false,
          "internalType": "uint256",
          "name": "uniqueCounter",
          "type": "uint256"
        },
        {
          "indexed": false,
          "internalType": "uint256",
          "name": "chainId",
          "type": "uint256"
        },
        {
          "indexed": false,
          "internalType": "address",
          "name": "token",
          "type": "address"
        },
        {
          "indexed": false,
          "internalType": "uint256",
          "name": "amount",
          "type": "uint256"
        },
        {
          "indexed": false,
          "internalType": "int64",
          "name": "relayerFeePercentage",
          "type": "int64"
        },
        {
          "indexed": false,
          "internalType": "bytes32",
          "name": "refundAddress",
          "type": "bytes32"
        }
      ],
      "name": "WithdrawnFundsToSourceChainV2",
      "type": "event"
    },
    {
      "inputs": [],
      "name": "ETH_ADDR",
      "outputs": [
        {
          "internalType": "address",
          "name": "",
          "type": "address"
        }
      ],
      "stateMutability": "view",
      "type": "function"
    },
    {
      "inputs": [],
      "name": "across",
      "outputs": [
        {
          "internalType": "address",
          "name": "",
          "type": "address"
        }
      ],
      "stateMutability": "view",
      "type": "function"
    },
    {
      "inputs": [],
      "name": "acrossAdmin",
      "outputs": [
        {
          "internalType": "address",
          "name": "",
          "type": "address"
        }
      ],
      "stateMutability": "view",
      "type": "function"
    },
    {
      "inputs": [
        {
          "internalType": "address",
          "name": "",
          "type": "address"
        },
        {
          "internalType": "uint256",
          "name": "",
          "type": "uint256"
        }
      ],
      "name": "bridgeTokenMapping",
      "outputs": [
        {
          "internalType": "address",
          "name": "",
          "type": "address"
        }
      ],
      "stateMutability": "view",
      "type": "function"
    },
    {
      "inputs": [],
      "name": "burnRouterProxy",
      "outputs": [
        {
          "internalType": "address",
          "name": "",
          "type": "address"
        }
      ],
      "stateMutability": "view",
      "type": "function"
    },
    {
      "inputs": [
        {
          "internalType": "address",
          "name": "_token",
          "type": "address"
        },
        {
          "internalType": "address",
          "name": "_to",
          "type": "address"
        },
        {
          "internalType": "uint256",
          "name": "_amount",
          "type": "uint256"
        }
      ],
      "name": "emergencyWithdraw",
      "outputs": [],
      "stateMutability": "nonpayable",
      "type": "function"
    },
    {
      "inputs": [
        {
          "internalType": "address",
          "name": "",
          "type": "address"
        },
        {
          "internalType": "uint256",
          "name": "",
          "type": "uint256"
        },
        {
          "internalType": "address",
          "name": "",
          "type": "address"
        }
      ],
      "name": "failedReqs",
      "outputs": [
        {
          "internalType": "uint256",
          "name": "",
          "type": "uint256"
        }
      ],
      "stateMutability": "view",
      "type": "function"
    },
    {
      "inputs": [],
      "name": "gasLimit",
      "outputs": [
        {
          "internalType": "uint256",
          "name": "",
          "type": "uint256"
        }
      ],
      "stateMutability": "view",
      "type": "function"
    },
    {
      "inputs": [
        {
          "internalType": "address",
          "name": "_tokenSent",
          "type": "address"
        },
        {
          "internalType": "uint256",
          "name": "_amount",
          "type": "uint256"
        },
        {
          "internalType": "address",
          "name": "",
          "type": "address"
        },
        {
          "internalType": "bytes",
          "name": "_message",
          "type": "bytes"
        }
      ],
      "name": "handleV3AcrossMessage",
      "outputs": [],
      "stateMutability": "nonpayable",
      "type": "function"
    },
    {
      "inputs": [
        {
          "internalType": "address",
          "name": "_lockersProxy",
          "type": "address"
        },
        {
          "internalType": "address",
          "name": "_burnRouterProxy",
          "type": "address"
        },
        {
          "internalType": "address",
          "name": "_across",
          "type": "address"
        },
        {
          "internalType": "address",
          "name": "_runeRouterProxy",
          "type": "address"
        }
      ],
      "name": "initialize",
      "outputs": [],
      "stateMutability": "nonpayable",
      "type": "function"
    },
    {
      "inputs": [],
      "name": "lockersProxy",
      "outputs": [
        {
          "internalType": "address",
          "name": "",
          "type": "address"
        }
      ],
      "stateMutability": "view",
      "type": "function"
    },
    {
      "inputs": [
        {
          "internalType": "address",
          "name": "",
          "type": "address"
        },
        {
          "internalType": "uint256",
          "name": "",
          "type": "uint256"
        },
        {
          "internalType": "uint256",
          "name": "",
          "type": "uint256"
        },
        {
          "internalType": "address",
          "name": "",
          "type": "address"
        }
      ],
      "name": "newFailedReqs",
      "outputs": [
        {
          "internalType": "uint256",
          "name": "",
          "type": "uint256"
        }
      ],
      "stateMutability": "view",
      "type": "function"
    },
    {
      "inputs": [
        {
          "internalType": "bytes32",
          "name": "",
          "type": "bytes32"
        },
        {
          "internalType": "uint256",
          "name": "",
          "type": "uint256"
        },
        {
          "internalType": "uint256",
          "name": "",
          "type": "uint256"
        },
        {
          "internalType": "address",
          "name": "",
          "type": "address"
        }
      ],
      "name": "newFailedReqsV2",
      "outputs": [
        {
          "internalType": "uint256",
          "name": "",
          "type": "uint256"
        }
      ],
      "stateMutability": "view",
      "type": "function"
    },
    {
      "inputs": [],
      "name": "owner",
      "outputs": [
        {
          "internalType": "address",
          "name": "",
          "type": "address"
        }
      ],
      "stateMutability": "view",
      "type": "function"
    },
    {
      "inputs": [],
      "name": "paused",
      "outputs": [
        {
          "internalType": "bool",
          "name": "",
          "type": "bool"
        }
      ],
      "stateMutability": "view",
      "type": "function"
    },
    {
      "inputs": [],
      "name": "renounceOwnership",
      "outputs": [],
      "stateMutability": "nonpayable",
      "type": "function"
    },
    {
      "inputs": [],
      "name": "runeRouterProxy",
      "outputs": [
        {
          "internalType": "address",
          "name": "",
          "type": "address"
        }
      ],
      "stateMutability": "view",
      "type": "function"
    },
    {
      "inputs": [
        {
          "internalType": "address",
          "name": "_across",
          "type": "address"
        }
      ],
      "name": "setAcross",
      "outputs": [],
      "stateMutability": "nonpayable",
      "type": "function"
    },
    {
      "inputs": [
        {
          "internalType": "address",
          "name": "_acrossAdmin",
          "type": "address"
        }
      ],
      "name": "setAcrossAdmin",
      "outputs": [],
      "stateMutability": "nonpayable",
      "type": "function"
    },
    {
      "inputs": [
        {
          "internalType": "address",
          "name": "_sourceToken",
          "type": "address"
        },
        {
          "internalType": "uint256",
          "name": "_destinationChainId",
          "type": "uint256"
        },
        {
          "internalType": "address",
          "name": "_destinationToken",
          "type": "address"
        }
      ],
      "name": "setBridgeTokenMapping",
      "outputs": [],
      "stateMutability": "nonpayable",
      "type": "function"
    },
    {
      "inputs": [
        {
          "internalType": "address",
          "name": "_burnRouterProxy",
          "type": "address"
        }
      ],
      "name": "setBurnRouterProxy",
      "outputs": [],
      "stateMutability": "nonpayable",
      "type": "function"
    },
    {
      "inputs": [
        {
          "internalType": "uint256",
          "name": "_gasLimit",
          "type": "uint256"
        }
      ],
      "name": "setGasLimit",
      "outputs": [],
      "stateMutability": "nonpayable",
      "type": "function"
    },
    {
      "inputs": [
        {
          "internalType": "address",
          "name": "_lockersProxy",
          "type": "address"
        }
      ],
      "name": "setLockersProxy",
      "outputs": [],
      "stateMutability": "nonpayable",
      "type": "function"
    },
    {
      "inputs": [
        {
          "internalType": "address",
          "name": "_runeRouterProxy",
          "type": "address"
        }
      ],
      "name": "setRuneRouterProxy",
      "outputs": [],
      "stateMutability": "nonpayable",
      "type": "function"
    },
    {
      "inputs": [
        {
          "internalType": "address",
          "name": "newOwner",
          "type": "address"
        }
      ],
      "name": "transferOwnership",
      "outputs": [],
      "stateMutability": "nonpayable",
      "type": "function"
    },
    {
      "inputs": [
        {
          "internalType": "bytes",
          "name": "_message",
          "type": "bytes"
        },
        {
          "internalType": "uint8",
          "name": "_v",
          "type": "uint8"
        },
        {
          "internalType": "bytes32",
          "name": "_r",
          "type": "bytes32"
        },
        {
          "internalType": "bytes32",
          "name": "_s",
          "type": "bytes32"
        }
      ],
      "name": "withdrawFundsToSourceChain",
      "outputs": [],
      "stateMutability": "nonpayable",
      "type": "function"
    },
    {
      "inputs": [
        {
          "internalType": "bytes32",
          "name": "_refundAddress",
          "type": "bytes32"
        },
        {
          "internalType": "uint256",
          "name": "_chainId",
          "type": "uint256"
        },
        {
          "internalType": "uint256",
          "name": "_uniqueCounter",
          "type": "uint256"
        },
        {
          "internalType": "address",
          "name": "_token",
          "type": "address"
        },
        {
          "internalType": "int64",
          "name": "_bridgePercentageFee",
          "type": "int64"
        }
      ],
      "name": "withdrawFundsToSourceChainByAdminV2",
      "outputs": [],
      "stateMutability": "nonpayable",
      "type": "function"
    },
    {
      "inputs": [
        {
          "internalType": "address",
          "name": "_user",
          "type": "address"
        },
        {
          "internalType": "uint256",
          "name": "_chainId",
          "type": "uint256"
        },
        {
          "internalType": "uint256",
          "name": "_uniqueCounter",
          "type": "uint256"
        },
        {
          "internalType": "address",
          "name": "_token",
          "type": "address"
        },
        {
          "internalType": "int64",
          "name": "_relayerFeePercentage",
          "type": "int64"
        }
      ],
      "name": "withdrawFundsToSourceChainByOwnerOrAdmin",
      "outputs": [],
      "stateMutability": "nonpayable",
      "type": "function"
    },
    {
      "stateMutability": "payable",
      "type": "receive"
    }
  ],
  "transactionHash": "0x7c714749b9cccd5e21e38761c775e4af2b0e39125f38e96d2ffab9ea3202dba6",
  "args": [],
  "numDeployments": 1,
  "solcInputHash": "9bd800f23ef388fa2c73f64e70b42b2d",
  "bytecode": "0x608060405234801561001057600080fd5b5061400f806100206000396000f3fe60806040526004361061014b5760003560e01c80630597865c146101575780630d2c8c701461018d5780630daada01146101e25780631dbd94ff14610204578063292c1d9214610224578063296079f1146102445780633a5be8cb146102645780633e938097146102845780633f8c6ae0146102a45780634d6e8f9d146102c457806359841888146102e45780635c975abb146103045780635f9491291461032757806361be10f214610368578063715018a6146103885780637753f47b1461039d57806386420503146103c5578063878269b5146103e557806387c554f8146104055780638907eb5c146104255780638da5cb5b14610463578063baf7f91814610478578063d7fe6b7d146104bf578063e63ea408146104df578063ee7d72b4146104ff578063f2fde38b1461051f578063f68016b71461053f578063f8c8765e1461055557600080fd5b3661015257005b600080fd5b34801561016357600080fd5b5060ce54610177906001600160a01b031681565b60405161018491906138a3565b60405180910390f35b34801561019957600080fd5b506101d46101a83660046133dd565b60d260209081526000948552604080862082529385528385208152918452828420909152825290205481565b604051908152602001610184565b3480156101ee57600080fd5b506102026101fd366004613412565b610575565b005b34801561021057600080fd5b5061020261021f36600461317f565b6106ab565b34801561023057600080fd5b5060cb54610177906001600160a01b031681565b34801561025057600080fd5b5060c954610177906001600160a01b031681565b34801561027057600080fd5b5061020261027f3660046132be565b6106fe565b34801561029057600080fd5b5061020261029f366004613449565b6108ec565b3480156102b057600080fd5b5060ca54610177906001600160a01b031681565b3480156102d057600080fd5b506102026102df36600461317f565b6109cd565b3480156102f057600080fd5b506102026102ff36600461317f565b610a20565b34801561031057600080fd5b5060975460ff166040519015158152602001610184565b34801561033357600080fd5b50610177610342366004613252565b60d16020908152600092835260408084209091529082529020546001600160a01b031681565b34801561037457600080fd5b5061020261038336600461317f565b610a73565b34801561039457600080fd5b50610202610ac6565b3480156103a957600080fd5b5061017773eeeeeeeeeeeeeeeeeeeeeeeeeeeeeeeeeeeeeeee81565b3480156103d157600080fd5b506102026103e0366004613365565b610ada565b3480156103f157600080fd5b5061020261040036600461317f565b610bbc565b34801561041157600080fd5b5060cf54610177906001600160a01b031681565b34801561043157600080fd5b506101d461044036600461327d565b60cc60209081526000938452604080852082529284528284209052825290205481565b34801561046f57600080fd5b50610177610be6565b34801561048457600080fd5b506101d4610493366004613327565b60cd60209081526000948552604080862082529385528385208152918452828420909152825290205481565b3480156104cb57600080fd5b506102026104da36600461327d565b610bf5565b3480156104eb57600080fd5b506102026104fa366004613212565b610c38565b34801561050b57600080fd5b5061020261051a36600461375e565b610d3b565b34801561052b57600080fd5b5061020261053a36600461317f565b610d48565b34801561054b57600080fd5b506101d460d05481565b34801561056157600080fd5b506102026105703660046131b7565b610dc1565b61057d610f2f565b60cf546001600160a01b03163314806105ae5750610599610be6565b6001600160a01b0316336001600160a01b0316145b6105d35760405162461bcd60e51b81526004016105ca90613bb6565b60405180910390fd5b600085815260d260209081526040808320878452825280832086845282528083206001600160a01b038616845290915281208054919055806106275760405162461bcd60e51b81526004016105ca90613b23565b6106348686858486610f89565b60408051858152602081018790526001600160a01b0385169181019190915260608101829052600783900b608082015260a081018790527f73f04e25d893c427907bd37b5f4a3f289020af48582a9647567c143376c571e59060c0015b60405180910390a1506106a46001606555565b5050505050565b6106b36111e6565b806001600160a01b0381166106db5760405163d92e233d60e01b815260040160405180910390fd5b5060ce80546001600160a01b0319166001600160a01b0392909216919091179055565b610706610f2f565b60d0545a10156107585760405162461bcd60e51b815260206004820152601e60248201527f506f6c79676f6e436f6e6e6563746f724c6f6769633a206c6f7720676173000060448201526064016105ca565b60cb546001600160a01b031633146107bc5760405162461bcd60e51b815260206004820152602160248201527f506f6c79676f6e436f6e6e6563746f724c6f6769633a206e6f74206163726f736044820152607360f81b60648201526084016105ca565b60008060006107ca84611245565b9250925092507fd8883c6af9aa96506569d2db74cafb52037a26374320a8aeaf9fd5cd7df3d228838383876040516108059493929190613aaf565b60405180910390a161083c836040518060400160405280600d81526020016c073776170416e64556e7772617609c1b815250611355565b156108515761084c8685896113ae565b6108d9565b610884836040518060400160405280601181526020017073776170416e64556e7772617052756e6560781b815250611355565b156108945761084c868589611901565b6108c9836040518060400160405280601381526020017273776170416e64556e77726170536f6c616e6160681b815250611355565b156108d9576108d9868589611d52565b5050506108e66001606555565b50505050565b6108f4610f2f565b6000610902858484876121e8565b90506000806000808880602001905181019061091e919061378e565b6001600160a01b03898116600090815260cd60209081526040808320888452825280832087845282528083209386168352929052908120805491905593975091955093509150806109815760405162461bcd60e51b81526004016105ca90613b23565b61098e8686858486612317565b600080516020613fba83398151915284868584868b6040516109b596959493929190613ce5565b60405180910390a15050505050506108e66001606555565b6109d56111e6565b806001600160a01b0381166109fd5760405163d92e233d60e01b815260040160405180910390fd5b5060ca80546001600160a01b0319166001600160a01b0392909216919091179055565b610a286111e6565b806001600160a01b038116610a505760405163d92e233d60e01b815260040160405180910390fd5b5060c980546001600160a01b0319166001600160a01b0392909216919091179055565b610a7b6111e6565b806001600160a01b038116610aa35760405163d92e233d60e01b815260040160405180910390fd5b5060cb80546001600160a01b0319166001600160a01b0392909216919091179055565b610ace6111e6565b610ad860006123ed565b565b610ae2610f2f565b60cf546001600160a01b0316331480610b135750610afe610be6565b6001600160a01b0316336001600160a01b0316145b610b2f5760405162461bcd60e51b81526004016105ca90613bb6565b6001600160a01b03858116600090815260cd60209081526040808320888452825280832087845282528083209386168352929052908120805491905580610b885760405162461bcd60e51b81526004016105ca90613b23565b610b958686858486612317565b600080516020613fba83398151915284868584868b60405161069196959493929190613ce5565b610bc46111e6565b60cf80546001600160a01b0319166001600160a01b0392909216919091179055565b6033546001600160a01b031690565b610bfd6111e6565b6001600160a01b03928316600090815260d1602090815260408083209483529390529190912080546001600160a01b03191691909216179055565b610c406111e6565b6001600160a01b03831673eeeeeeeeeeeeeeeeeeeeeeeeeeeeeeeeeeeeeeee1415610cbb576040516001600160a01b038316908290600081818185875af1925050503d8060008114610cae576040519150601f19603f3d011682016040523d82523d6000602084013e610cb3565b606091505b505050505050565b60405163a9059cbb60e01b81526001600160a01b0384169063a9059cbb90610ce990859085906004016139fe565b602060405180830381600087803b158015610d0357600080fd5b505af1158015610d17573d6000803e3d6000fd5b505050506040513d601f19601f820116820180604052508101906108e691906133c3565b610d436111e6565b60d055565b610d506111e6565b6001600160a01b038116610db55760405162461bcd60e51b815260206004820152602660248201527f4f776e61626c653a206e6577206f776e657220697320746865207a65726f206160448201526564647265737360d01b60648201526084016105ca565b610dbe816123ed565b50565b600054610100900460ff1615808015610de15750600054600160ff909116105b80610dfb5750303b158015610dfb575060005460ff166001145b610e5e5760405162461bcd60e51b815260206004820152602e60248201527f496e697469616c697a61626c653a20636f6e747261637420697320616c72656160448201526d191e481a5b9a5d1a585b1a5e995960921b60648201526084016105ca565b6000805460ff191660011790558015610e81576000805461ff0019166101001790555b610e8961243f565b610e9161246e565b610e9961249d565b60c980546001600160a01b038088166001600160a01b03199283161790925560ca805487841690831617905560cb805486841690831617905560ce80549285169290911691909117905580156106a4576000805461ff0019169055604051600181527f7f26b83ff96e1f2b6a682f133852f6798a09c465da95921460cefb38474024989060200160405180910390a15050505050565b60026065541415610f825760405162461bcd60e51b815260206004820152601f60248201527f5265656e7472616e637947756172643a207265656e7472616e742063616c6c0060448201526064016105ca565b6002606555565b60cb5460405163095ea7b360e01b81526001600160a01b038581169263095ea7b392610fbd929091169086906004016139fe565b602060405180830381600087803b158015610fd757600080fd5b505af1158015610feb573d6000803e3d6000fd5b505050506040513d601f19601f8201168201806040525081019061100f91906133c3565b50606084606514156110d15760cf546001600160a01b039081169087908616600086670de0b6b3a764000061104d6001600160401b03891682613f0b565b611057908a613eec565b6110619190613ecc565b651f2abb7bf89b60004261107781613840613eb4565b60408051602081018252600080825291516110a09c9b9a99989796959493929190602401613a17565b60408051601f198184030181529190526020810180516001600160e01b03166356aa12e360e11b1790529050611199565b60cf546001600160a01b03858116600090815260d1602090815260408083208a845290915290205491811691889187911686670de0b6b3a764000061111f6001600160401b03891682613f0b565b611129908a613eec565b6111339190613ecc565b8a60004261114381613840613eb4565b604080516020810182526000808252915161116c9c9b9a999897969594939291906024016138b7565b60408051601f198184030181529190526020810180516001600160e01b0316633dc9c91960e11b17905290505b6000816040516020016111ac919061387a565b60408051601f1981840301815291905260cb549091506111d5906001600160a01b0316826124cc565b5050505050505050565b6001606555565b336111ef610be6565b6001600160a01b031614610ad85760405162461bcd60e51b815260206004820181905260248201527f4f776e61626c653a2063616c6c6572206973206e6f7420746865206f776e657260448201526064016105ca565b606060008060118451106113325760008060405160200161127f907273776170416e64556e77726170536f6c616e6160681b815260130190565b604051602081830303815290604052905060006020870151925060208201519050806001600160781b031916836001600160781b031916141561132e576112c7876011612515565b9450866019815181106112ea57634e487b7160e01b600052603260045260246000fd5b0160209081015160408051808201909152601381527273776170416e64556e77726170536f6c616e6160681b9281019290925290965060f81c935061134e92505050565b5050505b8380602001905181019061134691906134aa565b919450925090505b9193909250565b600081604051602001611368919061385e565b604051602081830303815290604052805190602001208360405160200161138f919061385e565b6040516020818303038152906040528051906020012014905092915050565b60006113b983612580565b9050816001600160a01b03168160c001516000815181106113ea57634e487b7160e01b600052603260045260246000fd5b60200260200101516001600160a01b0316146114185760405162461bcd60e51b81526004016105ca90613ae0565b604080516002808252606082018352600092602083019080368337019050509050848160008151811061145b57634e487b7160e01b600052603260045260246000fd5b60200260200101818152505081608001518160018151811061148d57634e487b7160e01b600052603260045260246000fd5b602090810291909101015260ca5460405163095ea7b360e01b81526001600160a01b038581169263095ea7b3926114cc929091169089906004016139fe565b602060405180830381600087803b1580156114e657600080fd5b505af11580156114fa573d6000803e3d6000fd5b505050506040513d601f19601f8201168201806040525081019061151e91906133c3565b5060ca54606083015160a084015160c085015160e0860151805160208201516040928301516101008a015193516344dd6aa560e01b81526001600160a01b03909816976344dd6aa5976115829790968b969195909442949193909290600401613943565b602060405180830381600087803b15801561159c57600080fd5b505af19250505080156115cc575060408051601f3d908101601f191682019092526115c991810190613776565b60015b6117525760ca5460405163095ea7b360e01b81526001600160a01b038581169263095ea7b39261160592909116906000906004016139fe565b602060405180830381600087803b15801561161f57600080fd5b505af1158015611633573d6000803e3d6000fd5b505050506040513d601f19601f8201168201806040525081019061165791906133c3565b508460cd600084604001516001600160a01b03166001600160a01b031681526020019081526020016000206000846020015181526020019081526020016000206000846000015181526020019081526020016000206000856001600160a01b03166001600160a01b031681526020019081526020016000208190555081604001516001600160a01b03167fa79aee2abfa3037b36c3689636c9932b113a82cebda0057ac4ce2386371fc969836000015184602001518560600151878a8860e00151600001518960e00151602001518a60c001518b610100015160405161174599989796959493929190613c83565b60405180910390a26106a4565b5060c95460e0830151604090810151905163626885b560e11b81526000926001600160a01b03169163c4d10b6a9161178d9190600401613a9c565b60206040518083038186803b1580156117a557600080fd5b505afa1580156117b9573d6000803e3d6000fd5b505050506040513d601f19601f820116820180604052508101906117dd919061319b565b905082604001516001600160a01b03167f124f82fb68081b8c772a74ce98c0c92b659dd79e4fd3f03cf49988818eb04e8b846000015185602001518660600151888b8960e00151600001518a60e001516020015189600160ca60009054906101000a90046001600160a01b03166001600160a01b031663930a60e88d6040518263ffffffff1660e01b815260040161187591906138a3565b60206040518083038186803b15801561188d57600080fd5b505afa1580156118a1573d6000803e3d6000fd5b505050506040513d601f19601f820116820180604052508101906118c59190613776565b6118cf9190613f0b565b8d60c001518e61010001516040516118f19b9a99989796959493929190613bfb565b60405180910390a2505050505050565b600061190c836125fc565b9050816001600160a01b03168160e0015160008151811061193d57634e487b7160e01b600052603260045260246000fd5b60200260200101516001600160a01b03161461196b5760405162461bcd60e51b81526004016105ca90613ae0565b60ce5460405163095ea7b360e01b81526001600160a01b038481169263095ea7b39261199f929091169088906004016139fe565b602060405180830381600087803b1580156119b957600080fd5b505af11580156119cd573d6000803e3d6000fd5b505050506040513d601f19601f820116820180604052508101906119f191906133c3565b5060ce546060820151608083015160c0840151610100850151805160209091015160a087015160e088015160405163e91ffefd60e01b81526001600160a01b039098169763e91ffefd97600097611a58979196909591949093919290918f91600401613d1c565b6020604051808303818588803b158015611a7157600080fd5b505af193505050508015611aa2575060408051601f3d908101601f19168201909252611a9f91810190613776565b60015b611c335760ce5460405163095ea7b360e01b81526001600160a01b038481169263095ea7b392611adb92909116906000906004016139fe565b602060405180830381600087803b158015611af557600080fd5b505af1158015611b09573d6000803e3d6000fd5b505050506040513d601f19601f82011682018060405250810190611b2d91906133c3565b508360cd600083604001516001600160a01b03166001600160a01b031681526020019081526020016000206000836020015181526020019081526020016000206000836000015181526020019081526020016000206000846001600160a01b03166001600160a01b031681526020019081526020016000208190555080604001516001600160a01b03167feef470645928135b5faf5eb6a2f7076448531d47f42149c2b1ceaa9fe1d624a082600001518360200151846060015185608001518660a001518760c001518b8960e001518a6101000151600001518b610100015160200151604051611c269a99989796959493929190613d7e565b60405180910390a26108e6565b5080604001516001600160a01b03167f13a9049471d86bfc267b825d08be20c5ebfc793c109c11eb159af6781cda310582600001518360200151846060015185608001518660a001518760c001518b8960e001518a6101000151600001518b610100015160200151600160ce60009054906101000a90046001600160a01b03166001600160a01b03166390665eca6040518163ffffffff1660e01b815260040160206040518083038186803b158015611ceb57600080fd5b505afa158015611cff573d6000803e3d6000fd5b505050506040513d601f19601f82011682018060405250810190611d239190613776565b611d2d9190613f0b565b604051611d449b9a99989796959493929190613de2565b60405180910390a250505050565b6000611d5d83612674565b9050816001600160a01b03168160c00151600081518110611d8e57634e487b7160e01b600052603260045260246000fd5b60200260200101516001600160a01b031614611dbc5760405162461bcd60e51b81526004016105ca90613ae0565b6040805160028082526060820183526000926020830190803683370190505090508481600081518110611dff57634e487b7160e01b600052603260045260246000fd5b602002602001018181525050816080015181600181518110611e3157634e487b7160e01b600052603260045260246000fd5b602090810291909101015260ca5460405163095ea7b360e01b81526001600160a01b038581169263095ea7b392611e70929091169089906004016139fe565b602060405180830381600087803b158015611e8a57600080fd5b505af1158015611e9e573d6000803e3d6000fd5b505050506040513d601f19601f82011682018060405250810190611ec291906133c3565b5060ca54606083015160a084015160c085015160e0860151805160208201516040928301516101008a015193516344dd6aa560e01b81526001600160a01b03909816976344dd6aa597611f269790968b969195909442949193909290600401613943565b602060405180830381600087803b158015611f4057600080fd5b505af1925050508015611f70575060408051601f3d908101601f19168201909252611f6d91810190613776565b60015b6120ce5760ca5460405163095ea7b360e01b81526001600160a01b038581169263095ea7b392611fa992909116906000906004016139fe565b602060405180830381600087803b158015611fc357600080fd5b505af1158015611fd7573d6000803e3d6000fd5b505050506040513d601f19601f82011682018060405250810190611ffb91906133c3565b508460d26000846040015181526020019081526020016000206000846020015181526020019081526020016000206000846000015181526020019081526020016000206000856001600160a01b03166001600160a01b031681526020019081526020016000208190555081604001517fb17828193b4763de79b6775e487212e0fac3348f5ef445ae4419b0806bf760a1836000015184602001518560600151878a8860e00151600001518960e00151602001518a60c001518b610100015160405161174599989796959493929190613c83565b5060c95460e0830151604090810151905163626885b560e11b81526000926001600160a01b03169163c4d10b6a916121099190600401613a9c565b60206040518083038186803b15801561212157600080fd5b505afa158015612135573d6000803e3d6000fd5b505050506040513d601f19601f82011682018060405250810190612159919061319b565b905082604001517f55e61be1ca8704cfaf63bfd3a4a99c40ff55c149c7cb6a34816b33650ac2a44d846000015185602001518660600151888b8960e00151600001518a60e001516020015189600160ca60009054906101000a90046001600160a01b03166001600160a01b031663930a60e88d6040518263ffffffff1660e01b815260040161187591906138a3565b6000808580519060200120905060008160405160200161223391907b0ca2ba3432b932bab69029b4b3b732b21026b2b9b9b0b3b29d05199960211b8152601c810191909152603c0190565b60408051601f198184030181528282528051602091820120600080855291840180845281905260ff88169284019290925260608301899052608083018890529092509060019060a0016020604051602081039080840390855afa15801561229e573d6000803e3d6000fd5b5050604051601f1901519150506001600160a01b03811661230c5760405162461bcd60e51b815260206004820152602260248201527f506f6c79676f6e436f6e6e6563746f724c6f6769633a20496e76616c69642073604482015261696760f01b60648201526084016105ca565b979650505050505050565b60cb5460405163095ea7b360e01b81526001600160a01b038581169263095ea7b39261234b929091169086906004016139fe565b602060405180830381600087803b15801561236557600080fd5b505af1158015612379573d6000803e3d6000fd5b505050506040513d601f19601f8201168201806040525081019061239d91906133c3565b5060cf546001600160a01b03848116600090815260d1602090815260408083208984529091528120549092821691889187911686670de0b6b3a764000061111f6001600160401b03891682613f0b565b603380546001600160a01b038381166001600160a01b0319831681179093556040519116919082907f8be0079c531659141344cd1fd0a4f28419497f9722a3daafe3b4186f6b6457e090600090a35050565b600054610100900460ff166124665760405162461bcd60e51b81526004016105ca90613b6b565b610ad8612bdc565b600054610100900460ff166124955760405162461bcd60e51b81526004016105ca90613b6b565b610ad8612c0c565b600054610100900460ff166124c45760405162461bcd60e51b81526004016105ca90613b6b565b610ad8612c33565b606061250e83836040518060400160405280601e81526020017f416464726573733a206c6f772d6c6576656c2063616c6c206661696c65640000815250612c66565b9392505050565b600080805b60088110156125785761252e816008613eec565b856125398387613eb4565b8151811061255757634e487b7160e01b600052603260045260246000fd5b016020015160f81c901b91909117908061257081613f4e565b91505061251a565b509392505050565b612588612e37565b8180602001905181019061259c91906134f7565b60e08a015260c0890152151560a088015260808701526001600160a01b03908116606087015216604085015260208085019190915290835283516125e79250840181019084016135ca565b6101008b015250979998505050505050505050565b612604612eb7565b8180602001905181019061261891906136a8565b505050608088015260c087015260a08601526001600160a01b0316604085015260208085019190915290835283516126579250840181019084016136a8565b60608b01526101008a015260e08901525095979650505050505050565b6126e460405180610120016040528060008152602001600081526020016000801916815260200160006001600160a01b031681526020016000815260200160001515815260200160608152602001612eaa6040805160608082018352808252600060208301529181019190915290565b60006126f1601382613eb4565b90506126fd8382612515565b825261270a600882613eb4565b90506127168382612515565b6020830152612726600882613eb4565b838101602001519091506040830152612740602082613eb4565b90506000612752848360209101015190565b6001600160a01b0381166060850152905061276e602083613eb4565b848101602001519092506080840152612788602083613eb4565b91508382815181106127aa57634e487b7160e01b600052603260045260246000fd5b01602001516001600160f81b031916151560a08401526127cb600183613eb4565b915060006127d98584612c7d565b90506127e6600484613eb4565b92508063ffffffff166001600160401b0381111561281457634e487b7160e01b600052604160045260246000fd5b60405190808252806020026020018201604052801561283d578160200160208202803683370190505b5060c085015260005b8163ffffffff168110156128ba57838601602001518060001c8660c00151838151811061288357634e487b7160e01b600052603260045260246000fd5b6001600160a01b039092166020928302919091018201526128a49086613eb4565b94505080806128b290613f4e565b915050612846565b5060006128c78685612c7d565b90506128d4600485613eb4565b935060008163ffffffff166001600160401b0381111561290457634e487b7160e01b600052604160045260246000fd5b6040519080825280601f01601f19166020018201604052801561292e576020820181803683370190505b50905060005b8263ffffffff168110156129bf578761294d8288613eb4565b8151811061296b57634e487b7160e01b600052603260045260246000fd5b602001015160f81c60f81b82828151811061299657634e487b7160e01b600052603260045260246000fd5b60200101906001600160f81b031916908160001a905350806129b781613f4e565b915050612934565b506129d063ffffffff831686613eb4565b945060008786815181106129f457634e487b7160e01b600052603260045260246000fd5b016020015160f81c6005811115612a1b57634e487b7160e01b600052602160045260246000fd5b9050612a28600187613eb4565b95506000612a368988612c7d565b9050612a43600488613eb4565b965060008163ffffffff166001600160401b03811115612a7357634e487b7160e01b600052604160045260246000fd5b6040519080825280601f01601f191660200182016040528015612a9d576020820181803683370190505b50905060005b8263ffffffff16811015612b2e578a612abc828b613eb4565b81518110612ada57634e487b7160e01b600052603260045260246000fd5b602001015160f81c60f81b828281518110612b0557634e487b7160e01b600052603260045260246000fd5b60200101906001600160f81b031916908160001a90535080612b2681613f4e565b915050612aa3565b50612b3f63ffffffff831689613eb4565b60e08a01805186905251909850602001836005811115612b6f57634e487b7160e01b600052602160045260246000fd5b90816005811115612b9057634e487b7160e01b600052602160045260246000fd5b90525060e089015160400181905289518a9089908110612bc057634e487b7160e01b600052603260045260246000fd5b016020015160f81c6101008a0152509698975050505050505050565b600054610100900460ff16612c035760405162461bcd60e51b81526004016105ca90613b6b565b610ad8336123ed565b600054610100900460ff166111df5760405162461bcd60e51b81526004016105ca90613b6b565b600054610100900460ff16612c5a5760405162461bcd60e51b81526004016105ca90613b6b565b6097805460ff19169055565b6060612c758484600085612ce6565b949350505050565b600080805b600481101561257857612c96816008613eec565b63ffffffff1685612ca78387613eb4565b81518110612cc557634e487b7160e01b600052603260045260246000fd5b016020015160f81c901b919091179080612cde81613f4e565b915050612c82565b606082471015612d475760405162461bcd60e51b815260206004820152602660248201527f416464726573733a20696e73756666696369656e742062616c616e636520666f6044820152651c8818d85b1b60d21b60648201526084016105ca565b843b612d955760405162461bcd60e51b815260206004820152601d60248201527f416464726573733a2063616c6c20746f206e6f6e2d636f6e747261637400000060448201526064016105ca565b600080866001600160a01b03168587604051612db1919061385e565b60006040518083038185875af1925050503d8060008114612dee576040519150601f19603f3d011682016040523d82523d6000602084013e612df3565b606091505b509150915061230c82828660608315612e0d57508161250e565b825115612e1d5782518084602001fd5b8160405162461bcd60e51b81526004016105ca9190613a9c565b604051806101200160405280600081526020016000815260200160006001600160a01b0316815260200160006001600160a01b031681526020016000815260200160001515815260200160608152602001612eaa6040805160608082018352808252600060208301529181019190915290565b8152602001600081525090565b604051806101200160405280600081526020016000815260200160006001600160a01b031681526020016000815260200160008152602001600081526020016000815260200160608152602001612f1f60408051808201909152606081526000602082015290565b905290565b8051612f2f81613f95565b919050565b600082601f830112612f44578081fd5b815160206001600160401b03821115612f5f57612f5f613f7f565b8160051b612f6e828201613e5d565b838152828101908684018388018501891015612f88578687fd5b8693505b85841015612fb3578051612f9f81613f95565b835260019390930192918401918401612f8c565b50979650505050505050565b80518015158114612f2f57600080fd5b600082601f830112612fdf578081fd5b8135612ff2612fed82613e8d565b613e5d565b818152846020838601011115613006578283fd5b816020850160208301379081016020019190915292915050565b600082601f830112613030578081fd5b815161303e612fed82613e8d565b818152846020838601011115613052578283fd5b612c75826020830160208701613f22565b805160068110612f2f57600080fd5b600060608284031215613083578081fd5b604051606081016001600160401b0380821183831017156130a6576130a6613f7f565b8160405282935084519150808211156130be57600080fd5b6130ca86838701613020565b83526130d860208601613063565b602084015260408501519150808211156130f157600080fd5b506130fe85828601613020565b6040830152505092915050565b60006040828403121561311c578081fd5b604080519081016001600160401b03808211838310171561313f5761313f613f7f565b81604052829350845191508082111561315757600080fd5b5061316485828601613020565b82525061317360208401613063565b60208201525092915050565b600060208284031215613190578081fd5b813561250e81613f95565b6000602082840312156131ac578081fd5b815161250e81613f95565b600080600080608085870312156131cc578283fd5b84356131d781613f95565b935060208501356131e781613f95565b925060408501356131f781613f95565b9150606085013561320781613f95565b939692955090935050565b600080600060608486031215613226578283fd5b833561323181613f95565b9250602084013561324181613f95565b929592945050506040919091013590565b60008060408385031215613264578182fd5b823561326f81613f95565b946020939093013593505050565b600080600060608486031215613291578081fd5b833561329c81613f95565b92506020840135915060408401356132b381613f95565b809150509250925092565b600080600080608085870312156132d3578182fd5b84356132de81613f95565b93506020850135925060408501356132f581613f95565b915060608501356001600160401b0381111561330f578182fd5b61331b87828801612fcf565b91505092959194509250565b6000806000806080858703121561333c578182fd5b843561334781613f95565b93506020850135925060408501359150606085013561320781613f95565b600080600080600060a0868803121561337c578283fd5b853561338781613f95565b9450602086013593506040860135925060608601356133a581613f95565b915060808601356133b581613faa565b809150509295509295909350565b6000602082840312156133d4578081fd5b61250e82612fbf565b600080600080608085870312156133f2578182fd5b843593506020850135925060408501359150606085013561320781613f95565b600080600080600060a08688031215613429578283fd5b85359450602086013593506040860135925060608601356133a581613f95565b6000806000806080858703121561345e578182fd5b84356001600160401b03811115613473578283fd5b61347f87828801612fcf565b945050602085013560ff81168114613495578283fd5b93969395505050506040820135916060013590565b6000806000606084860312156134be578081fd5b83516001600160401b038111156134d3578182fd5b6134df86828701613020565b93505060208401519150604084015190509250925092565b60008060008060008060008060006101208a8c031215613515578687fd5b89516001600160401b038082111561352b578889fd5b6135378d838e01613020565b9a5060208c0151995060408c0151985061355360608d01612f24565b975061356160808d01612f24565b965060a08c0151955061357660c08d01612fbf565b945060e08c015191508082111561358b578384fd5b6135978d838e01612f34565b93506101008c01519150808211156135ad578283fd5b506135ba8c828d01613072565b9150509295985092959850929598565b6000806000806000806000806000806101408b8d0312156135e9578384fd5b8a516001600160401b03808211156135ff578586fd5b61360b8e838f01613020565b9b5060208d01519a5060408d0151995061362760608e01612f24565b985061363560808e01612f24565b975060a08d0151965061364a60c08e01612fbf565b955060e08d015191508082111561365f578283fd5b61366b8e838f01612f34565b94506101008d0151915080821115613681578283fd5b5061368e8d828e01613072565b9250506101208b015190509295989b9194979a5092959850565b6000806000806000806000806000806101408b8d0312156136c7578384fd5b8a516001600160401b03808211156136dd578586fd5b6136e98e838f01613020565b9b5060208d01519a5060408d0151995061370560608e01612f24565b985060808d0151975060a08d0151965060c08d0151955060e08d015191508082111561372f578485fd5b61373b8e838f01612f34565b94506101008d0151915080821115613751578384fd5b5061368e8d828e0161310b565b60006020828403121561376f578081fd5b5035919050565b600060208284031215613787578081fd5b5051919050565b600080600080608085870312156137a3578182fd5b845193506020850151925060408501516137bc81613f95565b606086015190925061320781613faa565b6000815180845260208085019450808401835b838110156138055781516001600160a01b0316875295820195908201906001016137e0565b509495945050505050565b60008151808452613828816020860160208601613f22565b601f01601f19169290920160200192915050565b6006811061385a57634e487b7160e01b600052602160045260246000fd5b9052565b60008251613870818460208701613f22565b9190910192915050565b6000825161388c818460208701613f22565b641dc0de008360d81b920191825250600501919050565b6001600160a01b0391909116815260200190565b6001600160a01b038d811682528c811660208301528b811660408301528a81166060830152608082018a905260a0820189905260c08201889052861660e082015263ffffffff858116610100830152841661012082015260ff83166101408201526000610180610160830152613931610180830184613810565b9e9d5050505050505050505050505050565b6001600160a01b038a16815261012060208083018290528a519183018290526000916101408401918c810191845b8181101561398d57835185529382019392820192600101613971565b50505050891515604084015282810360608401526139ab818a6137cd565b905087608084015282810360a08401526139c58188613810565b90506139d460c084018761383c565b82810360e08401526139e68186613810565b915050826101008301529a9950505050505050505050565b6001600160a01b03929092168252602082015260400190565b60006101808e83528d60208401528c604084015260ff8c1660608401528a60808401528960a084015265ffffffffffff891660c08401528760e084015263ffffffff8088166101008501528087166101208501525060ff851661014084015280610160840152613a8981840185613810565b9f9e505050505050505050505050505050565b60208152600061250e6020830184613810565b608081526000613ac26080830187613810565b856020840152846040840152828103606084015261230c8185613810565b60208082526023908201527f506f6c79676f6e436f6e6e6563746f724c6f6769633a20696e76616c696420706040820152620c2e8d60eb1b606082015260800190565b60208082526028908201527f506f6c79676f6e436f6e6e6563746f724c6f6769633a20616c7265616479207760408201526734ba34323930bbb760c11b606082015260800190565b6020808252602b908201527f496e697469616c697a61626c653a20636f6e7472616374206973206e6f74206960408201526a6e697469616c697a696e6760a81b606082015260800190565b60208082526025908201527f506f6c79676f6e436f6e6e6563746f724c6f6769633a206e6f7420617574686f6040820152641c9a5e995960da1b606082015260800190565b60006101608d83528c602084015260018060a01b03808d166040850152808c1660608501528a60808501528160a0850152613c388285018b613810565b9150613c4760c085018a61383c565b871660e08401526101008301869052828103610120840152613c6981866137cd565b915050826101408301529c9b505050505050505050505050565b898152602081018990526001600160a01b038881166040830152871660608201526080810186905261012060a08201819052600090613cc483820188613810565b9050613cd360c084018761383c565b82810360e08401526139e681866137cd565b95865260208601949094526001600160a01b039283166040860152606085019190915260070b60808401521660a082015260c00190565b60006101008a8352896020840152886040840152806060840152613d4281840189613810565b9050613d51608084018861383c565b8560a08401528460c084015282810360e0840152613d6f81856137cd565b9b9a5050505050505050505050565b60006101408c83528b60208401528a60408401528960608401528860808401528760a08401528660c08401528060e0840152613dbc818401876137cd565b9050828103610100840152613dd18186613810565b915050613d6f61012083018461383c565b60006101608d83528c60208401528b60408401528a60608401528960808401528860a08401528760c08401528060e0840152613e20818401886137cd565b9050828103610100840152613e358187613810565b915050613e4661012083018561383c565b826101408301529c9b505050505050505050505050565b604051601f8201601f191681016001600160401b0381118282101715613e8557613e85613f7f565b604052919050565b60006001600160401b03821115613ea657613ea6613f7f565b50601f01601f191660200190565b60008219821115613ec757613ec7613f69565b500190565b600082613ee757634e487b7160e01b81526012600452602481fd5b500490565b6000816000190483118215151615613f0657613f06613f69565b500290565b600082821015613f1d57613f1d613f69565b500390565b60005b83811015613f3d578181015183820152602001613f25565b838111156108e65750506000910152565b6000600019821415613f6257613f62613f69565b5060010190565b634e487b7160e01b600052601160045260246000fd5b634e487b7160e01b600052604160045260246000fd5b6001600160a01b0381168114610dbe57600080fd5b8060070b8114610dbe57600080fdfef43f17a174cd55d7d75e934475f1cec7890c2bf3fabbf376de3868f0d8ce6897a264697066735822122079f3d8cece84038aea8f8acf4273e17b909667233f11999f3d0f298e10b4a49664736f6c63430008040033",
  "devdoc": {
    "kind": "dev",
    "methods": {
      "emergencyWithdraw(address,address,uint256)": {
        "details": "Only owner can call this"
      },
      "owner()": {
        "details": "Returns the address of the current owner."
      },
      "paused()": {
        "details": "Returns true if the contract is paused, and false otherwise."
      },
      "renounceOwnership()": {
        "details": "Leaves the contract without owner. It will not be possible to call `onlyOwner` functions. Can only be called by the current owner. NOTE: Renouncing ownership will leave the contract without an owner, thereby disabling any functionality that is only available to the owner."
      },
      "setBridgeTokenMapping(address,uint256,address)": {
        "params": {
          "_destinationToken": "Address of the token on the target chain",
          "_sourceToken": "Address of the token on the current chain"
        }
      },
      "transferOwnership(address)": {
        "details": "Transfers ownership of the contract to a new account (`newOwner`). Can only be called by the current owner."
      },
      "withdrawFundsToSourceChain(bytes,uint8,bytes32,bytes32)": {
        "details": "This function is used for both failed BTC and Rune requests",
        "params": {
          "_message": "The signed message",
          "_r": "Signature r",
          "_s": "Signature s",
          "_v": "Signature v"
        }
      },
      "withdrawFundsToSourceChainByAdminV2(bytes32,uint256,uint256,address,int64)": {
        "details": "Owner can only set the relayer fee percentage"
      },
      "withdrawFundsToSourceChainByOwnerOrAdmin(address,uint256,uint256,address,int64)": {
        "details": "Owner can only set the relayer fee percentage"
      }
    },
    "version": 1
  },
  "userdoc": {
    "kind": "user",
    "methods": {
      "emergencyWithdraw(address,address,uint256)": {
        "notice": "Withdraws tokens in the emergency case"
      },
      "handleV3AcrossMessage(address,uint256,address,bytes)": {
        "notice": "Process requests coming from Ethereum (using Across V3)"
      },
      "setAcross(address)": {
        "notice": "Setter for AcrossV3"
      },
      "setAcrossAdmin(address)": {
        "notice": "Setter for Across Admin"
      },
      "setBridgeTokenMapping(address,uint256,address)": {
        "notice": "Setter for bridge token mapping"
      },
      "setBurnRouterProxy(address)": {
        "notice": "Setter for BurnRouterProxy"
      },
      "setGasLimit(uint256)": {
        "notice": "Setter for Gas Limit"
      },
      "setLockersProxy(address)": {
        "notice": "Setter for LockersProxy"
      },
      "setRuneRouterProxy(address)": {
        "notice": "Setter for runeRouterProxy"
      },
      "withdrawFundsToSourceChain(bytes,uint8,bytes32,bytes32)": {
        "notice": "Send back tokens to the source chain"
      },
      "withdrawFundsToSourceChainByAdminV2(bytes32,uint256,uint256,address,int64)": {
        "notice": "Send back tokens to the source chain by owner"
      },
      "withdrawFundsToSourceChainByOwnerOrAdmin(address,uint256,uint256,address,int64)": {
        "notice": "Send back tokens to the source chain by owner"
      }
    },
    "version": 1
  },
  "storageLayout": {
    "storage": [
      {
        "astId": 139,
        "contract": "contracts/chain_connectors/PolyConnectorLogic.sol:PolyConnectorLogic",
        "label": "_initialized",
        "offset": 0,
        "slot": "0",
        "type": "t_uint8"
      },
      {
        "astId": 142,
        "contract": "contracts/chain_connectors/PolyConnectorLogic.sol:PolyConnectorLogic",
        "label": "_initializing",
        "offset": 1,
        "slot": "0",
        "type": "t_bool"
      },
      {
        "astId": 894,
        "contract": "contracts/chain_connectors/PolyConnectorLogic.sol:PolyConnectorLogic",
        "label": "__gap",
        "offset": 0,
        "slot": "1",
        "type": "t_array(t_uint256)50_storage"
      },
      {
        "astId": 11,
        "contract": "contracts/chain_connectors/PolyConnectorLogic.sol:PolyConnectorLogic",
        "label": "_owner",
        "offset": 0,
        "slot": "51",
        "type": "t_address"
      },
      {
        "astId": 131,
        "contract": "contracts/chain_connectors/PolyConnectorLogic.sol:PolyConnectorLogic",
        "label": "__gap",
        "offset": 0,
        "slot": "52",
        "type": "t_array(t_uint256)49_storage"
      },
      {
        "astId": 444,
        "contract": "contracts/chain_connectors/PolyConnectorLogic.sol:PolyConnectorLogic",
        "label": "_status",
        "offset": 0,
        "slot": "101",
        "type": "t_uint256"
      },
      {
        "astId": 513,
        "contract": "contracts/chain_connectors/PolyConnectorLogic.sol:PolyConnectorLogic",
        "label": "__gap",
        "offset": 0,
        "slot": "102",
        "type": "t_array(t_uint256)49_storage"
      },
      {
        "astId": 323,
        "contract": "contracts/chain_connectors/PolyConnectorLogic.sol:PolyConnectorLogic",
        "label": "_paused",
        "offset": 0,
        "slot": "151",
        "type": "t_bool"
      },
      {
        "astId": 428,
        "contract": "contracts/chain_connectors/PolyConnectorLogic.sol:PolyConnectorLogic",
        "label": "__gap",
        "offset": 0,
        "slot": "152",
        "type": "t_array(t_uint256)49_storage"
      },
      {
        "astId": 3402,
        "contract": "contracts/chain_connectors/PolyConnectorLogic.sol:PolyConnectorLogic",
        "label": "lockersProxy",
        "offset": 0,
        "slot": "201",
        "type": "t_address"
      },
      {
        "astId": 3405,
        "contract": "contracts/chain_connectors/PolyConnectorLogic.sol:PolyConnectorLogic",
        "label": "burnRouterProxy",
        "offset": 0,
        "slot": "202",
        "type": "t_address"
      },
      {
        "astId": 3408,
        "contract": "contracts/chain_connectors/PolyConnectorLogic.sol:PolyConnectorLogic",
        "label": "across",
        "offset": 0,
        "slot": "203",
        "type": "t_address"
      },
      {
        "astId": 3417,
        "contract": "contracts/chain_connectors/PolyConnectorLogic.sol:PolyConnectorLogic",
        "label": "failedReqs",
        "offset": 0,
        "slot": "204",
        "type": "t_mapping(t_address,t_mapping(t_uint256,t_mapping(t_address,t_uint256)))"
      },
      {
        "astId": 3428,
        "contract": "contracts/chain_connectors/PolyConnectorLogic.sol:PolyConnectorLogic",
        "label": "newFailedReqs",
        "offset": 0,
        "slot": "205",
        "type": "t_mapping(t_address,t_mapping(t_uint256,t_mapping(t_uint256,t_mapping(t_address,t_uint256))))"
      },
      {
        "astId": 3431,
        "contract": "contracts/chain_connectors/PolyConnectorLogic.sol:PolyConnectorLogic",
        "label": "runeRouterProxy",
        "offset": 0,
        "slot": "206",
        "type": "t_address"
      },
      {
        "astId": 3433,
        "contract": "contracts/chain_connectors/PolyConnectorLogic.sol:PolyConnectorLogic",
        "label": "acrossAdmin",
        "offset": 0,
        "slot": "207",
        "type": "t_address"
      },
      {
        "astId": 3435,
        "contract": "contracts/chain_connectors/PolyConnectorLogic.sol:PolyConnectorLogic",
        "label": "gasLimit",
        "offset": 0,
        "slot": "208",
        "type": "t_uint256"
      },
      {
        "astId": 3441,
        "contract": "contracts/chain_connectors/PolyConnectorLogic.sol:PolyConnectorLogic",
        "label": "bridgeTokenMapping",
        "offset": 0,
        "slot": "209",
        "type": "t_mapping(t_address,t_mapping(t_uint256,t_address))"
      },
      {
        "astId": 3451,
        "contract": "contracts/chain_connectors/PolyConnectorLogic.sol:PolyConnectorLogic",
        "label": "newFailedReqsV2",
        "offset": 0,
        "slot": "210",
        "type": "t_mapping(t_bytes32,t_mapping(t_uint256,t_mapping(t_uint256,t_mapping(t_address,t_uint256))))"
      }
    ],
    "types": {
      "t_address": {
        "encoding": "inplace",
        "label": "address",
        "numberOfBytes": "20"
      },
      "t_array(t_uint256)49_storage": {
        "base": "t_uint256",
        "encoding": "inplace",
        "label": "uint256[49]",
        "numberOfBytes": "1568"
      },
      "t_array(t_uint256)50_storage": {
        "base": "t_uint256",
        "encoding": "inplace",
        "label": "uint256[50]",
        "numberOfBytes": "1600"
      },
      "t_bool": {
        "encoding": "inplace",
        "label": "bool",
        "numberOfBytes": "1"
      },
      "t_bytes32": {
        "encoding": "inplace",
        "label": "bytes32",
        "numberOfBytes": "32"
      },
      "t_mapping(t_address,t_mapping(t_uint256,t_address))": {
        "encoding": "mapping",
        "key": "t_address",
        "label": "mapping(address => mapping(uint256 => address))",
        "numberOfBytes": "32",
        "value": "t_mapping(t_uint256,t_address)"
      },
      "t_mapping(t_address,t_mapping(t_uint256,t_mapping(t_address,t_uint256)))": {
        "encoding": "mapping",
        "key": "t_address",
        "label": "mapping(address => mapping(uint256 => mapping(address => uint256)))",
        "numberOfBytes": "32",
        "value": "t_mapping(t_uint256,t_mapping(t_address,t_uint256))"
      },
      "t_mapping(t_address,t_mapping(t_uint256,t_mapping(t_uint256,t_mapping(t_address,t_uint256))))": {
        "encoding": "mapping",
        "key": "t_address",
        "label": "mapping(address => mapping(uint256 => mapping(uint256 => mapping(address => uint256))))",
        "numberOfBytes": "32",
        "value": "t_mapping(t_uint256,t_mapping(t_uint256,t_mapping(t_address,t_uint256)))"
      },
      "t_mapping(t_address,t_uint256)": {
        "encoding": "mapping",
        "key": "t_address",
        "label": "mapping(address => uint256)",
        "numberOfBytes": "32",
        "value": "t_uint256"
      },
      "t_mapping(t_bytes32,t_mapping(t_uint256,t_mapping(t_uint256,t_mapping(t_address,t_uint256))))": {
        "encoding": "mapping",
        "key": "t_bytes32",
        "label": "mapping(bytes32 => mapping(uint256 => mapping(uint256 => mapping(address => uint256))))",
        "numberOfBytes": "32",
        "value": "t_mapping(t_uint256,t_mapping(t_uint256,t_mapping(t_address,t_uint256)))"
      },
      "t_mapping(t_uint256,t_address)": {
        "encoding": "mapping",
        "key": "t_uint256",
        "label": "mapping(uint256 => address)",
        "numberOfBytes": "32",
        "value": "t_address"
      },
      "t_mapping(t_uint256,t_mapping(t_address,t_uint256))": {
        "encoding": "mapping",
        "key": "t_uint256",
        "label": "mapping(uint256 => mapping(address => uint256))",
        "numberOfBytes": "32",
        "value": "t_mapping(t_address,t_uint256)"
      },
      "t_mapping(t_uint256,t_mapping(t_uint256,t_mapping(t_address,t_uint256)))": {
        "encoding": "mapping",
        "key": "t_uint256",
        "label": "mapping(uint256 => mapping(uint256 => mapping(address => uint256)))",
        "numberOfBytes": "32",
        "value": "t_mapping(t_uint256,t_mapping(t_address,t_uint256))"
      },
      "t_uint256": {
        "encoding": "inplace",
        "label": "uint256",
        "numberOfBytes": "32"
      },
      "t_uint8": {
        "encoding": "inplace",
        "label": "uint8",
        "numberOfBytes": "1"
      }
    }
  }
}