{
  "address": "0x7510A9cdD14aDf28C2C1e541Ce9a6d0E89f9EdAF",
  "abi": [
    {
      "inputs": [],
      "name": "ZeroAddress",
      "type": "error"
    },
    {
      "anonymous": false,
      "inputs": [
        {
          "indexed": false,
          "internalType": "address",
          "name": "oldAcross",
          "type": "address"
        },
        {
          "indexed": false,
          "internalType": "address",
          "name": "newAcross",
          "type": "address"
        }
      ],
      "name": "AcrossUpdated",
      "type": "event"
    },
    {
      "anonymous": false,
      "inputs": [
        {
          "indexed": false,
          "internalType": "address",
          "name": "oldBurnRouter",
          "type": "address"
        },
        {
          "indexed": false,
          "internalType": "address",
          "name": "newBurnRouter",
          "type": "address"
        }
      ],
      "name": "BurnRouterUpdated",
      "type": "event"
    },
    {
      "anonymous": false,
      "inputs": [
        {
          "indexed": false,
          "internalType": "address",
          "name": "oldEthConnector",
          "type": "address"
        },
        {
          "indexed": false,
          "internalType": "address",
          "name": "newEthConnector",
          "type": "address"
        }
      ],
      "name": "EthConnectorUpdated",
      "type": "event"
    },
    {
      "anonymous": false,
      "inputs": [
        {
          "indexed": false,
          "internalType": "uint256",
          "name": "uniqueCounter",
          "type": "uint256"
        },
        {
          "indexed": false,
          "internalType": "uint256",
          "name": "chainId",
          "type": "uint256"
        },
        {
          "indexed": false,
          "internalType": "address",
          "name": "exchangeConnector",
          "type": "address"
        },
        {
          "indexed": false,
          "internalType": "address",
          "name": "inputToken",
          "type": "address"
        },
        {
          "indexed": false,
          "internalType": "uint256",
          "name": "inputAmount",
          "type": "uint256"
        },
        {
          "indexed": true,
          "internalType": "address",
          "name": "userTargetAddress",
          "type": "address"
        },
        {
          "indexed": false,
          "internalType": "bytes",
          "name": "userScript",
          "type": "bytes"
        },
        {
          "indexed": false,
          "internalType": "enum ScriptTypes",
          "name": "scriptType",
          "type": "uint8"
        },
        {
          "indexed": false,
          "internalType": "address[]",
          "name": "path",
          "type": "address[]"
        },
        {
          "indexed": false,
          "internalType": "uint256",
          "name": "thirdPartyId",
          "type": "uint256"
        }
      ],
      "name": "FailedSwapAndUnwrap",
      "type": "event"
    },
    {
      "anonymous": false,
      "inputs": [
        {
          "indexed": false,
          "internalType": "uint256",
          "name": "uniqueCounter",
          "type": "uint256"
        },
        {
          "indexed": false,
          "internalType": "uint256",
          "name": "chainId",
          "type": "uint256"
        },
        {
          "indexed": true,
          "internalType": "address",
          "name": "userTargetAddress",
          "type": "address"
        },
        {
          "indexed": false,
          "internalType": "uint256",
          "name": "thirdPartyId",
          "type": "uint256"
        },
        {
          "indexed": false,
          "internalType": "uint256",
          "name": "internalId",
          "type": "uint256"
        },
        {
          "indexed": false,
          "internalType": "uint256",
          "name": "appId",
          "type": "uint256"
        },
        {
          "indexed": false,
          "internalType": "uint256",
          "name": "amount",
          "type": "uint256"
        },
        {
          "indexed": false,
          "internalType": "uint256",
          "name": "inputAmount",
          "type": "uint256"
        },
        {
          "indexed": false,
          "internalType": "address[]",
          "name": "path",
          "type": "address[]"
        },
        {
          "indexed": false,
          "internalType": "bytes",
          "name": "userScript",
          "type": "bytes"
        },
        {
          "indexed": false,
          "internalType": "enum ScriptTypes",
          "name": "scriptType",
          "type": "uint8"
        }
      ],
      "name": "FailedSwapAndUnwrapRune",
      "type": "event"
    },
    {
      "anonymous": false,
      "inputs": [
        {
          "indexed": false,
          "internalType": "uint256",
          "name": "uniqueCounter",
          "type": "uint256"
        },
        {
          "indexed": false,
          "internalType": "uint256",
          "name": "chainId",
          "type": "uint256"
        },
        {
          "indexed": false,
          "internalType": "address",
          "name": "exchangeConnector",
          "type": "address"
        },
        {
          "indexed": false,
          "internalType": "address",
          "name": "inputToken",
          "type": "address"
        },
        {
          "indexed": false,
          "internalType": "uint256",
          "name": "inputAmount",
          "type": "uint256"
        },
        {
          "indexed": true,
          "internalType": "bytes32",
          "name": "userTargetAddress",
          "type": "bytes32"
        },
        {
          "indexed": false,
          "internalType": "bytes",
          "name": "userScript",
          "type": "bytes"
        },
        {
          "indexed": false,
          "internalType": "enum ScriptTypes",
          "name": "scriptType",
          "type": "uint8"
        },
        {
          "indexed": false,
          "internalType": "address[]",
          "name": "path",
          "type": "address[]"
        },
        {
          "indexed": false,
          "internalType": "uint256",
          "name": "thirdPartyId",
          "type": "uint256"
        }
      ],
      "name": "FailedSwapAndUnwrapV2",
      "type": "event"
    },
    {
      "anonymous": false,
      "inputs": [
        {
          "indexed": false,
          "internalType": "uint8",
          "name": "version",
          "type": "uint8"
        }
      ],
      "name": "Initialized",
      "type": "event"
    },
    {
      "anonymous": false,
      "inputs": [
        {
          "indexed": false,
          "internalType": "address",
          "name": "oldLockersProxy",
          "type": "address"
        },
        {
          "indexed": false,
          "internalType": "address",
          "name": "newLockersProxy",
          "type": "address"
        }
      ],
      "name": "LockersProxyUpdated",
      "type": "event"
    },
    {
      "anonymous": false,
      "inputs": [
        {
          "indexed": false,
          "internalType": "string",
          "name": "functionName",
          "type": "string"
        },
        {
          "indexed": false,
          "internalType": "uint256",
          "name": "uniqueCounter",
          "type": "uint256"
        },
        {
          "indexed": false,
          "internalType": "uint256",
          "name": "chainId",
          "type": "uint256"
        },
        {
          "indexed": false,
          "internalType": "bytes",
          "name": "data",
          "type": "bytes"
        }
      ],
      "name": "MsgReceived",
      "type": "event"
    },
    {
      "anonymous": false,
      "inputs": [
        {
          "indexed": false,
          "internalType": "uint256",
          "name": "uniqueCounter",
          "type": "uint256"
        },
        {
          "indexed": false,
          "internalType": "uint256",
          "name": "chainId",
          "type": "uint256"
        },
        {
          "indexed": false,
          "internalType": "address",
          "name": "exchangeConnector",
          "type": "address"
        },
        {
          "indexed": false,
          "internalType": "address",
          "name": "inputToken",
          "type": "address"
        },
        {
          "indexed": false,
          "internalType": "uint256",
          "name": "inputAmount",
          "type": "uint256"
        },
        {
          "indexed": true,
          "internalType": "address",
          "name": "userTargetAddress",
          "type": "address"
        },
        {
          "indexed": false,
          "internalType": "bytes",
          "name": "userScript",
          "type": "bytes"
        },
        {
          "indexed": false,
          "internalType": "enum ScriptTypes",
          "name": "scriptType",
          "type": "uint8"
        },
        {
          "indexed": false,
          "internalType": "address",
          "name": "lockerTargetAddress",
          "type": "address"
        },
        {
          "indexed": false,
          "internalType": "uint256",
          "name": "requestIdOfLocker",
          "type": "uint256"
        },
        {
          "indexed": false,
          "internalType": "address[]",
          "name": "path",
          "type": "address[]"
        },
        {
          "indexed": false,
          "internalType": "uint256",
          "name": "thirdPartyId",
          "type": "uint256"
        }
      ],
      "name": "NewSwapAndUnwrap",
      "type": "event"
    },
    {
      "anonymous": false,
      "inputs": [
        {
          "indexed": false,
          "internalType": "uint256",
          "name": "uniqueCounter",
          "type": "uint256"
        },
        {
          "indexed": false,
          "internalType": "uint256",
          "name": "chainId",
          "type": "uint256"
        },
        {
          "indexed": true,
          "internalType": "address",
          "name": "userTargetAddress",
          "type": "address"
        },
        {
          "indexed": false,
          "internalType": "uint256",
          "name": "thirdPartyId",
          "type": "uint256"
        },
        {
          "indexed": false,
          "internalType": "uint256",
          "name": "internalId",
          "type": "uint256"
        },
        {
          "indexed": false,
          "internalType": "uint256",
          "name": "appId",
          "type": "uint256"
        },
        {
          "indexed": false,
          "internalType": "uint256",
          "name": "amount",
          "type": "uint256"
        },
        {
          "indexed": false,
          "internalType": "uint256",
          "name": "inputAmount",
          "type": "uint256"
        },
        {
          "indexed": false,
          "internalType": "address[]",
          "name": "path",
          "type": "address[]"
        },
        {
          "indexed": false,
          "internalType": "bytes",
          "name": "userScript",
          "type": "bytes"
        },
        {
          "indexed": false,
          "internalType": "enum ScriptTypes",
          "name": "scriptType",
          "type": "uint8"
        },
        {
          "indexed": false,
          "internalType": "uint256",
          "name": "requestIdOfLocker",
          "type": "uint256"
        }
      ],
      "name": "NewSwapAndUnwrapRune",
      "type": "event"
    },
    {
      "anonymous": false,
      "inputs": [
        {
          "indexed": false,
          "internalType": "uint256",
          "name": "uniqueCounter",
          "type": "uint256"
        },
        {
          "indexed": false,
          "internalType": "uint256",
          "name": "chainId",
          "type": "uint256"
        },
        {
          "indexed": false,
          "internalType": "address",
          "name": "exchangeConnector",
          "type": "address"
        },
        {
          "indexed": false,
          "internalType": "address",
          "name": "inputToken",
          "type": "address"
        },
        {
          "indexed": false,
          "internalType": "uint256",
          "name": "inputAmount",
          "type": "uint256"
        },
        {
          "indexed": true,
          "internalType": "bytes32",
          "name": "userTargetAddress",
          "type": "bytes32"
        },
        {
          "indexed": false,
          "internalType": "bytes",
          "name": "userScript",
          "type": "bytes"
        },
        {
          "indexed": false,
          "internalType": "enum ScriptTypes",
          "name": "scriptType",
          "type": "uint8"
        },
        {
          "indexed": false,
          "internalType": "address",
          "name": "lockerTargetAddress",
          "type": "address"
        },
        {
          "indexed": false,
          "internalType": "uint256",
          "name": "requestIdOfLocker",
          "type": "uint256"
        },
        {
          "indexed": false,
          "internalType": "address[]",
          "name": "path",
          "type": "address[]"
        },
        {
          "indexed": false,
          "internalType": "uint256",
          "name": "thirdPartyId",
          "type": "uint256"
        }
      ],
      "name": "NewSwapAndUnwrapV2",
      "type": "event"
    },
    {
      "anonymous": false,
      "inputs": [
        {
          "indexed": true,
          "internalType": "address",
          "name": "previousOwner",
          "type": "address"
        },
        {
          "indexed": true,
          "internalType": "address",
          "name": "newOwner",
          "type": "address"
        }
      ],
      "name": "OwnershipTransferred",
      "type": "event"
    },
    {
      "anonymous": false,
      "inputs": [
        {
          "indexed": false,
          "internalType": "address",
          "name": "account",
          "type": "address"
        }
      ],
      "name": "Paused",
      "type": "event"
    },
    {
      "anonymous": false,
      "inputs": [
        {
          "indexed": false,
          "internalType": "address",
          "name": "account",
          "type": "address"
        }
      ],
      "name": "Unpaused",
      "type": "event"
    },
    {
      "anonymous": false,
      "inputs": [
        {
          "indexed": false,
          "internalType": "uint256",
          "name": "uniqueCounter",
          "type": "uint256"
        },
        {
          "indexed": false,
          "internalType": "uint256",
          "name": "chainId",
          "type": "uint256"
        },
        {
          "indexed": false,
          "internalType": "address",
          "name": "token",
          "type": "address"
        },
        {
          "indexed": false,
          "internalType": "uint256",
          "name": "amount",
          "type": "uint256"
        },
        {
          "indexed": false,
          "internalType": "int64",
          "name": "relayerFeePercentage",
          "type": "int64"
        },
        {
          "indexed": false,
          "internalType": "address",
          "name": "user",
          "type": "address"
        }
      ],
      "name": "WithdrawnFundsToSourceChain",
      "type": "event"
    },
    {
      "anonymous": false,
      "inputs": [
        {
          "indexed": false,
          "internalType": "uint256",
          "name": "uniqueCounter",
          "type": "uint256"
        },
        {
          "indexed": false,
          "internalType": "uint256",
          "name": "chainId",
          "type": "uint256"
        },
        {
          "indexed": false,
          "internalType": "address",
          "name": "token",
          "type": "address"
        },
        {
          "indexed": false,
          "internalType": "uint256",
          "name": "amount",
          "type": "uint256"
        },
        {
          "indexed": false,
          "internalType": "int64",
          "name": "relayerFeePercentage",
          "type": "int64"
        },
        {
          "indexed": false,
          "internalType": "bytes32",
          "name": "refundAddress",
          "type": "bytes32"
        }
      ],
      "name": "WithdrawnFundsToSourceChainV2",
      "type": "event"
    },
    {
      "inputs": [],
      "name": "ETH_ADDR",
      "outputs": [
        {
          "internalType": "address",
          "name": "",
          "type": "address"
        }
      ],
      "stateMutability": "view",
      "type": "function"
    },
    {
      "inputs": [],
      "name": "across",
      "outputs": [
        {
          "internalType": "address",
          "name": "",
          "type": "address"
        }
      ],
      "stateMutability": "view",
      "type": "function"
    },
    {
      "inputs": [],
      "name": "acrossAdmin",
      "outputs": [
        {
          "internalType": "address",
          "name": "",
          "type": "address"
        }
      ],
      "stateMutability": "view",
      "type": "function"
    },
    {
      "inputs": [
        {
          "internalType": "address",
          "name": "",
          "type": "address"
        },
        {
          "internalType": "uint256",
          "name": "",
          "type": "uint256"
        }
      ],
      "name": "bridgeTokenMapping",
      "outputs": [
        {
          "internalType": "address",
          "name": "",
          "type": "address"
        }
      ],
      "stateMutability": "view",
      "type": "function"
    },
    {
      "inputs": [],
      "name": "burnRouterProxy",
      "outputs": [
        {
          "internalType": "address",
          "name": "",
          "type": "address"
        }
      ],
      "stateMutability": "view",
      "type": "function"
    },
    {
      "inputs": [],
      "name": "chainId",
      "outputs": [
        {
          "internalType": "uint256",
          "name": "",
          "type": "uint256"
        }
      ],
      "stateMutability": "view",
      "type": "function"
    },
    {
      "inputs": [
        {
          "internalType": "address",
          "name": "_token",
          "type": "address"
        },
        {
          "internalType": "address",
          "name": "_to",
          "type": "address"
        },
        {
          "internalType": "uint256",
          "name": "_amount",
          "type": "uint256"
        }
      ],
      "name": "emergencyWithdraw",
      "outputs": [],
      "stateMutability": "nonpayable",
      "type": "function"
    },
    {
      "inputs": [
        {
          "internalType": "address",
          "name": "",
          "type": "address"
        },
        {
          "internalType": "uint256",
          "name": "",
          "type": "uint256"
        },
        {
          "internalType": "address",
          "name": "",
          "type": "address"
        }
      ],
      "name": "failedReqs",
      "outputs": [
        {
          "internalType": "uint256",
          "name": "",
          "type": "uint256"
        }
      ],
      "stateMutability": "view",
      "type": "function"
    },
    {
      "inputs": [],
      "name": "gasLimit",
      "outputs": [
        {
          "internalType": "uint256",
          "name": "",
          "type": "uint256"
        }
      ],
      "stateMutability": "view",
      "type": "function"
    },
    {
      "inputs": [
        {
          "internalType": "address",
          "name": "_tokenSent",
          "type": "address"
        },
        {
          "internalType": "uint256",
          "name": "_amount",
          "type": "uint256"
        },
        {
          "internalType": "address",
          "name": "",
          "type": "address"
        },
        {
          "internalType": "bytes",
          "name": "_message",
          "type": "bytes"
        }
      ],
      "name": "handleV3AcrossMessage",
      "outputs": [],
      "stateMutability": "nonpayable",
      "type": "function"
    },
    {
      "inputs": [
        {
          "internalType": "address",
          "name": "_lockersProxy",
          "type": "address"
        },
        {
          "internalType": "address",
          "name": "_burnRouterProxy",
          "type": "address"
        },
        {
          "internalType": "address",
          "name": "_across",
          "type": "address"
        },
        {
          "internalType": "address",
          "name": "_runeRouterProxy",
          "type": "address"
        }
      ],
      "name": "initialize",
      "outputs": [],
      "stateMutability": "nonpayable",
      "type": "function"
    },
    {
      "inputs": [],
      "name": "lockersProxy",
      "outputs": [
        {
          "internalType": "address",
          "name": "",
          "type": "address"
        }
      ],
      "stateMutability": "view",
      "type": "function"
    },
    {
      "inputs": [
        {
          "internalType": "address",
          "name": "",
          "type": "address"
        },
        {
          "internalType": "uint256",
          "name": "",
          "type": "uint256"
        },
        {
          "internalType": "uint256",
          "name": "",
          "type": "uint256"
        },
        {
          "internalType": "address",
          "name": "",
          "type": "address"
        }
      ],
      "name": "newFailedReqs",
      "outputs": [
        {
          "internalType": "uint256",
          "name": "",
          "type": "uint256"
        }
      ],
      "stateMutability": "view",
      "type": "function"
    },
    {
      "inputs": [
        {
          "internalType": "bytes32",
          "name": "",
          "type": "bytes32"
        },
        {
          "internalType": "uint256",
          "name": "",
          "type": "uint256"
        },
        {
          "internalType": "uint256",
          "name": "",
          "type": "uint256"
        },
        {
          "internalType": "address",
          "name": "",
          "type": "address"
        }
      ],
      "name": "newFailedReqsV2",
      "outputs": [
        {
          "internalType": "uint256",
          "name": "",
          "type": "uint256"
        }
      ],
      "stateMutability": "view",
      "type": "function"
    },
    {
      "inputs": [],
      "name": "owner",
      "outputs": [
        {
          "internalType": "address",
          "name": "",
          "type": "address"
        }
      ],
      "stateMutability": "view",
      "type": "function"
    },
    {
      "inputs": [],
      "name": "paused",
      "outputs": [
        {
          "internalType": "bool",
          "name": "",
          "type": "bool"
        }
      ],
      "stateMutability": "view",
      "type": "function"
    },
    {
      "inputs": [
        {
          "internalType": "uint256",
          "name": "",
          "type": "uint256"
        },
        {
          "internalType": "uint256",
          "name": "",
          "type": "uint256"
        }
      ],
      "name": "processedRequests",
      "outputs": [
        {
          "internalType": "bool",
          "name": "",
          "type": "bool"
        }
      ],
      "stateMutability": "view",
      "type": "function"
    },
    {
      "inputs": [],
      "name": "renounceOwnership",
      "outputs": [],
      "stateMutability": "nonpayable",
      "type": "function"
    },
    {
      "inputs": [],
      "name": "runeRouterProxy",
      "outputs": [
        {
          "internalType": "address",
          "name": "",
          "type": "address"
        }
      ],
      "stateMutability": "view",
      "type": "function"
    },
    {
      "inputs": [
        {
          "internalType": "address",
          "name": "_across",
          "type": "address"
        }
      ],
      "name": "setAcross",
      "outputs": [],
      "stateMutability": "nonpayable",
      "type": "function"
    },
    {
      "inputs": [
        {
          "internalType": "address",
          "name": "_acrossAdmin",
          "type": "address"
        }
      ],
      "name": "setAcrossAdmin",
      "outputs": [],
      "stateMutability": "nonpayable",
      "type": "function"
    },
    {
      "inputs": [
        {
          "internalType": "address",
          "name": "_sourceToken",
          "type": "address"
        },
        {
          "internalType": "uint256",
          "name": "_destinationChainId",
          "type": "uint256"
        },
        {
          "internalType": "address",
          "name": "_destinationToken",
          "type": "address"
        }
      ],
      "name": "setBridgeTokenMapping",
      "outputs": [],
      "stateMutability": "nonpayable",
      "type": "function"
    },
    {
      "inputs": [
        {
          "internalType": "address",
          "name": "_burnRouterProxy",
          "type": "address"
        }
      ],
      "name": "setBurnRouterProxy",
      "outputs": [],
      "stateMutability": "nonpayable",
      "type": "function"
    },
    {
      "inputs": [
        {
          "internalType": "uint256",
          "name": "_chainId",
          "type": "uint256"
        }
      ],
      "name": "setChainId",
      "outputs": [],
      "stateMutability": "nonpayable",
      "type": "function"
    },
    {
      "inputs": [
        {
          "internalType": "uint256",
          "name": "_gasLimit",
          "type": "uint256"
        }
      ],
      "name": "setGasLimit",
      "outputs": [],
      "stateMutability": "nonpayable",
      "type": "function"
    },
    {
      "inputs": [
        {
          "internalType": "address",
          "name": "_lockersProxy",
          "type": "address"
        }
      ],
      "name": "setLockersProxy",
      "outputs": [],
      "stateMutability": "nonpayable",
      "type": "function"
    },
    {
      "inputs": [
        {
          "internalType": "address",
          "name": "_runeRouterProxy",
          "type": "address"
        }
      ],
      "name": "setRuneRouterProxy",
      "outputs": [],
      "stateMutability": "nonpayable",
      "type": "function"
    },
    {
      "inputs": [
        {
          "internalType": "address",
          "name": "_token",
          "type": "address"
        },
        {
          "internalType": "uint256",
          "name": "_decimals",
          "type": "uint256"
        }
      ],
      "name": "setTokenDecimalsOnDestinationChain",
      "outputs": [],
      "stateMutability": "nonpayable",
      "type": "function"
    },
    {
      "inputs": [
        {
          "internalType": "address",
          "name": "",
          "type": "address"
        }
      ],
      "name": "tokenDecimalsOnDestinationChain",
      "outputs": [
        {
          "internalType": "uint256",
          "name": "",
          "type": "uint256"
        }
      ],
      "stateMutability": "view",
      "type": "function"
    },
    {
      "inputs": [
        {
          "internalType": "address",
          "name": "newOwner",
          "type": "address"
        }
      ],
      "name": "transferOwnership",
      "outputs": [],
      "stateMutability": "nonpayable",
      "type": "function"
    },
    {
      "inputs": [
        {
          "internalType": "bytes",
          "name": "_message",
          "type": "bytes"
        },
        {
          "internalType": "uint8",
          "name": "_v",
          "type": "uint8"
        },
        {
          "internalType": "bytes32",
          "name": "_r",
          "type": "bytes32"
        },
        {
          "internalType": "bytes32",
          "name": "_s",
          "type": "bytes32"
        }
      ],
      "name": "withdrawFundsToSourceChain",
      "outputs": [],
      "stateMutability": "nonpayable",
      "type": "function"
    },
    {
      "inputs": [
        {
          "internalType": "bytes32",
          "name": "_refundAddress",
          "type": "bytes32"
        },
        {
          "internalType": "uint256",
          "name": "_chainId",
          "type": "uint256"
        },
        {
          "internalType": "uint256",
          "name": "_uniqueCounter",
          "type": "uint256"
        },
        {
          "internalType": "address",
          "name": "_token",
          "type": "address"
        },
        {
          "internalType": "int64",
          "name": "_bridgePercentageFee",
          "type": "int64"
        }
      ],
      "name": "withdrawFundsToSourceChainByAdminV2",
      "outputs": [],
      "stateMutability": "nonpayable",
      "type": "function"
    },
    {
      "inputs": [
        {
          "internalType": "address",
          "name": "_user",
          "type": "address"
        },
        {
          "internalType": "uint256",
          "name": "_chainId",
          "type": "uint256"
        },
        {
          "internalType": "uint256",
          "name": "_uniqueCounter",
          "type": "uint256"
        },
        {
          "internalType": "address",
          "name": "_token",
          "type": "address"
        },
        {
          "internalType": "int64",
          "name": "_relayerFeePercentage",
          "type": "int64"
        }
      ],
      "name": "withdrawFundsToSourceChainByOwnerOrAdmin",
      "outputs": [],
      "stateMutability": "nonpayable",
      "type": "function"
    },
    {
      "stateMutability": "payable",
      "type": "receive"
    }
  ],
  "transactionHash": "0xc8119cb7d4a12f4a790e395682f907a45058fce21e06e9e73b8ea325e373f821",
  "args": [],
  "numDeployments": 1,
  "solcInputHash": "93ccd4b4ff18ec674f9003abcca312ea",
  "bytecode": "0x608060405234801561001057600080fd5b5061440f806100206000396000f3fe6080604052600436106101825760003560e01c80630474b8fb1461018e5780630597865c146101ce57806307dd72dd146101fb5780630d2c8c70146102465780630daada011461028d5780631dbd94ff146102af578063292c1d92146102cf578063296079f1146102ef5780633a5be8cb1461030f5780633e9380971461032f5780633f8c6ae01461034f5780634d6e8f9d1461036f578063598418881461038f5780635c975abb146103af5780635f949129146103c757806361be10f214610408578063715018a6146104285780637753f47b1461043d57806377902f07146104655780638642050314610485578063878269b5146104a557806387c554f8146104c55780638907eb5c146104e55780638da5cb5b146105235780639a8a059214610538578063baf7f9181461054e578063d7fe6b7d14610595578063e63ea408146105b5578063ee7d72b4146105d5578063ef0e2ff4146105f5578063f2fde38b14610615578063f68016b714610635578063f8c8765e1461064b57600080fd5b3661018957005b600080fd5b34801561019a57600080fd5b506101bb6101a9366004613473565b60d46020526000908152604090205481565b6040519081526020015b60405180910390f35b3480156101da57600080fd5b5060ce546101ee906001600160a01b031681565b6040516101c59190613bb8565b34801561020757600080fd5b50610236610216366004613a82565b60d560209081526000928352604080842090915290825290205460ff1681565b60405190151581526020016101c5565b34801561025257600080fd5b506101bb6102613660046136d1565b60d260209081526000948552604080862082529385528385208152918452828420909152825290205481565b34801561029957600080fd5b506102ad6102a8366004613706565b61066b565b005b3480156102bb57600080fd5b506102ad6102ca366004613473565b6107a1565b3480156102db57600080fd5b5060cb546101ee906001600160a01b031681565b3480156102fb57600080fd5b5060c9546101ee906001600160a01b031681565b34801561031b57600080fd5b506102ad61032a3660046135b2565b6107f4565b34801561033b57600080fd5b506102ad61034a36600461373d565b610ab6565b34801561035b57600080fd5b5060ca546101ee906001600160a01b031681565b34801561037b57600080fd5b506102ad61038a366004613473565b610b97565b34801561039b57600080fd5b506102ad6103aa366004613473565b610bea565b3480156103bb57600080fd5b5060975460ff16610236565b3480156103d357600080fd5b506101ee6103e2366004613546565b60d16020908152600092835260408084209091529082529020546001600160a01b031681565b34801561041457600080fd5b506102ad610423366004613473565b610c3d565b34801561043457600080fd5b506102ad610c90565b34801561044957600080fd5b506101ee73eeeeeeeeeeeeeeeeeeeeeeeeeeeeeeeeeeeeeeee81565b34801561047157600080fd5b506102ad610480366004613546565b610ca4565b34801561049157600080fd5b506102ad6104a0366004613659565b610cc8565b3480156104b157600080fd5b506102ad6104c0366004613473565b610daa565b3480156104d157600080fd5b5060cf546101ee906001600160a01b031681565b3480156104f157600080fd5b506101bb610500366004613571565b60cc60209081526000938452604080852082529284528284209052825290205481565b34801561052f57600080fd5b506101ee610dd4565b34801561054457600080fd5b506101bb60d35481565b34801561055a57600080fd5b506101bb61056936600461361b565b60cd60209081526000948552604080862082529385528385208152918452828420909152825290205481565b3480156105a157600080fd5b506102ad6105b0366004613571565b610de3565b3480156105c157600080fd5b506102ad6105d0366004613506565b610e26565b3480156105e157600080fd5b506102ad6105f0366004613a52565b610f29565b34801561060157600080fd5b506102ad610610366004613a52565b610f36565b34801561062157600080fd5b506102ad610630366004613473565b610f43565b34801561064157600080fd5b506101bb60d05481565b34801561065757600080fd5b506102ad6106663660046134ab565b610fbc565b61067361112a565b60cf546001600160a01b03163314806106a4575061068f610dd4565b6001600160a01b0316336001600160a01b0316145b6106c95760405162461bcd60e51b81526004016106c090613ecb565b60405180910390fd5b600085815260d260209081526040808320878452825280832086845282528083206001600160a01b0386168452909152812080549190558061071d5760405162461bcd60e51b81526004016106c090613e38565b61072a8686858486611184565b60408051858152602081018790526001600160a01b0385169181019190915260608101829052600783900b608082015260a081018790527f73f04e25d893c427907bd37b5f4a3f289020af48582a9647567c143376c571e59060c0015b60405180910390a15061079a6001606555565b5050505050565b6107a96113ca565b806001600160a01b0381166107d15760405163d92e233d60e01b815260040160405180910390fd5b5060ce80546001600160a01b0319166001600160a01b0392909216919091179055565b6107fc61112a565b60d0545a101561084e5760405162461bcd60e51b815260206004820152601e60248201527f506f6c79676f6e436f6e6e6563746f724c6f6769633a206c6f7720676173000060448201526064016106c0565b60cb546001600160a01b031633146108b25760405162461bcd60e51b815260206004820152602160248201527f506f6c79676f6e436f6e6e6563746f724c6f6769633a206e6f74206163726f736044820152607360f81b60648201526084016106c0565b60008060006108c084611429565b9250925092507fd8883c6af9aa96506569d2db74cafb52037a26374320a8aeaf9fd5cd7df3d228838383876040516108fb9493929190613dc4565b60405180910390a1600081815260d56020908152604080832085845290915290205460ff16156109b45760cf5460405163a9059cbb60e01b81526001600160a01b038981169263a9059cbb9261095992909116908a90600401613d13565b602060405180830381600087803b15801561097357600080fd5b505af1158015610987573d6000803e3d6000fd5b505050506040513d601f19601f820116820180604052508101906109ab91906136b7565b50505050610aa6565b600081815260d560209081526040808320858452825291829020805460ff191660011790558151808301909252600d82526c073776170416e64556e7772617609c1b90820152610a05908490611516565b15610a1a57610a15868589611570565b610aa2565b610a4d836040518060400160405280601181526020017073776170416e64556e7772617052756e6560781b815250611516565b15610a5d57610a15868589611ac3565b610a92836040518060400160405280601381526020017273776170416e64556e77726170536f6c616e6160681b815250611516565b15610aa257610aa2868589611f14565b5050505b610ab06001606555565b50505050565b610abe61112a565b6000610acc858484876123aa565b905060008060008088806020019051810190610ae89190613aa3565b6001600160a01b03898116600090815260cd6020908152604080832088845282528083208784528252808320938616835292905290812080549190559397509195509350915080610b4b5760405162461bcd60e51b81526004016106c090613e38565b610b5886868584866124d9565b6000805160206143ba83398151915284868584868b604051610b7f96959493929190613ffa565b60405180910390a1505050505050610ab06001606555565b610b9f6113ca565b806001600160a01b038116610bc75760405163d92e233d60e01b815260040160405180910390fd5b5060ca80546001600160a01b0319166001600160a01b0392909216919091179055565b610bf26113ca565b806001600160a01b038116610c1a5760405163d92e233d60e01b815260040160405180910390fd5b5060c980546001600160a01b0319166001600160a01b0392909216919091179055565b610c456113ca565b806001600160a01b038116610c6d5760405163d92e233d60e01b815260040160405180910390fd5b5060cb80546001600160a01b0319166001600160a01b0392909216919091179055565b610c986113ca565b610ca2600061264f565b565b610cac6113ca565b6001600160a01b03909116600090815260d46020526040902055565b610cd061112a565b60cf546001600160a01b0316331480610d015750610cec610dd4565b6001600160a01b0316336001600160a01b0316145b610d1d5760405162461bcd60e51b81526004016106c090613ecb565b6001600160a01b03858116600090815260cd60209081526040808320888452825280832087845282528083209386168352929052908120805491905580610d765760405162461bcd60e51b81526004016106c090613e38565b610d8386868584866124d9565b6000805160206143ba83398151915284868584868b60405161078796959493929190613ffa565b610db26113ca565b60cf80546001600160a01b0319166001600160a01b0392909216919091179055565b6033546001600160a01b031690565b610deb6113ca565b6001600160a01b03928316600090815260d1602090815260408083209483529390529190912080546001600160a01b03191691909216179055565b610e2e6113ca565b6001600160a01b03831673eeeeeeeeeeeeeeeeeeeeeeeeeeeeeeeeeeeeeeee1415610ea9576040516001600160a01b038316908290600081818185875af1925050503d8060008114610e9c576040519150601f19603f3d011682016040523d82523d6000602084013e610ea1565b606091505b505050505050565b60405163a9059cbb60e01b81526001600160a01b0384169063a9059cbb90610ed79085908590600401613d13565b602060405180830381600087803b158015610ef157600080fd5b505af1158015610f05573d6000803e3d6000fd5b505050506040513d601f19601f82011682018060405250810190610ab091906136b7565b610f316113ca565b60d055565b610f3e6113ca565b60d355565b610f4b6113ca565b6001600160a01b038116610fb05760405162461bcd60e51b815260206004820152602660248201527f4f776e61626c653a206e6577206f776e657220697320746865207a65726f206160448201526564647265737360d01b60648201526084016106c0565b610fb98161264f565b50565b600054610100900460ff1615808015610fdc5750600054600160ff909116105b80610ff65750303b158015610ff6575060005460ff166001145b6110595760405162461bcd60e51b815260206004820152602e60248201527f496e697469616c697a61626c653a20636f6e747261637420697320616c72656160448201526d191e481a5b9a5d1a585b1a5e995960921b60648201526084016106c0565b6000805460ff19166001179055801561107c576000805461ff0019166101001790555b6110846126a1565b61108c6126d0565b6110946126ff565b60c980546001600160a01b038088166001600160a01b03199283161790925560ca805487841690831617905560cb805486841690831617905560ce805492851692909116919091179055801561079a576000805461ff0019169055604051600181527f7f26b83ff96e1f2b6a682f133852f6798a09c465da95921460cefb38474024989060200160405180910390a15050505050565b6002606554141561117d5760405162461bcd60e51b815260206004820152601f60248201527f5265656e7472616e637947756172643a207265656e7472616e742063616c6c0060448201526064016106c0565b6002606555565b60cb5460405163095ea7b360e01b81526001600160a01b038581169263095ea7b3926111b892909116908690600401613d13565b602060405180830381600087803b1580156111d257600080fd5b505af11580156111e6573d6000803e3d6000fd5b505050506040513d601f19601f8201168201806040525081019061120a91906136b7565b506060600061121a85858861272e565b90506000670de0b6b3a764000061123a6001600160401b0386168261430b565b61124490846142ec565b61124e91906141e1565b905086606514156112df5760cf546001600160a01b03908116908990881660008885651f2abb7bf89b8342611285816138406141c9565b60408051602081018252600080825291516112ae9c9b9a99989796959493929190602401613d2c565b60408051601f198184030181529190526020810180516001600160e01b03166356aa12e360e11b179052925061137b565b60cf546001600160a01b03878116600090815260d1602090815260408083208c8452909152812054928216928b928a92911690899086908d9042611325816138406141c9565b604080516020810182526000808252915161134e9c9b9a99989796959493929190602401613bcc565b60408051601f198184030181529190526020810180516001600160e01b0316633dc9c91960e11b17905292505b60008360405160200161138e9190613b8f565b60408051601f1981840301815291905260cb549091506113b7906001600160a01b0316826127cf565b50505050505050505050565b6001606555565b336113d3610dd4565b6001600160a01b031614610ca25760405162461bcd60e51b815260206004820181905260248201527f4f776e61626c653a2063616c6c6572206973206e6f7420746865206f776e657260448201526064016106c0565b606060008060238451106114f357600080604051602001611463907273776170416e64556e77726170536f6c616e6160681b815260130190565b604051602081830303815290604052905060006020870151925060208201519050806001600160681b031916836001600160681b03191614156114ef576114ab876013612811565b94506114b887601b612811565b60408051808201909152601381527273776170416e64556e77726170536f6c616e6160681b60208201529650935061150f92505050565b5050505b83806020019051810190611507919061379e565b919450925090505b9193909250565b6000816040516020016115299190613b73565b60405160208183030381529060405280519060200120836040516020016115509190613b73565b604051602081830303815290604052805190602001201490505b92915050565b600061157b83612874565b9050816001600160a01b03168160c001516000815181106115ac57634e487b7160e01b600052603260045260246000fd5b60200260200101516001600160a01b0316146115da5760405162461bcd60e51b81526004016106c090613df5565b604080516002808252606082018352600092602083019080368337019050509050848160008151811061161d57634e487b7160e01b600052603260045260246000fd5b60200260200101818152505081608001518160018151811061164f57634e487b7160e01b600052603260045260246000fd5b602090810291909101015260ca5460405163095ea7b360e01b81526001600160a01b038581169263095ea7b39261168e92909116908990600401613d13565b602060405180830381600087803b1580156116a857600080fd5b505af11580156116bc573d6000803e3d6000fd5b505050506040513d601f19601f820116820180604052508101906116e091906136b7565b5060ca54606083015160a084015160c085015160e0860151805160208201516040928301516101008a015193516344dd6aa560e01b81526001600160a01b03909816976344dd6aa5976117449790968b969195909442949193909290600401613c58565b602060405180830381600087803b15801561175e57600080fd5b505af192505050801561178e575060408051601f3d908101601f1916820190925261178b91810190613a6a565b60015b6119145760ca5460405163095ea7b360e01b81526001600160a01b038581169263095ea7b3926117c79290911690600090600401613d13565b602060405180830381600087803b1580156117e157600080fd5b505af11580156117f5573d6000803e3d6000fd5b505050506040513d601f19601f8201168201806040525081019061181991906136b7565b508460cd600084604001516001600160a01b03166001600160a01b031681526020019081526020016000206000846020015181526020019081526020016000206000846000015181526020019081526020016000206000856001600160a01b03166001600160a01b031681526020019081526020016000208190555081604001516001600160a01b03167fa79aee2abfa3037b36c3689636c9932b113a82cebda0057ac4ce2386371fc969836000015184602001518560600151878a8860e00151600001518960e00151602001518a60c001518b610100015160405161190799989796959493929190613f98565b60405180910390a261079a565b5060c95460e0830151604090810151905163626885b560e11b81526000926001600160a01b03169163c4d10b6a9161194f9190600401613db1565b60206040518083038186803b15801561196757600080fd5b505afa15801561197b573d6000803e3d6000fd5b505050506040513d601f19601f8201168201806040525081019061199f919061348f565b905082604001516001600160a01b03167f124f82fb68081b8c772a74ce98c0c92b659dd79e4fd3f03cf49988818eb04e8b846000015185602001518660600151888b8960e00151600001518a60e001516020015189600160ca60009054906101000a90046001600160a01b03166001600160a01b031663930a60e88d6040518263ffffffff1660e01b8152600401611a379190613bb8565b60206040518083038186803b158015611a4f57600080fd5b505afa158015611a63573d6000803e3d6000fd5b505050506040513d601f19601f82011682018060405250810190611a879190613a6a565b611a91919061430b565b8d60c001518e6101000151604051611ab39b9a99989796959493929190613f10565b60405180910390a2505050505050565b6000611ace836128f0565b9050816001600160a01b03168160e00151600081518110611aff57634e487b7160e01b600052603260045260246000fd5b60200260200101516001600160a01b031614611b2d5760405162461bcd60e51b81526004016106c090613df5565b60ce5460405163095ea7b360e01b81526001600160a01b038481169263095ea7b392611b6192909116908890600401613d13565b602060405180830381600087803b158015611b7b57600080fd5b505af1158015611b8f573d6000803e3d6000fd5b505050506040513d601f19601f82011682018060405250810190611bb391906136b7565b5060ce546060820151608083015160c0840151610100850151805160209091015160a087015160e088015160405163e91ffefd60e01b81526001600160a01b039098169763e91ffefd97600097611c1a979196909591949093919290918f91600401614031565b6020604051808303818588803b158015611c3357600080fd5b505af193505050508015611c64575060408051601f3d908101601f19168201909252611c6191810190613a6a565b60015b611df55760ce5460405163095ea7b360e01b81526001600160a01b038481169263095ea7b392611c9d9290911690600090600401613d13565b602060405180830381600087803b158015611cb757600080fd5b505af1158015611ccb573d6000803e3d6000fd5b505050506040513d601f19601f82011682018060405250810190611cef91906136b7565b508360cd600083604001516001600160a01b03166001600160a01b031681526020019081526020016000206000836020015181526020019081526020016000206000836000015181526020019081526020016000206000846001600160a01b03166001600160a01b031681526020019081526020016000208190555080604001516001600160a01b03167feef470645928135b5faf5eb6a2f7076448531d47f42149c2b1ceaa9fe1d624a082600001518360200151846060015185608001518660a001518760c001518b8960e001518a6101000151600001518b610100015160200151604051611de89a99989796959493929190614093565b60405180910390a2610ab0565b5080604001516001600160a01b03167f13a9049471d86bfc267b825d08be20c5ebfc793c109c11eb159af6781cda310582600001518360200151846060015185608001518660a001518760c001518b8960e001518a6101000151600001518b610100015160200151600160ce60009054906101000a90046001600160a01b03166001600160a01b03166390665eca6040518163ffffffff1660e01b815260040160206040518083038186803b158015611ead57600080fd5b505afa158015611ec1573d6000803e3d6000fd5b505050506040513d601f19601f82011682018060405250810190611ee59190613a6a565b611eef919061430b565b604051611f069b9a999897969594939291906140f7565b60405180910390a250505050565b6000611f1f83612968565b9050816001600160a01b03168160c00151600081518110611f5057634e487b7160e01b600052603260045260246000fd5b60200260200101516001600160a01b031614611f7e5760405162461bcd60e51b81526004016106c090613df5565b6040805160028082526060820183526000926020830190803683370190505090508481600081518110611fc157634e487b7160e01b600052603260045260246000fd5b602002602001018181525050816080015181600181518110611ff357634e487b7160e01b600052603260045260246000fd5b602090810291909101015260ca5460405163095ea7b360e01b81526001600160a01b038581169263095ea7b39261203292909116908990600401613d13565b602060405180830381600087803b15801561204c57600080fd5b505af1158015612060573d6000803e3d6000fd5b505050506040513d601f19601f8201168201806040525081019061208491906136b7565b5060ca54606083015160a084015160c085015160e0860151805160208201516040928301516101008a015193516344dd6aa560e01b81526001600160a01b03909816976344dd6aa5976120e89790968b969195909442949193909290600401613c58565b602060405180830381600087803b15801561210257600080fd5b505af1925050508015612132575060408051601f3d908101601f1916820190925261212f91810190613a6a565b60015b6122905760ca5460405163095ea7b360e01b81526001600160a01b038581169263095ea7b39261216b9290911690600090600401613d13565b602060405180830381600087803b15801561218557600080fd5b505af1158015612199573d6000803e3d6000fd5b505050506040513d601f19601f820116820180604052508101906121bd91906136b7565b508460d26000846040015181526020019081526020016000206000846020015181526020019081526020016000206000846000015181526020019081526020016000206000856001600160a01b03166001600160a01b031681526020019081526020016000208190555081604001517fb17828193b4763de79b6775e487212e0fac3348f5ef445ae4419b0806bf760a1836000015184602001518560600151878a8860e00151600001518960e00151602001518a60c001518b610100015160405161190799989796959493929190613f98565b5060c95460e0830151604090810151905163626885b560e11b81526000926001600160a01b03169163c4d10b6a916122cb9190600401613db1565b60206040518083038186803b1580156122e357600080fd5b505afa1580156122f7573d6000803e3d6000fd5b505050506040513d601f19601f8201168201806040525081019061231b919061348f565b905082604001517f55e61be1ca8704cfaf63bfd3a4a99c40ff55c149c7cb6a34816b33650ac2a44d846000015185602001518660600151888b8960e00151600001518a60e001516020015189600160ca60009054906101000a90046001600160a01b03166001600160a01b031663930a60e88d6040518263ffffffff1660e01b8152600401611a379190613bb8565b600080858051906020012090506000816040516020016123f591907b0ca2ba3432b932bab69029b4b3b732b21026b2b9b9b0b3b29d05199960211b8152601c810191909152603c0190565b60408051601f198184030181528282528051602091820120600080855291840180845281905260ff88169284019290925260608301899052608083018890529092509060019060a0016020604051602081039080840390855afa158015612460573d6000803e3d6000fd5b5050604051601f1901519150506001600160a01b0381166124ce5760405162461bcd60e51b815260206004820152602260248201527f506f6c79676f6e436f6e6e6563746f724c6f6769633a20496e76616c69642073604482015261696760f01b60648201526084016106c0565b979650505050505050565b60cb5460405163095ea7b360e01b81526001600160a01b038581169263095ea7b39261250d92909116908690600401613d13565b602060405180830381600087803b15801561252757600080fd5b505af115801561253b573d6000803e3d6000fd5b505050506040513d601f19601f8201168201806040525081019061255f91906136b7565b50600061256d84848761272e565b90506000670de0b6b3a764000061258d6001600160401b0385168261430b565b61259790846142ec565b6125a191906141e1565b60cf546001600160a01b03878116600090815260d1602090815260408083208c845290915281205493945092918116918a9189911688868c87426125e7816138406141c9565b60408051602081018252600080825291516126109c9b9a99989796959493929190602401613bcc565b60408051601f19818403018152918152602080830180516001600160e01b0316633dc9c91960e11b179052905191925060009161138e91849101613b8f565b603380546001600160a01b038381166001600160a01b0319831681179093556040519116919082907f8be0079c531659141344cd1fd0a4f28419497f9722a3daafe3b4186f6b6457e090600090a35050565b600054610100900460ff166126c85760405162461bcd60e51b81526004016106c090613e80565b610ca2612ed0565b600054610100900460ff166126f75760405162461bcd60e51b81526004016106c090613e80565b610ca2612f00565b600054610100900460ff166127265760405162461bcd60e51b81526004016106c090613e80565b610ca2612f27565b6001600160a01b038316600090815260d4602052604090205460d3548391901580159061275a57508015155b156127c65760d35483146127c65760d3546038141561279a5761277e81601261430b565b61278990600a614244565b61279390856141e1565b91506127c6565b82603814156127c6576127ae81601261430b565b6127b990600a614244565b6127c390856142ec565b91505b505b9392505050565b60606127c883836040518060400160405280601e81526020017f416464726573733a206c6f772d6c6576656c2063616c6c206661696c65640000815250612f5a565b600080805b60088110156127c65761282a8160086142ec565b8561283583876141c9565b8151811061285357634e487b7160e01b600052603260045260246000fd5b016020015160f81c901b91909117908061286c8161434e565b915050612816565b61287c61312b565b8180602001905181019061289091906137eb565b60e08a015260c0890152151560a088015260808701526001600160a01b03908116606087015216604085015260208085019190915290835283516128db9250840181019084016138be565b6101008b015250979998505050505050505050565b6128f86131ab565b8180602001905181019061290c919061399c565b505050608088015260c087015260a08601526001600160a01b03166040850152602080850191909152908352835161294b92508401810190840161399c565b60608b01526101008a015260e08901525095979650505050505050565b6129d860405180610120016040528060008152602001600081526020016000801916815260200160006001600160a01b03168152602001600081526020016000151581526020016060815260200161319e6040805160608082018352808252600060208301529181019190915290565b60006129e56013826141c9565b90506129f18382612811565b82526129fe6008826141c9565b9050612a0a8382612811565b6020830152612a1a6008826141c9565b838101602001519091506040830152612a346020826141c9565b90506000612a46848360209101015190565b6001600160a01b03811660608501529050612a626020836141c9565b848101602001519092506080840152612a7c6020836141c9565b9150838281518110612a9e57634e487b7160e01b600052603260045260246000fd5b01602001516001600160f81b031916151560a0840152612abf6001836141c9565b91506000612acd8584612f71565b9050612ada6004846141c9565b92508063ffffffff166001600160401b03811115612b0857634e487b7160e01b600052604160045260246000fd5b604051908082528060200260200182016040528015612b31578160200160208202803683370190505b5060c085015260005b8163ffffffff16811015612bae57838601602001518060001c8660c001518381518110612b7757634e487b7160e01b600052603260045260246000fd5b6001600160a01b03909216602092830291909101820152612b9890866141c9565b9450508080612ba69061434e565b915050612b3a565b506000612bbb8685612f71565b9050612bc86004856141c9565b935060008163ffffffff166001600160401b03811115612bf857634e487b7160e01b600052604160045260246000fd5b6040519080825280601f01601f191660200182016040528015612c22576020820181803683370190505b50905060005b8263ffffffff16811015612cb35787612c4182886141c9565b81518110612c5f57634e487b7160e01b600052603260045260246000fd5b602001015160f81c60f81b828281518110612c8a57634e487b7160e01b600052603260045260246000fd5b60200101906001600160f81b031916908160001a90535080612cab8161434e565b915050612c28565b50612cc463ffffffff8316866141c9565b94506000878681518110612ce857634e487b7160e01b600052603260045260246000fd5b016020015160f81c6005811115612d0f57634e487b7160e01b600052602160045260246000fd5b9050612d1c6001876141c9565b95506000612d2a8988612f71565b9050612d376004886141c9565b965060008163ffffffff166001600160401b03811115612d6757634e487b7160e01b600052604160045260246000fd5b6040519080825280601f01601f191660200182016040528015612d91576020820181803683370190505b50905060005b8263ffffffff16811015612e22578a612db0828b6141c9565b81518110612dce57634e487b7160e01b600052603260045260246000fd5b602001015160f81c60f81b828281518110612df957634e487b7160e01b600052603260045260246000fd5b60200101906001600160f81b031916908160001a90535080612e1a8161434e565b915050612d97565b50612e3363ffffffff8316896141c9565b60e08a01805186905251909850602001836005811115612e6357634e487b7160e01b600052602160045260246000fd5b90816005811115612e8457634e487b7160e01b600052602160045260246000fd5b90525060e089015160400181905289518a9089908110612eb457634e487b7160e01b600052603260045260246000fd5b016020015160f81c6101008a0152509698975050505050505050565b600054610100900460ff16612ef75760405162461bcd60e51b81526004016106c090613e80565b610ca23361264f565b600054610100900460ff166113c35760405162461bcd60e51b81526004016106c090613e80565b600054610100900460ff16612f4e5760405162461bcd60e51b81526004016106c090613e80565b6097805460ff19169055565b6060612f698484600085612fda565b949350505050565b600080805b60048110156127c657612f8a8160086142ec565b63ffffffff1685612f9b83876141c9565b81518110612fb957634e487b7160e01b600052603260045260246000fd5b016020015160f81c901b919091179080612fd28161434e565b915050612f76565b60608247101561303b5760405162461bcd60e51b815260206004820152602660248201527f416464726573733a20696e73756666696369656e742062616c616e636520666f6044820152651c8818d85b1b60d21b60648201526084016106c0565b843b6130895760405162461bcd60e51b815260206004820152601d60248201527f416464726573733a2063616c6c20746f206e6f6e2d636f6e747261637400000060448201526064016106c0565b600080866001600160a01b031685876040516130a59190613b73565b60006040518083038185875af1925050503d80600081146130e2576040519150601f19603f3d011682016040523d82523d6000602084013e6130e7565b606091505b50915091506124ce828286606083156131015750816127c8565b8251156131115782518084602001fd5b8160405162461bcd60e51b81526004016106c09190613db1565b604051806101200160405280600081526020016000815260200160006001600160a01b0316815260200160006001600160a01b03168152602001600081526020016000151581526020016060815260200161319e6040805160608082018352808252600060208301529181019190915290565b8152602001600081525090565b604051806101200160405280600081526020016000815260200160006001600160a01b03168152602001600081526020016000815260200160008152602001600081526020016060815260200161321360408051808201909152606081526000602082015290565b905290565b805161322381614395565b919050565b600082601f830112613238578081fd5b815160206001600160401b038211156132535761325361437f565b8160051b613262828201614172565b83815282810190868401838801850189101561327c578687fd5b8693505b858410156132a757805161329381614395565b835260019390930192918401918401613280565b50979650505050505050565b8051801515811461322357600080fd5b600082601f8301126132d3578081fd5b81356132e66132e1826141a2565b614172565b8181528460208386010111156132fa578283fd5b816020850160208301379081016020019190915292915050565b600082601f830112613324578081fd5b81516133326132e1826141a2565b818152846020838601011115613346578283fd5b612f69826020830160208701614322565b80516006811061322357600080fd5b600060608284031215613377578081fd5b604051606081016001600160401b03808211838310171561339a5761339a61437f565b8160405282935084519150808211156133b257600080fd5b6133be86838701613314565b83526133cc60208601613357565b602084015260408501519150808211156133e557600080fd5b506133f285828601613314565b6040830152505092915050565b600060408284031215613410578081fd5b604080519081016001600160401b0380821183831017156134335761343361437f565b81604052829350845191508082111561344b57600080fd5b5061345885828601613314565b82525061346760208401613357565b60208201525092915050565b600060208284031215613484578081fd5b81356127c881614395565b6000602082840312156134a0578081fd5b81516127c881614395565b600080600080608085870312156134c0578283fd5b84356134cb81614395565b935060208501356134db81614395565b925060408501356134eb81614395565b915060608501356134fb81614395565b939692955090935050565b60008060006060848603121561351a578283fd5b833561352581614395565b9250602084013561353581614395565b929592945050506040919091013590565b60008060408385031215613558578182fd5b823561356381614395565b946020939093013593505050565b600080600060608486031215613585578081fd5b833561359081614395565b92506020840135915060408401356135a781614395565b809150509250925092565b600080600080608085870312156135c7578182fd5b84356135d281614395565b93506020850135925060408501356135e981614395565b915060608501356001600160401b03811115613603578182fd5b61360f878288016132c3565b91505092959194509250565b60008060008060808587031215613630578182fd5b843561363b81614395565b9350602085013592506040850135915060608501356134fb81614395565b600080600080600060a08688031215613670578283fd5b853561367b81614395565b94506020860135935060408601359250606086013561369981614395565b915060808601356136a9816143aa565b809150509295509295909350565b6000602082840312156136c8578081fd5b6127c8826132b3565b600080600080608085870312156136e6578182fd5b84359350602085013592506040850135915060608501356134fb81614395565b600080600080600060a0868803121561371d578283fd5b853594506020860135935060408601359250606086013561369981614395565b60008060008060808587031215613752578182fd5b84356001600160401b03811115613767578283fd5b613773878288016132c3565b945050602085013560ff81168114613789578283fd5b93969395505050506040820135916060013590565b6000806000606084860312156137b2578081fd5b83516001600160401b038111156137c7578182fd5b6137d386828701613314565b93505060208401519150604084015190509250925092565b60008060008060008060008060006101208a8c031215613809578687fd5b89516001600160401b038082111561381f578889fd5b61382b8d838e01613314565b9a5060208c0151995060408c0151985061384760608d01613218565b975061385560808d01613218565b965060a08c0151955061386a60c08d016132b3565b945060e08c015191508082111561387f578384fd5b61388b8d838e01613228565b93506101008c01519150808211156138a1578283fd5b506138ae8c828d01613366565b9150509295985092959850929598565b6000806000806000806000806000806101408b8d0312156138dd578384fd5b8a516001600160401b03808211156138f3578586fd5b6138ff8e838f01613314565b9b5060208d01519a5060408d0151995061391b60608e01613218565b985061392960808e01613218565b975060a08d0151965061393e60c08e016132b3565b955060e08d0151915080821115613953578283fd5b61395f8e838f01613228565b94506101008d0151915080821115613975578283fd5b506139828d828e01613366565b9250506101208b015190509295989b9194979a5092959850565b6000806000806000806000806000806101408b8d0312156139bb578384fd5b8a516001600160401b03808211156139d1578586fd5b6139dd8e838f01613314565b9b5060208d01519a5060408d015199506139f960608e01613218565b985060808d0151975060a08d0151965060c08d0151955060e08d0151915080821115613a23578485fd5b613a2f8e838f01613228565b94506101008d0151915080821115613a45578384fd5b506139828d828e016133ff565b600060208284031215613a63578081fd5b5035919050565b600060208284031215613a7b578081fd5b5051919050565b60008060408385031215613a94578182fd5b50508035926020909101359150565b60008060008060808587031215613ab8578182fd5b84519350602085015192506040850151613ad181614395565b60608601519092506134fb816143aa565b6000815180845260208085019450808401835b83811015613b1a5781516001600160a01b031687529582019590820190600101613af5565b509495945050505050565b60008151808452613b3d816020860160208601614322565b601f01601f19169290920160200192915050565b60068110613b6f57634e487b7160e01b600052602160045260246000fd5b9052565b60008251613b85818460208701614322565b9190910192915050565b60008251613ba1818460208701614322565b641dc0de008360d81b920191825250600501919050565b6001600160a01b0391909116815260200190565b6001600160a01b038d811682528c811660208301528b811660408301528a81166060830152608082018a905260a0820189905260c08201889052861660e082015263ffffffff858116610100830152841661012082015260ff83166101408201526000610180610160830152613c46610180830184613b25565b9e9d5050505050505050505050505050565b6001600160a01b038a16815261012060208083018290528a519183018290526000916101408401918c810191845b81811015613ca257835185529382019392820192600101613c86565b5050505089151560408401528281036060840152613cc0818a613ae2565b905087608084015282810360a0840152613cda8188613b25565b9050613ce960c0840187613b51565b82810360e0840152613cfb8186613b25565b915050826101008301529a9950505050505050505050565b6001600160a01b03929092168252602082015260400190565b60006101808e83528d60208401528c604084015260ff8c1660608401528a60808401528960a084015265ffffffffffff891660c08401528760e084015263ffffffff8088166101008501528087166101208501525060ff851661014084015280610160840152613d9e81840185613b25565b9f9e505050505050505050505050505050565b6020815260006127c86020830184613b25565b608081526000613dd76080830187613b25565b85602084015284604084015282810360608401526124ce8185613b25565b60208082526023908201527f506f6c79676f6e436f6e6e6563746f724c6f6769633a20696e76616c696420706040820152620c2e8d60eb1b606082015260800190565b60208082526028908201527f506f6c79676f6e436f6e6e6563746f724c6f6769633a20616c7265616479207760408201526734ba34323930bbb760c11b606082015260800190565b6020808252602b908201527f496e697469616c697a61626c653a20636f6e7472616374206973206e6f74206960408201526a6e697469616c697a696e6760a81b606082015260800190565b60208082526025908201527f506f6c79676f6e436f6e6e6563746f724c6f6769633a206e6f7420617574686f6040820152641c9a5e995960da1b606082015260800190565b60006101608d83528c602084015260018060a01b03808d166040850152808c1660608501528a60808501528160a0850152613f4d8285018b613b25565b9150613f5c60c085018a613b51565b871660e08401526101008301869052828103610120840152613f7e8186613ae2565b915050826101408301529c9b505050505050505050505050565b898152602081018990526001600160a01b038881166040830152871660608201526080810186905261012060a08201819052600090613fd983820188613b25565b9050613fe860c0840187613b51565b82810360e0840152613cfb8186613ae2565b95865260208601949094526001600160a01b039283166040860152606085019190915260070b60808401521660a082015260c00190565b60006101008a835289602084015288604084015280606084015261405781840189613b25565b90506140666080840188613b51565b8560a08401528460c084015282810360e08401526140848185613ae2565b9b9a5050505050505050505050565b60006101408c83528b60208401528a60408401528960608401528860808401528760a08401528660c08401528060e08401526140d181840187613ae2565b90508281036101008401526140e68186613b25565b915050614084610120830184613b51565b60006101608d83528c60208401528b60408401528a60608401528960808401528860a08401528760c08401528060e084015261413581840188613ae2565b905082810361010084015261414a8187613b25565b91505061415b610120830185613b51565b826101408301529c9b505050505050505050505050565b604051601f8201601f191681016001600160401b038111828210171561419a5761419a61437f565b604052919050565b60006001600160401b038211156141bb576141bb61437f565b50601f01601f191660200190565b600082198211156141dc576141dc614369565b500190565b6000826141fc57634e487b7160e01b81526012600452602481fd5b500490565b600181815b8085111561423c57816000190482111561422257614222614369565b8085161561422f57918102915b93841c9390800290614206565b509250929050565b60006127c8838360008261425a5750600161156a565b816142675750600061156a565b816001811461427d5760028114614287576142a3565b600191505061156a565b60ff84111561429857614298614369565b50506001821b61156a565b5060208310610133831016604e8410600b84101617156142c6575081810a61156a565b6142d08383614201565b80600019048211156142e4576142e4614369565b029392505050565b600081600019048311821515161561430657614306614369565b500290565b60008282101561431d5761431d614369565b500390565b60005b8381101561433d578181015183820152602001614325565b83811115610ab05750506000910152565b600060001982141561436257614362614369565b5060010190565b634e487b7160e01b600052601160045260246000fd5b634e487b7160e01b600052604160045260246000fd5b6001600160a01b0381168114610fb957600080fd5b8060070b8114610fb957600080fdfef43f17a174cd55d7d75e934475f1cec7890c2bf3fabbf376de3868f0d8ce6897a26469706673582212203ac8e3b2e5ce6a89c048ee6ba5a1e5c861b3bb29e772aa343887a03496c8ef3764736f6c63430008040033",
  "devdoc": {
    "kind": "dev",
    "methods": {
      "emergencyWithdraw(address,address,uint256)": {
        "details": "Only owner can call this"
      },
      "owner()": {
        "details": "Returns the address of the current owner."
      },
      "paused()": {
        "details": "Returns true if the contract is paused, and false otherwise."
      },
      "renounceOwnership()": {
        "details": "Leaves the contract without owner. It will not be possible to call `onlyOwner` functions. Can only be called by the current owner. NOTE: Renouncing ownership will leave the contract without an owner, thereby disabling any functionality that is only available to the owner."
      },
      "setBridgeTokenMapping(address,uint256,address)": {
        "params": {
          "_destinationToken": "Address of the token on the target chain",
          "_sourceToken": "Address of the token on the current chain"
        }
      },
      "setTokenDecimalsOnDestinationChain(address,uint256)": {
        "details": "Used for handling decimal differences (e.g., USDT: 18 on BSC, 6 on other chains)",
        "params": {
          "_decimals": "Decimals of the token on destination chains (e.g., 6 for USDT on non-BSC chains)",
          "_token": "Address of the token on the current chain"
        }
      },
      "transferOwnership(address)": {
        "details": "Transfers ownership of the contract to a new account (`newOwner`). Can only be called by the current owner."
      },
      "withdrawFundsToSourceChain(bytes,uint8,bytes32,bytes32)": {
        "details": "This function is used for both failed BTC and Rune requests",
        "params": {
          "_message": "The signed message",
          "_r": "Signature r",
          "_s": "Signature s",
          "_v": "Signature v"
        }
      },
      "withdrawFundsToSourceChainByAdminV2(bytes32,uint256,uint256,address,int64)": {
        "details": "Owner can only set the relayer fee percentage"
      },
      "withdrawFundsToSourceChainByOwnerOrAdmin(address,uint256,uint256,address,int64)": {
        "details": "Owner can only set the relayer fee percentage"
      }
    },
    "version": 1
  },
  "userdoc": {
    "kind": "user",
    "methods": {
      "emergencyWithdraw(address,address,uint256)": {
        "notice": "Withdraws tokens in the emergency case"
      },
      "handleV3AcrossMessage(address,uint256,address,bytes)": {
        "notice": "Process requests coming from Ethereum (using Across V3)"
      },
      "setAcross(address)": {
        "notice": "Setter for AcrossV3"
      },
      "setAcrossAdmin(address)": {
        "notice": "Setter for Across Admin"
      },
      "setBridgeTokenMapping(address,uint256,address)": {
        "notice": "Setter for bridge token mapping"
      },
      "setBurnRouterProxy(address)": {
        "notice": "Setter for BurnRouterProxy"
      },
      "setChainId(uint256)": {
        "notice": "Setter for Chain ID"
      },
      "setGasLimit(uint256)": {
        "notice": "Setter for Gas Limit"
      },
      "setLockersProxy(address)": {
        "notice": "Setter for LockersProxy"
      },
      "setRuneRouterProxy(address)": {
        "notice": "Setter for runeRouterProxy"
      },
      "setTokenDecimalsOnDestinationChain(address,uint256)": {
        "notice": "Setter for token decimals on destination chain"
      },
      "withdrawFundsToSourceChain(bytes,uint8,bytes32,bytes32)": {
        "notice": "Send back tokens to the source chain"
      },
      "withdrawFundsToSourceChainByAdminV2(bytes32,uint256,uint256,address,int64)": {
        "notice": "Send back tokens to the source chain by owner"
      },
      "withdrawFundsToSourceChainByOwnerOrAdmin(address,uint256,uint256,address,int64)": {
        "notice": "Send back tokens to the source chain by owner"
      }
    },
    "version": 1
  },
  "storageLayout": {
    "storage": [
      {
        "astId": 139,
        "contract": "contracts/chain_connectors/PolyConnectorLogic.sol:PolyConnectorLogic",
        "label": "_initialized",
        "offset": 0,
        "slot": "0",
        "type": "t_uint8"
      },
      {
        "astId": 142,
        "contract": "contracts/chain_connectors/PolyConnectorLogic.sol:PolyConnectorLogic",
        "label": "_initializing",
        "offset": 1,
        "slot": "0",
        "type": "t_bool"
      },
      {
        "astId": 894,
        "contract": "contracts/chain_connectors/PolyConnectorLogic.sol:PolyConnectorLogic",
        "label": "__gap",
        "offset": 0,
        "slot": "1",
        "type": "t_array(t_uint256)50_storage"
      },
      {
        "astId": 11,
        "contract": "contracts/chain_connectors/PolyConnectorLogic.sol:PolyConnectorLogic",
        "label": "_owner",
        "offset": 0,
        "slot": "51",
        "type": "t_address"
      },
      {
        "astId": 131,
        "contract": "contracts/chain_connectors/PolyConnectorLogic.sol:PolyConnectorLogic",
        "label": "__gap",
        "offset": 0,
        "slot": "52",
        "type": "t_array(t_uint256)49_storage"
      },
      {
        "astId": 444,
        "contract": "contracts/chain_connectors/PolyConnectorLogic.sol:PolyConnectorLogic",
        "label": "_status",
        "offset": 0,
        "slot": "101",
        "type": "t_uint256"
      },
      {
        "astId": 513,
        "contract": "contracts/chain_connectors/PolyConnectorLogic.sol:PolyConnectorLogic",
        "label": "__gap",
        "offset": 0,
        "slot": "102",
        "type": "t_array(t_uint256)49_storage"
      },
      {
        "astId": 323,
        "contract": "contracts/chain_connectors/PolyConnectorLogic.sol:PolyConnectorLogic",
        "label": "_paused",
        "offset": 0,
        "slot": "151",
        "type": "t_bool"
      },
      {
        "astId": 428,
        "contract": "contracts/chain_connectors/PolyConnectorLogic.sol:PolyConnectorLogic",
        "label": "__gap",
        "offset": 0,
        "slot": "152",
        "type": "t_array(t_uint256)49_storage"
      },
      {
        "astId": 3533,
        "contract": "contracts/chain_connectors/PolyConnectorLogic.sol:PolyConnectorLogic",
        "label": "lockersProxy",
        "offset": 0,
        "slot": "201",
        "type": "t_address"
      },
      {
        "astId": 3536,
        "contract": "contracts/chain_connectors/PolyConnectorLogic.sol:PolyConnectorLogic",
        "label": "burnRouterProxy",
        "offset": 0,
        "slot": "202",
        "type": "t_address"
      },
      {
        "astId": 3539,
        "contract": "contracts/chain_connectors/PolyConnectorLogic.sol:PolyConnectorLogic",
        "label": "across",
        "offset": 0,
        "slot": "203",
        "type": "t_address"
      },
      {
        "astId": 3548,
        "contract": "contracts/chain_connectors/PolyConnectorLogic.sol:PolyConnectorLogic",
        "label": "failedReqs",
        "offset": 0,
        "slot": "204",
        "type": "t_mapping(t_address,t_mapping(t_uint256,t_mapping(t_address,t_uint256)))"
      },
      {
        "astId": 3559,
        "contract": "contracts/chain_connectors/PolyConnectorLogic.sol:PolyConnectorLogic",
        "label": "newFailedReqs",
        "offset": 0,
        "slot": "205",
        "type": "t_mapping(t_address,t_mapping(t_uint256,t_mapping(t_uint256,t_mapping(t_address,t_uint256))))"
      },
      {
        "astId": 3562,
        "contract": "contracts/chain_connectors/PolyConnectorLogic.sol:PolyConnectorLogic",
        "label": "runeRouterProxy",
        "offset": 0,
        "slot": "206",
        "type": "t_address"
      },
      {
        "astId": 3564,
        "contract": "contracts/chain_connectors/PolyConnectorLogic.sol:PolyConnectorLogic",
        "label": "acrossAdmin",
        "offset": 0,
        "slot": "207",
        "type": "t_address"
      },
      {
        "astId": 3566,
        "contract": "contracts/chain_connectors/PolyConnectorLogic.sol:PolyConnectorLogic",
        "label": "gasLimit",
        "offset": 0,
        "slot": "208",
        "type": "t_uint256"
      },
      {
        "astId": 3572,
        "contract": "contracts/chain_connectors/PolyConnectorLogic.sol:PolyConnectorLogic",
        "label": "bridgeTokenMapping",
        "offset": 0,
        "slot": "209",
        "type": "t_mapping(t_address,t_mapping(t_uint256,t_address))"
      },
      {
        "astId": 3582,
        "contract": "contracts/chain_connectors/PolyConnectorLogic.sol:PolyConnectorLogic",
        "label": "newFailedReqsV2",
        "offset": 0,
        "slot": "210",
        "type": "t_mapping(t_bytes32,t_mapping(t_uint256,t_mapping(t_uint256,t_mapping(t_address,t_uint256))))"
      },
      {
        "astId": 3584,
        "contract": "contracts/chain_connectors/PolyConnectorLogic.sol:PolyConnectorLogic",
        "label": "chainId",
        "offset": 0,
        "slot": "211",
        "type": "t_uint256"
      },
      {
        "astId": 3588,
        "contract": "contracts/chain_connectors/PolyConnectorLogic.sol:PolyConnectorLogic",
        "label": "tokenDecimalsOnDestinationChain",
        "offset": 0,
        "slot": "212",
        "type": "t_mapping(t_address,t_uint256)"
      },
      {
        "astId": 3594,
        "contract": "contracts/chain_connectors/PolyConnectorLogic.sol:PolyConnectorLogic",
        "label": "processedRequests",
        "offset": 0,
        "slot": "213",
        "type": "t_mapping(t_uint256,t_mapping(t_uint256,t_bool))"
      }
    ],
    "types": {
      "t_address": {
        "encoding": "inplace",
        "label": "address",
        "numberOfBytes": "20"
      },
      "t_array(t_uint256)49_storage": {
        "base": "t_uint256",
        "encoding": "inplace",
        "label": "uint256[49]",
        "numberOfBytes": "1568"
      },
      "t_array(t_uint256)50_storage": {
        "base": "t_uint256",
        "encoding": "inplace",
        "label": "uint256[50]",
        "numberOfBytes": "1600"
      },
      "t_bool": {
        "encoding": "inplace",
        "label": "bool",
        "numberOfBytes": "1"
      },
      "t_bytes32": {
        "encoding": "inplace",
        "label": "bytes32",
        "numberOfBytes": "32"
      },
      "t_mapping(t_address,t_mapping(t_uint256,t_address))": {
        "encoding": "mapping",
        "key": "t_address",
        "label": "mapping(address => mapping(uint256 => address))",
        "numberOfBytes": "32",
        "value": "t_mapping(t_uint256,t_address)"
      },
      "t_mapping(t_address,t_mapping(t_uint256,t_mapping(t_address,t_uint256)))": {
        "encoding": "mapping",
        "key": "t_address",
        "label": "mapping(address => mapping(uint256 => mapping(address => uint256)))",
        "numberOfBytes": "32",
        "value": "t_mapping(t_uint256,t_mapping(t_address,t_uint256))"
      },
      "t_mapping(t_address,t_mapping(t_uint256,t_mapping(t_uint256,t_mapping(t_address,t_uint256))))": {
        "encoding": "mapping",
        "key": "t_address",
        "label": "mapping(address => mapping(uint256 => mapping(uint256 => mapping(address => uint256))))",
        "numberOfBytes": "32",
        "value": "t_mapping(t_uint256,t_mapping(t_uint256,t_mapping(t_address,t_uint256)))"
      },
      "t_mapping(t_address,t_uint256)": {
        "encoding": "mapping",
        "key": "t_address",
        "label": "mapping(address => uint256)",
        "numberOfBytes": "32",
        "value": "t_uint256"
      },
      "t_mapping(t_bytes32,t_mapping(t_uint256,t_mapping(t_uint256,t_mapping(t_address,t_uint256))))": {
        "encoding": "mapping",
        "key": "t_bytes32",
        "label": "mapping(bytes32 => mapping(uint256 => mapping(uint256 => mapping(address => uint256))))",
        "numberOfBytes": "32",
        "value": "t_mapping(t_uint256,t_mapping(t_uint256,t_mapping(t_address,t_uint256)))"
      },
      "t_mapping(t_uint256,t_address)": {
        "encoding": "mapping",
        "key": "t_uint256",
        "label": "mapping(uint256 => address)",
        "numberOfBytes": "32",
        "value": "t_address"
      },
      "t_mapping(t_uint256,t_bool)": {
        "encoding": "mapping",
        "key": "t_uint256",
        "label": "mapping(uint256 => bool)",
        "numberOfBytes": "32",
        "value": "t_bool"
      },
      "t_mapping(t_uint256,t_mapping(t_address,t_uint256))": {
        "encoding": "mapping",
        "key": "t_uint256",
        "label": "mapping(uint256 => mapping(address => uint256))",
        "numberOfBytes": "32",
        "value": "t_mapping(t_address,t_uint256)"
      },
      "t_mapping(t_uint256,t_mapping(t_uint256,t_bool))": {
        "encoding": "mapping",
        "key": "t_uint256",
        "label": "mapping(uint256 => mapping(uint256 => bool))",
        "numberOfBytes": "32",
        "value": "t_mapping(t_uint256,t_bool)"
      },
      "t_mapping(t_uint256,t_mapping(t_uint256,t_mapping(t_address,t_uint256)))": {
        "encoding": "mapping",
        "key": "t_uint256",
        "label": "mapping(uint256 => mapping(uint256 => mapping(address => uint256)))",
        "numberOfBytes": "32",
        "value": "t_mapping(t_uint256,t_mapping(t_address,t_uint256))"
      },
      "t_uint256": {
        "encoding": "inplace",
        "label": "uint256",
        "numberOfBytes": "32"
      },
      "t_uint8": {
        "encoding": "inplace",
        "label": "uint8",
        "numberOfBytes": "1"
      }
    }
  }
}