{
  "address": "0x24f02CdE18BFeE8A6a262c99DE88bcC123330356",
  "abi": [
    {
      "inputs": [],
      "name": "ZeroAddress",
      "type": "error"
    },
    {
      "anonymous": false,
      "inputs": [
        {
          "indexed": false,
          "internalType": "address",
          "name": "oldAcross",
          "type": "address"
        },
        {
          "indexed": false,
          "internalType": "address",
          "name": "newAcross",
          "type": "address"
        }
      ],
      "name": "AcrossUpdated",
      "type": "event"
    },
    {
      "anonymous": false,
      "inputs": [
        {
          "indexed": false,
          "internalType": "address",
          "name": "oldBurnRouter",
          "type": "address"
        },
        {
          "indexed": false,
          "internalType": "address",
          "name": "newBurnRouter",
          "type": "address"
        }
      ],
      "name": "BurnRouterUpdated",
      "type": "event"
    },
    {
      "anonymous": false,
      "inputs": [
        {
          "indexed": false,
          "internalType": "address",
          "name": "oldEthConnector",
          "type": "address"
        },
        {
          "indexed": false,
          "internalType": "address",
          "name": "newEthConnector",
          "type": "address"
        }
      ],
      "name": "EthConnectorUpdated",
      "type": "event"
    },
    {
      "anonymous": false,
      "inputs": [
        {
          "indexed": false,
          "internalType": "uint256",
          "name": "uniqueCounter",
          "type": "uint256"
        },
        {
          "indexed": false,
          "internalType": "uint256",
          "name": "chainId",
          "type": "uint256"
        },
        {
          "indexed": false,
          "internalType": "address",
          "name": "exchangeConnector",
          "type": "address"
        },
        {
          "indexed": false,
          "internalType": "address",
          "name": "inputToken",
          "type": "address"
        },
        {
          "indexed": false,
          "internalType": "uint256",
          "name": "inputAmount",
          "type": "uint256"
        },
        {
          "indexed": true,
          "internalType": "address",
          "name": "userTargetAddress",
          "type": "address"
        },
        {
          "indexed": false,
          "internalType": "bytes",
          "name": "userScript",
          "type": "bytes"
        },
        {
          "indexed": false,
          "internalType": "enum ScriptTypes",
          "name": "scriptType",
          "type": "uint8"
        },
        {
          "indexed": false,
          "internalType": "address[]",
          "name": "path",
          "type": "address[]"
        },
        {
          "indexed": false,
          "internalType": "uint256",
          "name": "thirdPartyId",
          "type": "uint256"
        }
      ],
      "name": "FailedSwapAndUnwrap",
      "type": "event"
    },
    {
      "anonymous": false,
      "inputs": [
        {
          "indexed": false,
          "internalType": "uint256",
          "name": "uniqueCounter",
          "type": "uint256"
        },
        {
          "indexed": false,
          "internalType": "uint256",
          "name": "chainId",
          "type": "uint256"
        },
        {
          "indexed": true,
          "internalType": "address",
          "name": "userTargetAddress",
          "type": "address"
        },
        {
          "indexed": false,
          "internalType": "uint256",
          "name": "thirdPartyId",
          "type": "uint256"
        },
        {
          "indexed": false,
          "internalType": "uint256",
          "name": "internalId",
          "type": "uint256"
        },
        {
          "indexed": false,
          "internalType": "uint256",
          "name": "appId",
          "type": "uint256"
        },
        {
          "indexed": false,
          "internalType": "uint256",
          "name": "amount",
          "type": "uint256"
        },
        {
          "indexed": false,
          "internalType": "uint256",
          "name": "inputAmount",
          "type": "uint256"
        },
        {
          "indexed": false,
          "internalType": "address[]",
          "name": "path",
          "type": "address[]"
        },
        {
          "indexed": false,
          "internalType": "bytes",
          "name": "userScript",
          "type": "bytes"
        },
        {
          "indexed": false,
          "internalType": "enum ScriptTypes",
          "name": "scriptType",
          "type": "uint8"
        }
      ],
      "name": "FailedSwapAndUnwrapRune",
      "type": "event"
    },
    {
      "anonymous": false,
      "inputs": [
        {
          "indexed": false,
          "internalType": "uint8",
          "name": "version",
          "type": "uint8"
        }
      ],
      "name": "Initialized",
      "type": "event"
    },
    {
      "anonymous": false,
      "inputs": [
        {
          "indexed": false,
          "internalType": "address",
          "name": "oldLockersProxy",
          "type": "address"
        },
        {
          "indexed": false,
          "internalType": "address",
          "name": "newLockersProxy",
          "type": "address"
        }
      ],
      "name": "LockersProxyUpdated",
      "type": "event"
    },
    {
      "anonymous": false,
      "inputs": [
        {
          "indexed": false,
          "internalType": "string",
          "name": "functionName",
          "type": "string"
        },
        {
          "indexed": false,
          "internalType": "uint256",
          "name": "uniqueCounter",
          "type": "uint256"
        },
        {
          "indexed": false,
          "internalType": "uint256",
          "name": "chainId",
          "type": "uint256"
        },
        {
          "indexed": false,
          "internalType": "bytes",
          "name": "data",
          "type": "bytes"
        }
      ],
      "name": "MsgReceived",
      "type": "event"
    },
    {
      "anonymous": false,
      "inputs": [
        {
          "indexed": false,
          "internalType": "uint256",
          "name": "uniqueCounter",
          "type": "uint256"
        },
        {
          "indexed": false,
          "internalType": "uint256",
          "name": "chainId",
          "type": "uint256"
        },
        {
          "indexed": false,
          "internalType": "address",
          "name": "exchangeConnector",
          "type": "address"
        },
        {
          "indexed": false,
          "internalType": "address",
          "name": "inputToken",
          "type": "address"
        },
        {
          "indexed": false,
          "internalType": "uint256",
          "name": "inputAmount",
          "type": "uint256"
        },
        {
          "indexed": true,
          "internalType": "address",
          "name": "userTargetAddress",
          "type": "address"
        },
        {
          "indexed": false,
          "internalType": "bytes",
          "name": "userScript",
          "type": "bytes"
        },
        {
          "indexed": false,
          "internalType": "enum ScriptTypes",
          "name": "scriptType",
          "type": "uint8"
        },
        {
          "indexed": false,
          "internalType": "address",
          "name": "lockerTargetAddress",
          "type": "address"
        },
        {
          "indexed": false,
          "internalType": "uint256",
          "name": "requestIdOfLocker",
          "type": "uint256"
        },
        {
          "indexed": false,
          "internalType": "address[]",
          "name": "path",
          "type": "address[]"
        },
        {
          "indexed": false,
          "internalType": "uint256",
          "name": "thirdPartyId",
          "type": "uint256"
        }
      ],
      "name": "NewSwapAndUnwrap",
      "type": "event"
    },
    {
      "anonymous": false,
      "inputs": [
        {
          "indexed": false,
          "internalType": "uint256",
          "name": "uniqueCounter",
          "type": "uint256"
        },
        {
          "indexed": false,
          "internalType": "uint256",
          "name": "chainId",
          "type": "uint256"
        },
        {
          "indexed": true,
          "internalType": "address",
          "name": "userTargetAddress",
          "type": "address"
        },
        {
          "indexed": false,
          "internalType": "uint256",
          "name": "thirdPartyId",
          "type": "uint256"
        },
        {
          "indexed": false,
          "internalType": "uint256",
          "name": "internalId",
          "type": "uint256"
        },
        {
          "indexed": false,
          "internalType": "uint256",
          "name": "appId",
          "type": "uint256"
        },
        {
          "indexed": false,
          "internalType": "uint256",
          "name": "amount",
          "type": "uint256"
        },
        {
          "indexed": false,
          "internalType": "uint256",
          "name": "inputAmount",
          "type": "uint256"
        },
        {
          "indexed": false,
          "internalType": "address[]",
          "name": "path",
          "type": "address[]"
        },
        {
          "indexed": false,
          "internalType": "bytes",
          "name": "userScript",
          "type": "bytes"
        },
        {
          "indexed": false,
          "internalType": "enum ScriptTypes",
          "name": "scriptType",
          "type": "uint8"
        },
        {
          "indexed": false,
          "internalType": "uint256",
          "name": "requestIdOfLocker",
          "type": "uint256"
        }
      ],
      "name": "NewSwapAndUnwrapRune",
      "type": "event"
    },
    {
      "anonymous": false,
      "inputs": [
        {
          "indexed": true,
          "internalType": "address",
          "name": "previousOwner",
          "type": "address"
        },
        {
          "indexed": true,
          "internalType": "address",
          "name": "newOwner",
          "type": "address"
        }
      ],
      "name": "OwnershipTransferred",
      "type": "event"
    },
    {
      "anonymous": false,
      "inputs": [
        {
          "indexed": false,
          "internalType": "address",
          "name": "account",
          "type": "address"
        }
      ],
      "name": "Paused",
      "type": "event"
    },
    {
      "anonymous": false,
      "inputs": [
        {
          "indexed": false,
          "internalType": "uint256",
          "name": "uniqueCounter",
          "type": "uint256"
        },
        {
          "indexed": false,
          "internalType": "uint256",
          "name": "chainId",
          "type": "uint256"
        },
        {
          "indexed": false,
          "internalType": "address",
          "name": "exchangeConnector",
          "type": "address"
        },
        {
          "indexed": false,
          "internalType": "address",
          "name": "inputToken",
          "type": "address"
        },
        {
          "indexed": false,
          "internalType": "uint256",
          "name": "inputAmount",
          "type": "uint256"
        },
        {
          "indexed": true,
          "internalType": "address",
          "name": "userTargetAddress",
          "type": "address"
        },
        {
          "indexed": false,
          "internalType": "bytes",
          "name": "userScript",
          "type": "bytes"
        },
        {
          "indexed": false,
          "internalType": "enum ScriptTypes",
          "name": "scriptType",
          "type": "uint8"
        },
        {
          "indexed": false,
          "internalType": "address",
          "name": "lockerTargetAddress",
          "type": "address"
        },
        {
          "indexed": false,
          "internalType": "uint256",
          "name": "requestIdOfLocker",
          "type": "uint256"
        },
        {
          "indexed": false,
          "internalType": "address[]",
          "name": "path",
          "type": "address[]"
        },
        {
          "indexed": false,
          "internalType": "uint256",
          "name": "thirdPartyId",
          "type": "uint256"
        }
      ],
      "name": "RetriedSwapAndUnwrap",
      "type": "event"
    },
    {
      "anonymous": false,
      "inputs": [
        {
          "indexed": false,
          "internalType": "uint256",
          "name": "uniqueCounter",
          "type": "uint256"
        },
        {
          "indexed": false,
          "internalType": "uint256",
          "name": "chainId",
          "type": "uint256"
        },
        {
          "indexed": true,
          "internalType": "address",
          "name": "userTargetAddress",
          "type": "address"
        },
        {
          "indexed": false,
          "internalType": "uint256",
          "name": "thirdPartyId",
          "type": "uint256"
        },
        {
          "indexed": false,
          "internalType": "uint256",
          "name": "internalId",
          "type": "uint256"
        },
        {
          "indexed": false,
          "internalType": "uint256",
          "name": "appId",
          "type": "uint256"
        },
        {
          "indexed": false,
          "internalType": "uint256",
          "name": "amount",
          "type": "uint256"
        },
        {
          "indexed": false,
          "internalType": "uint256",
          "name": "inputAmount",
          "type": "uint256"
        },
        {
          "indexed": false,
          "internalType": "address[]",
          "name": "path",
          "type": "address[]"
        },
        {
          "indexed": false,
          "internalType": "bytes",
          "name": "userScript",
          "type": "bytes"
        },
        {
          "indexed": false,
          "internalType": "enum ScriptTypes",
          "name": "scriptType",
          "type": "uint8"
        },
        {
          "indexed": false,
          "internalType": "uint256",
          "name": "requestIdOfLocker",
          "type": "uint256"
        }
      ],
      "name": "RetriedSwapAndUnwrapRune",
      "type": "event"
    },
    {
      "anonymous": false,
      "inputs": [
        {
          "indexed": false,
          "internalType": "address",
          "name": "account",
          "type": "address"
        }
      ],
      "name": "Unpaused",
      "type": "event"
    },
    {
      "anonymous": false,
      "inputs": [
        {
          "indexed": false,
          "internalType": "uint256",
          "name": "uniqueCounter",
          "type": "uint256"
        },
        {
          "indexed": false,
          "internalType": "uint256",
          "name": "chainId",
          "type": "uint256"
        },
        {
          "indexed": false,
          "internalType": "address",
          "name": "token",
          "type": "address"
        },
        {
          "indexed": false,
          "internalType": "uint256",
          "name": "amount",
          "type": "uint256"
        },
        {
          "indexed": false,
          "internalType": "int64",
          "name": "relayerFeePercentage",
          "type": "int64"
        },
        {
          "indexed": false,
          "internalType": "address",
          "name": "user",
          "type": "address"
        }
      ],
      "name": "WithdrawnFundsToSourceChain",
      "type": "event"
    },
    {
      "inputs": [],
      "name": "ETH_ADDR",
      "outputs": [
        {
          "internalType": "address",
          "name": "",
          "type": "address"
        }
      ],
      "stateMutability": "view",
      "type": "function"
    },
    {
      "inputs": [],
      "name": "across",
      "outputs": [
        {
          "internalType": "address",
          "name": "",
          "type": "address"
        }
      ],
      "stateMutability": "view",
      "type": "function"
    },
    {
      "inputs": [],
      "name": "acrossAdmin",
      "outputs": [
        {
          "internalType": "address",
          "name": "",
          "type": "address"
        }
      ],
      "stateMutability": "view",
      "type": "function"
    },
    {
      "inputs": [],
      "name": "burnRouterProxy",
      "outputs": [
        {
          "internalType": "address",
          "name": "",
          "type": "address"
        }
      ],
      "stateMutability": "view",
      "type": "function"
    },
    {
      "inputs": [
        {
          "internalType": "address",
          "name": "_token",
          "type": "address"
        },
        {
          "internalType": "address",
          "name": "_to",
          "type": "address"
        },
        {
          "internalType": "uint256",
          "name": "_amount",
          "type": "uint256"
        }
      ],
      "name": "emergencyWithdraw",
      "outputs": [],
      "stateMutability": "nonpayable",
      "type": "function"
    },
    {
      "inputs": [
        {
          "internalType": "address",
          "name": "",
          "type": "address"
        },
        {
          "internalType": "uint256",
          "name": "",
          "type": "uint256"
        },
        {
          "internalType": "address",
          "name": "",
          "type": "address"
        }
      ],
      "name": "failedReqs",
      "outputs": [
        {
          "internalType": "uint256",
          "name": "",
          "type": "uint256"
        }
      ],
      "stateMutability": "view",
      "type": "function"
    },
    {
      "inputs": [
        {
          "internalType": "address",
          "name": "_tokenSent",
          "type": "address"
        },
        {
          "internalType": "uint256",
          "name": "_amount",
          "type": "uint256"
        },
        {
          "internalType": "address",
          "name": "",
          "type": "address"
        },
        {
          "internalType": "bytes",
          "name": "_message",
          "type": "bytes"
        }
      ],
      "name": "handleV3AcrossMessage",
      "outputs": [],
      "stateMutability": "nonpayable",
      "type": "function"
    },
    {
      "inputs": [
        {
          "internalType": "address",
          "name": "_lockersProxy",
          "type": "address"
        },
        {
          "internalType": "address",
          "name": "_burnRouterProxy",
          "type": "address"
        },
        {
          "internalType": "address",
          "name": "_across",
          "type": "address"
        },
        {
          "internalType": "address",
          "name": "_runeRouterProxy",
          "type": "address"
        }
      ],
      "name": "initialize",
      "outputs": [],
      "stateMutability": "nonpayable",
      "type": "function"
    },
    {
      "inputs": [],
      "name": "lockersProxy",
      "outputs": [
        {
          "internalType": "address",
          "name": "",
          "type": "address"
        }
      ],
      "stateMutability": "view",
      "type": "function"
    },
    {
      "inputs": [
        {
          "internalType": "address",
          "name": "",
          "type": "address"
        },
        {
          "internalType": "uint256",
          "name": "",
          "type": "uint256"
        },
        {
          "internalType": "uint256",
          "name": "",
          "type": "uint256"
        },
        {
          "internalType": "address",
          "name": "",
          "type": "address"
        }
      ],
      "name": "newFailedReqs",
      "outputs": [
        {
          "internalType": "uint256",
          "name": "",
          "type": "uint256"
        }
      ],
      "stateMutability": "view",
      "type": "function"
    },
    {
      "inputs": [],
      "name": "owner",
      "outputs": [
        {
          "internalType": "address",
          "name": "",
          "type": "address"
        }
      ],
      "stateMutability": "view",
      "type": "function"
    },
    {
      "inputs": [],
      "name": "paused",
      "outputs": [
        {
          "internalType": "bool",
          "name": "",
          "type": "bool"
        }
      ],
      "stateMutability": "view",
      "type": "function"
    },
    {
      "inputs": [],
      "name": "renounceOwnership",
      "outputs": [],
      "stateMutability": "nonpayable",
      "type": "function"
    },
    {
      "inputs": [
        {
          "internalType": "bytes",
          "name": "_message",
          "type": "bytes"
        },
        {
          "internalType": "uint8",
          "name": "_v",
          "type": "uint8"
        },
        {
          "internalType": "bytes32",
          "name": "_r",
          "type": "bytes32"
        },
        {
          "internalType": "bytes32",
          "name": "_s",
          "type": "bytes32"
        }
      ],
      "name": "retrySwapAndUnwrap",
      "outputs": [],
      "stateMutability": "nonpayable",
      "type": "function"
    },
    {
      "inputs": [
        {
          "internalType": "bytes",
          "name": "_message",
          "type": "bytes"
        },
        {
          "internalType": "uint8",
          "name": "_v",
          "type": "uint8"
        },
        {
          "internalType": "bytes32",
          "name": "_r",
          "type": "bytes32"
        },
        {
          "internalType": "bytes32",
          "name": "_s",
          "type": "bytes32"
        }
      ],
      "name": "retrySwapAndUnwrapRune",
      "outputs": [],
      "stateMutability": "nonpayable",
      "type": "function"
    },
    {
      "inputs": [],
      "name": "runeRouterProxy",
      "outputs": [
        {
          "internalType": "address",
          "name": "",
          "type": "address"
        }
      ],
      "stateMutability": "view",
      "type": "function"
    },
    {
      "inputs": [
        {
          "internalType": "address",
          "name": "_across",
          "type": "address"
        }
      ],
      "name": "setAcross",
      "outputs": [],
      "stateMutability": "nonpayable",
      "type": "function"
    },
    {
      "inputs": [
        {
          "internalType": "address",
          "name": "_acrossAdmin",
          "type": "address"
        }
      ],
      "name": "setAcrossAdmin",
      "outputs": [],
      "stateMutability": "nonpayable",
      "type": "function"
    },
    {
      "inputs": [
        {
          "internalType": "address",
          "name": "_burnRouterProxy",
          "type": "address"
        }
      ],
      "name": "setBurnRouterProxy",
      "outputs": [],
      "stateMutability": "nonpayable",
      "type": "function"
    },
    {
      "inputs": [
        {
          "internalType": "address",
          "name": "_lockersProxy",
          "type": "address"
        }
      ],
      "name": "setLockersProxy",
      "outputs": [],
      "stateMutability": "nonpayable",
      "type": "function"
    },
    {
      "inputs": [
        {
          "internalType": "address",
          "name": "_runeRouterProxy",
          "type": "address"
        }
      ],
      "name": "setRuneRouterProxy",
      "outputs": [],
      "stateMutability": "nonpayable",
      "type": "function"
    },
    {
      "inputs": [
        {
          "internalType": "address",
          "name": "newOwner",
          "type": "address"
        }
      ],
      "name": "transferOwnership",
      "outputs": [],
      "stateMutability": "nonpayable",
      "type": "function"
    },
    {
      "inputs": [
        {
          "internalType": "bytes",
          "name": "_message",
          "type": "bytes"
        },
        {
          "internalType": "uint8",
          "name": "_v",
          "type": "uint8"
        },
        {
          "internalType": "bytes32",
          "name": "_r",
          "type": "bytes32"
        },
        {
          "internalType": "bytes32",
          "name": "_s",
          "type": "bytes32"
        }
      ],
      "name": "withdrawFundsToSourceChain",
      "outputs": [],
      "stateMutability": "nonpayable",
      "type": "function"
    },
    {
      "inputs": [
        {
          "internalType": "address",
          "name": "_user",
          "type": "address"
        },
        {
          "internalType": "uint256",
          "name": "_chainId",
          "type": "uint256"
        },
        {
          "internalType": "uint256",
          "name": "_uniqueCounter",
          "type": "uint256"
        },
        {
          "internalType": "address",
          "name": "_token",
          "type": "address"
        },
        {
          "internalType": "int64",
          "name": "_relayerFeePercentage",
          "type": "int64"
        }
      ],
      "name": "withdrawFundsToSourceChainByOwnerOrAdmin",
      "outputs": [],
      "stateMutability": "nonpayable",
      "type": "function"
    },
    {
      "stateMutability": "payable",
      "type": "receive"
    }
  ],
  "transactionHash": "0xe7e32bee71e2fdfa02f094e930c3f63b9c370b9f0f953e69feb5a49ab36c9bda",
  "args": [],
  "numDeployments": 1,
  "solcInputHash": "6ef76de315901e4d1d1ac7ef67f12258",
  "bytecode": "0x608060405234801561001057600080fd5b5061380d806100206000396000f3fe60806040526004361061011f5760003560e01c80630597865c1461012b5780631dbd94ff14610161578063292c1d9214610183578063296079f1146101a35780633a5be8cb146101c35780633e938097146101e35780633f8c6ae0146102035780634d6e8f9d1461022357806359841888146102435780635c975abb1461026357806361be10f214610286578063715018a6146102a65780637753f47b146102bb57806386420503146102e3578063878269b51461030357806387c554f8146103235780638907eb5c146103435780638da5cb5b1461038f578063a088bb20146103a4578063baf7f918146103c4578063cf2568541461040b578063e63ea4081461042b578063f2fde38b1461044b578063f8c8765e1461046b57600080fd5b3661012657005b600080fd5b34801561013757600080fd5b5060ce5461014b906001600160a01b031681565b6040516101589190613132565b60405180910390f35b34801561016d57600080fd5b5061018161017c3660046129f8565b61048b565b005b34801561018f57600080fd5b5060cb5461014b906001600160a01b031681565b3480156101af57600080fd5b5060c95461014b906001600160a01b031681565b3480156101cf57600080fd5b506101816101de366004612b0c565b6104de565b3480156101ef57600080fd5b506101816101fe366004612c2b565b610698565b34801561020f57600080fd5b5060ca5461014b906001600160a01b031681565b34801561022f57600080fd5b5061018161023e3660046129f8565b610779565b34801561024f57600080fd5b5061018161025e3660046129f8565b6107cc565b34801561026f57600080fd5b5060975460ff166040519015158152602001610158565b34801561029257600080fd5b506101816102a13660046129f8565b61081f565b3480156102b257600080fd5b50610181610872565b3480156102c757600080fd5b5061014b73eeeeeeeeeeeeeeeeeeeeeeeeeeeeeeeeeeeeeeee81565b3480156102ef57600080fd5b506101816102fe366004612bb3565b610886565b34801561030f57600080fd5b5061018161031e3660046129f8565b6109c0565b34801561032f57600080fd5b5060cf5461014b906001600160a01b031681565b34801561034f57600080fd5b5061038161035e366004612acb565b60cc60209081526000938452604080852082529284528284209052825290205481565b604051908152602001610158565b34801561039b57600080fd5b5061014b6109ea565b3480156103b057600080fd5b506101816103bf366004612c2b565b6109f9565b3480156103d057600080fd5b506103816103df366004612b75565b60cd60209081526000948552604080862082529385528385208152918452828420909152825290205481565b34801561041757600080fd5b50610181610426366004612c2b565b610dc9565b34801561043757600080fd5b50610181610446366004612a8b565b611264565b34801561045757600080fd5b506101816104663660046129f8565b611367565b34801561047757600080fd5b50610181610486366004612a30565b6113e0565b61049361154e565b806001600160a01b0381166104bb5760405163d92e233d60e01b815260040160405180910390fd5b5060ce80546001600160a01b0319166001600160a01b0392909216919091179055565b6104e66115ad565b621b77405a101561053e5760405162461bcd60e51b815260206004820152601e60248201527f506f6c79676f6e436f6e6e6563746f724c6f6769633a206c6f7720676173000060448201526064015b60405180910390fd5b60cb546001600160a01b031633146105a25760405162461bcd60e51b815260206004820152602160248201527f506f6c79676f6e436f6e6e6563746f724c6f6769633a206e6f74206163726f736044820152607360f81b6064820152608401610535565b6000806000838060200190518101906105bb9190612c8c565b9250925092507fd8883c6af9aa96506569d2db74cafb52037a26374320a8aeaf9fd5cd7df3d228838383876040516105f694939291906132c7565b60405180910390a161062d836040518060400160405280600d81526020016c073776170416e64556e7772617609c1b815250611607565b156106425761063d868589611660565b610685565b610675836040518060400160405280601181526020017073776170416e64556e7772617052756e6560781b815250611607565b1561068557610685868589611bb3565b5050506106926001606555565b50505050565b6106a06115ad565b60006106ae8584848761200b565b9050600080600080888060200190518101906106ca919061301d565b6001600160a01b03898116600090815260cd602090815260408083208884528252808320878452825280832093861683529290529081208054919055939750919550935091508061072d5760405162461bcd60e51b81526004016105359061333b565b61073a868685848661213a565b6000805160206137b883398151915284868584868b604051610761969594939291906134fe565b60405180910390a15050505050506106926001606555565b61078161154e565b806001600160a01b0381166107a95760405163d92e233d60e01b815260040160405180910390fd5b5060ca80546001600160a01b0319166001600160a01b0392909216919091179055565b6107d461154e565b806001600160a01b0381166107fc5760405163d92e233d60e01b815260040160405180910390fd5b5060c980546001600160a01b0319166001600160a01b0392909216919091179055565b61082761154e565b806001600160a01b03811661084f5760405163d92e233d60e01b815260040160405180910390fd5b5060cb80546001600160a01b0319166001600160a01b0392909216919091179055565b61087a61154e565b61088460006122a2565b565b61088e6115ad565b60cf546001600160a01b03163314806108bf57506108aa6109ea565b6001600160a01b0316336001600160a01b0316145b6109195760405162461bcd60e51b815260206004820152602560248201527f506f6c79676f6e436f6e6e6563746f724c6f6769633a206e6f7420617574686f6044820152641c9a5e995960da1b6064820152608401610535565b6001600160a01b03858116600090815260cd602090815260408083208884528252808320878452825280832093861683529290529081208054919055806109725760405162461bcd60e51b81526004016105359061333b565b61097f868685848661213a565b6000805160206137b883398151915284868584868b6040516109a6969594939291906134fe565b60405180910390a1506109b96001606555565b5050505050565b6109c861154e565b60cf80546001600160a01b0319166001600160a01b0392909216919091179055565b6033546001600160a01b031690565b610a016115ad565b6000610a0f8584848761200b565b90506000610a1c866122f4565b6001600160a01b038316600090815260cd60209081526040808320828501518452825280832084518452909152812060e083015180519394509192909183918290610a7757634e487b7160e01b600052603260045260246000fd5b6020908102919091018101516001600160a01b039081168352828201939093526040918201600090812054938716815260cd825282812086830151825282528281208651825290915290812060e0850151805193945090928290610aeb57634e487b7160e01b600052603260045260246000fd5b60200260200101516001600160a01b03166001600160a01b031681526020019081526020016000206000905560008111610b375760405162461bcd60e51b815260040161053590613383565b8160e00151600081518110610b5c57634e487b7160e01b600052603260045260246000fd5b602090810291909101015160ce5460405163095ea7b360e01b81526001600160a01b039283169263095ea7b392610b9a92911690859060040161329b565b602060405180830381600087803b158015610bb457600080fd5b505af1158015610bc8573d6000803e3d6000fd5b505050506040513d601f19601f82011682018060405250810190610bec9190612c11565b5060ce546060830151608084015160c0850151610100860151805160209091015160a088015160e089015160405163e91ffefd60e01b81526001600160a01b039098169763e91ffefd97610c51979096909590949093909290918b9190600401613535565b602060405180830381600087803b158015610c6b57600080fd5b505af1158015610c7f573d6000803e3d6000fd5b505050506040513d601f19601f82011682018060405250810190610ca39190612f40565b5081604001516001600160a01b03167f284e317953e0a6a3f7aa727623192f6c44a92fb0a805d7ea1916a93e78b0e81b83600001518460200151856060015186608001518760a001518860c00151888a60e001518b6101000151600001518c610100015160200151600160ce60009054906101000a90046001600160a01b03166001600160a01b03166390665eca6040518163ffffffff1660e01b815260040160206040518083038186803b158015610d5b57600080fd5b505afa158015610d6f573d6000803e3d6000fd5b505050506040513d601f19601f82011682018060405250810190610d939190612f40565b610d9d9190613724565b604051610db49b9a999897969594939291906135fb565b60405180910390a25050506106926001606555565b610dd16115ad565b6000610ddf8584848761200b565b90506000806000806000806000806000808e806020019051810190610e049190612f58565b9950995099509950995099509950995099509950600060cd60008d6001600160a01b03166001600160a01b0316815260200190815260200160002060008c815260200190815260200160002060008b815260200190815260200160002060008a6001600160a01b03166001600160a01b0316815260200190815260200160002054905060cd60008d6001600160a01b03166001600160a01b0316815260200190815260200160002060008c815260200190815260200160002060008b815260200190815260200160002060008a6001600160a01b03166001600160a01b031681526020019081526020016000206000905560008111610f155760405162461bcd60e51b815260040161053590613383565b6040805160028082526060820183526000926020830190803683370190505090508181600081518110610f5857634e487b7160e01b600052603260045260246000fd5b6020026020010181815250508781600181518110610f8657634e487b7160e01b600052603260045260246000fd5b60200260200101818152505083600081518110610fb357634e487b7160e01b600052603260045260246000fd5b602090810291909101015160ca5460405163095ea7b360e01b81526001600160a01b039283169263095ea7b392610ff192911690869060040161329b565b602060405180830381600087803b15801561100b57600080fd5b505af115801561101f573d6000803e3d6000fd5b505050506040513d601f19601f820116820180604052508101906110439190612c11565b5060ca546040516344dd6aa560e01b81526001600160a01b03909116906344dd6aa590611085908c9085906001908a9042908f908f908f908e906004016131e0565b602060405180830381600087803b15801561109f57600080fd5b505af11580156110b3573d6000803e3d6000fd5b505050506040513d601f19601f820116820180604052508101906110d79190612f40565b5060c95460405163626885b560e11b81526000916001600160a01b03169063c4d10b6a906111099089906004016132b4565b60206040518083038186803b15801561112157600080fd5b505afa158015611135573d6000803e3d6000fd5b505050506040513d601f19601f820116820180604052508101906111599190612a14565b90508d6001600160a01b03167fc3fa5dbbc53aa478b310dddcc3bd2527072ac6794c00d92e4ad7201827297fc08d8f8d8f888e8e89600160ca60009054906101000a90046001600160a01b03166001600160a01b031663930a60e88d6040518263ffffffff1660e01b81526004016111d19190613132565b60206040518083038186803b1580156111e957600080fd5b505afa1580156111fd573d6000803e3d6000fd5b505050506040513d601f19601f820116820180604052508101906112219190612f40565b61122b9190613724565b8f8f6040516112449b9a99989796959493929190613414565b60405180910390a250505050505050505050505050506106926001606555565b61126c61154e565b6001600160a01b03831673eeeeeeeeeeeeeeeeeeeeeeeeeeeeeeeeeeeeeeee14156112e7576040516001600160a01b038316908290600081818185875af1925050503d80600081146112da576040519150601f19603f3d011682016040523d82523d6000602084013e6112df565b606091505b505050505050565b60405163a9059cbb60e01b81526001600160a01b0384169063a9059cbb90611315908590859060040161329b565b602060405180830381600087803b15801561132f57600080fd5b505af1158015611343573d6000803e3d6000fd5b505050506040513d601f19601f820116820180604052508101906106929190612c11565b61136f61154e565b6001600160a01b0381166113d45760405162461bcd60e51b815260206004820152602660248201527f4f776e61626c653a206e6577206f776e657220697320746865207a65726f206160448201526564647265737360d01b6064820152608401610535565b6113dd816122a2565b50565b600054610100900460ff16158080156114005750600054600160ff909116105b8061141a5750303b15801561141a575060005460ff166001145b61147d5760405162461bcd60e51b815260206004820152602e60248201527f496e697469616c697a61626c653a20636f6e747261637420697320616c72656160448201526d191e481a5b9a5d1a585b1a5e995960921b6064820152608401610535565b6000805460ff1916600117905580156114a0576000805461ff0019166101001790555b6114a861236c565b6114b061239b565b6114b86123ca565b60c980546001600160a01b038088166001600160a01b03199283161790925560ca805487841690831617905560cb805486841690831617905560ce80549285169290911691909117905580156109b9576000805461ff0019169055604051600181527f7f26b83ff96e1f2b6a682f133852f6798a09c465da95921460cefb38474024989060200160405180910390a15050505050565b336115576109ea565b6001600160a01b0316146108845760405162461bcd60e51b815260206004820181905260248201527f4f776e61626c653a2063616c6c6572206973206e6f7420746865206f776e65726044820152606401610535565b600260655414156116005760405162461bcd60e51b815260206004820152601f60248201527f5265656e7472616e637947756172643a207265656e7472616e742063616c6c006044820152606401610535565b6002606555565b60008160405160200161161a91906130ed565b604051602081830303815290604052805190602001208360405160200161164191906130ed565b6040516020818303038152906040528051906020012014905092915050565b600061166b836123f9565b9050816001600160a01b03168160c0015160008151811061169c57634e487b7160e01b600052603260045260246000fd5b60200260200101516001600160a01b0316146116ca5760405162461bcd60e51b8152600401610535906132f8565b604080516002808252606082018352600092602083019080368337019050509050848160008151811061170d57634e487b7160e01b600052603260045260246000fd5b60200260200101818152505081608001518160018151811061173f57634e487b7160e01b600052603260045260246000fd5b602090810291909101015260ca5460405163095ea7b360e01b81526001600160a01b038581169263095ea7b39261177e9290911690899060040161329b565b602060405180830381600087803b15801561179857600080fd5b505af11580156117ac573d6000803e3d6000fd5b505050506040513d601f19601f820116820180604052508101906117d09190612c11565b5060ca54606083015160a084015160c085015160e0860151805160208201516040928301516101008a015193516344dd6aa560e01b81526001600160a01b03909816976344dd6aa5976118349790968b9691959094429491939092906004016131e0565b602060405180830381600087803b15801561184e57600080fd5b505af192505050801561187e575060408051601f3d908101601f1916820190925261187b91810190612f40565b60015b611a045760ca5460405163095ea7b360e01b81526001600160a01b038581169263095ea7b3926118b7929091169060009060040161329b565b602060405180830381600087803b1580156118d157600080fd5b505af11580156118e5573d6000803e3d6000fd5b505050506040513d601f19601f820116820180604052508101906119099190612c11565b508460cd600084604001516001600160a01b03166001600160a01b031681526020019081526020016000206000846020015181526020019081526020016000206000846000015181526020019081526020016000206000856001600160a01b03166001600160a01b031681526020019081526020016000208190555081604001516001600160a01b03167fa79aee2abfa3037b36c3689636c9932b113a82cebda0057ac4ce2386371fc969836000015184602001518560600151878a8860e00151600001518960e00151602001518a60c001518b61010001516040516119f79998979695949392919061349c565b60405180910390a26109b9565b5060c95460e0830151604090810151905163626885b560e11b81526000926001600160a01b03169163c4d10b6a91611a3f91906004016132b4565b60206040518083038186803b158015611a5757600080fd5b505afa158015611a6b573d6000803e3d6000fd5b505050506040513d601f19601f82011682018060405250810190611a8f9190612a14565b905082604001516001600160a01b03167f124f82fb68081b8c772a74ce98c0c92b659dd79e4fd3f03cf49988818eb04e8b846000015185602001518660600151888b8960e00151600001518a60e001516020015189600160ca60009054906101000a90046001600160a01b03166001600160a01b031663930a60e88d6040518263ffffffff1660e01b8152600401611b279190613132565b60206040518083038186803b158015611b3f57600080fd5b505afa158015611b53573d6000803e3d6000fd5b505050506040513d601f19601f82011682018060405250810190611b779190612f40565b611b819190613724565b8d60c001518e6101000151604051611ba39b9a99989796959493929190613414565b60405180910390a2505050505050565b6000611bbe836122f4565b9050816001600160a01b03168160e00151600081518110611bef57634e487b7160e01b600052603260045260246000fd5b60200260200101516001600160a01b031614611c1d5760405162461bcd60e51b8152600401610535906132f8565b60ce5460405163095ea7b360e01b81526001600160a01b038481169263095ea7b392611c519290911690889060040161329b565b602060405180830381600087803b158015611c6b57600080fd5b505af1158015611c7f573d6000803e3d6000fd5b505050506040513d601f19601f82011682018060405250810190611ca39190612c11565b5060ce546060820151608083015160c0840151610100850151805160209091015160a087015160e088015160405163e91ffefd60e01b81526001600160a01b039098169763e91ffefd97600097611d0a979196909591949093919290918f91600401613535565b6020604051808303818588803b158015611d2357600080fd5b505af193505050508015611d54575060408051601f3d908101601f19168201909252611d5191810190612f40565b60015b611ee55760ce5460405163095ea7b360e01b81526001600160a01b038481169263095ea7b392611d8d929091169060009060040161329b565b602060405180830381600087803b158015611da757600080fd5b505af1158015611dbb573d6000803e3d6000fd5b505050506040513d601f19601f82011682018060405250810190611ddf9190612c11565b508360cd600083604001516001600160a01b03166001600160a01b031681526020019081526020016000206000836020015181526020019081526020016000206000836000015181526020019081526020016000206000846001600160a01b03166001600160a01b031681526020019081526020016000208190555080604001516001600160a01b03167feef470645928135b5faf5eb6a2f7076448531d47f42149c2b1ceaa9fe1d624a082600001518360200151846060015185608001518660a001518760c001518b8960e001518a6101000151600001518b610100015160200151604051611ed89a99989796959493929190613597565b60405180910390a2610692565b5080604001516001600160a01b03167f13a9049471d86bfc267b825d08be20c5ebfc793c109c11eb159af6781cda310582600001518360200151846060015185608001518660a001518760c001518b8960e001518a6101000151600001518b610100015160200151600160ce60009054906101000a90046001600160a01b03166001600160a01b03166390665eca6040518163ffffffff1660e01b815260040160206040518083038186803b158015611f9d57600080fd5b505afa158015611fb1573d6000803e3d6000fd5b505050506040513d601f19601f82011682018060405250810190611fd59190612f40565b611fdf9190613724565b604051611ff69b9a999897969594939291906135fb565b60405180910390a250505050565b6001606555565b6000808580519060200120905060008160405160200161205691907b0ca2ba3432b932bab69029b4b3b732b21026b2b9b9b0b3b29d05199960211b8152601c810191909152603c0190565b60408051601f198184030181528282528051602091820120600080855291840180845281905260ff88169284019290925260608301899052608083018890529092509060019060a0016020604051602081039080840390855afa1580156120c1573d6000803e3d6000fd5b5050604051601f1901519150506001600160a01b03811661212f5760405162461bcd60e51b815260206004820152602260248201527f506f6c79676f6e436f6e6e6563746f724c6f6769633a20496e76616c69642073604482015261696760f01b6064820152608401610535565b979650505050505050565b60cb5460405163095ea7b360e01b81526001600160a01b038581169263095ea7b39261216e9290911690869060040161329b565b602060405180830381600087803b15801561218857600080fd5b505af115801561219c573d6000803e3d6000fd5b505050506040513d601f19601f820116820180604052508101906121c09190612c11565b5060cf546000906001600160a01b031686858386670de0b6b3a76400006121f06001600160401b03891682613724565b6121fa908a613705565b61220491906136e5565b8a600042612214816138406136cd565b60006040516024016122309b9a99989796959493929190613146565b60408051601f19818403018152918152602080830180516001600160e01b0316633dc9c91960e11b179052905191925060009161226f91849101613109565b60408051601f1981840301815291905260cb54909150612298906001600160a01b031682612475565b5050505050505050565b603380546001600160a01b038381166001600160a01b0319831681179093556040519116919082907f8be0079c531659141344cd1fd0a4f28419497f9722a3daafe3b4186f6b6457e090600090a35050565b6122fc6126b0565b818060200190518101906123109190612e8a565b505050608088015260c087015260a08601526001600160a01b03166040850152602080850191909152908352835161234f925084018101908401612e8a565b60608b01526101008a015260e08901525095979650505050505050565b600054610100900460ff166123935760405162461bcd60e51b8152600401610535906133c9565b6108846124be565b600054610100900460ff166123c25760405162461bcd60e51b8152600401610535906133c9565b6108846124ee565b600054610100900460ff166123f15760405162461bcd60e51b8152600401610535906133c9565b610884612515565b61240161271d565b818060200190518101906124159190612cd9565b60e08a015260c0890152151560a088015260808701526001600160a01b0390811660608701521660408501526020808501919091529083528351612460925084018101908401612dac565b6101008b015250979998505050505050505050565b60606124b783836040518060400160405280601e81526020017f416464726573733a206c6f772d6c6576656c2063616c6c206661696c65640000815250612548565b9392505050565b600054610100900460ff166124e55760405162461bcd60e51b8152600401610535906133c9565b610884336122a2565b600054610100900460ff166120045760405162461bcd60e51b8152600401610535906133c9565b600054610100900460ff1661253c5760405162461bcd60e51b8152600401610535906133c9565b6097805460ff19169055565b6060612557848460008561255f565b949350505050565b6060824710156125c05760405162461bcd60e51b815260206004820152602660248201527f416464726573733a20696e73756666696369656e742062616c616e636520666f6044820152651c8818d85b1b60d21b6064820152608401610535565b843b61260e5760405162461bcd60e51b815260206004820152601d60248201527f416464726573733a2063616c6c20746f206e6f6e2d636f6e74726163740000006044820152606401610535565b600080866001600160a01b0316858760405161262a91906130ed565b60006040518083038185875af1925050503d8060008114612667576040519150601f19603f3d011682016040523d82523d6000602084013e61266c565b606091505b509150915061212f828286606083156126865750816124b7565b8251156126965782518084602001fd5b8160405162461bcd60e51b815260040161053591906132b4565b604051806101200160405280600081526020016000815260200160006001600160a01b03168152602001600081526020016000815260200160008152602001600081526020016060815260200161271860408051808201909152606081526000602082015290565b905290565b604051806101200160405280600081526020016000815260200160006001600160a01b0316815260200160006001600160a01b0316815260200160008152602001600015158152602001606081526020016127906040805160608082018352808252600060208301529181019190915290565b8152602001600081525090565b80516127a881613793565b919050565b600082601f8301126127bd578081fd5b815160206001600160401b038211156127d8576127d861377d565b8160051b6127e7828201613676565b838152828101908684018388018501891015612801578687fd5b8693505b8584101561282c57805161281881613793565b835260019390930192918401918401612805565b50979650505050505050565b805180151581146127a857600080fd5b600082601f830112612858578081fd5b813561286b612866826136a6565b613676565b81815284602083860101111561287f578283fd5b816020850160208301379081016020019190915292915050565b600082601f8301126128a9578081fd5b81516128b7612866826136a6565b8181528460208386010111156128cb578283fd5b61255782602083016020870161373b565b8051600681106127a857600080fd5b6000606082840312156128fc578081fd5b604051606081016001600160401b03808211838310171561291f5761291f61377d565b81604052829350845191508082111561293757600080fd5b61294386838701612899565b8352612951602086016128dc565b6020840152604085015191508082111561296a57600080fd5b5061297785828601612899565b6040830152505092915050565b600060408284031215612995578081fd5b604080519081016001600160401b0380821183831017156129b8576129b861377d565b8160405282935084519150808211156129d057600080fd5b506129dd85828601612899565b8252506129ec602084016128dc565b60208201525092915050565b600060208284031215612a09578081fd5b81356124b781613793565b600060208284031215612a25578081fd5b81516124b781613793565b60008060008060808587031215612a45578283fd5b8435612a5081613793565b93506020850135612a6081613793565b92506040850135612a7081613793565b91506060850135612a8081613793565b939692955090935050565b600080600060608486031215612a9f578283fd5b8335612aaa81613793565b92506020840135612aba81613793565b929592945050506040919091013590565b600080600060608486031215612adf578283fd5b8335612aea81613793565b9250602084013591506040840135612b0181613793565b809150509250925092565b60008060008060808587031215612b21578182fd5b8435612b2c81613793565b9350602085013592506040850135612b4381613793565b915060608501356001600160401b03811115612b5d578182fd5b612b6987828801612848565b91505092959194509250565b60008060008060808587031215612b8a578182fd5b8435612b9581613793565b935060208501359250604085013591506060850135612a8081613793565b600080600080600060a08688031215612bca578283fd5b8535612bd581613793565b945060208601359350604086013592506060860135612bf381613793565b91506080860135612c03816137a8565b809150509295509295909350565b600060208284031215612c22578081fd5b6124b782612838565b60008060008060808587031215612c40578182fd5b84356001600160401b03811115612c55578283fd5b612c6187828801612848565b945050602085013560ff81168114612c77578283fd5b93969395505050506040820135916060013590565b600080600060608486031215612ca0578081fd5b83516001600160401b03811115612cb5578182fd5b612cc186828701612899565b93505060208401519150604084015190509250925092565b60008060008060008060008060006101208a8c031215612cf7578687fd5b89516001600160401b0380821115612d0d578889fd5b612d198d838e01612899565b9a5060208c0151995060408c01519850612d3560608d0161279d565b9750612d4360808d0161279d565b965060a08c01519550612d5860c08d01612838565b945060e08c0151915080821115612d6d578384fd5b612d798d838e016127ad565b93506101008c0151915080821115612d8f578283fd5b50612d9c8c828d016128eb565b9150509295985092959850929598565b6000806000806000806000806000806101408b8d031215612dcb578384fd5b8a516001600160401b0380821115612de1578586fd5b612ded8e838f01612899565b9b5060208d01519a5060408d01519950612e0960608e0161279d565b9850612e1760808e0161279d565b975060a08d01519650612e2c60c08e01612838565b955060e08d0151915080821115612e41578283fd5b612e4d8e838f016127ad565b94506101008d0151915080821115612e63578283fd5b50612e708d828e016128eb565b9250506101208b015190509295989b9194979a5092959850565b6000806000806000806000806000806101408b8d031215612ea9578384fd5b8a516001600160401b0380821115612ebf578586fd5b612ecb8e838f01612899565b9b5060208d01519a5060408d01519950612ee760608e0161279d565b985060808d0151975060a08d0151965060c08d0151955060e08d0151915080821115612f11578485fd5b612f1d8e838f016127ad565b94506101008d0151915080821115612f33578384fd5b50612e708d828e01612984565b600060208284031215612f51578081fd5b5051919050565b6000806000806000806000806000806101408b8d031215612f77578384fd5b8a51995060208b01519850612f8e60408c0161279d565b9750612f9c60608c0161279d565b60808c015160a08d015191985096506001600160401b0380821115612fbf578586fd5b612fcb8e838f01612899565b9650612fd960c08e016128dc565b955060e08d0151915080821115612fee578485fd5b612ffa8e838f01612899565b94506101008d0151915080821115613010578384fd5b50612e708d828e016127ad565b60008060008060808587031215613032578182fd5b8451935060208501519250604085015161304b81613793565b6060860151909250612a80816137a8565b6000815180845260208085019450808401835b838110156130945781516001600160a01b03168752958201959082019060010161306f565b509495945050505050565b600081518084526130b781602086016020860161373b565b601f01601f19169290920160200192915050565b600681106130e957634e487b7160e01b600052602160045260246000fd5b9052565b600082516130ff81846020870161373b565b9190910192915050565b6000825161311b81846020870161373b565b641dc0de008360d81b920191825250600501919050565b6001600160a01b0391909116815260200190565b6001600160a01b038c811682528b811660208301528a8116604083015289811660608301526080820189905260a0820188905260c08201879052851660e082015263ffffffff848116610100830152831661012082015260ff82166101408201526000610180806101608401526131ce8184016002815261060f60f31b602082015260400190565b9e9d5050505050505050505050505050565b6001600160a01b038a16815261012060208083018290528a519183018290526000916101408401918c810191845b8181101561322a5783518552938201939282019260010161320e565b5050505089151560408401528281036060840152613248818a61305c565b905087608084015282810360a0840152613262818861309f565b905061327160c08401876130cb565b82810360e0840152613283818661309f565b915050826101008301529a9950505050505050505050565b6001600160a01b03929092168252602082015260400190565b6020815260006124b7602083018461309f565b6080815260006132da608083018761309f565b856020840152846040840152828103606084015261212f818561309f565b60208082526023908201527f506f6c79676f6e436f6e6e6563746f724c6f6769633a20696e76616c696420706040820152620c2e8d60eb1b606082015260800190565b60208082526028908201527f506f6c79676f6e436f6e6e6563746f724c6f6769633a20616c7265616479207760408201526734ba34323930bbb760c11b606082015260800190565b60208082526026908201527f506f6c79676f6e436f6e6e6563746f724c6f6769633a20616c72656164792072604082015265195d1c9a595960d21b606082015260800190565b6020808252602b908201527f496e697469616c697a61626c653a20636f6e7472616374206973206e6f74206960408201526a6e697469616c697a696e6760a81b606082015260800190565b60006101608d83528c602084015260018060a01b03808d166040850152808c1660608501528a60808501528160a08501526134518285018b61309f565b915061346060c085018a6130cb565b871660e08401526101008301869052828103610120840152613482818661305c565b915050826101408301529c9b505050505050505050505050565b898152602081018990526001600160a01b038881166040830152871660608201526080810186905261012060a082018190526000906134dd8382018861309f565b90506134ec60c08401876130cb565b82810360e0840152613283818661305c565b95865260208601949094526001600160a01b039283166040860152606085019190915260070b60808401521660a082015260c00190565b60006101008a835289602084015288604084015280606084015261355b8184018961309f565b905061356a60808401886130cb565b8560a08401528460c084015282810360e0840152613588818561305c565b9b9a5050505050505050505050565b60006101408c83528b60208401528a60408401528960608401528860808401528760a08401528660c08401528060e08401526135d58184018761305c565b90508281036101008401526135ea818661309f565b9150506135886101208301846130cb565b60006101608d83528c60208401528b60408401528a60608401528960808401528860a08401528760c08401528060e08401526136398184018861305c565b905082810361010084015261364e818761309f565b91505061365f6101208301856130cb565b826101408301529c9b505050505050505050505050565b604051601f8201601f191681016001600160401b038111828210171561369e5761369e61377d565b604052919050565b60006001600160401b038211156136bf576136bf61377d565b50601f01601f191660200190565b600082198211156136e0576136e0613767565b500190565b60008261370057634e487b7160e01b81526012600452602481fd5b500490565b600081600019048311821515161561371f5761371f613767565b500290565b60008282101561373657613736613767565b500390565b60005b8381101561375657818101518382015260200161373e565b838111156106925750506000910152565b634e487b7160e01b600052601160045260246000fd5b634e487b7160e01b600052604160045260246000fd5b6001600160a01b03811681146113dd57600080fd5b8060070b81146113dd57600080fdfef43f17a174cd55d7d75e934475f1cec7890c2bf3fabbf376de3868f0d8ce6897a26469706673582212205493e3d7b31f290ffca27b8e4e72044e70b607848e092291b4c8450c7e3f202764736f6c63430008040033",
  "devdoc": {
    "kind": "dev",
    "methods": {
      "emergencyWithdraw(address,address,uint256)": {
        "details": "Only owner can call this"
      },
      "owner()": {
        "details": "Returns the address of the current owner."
      },
      "paused()": {
        "details": "Returns true if the contract is paused, and false otherwise."
      },
      "renounceOwnership()": {
        "details": "Leaves the contract without owner. It will not be possible to call `onlyOwner` functions. Can only be called by the current owner. NOTE: Renouncing ownership will leave the contract without an owner, thereby disabling any functionality that is only available to the owner."
      },
      "retrySwapAndUnwrap(bytes,uint8,bytes32,bytes32)": {
        "details": "User signs a message for retrying its request",
        "params": {
          "_message": "The signed message",
          "_r": "Signature r",
          "_s": "Signature s",
          "_v": "Signature v"
        }
      },
      "retrySwapAndUnwrapRune(bytes,uint8,bytes32,bytes32)": {
        "details": "User signs a message for retrying its request",
        "params": {
          "_message": "The signed message",
          "_r": "Signature r",
          "_s": "Signature s",
          "_v": "Signature v"
        }
      },
      "transferOwnership(address)": {
        "details": "Transfers ownership of the contract to a new account (`newOwner`). Can only be called by the current owner."
      },
      "withdrawFundsToSourceChain(bytes,uint8,bytes32,bytes32)": {
        "details": "This function is used for both failed BTC and Rune requests",
        "params": {
          "_message": "The signed message",
          "_r": "Signature r",
          "_s": "Signature s",
          "_v": "Signature v"
        }
      },
      "withdrawFundsToSourceChainByOwnerOrAdmin(address,uint256,uint256,address,int64)": {
        "details": "Owner can only set the relayer fee percentage"
      }
    },
    "version": 1
  },
  "userdoc": {
    "kind": "user",
    "methods": {
      "emergencyWithdraw(address,address,uint256)": {
        "notice": "Withdraws tokens in the emergency case"
      },
      "handleV3AcrossMessage(address,uint256,address,bytes)": {
        "notice": "Process requests coming from Ethereum (using Across V3)"
      },
      "retrySwapAndUnwrap(bytes,uint8,bytes32,bytes32)": {
        "notice": "Retry to swap and unwrap tokens"
      },
      "retrySwapAndUnwrapRune(bytes,uint8,bytes32,bytes32)": {
        "notice": "Retry to swap and unwrap tokens"
      },
      "setAcross(address)": {
        "notice": "Setter for AcrossV3"
      },
      "setAcrossAdmin(address)": {
        "notice": "Setter for Across Admin"
      },
      "setBurnRouterProxy(address)": {
        "notice": "Setter for BurnRouterProxy"
      },
      "setLockersProxy(address)": {
        "notice": "Setter for LockersProxy"
      },
      "setRuneRouterProxy(address)": {
        "notice": "Setter for runeRouterProxy"
      },
      "withdrawFundsToSourceChain(bytes,uint8,bytes32,bytes32)": {
        "notice": "Send back tokens to the source chain"
      },
      "withdrawFundsToSourceChainByOwnerOrAdmin(address,uint256,uint256,address,int64)": {
        "notice": "Send back tokens to the source chain by owner"
      }
    },
    "version": 1
  },
  "storageLayout": {
    "storage": [
      {
        "astId": 11827,
        "contract": "contracts/chain_connectors/PolyConnectorLogic.sol:PolyConnectorLogic",
        "label": "_initialized",
        "offset": 0,
        "slot": "0",
        "type": "t_uint8"
      },
      {
        "astId": 11830,
        "contract": "contracts/chain_connectors/PolyConnectorLogic.sol:PolyConnectorLogic",
        "label": "_initializing",
        "offset": 1,
        "slot": "0",
        "type": "t_bool"
      },
      {
        "astId": 13298,
        "contract": "contracts/chain_connectors/PolyConnectorLogic.sol:PolyConnectorLogic",
        "label": "__gap",
        "offset": 0,
        "slot": "1",
        "type": "t_array(t_uint256)50_storage"
      },
      {
        "astId": 11699,
        "contract": "contracts/chain_connectors/PolyConnectorLogic.sol:PolyConnectorLogic",
        "label": "_owner",
        "offset": 0,
        "slot": "51",
        "type": "t_address"
      },
      {
        "astId": 11819,
        "contract": "contracts/chain_connectors/PolyConnectorLogic.sol:PolyConnectorLogic",
        "label": "__gap",
        "offset": 0,
        "slot": "52",
        "type": "t_array(t_uint256)49_storage"
      },
      {
        "astId": 12132,
        "contract": "contracts/chain_connectors/PolyConnectorLogic.sol:PolyConnectorLogic",
        "label": "_status",
        "offset": 0,
        "slot": "101",
        "type": "t_uint256"
      },
      {
        "astId": 12201,
        "contract": "contracts/chain_connectors/PolyConnectorLogic.sol:PolyConnectorLogic",
        "label": "__gap",
        "offset": 0,
        "slot": "102",
        "type": "t_array(t_uint256)49_storage"
      },
      {
        "astId": 12011,
        "contract": "contracts/chain_connectors/PolyConnectorLogic.sol:PolyConnectorLogic",
        "label": "_paused",
        "offset": 0,
        "slot": "151",
        "type": "t_bool"
      },
      {
        "astId": 12116,
        "contract": "contracts/chain_connectors/PolyConnectorLogic.sol:PolyConnectorLogic",
        "label": "__gap",
        "offset": 0,
        "slot": "152",
        "type": "t_array(t_uint256)49_storage"
      },
      {
        "astId": 25283,
        "contract": "contracts/chain_connectors/PolyConnectorLogic.sol:PolyConnectorLogic",
        "label": "lockersProxy",
        "offset": 0,
        "slot": "201",
        "type": "t_address"
      },
      {
        "astId": 25286,
        "contract": "contracts/chain_connectors/PolyConnectorLogic.sol:PolyConnectorLogic",
        "label": "burnRouterProxy",
        "offset": 0,
        "slot": "202",
        "type": "t_address"
      },
      {
        "astId": 25289,
        "contract": "contracts/chain_connectors/PolyConnectorLogic.sol:PolyConnectorLogic",
        "label": "across",
        "offset": 0,
        "slot": "203",
        "type": "t_address"
      },
      {
        "astId": 25298,
        "contract": "contracts/chain_connectors/PolyConnectorLogic.sol:PolyConnectorLogic",
        "label": "failedReqs",
        "offset": 0,
        "slot": "204",
        "type": "t_mapping(t_address,t_mapping(t_uint256,t_mapping(t_address,t_uint256)))"
      },
      {
        "astId": 25309,
        "contract": "contracts/chain_connectors/PolyConnectorLogic.sol:PolyConnectorLogic",
        "label": "newFailedReqs",
        "offset": 0,
        "slot": "205",
        "type": "t_mapping(t_address,t_mapping(t_uint256,t_mapping(t_uint256,t_mapping(t_address,t_uint256))))"
      },
      {
        "astId": 25312,
        "contract": "contracts/chain_connectors/PolyConnectorLogic.sol:PolyConnectorLogic",
        "label": "runeRouterProxy",
        "offset": 0,
        "slot": "206",
        "type": "t_address"
      },
      {
        "astId": 25314,
        "contract": "contracts/chain_connectors/PolyConnectorLogic.sol:PolyConnectorLogic",
        "label": "acrossAdmin",
        "offset": 0,
        "slot": "207",
        "type": "t_address"
      }
    ],
    "types": {
      "t_address": {
        "encoding": "inplace",
        "label": "address",
        "numberOfBytes": "20"
      },
      "t_array(t_uint256)49_storage": {
        "base": "t_uint256",
        "encoding": "inplace",
        "label": "uint256[49]",
        "numberOfBytes": "1568"
      },
      "t_array(t_uint256)50_storage": {
        "base": "t_uint256",
        "encoding": "inplace",
        "label": "uint256[50]",
        "numberOfBytes": "1600"
      },
      "t_bool": {
        "encoding": "inplace",
        "label": "bool",
        "numberOfBytes": "1"
      },
      "t_mapping(t_address,t_mapping(t_uint256,t_mapping(t_address,t_uint256)))": {
        "encoding": "mapping",
        "key": "t_address",
        "label": "mapping(address => mapping(uint256 => mapping(address => uint256)))",
        "numberOfBytes": "32",
        "value": "t_mapping(t_uint256,t_mapping(t_address,t_uint256))"
      },
      "t_mapping(t_address,t_mapping(t_uint256,t_mapping(t_uint256,t_mapping(t_address,t_uint256))))": {
        "encoding": "mapping",
        "key": "t_address",
        "label": "mapping(address => mapping(uint256 => mapping(uint256 => mapping(address => uint256))))",
        "numberOfBytes": "32",
        "value": "t_mapping(t_uint256,t_mapping(t_uint256,t_mapping(t_address,t_uint256)))"
      },
      "t_mapping(t_address,t_uint256)": {
        "encoding": "mapping",
        "key": "t_address",
        "label": "mapping(address => uint256)",
        "numberOfBytes": "32",
        "value": "t_uint256"
      },
      "t_mapping(t_uint256,t_mapping(t_address,t_uint256))": {
        "encoding": "mapping",
        "key": "t_uint256",
        "label": "mapping(uint256 => mapping(address => uint256))",
        "numberOfBytes": "32",
        "value": "t_mapping(t_address,t_uint256)"
      },
      "t_mapping(t_uint256,t_mapping(t_uint256,t_mapping(t_address,t_uint256)))": {
        "encoding": "mapping",
        "key": "t_uint256",
        "label": "mapping(uint256 => mapping(uint256 => mapping(address => uint256)))",
        "numberOfBytes": "32",
        "value": "t_mapping(t_uint256,t_mapping(t_address,t_uint256))"
      },
      "t_uint256": {
        "encoding": "inplace",
        "label": "uint256",
        "numberOfBytes": "32"
      },
      "t_uint8": {
        "encoding": "inplace",
        "label": "uint8",
        "numberOfBytes": "1"
      }
    }
  }
}