{
  "address": "0x314bAC3a7D650298762049484A30F091ff1f3D81",
  "abi": [
    {
      "inputs": [],
      "name": "ZeroAddress",
      "type": "error"
    },
    {
      "anonymous": false,
      "inputs": [
        {
          "indexed": false,
          "internalType": "address",
          "name": "oldAcross",
          "type": "address"
        },
        {
          "indexed": false,
          "internalType": "address",
          "name": "newAcross",
          "type": "address"
        }
      ],
      "name": "AcrossUpdated",
      "type": "event"
    },
    {
      "anonymous": false,
      "inputs": [
        {
          "indexed": false,
          "internalType": "address",
          "name": "oldBurnRouter",
          "type": "address"
        },
        {
          "indexed": false,
          "internalType": "address",
          "name": "newBurnRouter",
          "type": "address"
        }
      ],
      "name": "BurnRouterUpdated",
      "type": "event"
    },
    {
      "anonymous": false,
      "inputs": [
        {
          "indexed": false,
          "internalType": "address",
          "name": "oldEthConnector",
          "type": "address"
        },
        {
          "indexed": false,
          "internalType": "address",
          "name": "newEthConnector",
          "type": "address"
        }
      ],
      "name": "EthConnectorUpdated",
      "type": "event"
    },
    {
      "anonymous": false,
      "inputs": [
        {
          "indexed": false,
          "internalType": "uint256",
          "name": "uniqueCounter",
          "type": "uint256"
        },
        {
          "indexed": false,
          "internalType": "uint256",
          "name": "chainId",
          "type": "uint256"
        },
        {
          "indexed": false,
          "internalType": "address",
          "name": "exchangeConnector",
          "type": "address"
        },
        {
          "indexed": false,
          "internalType": "address",
          "name": "inputToken",
          "type": "address"
        },
        {
          "indexed": false,
          "internalType": "uint256",
          "name": "inputAmount",
          "type": "uint256"
        },
        {
          "indexed": true,
          "internalType": "address",
          "name": "userTargetAddress",
          "type": "address"
        },
        {
          "indexed": false,
          "internalType": "bytes",
          "name": "userScript",
          "type": "bytes"
        },
        {
          "indexed": false,
          "internalType": "enum ScriptTypes",
          "name": "scriptType",
          "type": "uint8"
        },
        {
          "indexed": false,
          "internalType": "address[]",
          "name": "path",
          "type": "address[]"
        },
        {
          "indexed": false,
          "internalType": "uint256",
          "name": "thirdPartyId",
          "type": "uint256"
        }
      ],
      "name": "FailedSwapAndUnwrap",
      "type": "event"
    },
    {
      "anonymous": false,
      "inputs": [
        {
          "indexed": false,
          "internalType": "uint256",
          "name": "uniqueCounter",
          "type": "uint256"
        },
        {
          "indexed": false,
          "internalType": "uint256",
          "name": "chainId",
          "type": "uint256"
        },
        {
          "indexed": true,
          "internalType": "address",
          "name": "userTargetAddress",
          "type": "address"
        },
        {
          "indexed": false,
          "internalType": "uint256",
          "name": "thirdPartyId",
          "type": "uint256"
        },
        {
          "indexed": false,
          "internalType": "uint256",
          "name": "internalId",
          "type": "uint256"
        },
        {
          "indexed": false,
          "internalType": "uint256",
          "name": "appId",
          "type": "uint256"
        },
        {
          "indexed": false,
          "internalType": "uint256",
          "name": "amount",
          "type": "uint256"
        },
        {
          "indexed": false,
          "internalType": "uint256",
          "name": "inputAmount",
          "type": "uint256"
        },
        {
          "indexed": false,
          "internalType": "address[]",
          "name": "path",
          "type": "address[]"
        },
        {
          "indexed": false,
          "internalType": "bytes",
          "name": "userScript",
          "type": "bytes"
        },
        {
          "indexed": false,
          "internalType": "enum ScriptTypes",
          "name": "scriptType",
          "type": "uint8"
        }
      ],
      "name": "FailedSwapAndUnwrapRune",
      "type": "event"
    },
    {
      "anonymous": false,
      "inputs": [
        {
          "indexed": false,
          "internalType": "uint8",
          "name": "version",
          "type": "uint8"
        }
      ],
      "name": "Initialized",
      "type": "event"
    },
    {
      "anonymous": false,
      "inputs": [
        {
          "indexed": false,
          "internalType": "address",
          "name": "oldLockersProxy",
          "type": "address"
        },
        {
          "indexed": false,
          "internalType": "address",
          "name": "newLockersProxy",
          "type": "address"
        }
      ],
      "name": "LockersProxyUpdated",
      "type": "event"
    },
    {
      "anonymous": false,
      "inputs": [
        {
          "indexed": false,
          "internalType": "string",
          "name": "functionName",
          "type": "string"
        },
        {
          "indexed": false,
          "internalType": "uint256",
          "name": "uniqueCounter",
          "type": "uint256"
        },
        {
          "indexed": false,
          "internalType": "uint256",
          "name": "chainId",
          "type": "uint256"
        },
        {
          "indexed": false,
          "internalType": "bytes",
          "name": "data",
          "type": "bytes"
        }
      ],
      "name": "MsgReceived",
      "type": "event"
    },
    {
      "anonymous": false,
      "inputs": [
        {
          "indexed": false,
          "internalType": "uint256",
          "name": "uniqueCounter",
          "type": "uint256"
        },
        {
          "indexed": false,
          "internalType": "uint256",
          "name": "chainId",
          "type": "uint256"
        },
        {
          "indexed": false,
          "internalType": "address",
          "name": "exchangeConnector",
          "type": "address"
        },
        {
          "indexed": false,
          "internalType": "address",
          "name": "inputToken",
          "type": "address"
        },
        {
          "indexed": false,
          "internalType": "uint256",
          "name": "inputAmount",
          "type": "uint256"
        },
        {
          "indexed": true,
          "internalType": "address",
          "name": "userTargetAddress",
          "type": "address"
        },
        {
          "indexed": false,
          "internalType": "bytes",
          "name": "userScript",
          "type": "bytes"
        },
        {
          "indexed": false,
          "internalType": "enum ScriptTypes",
          "name": "scriptType",
          "type": "uint8"
        },
        {
          "indexed": false,
          "internalType": "address",
          "name": "lockerTargetAddress",
          "type": "address"
        },
        {
          "indexed": false,
          "internalType": "uint256",
          "name": "requestIdOfLocker",
          "type": "uint256"
        },
        {
          "indexed": false,
          "internalType": "address[]",
          "name": "path",
          "type": "address[]"
        },
        {
          "indexed": false,
          "internalType": "uint256",
          "name": "thirdPartyId",
          "type": "uint256"
        }
      ],
      "name": "NewSwapAndUnwrap",
      "type": "event"
    },
    {
      "anonymous": false,
      "inputs": [
        {
          "indexed": false,
          "internalType": "uint256",
          "name": "uniqueCounter",
          "type": "uint256"
        },
        {
          "indexed": false,
          "internalType": "uint256",
          "name": "chainId",
          "type": "uint256"
        },
        {
          "indexed": true,
          "internalType": "address",
          "name": "userTargetAddress",
          "type": "address"
        },
        {
          "indexed": false,
          "internalType": "uint256",
          "name": "thirdPartyId",
          "type": "uint256"
        },
        {
          "indexed": false,
          "internalType": "uint256",
          "name": "internalId",
          "type": "uint256"
        },
        {
          "indexed": false,
          "internalType": "uint256",
          "name": "appId",
          "type": "uint256"
        },
        {
          "indexed": false,
          "internalType": "uint256",
          "name": "amount",
          "type": "uint256"
        },
        {
          "indexed": false,
          "internalType": "uint256",
          "name": "inputAmount",
          "type": "uint256"
        },
        {
          "indexed": false,
          "internalType": "address[]",
          "name": "path",
          "type": "address[]"
        },
        {
          "indexed": false,
          "internalType": "bytes",
          "name": "userScript",
          "type": "bytes"
        },
        {
          "indexed": false,
          "internalType": "enum ScriptTypes",
          "name": "scriptType",
          "type": "uint8"
        },
        {
          "indexed": false,
          "internalType": "uint256",
          "name": "requestIdOfLocker",
          "type": "uint256"
        }
      ],
      "name": "NewSwapAndUnwrapRune",
      "type": "event"
    },
    {
      "anonymous": false,
      "inputs": [
        {
          "indexed": true,
          "internalType": "address",
          "name": "previousOwner",
          "type": "address"
        },
        {
          "indexed": true,
          "internalType": "address",
          "name": "newOwner",
          "type": "address"
        }
      ],
      "name": "OwnershipTransferred",
      "type": "event"
    },
    {
      "anonymous": false,
      "inputs": [
        {
          "indexed": false,
          "internalType": "address",
          "name": "account",
          "type": "address"
        }
      ],
      "name": "Paused",
      "type": "event"
    },
    {
      "anonymous": false,
      "inputs": [
        {
          "indexed": false,
          "internalType": "uint256",
          "name": "uniqueCounter",
          "type": "uint256"
        },
        {
          "indexed": false,
          "internalType": "uint256",
          "name": "chainId",
          "type": "uint256"
        },
        {
          "indexed": false,
          "internalType": "address",
          "name": "exchangeConnector",
          "type": "address"
        },
        {
          "indexed": false,
          "internalType": "address",
          "name": "inputToken",
          "type": "address"
        },
        {
          "indexed": false,
          "internalType": "uint256",
          "name": "inputAmount",
          "type": "uint256"
        },
        {
          "indexed": true,
          "internalType": "address",
          "name": "userTargetAddress",
          "type": "address"
        },
        {
          "indexed": false,
          "internalType": "bytes",
          "name": "userScript",
          "type": "bytes"
        },
        {
          "indexed": false,
          "internalType": "enum ScriptTypes",
          "name": "scriptType",
          "type": "uint8"
        },
        {
          "indexed": false,
          "internalType": "address",
          "name": "lockerTargetAddress",
          "type": "address"
        },
        {
          "indexed": false,
          "internalType": "uint256",
          "name": "requestIdOfLocker",
          "type": "uint256"
        },
        {
          "indexed": false,
          "internalType": "address[]",
          "name": "path",
          "type": "address[]"
        },
        {
          "indexed": false,
          "internalType": "uint256",
          "name": "thirdPartyId",
          "type": "uint256"
        }
      ],
      "name": "RetriedSwapAndUnwrap",
      "type": "event"
    },
    {
      "anonymous": false,
      "inputs": [
        {
          "indexed": false,
          "internalType": "uint256",
          "name": "uniqueCounter",
          "type": "uint256"
        },
        {
          "indexed": false,
          "internalType": "uint256",
          "name": "chainId",
          "type": "uint256"
        },
        {
          "indexed": true,
          "internalType": "address",
          "name": "userTargetAddress",
          "type": "address"
        },
        {
          "indexed": false,
          "internalType": "uint256",
          "name": "thirdPartyId",
          "type": "uint256"
        },
        {
          "indexed": false,
          "internalType": "uint256",
          "name": "internalId",
          "type": "uint256"
        },
        {
          "indexed": false,
          "internalType": "uint256",
          "name": "appId",
          "type": "uint256"
        },
        {
          "indexed": false,
          "internalType": "uint256",
          "name": "amount",
          "type": "uint256"
        },
        {
          "indexed": false,
          "internalType": "uint256",
          "name": "inputAmount",
          "type": "uint256"
        },
        {
          "indexed": false,
          "internalType": "address[]",
          "name": "path",
          "type": "address[]"
        },
        {
          "indexed": false,
          "internalType": "bytes",
          "name": "userScript",
          "type": "bytes"
        },
        {
          "indexed": false,
          "internalType": "enum ScriptTypes",
          "name": "scriptType",
          "type": "uint8"
        },
        {
          "indexed": false,
          "internalType": "uint256",
          "name": "requestIdOfLocker",
          "type": "uint256"
        }
      ],
      "name": "RetriedSwapAndUnwrapRune",
      "type": "event"
    },
    {
      "anonymous": false,
      "inputs": [
        {
          "indexed": false,
          "internalType": "address",
          "name": "account",
          "type": "address"
        }
      ],
      "name": "Unpaused",
      "type": "event"
    },
    {
      "anonymous": false,
      "inputs": [
        {
          "indexed": false,
          "internalType": "uint256",
          "name": "uniqueCounter",
          "type": "uint256"
        },
        {
          "indexed": false,
          "internalType": "uint256",
          "name": "chainId",
          "type": "uint256"
        },
        {
          "indexed": false,
          "internalType": "address",
          "name": "token",
          "type": "address"
        },
        {
          "indexed": false,
          "internalType": "uint256",
          "name": "amount",
          "type": "uint256"
        },
        {
          "indexed": false,
          "internalType": "int64",
          "name": "relayerFeePercentage",
          "type": "int64"
        },
        {
          "indexed": false,
          "internalType": "address",
          "name": "user",
          "type": "address"
        }
      ],
      "name": "WithdrawnFundsToSourceChain",
      "type": "event"
    },
    {
      "inputs": [],
      "name": "ETH_ADDR",
      "outputs": [
        {
          "internalType": "address",
          "name": "",
          "type": "address"
        }
      ],
      "stateMutability": "view",
      "type": "function"
    },
    {
      "inputs": [],
      "name": "across",
      "outputs": [
        {
          "internalType": "address",
          "name": "",
          "type": "address"
        }
      ],
      "stateMutability": "view",
      "type": "function"
    },
    {
      "inputs": [],
      "name": "acrossAdmin",
      "outputs": [
        {
          "internalType": "address",
          "name": "",
          "type": "address"
        }
      ],
      "stateMutability": "view",
      "type": "function"
    },
    {
      "inputs": [],
      "name": "burnRouterProxy",
      "outputs": [
        {
          "internalType": "address",
          "name": "",
          "type": "address"
        }
      ],
      "stateMutability": "view",
      "type": "function"
    },
    {
      "inputs": [
        {
          "internalType": "address",
          "name": "_token",
          "type": "address"
        },
        {
          "internalType": "address",
          "name": "_to",
          "type": "address"
        },
        {
          "internalType": "uint256",
          "name": "_amount",
          "type": "uint256"
        }
      ],
      "name": "emergencyWithdraw",
      "outputs": [],
      "stateMutability": "nonpayable",
      "type": "function"
    },
    {
      "inputs": [
        {
          "internalType": "address",
          "name": "",
          "type": "address"
        },
        {
          "internalType": "uint256",
          "name": "",
          "type": "uint256"
        },
        {
          "internalType": "address",
          "name": "",
          "type": "address"
        }
      ],
      "name": "failedReqs",
      "outputs": [
        {
          "internalType": "uint256",
          "name": "",
          "type": "uint256"
        }
      ],
      "stateMutability": "view",
      "type": "function"
    },
    {
      "inputs": [],
      "name": "gasLimit",
      "outputs": [
        {
          "internalType": "uint256",
          "name": "",
          "type": "uint256"
        }
      ],
      "stateMutability": "view",
      "type": "function"
    },
    {
      "inputs": [
        {
          "internalType": "address",
          "name": "_tokenSent",
          "type": "address"
        },
        {
          "internalType": "uint256",
          "name": "_amount",
          "type": "uint256"
        },
        {
          "internalType": "address",
          "name": "",
          "type": "address"
        },
        {
          "internalType": "bytes",
          "name": "_message",
          "type": "bytes"
        }
      ],
      "name": "handleV3AcrossMessage",
      "outputs": [],
      "stateMutability": "nonpayable",
      "type": "function"
    },
    {
      "inputs": [
        {
          "internalType": "address",
          "name": "_lockersProxy",
          "type": "address"
        },
        {
          "internalType": "address",
          "name": "_burnRouterProxy",
          "type": "address"
        },
        {
          "internalType": "address",
          "name": "_across",
          "type": "address"
        },
        {
          "internalType": "address",
          "name": "_runeRouterProxy",
          "type": "address"
        }
      ],
      "name": "initialize",
      "outputs": [],
      "stateMutability": "nonpayable",
      "type": "function"
    },
    {
      "inputs": [],
      "name": "lockersProxy",
      "outputs": [
        {
          "internalType": "address",
          "name": "",
          "type": "address"
        }
      ],
      "stateMutability": "view",
      "type": "function"
    },
    {
      "inputs": [
        {
          "internalType": "address",
          "name": "",
          "type": "address"
        },
        {
          "internalType": "uint256",
          "name": "",
          "type": "uint256"
        },
        {
          "internalType": "uint256",
          "name": "",
          "type": "uint256"
        },
        {
          "internalType": "address",
          "name": "",
          "type": "address"
        }
      ],
      "name": "newFailedReqs",
      "outputs": [
        {
          "internalType": "uint256",
          "name": "",
          "type": "uint256"
        }
      ],
      "stateMutability": "view",
      "type": "function"
    },
    {
      "inputs": [],
      "name": "owner",
      "outputs": [
        {
          "internalType": "address",
          "name": "",
          "type": "address"
        }
      ],
      "stateMutability": "view",
      "type": "function"
    },
    {
      "inputs": [],
      "name": "paused",
      "outputs": [
        {
          "internalType": "bool",
          "name": "",
          "type": "bool"
        }
      ],
      "stateMutability": "view",
      "type": "function"
    },
    {
      "inputs": [],
      "name": "renounceOwnership",
      "outputs": [],
      "stateMutability": "nonpayable",
      "type": "function"
    },
    {
      "inputs": [
        {
          "internalType": "bytes",
          "name": "_message",
          "type": "bytes"
        },
        {
          "internalType": "uint8",
          "name": "_v",
          "type": "uint8"
        },
        {
          "internalType": "bytes32",
          "name": "_r",
          "type": "bytes32"
        },
        {
          "internalType": "bytes32",
          "name": "_s",
          "type": "bytes32"
        }
      ],
      "name": "retrySwapAndUnwrap",
      "outputs": [],
      "stateMutability": "nonpayable",
      "type": "function"
    },
    {
      "inputs": [
        {
          "internalType": "bytes",
          "name": "_message",
          "type": "bytes"
        },
        {
          "internalType": "uint8",
          "name": "_v",
          "type": "uint8"
        },
        {
          "internalType": "bytes32",
          "name": "_r",
          "type": "bytes32"
        },
        {
          "internalType": "bytes32",
          "name": "_s",
          "type": "bytes32"
        }
      ],
      "name": "retrySwapAndUnwrapRune",
      "outputs": [],
      "stateMutability": "nonpayable",
      "type": "function"
    },
    {
      "inputs": [],
      "name": "runeRouterProxy",
      "outputs": [
        {
          "internalType": "address",
          "name": "",
          "type": "address"
        }
      ],
      "stateMutability": "view",
      "type": "function"
    },
    {
      "inputs": [
        {
          "internalType": "address",
          "name": "_across",
          "type": "address"
        }
      ],
      "name": "setAcross",
      "outputs": [],
      "stateMutability": "nonpayable",
      "type": "function"
    },
    {
      "inputs": [
        {
          "internalType": "address",
          "name": "_acrossAdmin",
          "type": "address"
        }
      ],
      "name": "setAcrossAdmin",
      "outputs": [],
      "stateMutability": "nonpayable",
      "type": "function"
    },
    {
      "inputs": [
        {
          "internalType": "address",
          "name": "_burnRouterProxy",
          "type": "address"
        }
      ],
      "name": "setBurnRouterProxy",
      "outputs": [],
      "stateMutability": "nonpayable",
      "type": "function"
    },
    {
      "inputs": [
        {
          "internalType": "uint256",
          "name": "_gasLimit",
          "type": "uint256"
        }
      ],
      "name": "setGasLimit",
      "outputs": [],
      "stateMutability": "nonpayable",
      "type": "function"
    },
    {
      "inputs": [
        {
          "internalType": "address",
          "name": "_lockersProxy",
          "type": "address"
        }
      ],
      "name": "setLockersProxy",
      "outputs": [],
      "stateMutability": "nonpayable",
      "type": "function"
    },
    {
      "inputs": [
        {
          "internalType": "address",
          "name": "_runeRouterProxy",
          "type": "address"
        }
      ],
      "name": "setRuneRouterProxy",
      "outputs": [],
      "stateMutability": "nonpayable",
      "type": "function"
    },
    {
      "inputs": [
        {
          "internalType": "address",
          "name": "newOwner",
          "type": "address"
        }
      ],
      "name": "transferOwnership",
      "outputs": [],
      "stateMutability": "nonpayable",
      "type": "function"
    },
    {
      "inputs": [
        {
          "internalType": "bytes",
          "name": "_message",
          "type": "bytes"
        },
        {
          "internalType": "uint8",
          "name": "_v",
          "type": "uint8"
        },
        {
          "internalType": "bytes32",
          "name": "_r",
          "type": "bytes32"
        },
        {
          "internalType": "bytes32",
          "name": "_s",
          "type": "bytes32"
        }
      ],
      "name": "withdrawFundsToSourceChain",
      "outputs": [],
      "stateMutability": "nonpayable",
      "type": "function"
    },
    {
      "inputs": [
        {
          "internalType": "address",
          "name": "_user",
          "type": "address"
        },
        {
          "internalType": "uint256",
          "name": "_chainId",
          "type": "uint256"
        },
        {
          "internalType": "uint256",
          "name": "_uniqueCounter",
          "type": "uint256"
        },
        {
          "internalType": "address",
          "name": "_token",
          "type": "address"
        },
        {
          "internalType": "int64",
          "name": "_relayerFeePercentage",
          "type": "int64"
        }
      ],
      "name": "withdrawFundsToSourceChainByOwnerOrAdmin",
      "outputs": [],
      "stateMutability": "nonpayable",
      "type": "function"
    },
    {
      "stateMutability": "payable",
      "type": "receive"
    }
  ],
  "transactionHash": "0x76233a3ccf7e64778b54d8c0d8d77ca832697b87e3b5a36af6f1e6dd05034046",
  "args": [],
  "numDeployments": 1,
  "solcInputHash": "3138ef8045491a0bfcb3e1395cd1d7f5",
  "bytecode": "0x608060405234801561001057600080fd5b5061387c806100206000396000f3fe6080604052600436106101355760003560e01c80630597865c146101415780631dbd94ff14610177578063292c1d9214610199578063296079f1146101b95780633a5be8cb146101d95780633e938097146101f95780633f8c6ae0146102195780634d6e8f9d1461023957806359841888146102595780635c975abb1461027957806361be10f21461029c578063715018a6146102bc5780637753f47b146102d157806386420503146102f9578063878269b51461031957806387c554f8146103395780638907eb5c146103595780638da5cb5b146103a5578063a088bb20146103ba578063baf7f918146103da578063cf25685414610421578063e63ea40814610441578063ee7d72b414610461578063f2fde38b14610481578063f68016b7146104a1578063f8c8765e146104b757600080fd5b3661013c57005b600080fd5b34801561014d57600080fd5b5060ce54610161906001600160a01b031681565b60405161016e91906131af565b60405180910390f35b34801561018357600080fd5b50610197610192366004612a5d565b6104d7565b005b3480156101a557600080fd5b5060cb54610161906001600160a01b031681565b3480156101c557600080fd5b5060c954610161906001600160a01b031681565b3480156101e557600080fd5b506101976101f4366004612b71565b61052a565b34801561020557600080fd5b50610197610214366004612c90565b6106e3565b34801561022557600080fd5b5060ca54610161906001600160a01b031681565b34801561024557600080fd5b50610197610254366004612a5d565b6107c4565b34801561026557600080fd5b50610197610274366004612a5d565b610817565b34801561028557600080fd5b5060975460ff16604051901515815260200161016e565b3480156102a857600080fd5b506101976102b7366004612a5d565b61086a565b3480156102c857600080fd5b506101976108bd565b3480156102dd57600080fd5b5061016173eeeeeeeeeeeeeeeeeeeeeeeeeeeeeeeeeeeeeeee81565b34801561030557600080fd5b50610197610314366004612c18565b6108d1565b34801561032557600080fd5b50610197610334366004612a5d565b610a0b565b34801561034557600080fd5b5060cf54610161906001600160a01b031681565b34801561036557600080fd5b50610397610374366004612b30565b60cc60209081526000938452604080852082529284528284209052825290205481565b60405190815260200161016e565b3480156103b157600080fd5b50610161610a35565b3480156103c657600080fd5b506101976103d5366004612c90565b610a44565b3480156103e657600080fd5b506103976103f5366004612bda565b60cd60209081526000948552604080862082529385528385208152918452828420909152825290205481565b34801561042d57600080fd5b5061019761043c366004612c90565b610e14565b34801561044d57600080fd5b5061019761045c366004612af0565b6112af565b34801561046d57600080fd5b5061019761047c366004612fa5565b6113b2565b34801561048d57600080fd5b5061019761049c366004612a5d565b6113bf565b3480156104ad57600080fd5b5061039760d05481565b3480156104c357600080fd5b506101976104d2366004612a95565b611438565b6104df6115a6565b806001600160a01b0381166105075760405163d92e233d60e01b815260040160405180910390fd5b5060ce80546001600160a01b0319166001600160a01b0392909216919091179055565b610532611605565b60d0545a10156105895760405162461bcd60e51b815260206004820152601e60248201527f506f6c79676f6e436f6e6e6563746f724c6f6769633a206c6f7720676173000060448201526064015b60405180910390fd5b60cb546001600160a01b031633146105ed5760405162461bcd60e51b815260206004820152602160248201527f506f6c79676f6e436f6e6e6563746f724c6f6769633a206e6f74206163726f736044820152607360f81b6064820152608401610580565b6000806000838060200190518101906106069190612cf1565b9250925092507fd8883c6af9aa96506569d2db74cafb52037a26374320a8aeaf9fd5cd7df3d228838383876040516106419493929190613336565b60405180910390a1610678836040518060400160405280600d81526020016c073776170416e64556e7772617609c1b81525061165f565b1561068d576106888685896116b8565b6106d0565b6106c0836040518060400160405280601181526020017073776170416e64556e7772617052756e6560781b81525061165f565b156106d0576106d0868589611c0b565b5050506106dd6001606555565b50505050565b6106eb611605565b60006106f985848487612063565b905060008060008088806020019051810190610715919061309a565b6001600160a01b03898116600090815260cd60209081526040808320888452825280832087845282528083209386168352929052908120805491905593975091955093509150806107785760405162461bcd60e51b8152600401610580906133aa565b6107858686858486612192565b60008051602061382783398151915284868584868b6040516107ac9695949392919061356d565b60405180910390a15050505050506106dd6001606555565b6107cc6115a6565b806001600160a01b0381166107f45760405163d92e233d60e01b815260040160405180910390fd5b5060ca80546001600160a01b0319166001600160a01b0392909216919091179055565b61081f6115a6565b806001600160a01b0381166108475760405163d92e233d60e01b815260040160405180910390fd5b5060c980546001600160a01b0319166001600160a01b0392909216919091179055565b6108726115a6565b806001600160a01b03811661089a5760405163d92e233d60e01b815260040160405180910390fd5b5060cb80546001600160a01b0319166001600160a01b0392909216919091179055565b6108c56115a6565b6108cf6000612307565b565b6108d9611605565b60cf546001600160a01b031633148061090a57506108f5610a35565b6001600160a01b0316336001600160a01b0316145b6109645760405162461bcd60e51b815260206004820152602560248201527f506f6c79676f6e436f6e6e6563746f724c6f6769633a206e6f7420617574686f6044820152641c9a5e995960da1b6064820152608401610580565b6001600160a01b03858116600090815260cd602090815260408083208884528252808320878452825280832093861683529290529081208054919055806109bd5760405162461bcd60e51b8152600401610580906133aa565b6109ca8686858486612192565b60008051602061382783398151915284868584868b6040516109f19695949392919061356d565b60405180910390a150610a046001606555565b5050505050565b610a136115a6565b60cf80546001600160a01b0319166001600160a01b0392909216919091179055565b6033546001600160a01b031690565b610a4c611605565b6000610a5a85848487612063565b90506000610a6786612359565b6001600160a01b038316600090815260cd60209081526040808320828501518452825280832084518452909152812060e083015180519394509192909183918290610ac257634e487b7160e01b600052603260045260246000fd5b6020908102919091018101516001600160a01b039081168352828201939093526040918201600090812054938716815260cd825282812086830151825282528281208651825290915290812060e0850151805193945090928290610b3657634e487b7160e01b600052603260045260246000fd5b60200260200101516001600160a01b03166001600160a01b031681526020019081526020016000206000905560008111610b825760405162461bcd60e51b8152600401610580906133f2565b8160e00151600081518110610ba757634e487b7160e01b600052603260045260246000fd5b602090810291909101015160ce5460405163095ea7b360e01b81526001600160a01b039283169263095ea7b392610be592911690859060040161330a565b602060405180830381600087803b158015610bff57600080fd5b505af1158015610c13573d6000803e3d6000fd5b505050506040513d601f19601f82011682018060405250810190610c379190612c76565b5060ce546060830151608084015160c0850151610100860151805160209091015160a088015160e089015160405163e91ffefd60e01b81526001600160a01b039098169763e91ffefd97610c9c979096909590949093909290918b91906004016135a4565b602060405180830381600087803b158015610cb657600080fd5b505af1158015610cca573d6000803e3d6000fd5b505050506040513d601f19601f82011682018060405250810190610cee9190612fbd565b5081604001516001600160a01b03167f284e317953e0a6a3f7aa727623192f6c44a92fb0a805d7ea1916a93e78b0e81b83600001518460200151856060015186608001518760a001518860c00151888a60e001518b6101000151600001518c610100015160200151600160ce60009054906101000a90046001600160a01b03166001600160a01b03166390665eca6040518163ffffffff1660e01b815260040160206040518083038186803b158015610da657600080fd5b505afa158015610dba573d6000803e3d6000fd5b505050506040513d601f19601f82011682018060405250810190610dde9190612fbd565b610de89190613793565b604051610dff9b9a9998979695949392919061366a565b60405180910390a25050506106dd6001606555565b610e1c611605565b6000610e2a85848487612063565b90506000806000806000806000806000808e806020019051810190610e4f9190612fd5565b9950995099509950995099509950995099509950600060cd60008d6001600160a01b03166001600160a01b0316815260200190815260200160002060008c815260200190815260200160002060008b815260200190815260200160002060008a6001600160a01b03166001600160a01b0316815260200190815260200160002054905060cd60008d6001600160a01b03166001600160a01b0316815260200190815260200160002060008c815260200190815260200160002060008b815260200190815260200160002060008a6001600160a01b03166001600160a01b031681526020019081526020016000206000905560008111610f605760405162461bcd60e51b8152600401610580906133f2565b6040805160028082526060820183526000926020830190803683370190505090508181600081518110610fa357634e487b7160e01b600052603260045260246000fd5b6020026020010181815250508781600181518110610fd157634e487b7160e01b600052603260045260246000fd5b60200260200101818152505083600081518110610ffe57634e487b7160e01b600052603260045260246000fd5b602090810291909101015160ca5460405163095ea7b360e01b81526001600160a01b039283169263095ea7b39261103c92911690869060040161330a565b602060405180830381600087803b15801561105657600080fd5b505af115801561106a573d6000803e3d6000fd5b505050506040513d601f19601f8201168201806040525081019061108e9190612c76565b5060ca546040516344dd6aa560e01b81526001600160a01b03909116906344dd6aa5906110d0908c9085906001908a9042908f908f908f908e9060040161324f565b602060405180830381600087803b1580156110ea57600080fd5b505af11580156110fe573d6000803e3d6000fd5b505050506040513d601f19601f820116820180604052508101906111229190612fbd565b5060c95460405163626885b560e11b81526000916001600160a01b03169063c4d10b6a90611154908990600401613323565b60206040518083038186803b15801561116c57600080fd5b505afa158015611180573d6000803e3d6000fd5b505050506040513d601f19601f820116820180604052508101906111a49190612a79565b90508d6001600160a01b03167fc3fa5dbbc53aa478b310dddcc3bd2527072ac6794c00d92e4ad7201827297fc08d8f8d8f888e8e89600160ca60009054906101000a90046001600160a01b03166001600160a01b031663930a60e88d6040518263ffffffff1660e01b815260040161121c91906131af565b60206040518083038186803b15801561123457600080fd5b505afa158015611248573d6000803e3d6000fd5b505050506040513d601f19601f8201168201806040525081019061126c9190612fbd565b6112769190613793565b8f8f60405161128f9b9a99989796959493929190613483565b60405180910390a250505050505050505050505050506106dd6001606555565b6112b76115a6565b6001600160a01b03831673eeeeeeeeeeeeeeeeeeeeeeeeeeeeeeeeeeeeeeee1415611332576040516001600160a01b038316908290600081818185875af1925050503d8060008114611325576040519150601f19603f3d011682016040523d82523d6000602084013e61132a565b606091505b505050505050565b60405163a9059cbb60e01b81526001600160a01b0384169063a9059cbb90611360908590859060040161330a565b602060405180830381600087803b15801561137a57600080fd5b505af115801561138e573d6000803e3d6000fd5b505050506040513d601f19601f820116820180604052508101906106dd9190612c76565b6113ba6115a6565b60d055565b6113c76115a6565b6001600160a01b03811661142c5760405162461bcd60e51b815260206004820152602660248201527f4f776e61626c653a206e6577206f776e657220697320746865207a65726f206160448201526564647265737360d01b6064820152608401610580565b61143581612307565b50565b600054610100900460ff16158080156114585750600054600160ff909116105b806114725750303b158015611472575060005460ff166001145b6114d55760405162461bcd60e51b815260206004820152602e60248201527f496e697469616c697a61626c653a20636f6e747261637420697320616c72656160448201526d191e481a5b9a5d1a585b1a5e995960921b6064820152608401610580565b6000805460ff1916600117905580156114f8576000805461ff0019166101001790555b6115006123d1565b611508612400565b61151061242f565b60c980546001600160a01b038088166001600160a01b03199283161790925560ca805487841690831617905560cb805486841690831617905560ce8054928516929091169190911790558015610a04576000805461ff0019169055604051600181527f7f26b83ff96e1f2b6a682f133852f6798a09c465da95921460cefb38474024989060200160405180910390a15050505050565b336115af610a35565b6001600160a01b0316146108cf5760405162461bcd60e51b815260206004820181905260248201527f4f776e61626c653a2063616c6c6572206973206e6f7420746865206f776e65726044820152606401610580565b600260655414156116585760405162461bcd60e51b815260206004820152601f60248201527f5265656e7472616e637947756172643a207265656e7472616e742063616c6c006044820152606401610580565b6002606555565b600081604051602001611672919061316a565b6040516020818303038152906040528051906020012083604051602001611699919061316a565b6040516020818303038152906040528051906020012014905092915050565b60006116c38361245e565b9050816001600160a01b03168160c001516000815181106116f457634e487b7160e01b600052603260045260246000fd5b60200260200101516001600160a01b0316146117225760405162461bcd60e51b815260040161058090613367565b604080516002808252606082018352600092602083019080368337019050509050848160008151811061176557634e487b7160e01b600052603260045260246000fd5b60200260200101818152505081608001518160018151811061179757634e487b7160e01b600052603260045260246000fd5b602090810291909101015260ca5460405163095ea7b360e01b81526001600160a01b038581169263095ea7b3926117d69290911690899060040161330a565b602060405180830381600087803b1580156117f057600080fd5b505af1158015611804573d6000803e3d6000fd5b505050506040513d601f19601f820116820180604052508101906118289190612c76565b5060ca54606083015160a084015160c085015160e0860151805160208201516040928301516101008a015193516344dd6aa560e01b81526001600160a01b03909816976344dd6aa59761188c9790968b96919590944294919390929060040161324f565b602060405180830381600087803b1580156118a657600080fd5b505af19250505080156118d6575060408051601f3d908101601f191682019092526118d391810190612fbd565b60015b611a5c5760ca5460405163095ea7b360e01b81526001600160a01b038581169263095ea7b39261190f929091169060009060040161330a565b602060405180830381600087803b15801561192957600080fd5b505af115801561193d573d6000803e3d6000fd5b505050506040513d601f19601f820116820180604052508101906119619190612c76565b508460cd600084604001516001600160a01b03166001600160a01b031681526020019081526020016000206000846020015181526020019081526020016000206000846000015181526020019081526020016000206000856001600160a01b03166001600160a01b031681526020019081526020016000208190555081604001516001600160a01b03167fa79aee2abfa3037b36c3689636c9932b113a82cebda0057ac4ce2386371fc969836000015184602001518560600151878a8860e00151600001518960e00151602001518a60c001518b6101000151604051611a4f9998979695949392919061350b565b60405180910390a2610a04565b5060c95460e0830151604090810151905163626885b560e11b81526000926001600160a01b03169163c4d10b6a91611a979190600401613323565b60206040518083038186803b158015611aaf57600080fd5b505afa158015611ac3573d6000803e3d6000fd5b505050506040513d601f19601f82011682018060405250810190611ae79190612a79565b905082604001516001600160a01b03167f124f82fb68081b8c772a74ce98c0c92b659dd79e4fd3f03cf49988818eb04e8b846000015185602001518660600151888b8960e00151600001518a60e001516020015189600160ca60009054906101000a90046001600160a01b03166001600160a01b031663930a60e88d6040518263ffffffff1660e01b8152600401611b7f91906131af565b60206040518083038186803b158015611b9757600080fd5b505afa158015611bab573d6000803e3d6000fd5b505050506040513d601f19601f82011682018060405250810190611bcf9190612fbd565b611bd99190613793565b8d60c001518e6101000151604051611bfb9b9a99989796959493929190613483565b60405180910390a2505050505050565b6000611c1683612359565b9050816001600160a01b03168160e00151600081518110611c4757634e487b7160e01b600052603260045260246000fd5b60200260200101516001600160a01b031614611c755760405162461bcd60e51b815260040161058090613367565b60ce5460405163095ea7b360e01b81526001600160a01b038481169263095ea7b392611ca99290911690889060040161330a565b602060405180830381600087803b158015611cc357600080fd5b505af1158015611cd7573d6000803e3d6000fd5b505050506040513d601f19601f82011682018060405250810190611cfb9190612c76565b5060ce546060820151608083015160c0840151610100850151805160209091015160a087015160e088015160405163e91ffefd60e01b81526001600160a01b039098169763e91ffefd97600097611d62979196909591949093919290918f916004016135a4565b6020604051808303818588803b158015611d7b57600080fd5b505af193505050508015611dac575060408051601f3d908101601f19168201909252611da991810190612fbd565b60015b611f3d5760ce5460405163095ea7b360e01b81526001600160a01b038481169263095ea7b392611de5929091169060009060040161330a565b602060405180830381600087803b158015611dff57600080fd5b505af1158015611e13573d6000803e3d6000fd5b505050506040513d601f19601f82011682018060405250810190611e379190612c76565b508360cd600083604001516001600160a01b03166001600160a01b031681526020019081526020016000206000836020015181526020019081526020016000206000836000015181526020019081526020016000206000846001600160a01b03166001600160a01b031681526020019081526020016000208190555080604001516001600160a01b03167feef470645928135b5faf5eb6a2f7076448531d47f42149c2b1ceaa9fe1d624a082600001518360200151846060015185608001518660a001518760c001518b8960e001518a6101000151600001518b610100015160200151604051611f309a99989796959493929190613606565b60405180910390a26106dd565b5080604001516001600160a01b03167f13a9049471d86bfc267b825d08be20c5ebfc793c109c11eb159af6781cda310582600001518360200151846060015185608001518660a001518760c001518b8960e001518a6101000151600001518b610100015160200151600160ce60009054906101000a90046001600160a01b03166001600160a01b03166390665eca6040518163ffffffff1660e01b815260040160206040518083038186803b158015611ff557600080fd5b505afa158015612009573d6000803e3d6000fd5b505050506040513d601f19601f8201168201806040525081019061202d9190612fbd565b6120379190613793565b60405161204e9b9a9998979695949392919061366a565b60405180910390a250505050565b6001606555565b600080858051906020012090506000816040516020016120ae91907b0ca2ba3432b932bab69029b4b3b732b21026b2b9b9b0b3b29d05199960211b8152601c810191909152603c0190565b60408051601f198184030181528282528051602091820120600080855291840180845281905260ff88169284019290925260608301899052608083018890529092509060019060a0016020604051602081039080840390855afa158015612119573d6000803e3d6000fd5b5050604051601f1901519150506001600160a01b0381166121875760405162461bcd60e51b815260206004820152602260248201527f506f6c79676f6e436f6e6e6563746f724c6f6769633a20496e76616c69642073604482015261696760f01b6064820152608401610580565b979650505050505050565b60cb5460405163095ea7b360e01b81526001600160a01b038581169263095ea7b3926121c69290911690869060040161330a565b602060405180830381600087803b1580156121e057600080fd5b505af11580156121f4573d6000803e3d6000fd5b505050506040513d601f19601f820116820180604052508101906122189190612c76565b5060cf546000906001600160a01b031686858386670de0b6b3a76400006122486001600160401b03891682613793565b612252908a613774565b61225c9190613754565b8a60004261226c8161384061373c565b60408051602081018252600080825291516122959c9b9a999897969594939291906024016131c3565b60408051601f19818403018152918152602080830180516001600160e01b0316633dc9c91960e11b17905290519192506000916122d491849101613186565b60408051601f1981840301815291905260cb549091506122fd906001600160a01b0316826124da565b5050505050505050565b603380546001600160a01b038381166001600160a01b0319831681179093556040519116919082907f8be0079c531659141344cd1fd0a4f28419497f9722a3daafe3b4186f6b6457e090600090a35050565b612361612715565b818060200190518101906123759190612eef565b505050608088015260c087015260a08601526001600160a01b0316604085015260208085019190915290835283516123b4925084018101908401612eef565b60608b01526101008a015260e08901525095979650505050505050565b600054610100900460ff166123f85760405162461bcd60e51b815260040161058090613438565b6108cf612523565b600054610100900460ff166124275760405162461bcd60e51b815260040161058090613438565b6108cf612553565b600054610100900460ff166124565760405162461bcd60e51b815260040161058090613438565b6108cf61257a565b612466612782565b8180602001905181019061247a9190612d3e565b60e08a015260c0890152151560a088015260808701526001600160a01b03908116606087015216604085015260208085019190915290835283516124c5925084018101908401612e11565b6101008b015250979998505050505050505050565b606061251c83836040518060400160405280601e81526020017f416464726573733a206c6f772d6c6576656c2063616c6c206661696c656400008152506125ad565b9392505050565b600054610100900460ff1661254a5760405162461bcd60e51b815260040161058090613438565b6108cf33612307565b600054610100900460ff1661205c5760405162461bcd60e51b815260040161058090613438565b600054610100900460ff166125a15760405162461bcd60e51b815260040161058090613438565b6097805460ff19169055565b60606125bc84846000856125c4565b949350505050565b6060824710156126255760405162461bcd60e51b815260206004820152602660248201527f416464726573733a20696e73756666696369656e742062616c616e636520666f6044820152651c8818d85b1b60d21b6064820152608401610580565b843b6126735760405162461bcd60e51b815260206004820152601d60248201527f416464726573733a2063616c6c20746f206e6f6e2d636f6e74726163740000006044820152606401610580565b600080866001600160a01b0316858760405161268f919061316a565b60006040518083038185875af1925050503d80600081146126cc576040519150601f19603f3d011682016040523d82523d6000602084013e6126d1565b606091505b5091509150612187828286606083156126eb57508161251c565b8251156126fb5782518084602001fd5b8160405162461bcd60e51b81526004016105809190613323565b604051806101200160405280600081526020016000815260200160006001600160a01b03168152602001600081526020016000815260200160008152602001600081526020016060815260200161277d60408051808201909152606081526000602082015290565b905290565b604051806101200160405280600081526020016000815260200160006001600160a01b0316815260200160006001600160a01b0316815260200160008152602001600015158152602001606081526020016127f56040805160608082018352808252600060208301529181019190915290565b8152602001600081525090565b805161280d81613802565b919050565b600082601f830112612822578081fd5b815160206001600160401b0382111561283d5761283d6137ec565b8160051b61284c8282016136e5565b838152828101908684018388018501891015612866578687fd5b8693505b8584101561289157805161287d81613802565b83526001939093019291840191840161286a565b50979650505050505050565b8051801515811461280d57600080fd5b600082601f8301126128bd578081fd5b81356128d06128cb82613715565b6136e5565b8181528460208386010111156128e4578283fd5b816020850160208301379081016020019190915292915050565b600082601f83011261290e578081fd5b815161291c6128cb82613715565b818152846020838601011115612930578283fd5b6125bc8260208301602087016137aa565b80516006811061280d57600080fd5b600060608284031215612961578081fd5b604051606081016001600160401b038082118383101715612984576129846137ec565b81604052829350845191508082111561299c57600080fd5b6129a8868387016128fe565b83526129b660208601612941565b602084015260408501519150808211156129cf57600080fd5b506129dc858286016128fe565b6040830152505092915050565b6000604082840312156129fa578081fd5b604080519081016001600160401b038082118383101715612a1d57612a1d6137ec565b816040528293508451915080821115612a3557600080fd5b50612a42858286016128fe565b825250612a5160208401612941565b60208201525092915050565b600060208284031215612a6e578081fd5b813561251c81613802565b600060208284031215612a8a578081fd5b815161251c81613802565b60008060008060808587031215612aaa578283fd5b8435612ab581613802565b93506020850135612ac581613802565b92506040850135612ad581613802565b91506060850135612ae581613802565b939692955090935050565b600080600060608486031215612b04578283fd5b8335612b0f81613802565b92506020840135612b1f81613802565b929592945050506040919091013590565b600080600060608486031215612b44578283fd5b8335612b4f81613802565b9250602084013591506040840135612b6681613802565b809150509250925092565b60008060008060808587031215612b86578182fd5b8435612b9181613802565b9350602085013592506040850135612ba881613802565b915060608501356001600160401b03811115612bc2578182fd5b612bce878288016128ad565b91505092959194509250565b60008060008060808587031215612bef578182fd5b8435612bfa81613802565b935060208501359250604085013591506060850135612ae581613802565b600080600080600060a08688031215612c2f578283fd5b8535612c3a81613802565b945060208601359350604086013592506060860135612c5881613802565b91506080860135612c6881613817565b809150509295509295909350565b600060208284031215612c87578081fd5b61251c8261289d565b60008060008060808587031215612ca5578182fd5b84356001600160401b03811115612cba578283fd5b612cc6878288016128ad565b945050602085013560ff81168114612cdc578283fd5b93969395505050506040820135916060013590565b600080600060608486031215612d05578081fd5b83516001600160401b03811115612d1a578182fd5b612d26868287016128fe565b93505060208401519150604084015190509250925092565b60008060008060008060008060006101208a8c031215612d5c578687fd5b89516001600160401b0380821115612d72578889fd5b612d7e8d838e016128fe565b9a5060208c0151995060408c01519850612d9a60608d01612802565b9750612da860808d01612802565b965060a08c01519550612dbd60c08d0161289d565b945060e08c0151915080821115612dd2578384fd5b612dde8d838e01612812565b93506101008c0151915080821115612df4578283fd5b50612e018c828d01612950565b9150509295985092959850929598565b6000806000806000806000806000806101408b8d031215612e30578384fd5b8a516001600160401b0380821115612e46578586fd5b612e528e838f016128fe565b9b5060208d01519a5060408d01519950612e6e60608e01612802565b9850612e7c60808e01612802565b975060a08d01519650612e9160c08e0161289d565b955060e08d0151915080821115612ea6578283fd5b612eb28e838f01612812565b94506101008d0151915080821115612ec8578283fd5b50612ed58d828e01612950565b9250506101208b015190509295989b9194979a5092959850565b6000806000806000806000806000806101408b8d031215612f0e578384fd5b8a516001600160401b0380821115612f24578586fd5b612f308e838f016128fe565b9b5060208d01519a5060408d01519950612f4c60608e01612802565b985060808d0151975060a08d0151965060c08d0151955060e08d0151915080821115612f76578485fd5b612f828e838f01612812565b94506101008d0151915080821115612f98578384fd5b50612ed58d828e016129e9565b600060208284031215612fb6578081fd5b5035919050565b600060208284031215612fce578081fd5b5051919050565b6000806000806000806000806000806101408b8d031215612ff4578384fd5b8a51995060208b0151985061300b60408c01612802565b975061301960608c01612802565b60808c015160a08d015191985096506001600160401b038082111561303c578586fd5b6130488e838f016128fe565b965061305660c08e01612941565b955060e08d015191508082111561306b578485fd5b6130778e838f016128fe565b94506101008d015191508082111561308d578384fd5b50612ed58d828e01612812565b600080600080608085870312156130af578182fd5b845193506020850151925060408501516130c881613802565b6060860151909250612ae581613817565b6000815180845260208085019450808401835b838110156131115781516001600160a01b0316875295820195908201906001016130ec565b509495945050505050565b600081518084526131348160208601602086016137aa565b601f01601f19169290920160200192915050565b6006811061316657634e487b7160e01b600052602160045260246000fd5b9052565b6000825161317c8184602087016137aa565b9190910192915050565b600082516131988184602087016137aa565b641dc0de008360d81b920191825250600501919050565b6001600160a01b0391909116815260200190565b6001600160a01b038d811682528c811660208301528b811660408301528a81166060830152608082018a905260a0820189905260c08201889052861660e082015263ffffffff858116610100830152841661012082015260ff8316610140820152600061018061016083015261323d61018083018461311c565b9e9d5050505050505050505050505050565b6001600160a01b038a16815261012060208083018290528a519183018290526000916101408401918c810191845b818110156132995783518552938201939282019260010161327d565b50505050891515604084015282810360608401526132b7818a6130d9565b905087608084015282810360a08401526132d1818861311c565b90506132e060c0840187613148565b82810360e08401526132f2818661311c565b915050826101008301529a9950505050505050505050565b6001600160a01b03929092168252602082015260400190565b60208152600061251c602083018461311c565b608081526000613349608083018761311c565b8560208401528460408401528281036060840152612187818561311c565b60208082526023908201527f506f6c79676f6e436f6e6e6563746f724c6f6769633a20696e76616c696420706040820152620c2e8d60eb1b606082015260800190565b60208082526028908201527f506f6c79676f6e436f6e6e6563746f724c6f6769633a20616c7265616479207760408201526734ba34323930bbb760c11b606082015260800190565b60208082526026908201527f506f6c79676f6e436f6e6e6563746f724c6f6769633a20616c72656164792072604082015265195d1c9a595960d21b606082015260800190565b6020808252602b908201527f496e697469616c697a61626c653a20636f6e7472616374206973206e6f74206960408201526a6e697469616c697a696e6760a81b606082015260800190565b60006101608d83528c602084015260018060a01b03808d166040850152808c1660608501528a60808501528160a08501526134c08285018b61311c565b91506134cf60c085018a613148565b871660e084015261010083018690528281036101208401526134f181866130d9565b915050826101408301529c9b505050505050505050505050565b898152602081018990526001600160a01b038881166040830152871660608201526080810186905261012060a0820181905260009061354c8382018861311c565b905061355b60c0840187613148565b82810360e08401526132f281866130d9565b95865260208601949094526001600160a01b039283166040860152606085019190915260070b60808401521660a082015260c00190565b60006101008a83528960208401528860408401528060608401526135ca8184018961311c565b90506135d96080840188613148565b8560a08401528460c084015282810360e08401526135f781856130d9565b9b9a5050505050505050505050565b60006101408c83528b60208401528a60408401528960608401528860808401528760a08401528660c08401528060e0840152613644818401876130d9565b9050828103610100840152613659818661311c565b9150506135f7610120830184613148565b60006101608d83528c60208401528b60408401528a60608401528960808401528860a08401528760c08401528060e08401526136a8818401886130d9565b90508281036101008401526136bd818761311c565b9150506136ce610120830185613148565b826101408301529c9b505050505050505050505050565b604051601f8201601f191681016001600160401b038111828210171561370d5761370d6137ec565b604052919050565b60006001600160401b0382111561372e5761372e6137ec565b50601f01601f191660200190565b6000821982111561374f5761374f6137d6565b500190565b60008261376f57634e487b7160e01b81526012600452602481fd5b500490565b600081600019048311821515161561378e5761378e6137d6565b500290565b6000828210156137a5576137a56137d6565b500390565b60005b838110156137c55781810151838201526020016137ad565b838111156106dd5750506000910152565b634e487b7160e01b600052601160045260246000fd5b634e487b7160e01b600052604160045260246000fd5b6001600160a01b038116811461143557600080fd5b8060070b811461143557600080fdfef43f17a174cd55d7d75e934475f1cec7890c2bf3fabbf376de3868f0d8ce6897a2646970667358221220fb38f45289f48db4218ae1e444ab52323960a68b3ff955818c635d53c419f9ac64736f6c63430008040033",
  "devdoc": {
    "kind": "dev",
    "methods": {
      "emergencyWithdraw(address,address,uint256)": {
        "details": "Only owner can call this"
      },
      "owner()": {
        "details": "Returns the address of the current owner."
      },
      "paused()": {
        "details": "Returns true if the contract is paused, and false otherwise."
      },
      "renounceOwnership()": {
        "details": "Leaves the contract without owner. It will not be possible to call `onlyOwner` functions. Can only be called by the current owner. NOTE: Renouncing ownership will leave the contract without an owner, thereby disabling any functionality that is only available to the owner."
      },
      "retrySwapAndUnwrap(bytes,uint8,bytes32,bytes32)": {
        "details": "User signs a message for retrying its request",
        "params": {
          "_message": "The signed message",
          "_r": "Signature r",
          "_s": "Signature s",
          "_v": "Signature v"
        }
      },
      "retrySwapAndUnwrapRune(bytes,uint8,bytes32,bytes32)": {
        "details": "User signs a message for retrying its request",
        "params": {
          "_message": "The signed message",
          "_r": "Signature r",
          "_s": "Signature s",
          "_v": "Signature v"
        }
      },
      "transferOwnership(address)": {
        "details": "Transfers ownership of the contract to a new account (`newOwner`). Can only be called by the current owner."
      },
      "withdrawFundsToSourceChain(bytes,uint8,bytes32,bytes32)": {
        "details": "This function is used for both failed BTC and Rune requests",
        "params": {
          "_message": "The signed message",
          "_r": "Signature r",
          "_s": "Signature s",
          "_v": "Signature v"
        }
      },
      "withdrawFundsToSourceChainByOwnerOrAdmin(address,uint256,uint256,address,int64)": {
        "details": "Owner can only set the relayer fee percentage"
      }
    },
    "version": 1
  },
  "userdoc": {
    "kind": "user",
    "methods": {
      "emergencyWithdraw(address,address,uint256)": {
        "notice": "Withdraws tokens in the emergency case"
      },
      "handleV3AcrossMessage(address,uint256,address,bytes)": {
        "notice": "Process requests coming from Ethereum (using Across V3)"
      },
      "retrySwapAndUnwrap(bytes,uint8,bytes32,bytes32)": {
        "notice": "Retry to swap and unwrap tokens"
      },
      "retrySwapAndUnwrapRune(bytes,uint8,bytes32,bytes32)": {
        "notice": "Retry to swap and unwrap tokens"
      },
      "setAcross(address)": {
        "notice": "Setter for AcrossV3"
      },
      "setAcrossAdmin(address)": {
        "notice": "Setter for Across Admin"
      },
      "setBurnRouterProxy(address)": {
        "notice": "Setter for BurnRouterProxy"
      },
      "setGasLimit(uint256)": {
        "notice": "Setter for Gas Limit"
      },
      "setLockersProxy(address)": {
        "notice": "Setter for LockersProxy"
      },
      "setRuneRouterProxy(address)": {
        "notice": "Setter for runeRouterProxy"
      },
      "withdrawFundsToSourceChain(bytes,uint8,bytes32,bytes32)": {
        "notice": "Send back tokens to the source chain"
      },
      "withdrawFundsToSourceChainByOwnerOrAdmin(address,uint256,uint256,address,int64)": {
        "notice": "Send back tokens to the source chain by owner"
      }
    },
    "version": 1
  },
  "storageLayout": {
    "storage": [
      {
        "astId": 11827,
        "contract": "contracts/chain_connectors/PolyConnectorLogic.sol:PolyConnectorLogic",
        "label": "_initialized",
        "offset": 0,
        "slot": "0",
        "type": "t_uint8"
      },
      {
        "astId": 11830,
        "contract": "contracts/chain_connectors/PolyConnectorLogic.sol:PolyConnectorLogic",
        "label": "_initializing",
        "offset": 1,
        "slot": "0",
        "type": "t_bool"
      },
      {
        "astId": 13298,
        "contract": "contracts/chain_connectors/PolyConnectorLogic.sol:PolyConnectorLogic",
        "label": "__gap",
        "offset": 0,
        "slot": "1",
        "type": "t_array(t_uint256)50_storage"
      },
      {
        "astId": 11699,
        "contract": "contracts/chain_connectors/PolyConnectorLogic.sol:PolyConnectorLogic",
        "label": "_owner",
        "offset": 0,
        "slot": "51",
        "type": "t_address"
      },
      {
        "astId": 11819,
        "contract": "contracts/chain_connectors/PolyConnectorLogic.sol:PolyConnectorLogic",
        "label": "__gap",
        "offset": 0,
        "slot": "52",
        "type": "t_array(t_uint256)49_storage"
      },
      {
        "astId": 12132,
        "contract": "contracts/chain_connectors/PolyConnectorLogic.sol:PolyConnectorLogic",
        "label": "_status",
        "offset": 0,
        "slot": "101",
        "type": "t_uint256"
      },
      {
        "astId": 12201,
        "contract": "contracts/chain_connectors/PolyConnectorLogic.sol:PolyConnectorLogic",
        "label": "__gap",
        "offset": 0,
        "slot": "102",
        "type": "t_array(t_uint256)49_storage"
      },
      {
        "astId": 12011,
        "contract": "contracts/chain_connectors/PolyConnectorLogic.sol:PolyConnectorLogic",
        "label": "_paused",
        "offset": 0,
        "slot": "151",
        "type": "t_bool"
      },
      {
        "astId": 12116,
        "contract": "contracts/chain_connectors/PolyConnectorLogic.sol:PolyConnectorLogic",
        "label": "__gap",
        "offset": 0,
        "slot": "152",
        "type": "t_array(t_uint256)49_storage"
      },
      {
        "astId": 25298,
        "contract": "contracts/chain_connectors/PolyConnectorLogic.sol:PolyConnectorLogic",
        "label": "lockersProxy",
        "offset": 0,
        "slot": "201",
        "type": "t_address"
      },
      {
        "astId": 25301,
        "contract": "contracts/chain_connectors/PolyConnectorLogic.sol:PolyConnectorLogic",
        "label": "burnRouterProxy",
        "offset": 0,
        "slot": "202",
        "type": "t_address"
      },
      {
        "astId": 25304,
        "contract": "contracts/chain_connectors/PolyConnectorLogic.sol:PolyConnectorLogic",
        "label": "across",
        "offset": 0,
        "slot": "203",
        "type": "t_address"
      },
      {
        "astId": 25313,
        "contract": "contracts/chain_connectors/PolyConnectorLogic.sol:PolyConnectorLogic",
        "label": "failedReqs",
        "offset": 0,
        "slot": "204",
        "type": "t_mapping(t_address,t_mapping(t_uint256,t_mapping(t_address,t_uint256)))"
      },
      {
        "astId": 25324,
        "contract": "contracts/chain_connectors/PolyConnectorLogic.sol:PolyConnectorLogic",
        "label": "newFailedReqs",
        "offset": 0,
        "slot": "205",
        "type": "t_mapping(t_address,t_mapping(t_uint256,t_mapping(t_uint256,t_mapping(t_address,t_uint256))))"
      },
      {
        "astId": 25327,
        "contract": "contracts/chain_connectors/PolyConnectorLogic.sol:PolyConnectorLogic",
        "label": "runeRouterProxy",
        "offset": 0,
        "slot": "206",
        "type": "t_address"
      },
      {
        "astId": 25329,
        "contract": "contracts/chain_connectors/PolyConnectorLogic.sol:PolyConnectorLogic",
        "label": "acrossAdmin",
        "offset": 0,
        "slot": "207",
        "type": "t_address"
      },
      {
        "astId": 25331,
        "contract": "contracts/chain_connectors/PolyConnectorLogic.sol:PolyConnectorLogic",
        "label": "gasLimit",
        "offset": 0,
        "slot": "208",
        "type": "t_uint256"
      }
    ],
    "types": {
      "t_address": {
        "encoding": "inplace",
        "label": "address",
        "numberOfBytes": "20"
      },
      "t_array(t_uint256)49_storage": {
        "base": "t_uint256",
        "encoding": "inplace",
        "label": "uint256[49]",
        "numberOfBytes": "1568"
      },
      "t_array(t_uint256)50_storage": {
        "base": "t_uint256",
        "encoding": "inplace",
        "label": "uint256[50]",
        "numberOfBytes": "1600"
      },
      "t_bool": {
        "encoding": "inplace",
        "label": "bool",
        "numberOfBytes": "1"
      },
      "t_mapping(t_address,t_mapping(t_uint256,t_mapping(t_address,t_uint256)))": {
        "encoding": "mapping",
        "key": "t_address",
        "label": "mapping(address => mapping(uint256 => mapping(address => uint256)))",
        "numberOfBytes": "32",
        "value": "t_mapping(t_uint256,t_mapping(t_address,t_uint256))"
      },
      "t_mapping(t_address,t_mapping(t_uint256,t_mapping(t_uint256,t_mapping(t_address,t_uint256))))": {
        "encoding": "mapping",
        "key": "t_address",
        "label": "mapping(address => mapping(uint256 => mapping(uint256 => mapping(address => uint256))))",
        "numberOfBytes": "32",
        "value": "t_mapping(t_uint256,t_mapping(t_uint256,t_mapping(t_address,t_uint256)))"
      },
      "t_mapping(t_address,t_uint256)": {
        "encoding": "mapping",
        "key": "t_address",
        "label": "mapping(address => uint256)",
        "numberOfBytes": "32",
        "value": "t_uint256"
      },
      "t_mapping(t_uint256,t_mapping(t_address,t_uint256))": {
        "encoding": "mapping",
        "key": "t_uint256",
        "label": "mapping(uint256 => mapping(address => uint256))",
        "numberOfBytes": "32",
        "value": "t_mapping(t_address,t_uint256)"
      },
      "t_mapping(t_uint256,t_mapping(t_uint256,t_mapping(t_address,t_uint256)))": {
        "encoding": "mapping",
        "key": "t_uint256",
        "label": "mapping(uint256 => mapping(uint256 => mapping(address => uint256)))",
        "numberOfBytes": "32",
        "value": "t_mapping(t_uint256,t_mapping(t_address,t_uint256))"
      },
      "t_uint256": {
        "encoding": "inplace",
        "label": "uint256",
        "numberOfBytes": "32"
      },
      "t_uint8": {
        "encoding": "inplace",
        "label": "uint8",
        "numberOfBytes": "1"
      }
    }
  }
}