{
  "address": "0xEDD024C9F7dEAaf45E9AD7fDBAb4DD2B164A241a",
  "abi": [
    {
      "inputs": [],
      "stateMutability": "nonpayable",
      "type": "constructor"
    },
    {
      "anonymous": false,
      "inputs": [
        {
          "indexed": false,
          "internalType": "uint8",
          "name": "version",
          "type": "uint8"
        }
      ],
      "name": "Initialized",
      "type": "event"
    },
    {
      "anonymous": false,
      "inputs": [
        {
          "indexed": true,
          "internalType": "uint256",
          "name": "lockerScriptHash",
          "type": "uint256"
        },
        {
          "indexed": false,
          "internalType": "bytes",
          "name": "lockerScript",
          "type": "bytes"
        }
      ],
      "name": "LockerHashRegistered",
      "type": "event"
    },
    {
      "anonymous": false,
      "inputs": [
        {
          "indexed": true,
          "internalType": "uint256",
          "name": "lockerScriptHash",
          "type": "uint256"
        }
      ],
      "name": "LockerHashRemoved",
      "type": "event"
    },
    {
      "anonymous": false,
      "inputs": [
        {
          "indexed": true,
          "internalType": "address",
          "name": "lockersManager",
          "type": "address"
        }
      ],
      "name": "LockersManagerSet",
      "type": "event"
    },
    {
      "anonymous": false,
      "inputs": [
        {
          "indexed": true,
          "internalType": "address",
          "name": "previousOwner",
          "type": "address"
        },
        {
          "indexed": true,
          "internalType": "address",
          "name": "newOwner",
          "type": "address"
        }
      ],
      "name": "OwnershipTransferred",
      "type": "event"
    },
    {
      "anonymous": false,
      "inputs": [
        {
          "indexed": true,
          "internalType": "uint256",
          "name": "nullifier",
          "type": "uint256"
        },
        {
          "indexed": true,
          "internalType": "address",
          "name": "recipient",
          "type": "address"
        },
        {
          "indexed": false,
          "internalType": "uint256",
          "name": "amount",
          "type": "uint256"
        },
        {
          "indexed": false,
          "internalType": "uint256",
          "name": "merkleRoot",
          "type": "uint256"
        }
      ],
      "name": "PrivateClaim",
      "type": "event"
    },
    {
      "anonymous": false,
      "inputs": [
        {
          "indexed": true,
          "internalType": "address",
          "name": "verifier",
          "type": "address"
        }
      ],
      "name": "ZkVerifierSet",
      "type": "event"
    },
    {
      "inputs": [],
      "name": "NUM_MERKLE_ROOTS",
      "outputs": [
        {
          "internalType": "uint256",
          "name": "",
          "type": "uint256"
        }
      ],
      "stateMutability": "view",
      "type": "function"
    },
    {
      "inputs": [],
      "name": "claimChainId",
      "outputs": [
        {
          "internalType": "uint256",
          "name": "",
          "type": "uint256"
        }
      ],
      "stateMutability": "view",
      "type": "function"
    },
    {
      "inputs": [
        {
          "internalType": "uint256[2]",
          "name": "_pA",
          "type": "uint256[2]"
        },
        {
          "internalType": "uint256[2][2]",
          "name": "_pB",
          "type": "uint256[2][2]"
        },
        {
          "internalType": "uint256[2]",
          "name": "_pC",
          "type": "uint256[2]"
        },
        {
          "internalType": "uint256[2]",
          "name": "_merkleRoots",
          "type": "uint256[2]"
        },
        {
          "internalType": "uint256",
          "name": "_nullifier",
          "type": "uint256"
        },
        {
          "internalType": "uint256",
          "name": "_amount",
          "type": "uint256"
        },
        {
          "internalType": "address",
          "name": "_recipient",
          "type": "address"
        },
        {
          "internalType": "uint256",
          "name": "_lockerScriptHash",
          "type": "uint256"
        }
      ],
      "name": "claimPrivate",
      "outputs": [
        {
          "internalType": "bool",
          "name": "success",
          "type": "bool"
        }
      ],
      "stateMutability": "nonpayable",
      "type": "function"
    },
    {
      "inputs": [
        {
          "internalType": "uint256[2]",
          "name": "_pA",
          "type": "uint256[2]"
        },
        {
          "internalType": "uint256[2][2]",
          "name": "_pB",
          "type": "uint256[2][2]"
        },
        {
          "internalType": "uint256[2]",
          "name": "_pC",
          "type": "uint256[2]"
        },
        {
          "internalType": "bytes32[2]",
          "name": "_bitcoinMerkleRoots",
          "type": "bytes32[2]"
        },
        {
          "internalType": "uint256",
          "name": "_nullifier",
          "type": "uint256"
        },
        {
          "internalType": "uint256",
          "name": "_amount",
          "type": "uint256"
        },
        {
          "internalType": "address",
          "name": "_recipient",
          "type": "address"
        },
        {
          "internalType": "uint256",
          "name": "_lockerScriptHash",
          "type": "uint256"
        }
      ],
      "name": "claimPrivateWithBitcoinRoots",
      "outputs": [
        {
          "internalType": "bool",
          "name": "success",
          "type": "bool"
        }
      ],
      "stateMutability": "nonpayable",
      "type": "function"
    },
    {
      "inputs": [
        {
          "internalType": "bytes32",
          "name": "_bitcoinMerkleRoot",
          "type": "bytes32"
        }
      ],
      "name": "convertBitcoinMerkleRoot",
      "outputs": [
        {
          "internalType": "uint256",
          "name": "circuitRoot",
          "type": "uint256"
        },
        {
          "internalType": "bytes32",
          "name": "internalFormat",
          "type": "bytes32"
        }
      ],
      "stateMutability": "pure",
      "type": "function"
    },
    {
      "inputs": [
        {
          "internalType": "uint256",
          "name": "_hash",
          "type": "uint256"
        }
      ],
      "name": "getLockerScript",
      "outputs": [
        {
          "internalType": "bytes",
          "name": "",
          "type": "bytes"
        }
      ],
      "stateMutability": "view",
      "type": "function"
    },
    {
      "inputs": [
        {
          "internalType": "address",
          "name": "_zkVerifier",
          "type": "address"
        },
        {
          "internalType": "address",
          "name": "_lockersManager",
          "type": "address"
        },
        {
          "internalType": "uint256",
          "name": "_chainId",
          "type": "uint256"
        }
      ],
      "name": "initialize",
      "outputs": [],
      "stateMutability": "nonpayable",
      "type": "function"
    },
    {
      "inputs": [
        {
          "internalType": "uint256",
          "name": "_nullifier",
          "type": "uint256"
        }
      ],
      "name": "isNullifierUsed",
      "outputs": [
        {
          "internalType": "bool",
          "name": "",
          "type": "bool"
        }
      ],
      "stateMutability": "view",
      "type": "function"
    },
    {
      "inputs": [
        {
          "internalType": "uint256",
          "name": "",
          "type": "uint256"
        }
      ],
      "name": "isValidLockerHash",
      "outputs": [
        {
          "internalType": "bool",
          "name": "",
          "type": "bool"
        }
      ],
      "stateMutability": "view",
      "type": "function"
    },
    {
      "inputs": [
        {
          "internalType": "uint256",
          "name": "",
          "type": "uint256"
        }
      ],
      "name": "lockerScriptFromHash",
      "outputs": [
        {
          "internalType": "bytes",
          "name": "",
          "type": "bytes"
        }
      ],
      "stateMutability": "view",
      "type": "function"
    },
    {
      "inputs": [],
      "name": "lockersManager",
      "outputs": [
        {
          "internalType": "address",
          "name": "",
          "type": "address"
        }
      ],
      "stateMutability": "view",
      "type": "function"
    },
    {
      "inputs": [
        {
          "internalType": "uint256",
          "name": "",
          "type": "uint256"
        }
      ],
      "name": "nullifierUsed",
      "outputs": [
        {
          "internalType": "bool",
          "name": "",
          "type": "bool"
        }
      ],
      "stateMutability": "view",
      "type": "function"
    },
    {
      "inputs": [],
      "name": "owner",
      "outputs": [
        {
          "internalType": "address",
          "name": "",
          "type": "address"
        }
      ],
      "stateMutability": "view",
      "type": "function"
    },
    {
      "inputs": [
        {
          "internalType": "uint256",
          "name": "_hash",
          "type": "uint256"
        },
        {
          "internalType": "bytes",
          "name": "_script",
          "type": "bytes"
        }
      ],
      "name": "registerLockerHash",
      "outputs": [],
      "stateMutability": "nonpayable",
      "type": "function"
    },
    {
      "inputs": [
        {
          "internalType": "uint256",
          "name": "_hash",
          "type": "uint256"
        }
      ],
      "name": "removeLockerHash",
      "outputs": [],
      "stateMutability": "nonpayable",
      "type": "function"
    },
    {
      "inputs": [],
      "name": "renounceOwnership",
      "outputs": [],
      "stateMutability": "nonpayable",
      "type": "function"
    },
    {
      "inputs": [
        {
          "internalType": "uint256",
          "name": "_chainId",
          "type": "uint256"
        }
      ],
      "name": "setChainId",
      "outputs": [],
      "stateMutability": "nonpayable",
      "type": "function"
    },
    {
      "inputs": [
        {
          "internalType": "address",
          "name": "_lockersManager",
          "type": "address"
        }
      ],
      "name": "setLockersManager",
      "outputs": [],
      "stateMutability": "nonpayable",
      "type": "function"
    },
    {
      "inputs": [
        {
          "internalType": "address",
          "name": "_verifier",
          "type": "address"
        }
      ],
      "name": "setZkVerifier",
      "outputs": [],
      "stateMutability": "nonpayable",
      "type": "function"
    },
    {
      "inputs": [],
      "name": "totalAmountClaimed",
      "outputs": [
        {
          "internalType": "uint256",
          "name": "",
          "type": "uint256"
        }
      ],
      "stateMutability": "view",
      "type": "function"
    },
    {
      "inputs": [],
      "name": "totalClaims",
      "outputs": [
        {
          "internalType": "uint256",
          "name": "",
          "type": "uint256"
        }
      ],
      "stateMutability": "view",
      "type": "function"
    },
    {
      "inputs": [
        {
          "internalType": "address",
          "name": "newOwner",
          "type": "address"
        }
      ],
      "name": "transferOwnership",
      "outputs": [],
      "stateMutability": "nonpayable",
      "type": "function"
    },
    {
      "inputs": [],
      "name": "zkVerifier",
      "outputs": [
        {
          "internalType": "address",
          "name": "",
          "type": "address"
        }
      ],
      "stateMutability": "view",
      "type": "function"
    }
  ],
  "numDeployments": 1,
  "solcInputHash": "58969d226c7bcd7c81387f7967c4b963",
  "bytecode": "0x608060405234801561001057600080fd5b5061001961001e565b6100dd565b600054610100900460ff161561008a5760405162461bcd60e51b815260206004820152602760248201527f496e697469616c697a61626c653a20636f6e747261637420697320696e697469604482015266616c697a696e6760c81b606482015260840160405180910390fd5b60005460ff908116146100db576000805460ff191660ff9081179091556040519081527f7f26b83ff96e1f2b6a682f133852f6798a09c465da95921460cefb38474024989060200160405180910390a15b565b6116df806100ec6000396000f3fe608060405234801561001057600080fd5b506004361061014d5760003560e01c8063bd36939e116100c3578063d6df096d1161007c578063d6df096d146102f5578063db9df79714610308578063ef0e2ff41461031b578063f2fde38b1461032e578063f35cc1d814610341578063f7d577291461034957600080fd5b8063bd36939e1461025b578063bfa5e13c14610283578063c2f50f881461028c578063c6c0572d146102ac578063c71bce2f146102cf578063d355a8d4146102e257600080fd5b80638b759600116101155780638b759600146101e15780638da5cb5b146101ea57806395d49fd51461020f5780639691352814610222578063b246cd0814610235578063b875dc7e1461024857600080fd5b80631794bb3c1461015257806341c61383146101675780636e474c6014610183578063715018a6146101b657806379f95ee9146101be575b600080fd5b6101656101603660046112dc565b61035c565b005b610170609d5481565b6040519081526020015b60405180910390f35b6101a6610191366004611318565b609b6020526000908152604090205460ff1681565b604051901515815260200161017a565b610165610541565b6101a66101cc366004611318565b609a6020526000908152604090205460ff1681565b61017060995481565b6033546001600160a01b03165b6040516001600160a01b03909116815260200161017a565b61016561021d366004611331565b610555565b6101656102303660046113ad565b61066b565b6101656102433660046113ad565b610708565b610165610256366004611318565b6107a4565b61026e610269366004611318565b610857565b6040805192835260208301919091520161017a565b610170609e5481565b61029f61029a366004611318565b61089a565b60405161017a91906113cf565b6101a66102ba366004611318565b6000908152609a602052604090205460ff1690565b6101a66102dd36600461144c565b61093c565b6101a66102f036600461144c565b6109ff565b6097546101f7906001600160a01b031681565b6098546101f7906001600160a01b031681565b610165610329366004611318565b610a5f565b61016561033c3660046113ad565b610ab0565b610170600281565b61029f610357366004611318565b610b29565b600054610100900460ff161580801561037c5750600054600160ff909116105b806103965750303b158015610396575060005460ff166001145b6103fe5760405162461bcd60e51b815260206004820152602e60248201527f496e697469616c697a61626c653a20636f6e747261637420697320616c72656160448201526d191e481a5b9a5d1a585b1a5e995960921b60648201526084015b60405180910390fd5b6000805460ff191660011790558015610421576000805461ff0019166101001790555b610429610bc3565b610431610bf2565b6001600160a01b03841661047c5760405162461bcd60e51b8152602060048201526012602482015271282a219d103d32b937903b32b934b334b2b960711b60448201526064016103f5565b600082116104c05760405162461bcd60e51b8152602060048201526011602482015270141510ce881e995c9bc818da185a5b9259607a1b60448201526064016103f5565b609780546001600160a01b038087166001600160a01b03199283161790925560988054928616929091169190911790556099829055801561053b576000805461ff0019169055604051600181527f7f26b83ff96e1f2b6a682f133852f6798a09c465da95921460cefb38474024989060200160405180910390a15b50505050565b610549610c21565b6105536000610c7b565b565b61055d610c21565b8061059e5760405162461bcd60e51b8152602060048201526011602482015270141510ce88195b5c1d1e481cd8dc9a5c1d607a1b60448201526064016103f5565b6000838152609b602052604090205460ff16156105fd5760405162461bcd60e51b815260206004820152601760248201527f5054433a20616c7265616479207265676973746572656400000000000000000060448201526064016103f5565b6000838152609b60209081526040808320805460ff19166001179055609c909152902061062b9083836111cf565b50827f7ef819afc7ec25eb2f66e09a12ca666238d0c29d7b952953fc161434909ec263838360405161065e9291906114d7565b60405180910390a2505050565b610673610c21565b6001600160a01b0381166106be5760405162461bcd60e51b8152602060048201526012602482015271282a219d103d32b937903b32b934b334b2b960711b60448201526064016103f5565b609780546001600160a01b0319166001600160a01b0383169081179091556040517f98a4abe5108edc46cc37a43af42104e836c8ac316ab2c0edb794e919f7f5cea390600090a250565b610710610c21565b6001600160a01b03811661075a5760405162461bcd60e51b81526020600482015260116024820152705054433a207a65726f206c6f636b65727360781b60448201526064016103f5565b609880546001600160a01b0319166001600160a01b0383169081179091556040517f9d1a23c5c168bef2bda93b36e4902142baf4e86308d579d254c0ef586ac9cadc90600090a250565b6107ac610c21565b6000818152609b602052604090205460ff166108005760405162461bcd60e51b8152602060048201526013602482015272141510ce881b9bdd081c9959da5cdd195c9959606a1b60448201526064016103f5565b6000818152609b60209081526040808320805460ff19169055609c909152812061082991611253565b60405181907fc43e3941c148080ff291992d41f4e0b2425497d0f8ad519bfa79b4dcdadef49790600090a250565b60008061086383610ccd565b90506108937f30644e72e131a029b85045b68181585d2833e84879b9709143e1f593f0000001600283901c611506565b9150915091565b6000818152609c602052604090208054606091906108b790611528565b80601f01602080910402602001604051908101604052809291908181526020018280546108e390611528565b80156109305780601f1061090557610100808354040283529160200191610930565b820191906000526020600020905b81548152906001019060200180831161091357829003601f168201915b50505050509050919050565b6000610946610e0b565b61094e61128d565b60005b60028110156109d557600061097b89836002811061097157610971611563565b6020020135610ccd565b90506109ab7f30644e72e131a029b85045b68181585d2833e84879b9709143e1f593f0000001600283901c611506565b8383600281106109bd576109bd611563565b602002015250806109cd8161158f565b915050610951565b506109e68a8a8a848a8a8a8a610e65565b9150506109f36001606555565b98975050505050505050565b6000610a09610e0b565b6000604051806040016040528088600060028110610a2957610a29611563565b6020020135815260200188600160028110610a4657610a46611563565b6020020135905290506109e68a8a8a848a8a8a8a610e65565b610a67610c21565b60008111610aab5760405162461bcd60e51b8152602060048201526011602482015270141510ce881e995c9bc818da185a5b9259607a1b60448201526064016103f5565b609955565b610ab8610c21565b6001600160a01b038116610b1d5760405162461bcd60e51b815260206004820152602660248201527f4f776e61626c653a206e6577206f776e657220697320746865207a65726f206160448201526564647265737360d01b60648201526084016103f5565b610b2681610c7b565b50565b609c6020526000908152604090208054610b4290611528565b80601f0160208091040260200160405190810160405280929190818152602001828054610b6e90611528565b8015610bbb5780601f10610b9057610100808354040283529160200191610bbb565b820191906000526020600020905b815481529060010190602001808311610b9e57829003601f168201915b505050505081565b600054610100900460ff16610bea5760405162461bcd60e51b81526004016103f5906115aa565b610553611178565b600054610100900460ff16610c195760405162461bcd60e51b81526004016103f5906115aa565b6105536111a8565b6033546001600160a01b031633146105535760405162461bcd60e51b815260206004820181905260248201527f4f776e61626c653a2063616c6c6572206973206e6f7420746865206f776e657260448201526064016103f5565b603380546001600160a01b038381166001600160a01b0319831681179093556040519116919082907f8be0079c531659141344cd1fd0a4f28419497f9722a3daafe3b4186f6b6457e090600090a35050565b7bffffffff000000000000000000000000ffffffff00000000000000007eff000000ff000000ff000000ff000000ff000000ff000000ff000000ff0000600883811c9182167fff000000ff000000ff000000ff000000ff000000ff000000ff000000ff0000009490911b93841617601090811c7cff000000ff000000ff000000ff000000ff000000ff000000ff000000ff9092167dff000000ff000000ff000000ff000000ff000000ff000000ff000000ff009094169390931790921b91909117602081811c9283167fffffffff000000000000000000000000ffffffff0000000000000000000000009290911b91821617604090811c73ffffffff000000000000000000000000ffffffff90931677ffffffff000000000000000000000000ffffffff0000000090921691909117901b17608081811c91901b1790565b60026065541415610e5e5760405162461bcd60e51b815260206004820152601f60248201527f5265656e7472616e637947756172643a207265656e7472616e742063616c6c0060448201526064016103f5565b6002606555565b60006001600160a01b038316610eb35760405162461bcd60e51b8152602060048201526013602482015272141510ce881e995c9bc81c9958da5c1a595b9d606a1b60448201526064016103f5565b60008411610ef65760405162461bcd60e51b815260206004820152601060248201526f141510ce881e995c9bc8185b5bdd5b9d60821b60448201526064016103f5565b6000858152609a602052604090205460ff1615610f4c5760405162461bcd60e51b8152602060048201526014602482015273141510ce88185b1c9958591e4818db185a5b595960621b60448201526064016103f5565b6000828152609b602052604090205460ff16610fa05760405162461bcd60e51b8152602060048201526013602482015272282a219d1034b73b30b634b2103637b1b5b2b960691b60448201526064016103f5565b60006040518060e0016040528088600060028110610fc057610fc0611563565b6020020151815260200188600160028110610fdd57610fdd611563565b6020908102919091015182528101889052604080820188905260995460608301526001600160a01b03808816608084015260a0909201869052609754905163c894e75760e01b8152929350169063c894e75790611044908d908d908d9087906004016115f5565b60206040518083038186803b15801561105c57600080fd5b505afa158015611070573d6000803e3d6000fd5b505050506040513d601f19601f82011682018060405250810190611094919061166f565b6110d55760405162461bcd60e51b8152602060048201526012602482015271282a219d1034b73b30b634b210383937b7b360711b60448201526064016103f5565b6000868152609a60205260408120805460ff19166001179055609d8054916110fc8361158f565b919050555084609e60008282546111139190611691565b909155505086516040805187815260208101929092526001600160a01b0386169188917fed1e1925a84e62e409bbdbfa1e3464a322c557f3f2951a55789551c00bc87fb6910160405180910390a35060019998505050505050505050565b6001606555565b600054610100900460ff1661119f5760405162461bcd60e51b81526004016103f5906115aa565b61055333610c7b565b600054610100900460ff166111715760405162461bcd60e51b81526004016103f5906115aa565b8280546111db90611528565b90600052602060002090601f0160209004810192826111fd5760008555611243565b82601f106112165782800160ff19823516178555611243565b82800160010185558215611243579182015b82811115611243578235825591602001919060010190611228565b5061124f9291506112ab565b5090565b50805461125f90611528565b6000825580601f1061126f575050565b601f016020900490600052602060002090810190610b2691906112ab565b60405180604001604052806002906020820280368337509192915050565b5b8082111561124f57600081556001016112ac565b80356001600160a01b03811681146112d757600080fd5b919050565b6000806000606084860312156112f157600080fd5b6112fa846112c0565b9250611308602085016112c0565b9150604084013590509250925092565b60006020828403121561132a57600080fd5b5035919050565b60008060006040848603121561134657600080fd5b83359250602084013567ffffffffffffffff8082111561136557600080fd5b818601915086601f83011261137957600080fd5b81358181111561138857600080fd5b87602082850101111561139a57600080fd5b6020830194508093505050509250925092565b6000602082840312156113bf57600080fd5b6113c8826112c0565b9392505050565b600060208083528351808285015260005b818110156113fc578581018301518582016040015282016113e0565b8181111561140e576000604083870101525b50601f01601f1916929092016040019392505050565b806040810183101561143557600080fd5b92915050565b806080810183101561143557600080fd5b6000806000806000806000806101c0898b03121561146957600080fd5b6114738a8a611424565b97506114828a60408b0161143b565b96506114918a60c08b01611424565b95506114a18a6101008b01611424565b9450610140890135935061016089013592506114c06101808a016112c0565b91506101a089013590509295985092959890939650565b60208152816020820152818360408301376000818301604090810191909152601f909201601f19160101919050565b60008261152357634e487b7160e01b600052601260045260246000fd5b500690565b600181811c9082168061153c57607f821691505b6020821081141561155d57634e487b7160e01b600052602260045260246000fd5b50919050565b634e487b7160e01b600052603260045260246000fd5b634e487b7160e01b600052601160045260246000fd5b60006000198214156115a3576115a3611579565b5060010190565b6020808252602b908201527f496e697469616c697a61626c653a20636f6e7472616374206973206e6f74206960408201526a6e697469616c697a696e6760a81b606082015260800190565b6101e081016040808784376000838201818152879190815b600281101561162d5784848337908401828152928401929060010161160d565b5050828760c0870137610100850181815286935091505b6007811015611663578251825260209283019290910190600101611644565b50505095945050505050565b60006020828403121561168157600080fd5b815180151581146113c857600080fd5b600082198211156116a4576116a4611579565b50019056fea2646970667358221220e570e712d055b1ae2ea36a44286672b528cb10075c93c3a17c9f420553a135e164736f6c63430008090033",
  "devdoc": {
    "details": "Integrates with TeleSwap's LockersManager for minting Flow: 1. User sends BTC to locker with commitment in OP_RETURN    - Commitment includes recipient address (prevents front-running) 2. User generates ZK proof of the transaction 3. User calls claimPrivate() with the proof 4. Contract verifies proof and mints TeleBTC Privacy guarantees: - Transaction details remain private (only hash is verified) - Secret is never revealed (only nullifier is public) - Hidden root selection: user proves TX is in one of N merkle roots without revealing which Security guarantees: - Front-running protection: recipient is bound in commitment at deposit time",
    "kind": "dev",
    "methods": {
      "claimPrivate(uint256[2],uint256[2][2],uint256[2],uint256[2],uint256,uint256,address,uint256)": {
        "details": "The proof demonstrates knowledge of a Bitcoin transaction      without revealing transaction details",
        "params": {
          "_amount": "Amount in satoshis",
          "_lockerScriptHash": "Hash of locker's Bitcoin script",
          "_merkleRoots": "Array of merkle roots (user proves TX is in ONE, hidden which)",
          "_nullifier": "Nullifier derived from secret (prevents double-claim)",
          "_pA": "Groth16 proof point A",
          "_pB": "Groth16 proof point B",
          "_pC": "Groth16 proof point C",
          "_recipient": "Address to receive TeleBTC (must match commitment for front-running protection)"
        },
        "returns": {
          "success": "True if claim succeeded"
        }
      },
      "claimPrivateWithBitcoinRoots(uint256[2],uint256[2][2],uint256[2],bytes32[2],uint256,uint256,address,uint256)": {
        "details": "Convenience wrapper that accepts merkle roots in Bitcoin display format      (reversed byte order, as shown in block explorers) and converts them      to the circuit-compatible format. Bitcoin Display Format vs Internal Format: - Display (block explorer): 4a5e1e4baab89f3a32518a88c31bc87f618f76673e2cc77ab2127b7afdeda33b - Internal (hash output):   3ba3edfd7a7b12b27ac72c3e67768f617fc81bc3888a51323a9fb8aa4b1e5e4a",
        "params": {
          "_amount": "Amount in satoshis",
          "_bitcoinMerkleRoots": "Merkle roots in Bitcoin display format (reversed bytes)",
          "_lockerScriptHash": "Hash of locker's Bitcoin script",
          "_nullifier": "Nullifier derived from secret (prevents double-claim)",
          "_pA": "Groth16 proof point A",
          "_pB": "Groth16 proof point B",
          "_pC": "Groth16 proof point C",
          "_recipient": "Address to receive TeleBTC"
        },
        "returns": {
          "success": "True if claim succeeded"
        }
      },
      "constructor": {
        "custom:oz-upgrades-unsafe-allow": "constructor"
      },
      "convertBitcoinMerkleRoot(bytes32)": {
        "details": "Useful for dApps to preview the conversion before calling claim Example:   Input (Bitcoin display): 0x4a5e1e4baab89f3a32518a88c31bc87f618f76673e2cc77ab2127b7afdeda33b   Output (circuit format): truncated & reversed for ZK circuit",
        "params": {
          "_bitcoinMerkleRoot": "Merkle root in Bitcoin display format"
        },
        "returns": {
          "circuitRoot": "The converted root for circuit public input",
          "internalFormat": "The full 256-bit internal format (before truncation)"
        }
      },
      "getLockerScript(uint256)": {
        "params": {
          "_hash": "The locker script hash"
        },
        "returns": {
          "_0": "The locker script bytes"
        }
      },
      "initialize(address,address,uint256)": {
        "params": {
          "_chainId": "Chain ID for this deployment",
          "_lockersManager": "Address of the LockersManager contract (optional until minting enabled)",
          "_zkVerifier": "Address of the Groth16 verifier contract"
        }
      },
      "isNullifierUsed(uint256)": {
        "params": {
          "_nullifier": "The nullifier to check"
        },
        "returns": {
          "_0": "True if already claimed"
        }
      },
      "owner()": {
        "details": "Returns the address of the current owner."
      },
      "registerLockerHash(uint256,bytes)": {
        "details": "Only owner can register lockers",
        "params": {
          "_hash": "The hash of the locker script (as computed in circuit)",
          "_script": "The actual locker script bytes"
        }
      },
      "removeLockerHash(uint256)": {
        "params": {
          "_hash": "The hash to remove"
        }
      },
      "renounceOwnership()": {
        "details": "Leaves the contract without owner. It will not be possible to call `onlyOwner` functions. Can only be called by the current owner. NOTE: Renouncing ownership will leave the contract without an owner, thereby disabling any functionality that is only available to the owner."
      },
      "setChainId(uint256)": {
        "params": {
          "_chainId": "New chain ID"
        }
      },
      "setLockersManager(address)": {
        "params": {
          "_lockersManager": "New LockersManager address"
        }
      },
      "setZkVerifier(address)": {
        "params": {
          "_verifier": "New verifier address"
        }
      },
      "transferOwnership(address)": {
        "details": "Transfers ownership of the contract to a new account (`newOwner`). Can only be called by the current owner."
      }
    },
    "title": "PrivateTransferClaim",
    "version": 1
  },
  "userdoc": {
    "kind": "user",
    "methods": {
      "NUM_MERKLE_ROOTS()": {
        "notice": "Number of merkle roots for hidden selection (privacy enhancement)"
      },
      "claimChainId()": {
        "notice": "Chain ID (for cross-chain replay protection)"
      },
      "claimPrivate(uint256[2],uint256[2][2],uint256[2],uint256[2],uint256,uint256,address,uint256)": {
        "notice": "Claim TeleBTC privately with a ZK proof"
      },
      "claimPrivateWithBitcoinRoots(uint256[2],uint256[2][2],uint256[2],bytes32[2],uint256,uint256,address,uint256)": {
        "notice": "Claim TeleBTC privately using Bitcoin-format merkle roots"
      },
      "convertBitcoinMerkleRoot(bytes32)": {
        "notice": "Convert Bitcoin display-format merkle root to circuit format"
      },
      "getLockerScript(uint256)": {
        "notice": "Get locker script from its hash"
      },
      "initialize(address,address,uint256)": {
        "notice": "Initialize the contract"
      },
      "isNullifierUsed(uint256)": {
        "notice": "Check if a nullifier has been used"
      },
      "isValidLockerHash(uint256)": {
        "notice": "Valid locker script hashes"
      },
      "lockerScriptFromHash(uint256)": {
        "notice": "Locker script hash to actual script (for minting)"
      },
      "lockersManager()": {
        "notice": "LockersManager contract for minting"
      },
      "nullifierUsed(uint256)": {
        "notice": "Nullifier tracking - prevents double-claiming"
      },
      "registerLockerHash(uint256,bytes)": {
        "notice": "Register a locker's script hash"
      },
      "removeLockerHash(uint256)": {
        "notice": "Remove a locker's script hash"
      },
      "setChainId(uint256)": {
        "notice": "Update the chain ID"
      },
      "setLockersManager(address)": {
        "notice": "Update the LockersManager contract"
      },
      "setZkVerifier(address)": {
        "notice": "Update the ZK verifier contract"
      },
      "totalAmountClaimed()": {
        "notice": "Total amount claimed (in satoshis)"
      },
      "totalClaims()": {
        "notice": "Total claims processed"
      },
      "zkVerifier()": {
        "notice": "ZK verifier contract (Groth16)"
      }
    },
    "notice": "Allows users to claim TeleBTC privately using ZK proofs",
    "version": 1
  },
  "storageLayout": {
    "storage": [
      {
        "astId": 139,
        "contract": "contracts/zk/PrivateTransferClaim.sol:PrivateTransferClaim",
        "label": "_initialized",
        "offset": 0,
        "slot": "0",
        "type": "t_uint8"
      },
      {
        "astId": 142,
        "contract": "contracts/zk/PrivateTransferClaim.sol:PrivateTransferClaim",
        "label": "_initializing",
        "offset": 1,
        "slot": "0",
        "type": "t_bool"
      },
      {
        "astId": 766,
        "contract": "contracts/zk/PrivateTransferClaim.sol:PrivateTransferClaim",
        "label": "__gap",
        "offset": 0,
        "slot": "1",
        "type": "t_array(t_uint256)50_storage"
      },
      {
        "astId": 11,
        "contract": "contracts/zk/PrivateTransferClaim.sol:PrivateTransferClaim",
        "label": "_owner",
        "offset": 0,
        "slot": "51",
        "type": "t_address"
      },
      {
        "astId": 131,
        "contract": "contracts/zk/PrivateTransferClaim.sol:PrivateTransferClaim",
        "label": "__gap",
        "offset": 0,
        "slot": "52",
        "type": "t_array(t_uint256)49_storage"
      },
      {
        "astId": 316,
        "contract": "contracts/zk/PrivateTransferClaim.sol:PrivateTransferClaim",
        "label": "_status",
        "offset": 0,
        "slot": "101",
        "type": "t_uint256"
      },
      {
        "astId": 385,
        "contract": "contracts/zk/PrivateTransferClaim.sol:PrivateTransferClaim",
        "label": "__gap",
        "offset": 0,
        "slot": "102",
        "type": "t_array(t_uint256)49_storage"
      },
      {
        "astId": 856,
        "contract": "contracts/zk/PrivateTransferClaim.sol:PrivateTransferClaim",
        "label": "zkVerifier",
        "offset": 0,
        "slot": "151",
        "type": "t_address"
      },
      {
        "astId": 859,
        "contract": "contracts/zk/PrivateTransferClaim.sol:PrivateTransferClaim",
        "label": "lockersManager",
        "offset": 0,
        "slot": "152",
        "type": "t_address"
      },
      {
        "astId": 862,
        "contract": "contracts/zk/PrivateTransferClaim.sol:PrivateTransferClaim",
        "label": "claimChainId",
        "offset": 0,
        "slot": "153",
        "type": "t_uint256"
      },
      {
        "astId": 867,
        "contract": "contracts/zk/PrivateTransferClaim.sol:PrivateTransferClaim",
        "label": "nullifierUsed",
        "offset": 0,
        "slot": "154",
        "type": "t_mapping(t_uint256,t_bool)"
      },
      {
        "astId": 872,
        "contract": "contracts/zk/PrivateTransferClaim.sol:PrivateTransferClaim",
        "label": "isValidLockerHash",
        "offset": 0,
        "slot": "155",
        "type": "t_mapping(t_uint256,t_bool)"
      },
      {
        "astId": 877,
        "contract": "contracts/zk/PrivateTransferClaim.sol:PrivateTransferClaim",
        "label": "lockerScriptFromHash",
        "offset": 0,
        "slot": "156",
        "type": "t_mapping(t_uint256,t_bytes_storage)"
      },
      {
        "astId": 880,
        "contract": "contracts/zk/PrivateTransferClaim.sol:PrivateTransferClaim",
        "label": "totalClaims",
        "offset": 0,
        "slot": "157",
        "type": "t_uint256"
      },
      {
        "astId": 883,
        "contract": "contracts/zk/PrivateTransferClaim.sol:PrivateTransferClaim",
        "label": "totalAmountClaimed",
        "offset": 0,
        "slot": "158",
        "type": "t_uint256"
      }
    ],
    "types": {
      "t_address": {
        "encoding": "inplace",
        "label": "address",
        "numberOfBytes": "20"
      },
      "t_array(t_uint256)49_storage": {
        "base": "t_uint256",
        "encoding": "inplace",
        "label": "uint256[49]",
        "numberOfBytes": "1568"
      },
      "t_array(t_uint256)50_storage": {
        "base": "t_uint256",
        "encoding": "inplace",
        "label": "uint256[50]",
        "numberOfBytes": "1600"
      },
      "t_bool": {
        "encoding": "inplace",
        "label": "bool",
        "numberOfBytes": "1"
      },
      "t_bytes_storage": {
        "encoding": "bytes",
        "label": "bytes",
        "numberOfBytes": "32"
      },
      "t_mapping(t_uint256,t_bool)": {
        "encoding": "mapping",
        "key": "t_uint256",
        "label": "mapping(uint256 => bool)",
        "numberOfBytes": "32",
        "value": "t_bool"
      },
      "t_mapping(t_uint256,t_bytes_storage)": {
        "encoding": "mapping",
        "key": "t_uint256",
        "label": "mapping(uint256 => bytes)",
        "numberOfBytes": "32",
        "value": "t_bytes_storage"
      },
      "t_uint256": {
        "encoding": "inplace",
        "label": "uint256",
        "numberOfBytes": "32"
      },
      "t_uint8": {
        "encoding": "inplace",
        "label": "uint8",
        "numberOfBytes": "1"
      }
    }
  }
}