{
  "address": "0xe4B5587834596aa0315dACb0Ad4567a868dAEfa4",
  "abi": [
    {
      "anonymous": false,
      "inputs": [
        {
          "indexed": true,
          "internalType": "address",
          "name": "owner",
          "type": "address"
        },
        {
          "indexed": true,
          "internalType": "address",
          "name": "spender",
          "type": "address"
        },
        {
          "indexed": false,
          "internalType": "uint256",
          "name": "value",
          "type": "uint256"
        }
      ],
      "name": "Approval",
      "type": "event"
    },
    {
      "anonymous": false,
      "inputs": [
        {
          "indexed": false,
          "internalType": "uint8",
          "name": "version",
          "type": "uint8"
        }
      ],
      "name": "Initialized",
      "type": "event"
    },
    {
      "anonymous": false,
      "inputs": [
        {
          "indexed": true,
          "internalType": "address",
          "name": "locker",
          "type": "address"
        },
        {
          "indexed": false,
          "internalType": "uint256",
          "name": "stakingPercentage",
          "type": "uint256"
        },
        {
          "indexed": true,
          "internalType": "address",
          "name": "rewardToken",
          "type": "address"
        },
        {
          "indexed": false,
          "internalType": "uint256",
          "name": "stakingPeriod",
          "type": "uint256"
        }
      ],
      "name": "LockerRegisteredForStaking",
      "type": "event"
    },
    {
      "anonymous": false,
      "inputs": [
        {
          "indexed": true,
          "internalType": "address",
          "name": "previousOwner",
          "type": "address"
        },
        {
          "indexed": true,
          "internalType": "address",
          "name": "newOwner",
          "type": "address"
        }
      ],
      "name": "OwnershipTransferred",
      "type": "event"
    },
    {
      "anonymous": false,
      "inputs": [
        {
          "indexed": false,
          "internalType": "address",
          "name": "account",
          "type": "address"
        }
      ],
      "name": "Paused",
      "type": "event"
    },
    {
      "anonymous": false,
      "inputs": [
        {
          "indexed": false,
          "internalType": "address",
          "name": "caller",
          "type": "address"
        },
        {
          "indexed": true,
          "internalType": "address",
          "name": "locker",
          "type": "address"
        },
        {
          "indexed": true,
          "internalType": "address",
          "name": "rewardToken",
          "type": "address"
        },
        {
          "indexed": true,
          "internalType": "address",
          "name": "user",
          "type": "address"
        },
        {
          "indexed": false,
          "internalType": "uint256",
          "name": "amount",
          "type": "uint256"
        }
      ],
      "name": "RewardClaimed",
      "type": "event"
    },
    {
      "anonymous": false,
      "inputs": [
        {
          "indexed": false,
          "internalType": "address",
          "name": "sender",
          "type": "address"
        },
        {
          "indexed": true,
          "internalType": "address",
          "name": "locker",
          "type": "address"
        },
        {
          "indexed": true,
          "internalType": "address",
          "name": "rewardToken",
          "type": "address"
        },
        {
          "indexed": false,
          "internalType": "uint256",
          "name": "totalAmount",
          "type": "uint256"
        },
        {
          "indexed": false,
          "internalType": "uint256",
          "name": "rewardAmount",
          "type": "uint256"
        }
      ],
      "name": "RewardDeposited",
      "type": "event"
    },
    {
      "anonymous": false,
      "inputs": [
        {
          "indexed": true,
          "internalType": "address",
          "name": "from",
          "type": "address"
        },
        {
          "indexed": true,
          "internalType": "address",
          "name": "to",
          "type": "address"
        },
        {
          "indexed": false,
          "internalType": "uint256",
          "name": "value",
          "type": "uint256"
        }
      ],
      "name": "Transfer",
      "type": "event"
    },
    {
      "anonymous": false,
      "inputs": [
        {
          "indexed": false,
          "internalType": "address",
          "name": "caller",
          "type": "address"
        },
        {
          "indexed": true,
          "internalType": "address",
          "name": "locker",
          "type": "address"
        },
        {
          "indexed": true,
          "internalType": "address",
          "name": "rewardToken",
          "type": "address"
        },
        {
          "indexed": false,
          "internalType": "uint256",
          "name": "amount",
          "type": "uint256"
        },
        {
          "indexed": true,
          "internalType": "address",
          "name": "user",
          "type": "address"
        },
        {
          "indexed": false,
          "internalType": "uint256",
          "name": "unstakingTime",
          "type": "uint256"
        },
        {
          "indexed": false,
          "internalType": "uint256",
          "name": "totalStakedAmount",
          "type": "uint256"
        }
      ],
      "name": "TstStaked",
      "type": "event"
    },
    {
      "anonymous": false,
      "inputs": [
        {
          "indexed": false,
          "internalType": "address",
          "name": "caller",
          "type": "address"
        },
        {
          "indexed": true,
          "internalType": "address",
          "name": "locker",
          "type": "address"
        },
        {
          "indexed": false,
          "internalType": "uint256",
          "name": "amount",
          "type": "uint256"
        },
        {
          "indexed": true,
          "internalType": "address",
          "name": "user",
          "type": "address"
        }
      ],
      "name": "TstUnstaked",
      "type": "event"
    },
    {
      "anonymous": false,
      "inputs": [
        {
          "indexed": false,
          "internalType": "address",
          "name": "account",
          "type": "address"
        }
      ],
      "name": "Unpaused",
      "type": "event"
    },
    {
      "inputs": [],
      "name": "MAX_STAKING_PERCENTAGE",
      "outputs": [
        {
          "internalType": "uint256",
          "name": "",
          "type": "uint256"
        }
      ],
      "stateMutability": "view",
      "type": "function"
    },
    {
      "inputs": [],
      "name": "PERCISION",
      "outputs": [
        {
          "internalType": "uint256",
          "name": "",
          "type": "uint256"
        }
      ],
      "stateMutability": "view",
      "type": "function"
    },
    {
      "inputs": [],
      "name": "TST",
      "outputs": [
        {
          "internalType": "address",
          "name": "",
          "type": "address"
        }
      ],
      "stateMutability": "view",
      "type": "function"
    },
    {
      "inputs": [
        {
          "internalType": "address",
          "name": "_controller",
          "type": "address"
        }
      ],
      "name": "addController",
      "outputs": [],
      "stateMutability": "nonpayable",
      "type": "function"
    },
    {
      "inputs": [
        {
          "internalType": "address",
          "name": "owner",
          "type": "address"
        },
        {
          "internalType": "address",
          "name": "spender",
          "type": "address"
        }
      ],
      "name": "allowance",
      "outputs": [
        {
          "internalType": "uint256",
          "name": "",
          "type": "uint256"
        }
      ],
      "stateMutability": "view",
      "type": "function"
    },
    {
      "inputs": [
        {
          "internalType": "address",
          "name": "spender",
          "type": "address"
        },
        {
          "internalType": "uint256",
          "name": "amount",
          "type": "uint256"
        }
      ],
      "name": "approve",
      "outputs": [
        {
          "internalType": "bool",
          "name": "",
          "type": "bool"
        }
      ],
      "stateMutability": "nonpayable",
      "type": "function"
    },
    {
      "inputs": [
        {
          "internalType": "address",
          "name": "account",
          "type": "address"
        }
      ],
      "name": "balanceOf",
      "outputs": [
        {
          "internalType": "uint256",
          "name": "",
          "type": "uint256"
        }
      ],
      "stateMutability": "view",
      "type": "function"
    },
    {
      "inputs": [
        {
          "internalType": "address",
          "name": "_locker",
          "type": "address"
        },
        {
          "internalType": "address",
          "name": "_user",
          "type": "address"
        }
      ],
      "name": "claimReward",
      "outputs": [],
      "stateMutability": "nonpayable",
      "type": "function"
    },
    {
      "inputs": [
        {
          "internalType": "address",
          "name": "_locker",
          "type": "address"
        },
        {
          "internalType": "address",
          "name": "_user",
          "type": "address"
        }
      ],
      "name": "claimRewardByOwner",
      "outputs": [],
      "stateMutability": "nonpayable",
      "type": "function"
    },
    {
      "inputs": [],
      "name": "decimals",
      "outputs": [
        {
          "internalType": "uint8",
          "name": "",
          "type": "uint8"
        }
      ],
      "stateMutability": "view",
      "type": "function"
    },
    {
      "inputs": [
        {
          "internalType": "address",
          "name": "spender",
          "type": "address"
        },
        {
          "internalType": "uint256",
          "name": "subtractedValue",
          "type": "uint256"
        }
      ],
      "name": "decreaseAllowance",
      "outputs": [
        {
          "internalType": "bool",
          "name": "",
          "type": "bool"
        }
      ],
      "stateMutability": "nonpayable",
      "type": "function"
    },
    {
      "inputs": [
        {
          "internalType": "address",
          "name": "_locker",
          "type": "address"
        },
        {
          "internalType": "uint256",
          "name": "_amount",
          "type": "uint256"
        }
      ],
      "name": "depositReward",
      "outputs": [],
      "stateMutability": "nonpayable",
      "type": "function"
    },
    {
      "inputs": [
        {
          "internalType": "address",
          "name": "_locker",
          "type": "address"
        },
        {
          "internalType": "address",
          "name": "_user",
          "type": "address"
        }
      ],
      "name": "getStakingPosition",
      "outputs": [
        {
          "internalType": "uint256",
          "name": "",
          "type": "uint256"
        },
        {
          "internalType": "uint256",
          "name": "",
          "type": "uint256"
        },
        {
          "internalType": "uint256",
          "name": "",
          "type": "uint256"
        },
        {
          "internalType": "uint256",
          "name": "",
          "type": "uint256"
        }
      ],
      "stateMutability": "view",
      "type": "function"
    },
    {
      "inputs": [
        {
          "internalType": "address",
          "name": "_locker",
          "type": "address"
        },
        {
          "internalType": "address",
          "name": "_user",
          "type": "address"
        }
      ],
      "name": "getUnclaimedReward",
      "outputs": [
        {
          "internalType": "uint256",
          "name": "",
          "type": "uint256"
        }
      ],
      "stateMutability": "view",
      "type": "function"
    },
    {
      "inputs": [
        {
          "internalType": "address",
          "name": "spender",
          "type": "address"
        },
        {
          "internalType": "uint256",
          "name": "addedValue",
          "type": "uint256"
        }
      ],
      "name": "increaseAllowance",
      "outputs": [
        {
          "internalType": "bool",
          "name": "",
          "type": "bool"
        }
      ],
      "stateMutability": "nonpayable",
      "type": "function"
    },
    {
      "inputs": [
        {
          "internalType": "address",
          "name": "_TST",
          "type": "address"
        }
      ],
      "name": "initialize",
      "outputs": [],
      "stateMutability": "nonpayable",
      "type": "function"
    },
    {
      "inputs": [
        {
          "internalType": "address",
          "name": "",
          "type": "address"
        }
      ],
      "name": "isController",
      "outputs": [
        {
          "internalType": "bool",
          "name": "",
          "type": "bool"
        }
      ],
      "stateMutability": "view",
      "type": "function"
    },
    {
      "inputs": [],
      "name": "name",
      "outputs": [
        {
          "internalType": "string",
          "name": "",
          "type": "string"
        }
      ],
      "stateMutability": "view",
      "type": "function"
    },
    {
      "inputs": [
        {
          "internalType": "uint16",
          "name": "",
          "type": "uint16"
        },
        {
          "internalType": "bytes",
          "name": "",
          "type": "bytes"
        },
        {
          "internalType": "uint64",
          "name": "",
          "type": "uint64"
        },
        {
          "internalType": "bytes32",
          "name": "",
          "type": "bytes32"
        },
        {
          "internalType": "uint256",
          "name": "_amount",
          "type": "uint256"
        },
        {
          "internalType": "bytes",
          "name": "_payload",
          "type": "bytes"
        }
      ],
      "name": "onOFTReceived",
      "outputs": [],
      "stateMutability": "nonpayable",
      "type": "function"
    },
    {
      "inputs": [],
      "name": "owner",
      "outputs": [
        {
          "internalType": "address",
          "name": "",
          "type": "address"
        }
      ],
      "stateMutability": "view",
      "type": "function"
    },
    {
      "inputs": [],
      "name": "pause",
      "outputs": [],
      "stateMutability": "nonpayable",
      "type": "function"
    },
    {
      "inputs": [],
      "name": "paused",
      "outputs": [
        {
          "internalType": "bool",
          "name": "",
          "type": "bool"
        }
      ],
      "stateMutability": "view",
      "type": "function"
    },
    {
      "inputs": [
        {
          "internalType": "address",
          "name": "_locker",
          "type": "address"
        },
        {
          "internalType": "uint256",
          "name": "_stakingPercentage",
          "type": "uint256"
        },
        {
          "internalType": "address",
          "name": "_rewardToken",
          "type": "address"
        },
        {
          "internalType": "uint256",
          "name": "_stakingPeriod",
          "type": "uint256"
        }
      ],
      "name": "registerLocker",
      "outputs": [],
      "stateMutability": "nonpayable",
      "type": "function"
    },
    {
      "inputs": [
        {
          "internalType": "address",
          "name": "_controller",
          "type": "address"
        }
      ],
      "name": "removeController",
      "outputs": [],
      "stateMutability": "nonpayable",
      "type": "function"
    },
    {
      "inputs": [],
      "name": "renounceOwnership",
      "outputs": [],
      "stateMutability": "nonpayable",
      "type": "function"
    },
    {
      "inputs": [
        {
          "internalType": "address",
          "name": "_TST",
          "type": "address"
        }
      ],
      "name": "setTst",
      "outputs": [],
      "stateMutability": "nonpayable",
      "type": "function"
    },
    {
      "inputs": [
        {
          "internalType": "address",
          "name": "_locker",
          "type": "address"
        },
        {
          "internalType": "uint256",
          "name": "_amount",
          "type": "uint256"
        },
        {
          "internalType": "address",
          "name": "_user",
          "type": "address"
        }
      ],
      "name": "stake",
      "outputs": [],
      "stateMutability": "nonpayable",
      "type": "function"
    },
    {
      "inputs": [
        {
          "internalType": "address",
          "name": "",
          "type": "address"
        }
      ],
      "name": "stakingInfo",
      "outputs": [
        {
          "internalType": "uint256",
          "name": "stakingPercentage",
          "type": "uint256"
        },
        {
          "internalType": "address",
          "name": "rewardToken",
          "type": "address"
        },
        {
          "internalType": "uint256",
          "name": "totalStakedAmount",
          "type": "uint256"
        },
        {
          "internalType": "uint256",
          "name": "totalReward",
          "type": "uint256"
        },
        {
          "internalType": "uint256",
          "name": "totalClaimedReward",
          "type": "uint256"
        },
        {
          "internalType": "uint256",
          "name": "currentRewardPerToken",
          "type": "uint256"
        },
        {
          "internalType": "uint256",
          "name": "stakingPeriod",
          "type": "uint256"
        }
      ],
      "stateMutability": "view",
      "type": "function"
    },
    {
      "inputs": [
        {
          "internalType": "address",
          "name": "",
          "type": "address"
        },
        {
          "internalType": "address",
          "name": "",
          "type": "address"
        }
      ],
      "name": "stakingPosition",
      "outputs": [
        {
          "internalType": "uint256",
          "name": "stakedAmount",
          "type": "uint256"
        },
        {
          "internalType": "uint256",
          "name": "unstakedAmount",
          "type": "uint256"
        },
        {
          "internalType": "uint256",
          "name": "unstakingTime",
          "type": "uint256"
        },
        {
          "internalType": "uint256",
          "name": "claimedReward",
          "type": "uint256"
        },
        {
          "internalType": "uint256",
          "name": "initRewardPerToken",
          "type": "uint256"
        },
        {
          "internalType": "address",
          "name": "controller",
          "type": "address"
        }
      ],
      "stateMutability": "view",
      "type": "function"
    },
    {
      "inputs": [],
      "name": "symbol",
      "outputs": [
        {
          "internalType": "string",
          "name": "",
          "type": "string"
        }
      ],
      "stateMutability": "view",
      "type": "function"
    },
    {
      "inputs": [],
      "name": "totalSupply",
      "outputs": [
        {
          "internalType": "uint256",
          "name": "",
          "type": "uint256"
        }
      ],
      "stateMutability": "view",
      "type": "function"
    },
    {
      "inputs": [
        {
          "internalType": "address",
          "name": "to",
          "type": "address"
        },
        {
          "internalType": "uint256",
          "name": "amount",
          "type": "uint256"
        }
      ],
      "name": "transfer",
      "outputs": [
        {
          "internalType": "bool",
          "name": "",
          "type": "bool"
        }
      ],
      "stateMutability": "nonpayable",
      "type": "function"
    },
    {
      "inputs": [
        {
          "internalType": "address",
          "name": "from",
          "type": "address"
        },
        {
          "internalType": "address",
          "name": "to",
          "type": "address"
        },
        {
          "internalType": "uint256",
          "name": "amount",
          "type": "uint256"
        }
      ],
      "name": "transferFrom",
      "outputs": [
        {
          "internalType": "bool",
          "name": "",
          "type": "bool"
        }
      ],
      "stateMutability": "nonpayable",
      "type": "function"
    },
    {
      "inputs": [
        {
          "internalType": "address",
          "name": "newOwner",
          "type": "address"
        }
      ],
      "name": "transferOwnership",
      "outputs": [],
      "stateMutability": "nonpayable",
      "type": "function"
    },
    {
      "inputs": [],
      "name": "unpause",
      "outputs": [],
      "stateMutability": "nonpayable",
      "type": "function"
    },
    {
      "inputs": [
        {
          "internalType": "address",
          "name": "_locker",
          "type": "address"
        },
        {
          "internalType": "address",
          "name": "_user",
          "type": "address"
        }
      ],
      "name": "unstake",
      "outputs": [],
      "stateMutability": "nonpayable",
      "type": "function"
    },
    {
      "inputs": [
        {
          "internalType": "address",
          "name": "_locker",
          "type": "address"
        },
        {
          "internalType": "address",
          "name": "_user",
          "type": "address"
        }
      ],
      "name": "unstakeByOwner",
      "outputs": [],
      "stateMutability": "nonpayable",
      "type": "function"
    },
    {
      "inputs": [
        {
          "internalType": "address",
          "name": "_locker",
          "type": "address"
        },
        {
          "internalType": "uint256",
          "name": "_stakingPercentage",
          "type": "uint256"
        },
        {
          "internalType": "uint256",
          "name": "_stakingPeriod",
          "type": "uint256"
        }
      ],
      "name": "updateRegisteredLocker",
      "outputs": [],
      "stateMutability": "nonpayable",
      "type": "function"
    }
  ],
  "transactionHash": "0xf8a5ef6b3107008f1ab3a2cc4689e26cb3119dca257c86c769fc4f5b38eab915",
  "args": [],
  "numDeployments": 1,
  "solcInputHash": "8c67fe0888714328430374d6a19cd9e5",
  "bytecode": "0x608060405234801561001057600080fd5b5061299e806100206000396000f3fe608060405234801561001057600080fd5b50600436106102325760003560e01c80638456cb5911610130578063c4d66de8116100b8578063ed6e23711161007c578063ed6e2371146105bf578063f21f3c08146105f2578063f2fde38b14610605578063f6a74ed714610618578063fde042811461062b57600080fd5b8063c4d66de814610560578063d263cef314610573578063dd62ed3e14610586578063e3daba7114610599578063ed31520d146105ac57600080fd5b8063a457c2d7116100ff578063a457c2d7146104f1578063a7fc7a0714610504578063a9059cbb14610517578063b429afeb1461052a578063c3c8f2f01461054d57600080fd5b80638456cb591461042a5780638da5cb5b1461043257806394eecb501461045757806395d89b41146104e957600080fd5b806339600d57116101be5780636e8dd839116101825780636e8dd8391461034657806370a08231146103d3578063715018a6146103fc5780637db4e28f146104045780637fcf35da1461041757600080fd5b806339600d57146102fa5780633f4ba83a1461030d5780634953c7821461031557806356463299146103285780635c975abb1461033b57600080fd5b806323b872dd1161020557806323b872dd1461029f578063256e2703146102b2578063294091cd146102c5578063313ce567146102d857806339509351146102e757600080fd5b806306fdde0314610237578063095ea7b3146102555780630cf7ea8f1461027857806318160ddd1461028d575b600080fd5b61023f610634565b60405161024c9190612481565b60405180910390f35b6102686102633660046124d0565b6106c6565b604051901515815260200161024c565b61028b6102863660046124fa565b6106e0565b005b60cb545b60405190815260200161024c565b6102686102ad36600461252d565b610753565b61028b6102c0366004612569565b610779565b61028b6102d336600461259c565b6108e5565b6040516012815260200161024c565b6102686102f53660046124d0565b610c63565b61028b610308366004612569565b610c85565b61028b610cba565b61028b610323366004612569565b610ccc565b610291610336366004612569565b610d75565b60975460ff16610268565b61039d610354366004612569565b60fb60209081526000928352604080842090915290825290208054600182015460028301546003840154600485015460059095015493949293919290916001600160a01b031686565b60408051968752602087019590955293850192909252606084015260808301526001600160a01b031660a082015260c00161024c565b6102916103e13660046125d8565b6001600160a01b0316600090815260c9602052604090205490565b61028b610e7a565b61028b6104123660046124d0565b610e8c565b61028b610425366004612696565b611163565b61028b611196565b6065546001600160a01b03165b6040516001600160a01b03909116815260200161024c565b6104ac6104653660046125d8565b60fc60205260009081526040902080546001820154600283015460038401546004850154600586015460069096015494956001600160a01b03909416949293919290919087565b604080519788526001600160a01b039096166020880152948601939093526060850191909152608084015260a083015260c082015260e00161024c565b61023f6111a6565b6102686104ff3660046124d0565b6111b5565b61028b6105123660046125d8565b61123b565b6102686105253660046124d0565b611267565b6102686105383660046125d8565b60fe6020526000908152604090205460ff1681565b6102916b033b2e3c9fd0803ce800000081565b61028b61056e3660046125d8565b611275565b61028b6105813660046125d8565b6113de565b610291610594366004612569565b611408565b60fd5461043f906001600160a01b031681565b61028b6105ba36600461273f565b611433565b6105d26105cd366004612569565b61158a565b60408051948552602085019390935291830152606082015260800161024c565b61028b610600366004612569565b6115e1565b61028b6106133660046125d8565b611723565b61028b6106263660046125d8565b61179c565b61029161271081565b606060cc805461064390612783565b80601f016020809104026020016040519081016040528092919081815260200182805461066f90612783565b80156106bc5780601f10610691576101008083540402835291602001916106bc565b820191906000526020600020905b81548152906001019060200180831161069f57829003601f168201915b5050505050905090565b6000336106d48185856117c5565b60019150505b92915050565b6106e86118e1565b6001600160a01b03838116600081815260fc602090815260409182902086815560068101869055600101548251878152918201869052909316927f6adcd71da76e0a69ed435c9ba83e788ac1a11abf12d5ddce101edeebae1e8cd291015b60405180910390a3505050565b60003361076185828561193b565b61076c8585856119b5565b60019150505b9392505050565b6107816118e1565b610789611a07565b6001600160a01b03808316600081815260fb6020908152604080832094861683529381528382205492825260fc905291909120546107e25760405162461bcd60e51b81526004016107d9906127be565b60405180910390fd5b6107ed838384611a61565b6107f78282611b71565b6001600160a01b038316600090815260fc602052604081206002018054839290610822908490612815565b90915550506001600160a01b03808416600090815260fb6020908152604080832086851684529091528120818155600181018290556002810182905560038101829055600481019190915560050180546001600160a01b031916905560fd5461088d91168383611ca5565b60408051338152602081018390526001600160a01b0380851692908616917f6af5feb7f457294f20ebb307166d54c47a6386c8f4b6482c67ffc241fec9bd7391015b60405180910390a3506108e160018055565b5050565b6108ed611d0e565b6108f5611a07565b6001600160a01b03808416600090815260fb6020908152604080832093851683529290522054610978576001600160a01b03808416600090815260fb602090815260408083209385168352929052908120818155600181018290556002810182905560038101829055600481019190915560050180546001600160a01b03191690555b6001600160a01b038316600090815260fc60205260409020546109ad5760405162461bcd60e51b81526004016107d9906127be565b6001600160a01b0381163314610a6a576001600160a01b03838116600090815260fb6020908152604080832085851684529091529020600501541615610a3b576001600160a01b03838116600090815260fb602090815260408083208585168452909152902060050154163314610a365760405162461bcd60e51b81526004016107d99061282c565b610a6a565b33600090815260fe602052604090205460ff16610a6a5760405162461bcd60e51b81526004016107d99061282c565b60fd54610a82906001600160a01b0316333085611d54565b6001600160a01b038316600090815260fc602052604081206002018054849290610aad908490612863565b90915550506001600160a01b038316600090815260fc6020526040902060060154610ad89042612863565b6001600160a01b03848116600090815260fb60209081526040808320938616835292905220600281019190915554610b11908390612863565b6001600160a01b038416600090815260fc6020526040902060050154610b3890849061287b565b6001600160a01b03858116600090815260fb6020908152604080832093871683529290522060048101549054610b6e919061287b565b610b789190612863565b610b82919061289a565b6001600160a01b03848116600090815260fb6020908152604080832093861683529290529081206004810192909255815484929190610bc2908490612863565b90915550610bd290508183611d8c565b6001600160a01b03838116600081815260fc602090815260408083206001015460fb8352818420878716808652908452938290206002810154905483513381529485018a9052848401919091526060840152905192941692917ffbf2a04e1b9d1d59c31693e240cdbfbcb171dbf5f121836b299389192ea461969181900360800190a4610c5e60018055565b505050565b6000336106d4818585610c768383611408565b610c809190612863565b6117c5565b610c8d6118e1565b610c95611a07565b610cb18282610cac6065546001600160a01b031690565b611a61565b6108e160018055565b610cc26118e1565b610cca611e4d565b565b610cd4611d0e565b610cdc611a07565b6001600160a01b0381163314610d35576001600160a01b03828116600090815260fb602090815260408083208585168452909152902060050154163314610d355760405162461bcd60e51b81526004016107d99061282c565b6001600160a01b038216600090815260fc6020526040902054610d6a5760405162461bcd60e51b81526004016107d9906127be565b610cb1828283611a61565b6001600160a01b03808316600081815260fb6020908152604080832094861683529381528382206004015492825260fc90529182206005015482916b033b2e3c9fd0803ce800000091610dc89190612815565b6001600160a01b03808716600090815260fb6020908152604080832093891683529290522054610df8919061287b565b610e02919061289a565b6001600160a01b03808616600090815260fb6020908152604080832093881683529290522060030154909150811115610e70576001600160a01b03808516600090815260fb6020908152604080832093871683529290522060030154610e689082612815565b9150506106da565b60009150506106da565b610e826118e1565b610cca6000611e9f565b610e94611a07565b6001600160a01b038216600090815260fc6020526040902054610f2f576001600160a01b03808316600090815260fc6020526040902060010154610edb9116338484611d54565b604080513381526020810183905260009181018290526001600160a01b038416907faa83330f31f55b682a58c00b453d9ed38fdeddca3a81e4d8cb07527b8e94e403906060015b60405180910390a3610cb1565b6001600160a01b038216600090815260fc6020526040902060020154610fd8576001600160a01b03808316600090815260fc6020526040902060010154610f799116338484611d54565b6001600160a01b03828116600081815260fc60209081526040808320600101548151338152928301879052908201929092529216917faa83330f31f55b682a58c00b453d9ed38fdeddca3a81e4d8cb07527b8e94e40390606001610f22565b6001600160a01b03808316600090815260fc60205260409020600101546110029116333084611d54565b6001600160a01b038216600090815260fc602052604081205461271090611029908461287b565b611033919061289a565b9050611068836110438385612815565b6001600160a01b03808716600090815260fc6020526040902060010154169190611ca5565b6001600160a01b038316600090815260fc602052604081206003018054839290611093908490612863565b90915550506001600160a01b038316600090815260fc60205260409020600201546110ca826b033b2e3c9fd0803ce800000061287b565b6110d4919061289a565b6001600160a01b038416600090815260fc6020526040812060050180549091906110ff908490612863565b90915550506001600160a01b03838116600081815260fc60209081526040918290206001015482513381529182018790529181018590529216917faa83330f31f55b682a58c00b453d9ed38fdeddca3a81e4d8cb07527b8e94e403906060016108cf565b6000611170826000611ef1565b9050600061117f836014611ef1565b905061118c8285836108e5565b5050505050505050565b61119e6118e1565b610cca611f56565b606060cd805461064390612783565b600033816111c38286611408565b9050838110156112235760405162461bcd60e51b815260206004820152602560248201527f45524332303a2064656372656173656420616c6c6f77616e63652062656c6f77604482015264207a65726f60d81b60648201526084016107d9565b61123082868684036117c5565b506001949350505050565b6112436118e1565b6001600160a01b0316600090815260fe60205260409020805460ff19166001179055565b6000336106d48185856119b5565b600054610100900460ff16158080156112955750600054600160ff909116105b806112af5750303b1580156112af575060005460ff166001145b6113125760405162461bcd60e51b815260206004820152602e60248201527f496e697469616c697a61626c653a20636f6e747261637420697320616c72656160448201526d191e481a5b9a5d1a585b1a5e995960921b60648201526084016107d9565b6000805460ff191660011790558015611335576000805461ff0019166101001790555b61133d611f93565b611345611fc2565b61134d611ff1565b61138c60405180606001604052806023815260200161294660239139604051806040016040528060058152602001641d995514d560da1b815250612020565b611395826113de565b80156108e1576000805461ff0019169055604051600181527f7f26b83ff96e1f2b6a682f133852f6798a09c465da95921460cefb38474024989060200160405180910390a15050565b6113e66118e1565b60fd80546001600160a01b0319166001600160a01b0392909216919091179055565b6001600160a01b03918216600090815260ca6020908152604080832093909416825291909152205490565b61143b6118e1565b61271083111561149c5760405162461bcd60e51b815260206004820152602660248201527f5473745374616b696e673a20696e76616c6964207374616b696e672070657263604482015265656e7461676560d01b60648201526084016107d9565b6001600160a01b038416600090815260fc6020526040902054156115105760405162461bcd60e51b815260206004820152602560248201527f5473745374616b696e673a206c6f636b657220616c72656164792072656769736044820152641d195c995960da1b60648201526084016107d9565b6001600160a01b03848116600081815260fc60209081526040918290208781556001810180546001600160a01b031916958816958617905560060185905581518781529081018590527f6adcd71da76e0a69ed435c9ba83e788ac1a11abf12d5ddce101edeebae1e8cd2910160405180910390a350505050565b6001600160a01b03828116600090815260fb602090815260408083209385168352929052908120805460028201546003909201548392839283929091906115d18989610d75565b9299919850965090945092505050565b6115e9611d0e565b6115f1611a07565b6001600160a01b03808316600090815260fb602090815260408083209385168084529390915290205490331461166a576001600160a01b03838116600090815260fb60209081526040808320868516845290915290206005015416331461166a5760405162461bcd60e51b81526004016107d99061282c565b6001600160a01b038316600090815260fc602052604090205461169f5760405162461bcd60e51b81526004016107d9906127be565b6001600160a01b03808416600090815260fb60209081526040808320938616835292905220600201544210156107e25760405162461bcd60e51b815260206004820152602360248201527f5473745374616b696e673a207374616b696e6720706572696f64206e6f74206f6044820152623b32b960e91b60648201526084016107d9565b61172b6118e1565b6001600160a01b0381166117905760405162461bcd60e51b815260206004820152602660248201527f4f776e61626c653a206e6577206f776e657220697320746865207a65726f206160448201526564647265737360d01b60648201526084016107d9565b61179981611e9f565b50565b6117a46118e1565b6001600160a01b0316600090815260fe60205260409020805460ff19169055565b6001600160a01b0383166118275760405162461bcd60e51b8152602060048201526024808201527f45524332303a20617070726f76652066726f6d20746865207a65726f206164646044820152637265737360e01b60648201526084016107d9565b6001600160a01b0382166118885760405162461bcd60e51b815260206004820152602260248201527f45524332303a20617070726f766520746f20746865207a65726f206164647265604482015261737360f01b60648201526084016107d9565b6001600160a01b03838116600081815260ca602090815260408083209487168084529482529182902085905590518481527f8c5be1e5ebec7d5bd14f71427d1e84f3dd0314c0f7b2291e5b200ac8c7c3b9259101610746565b6065546001600160a01b03163314610cca5760405162461bcd60e51b815260206004820181905260248201527f4f776e61626c653a2063616c6c6572206973206e6f7420746865206f776e657260448201526064016107d9565b60006119478484611408565b905060001981146119af57818110156119a25760405162461bcd60e51b815260206004820152601d60248201527f45524332303a20696e73756666696369656e7420616c6c6f77616e636500000060448201526064016107d9565b6119af84848484036117c5565b50505050565b60405162461bcd60e51b815260206004820152602160248201527f5473745374616b696e673a207472616e7366657273206e6f7420616c6c6f77656044820152601960fa1b60648201526084016107d9565b60026001541415611a5a5760405162461bcd60e51b815260206004820152601f60248201527f5265656e7472616e637947756172643a207265656e7472616e742063616c6c0060448201526064016107d9565b6002600155565b6000611a6d8484610d75565b905080156119af576001600160a01b03808516600090815260fb6020908152604080832093871683529290529081206003018054839290611aaf908490612863565b90915550506001600160a01b038416600090815260fc602052604081206004018054839290611adf908490612863565b90915550506001600160a01b03808516600090815260fc6020526040902060010154611b0d91168383611ca5565b6001600160a01b03848116600081815260fc6020908152604091829020600101548251338152918201869052868516941692917f3c7cf01a909d99baa17e8a20a6b1313defa27faddbf794dd957e2e3945429131910160405180910390a450505050565b6001600160a01b038216611bd15760405162461bcd60e51b815260206004820152602160248201527f45524332303a206275726e2066726f6d20746865207a65726f206164647265736044820152607360f81b60648201526084016107d9565b6001600160a01b038216600090815260c9602052604090205481811015611c455760405162461bcd60e51b815260206004820152602260248201527f45524332303a206275726e20616d6f756e7420657863656564732062616c616e604482015261636560f01b60648201526084016107d9565b6001600160a01b038316600081815260c960209081526040808320868603905560cb80548790039055518581529192917fddf252ad1be2c89b69c2b068fc378daa952ba7f163c4a11628f55a4df523b3ef910160405180910390a3505050565b6040516001600160a01b038316602482015260448101829052610c5e90849063a9059cbb60e01b906064015b60408051601f198184030181529190526020810180516001600160e01b03166001600160e01b031990931692909217909152612051565b60018055565b60975460ff1615610cca5760405162461bcd60e51b815260206004820152601060248201526f14185d5cd8589b194e881c185d5cd95960821b60448201526064016107d9565b6040516001600160a01b03808516602483015283166044820152606481018290526119af9085906323b872dd60e01b90608401611cd1565b6001600160a01b038216611de25760405162461bcd60e51b815260206004820152601f60248201527f45524332303a206d696e7420746f20746865207a65726f20616464726573730060448201526064016107d9565b8060cb6000828254611df49190612863565b90915550506001600160a01b038216600081815260c960209081526040808320805486019055518481527fddf252ad1be2c89b69c2b068fc378daa952ba7f163c4a11628f55a4df523b3ef910160405180910390a35050565b611e55612123565b6097805460ff191690557f5db9ee0a495bf2e6ff9c91a7834c1ba4fdd244a5e8aa4e537bd38aeae4b073aa335b6040516001600160a01b03909116815260200160405180910390a1565b606580546001600160a01b038381166001600160a01b0319831681179093556040519116919082907f8be0079c531659141344cd1fd0a4f28419497f9722a3daafe3b4186f6b6457e090600090a35050565b6000611efe826014612863565b83511015611f465760405162461bcd60e51b8152602060048201526015602482015274746f416464726573735f6f75744f66426f756e647360581b60448201526064016107d9565b500160200151600160601b900490565b611f5e611d0e565b6097805460ff191660011790557f62e78cea01bee320cd4e420270b5ea74000d11b0c9f74754ebdbfc544b05a258611e823390565b600054610100900460ff16611fba5760405162461bcd60e51b81526004016107d9906128bc565b610cca61216c565b600054610100900460ff16611fe95760405162461bcd60e51b81526004016107d9906128bc565b610cca61219c565b600054610100900460ff166120185760405162461bcd60e51b81526004016107d9906128bc565b610cca6121c3565b600054610100900460ff166120475760405162461bcd60e51b81526004016107d9906128bc565b6108e182826121f6565b60006120a6826040518060400160405280602081526020017f5361666545524332303a206c6f772d6c6576656c2063616c6c206661696c6564815250856001600160a01b03166122449092919063ffffffff16565b805190915015610c5e57808060200190518101906120c49190612907565b610c5e5760405162461bcd60e51b815260206004820152602a60248201527f5361666545524332303a204552433230206f7065726174696f6e20646964206e6044820152691bdd081cdd58d8d9595960b21b60648201526084016107d9565b60975460ff16610cca5760405162461bcd60e51b815260206004820152601460248201527314185d5cd8589b194e881b9bdd081c185d5cd95960621b60448201526064016107d9565b600054610100900460ff166121935760405162461bcd60e51b81526004016107d9906128bc565b610cca33611e9f565b600054610100900460ff16611d085760405162461bcd60e51b81526004016107d9906128bc565b600054610100900460ff166121ea5760405162461bcd60e51b81526004016107d9906128bc565b6097805460ff19169055565b600054610100900460ff1661221d5760405162461bcd60e51b81526004016107d9906128bc565b81516122309060cc9060208501906123bc565b508051610c5e9060cd9060208401906123bc565b6060612253848460008561225b565b949350505050565b6060824710156122bc5760405162461bcd60e51b815260206004820152602660248201527f416464726573733a20696e73756666696369656e742062616c616e636520666f6044820152651c8818d85b1b60d21b60648201526084016107d9565b843b61230a5760405162461bcd60e51b815260206004820152601d60248201527f416464726573733a2063616c6c20746f206e6f6e2d636f6e747261637400000060448201526064016107d9565b600080866001600160a01b031685876040516123269190612929565b60006040518083038185875af1925050503d8060008114612363576040519150601f19603f3d011682016040523d82523d6000602084013e612368565b606091505b5091509150612378828286612383565b979650505050505050565b60608315612392575081610772565b8251156123a25782518084602001fd5b8160405162461bcd60e51b81526004016107d99190612481565b8280546123c890612783565b90600052602060002090601f0160209004810192826123ea5760008555612430565b82601f1061240357805160ff1916838001178555612430565b82800160010185558215612430579182015b82811115612430578251825591602001919060010190612415565b5061243c929150612440565b5090565b5b8082111561243c5760008155600101612441565b60005b83811015612470578181015183820152602001612458565b838111156119af5750506000910152565b60208152600082518060208401526124a0816040850160208701612455565b601f01601f19169190910160400192915050565b80356001600160a01b03811681146124cb57600080fd5b919050565b600080604083850312156124e357600080fd5b6124ec836124b4565b946020939093013593505050565b60008060006060848603121561250f57600080fd5b612518846124b4565b95602085013595506040909401359392505050565b60008060006060848603121561254257600080fd5b61254b846124b4565b9250612559602085016124b4565b9150604084013590509250925092565b6000806040838503121561257c57600080fd5b612585836124b4565b9150612593602084016124b4565b90509250929050565b6000806000606084860312156125b157600080fd5b6125ba846124b4565b9250602084013591506125cf604085016124b4565b90509250925092565b6000602082840312156125ea57600080fd5b610772826124b4565b634e487b7160e01b600052604160045260246000fd5b600082601f83011261261a57600080fd5b813567ffffffffffffffff80821115612635576126356125f3565b604051601f8301601f19908116603f0116810190828211818310171561265d5761265d6125f3565b8160405283815286602085880101111561267657600080fd5b836020870160208301376000602085830101528094505050505092915050565b60008060008060008060c087890312156126af57600080fd5b863561ffff811681146126c157600080fd5b9550602087013567ffffffffffffffff808211156126de57600080fd5b6126ea8a838b01612609565b965060408901359150808216821461270157600080fd5b909450606088013593506080880135925060a0880135908082111561272557600080fd5b5061273289828a01612609565b9150509295509295509295565b6000806000806080858703121561275557600080fd5b61275e856124b4565b935060208501359250612773604086016124b4565b9396929550929360600135925050565b600181811c9082168061279757607f821691505b602082108114156127b857634e487b7160e01b600052602260045260246000fd5b50919050565b60208082526021908201527f5473745374616b696e673a206c6f636b6572206e6f74207265676973746572656040820152601960fa1b606082015260800190565b634e487b7160e01b600052601160045260246000fd5b600082821015612827576128276127ff565b500390565b6020808252601a908201527f5473745374616b696e673a206e6f7420636f6e74726f6c6c6572000000000000604082015260600190565b60008219821115612876576128766127ff565b500190565b6000816000190483118215151615612895576128956127ff565b500290565b6000826128b757634e487b7160e01b600052601260045260246000fd5b500490565b6020808252602b908201527f496e697469616c697a61626c653a20636f6e7472616374206973206e6f74206960408201526a6e697469616c697a696e6760a81b606082015260800190565b60006020828403121561291957600080fd5b8151801515811461077257600080fd5b6000825161293b818460208701612455565b919091019291505056fe566f746520457363726f7765642054656c65706f72742053797374656d20546f6b656ea2646970667358221220624bf57bd627ac760f6e9c5fc2b37e353b697940e3d296895c92971eb87b849964736f6c63430008090033",
  "devdoc": {
    "kind": "dev",
    "methods": {
      "addController(address)": {
        "details": "Controller can only stake on behalf of other users (not claim or unstake)"
      },
      "allowance(address,address)": {
        "details": "See {IERC20-allowance}."
      },
      "approve(address,uint256)": {
        "details": "See {IERC20-approve}. NOTE: If `amount` is the maximum `uint256`, the allowance is not updated on `transferFrom`. This is semantically equivalent to an infinite approval. Requirements: - `spender` cannot be the zero address."
      },
      "balanceOf(address)": {
        "details": "See {IERC20-balanceOf}."
      },
      "claimReward(address,address)": {
        "details": "Only the user can claim their own reward"
      },
      "decimals()": {
        "details": "Returns the number of decimals used to get its user representation. For example, if `decimals` equals `2`, a balance of `505` tokens should be displayed to a user as `5.05` (`505 / 10 ** 2`). Tokens usually opt for a value of 18, imitating the relationship between Ether and Wei. This is the default value returned by this function, unless it's overridden. NOTE: This information is only used for _display_ purposes: it in no way affects any of the arithmetic of the contract, including {IERC20-balanceOf} and {IERC20-transfer}."
      },
      "decreaseAllowance(address,uint256)": {
        "details": "Atomically decreases the allowance granted to `spender` by the caller. This is an alternative to {approve} that can be used as a mitigation for problems described in {IERC20-approve}. Emits an {Approval} event indicating the updated allowance. Requirements: - `spender` cannot be the zero address. - `spender` must have allowance for the caller of at least `subtractedValue`."
      },
      "getStakingPosition(address,address)": {
        "returns": {
          "_0": "Returns TST staked amount, end time, claimed reward, unclaimed reward"
        }
      },
      "getUnclaimedReward(address,address)": {
        "returns": {
          "_0": "Returns unclaimed reward amount"
        }
      },
      "increaseAllowance(address,uint256)": {
        "details": "Atomically increases the allowance granted to `spender` by the caller. This is an alternative to {approve} that can be used as a mitigation for problems described in {IERC20-approve}. Emits an {Approval} event indicating the updated allowance. Requirements: - `spender` cannot be the zero address."
      },
      "name()": {
        "details": "Returns the name of the token."
      },
      "owner()": {
        "details": "Returns the address of the current owner."
      },
      "paused()": {
        "details": "Returns true if the contract is paused, and false otherwise."
      },
      "registerLocker(address,uint256,address,uint256)": {
        "params": {
          "_locker": "Address of the Locker",
          "_rewardToken": "Address of the reward token",
          "_stakingPercentage": "Percentage of Locker fees to be distributed to stakers",
          "_stakingPeriod": "Users can unstake after before this period"
        }
      },
      "renounceOwnership()": {
        "details": "Leaves the contract without owner. It will not be possible to call `onlyOwner` functions. Can only be called by the current owner. NOTE: Renouncing ownership will leave the contract without an owner, thereby disabling any functionality that is only available to the owner."
      },
      "stake(address,uint256,address)": {
        "details": "Controller can stake on behalf of other usersThis mints veToken to the userUsers can stake extra TST to their existing position",
        "params": {
          "_amount": "Amount of TST to stake",
          "_locker": "Address of the Locker",
          "_user": "Address of the user"
        }
      },
      "symbol()": {
        "details": "Returns the symbol of the token, usually a shorter version of the name."
      },
      "totalSupply()": {
        "details": "See {IERC20-totalSupply}."
      },
      "transfer(address,uint256)": {
        "details": "See {IERC20-transfer}. Requirements: - `to` cannot be the zero address. - the caller must have a balance of at least `amount`."
      },
      "transferFrom(address,address,uint256)": {
        "details": "See {IERC20-transferFrom}. Emits an {Approval} event indicating the updated allowance. This is not required by the EIP. See the note at the beginning of {ERC20}. NOTE: Does not update the allowance if the current allowance is the maximum `uint256`. Requirements: - `from` and `to` cannot be the zero address. - `from` must have a balance of at least `amount`. - the caller must have allowance for ``from``'s tokens of at least `amount`."
      },
      "transferOwnership(address)": {
        "details": "Transfers ownership of the contract to a new account (`newOwner`). Can only be called by the current owner."
      },
      "unstake(address,address)": {
        "details": "Only the user can unstake (not controller)This burns veToken from the userUser can unstake only after staking period is overAll unclaimed reward will be sent to user"
      }
    },
    "version": 1
  },
  "userdoc": {
    "kind": "user",
    "methods": {
      "addController(address)": {
        "notice": "Adds a controller"
      },
      "claimReward(address,address)": {
        "notice": "Claims unclaimed reward"
      },
      "depositReward(address,uint256)": {
        "notice": "Deposits reward token for a Locker.         This reward will be distributed to stakers and Locker"
      },
      "getUnclaimedReward(address,address)": {
        "notice": "Calculate total reward earned by user, and subtract already claimed reward"
      },
      "initialize(address)": {
        "notice": "Staking contract for TST. Stakers earn rewards from Locker fees.         By staking TST, user receives veTST which can be used for governance voting.         veTST is not transferable."
      },
      "pause()": {
        "notice": "Allows owner to pause all staking operations"
      },
      "registerLocker(address,uint256,address,uint256)": {
        "notice": "Registers a new Locker for staking.         Users who delegate TST to the Locker will earn percentage of Locker fees."
      },
      "removeController(address)": {
        "notice": "Removes a controller"
      },
      "setTst(address)": {
        "notice": "Setter for TST"
      },
      "stake(address,uint256,address)": {
        "notice": "Stakes TST to earn rewards"
      },
      "unpause()": {
        "notice": "Allows owner to unpause all staking operations"
      },
      "unstake(address,address)": {
        "notice": "Unstakes TST. Users cannot unstake partial amount."
      },
      "updateRegisteredLocker(address,uint256,uint256)": {
        "notice": "Updates staking percentage and staking period for a registered Locker"
      }
    },
    "version": 1
  },
  "storageLayout": {
    "storage": [
      {
        "astId": 139,
        "contract": "contracts/staking/TstStakingLogic.sol:TstStakingLogic",
        "label": "_initialized",
        "offset": 0,
        "slot": "0",
        "type": "t_uint8"
      },
      {
        "astId": 142,
        "contract": "contracts/staking/TstStakingLogic.sol:TstStakingLogic",
        "label": "_initializing",
        "offset": 1,
        "slot": "0",
        "type": "t_bool"
      },
      {
        "astId": 444,
        "contract": "contracts/staking/TstStakingLogic.sol:TstStakingLogic",
        "label": "_status",
        "offset": 0,
        "slot": "1",
        "type": "t_uint256"
      },
      {
        "astId": 513,
        "contract": "contracts/staking/TstStakingLogic.sol:TstStakingLogic",
        "label": "__gap",
        "offset": 0,
        "slot": "2",
        "type": "t_array(t_uint256)49_storage"
      },
      {
        "astId": 1610,
        "contract": "contracts/staking/TstStakingLogic.sol:TstStakingLogic",
        "label": "__gap",
        "offset": 0,
        "slot": "51",
        "type": "t_array(t_uint256)50_storage"
      },
      {
        "astId": 11,
        "contract": "contracts/staking/TstStakingLogic.sol:TstStakingLogic",
        "label": "_owner",
        "offset": 0,
        "slot": "101",
        "type": "t_address"
      },
      {
        "astId": 131,
        "contract": "contracts/staking/TstStakingLogic.sol:TstStakingLogic",
        "label": "__gap",
        "offset": 0,
        "slot": "102",
        "type": "t_array(t_uint256)49_storage"
      },
      {
        "astId": 323,
        "contract": "contracts/staking/TstStakingLogic.sol:TstStakingLogic",
        "label": "_paused",
        "offset": 0,
        "slot": "151",
        "type": "t_bool"
      },
      {
        "astId": 428,
        "contract": "contracts/staking/TstStakingLogic.sol:TstStakingLogic",
        "label": "__gap",
        "offset": 0,
        "slot": "152",
        "type": "t_array(t_uint256)49_storage"
      },
      {
        "astId": 534,
        "contract": "contracts/staking/TstStakingLogic.sol:TstStakingLogic",
        "label": "_balances",
        "offset": 0,
        "slot": "201",
        "type": "t_mapping(t_address,t_uint256)"
      },
      {
        "astId": 540,
        "contract": "contracts/staking/TstStakingLogic.sol:TstStakingLogic",
        "label": "_allowances",
        "offset": 0,
        "slot": "202",
        "type": "t_mapping(t_address,t_mapping(t_address,t_uint256))"
      },
      {
        "astId": 542,
        "contract": "contracts/staking/TstStakingLogic.sol:TstStakingLogic",
        "label": "_totalSupply",
        "offset": 0,
        "slot": "203",
        "type": "t_uint256"
      },
      {
        "astId": 544,
        "contract": "contracts/staking/TstStakingLogic.sol:TstStakingLogic",
        "label": "_name",
        "offset": 0,
        "slot": "204",
        "type": "t_string_storage"
      },
      {
        "astId": 546,
        "contract": "contracts/staking/TstStakingLogic.sol:TstStakingLogic",
        "label": "_symbol",
        "offset": 0,
        "slot": "205",
        "type": "t_string_storage"
      },
      {
        "astId": 1126,
        "contract": "contracts/staking/TstStakingLogic.sol:TstStakingLogic",
        "label": "__gap",
        "offset": 0,
        "slot": "206",
        "type": "t_array(t_uint256)45_storage"
      },
      {
        "astId": 3290,
        "contract": "contracts/staking/TstStakingLogic.sol:TstStakingLogic",
        "label": "stakingPosition",
        "offset": 0,
        "slot": "251",
        "type": "t_mapping(t_address,t_mapping(t_address,t_struct(StakingPosition)3319_storage))"
      },
      {
        "astId": 3295,
        "contract": "contracts/staking/TstStakingLogic.sol:TstStakingLogic",
        "label": "stakingInfo",
        "offset": 0,
        "slot": "252",
        "type": "t_mapping(t_address,t_struct(StakingInfo)3334_storage)"
      },
      {
        "astId": 3298,
        "contract": "contracts/staking/TstStakingLogic.sol:TstStakingLogic",
        "label": "TST",
        "offset": 0,
        "slot": "253",
        "type": "t_address"
      },
      {
        "astId": 3303,
        "contract": "contracts/staking/TstStakingLogic.sol:TstStakingLogic",
        "label": "isController",
        "offset": 0,
        "slot": "254",
        "type": "t_mapping(t_address,t_bool)"
      }
    ],
    "types": {
      "t_address": {
        "encoding": "inplace",
        "label": "address",
        "numberOfBytes": "20"
      },
      "t_array(t_uint256)45_storage": {
        "base": "t_uint256",
        "encoding": "inplace",
        "label": "uint256[45]",
        "numberOfBytes": "1440"
      },
      "t_array(t_uint256)49_storage": {
        "base": "t_uint256",
        "encoding": "inplace",
        "label": "uint256[49]",
        "numberOfBytes": "1568"
      },
      "t_array(t_uint256)50_storage": {
        "base": "t_uint256",
        "encoding": "inplace",
        "label": "uint256[50]",
        "numberOfBytes": "1600"
      },
      "t_bool": {
        "encoding": "inplace",
        "label": "bool",
        "numberOfBytes": "1"
      },
      "t_mapping(t_address,t_bool)": {
        "encoding": "mapping",
        "key": "t_address",
        "label": "mapping(address => bool)",
        "numberOfBytes": "32",
        "value": "t_bool"
      },
      "t_mapping(t_address,t_mapping(t_address,t_struct(StakingPosition)3319_storage))": {
        "encoding": "mapping",
        "key": "t_address",
        "label": "mapping(address => mapping(address => struct ITstStaking.StakingPosition))",
        "numberOfBytes": "32",
        "value": "t_mapping(t_address,t_struct(StakingPosition)3319_storage)"
      },
      "t_mapping(t_address,t_mapping(t_address,t_uint256))": {
        "encoding": "mapping",
        "key": "t_address",
        "label": "mapping(address => mapping(address => uint256))",
        "numberOfBytes": "32",
        "value": "t_mapping(t_address,t_uint256)"
      },
      "t_mapping(t_address,t_struct(StakingInfo)3334_storage)": {
        "encoding": "mapping",
        "key": "t_address",
        "label": "mapping(address => struct ITstStaking.StakingInfo)",
        "numberOfBytes": "32",
        "value": "t_struct(StakingInfo)3334_storage"
      },
      "t_mapping(t_address,t_struct(StakingPosition)3319_storage)": {
        "encoding": "mapping",
        "key": "t_address",
        "label": "mapping(address => struct ITstStaking.StakingPosition)",
        "numberOfBytes": "32",
        "value": "t_struct(StakingPosition)3319_storage"
      },
      "t_mapping(t_address,t_uint256)": {
        "encoding": "mapping",
        "key": "t_address",
        "label": "mapping(address => uint256)",
        "numberOfBytes": "32",
        "value": "t_uint256"
      },
      "t_string_storage": {
        "encoding": "bytes",
        "label": "string",
        "numberOfBytes": "32"
      },
      "t_struct(StakingInfo)3334_storage": {
        "encoding": "inplace",
        "label": "struct ITstStaking.StakingInfo",
        "members": [
          {
            "astId": 3321,
            "contract": "contracts/staking/TstStakingLogic.sol:TstStakingLogic",
            "label": "stakingPercentage",
            "offset": 0,
            "slot": "0",
            "type": "t_uint256"
          },
          {
            "astId": 3323,
            "contract": "contracts/staking/TstStakingLogic.sol:TstStakingLogic",
            "label": "rewardToken",
            "offset": 0,
            "slot": "1",
            "type": "t_address"
          },
          {
            "astId": 3325,
            "contract": "contracts/staking/TstStakingLogic.sol:TstStakingLogic",
            "label": "totalStakedAmount",
            "offset": 0,
            "slot": "2",
            "type": "t_uint256"
          },
          {
            "astId": 3327,
            "contract": "contracts/staking/TstStakingLogic.sol:TstStakingLogic",
            "label": "totalReward",
            "offset": 0,
            "slot": "3",
            "type": "t_uint256"
          },
          {
            "astId": 3329,
            "contract": "contracts/staking/TstStakingLogic.sol:TstStakingLogic",
            "label": "totalClaimedReward",
            "offset": 0,
            "slot": "4",
            "type": "t_uint256"
          },
          {
            "astId": 3331,
            "contract": "contracts/staking/TstStakingLogic.sol:TstStakingLogic",
            "label": "currentRewardPerToken",
            "offset": 0,
            "slot": "5",
            "type": "t_uint256"
          },
          {
            "astId": 3333,
            "contract": "contracts/staking/TstStakingLogic.sol:TstStakingLogic",
            "label": "stakingPeriod",
            "offset": 0,
            "slot": "6",
            "type": "t_uint256"
          }
        ],
        "numberOfBytes": "224"
      },
      "t_struct(StakingPosition)3319_storage": {
        "encoding": "inplace",
        "label": "struct ITstStaking.StakingPosition",
        "members": [
          {
            "astId": 3308,
            "contract": "contracts/staking/TstStakingLogic.sol:TstStakingLogic",
            "label": "stakedAmount",
            "offset": 0,
            "slot": "0",
            "type": "t_uint256"
          },
          {
            "astId": 3310,
            "contract": "contracts/staking/TstStakingLogic.sol:TstStakingLogic",
            "label": "unstakedAmount",
            "offset": 0,
            "slot": "1",
            "type": "t_uint256"
          },
          {
            "astId": 3312,
            "contract": "contracts/staking/TstStakingLogic.sol:TstStakingLogic",
            "label": "unstakingTime",
            "offset": 0,
            "slot": "2",
            "type": "t_uint256"
          },
          {
            "astId": 3314,
            "contract": "contracts/staking/TstStakingLogic.sol:TstStakingLogic",
            "label": "claimedReward",
            "offset": 0,
            "slot": "3",
            "type": "t_uint256"
          },
          {
            "astId": 3316,
            "contract": "contracts/staking/TstStakingLogic.sol:TstStakingLogic",
            "label": "initRewardPerToken",
            "offset": 0,
            "slot": "4",
            "type": "t_uint256"
          },
          {
            "astId": 3318,
            "contract": "contracts/staking/TstStakingLogic.sol:TstStakingLogic",
            "label": "controller",
            "offset": 0,
            "slot": "5",
            "type": "t_address"
          }
        ],
        "numberOfBytes": "192"
      },
      "t_uint256": {
        "encoding": "inplace",
        "label": "uint256",
        "numberOfBytes": "32"
      },
      "t_uint8": {
        "encoding": "inplace",
        "label": "uint8",
        "numberOfBytes": "1"
      }
    }
  }
}