{
  "address": "0xB47CbcFd9124d0bF01CB02cB9eE86ebd4F65f969",
  "abi": [
    {
      "anonymous": false,
      "inputs": [
        {
          "indexed": false,
          "internalType": "bool",
          "name": "_swapToken0ToToken1",
          "type": "bool"
        },
        {
          "indexed": false,
          "internalType": "uint256",
          "name": "_neededSwapAmount",
          "type": "uint256"
        },
        {
          "indexed": false,
          "internalType": "uint256",
          "name": "_receivedAmount",
          "type": "uint256"
        },
        {
          "indexed": false,
          "internalType": "uint256",
          "name": "_totalAmount0",
          "type": "uint256"
        },
        {
          "indexed": false,
          "internalType": "uint256",
          "name": "_totalAmount1",
          "type": "uint256"
        }
      ],
      "name": "ExecuteSwap",
      "type": "event"
    },
    {
      "anonymous": false,
      "inputs": [
        {
          "indexed": false,
          "internalType": "uint256",
          "name": "_newUserRatio",
          "type": "uint256"
        },
        {
          "indexed": false,
          "internalType": "uint256",
          "name": "_newTargetRatio",
          "type": "uint256"
        },
        {
          "indexed": false,
          "internalType": "uint256",
          "name": "_targetRatio",
          "type": "uint256"
        }
      ],
      "name": "FindOptimalSwapAmount",
      "type": "event"
    },
    {
      "anonymous": false,
      "inputs": [
        {
          "indexed": false,
          "internalType": "address",
          "name": "tokenIn",
          "type": "address"
        },
        {
          "indexed": false,
          "internalType": "address",
          "name": "tokenOut",
          "type": "address"
        },
        {
          "indexed": false,
          "internalType": "uint24",
          "name": "fee",
          "type": "uint24"
        },
        {
          "indexed": false,
          "internalType": "uint256",
          "name": "amountIn",
          "type": "uint256"
        },
        {
          "indexed": false,
          "internalType": "uint256",
          "name": "amountOut",
          "type": "uint256"
        }
      ],
      "name": "GetQuoteResult",
      "type": "event"
    },
    {
      "anonymous": false,
      "inputs": [
        {
          "indexed": false,
          "internalType": "uint8",
          "name": "version",
          "type": "uint8"
        }
      ],
      "name": "Initialized",
      "type": "event"
    },
    {
      "anonymous": false,
      "inputs": [
        {
          "indexed": true,
          "internalType": "address",
          "name": "previousOwner",
          "type": "address"
        },
        {
          "indexed": true,
          "internalType": "address",
          "name": "newOwner",
          "type": "address"
        }
      ],
      "name": "OwnershipTransferred",
      "type": "event"
    },
    {
      "anonymous": false,
      "inputs": [
        {
          "indexed": false,
          "internalType": "address[]",
          "name": "path",
          "type": "address[]"
        },
        {
          "indexed": false,
          "internalType": "uint256[]",
          "name": "amounts",
          "type": "uint256[]"
        },
        {
          "indexed": false,
          "internalType": "address",
          "name": "receiver",
          "type": "address"
        }
      ],
      "name": "Swap",
      "type": "event"
    },
    {
      "anonymous": false,
      "inputs": [
        {
          "components": [
            {
              "internalType": "uint256",
              "name": "tokenId",
              "type": "uint256"
            },
            {
              "internalType": "address",
              "name": "token0",
              "type": "address"
            },
            {
              "internalType": "address",
              "name": "token1",
              "type": "address"
            },
            {
              "internalType": "uint24",
              "name": "feeTier",
              "type": "uint24"
            },
            {
              "internalType": "int24",
              "name": "tickLower",
              "type": "int24"
            },
            {
              "internalType": "int24",
              "name": "tickUpper",
              "type": "int24"
            },
            {
              "internalType": "uint256",
              "name": "amount0Desired",
              "type": "uint256"
            },
            {
              "internalType": "uint256",
              "name": "amount1Desired",
              "type": "uint256"
            },
            {
              "internalType": "address",
              "name": "user",
              "type": "address"
            }
          ],
          "indexed": false,
          "internalType": "struct UniswapV3Connector.AddLiquidityParams",
          "name": "_params",
          "type": "tuple"
        },
        {
          "indexed": false,
          "internalType": "uint256",
          "name": "_remaining0",
          "type": "uint256"
        },
        {
          "indexed": false,
          "internalType": "uint256",
          "name": "_remaining1",
          "type": "uint256"
        },
        {
          "indexed": false,
          "internalType": "uint256",
          "name": "_tokenId",
          "type": "uint256"
        }
      ],
      "name": "SwapAndAddLiquidity",
      "type": "event"
    },
    {
      "inputs": [],
      "name": "MAX_ITERS",
      "outputs": [
        {
          "internalType": "uint256",
          "name": "",
          "type": "uint256"
        }
      ],
      "stateMutability": "view",
      "type": "function"
    },
    {
      "inputs": [],
      "name": "MIN_GAS_RESERVE",
      "outputs": [
        {
          "internalType": "uint256",
          "name": "",
          "type": "uint256"
        }
      ],
      "stateMutability": "view",
      "type": "function"
    },
    {
      "inputs": [],
      "name": "ONE_HUNDRED_PERCENT",
      "outputs": [
        {
          "internalType": "uint256",
          "name": "",
          "type": "uint256"
        }
      ],
      "stateMutability": "view",
      "type": "function"
    },
    {
      "inputs": [],
      "name": "PRECISION",
      "outputs": [
        {
          "internalType": "uint256",
          "name": "",
          "type": "uint256"
        }
      ],
      "stateMutability": "view",
      "type": "function"
    },
    {
      "inputs": [],
      "name": "TOLERANCE",
      "outputs": [
        {
          "internalType": "uint256",
          "name": "",
          "type": "uint256"
        }
      ],
      "stateMutability": "view",
      "type": "function"
    },
    {
      "inputs": [
        {
          "internalType": "address[]",
          "name": "_path",
          "type": "address[]"
        }
      ],
      "name": "convertedPath",
      "outputs": [
        {
          "internalType": "bytes",
          "name": "packedData",
          "type": "bytes"
        }
      ],
      "stateMutability": "view",
      "type": "function"
    },
    {
      "inputs": [
        {
          "internalType": "address[]",
          "name": "_path",
          "type": "address[]"
        }
      ],
      "name": "convertedPathReversed",
      "outputs": [
        {
          "internalType": "bytes",
          "name": "packedData",
          "type": "bytes"
        }
      ],
      "stateMutability": "view",
      "type": "function"
    },
    {
      "inputs": [],
      "name": "exchangeRouter",
      "outputs": [
        {
          "internalType": "address",
          "name": "",
          "type": "address"
        }
      ],
      "stateMutability": "view",
      "type": "function"
    },
    {
      "inputs": [
        {
          "internalType": "address",
          "name": "",
          "type": "address"
        },
        {
          "internalType": "address",
          "name": "",
          "type": "address"
        }
      ],
      "name": "feeTier",
      "outputs": [
        {
          "internalType": "uint24",
          "name": "",
          "type": "uint24"
        }
      ],
      "stateMutability": "view",
      "type": "function"
    },
    {
      "inputs": [
        {
          "internalType": "uint160",
          "name": "_sqrtPrice",
          "type": "uint160"
        },
        {
          "internalType": "int24",
          "name": "_tickLower",
          "type": "int24"
        },
        {
          "internalType": "int24",
          "name": "_tickUpper",
          "type": "int24"
        },
        {
          "internalType": "uint128",
          "name": "_liquidity",
          "type": "uint128"
        }
      ],
      "name": "getAmountsForLiquidity",
      "outputs": [
        {
          "internalType": "uint256",
          "name": "",
          "type": "uint256"
        },
        {
          "internalType": "uint256",
          "name": "",
          "type": "uint256"
        }
      ],
      "stateMutability": "pure",
      "type": "function"
    },
    {
      "inputs": [
        {
          "internalType": "address[]",
          "name": "_path",
          "type": "address[]"
        },
        {
          "internalType": "uint256",
          "name": "_amountIn",
          "type": "uint256"
        }
      ],
      "name": "getExactInput",
      "outputs": [
        {
          "internalType": "bool",
          "name": "",
          "type": "bool"
        },
        {
          "internalType": "uint256",
          "name": "",
          "type": "uint256"
        }
      ],
      "stateMutability": "nonpayable",
      "type": "function"
    },
    {
      "inputs": [
        {
          "internalType": "address[]",
          "name": "_path",
          "type": "address[]"
        },
        {
          "internalType": "uint256",
          "name": "_amountOut",
          "type": "uint256"
        }
      ],
      "name": "getExactOutput",
      "outputs": [
        {
          "internalType": "bool",
          "name": "",
          "type": "bool"
        },
        {
          "internalType": "uint256",
          "name": "",
          "type": "uint256"
        }
      ],
      "stateMutability": "nonpayable",
      "type": "function"
    },
    {
      "inputs": [
        {
          "internalType": "uint256",
          "name": "",
          "type": "uint256"
        },
        {
          "internalType": "address",
          "name": "",
          "type": "address"
        },
        {
          "internalType": "address",
          "name": "",
          "type": "address"
        }
      ],
      "name": "getInputAmount",
      "outputs": [
        {
          "internalType": "bool",
          "name": "",
          "type": "bool"
        },
        {
          "internalType": "uint256",
          "name": "",
          "type": "uint256"
        }
      ],
      "stateMutability": "pure",
      "type": "function"
    },
    {
      "inputs": [
        {
          "internalType": "uint160",
          "name": "_sqrtPrice",
          "type": "uint160"
        },
        {
          "internalType": "int24",
          "name": "_tickLower",
          "type": "int24"
        },
        {
          "internalType": "int24",
          "name": "_tickUpper",
          "type": "int24"
        },
        {
          "internalType": "uint256",
          "name": "_amount0Desired",
          "type": "uint256"
        },
        {
          "internalType": "uint256",
          "name": "_amount1Desired",
          "type": "uint256"
        }
      ],
      "name": "getLiquidityForAmounts",
      "outputs": [
        {
          "internalType": "uint128",
          "name": "",
          "type": "uint128"
        }
      ],
      "stateMutability": "pure",
      "type": "function"
    },
    {
      "inputs": [
        {
          "internalType": "uint256",
          "name": "",
          "type": "uint256"
        },
        {
          "internalType": "address",
          "name": "",
          "type": "address"
        },
        {
          "internalType": "address",
          "name": "",
          "type": "address"
        }
      ],
      "name": "getOutputAmount",
      "outputs": [
        {
          "internalType": "bool",
          "name": "",
          "type": "bool"
        },
        {
          "internalType": "uint256",
          "name": "",
          "type": "uint256"
        }
      ],
      "stateMutability": "pure",
      "type": "function"
    },
    {
      "inputs": [
        {
          "internalType": "address",
          "name": "_token0",
          "type": "address"
        },
        {
          "internalType": "address",
          "name": "_token1",
          "type": "address"
        },
        {
          "internalType": "uint24",
          "name": "_feeTier",
          "type": "uint24"
        }
      ],
      "name": "getSqrtPrice",
      "outputs": [
        {
          "internalType": "uint160",
          "name": "_sqrtPrice",
          "type": "uint160"
        }
      ],
      "stateMutability": "view",
      "type": "function"
    },
    {
      "inputs": [
        {
          "internalType": "int24",
          "name": "_tick",
          "type": "int24"
        }
      ],
      "name": "getSqrtPriceAtTick",
      "outputs": [
        {
          "internalType": "uint160",
          "name": "",
          "type": "uint160"
        }
      ],
      "stateMutability": "pure",
      "type": "function"
    },
    {
      "inputs": [
        {
          "internalType": "address[]",
          "name": "_path",
          "type": "address[]"
        }
      ],
      "name": "getSqrtPriceX96",
      "outputs": [
        {
          "internalType": "uint256[]",
          "name": "_sqrtPriceX96",
          "type": "uint256[]"
        },
        {
          "internalType": "address[]",
          "name": "_firstToken",
          "type": "address[]"
        }
      ],
      "stateMutability": "view",
      "type": "function"
    },
    {
      "inputs": [
        {
          "internalType": "string",
          "name": "_name",
          "type": "string"
        },
        {
          "internalType": "address",
          "name": "_exchangeRouter",
          "type": "address"
        },
        {
          "internalType": "address",
          "name": "_quoterAddress",
          "type": "address"
        }
      ],
      "name": "initialize",
      "outputs": [],
      "stateMutability": "nonpayable",
      "type": "function"
    },
    {
      "inputs": [
        {
          "internalType": "address[]",
          "name": "_path",
          "type": "address[]"
        }
      ],
      "name": "isPathValid",
      "outputs": [
        {
          "internalType": "bool",
          "name": "_result",
          "type": "bool"
        }
      ],
      "stateMutability": "view",
      "type": "function"
    },
    {
      "inputs": [],
      "name": "liquidityPoolFactory",
      "outputs": [
        {
          "internalType": "address",
          "name": "",
          "type": "address"
        }
      ],
      "stateMutability": "view",
      "type": "function"
    },
    {
      "inputs": [],
      "name": "name",
      "outputs": [
        {
          "internalType": "string",
          "name": "",
          "type": "string"
        }
      ],
      "stateMutability": "view",
      "type": "function"
    },
    {
      "inputs": [],
      "name": "owner",
      "outputs": [
        {
          "internalType": "address",
          "name": "",
          "type": "address"
        }
      ],
      "stateMutability": "view",
      "type": "function"
    },
    {
      "inputs": [],
      "name": "positionManager",
      "outputs": [
        {
          "internalType": "address",
          "name": "",
          "type": "address"
        }
      ],
      "stateMutability": "view",
      "type": "function"
    },
    {
      "inputs": [],
      "name": "quoterAddress",
      "outputs": [
        {
          "internalType": "address",
          "name": "",
          "type": "address"
        }
      ],
      "stateMutability": "view",
      "type": "function"
    },
    {
      "inputs": [],
      "name": "renounceOwnership",
      "outputs": [],
      "stateMutability": "nonpayable",
      "type": "function"
    },
    {
      "inputs": [
        {
          "internalType": "address",
          "name": "_exchangeRouter",
          "type": "address"
        }
      ],
      "name": "setExchangeRouter",
      "outputs": [],
      "stateMutability": "nonpayable",
      "type": "function"
    },
    {
      "inputs": [
        {
          "internalType": "address",
          "name": "_firstToken",
          "type": "address"
        },
        {
          "internalType": "address",
          "name": "_secondToken",
          "type": "address"
        },
        {
          "internalType": "uint24",
          "name": "_feeTier",
          "type": "uint24"
        }
      ],
      "name": "setFeeTier",
      "outputs": [],
      "stateMutability": "nonpayable",
      "type": "function"
    },
    {
      "inputs": [],
      "name": "setLiquidityPoolFactory",
      "outputs": [],
      "stateMutability": "nonpayable",
      "type": "function"
    },
    {
      "inputs": [
        {
          "internalType": "uint256",
          "name": "_maxIters",
          "type": "uint256"
        }
      ],
      "name": "setMaxIters",
      "outputs": [],
      "stateMutability": "nonpayable",
      "type": "function"
    },
    {
      "inputs": [
        {
          "internalType": "uint256",
          "name": "_minGasReserve",
          "type": "uint256"
        }
      ],
      "name": "setMinGasReserve",
      "outputs": [],
      "stateMutability": "nonpayable",
      "type": "function"
    },
    {
      "inputs": [
        {
          "internalType": "address",
          "name": "_positionManager",
          "type": "address"
        }
      ],
      "name": "setPositionManager",
      "outputs": [],
      "stateMutability": "nonpayable",
      "type": "function"
    },
    {
      "inputs": [
        {
          "internalType": "uint256",
          "name": "_precision",
          "type": "uint256"
        }
      ],
      "name": "setPrecision",
      "outputs": [],
      "stateMutability": "nonpayable",
      "type": "function"
    },
    {
      "inputs": [
        {
          "internalType": "address",
          "name": "_quoterAddress",
          "type": "address"
        }
      ],
      "name": "setQuoter",
      "outputs": [],
      "stateMutability": "nonpayable",
      "type": "function"
    },
    {
      "inputs": [
        {
          "internalType": "uint256",
          "name": "_tolerance",
          "type": "uint256"
        }
      ],
      "name": "setTolerance",
      "outputs": [],
      "stateMutability": "nonpayable",
      "type": "function"
    },
    {
      "inputs": [],
      "name": "setWrappedNativeToken",
      "outputs": [],
      "stateMutability": "nonpayable",
      "type": "function"
    },
    {
      "inputs": [
        {
          "internalType": "uint256",
          "name": "_inputAmount",
          "type": "uint256"
        },
        {
          "internalType": "uint256",
          "name": "_outputAmount",
          "type": "uint256"
        },
        {
          "internalType": "address[]",
          "name": "_path",
          "type": "address[]"
        },
        {
          "internalType": "address",
          "name": "_to",
          "type": "address"
        },
        {
          "internalType": "uint256",
          "name": "_deadline",
          "type": "uint256"
        },
        {
          "internalType": "bool",
          "name": "_isFixedToken",
          "type": "bool"
        }
      ],
      "name": "swap",
      "outputs": [
        {
          "internalType": "bool",
          "name": "_result",
          "type": "bool"
        },
        {
          "internalType": "uint256[]",
          "name": "_amounts",
          "type": "uint256[]"
        }
      ],
      "stateMutability": "nonpayable",
      "type": "function"
    },
    {
      "inputs": [
        {
          "components": [
            {
              "internalType": "uint256",
              "name": "tokenId",
              "type": "uint256"
            },
            {
              "internalType": "address",
              "name": "token0",
              "type": "address"
            },
            {
              "internalType": "address",
              "name": "token1",
              "type": "address"
            },
            {
              "internalType": "uint24",
              "name": "feeTier",
              "type": "uint24"
            },
            {
              "internalType": "int24",
              "name": "tickLower",
              "type": "int24"
            },
            {
              "internalType": "int24",
              "name": "tickUpper",
              "type": "int24"
            },
            {
              "internalType": "uint256",
              "name": "amount0Desired",
              "type": "uint256"
            },
            {
              "internalType": "uint256",
              "name": "amount1Desired",
              "type": "uint256"
            },
            {
              "internalType": "address",
              "name": "user",
              "type": "address"
            }
          ],
          "internalType": "struct UniswapV3Connector.AddLiquidityParams",
          "name": "params",
          "type": "tuple"
        }
      ],
      "name": "swapAndAddLiquidity",
      "outputs": [
        {
          "internalType": "uint256",
          "name": "_tokenId",
          "type": "uint256"
        },
        {
          "internalType": "uint256",
          "name": "_remaining0",
          "type": "uint256"
        },
        {
          "internalType": "uint256",
          "name": "_remaining1",
          "type": "uint256"
        }
      ],
      "stateMutability": "nonpayable",
      "type": "function"
    },
    {
      "inputs": [
        {
          "internalType": "address",
          "name": "newOwner",
          "type": "address"
        }
      ],
      "name": "transferOwnership",
      "outputs": [],
      "stateMutability": "nonpayable",
      "type": "function"
    },
    {
      "inputs": [],
      "name": "wrappedNativeToken",
      "outputs": [
        {
          "internalType": "address",
          "name": "",
          "type": "address"
        }
      ],
      "stateMutability": "view",
      "type": "function"
    }
  ],
  "transactionHash": "0xb67a3eddb6451c878e9eb4d37c0b5a2dc47e607fdb482a33c9b02ff5f2bb5fc6",
  "args": [],
  "numDeployments": 1,
  "solcInputHash": "abd9781597c67e878f2c4eeb7ee4df2f",
  "bytecode": "0x608060405234801561001057600080fd5b50614e73806100206000396000f3fe608060405234801561001057600080fd5b50600436106101d85760003560e01c806301e65db3146101dd5780630337236a1461022657806304fe3fcb1461025157806306fdde031461026657806309924a401461027b57806311a2f0cb1461028e5780631580b5e5146102ae578063176f832e146102b657806317fcb39b146102c95780631cb85818146102dc57806326829bf9146102ef5780632a279b28146103025780633566967d1461032a5780633c5fd98214610354578063463fd1af146103675780635760f2e31461037a5780636145f8761461038d578063671c6a23146103a0578063715018a6146103b357806378c31684146103bb578063791b98bc146103dc5780638147b13b146103ef578063838b7ccb146104025780638779e3d61461041557806389883074146104375780638b1937cd146104515780638da5cb5b146104645780639b4bca241461046c578063aaf5eb681461048f578063b0bbcd88146104a6578063b18a313f146104c7578063b23e4fc6146104da578063b52d5b1e146104e2578063b9dc6bfa146104eb578063cd9d91f3146104f4578063dd0081c7146104fd578063df71d7f314610437578063e75d75d514610506578063f2fde38b14610519578063f912c64b1461052c575b600080fd5b61020d6101eb366004614034565b609c60209081526000928352604080842090915290825290205462ffffff1681565b60405162ffffff90911681526020015b60405180910390f35b61023961023436600461435f565b61053f565b6040516001600160801b03909116815260200161021d565b61026461025f36600461406c565b61056a565b005b61026e6105cd565b60405161021d91906149b0565b61026461028936600461444f565b61065b565b609b546102a1906001600160a01b031681565b60405161021d91906148dd565b610264610668565b6102646102c436600461444f565b610718565b6098546102a1906001600160a01b031681565b6099546102a1906001600160a01b031681565b6102646102fd36600461444f565b610725565b610315610310366004614304565b610732565b6040805192835260208301919091520161021d565b61033d6103383660046140e8565b61075f565b60408051921515835260208301919091520161021d565b61026461036236600461444f565b61081e565b610264610375366004614162565b61082b565b610264610388366004613ffc565b610aad565b61026e61039b3660046140b6565b610ad7565b6102a16103ae36600461406c565b610c01565b610264610d78565b6103ce6103c93660046140b6565b610d82565b60405161021d929190614970565b609d546102a1906001600160a01b031681565b6102a16103fd366004614146565b611196565b610264610410366004613ffc565b6111a7565b610428610423366004614212565b611286565b60405161021d93929190614be6565b61033d61044536600461447f565b60016000935093915050565b61033d61045f3660046140e8565b61200a565b6102a1612042565b61047f61047a3660046140b6565b612051565b604051901515815260200161021d565b61049860a05481565b60405190815260200161021d565b6104b96104b436600461460f565b612248565b60405161021d929190614995565b61026e6104d53660046140b6565b6125ea565b610264612728565b610498609f5481565b610498609e5481565b61049860a15481565b61049861271081565b609a546102a1906001600160a01b031681565b610264610527366004613ffc565b6127d8565b61026461053a366004613ffc565b612851565b600061055e8661054e8761287b565b6105578761287b565b8686612b36565b90505b95945050505050565b610572612bee565b6001600160a01b039283166000818152609c60208181526040808420969097168352948552858220805462ffffff90951662ffffff199586168117909155908552858220928252919093529290912080549091169091179055565b609780546105da90614d29565b80601f016020809104026020016040519081016040528092919081815260200182805461060690614d29565b80156106535780601f1061062857610100808354040283529160200191610653565b820191906000526020600020905b81548152906001019060200180831161063657829003601f168201915b505050505081565b610663612bee565b60a155565b610670612bee565b609960009054906101000a90046001600160a01b03166001600160a01b0316634aa4a4fc6040518163ffffffff1660e01b815260040160206040518083038186803b1580156106be57600080fd5b505afa1580156106d2573d6000803e3d6000fd5b505050506040513d601f19601f820116820180604052508101906106f69190614018565b609880546001600160a01b0319166001600160a01b0392909216919091179055565b610720612bee565b60a055565b61072d612bee565b609e55565b600080610751866107428761287b565b61074b8761287b565b86612c4d565b915091505b94509492505050565b60008061076b84612051565b61077a57506000905080610817565b609b546000906001600160a01b0316632f80bb1d610797876125ea565b866040518363ffffffff1660e01b81526004016107b59291906149c3565b600060405180830381600087803b1580156107cf57600080fd5b505af11580156107e3573d6000803e3d6000fd5b505050506040513d6000823e601f3d908101601f1916820160405261080b91908101906144b5565b50600195509193505050505b9250929050565b610826612bee565b609f55565b600054610100900460ff161580801561084b5750600054600160ff909116105b806108655750303b158015610865575060005460ff166001145b6108cd5760405162461bcd60e51b815260206004820152602e60248201527f496e697469616c697a61626c653a20636f6e747261637420697320616c72656160448201526d191e481a5b9a5d1a585b1a5e995960921b60648201526084015b60405180910390fd5b6000805460ff1916600117905580156108f0576000805461ff0019166101001790555b6108f8612ce8565b610900612d17565b8351610913906097906020870190613e14565b50609980546001600160a01b0319166001600160a01b0385169081179091556040805163c45a015560e01b8152905163c45a015591600480820192602092909190829003018186803b15801561096857600080fd5b505afa15801561097c573d6000803e3d6000fd5b505050506040513d601f19601f820116820180604052508101906109a09190614018565b609a80546001600160a01b03199081166001600160a01b0393841617909155609b8054909116848316179055609954604080516312a9293f60e21b815290519190921691634aa4a4fc916004808301926020929190829003018186803b158015610a0957600080fd5b505afa158015610a1d573d6000803e3d6000fd5b505050506040513d601f19601f82011682018060405250810190610a419190614018565b609880546001600160a01b0319166001600160a01b03929092169190911790558015610aa7576000805461ff0019169055604051600181527f7f26b83ff96e1f2b6a682f133852f6798a09c465da95921460cefb38474024989060200160405180910390a15b50505050565b610ab5612bee565b609d80546001600160a01b0319166001600160a01b0392909216919091179055565b606081600081518110610afa57634e487b7160e01b600052603260045260246000fd5b6020026020010151604051602001610b129190614862565b60408051601f19818403018152919052905060015b8251811015610bfb57600083610b3e600184614ccf565b81518110610b5c57634e487b7160e01b600052603260045260246000fd5b602002602001015190506000848381518110610b8857634e487b7160e01b600052603260045260246000fd5b6020908102919091018101516001600160a01b038085166000908152609c84526040808220928416825291845281902054905191935062ffffff1691610bd49187918491869101614896565b60405160208183030381529060405294505050508080610bf390614d5e565b915050610b27565b50919050565b609a54604051630b4c774160e11b815260009182916001600160a01b0390911690631698ee8290610c3a908890889088906004016148f1565b60206040518083038186803b158015610c5257600080fd5b505afa158015610c66573d6000803e3d6000fd5b505050506040513d601f19601f82011682018060405250810190610c8a9190614018565b60408051600481526024810182526020810180516001600160e01b0316633850c7bd60e01b179052905191925060009182916001600160a01b03851691610cd1919061487a565b600060405180830381855afa9150503d8060008114610d0c576040519150601f19603f3d011682016040523d82523d6000602084013e610d11565b606091505b509150915081610d595760405162461bcd60e51b815260206004820152601360248201527204661696c656420746f2067657420736c6f743606c1b60448201526064016108c4565b80806020019051810190610d6d9190614018565b979650505050505050565b610d80612bee565b565b60608060008060005b60018651610d999190614ccf565b81101561118e57609a5486516001600160a01b0390911690631698ee8290889084908110610dd757634e487b7160e01b600052603260045260246000fd5b602002602001015188846001610ded9190614c78565b81518110610e0b57634e487b7160e01b600052603260045260246000fd5b6020026020010151609c60008b8781518110610e3757634e487b7160e01b600052603260045260246000fd5b60200260200101516001600160a01b03166001600160a01b0316815260200190815260200160002060008b876001610e6f9190614c78565b81518110610e8d57634e487b7160e01b600052603260045260246000fd5b60200260200101516001600160a01b03166001600160a01b0316815260200190815260200160002060009054906101000a900462ffffff166040518463ffffffff1660e01b8152600401610ee3939291906148f1565b60206040518083038186803b158015610efb57600080fd5b505afa158015610f0f573d6000803e3d6000fd5b505050506040513d601f19601f82011682018060405250810190610f339190614018565b9250826001600160a01b0316633850c7bd6040518163ffffffff1660e01b815260040160e06040518083038186803b158015610f6e57600080fd5b505afa158015610f82573d6000803e3d6000fd5b505050506040513d601f19601f82011682018060405250810190610fa691906143b9565b505089516001600160a01b03909516965086948a945086935083109150610fdf905057634e487b7160e01b600052603260045260246000fd5b60200260200101818152505085818151811061100b57634e487b7160e01b600052603260045260246000fd5b60200260200101516001600160a01b0316836001600160a01b0316630dfe16816040518163ffffffff1660e01b815260040160206040518083038186803b15801561105557600080fd5b505afa158015611069573d6000803e3d6000fd5b505050506040513d601f19601f8201168201806040525081019061108d9190614018565b6001600160a01b03161415611109578581815181106110bc57634e487b7160e01b600052603260045260246000fd5b60200260200101518482815181106110e457634e487b7160e01b600052603260045260246000fd5b60200260200101906001600160a01b031690816001600160a01b03168152505061117c565b85611115826001614c78565b8151811061113357634e487b7160e01b600052603260045260246000fd5b602002602001015184828151811061115b57634e487b7160e01b600052603260045260246000fd5b60200260200101906001600160a01b031690816001600160a01b0316815250505b8061118681614d5e565b915050610d8b565b505050915091565b60006111a18261287b565b92915050565b806001600160a01b0381166111ce5760405162461bcd60e51b81526004016108c4906149e5565b6111d6612bee565b609980546001600160a01b0319166001600160a01b0384169081179091556040805163c45a015560e01b8152905163c45a015591600480820192602092909190829003018186803b15801561122a57600080fd5b505afa15801561123e573d6000803e3d6000fd5b505050506040513d601f19601f820116820180604052508101906112629190614018565b609a80546001600160a01b0319166001600160a01b03929092169190911790555050565b6000806000611293612d46565b60a1545a10156112e35760405162461bcd60e51b815260206004820152601b60248201527a556e69737761705633436f6e6e6563746f723a206c6f772067617360281b60448201526064016108c4565b609a54602085015160408087015160608801519151630b4c774160e11b81526000946001600160a01b031693631698ee82936113239391926004016148f1565b60206040518083038186803b15801561133b57600080fd5b505afa15801561134f573d6000803e3d6000fd5b505050506040513d601f19601f820116820180604052508101906113739190614018565b905084602001516001600160a01b0316816001600160a01b0316630dfe16816040518163ffffffff1660e01b815260040160206040518083038186803b1580156113bc57600080fd5b505afa1580156113d0573d6000803e3d6000fd5b505050506040513d601f19601f820116820180604052508101906113f49190614018565b6001600160a01b0316146114325760c0850180516020870180516040890180516001600160a01b039081169093529116905260e08701805190925290525b84511561160e57609d54855160405163133f757160e31b81526004810191909152600091829182916001600160a01b0316906399fbab88906024016101806040518083038186803b15801561148657600080fd5b505afa15801561149a573d6000803e3d6000fd5b505050506040513d601f19601f820116820180604052508101906114be919061468c565b505050505096509650965050505050876060015162ffffff168362ffffff16146115385760405162461bcd60e51b815260206004820152602560248201527f556e69737761705633436f6e6e6563746f723a204665652074696572206d69736044820152640dac2e8c6d60db1b60648201526084016108c4565b876080015160020b8260020b146115a15760405162461bcd60e51b815260206004820152602760248201527f556e69737761705633436f6e6e6563746f723a205469636b206c6f776572206d6044820152660d2e6dac2e8c6d60cb1b60648201526084016108c4565b8760a0015160020b8160020b1461160a5760405162461bcd60e51b815260206004820152602760248201527f556e69737761705633436f6e6e6563746f723a205469636b207570706572206d6044820152660d2e6dac2e8c6d60cb1b60648201526084016108c4565b5050505b61163633308760c0015188602001516001600160a01b0316612da0909392919063ffffffff16565b61165e33308760e0015188604001516001600160a01b0316612da0909392919063ffffffff16565b602085015160995460c087015160405163095ea7b360e01b81526001600160a01b039384169363095ea7b39361169993911691600401614919565b602060405180830381600087803b1580156116b357600080fd5b505af11580156116c7573d6000803e3d6000fd5b505050506040513d601f19601f820116820180604052508101906116eb919061412a565b5060408086015160995460e0880151925163095ea7b360e01b81526001600160a01b039283169363095ea7b393611726931691600401614919565b602060405180830381600087803b15801561174057600080fd5b505af1158015611754573d6000803e3d6000fd5b505050506040513d601f19601f82011682018060405250810190611778919061412a565b506020850151609d5460405163095ea7b360e01b81526001600160a01b039283169263095ea7b3926117b39291169060001990600401614919565b602060405180830381600087803b1580156117cd57600080fd5b505af11580156117e1573d6000803e3d6000fd5b505050506040513d601f19601f82011682018060405250810190611805919061412a565b50604080860151609d54915163095ea7b360e01b81526001600160a01b039182169263095ea7b3926118409291169060001990600401614919565b602060405180830381600087803b15801561185a57600080fd5b505af115801561186e573d6000803e3d6000fd5b505050506040513d601f19601f82011682018060405250810190611892919061412a565b5060006118ac866020015187604001518860600151610c01565b905060006118dd826118c1896080015161287b565b6118ce8a60a0015161287b565b8a60c001518b60e00151612b36565b9050600080611900846118f38b6080015161287b565b61074b8c60a0015161287b565b9150915060008082118015611923575060a05461191f90600019614c90565b8311155b15611948578160a054846119379190614cb0565b6119419190614c90565b905061194d565b506000195b6000808b60e00151118015611974575060a05461196c90600019614c90565b8b60c0015111155b156119a1578a60e0015160a0548c60c001516119909190614cb0565b61199a9190614c90565b90506119a6565b506000195b6000828211156119c9576119c28860018e60c001518f87612e0b565b9050611a34565b82821080156119d85750600083115b15611a3457611a318860008e60e001518f60008a118015611a07575060a054611a0390600019614c90565b8911155b611a1357600019612e0b565b8960a0548a611a229190614cb0565b611a2c9190614c90565b612e0b565b90505b60018115151415611e72578b51611c6e57609d60009054906101000a90046001600160a01b03166001600160a01b031663883164566040518061016001604052808f602001516001600160a01b031681526020018f604001516001600160a01b031681526020018f6060015162ffffff1681526020018f6080015160020b81526020018f60a0015160020b81526020018f602001516001600160a01b03166370a08231306040518263ffffffff1660e01b8152600401611af491906148dd565b60206040518083038186803b158015611b0c57600080fd5b505afa158015611b20573d6000803e3d6000fd5b505050506040513d601f19601f82011682018060405250810190611b449190614467565b81526020018f604001516001600160a01b03166370a08231306040518263ffffffff1660e01b8152600401611b7991906148dd565b60206040518083038186803b158015611b9157600080fd5b505afa158015611ba5573d6000803e3d6000fd5b505050506040513d601f19601f82011682018060405250810190611bc99190614467565b815260200160008152602001600081526020018f61010001516001600160a01b03168152602001428152506040518263ffffffff1660e01b8152600401611c109190614b30565b608060405180830381600087803b158015611c2a57600080fd5b505af1158015611c3e573d6000803e3d6000fd5b505050506040513d601f19601f82011682018060405250810190611c62919061458d565b50919c50611e72915050565b8b600001519a50609d60009054906101000a90046001600160a01b03166001600160a01b031663219f5d176040518060c001604052808f6000015181526020018f602001516001600160a01b03166370a08231306040518263ffffffff1660e01b8152600401611cde91906148dd565b60206040518083038186803b158015611cf657600080fd5b505afa158015611d0a573d6000803e3d6000fd5b505050506040513d601f19601f82011682018060405250810190611d2e9190614467565b81526020018f604001516001600160a01b03166370a08231306040518263ffffffff1660e01b8152600401611d6391906148dd565b60206040518083038186803b158015611d7b57600080fd5b505afa158015611d8f573d6000803e3d6000fd5b505050506040513d601f19601f82011682018060405250810190611db39190614467565b8152600060208083018290526040808401929092524260609384015281516001600160e01b031960e087901b168152845160048201529084015160248201529083015160448201529082015160648201526080820151608482015260a09091015160a482015260c401606060405180830381600087803b158015611e3657600080fd5b505af1158015611e4a573d6000803e3d6000fd5b505050506040513d601f19601f82011682018060405250810190611e6e91906142ce565b5050505b8b602001516001600160a01b03166370a08231306040518263ffffffff1660e01b8152600401611ea291906148dd565b60206040518083038186803b158015611eba57600080fd5b505afa158015611ece573d6000803e3d6000fd5b505050506040513d601f19601f82011682018060405250810190611ef29190614467565b99508b604001516001600160a01b03166370a08231306040518263ffffffff1660e01b8152600401611f2491906148dd565b60206040518083038186803b158015611f3c57600080fd5b505afa158015611f50573d6000803e3d6000fd5b505050506040513d601f19601f82011682018060405250810190611f749190614467565b98508915611f955760208c0151611f95906001600160a01b0316338c6131ee565b8815611fb45760408c0151611fb4906001600160a01b0316338b6131ee565b7f1f515950ae0671cc6356d5014eac559a4c7093757efea02e83e7c21398fdb5d78c8b8b8e604051611fe99493929190614a65565b60405180910390a150505050505050506120036001606555565b9193909250565b60008061201684612051565b61202557506000905080610817565b609b546000906001600160a01b031663cdca175361079787610ad7565b6033546001600160a01b031690565b6000806002835110156120675750600092915050565b60005b600184516120789190614ccf565b81101561223e57609a5484516001600160a01b0390911690631698ee82908690849081106120b657634e487b7160e01b600052603260045260246000fd5b6020026020010151868460016120cc9190614c78565b815181106120ea57634e487b7160e01b600052603260045260246000fd5b6020026020010151609c600089878151811061211657634e487b7160e01b600052603260045260246000fd5b60200260200101516001600160a01b03166001600160a01b0316815260200190815260200160002060008987600161214e9190614c78565b8151811061216c57634e487b7160e01b600052603260045260246000fd5b60200260200101516001600160a01b03166001600160a01b0316815260200190815260200160002060009054906101000a900462ffffff166040518463ffffffff1660e01b81526004016121c2939291906148f1565b60206040518083038186803b1580156121da57600080fd5b505afa1580156121ee573d6000803e3d6000fd5b505050506040513d601f19601f820116820180604052508101906122129190614018565b91506001600160a01b03821661222c575060009392505050565b8061223681614d5e565b91505061206a565b5060019392505050565b60006060612254612d46565b846001600160a01b03811661227b5760405162461bcd60e51b81526004016108c4906149e5565b600061228a8a8a8a8989613219565b909450905083156125d3576040805160028082526060820183526000926020830190803683370190505093506122fe3330848c6000815181106122dd57634e487b7160e01b600052603260045260246000fd5b60200260200101516001600160a01b0316612da0909392919063ffffffff16565b8860008151811061231f57634e487b7160e01b600052603260045260246000fd5b602090810291909101015160995460405163095ea7b360e01b81526001600160a01b039283169263095ea7b39261235d929116908690600401614919565b602060405180830381600087803b15801561237757600080fd5b505af115801561238b573d6000803e3d6000fd5b505050506040513d601f19601f820116820180604052508101906123af919061412a565b50600186151514156124a6576099546001600160a01b031663c04b8d596123d9848d8d8d8d6132d5565b6040518263ffffffff1660e01b81526004016123f59190614b1d565b602060405180830381600087803b15801561240f57600080fd5b505af1158015612423573d6000803e3d6000fd5b505050506040513d601f19601f820116820180604052508101906124479190614467565b9050818460008151811061246b57634e487b7160e01b600052603260045260246000fd5b602002602001018181525050808460018151811061249957634e487b7160e01b600052603260045260246000fd5b6020026020010181815250505b85612596576099546001600160a01b031663f28c04986124c9848d8d8d8d613352565b6040518263ffffffff1660e01b81526004016124e59190614b1d565b602060405180830381600087803b1580156124ff57600080fd5b505af1158015612513573d6000803e3d6000fd5b505050506040513d601f19601f820116820180604052508101906125379190614467565b9050808460008151811061255b57634e487b7160e01b600052603260045260246000fd5b602002602001018181525050898460018151811061258957634e487b7160e01b600052603260045260246000fd5b6020026020010181815250505b7fe1010d0ab476908054981d12fbb96915efcceb8d57a09ae8ca62f4bda731837389858a6040516125c993929190614932565b60405180910390a1505b50506125df6001606555565b965096945050505050565b606081600183516125fb9190614ccf565b8151811061261957634e487b7160e01b600052603260045260246000fd5b60200260200101516040516020016126319190614862565b60405160208183030381529060405290506000600183516126529190614ccf565b90505b8015610bfb57600083828151811061267d57634e487b7160e01b600052603260045260246000fd5b602002602001015190506000846001846126979190614ccf565b815181106126b557634e487b7160e01b600052603260045260246000fd5b6020908102919091018101516001600160a01b038085166000908152609c84526040808220928416825291845281902054905191935062ffffff16916127019187918491869101614896565b6040516020818303038152906040529450505050808061272090614d12565b915050612655565b612730612bee565b609960009054906101000a90046001600160a01b03166001600160a01b031663c45a01556040518163ffffffff1660e01b815260040160206040518083038186803b15801561277e57600080fd5b505afa158015612792573d6000803e3d6000fd5b505050506040513d601f19601f820116820180604052508101906127b69190614018565b609a80546001600160a01b0319166001600160a01b0392909216919091179055565b6127e0612bee565b6001600160a01b0381166128455760405162461bcd60e51b815260206004820152602660248201527f4f776e61626c653a206e6577206f776e657220697320746865207a65726f206160448201526564647265737360d01b60648201526084016108c4565b61284e816133d0565b50565b612859612bee565b609b80546001600160a01b0319166001600160a01b0392909216919091179055565b60020b600060ff82901d80830118620d89e88111156128a5576128a56345c3193d60e11b84613422565b7001fffcb933bd6fad37aa2d162d1a5940016001821602600160801b1860028216156128e1576ffff97272373d413259a46990580e213a0260801c5b6004821615612900576ffff2e50f5f656932ef12357cf3c7fdcc0260801c5b600882161561291f576fffe5caca7e10e4e61c3624eaa0941cd00260801c5b601082161561293e576fffcb9843d60f6159c9db58835c9266440260801c5b602082161561295d576fff973b41fa98c081472e6896dfb254c00260801c5b604082161561297c576fff2ea16466c96a3843ec78b326b528610260801c5b608082161561299b576ffe5dee046a99a2a811c461f1969c30530260801c5b6101008216156129bb576ffcbe86c7900a88aedcffc83b479aa3a40260801c5b6102008216156129db576ff987a7253ac413176f2b074cf7815e540260801c5b6104008216156129fb576ff3392b0822b70005940c7a398e4b70f30260801c5b610800821615612a1b576fe7159475a2c29b7443b29c7fa6e889d90260801c5b611000821615612a3b576fd097f3bdfd2022b8845ad8f792aa58250260801c5b612000821615612a5b576fa9f746462d870fdf8a65dc1f90e061e50260801c5b614000821615612a7b576f70d869a156d2a1b890bb3df62baf32f70260801c5b618000821615612a9b576f31be135f97d08fd981231505542fcfa60260801c5b62010000821615612abc576f09aa508b5b7a84e1c677de54f3e99bc90260801c5b62020000821615612adc576e5d6af8dedb81196699c329225ee6040260801c5b62040000821615612afb576d2216e584f5fa1ea926041bedfe980260801c5b62080000821615612b18576b048a170391f7dc42444e8fa20260801c5b6000841315612b2657600019045b63ffffffff0160201c9392505050565b6000836001600160a01b0316856001600160a01b03161115612b56579293925b846001600160a01b0316866001600160a01b031611612b8157612b7a858585613433565b9050610561565b836001600160a01b0316866001600160a01b03161015612be3576000612ba8878686613433565b90506000612bb78789866134a1565b9050806001600160801b0316826001600160801b031610612bd85780612bda565b815b92505050610561565b61055e8585846134a1565b33612bf7612042565b6001600160a01b031614610d805760405162461bcd60e51b815260206004820181905260248201527f4f776e61626c653a2063616c6c6572206973206e6f7420746865206f776e657260448201526064016108c4565b600080836001600160a01b0316856001600160a01b03161115612c6e579293925b846001600160a01b0316866001600160a01b031611612c9957612c928585856134e6565b9150610756565b836001600160a01b0316866001600160a01b03161015612cd257612cbe8685856134e6565b9150612ccb858785613563565b9050610756565b612cdd858585613563565b905094509492505050565b600054610100900460ff16612d0f5760405162461bcd60e51b81526004016108c490614a1a565b610d806135a6565b600054610100900460ff16612d3e5760405162461bcd60e51b81526004016108c490614a1a565b610d806135d6565b60026065541415612d995760405162461bcd60e51b815260206004820152601f60248201527f5265656e7472616e637947756172643a207265656e7472616e742063616c6c0060448201526064016108c4565b6002606555565b6040516001600160a01b0380851660248301528316604482015260648101829052610aa79085906323b872dd60e01b906084015b60408051601f198184030181529190526020810180516001600160e01b03166001600160e01b0319909316929092179091526135fd565b6040805161010081018252600080825260208201819052918101829052606081018290526080810182905260a0810182905260c0810182905260e08101829052819081906000612e68876020015188604001518960600151610c01565b9050600080612f0183612e7e8b6080015161287b565b612e8b8c60a0015161287b565b8f6001600160a01b0316631a6865026040518163ffffffff1660e01b815260040160206040518083038186803b158015612ec457600080fd5b505afa158015612ed8573d6000803e3d6000fd5b505050506040513d601f19601f82011682018060405250810190612efc91906142b2565b612c4d565b915091508a15612f9257612f188a8a8a85856136cf565b95506040518061010001604052808a602001516001600160a01b031681526020018a604001516001600160a01b031681526020018a6060015162ffffff168152602001306001600160a01b031681526020014281526020018781526020016000815260200160006001600160a01b0316815250935061309d565b6000604051806101200160405280600081526020018b604001516001600160a01b031681526020018b602001516001600160a01b031681526020018b6060015162ffffff1681526020018b6080015160020b81526020018b60a0015160020b81526020018b60e0015181526020018b60c001518152602001306001600160a01b031681525090506130268b828b85876136cf565b96506040518061010001604052808b604001516001600160a01b031681526020018b602001516001600160a01b031681526020018b6060015162ffffff168152602001306001600160a01b031681526020014281526020018881526020016000815260200160006001600160a01b03168152509450505b8515613181576099546040805163414bf38960e01b815286516001600160a01b0390811660048301526020880151811660248301529187015162ffffff1660448201526060870151821660648201526080870151608482015260a087015160a482015260c087015160c482015260e0870151821660e482015291169063414bf3899061010401602060405180830381600087803b15801561313d57600080fd5b505af192505050801561316d575060408051601f3d908101601f1916820190925261316a91810190614467565b60015b61317a5760009650613181565b6001975094505b600187151514156131df57604080518c151581526020810188905290810186905260608101839052608081018290527f930522e019723ff432e1a8923b25ab0a8a9fe4dcc26f41b33762778f1b45bc989060a0015b60405180910390a15b50505050505095945050505050565b61320d8363a9059cbb60e01b8484604051602401612dd4929190614919565b505050565b6001606555565b6000804284101561322f575060009050806132cb565b6001831515141561328357600080613247878a61200a565b90925090508161325f576000809350935050506132cb565b80881115613275576000809350935050506132cb565b6001899350935050506132cb565b600080613290878961075f565b9092509050816132a8576000809350935050506132cb565b808910156132be576000809350935050506132cb565b6001935091506132cb9050565b9550959350505050565b6133106040518060a001604052806060815260200160006001600160a01b031681526020016000815260200160008152602001600081525090565b6040518060a0016040528061332486610ad7565b81526001600160a01b0390941660208501526040840192909252506060820194909452608001919091525090565b61338d6040518060a001604052806060815260200160006001600160a01b031681526020016000815260200160008152602001600081525090565b6040518060a001604052806133a1866125ea565b8152602001846001600160a01b0316815260200183815260200186815260200187815250905095945050505050565b603380546001600160a01b038381166001600160a01b0319831681179093556040519116919082907f8be0079c531659141344cd1fd0a4f28419497f9722a3daafe3b4186f6b6457e090600090a35050565b816000528060020b60045260246000fd5b6000826001600160a01b0316846001600160a01b03161115613453579192915b6000613476856001600160a01b0316856001600160a01b0316600160601b613a9d565b905061349661349184838888036001600160a01b0316613a9d565b613b3c565b9150505b9392505050565b6000826001600160a01b0316846001600160a01b031611156134c1579192915b6134de61349183600160601b8787036001600160a01b0316613a9d565b949350505050565b6000826001600160a01b0316846001600160a01b03161115613506579192915b836001600160a01b031661353f606060ff16846001600160801b0316901b8686036001600160a01b0316866001600160a01b0316613a9d565b8161355a57634e487b7160e01b600052601260045260246000fd5b04949350505050565b6000826001600160a01b0316846001600160a01b03161115613583579192915b6134de826001600160801b03168585036001600160a01b0316600160601b613a9d565b600054610100900460ff166135cd5760405162461bcd60e51b81526004016108c490614a1a565b610d80336133d0565b600054610100900460ff166132125760405162461bcd60e51b81526004016108c490614a1a565b6000613652826040518060400160405280602081526020017f5361666545524332303a206c6f772d6c6576656c2063616c6c206661696c6564815250856001600160a01b0316613b629092919063ffffffff16565b80519091501561320d5780806020019051810190613670919061412a565b61320d5760405162461bcd60e51b815260206004820152602a60248201527f5361666545524332303a204552433230206f7065726174696f6e20646964206e6044820152691bdd081cdd58d8d9595960b21b60648201526084016108c4565b60008460c00151600014156136e657506000610561565b6000808660e0015111801561370d575060a05461370590600019614c90565b8660c0015111155b6137195760001961373a565b8560e0015160a0548760c001516137309190614cb0565b61373a9190614c90565b90508481141561374e576000915050610561565b60c0860151600019906000908180805b609e548160ff161080156137725750838511155b15613a7b57600060016137858688614c78565b901c90508061379757600092506137b2565b6137af8d602001518e604001518f6060015184613b71565b92505b60008d60e001516000196137c69190614ccf565b8411156137d5576000196137e5565b838e60e001516137e59190614c78565b118015613822575060a0546137fc90600019614c90565b818e60c00151101561380f57600061381f565b818e60c0015161381f9190614ccf565b11155b61382e57600019613898565b60e08d015161383f90600019614ccf565b83111561384e5760001961385e565b828d60e0015161385e9190614c78565b60a054828f60c001511015613874576000613884565b828f60c001516138849190614ccf565b61388e9190614cb0565b6138989190614c90565b97506000838b116138aa5760006138b4565b6138b4848c614ccf565b1180156138cc57506138c881600019614ccf565b8b11155b80156138ef575060a0546138e290600019614c90565b6138ec828d614c78565b11155b6138fb57600019613934565b828a11613909576000613913565b613913838b614ccf565b60a054613920838e614c78565b61392a9190614cb0565b6139349190614c90565b93506000808511613947576000196139e3565b84891161399b5761395c612710600019614c90565b6139668a87614ccf565b1115613974576000196139e3565b846127106139828b83614ccf565b61398c9190614cb0565b6139969190614c90565b6139e3565b6139a9612710600019614c90565b6139b3868b614ccf565b11156139c1576000196139e3565b846127106139cf828c614ccf565b6139d99190614cb0565b6139e39190614c90565b9050878110156139f4578097508199505b609f548111613a3457600080516020614e1e83398151915289868f604051613a1e93929190614be6565b60405180910390a1505050505050505050610561565b84891115613a4e57613a47826001614c78565b9650613a68565b81613a5a575050613a7b565b613a65600183614ccf565b95505b505080613a7490614d79565b905061375e565b50600080516020614e1e83398151915286838c6040516131d693929190614be6565b60008383028160001985870982811083820303915050808411613abf57600080fd5b80613acf5750829004905061349a565b6000848688096000868103871696879004966002600389028118808a02820302808a02820302808a02820302808a02820302808a02820302808a02909103029181900381900460010186841190950394909402919094039290920491909117919091029150509392505050565b806001600160801b0381168114613b5d57613b5d6393dafdf160e01b613cb9565b919050565b60606134de8484600085613cc3565b609b546040805160a0810182526001600160a01b0387811682528681166020830190815282840186815262ffffff888116606086019081526000608087018181529751636352813560e11b81529651861660048801529351851660248701529151604486015290511660648401529251811660848301529192919091169063c6a5026a9060a401608060405180830381600087803b158015613c1257600080fd5b505af1925050508015613c42575060408051601f3d908101601f19168201909252613c3f918101906145ca565b60015b613c4e57506000613c55565b5091925050505b604080516001600160a01b0387811682528616602082015262ffffff851681830152606081018490526080810183905290517f81b09b5692a89d67c3335a9f1bc50937627e1853e978e56ad6964b65756289ee9181900360a00190a1949350505050565b8060005260046000fd5b606082471015613d245760405162461bcd60e51b815260206004820152602660248201527f416464726573733a20696e73756666696369656e742062616c616e636520666f6044820152651c8818d85b1b60d21b60648201526084016108c4565b843b613d725760405162461bcd60e51b815260206004820152601d60248201527f416464726573733a2063616c6c20746f206e6f6e2d636f6e747261637400000060448201526064016108c4565b600080866001600160a01b03168587604051613d8e919061487a565b60006040518083038185875af1925050503d8060008114613dcb576040519150601f19603f3d011682016040523d82523d6000602084013e613dd0565b606091505b5091509150610d6d82828660608315613dea57508161349a565b825115613dfa5782518084602001fd5b8160405162461bcd60e51b81526004016108c491906149b0565b828054613e2090614d29565b90600052602060002090601f016020900481019282613e425760008555613e88565b82601f10613e5b57805160ff1916838001178555613e88565b82800160010185558215613e88579182015b82811115613e88578251825591602001919060010190613e6d565b50613e94929150613e98565b5090565b5b80821115613e945760008155600101613e99565b8035613b5d81614dc5565b8051613b5d81614dc5565b600082601f830112613ed3578081fd5b81356020613ee8613ee383614c55565b614c25565b80838252828201915082860187848660051b8901011115613f07578586fd5b855b85811015613f2e578135613f1c81614dc5565b84529284019290840190600101613f09565b5090979650505050505050565b600082601f830112613f4b578081fd5b81516020613f5b613ee383614c55565b80838252828201915082860187848660051b8901011115613f7a578586fd5b855b85811015613f2e57613f8d82613fe8565b84529284019290840190600101613f7c565b8035613b5d81614de8565b8051613b5d81614de8565b8051613b5d81614df7565b805161ffff81168114613b5d57600080fd5b8035613b5d81614e0c565b8051613b5d81614e0c565b805163ffffffff81168114613b5d57600080fd5b60006020828403121561400d578081fd5b813561349a81614dc5565b600060208284031215614029578081fd5b815161349a81614dc5565b60008060408385031215614046578081fd5b823561405181614dc5565b9150602083013561406181614dc5565b809150509250929050565b600080600060608486031215614080578081fd5b833561408b81614dc5565b9250602084013561409b81614dc5565b915060408401356140ab81614e0c565b809150509250925092565b6000602082840312156140c7578081fd5b81356001600160401b038111156140dc578182fd5b6134de84828501613ec3565b600080604083850312156140fa578182fd5b82356001600160401b0381111561410f578283fd5b61411b85828601613ec3565b95602094909401359450505050565b60006020828403121561413b578081fd5b815161349a81614dda565b600060208284031215614157578081fd5b813561349a81614de8565b600080600060608486031215614176578081fd5b83356001600160401b038082111561418c578283fd5b818601915086601f83011261419f578283fd5b81356020828211156141b3576141b3614daf565b6141c5601f8301601f19168201614c25565b925081835288818386010111156141da578485fd5b8181850182850137848183850101528296506141f7818901613ead565b95505050505061420960408501613ead565b90509250925092565b60006101208284031215614224578081fd5b61422c614bfc565b8235815261423c60208401613ead565b602082015261424d60408401613ead565b604082015261425e60608401613fd2565b606082015261426f60808401613f9f565b608082015261428060a08401613f9f565b60a082015260c083013560c082015260e083013560e08201526101006142a7818501613ead565b908201529392505050565b6000602082840312156142c3578081fd5b815161349a81614df7565b6000806000606084860312156142e2578081fd5b83516142ed81614df7565b602085015160409095015190969495509392505050565b60008060008060808587031215614319578182fd5b843561432481614dc5565b9350602085013561433481614de8565b9250604085013561434481614de8565b9150606085013561435481614df7565b939692955090935050565b600080600080600060a08688031215614376578283fd5b853561438181614dc5565b9450602086013561439181614de8565b935060408601356143a181614de8565b94979396509394606081013594506080013592915050565b600080600080600080600060e0888a0312156143d3578485fd5b87516143de81614dc5565b60208901519097506143ef81614de8565b95506143fd60408901613fc0565b945061440b60608901613fc0565b935061441960808901613fc0565b925060a088015160ff8116811461442e578283fd5b60c089015190925061443f81614dda565b8091505092959891949750929550565b600060208284031215614460578081fd5b5035919050565b600060208284031215614478578081fd5b5051919050565b600080600060608486031215614493578081fd5b8335925060208401356144a581614dc5565b915060408401356140ab81614dc5565b600080600080608085870312156144ca578182fd5b8451602080870151919550906001600160401b03808211156144ea578485fd5b818801915088601f8301126144fd578485fd5b815161450b613ee382614c55565b8082825285820191508585018c878560051b880101111561452a578889fd5b8895505b8386101561455557805161454181614dc5565b83526001959095019491860191860161452e565b5060408b0151909850945050508083111561456e578485fd5b505061457c87828801613f3b565b606096909601519497939650505050565b600080600080608085870312156145a2578182fd5b8451935060208501516145b481614df7565b6040860151606090960151949790965092505050565b600080600080608085870312156145df578182fd5b8451935060208501516145f181614dc5565b92506145ff60408601613fe8565b6060959095015193969295505050565b60008060008060008060c08789031215614627578384fd5b863595506020870135945060408701356001600160401b0381111561464a578485fd5b61465689828a01613ec3565b945050606087013561466781614dc5565b92506080870135915060a087013561467e81614dda565b809150509295509295509295565b6000806000806000806000806000806000806101808d8f0312156146ae578586fd5b8c516001600160601b03811681146146c4578687fd5b9b506146d260208e01613eb8565b9a506146e060408e01613eb8565b99506146ee60608e01613eb8565b98506146fc60808e01613fdd565b975061470a60a08e01613faa565b965061471860c08e01613faa565b955061472660e08e01613fb5565b94506101008d015193506101208d015192506147456101408e01613fb5565b91506147546101608e01613fb5565b90509295989b509295989b509295989b565b6001600160a01b03169052565b6000815180845260208085019450808401835b838110156147ab5781516001600160a01b031687529582019590820190600101614786565b509495945050505050565b6000815180845260208085019450808401835b838110156147ab578151875295820195908201906001016147c9565b600081518084526147fd816020860160208601614ce6565b601f01601f19169290920160200192915050565b6000815160a0845261482660a08501826147e5565b6020848101516001600160a01b031690860152604080850151908601526060808501519086015260809384015193909401929092525090919050565b60609190911b6001600160601b031916815260140190565b6000825161488c818460208701614ce6565b9190910192915050565b600084516148a8818460208901614ce6565b60e89490941b6001600160e81b0319169190930190815260609190911b6001600160601b031916600382015260170192915050565b6001600160a01b0391909116815260200190565b6001600160a01b03938416815291909216602082015262ffffff909116604082015260600190565b6001600160a01b03929092168252602082015260400190565b6060815260006149456060830186614773565b828103602084015261495781866147b6565b91505060018060a01b0383166040830152949350505050565b60408152600061498360408301856147b6565b82810360208401526134968185614773565b82151581526040602082015260006134de60408301846147b6565b60208152600061349a60208301846147e5565b6040815260006149d660408301856147e5565b90508260208301529392505050565b6020808252818101527f556e69737761705633436f6e6e6563746f723a207a65726f2061646472657373604082015260600190565b6020808252602b908201527f496e697469616c697a61626c653a20636f6e7472616374206973206e6f74206960408201526a6e697469616c697a696e6760a81b606082015260800190565b845181526020808601516001600160a01b031690820152604080860151610180830191614a9490840182614766565b506060860151614aab606084018262ffffff169052565b506080860151614ac0608084018260020b9052565b5060a0860151614ad560a084018260020b9052565b5060c086015160c083015260e086015160e083015261010080870151614afd82850182614766565b505084610120830152836101408301528261016083015295945050505050565b60208152600061349a6020830184614811565b600061016082019050614b44828451614766565b6020830151614b566020840182614766565b506040830151614b6d604084018262ffffff169052565b506060830151614b82606084018260020b9052565b506080830151614b97608084018260020b9052565b5060a083015160a083015260c083015160c083015260e083015160e083015261010080840151818401525061012080840151614bd582850182614766565b505061014092830151919092015290565b9283526020830191909152604082015260600190565b60405161012081016001600160401b0381118282101715614c1f57614c1f614daf565b60405290565b604051601f8201601f191681016001600160401b0381118282101715614c4d57614c4d614daf565b604052919050565b60006001600160401b03821115614c6e57614c6e614daf565b5060051b60200190565b60008219821115614c8b57614c8b614d99565b500190565b600082614cab57634e487b7160e01b81526012600452602481fd5b500490565b6000816000190483118215151615614cca57614cca614d99565b500290565b600082821015614ce157614ce1614d99565b500390565b60005b83811015614d01578181015183820152602001614ce9565b83811115610aa75750506000910152565b600081614d2157614d21614d99565b506000190190565b600181811c90821680614d3d57607f821691505b60208210811415610bfb57634e487b7160e01b600052602260045260246000fd5b6000600019821415614d7257614d72614d99565b5060010190565b600060ff821660ff811415614d9057614d90614d99565b60010192915050565b634e487b7160e01b600052601160045260246000fd5b634e487b7160e01b600052604160045260246000fd5b6001600160a01b038116811461284e57600080fd5b801515811461284e57600080fd5b8060020b811461284e57600080fd5b6001600160801b038116811461284e57600080fd5b62ffffff8116811461284e57600080fdfea7a3c462ea5cf8a25c56064b25f60dc8dc6f9c22fe713da4044e8131ac28d483a2646970667358221220582530a7cd4d96bdf21a00e776e63214091f35a610f1796b743ba3b29bbd4c3964736f6c63430008040033",
  "devdoc": {
    "kind": "dev",
    "methods": {
      "getExactInput(address[],uint256)": {
        "details": "Return (false, 0) if DEX cannot swap the input amount"
      },
      "getExactOutput(address[],uint256)": {
        "details": "Return (false, 0) if DEX cannot give the output amount.       Note: No need to reverse the path for this function"
      },
      "initialize(string,address,address)": {
        "params": {
          "_exchangeRouter": "Address of the DEX router contract",
          "_name": "Name of the underlying DEX"
        }
      },
      "isPathValid(address[])": {
        "params": {
          "_path": "List of tokens that are used for exchanging"
        }
      },
      "owner()": {
        "details": "Returns the address of the current owner."
      },
      "renounceOwnership()": {
        "details": "Leaves the contract without owner. It will not be possible to call `onlyOwner` functions. Can only be called by the current owner. NOTE: Renouncing ownership will leave the contract without an owner, thereby disabling any functionality that is only available to the owner."
      },
      "setExchangeRouter(address)": {
        "details": "Set address of liquidity pool factory from the exchange router",
        "params": {
          "_exchangeRouter": "Address of the new exchange router contract"
        }
      },
      "setFeeTier(address,address,uint24)": {
        "details": "We set the fee tier that is used for exchanging tokens"
      },
      "setLiquidityPoolFactory()": {
        "details": "Set address from exchange router"
      },
      "setWrappedNativeToken()": {
        "details": "Get address from exchange router"
      },
      "swap(uint256,uint256,address[],address,uint256,bool)": {
        "details": "Check exchange conditions before exchanging      We assume that the input token is not WETH (it is teleBTC)",
        "params": {
          "_deadline": "Deadline of exchanging tokens",
          "_inputAmount": "Amount of input token",
          "_isFixedToken": "True if the input token amount is fixed",
          "_outputAmount": "Amount of output token",
          "_path": "List of tokens that are used for exchanging",
          "_to": "Receiver address"
        },
        "returns": {
          "_amounts": "Amounts of tokens that are involved in exchanging",
          "_result": "True if the exchange is successful"
        }
      },
      "swapAndAddLiquidity((uint256,address,address,uint24,int24,int24,uint256,uint256,address))": {
        "details": "This function performs the following steps:      1. Validates gas reserve and pool existence      2. Normalizes token order to match pool configuration      3. Validates existing position parameters if updating      4. Executes optimal swaps to achieve desired token ratios      5. Mints new position or increases existing position liquidity      6. Refunds any remaining tokens to the user",
        "params": {
          "params": "Struct containing all parameters for the operation"
        },
        "returns": {
          "_remaining0": "Amount of token0 remaining after operation",
          "_remaining1": "Amount of token1 remaining after operation",
          "_tokenId": "The ID of the created/updated position"
        }
      },
      "transferOwnership(address)": {
        "details": "Transfers ownership of the contract to a new account (`newOwner`). Can only be called by the current owner."
      }
    },
    "version": 1
  },
  "userdoc": {
    "kind": "user",
    "methods": {
      "getExactInput(address[],uint256)": {
        "notice": "Return the output amount for the given input amount"
      },
      "getExactOutput(address[],uint256)": {
        "notice": "Return the needed input amount to get the output amount"
      },
      "getInputAmount(uint256,address,address)": {
        "notice": "Deprecated for v3"
      },
      "getOutputAmount(uint256,address,address)": {
        "notice": "Deprecated for v3"
      },
      "getSqrtPriceX96(address[])": {
        "notice": "Return the square root price of given token pairs"
      },
      "initialize(string,address,address)": {
        "notice": "This contract is used for interacting with UniswapV3 contract"
      },
      "isPathValid(address[])": {
        "notice": "Return true if the exchange path is valid"
      },
      "setExchangeRouter(address)": {
        "notice": "Setter for exchange router"
      },
      "setFeeTier(address,address,uint24)": {
        "notice": "Setter for fee tier"
      },
      "setLiquidityPoolFactory()": {
        "notice": "Setter for liquidity pool factory"
      },
      "setPositionManager(address)": {
        "notice": "Setter for position manager"
      },
      "setQuoter(address)": {
        "notice": "Setter for quoter"
      },
      "setWrappedNativeToken()": {
        "notice": "Setter for wrapped native token"
      },
      "swap(uint256,uint256,address[],address,uint256,bool)": {
        "notice": "Exchange input token for output token through exchange router"
      },
      "swapAndAddLiquidity((uint256,address,address,uint24,int24,int24,uint256,uint256,address))": {
        "notice": "Zap tokens into a Uniswap V3 position in one call"
      }
    },
    "version": 1
  },
  "storageLayout": {
    "storage": [
      {
        "astId": 139,
        "contract": "contracts/dex_connectors/UniswapV3Connector.sol:UniswapV3Connector",
        "label": "_initialized",
        "offset": 0,
        "slot": "0",
        "type": "t_uint8"
      },
      {
        "astId": 142,
        "contract": "contracts/dex_connectors/UniswapV3Connector.sol:UniswapV3Connector",
        "label": "_initializing",
        "offset": 1,
        "slot": "0",
        "type": "t_bool"
      },
      {
        "astId": 766,
        "contract": "contracts/dex_connectors/UniswapV3Connector.sol:UniswapV3Connector",
        "label": "__gap",
        "offset": 0,
        "slot": "1",
        "type": "t_array(t_uint256)50_storage"
      },
      {
        "astId": 11,
        "contract": "contracts/dex_connectors/UniswapV3Connector.sol:UniswapV3Connector",
        "label": "_owner",
        "offset": 0,
        "slot": "51",
        "type": "t_address"
      },
      {
        "astId": 131,
        "contract": "contracts/dex_connectors/UniswapV3Connector.sol:UniswapV3Connector",
        "label": "__gap",
        "offset": 0,
        "slot": "52",
        "type": "t_array(t_uint256)49_storage"
      },
      {
        "astId": 316,
        "contract": "contracts/dex_connectors/UniswapV3Connector.sol:UniswapV3Connector",
        "label": "_status",
        "offset": 0,
        "slot": "101",
        "type": "t_uint256"
      },
      {
        "astId": 385,
        "contract": "contracts/dex_connectors/UniswapV3Connector.sol:UniswapV3Connector",
        "label": "__gap",
        "offset": 0,
        "slot": "102",
        "type": "t_array(t_uint256)49_storage"
      },
      {
        "astId": 1853,
        "contract": "contracts/dex_connectors/UniswapV3Connector.sol:UniswapV3Connector",
        "label": "name",
        "offset": 0,
        "slot": "151",
        "type": "t_string_storage"
      },
      {
        "astId": 1856,
        "contract": "contracts/dex_connectors/UniswapV3Connector.sol:UniswapV3Connector",
        "label": "wrappedNativeToken",
        "offset": 0,
        "slot": "152",
        "type": "t_address"
      },
      {
        "astId": 1859,
        "contract": "contracts/dex_connectors/UniswapV3Connector.sol:UniswapV3Connector",
        "label": "exchangeRouter",
        "offset": 0,
        "slot": "153",
        "type": "t_address"
      },
      {
        "astId": 1862,
        "contract": "contracts/dex_connectors/UniswapV3Connector.sol:UniswapV3Connector",
        "label": "liquidityPoolFactory",
        "offset": 0,
        "slot": "154",
        "type": "t_address"
      },
      {
        "astId": 1864,
        "contract": "contracts/dex_connectors/UniswapV3Connector.sol:UniswapV3Connector",
        "label": "quoterAddress",
        "offset": 0,
        "slot": "155",
        "type": "t_address"
      },
      {
        "astId": 1870,
        "contract": "contracts/dex_connectors/UniswapV3Connector.sol:UniswapV3Connector",
        "label": "feeTier",
        "offset": 0,
        "slot": "156",
        "type": "t_mapping(t_address,t_mapping(t_address,t_uint24))"
      },
      {
        "astId": 1872,
        "contract": "contracts/dex_connectors/UniswapV3Connector.sol:UniswapV3Connector",
        "label": "positionManager",
        "offset": 0,
        "slot": "157",
        "type": "t_address"
      },
      {
        "astId": 1874,
        "contract": "contracts/dex_connectors/UniswapV3Connector.sol:UniswapV3Connector",
        "label": "MAX_ITERS",
        "offset": 0,
        "slot": "158",
        "type": "t_uint256"
      },
      {
        "astId": 1876,
        "contract": "contracts/dex_connectors/UniswapV3Connector.sol:UniswapV3Connector",
        "label": "TOLERANCE",
        "offset": 0,
        "slot": "159",
        "type": "t_uint256"
      },
      {
        "astId": 1881,
        "contract": "contracts/dex_connectors/UniswapV3Connector.sol:UniswapV3Connector",
        "label": "PRECISION",
        "offset": 0,
        "slot": "160",
        "type": "t_uint256"
      },
      {
        "astId": 1883,
        "contract": "contracts/dex_connectors/UniswapV3Connector.sol:UniswapV3Connector",
        "label": "MIN_GAS_RESERVE",
        "offset": 0,
        "slot": "161",
        "type": "t_uint256"
      }
    ],
    "types": {
      "t_address": {
        "encoding": "inplace",
        "label": "address",
        "numberOfBytes": "20"
      },
      "t_array(t_uint256)49_storage": {
        "base": "t_uint256",
        "encoding": "inplace",
        "label": "uint256[49]",
        "numberOfBytes": "1568"
      },
      "t_array(t_uint256)50_storage": {
        "base": "t_uint256",
        "encoding": "inplace",
        "label": "uint256[50]",
        "numberOfBytes": "1600"
      },
      "t_bool": {
        "encoding": "inplace",
        "label": "bool",
        "numberOfBytes": "1"
      },
      "t_mapping(t_address,t_mapping(t_address,t_uint24))": {
        "encoding": "mapping",
        "key": "t_address",
        "label": "mapping(address => mapping(address => uint24))",
        "numberOfBytes": "32",
        "value": "t_mapping(t_address,t_uint24)"
      },
      "t_mapping(t_address,t_uint24)": {
        "encoding": "mapping",
        "key": "t_address",
        "label": "mapping(address => uint24)",
        "numberOfBytes": "32",
        "value": "t_uint24"
      },
      "t_string_storage": {
        "encoding": "bytes",
        "label": "string",
        "numberOfBytes": "32"
      },
      "t_uint24": {
        "encoding": "inplace",
        "label": "uint24",
        "numberOfBytes": "3"
      },
      "t_uint256": {
        "encoding": "inplace",
        "label": "uint256",
        "numberOfBytes": "32"
      },
      "t_uint8": {
        "encoding": "inplace",
        "label": "uint8",
        "numberOfBytes": "1"
      }
    }
  }
}