{
  "address": "0x5E7882f31610720CE104790c6C6f59290830C9dA",
  "abi": [
    {
      "anonymous": false,
      "inputs": [
        {
          "indexed": false,
          "internalType": "uint8",
          "name": "version",
          "type": "uint8"
        }
      ],
      "name": "Initialized",
      "type": "event"
    },
    {
      "anonymous": false,
      "inputs": [
        {
          "indexed": true,
          "internalType": "address",
          "name": "previousOwner",
          "type": "address"
        },
        {
          "indexed": true,
          "internalType": "address",
          "name": "newOwner",
          "type": "address"
        }
      ],
      "name": "OwnershipTransferred",
      "type": "event"
    },
    {
      "anonymous": false,
      "inputs": [
        {
          "indexed": false,
          "internalType": "address[]",
          "name": "path",
          "type": "address[]"
        },
        {
          "indexed": false,
          "internalType": "uint256[]",
          "name": "amounts",
          "type": "uint256[]"
        },
        {
          "indexed": false,
          "internalType": "address",
          "name": "receiver",
          "type": "address"
        }
      ],
      "name": "Swap",
      "type": "event"
    },
    {
      "inputs": [
        {
          "internalType": "address[]",
          "name": "_path",
          "type": "address[]"
        }
      ],
      "name": "convertedPath",
      "outputs": [
        {
          "internalType": "bytes",
          "name": "packedData",
          "type": "bytes"
        }
      ],
      "stateMutability": "view",
      "type": "function"
    },
    {
      "inputs": [
        {
          "internalType": "address[]",
          "name": "_path",
          "type": "address[]"
        }
      ],
      "name": "convertedPathReversed",
      "outputs": [
        {
          "internalType": "bytes",
          "name": "packedData",
          "type": "bytes"
        }
      ],
      "stateMutability": "view",
      "type": "function"
    },
    {
      "inputs": [],
      "name": "exchangeRouter",
      "outputs": [
        {
          "internalType": "address",
          "name": "",
          "type": "address"
        }
      ],
      "stateMutability": "view",
      "type": "function"
    },
    {
      "inputs": [
        {
          "internalType": "address",
          "name": "",
          "type": "address"
        },
        {
          "internalType": "address",
          "name": "",
          "type": "address"
        }
      ],
      "name": "feeTier",
      "outputs": [
        {
          "internalType": "uint24",
          "name": "",
          "type": "uint24"
        }
      ],
      "stateMutability": "view",
      "type": "function"
    },
    {
      "inputs": [
        {
          "internalType": "address[]",
          "name": "_path",
          "type": "address[]"
        },
        {
          "internalType": "uint256",
          "name": "_amountIn",
          "type": "uint256"
        }
      ],
      "name": "getExactInput",
      "outputs": [
        {
          "internalType": "bool",
          "name": "",
          "type": "bool"
        },
        {
          "internalType": "uint256",
          "name": "",
          "type": "uint256"
        }
      ],
      "stateMutability": "nonpayable",
      "type": "function"
    },
    {
      "inputs": [
        {
          "internalType": "address[]",
          "name": "_path",
          "type": "address[]"
        },
        {
          "internalType": "uint256",
          "name": "_amountOut",
          "type": "uint256"
        }
      ],
      "name": "getExactOutput",
      "outputs": [
        {
          "internalType": "bool",
          "name": "",
          "type": "bool"
        },
        {
          "internalType": "uint256",
          "name": "",
          "type": "uint256"
        }
      ],
      "stateMutability": "nonpayable",
      "type": "function"
    },
    {
      "inputs": [
        {
          "internalType": "uint256",
          "name": "",
          "type": "uint256"
        },
        {
          "internalType": "address",
          "name": "",
          "type": "address"
        },
        {
          "internalType": "address",
          "name": "",
          "type": "address"
        }
      ],
      "name": "getInputAmount",
      "outputs": [
        {
          "internalType": "bool",
          "name": "",
          "type": "bool"
        },
        {
          "internalType": "uint256",
          "name": "",
          "type": "uint256"
        }
      ],
      "stateMutability": "pure",
      "type": "function"
    },
    {
      "inputs": [
        {
          "internalType": "uint256",
          "name": "",
          "type": "uint256"
        },
        {
          "internalType": "address",
          "name": "",
          "type": "address"
        },
        {
          "internalType": "address",
          "name": "",
          "type": "address"
        }
      ],
      "name": "getOutputAmount",
      "outputs": [
        {
          "internalType": "bool",
          "name": "",
          "type": "bool"
        },
        {
          "internalType": "uint256",
          "name": "",
          "type": "uint256"
        }
      ],
      "stateMutability": "pure",
      "type": "function"
    },
    {
      "inputs": [
        {
          "internalType": "address[]",
          "name": "_path",
          "type": "address[]"
        }
      ],
      "name": "getSqrtPriceX96",
      "outputs": [
        {
          "internalType": "uint256[]",
          "name": "_sqrtPriceX96",
          "type": "uint256[]"
        },
        {
          "internalType": "address[]",
          "name": "_firstToken",
          "type": "address[]"
        }
      ],
      "stateMutability": "view",
      "type": "function"
    },
    {
      "inputs": [
        {
          "internalType": "string",
          "name": "_name",
          "type": "string"
        },
        {
          "internalType": "address",
          "name": "_exchangeRouter",
          "type": "address"
        },
        {
          "internalType": "address",
          "name": "_quoterAddress",
          "type": "address"
        }
      ],
      "name": "initialize",
      "outputs": [],
      "stateMutability": "nonpayable",
      "type": "function"
    },
    {
      "inputs": [
        {
          "internalType": "address[]",
          "name": "_path",
          "type": "address[]"
        }
      ],
      "name": "isPathValid",
      "outputs": [
        {
          "internalType": "bool",
          "name": "_result",
          "type": "bool"
        }
      ],
      "stateMutability": "view",
      "type": "function"
    },
    {
      "inputs": [],
      "name": "liquidityPoolFactory",
      "outputs": [
        {
          "internalType": "address",
          "name": "",
          "type": "address"
        }
      ],
      "stateMutability": "view",
      "type": "function"
    },
    {
      "inputs": [],
      "name": "name",
      "outputs": [
        {
          "internalType": "string",
          "name": "",
          "type": "string"
        }
      ],
      "stateMutability": "view",
      "type": "function"
    },
    {
      "inputs": [],
      "name": "owner",
      "outputs": [
        {
          "internalType": "address",
          "name": "",
          "type": "address"
        }
      ],
      "stateMutability": "view",
      "type": "function"
    },
    {
      "inputs": [],
      "name": "positionManager",
      "outputs": [
        {
          "internalType": "address",
          "name": "",
          "type": "address"
        }
      ],
      "stateMutability": "view",
      "type": "function"
    },
    {
      "inputs": [],
      "name": "quoterAddress",
      "outputs": [
        {
          "internalType": "address",
          "name": "",
          "type": "address"
        }
      ],
      "stateMutability": "view",
      "type": "function"
    },
    {
      "inputs": [],
      "name": "renounceOwnership",
      "outputs": [],
      "stateMutability": "nonpayable",
      "type": "function"
    },
    {
      "inputs": [
        {
          "internalType": "address",
          "name": "_exchangeRouter",
          "type": "address"
        }
      ],
      "name": "setExchangeRouter",
      "outputs": [],
      "stateMutability": "nonpayable",
      "type": "function"
    },
    {
      "inputs": [
        {
          "internalType": "address",
          "name": "_firstToken",
          "type": "address"
        },
        {
          "internalType": "address",
          "name": "_secondToken",
          "type": "address"
        },
        {
          "internalType": "uint24",
          "name": "_feeTier",
          "type": "uint24"
        }
      ],
      "name": "setFeeTier",
      "outputs": [],
      "stateMutability": "nonpayable",
      "type": "function"
    },
    {
      "inputs": [],
      "name": "setLiquidityPoolFactory",
      "outputs": [],
      "stateMutability": "nonpayable",
      "type": "function"
    },
    {
      "inputs": [
        {
          "internalType": "address",
          "name": "_positionManager",
          "type": "address"
        }
      ],
      "name": "setPositionManager",
      "outputs": [],
      "stateMutability": "nonpayable",
      "type": "function"
    },
    {
      "inputs": [
        {
          "internalType": "address",
          "name": "_quoterAddress",
          "type": "address"
        }
      ],
      "name": "setQuoter",
      "outputs": [],
      "stateMutability": "nonpayable",
      "type": "function"
    },
    {
      "inputs": [],
      "name": "setWrappedNativeToken",
      "outputs": [],
      "stateMutability": "nonpayable",
      "type": "function"
    },
    {
      "inputs": [
        {
          "internalType": "uint256",
          "name": "_inputAmount",
          "type": "uint256"
        },
        {
          "internalType": "uint256",
          "name": "_outputAmount",
          "type": "uint256"
        },
        {
          "internalType": "address[]",
          "name": "_path",
          "type": "address[]"
        },
        {
          "internalType": "address",
          "name": "_to",
          "type": "address"
        },
        {
          "internalType": "uint256",
          "name": "_deadline",
          "type": "uint256"
        },
        {
          "internalType": "bool",
          "name": "_isFixedToken",
          "type": "bool"
        }
      ],
      "name": "swap",
      "outputs": [
        {
          "internalType": "bool",
          "name": "_result",
          "type": "bool"
        },
        {
          "internalType": "uint256[]",
          "name": "_amounts",
          "type": "uint256[]"
        }
      ],
      "stateMutability": "nonpayable",
      "type": "function"
    },
    {
      "inputs": [
        {
          "components": [
            {
              "internalType": "address",
              "name": "token0",
              "type": "address"
            },
            {
              "internalType": "address",
              "name": "token1",
              "type": "address"
            },
            {
              "internalType": "uint24",
              "name": "feeTier",
              "type": "uint24"
            },
            {
              "internalType": "int24",
              "name": "tickLower",
              "type": "int24"
            },
            {
              "internalType": "int24",
              "name": "tickUpper",
              "type": "int24"
            },
            {
              "internalType": "uint256",
              "name": "amount0Desired",
              "type": "uint256"
            },
            {
              "internalType": "uint256",
              "name": "amount1Desired",
              "type": "uint256"
            }
          ],
          "internalType": "struct UniswapV3Connector.AddLiquidityParams",
          "name": "params",
          "type": "tuple"
        }
      ],
      "name": "swapAndAddLiquidity",
      "outputs": [
        {
          "internalType": "uint256",
          "name": "_tokenId",
          "type": "uint256"
        },
        {
          "internalType": "uint128",
          "name": "_liquidity",
          "type": "uint128"
        },
        {
          "internalType": "uint256",
          "name": "_used0",
          "type": "uint256"
        },
        {
          "internalType": "uint256",
          "name": "_used1",
          "type": "uint256"
        }
      ],
      "stateMutability": "nonpayable",
      "type": "function"
    },
    {
      "inputs": [
        {
          "internalType": "address",
          "name": "newOwner",
          "type": "address"
        }
      ],
      "name": "transferOwnership",
      "outputs": [],
      "stateMutability": "nonpayable",
      "type": "function"
    },
    {
      "inputs": [],
      "name": "wrappedNativeToken",
      "outputs": [
        {
          "internalType": "address",
          "name": "",
          "type": "address"
        }
      ],
      "stateMutability": "view",
      "type": "function"
    }
  ],
  "transactionHash": "0x6db6b49242d5ad2c07452a6fc4cac9edc1305898b2bdf65e71241fede8dee956",
  "args": [],
  "numDeployments": 1,
  "solcInputHash": "bea74a2ba2f9f6be5d25b0eed6ca9503",
  "bytecode": "0x608060405234801561001057600080fd5b50613f78806100206000396000f3fe608060405234801561001057600080fd5b50600436106101495760003560e01c806301e65db31461014e57806304fe3fcb1461019757806306fdde03146101ac57806311a2f0cb146101c15780631580b5e5146101e157806317fcb39b146101e95780631cb85818146101fc5780633566967d1461020f578063463fd1af146102395780635760f2e31461024c5780636145f8761461025f57806365f0d72214610272578063715018a6146102ad57806378c31684146102b5578063791b98bc146102d6578063838b7ccb146102e957806389883074146102fc5780638b1937cd146103165780638da5cb5b146103295780639b4bca2414610331578063b0bbcd8814610354578063b18a313f14610375578063b23e4fc614610388578063df71d7f3146102fc578063e75d75d514610390578063f2fde38b146103a3578063f912c64b146103b6575b600080fd5b61017e61015c366004613477565b609c60209081526000928352604080842090915290825290205462ffffff1681565b60405162ffffff90911681526020015b60405180910390f35b6101aa6101a53660046134af565b6103c9565b005b6101b461042c565b60405161018e9190613bf2565b609b546101d4906001600160a01b031681565b60405161018e9190613b1f565b6101aa6104ba565b6098546101d4906001600160a01b031681565b6099546101d4906001600160a01b031681565b61022261021d366004613527565b61056a565b60408051921515835260208301919091520161018e565b6101aa610247366004613585565b610629565b6101aa61025a36600461343f565b6108ab565b6101b461026d3660046134f5565b6108d5565b61028561028036600461362c565b6109ff565b604080519485526001600160801b03909316602085015291830152606082015260800161018e565b6101aa6113a6565b6102c86102c33660046134f5565b6113b0565b60405161018e929190613bb2565b609d546101d4906001600160a01b031681565b6101aa6102f736600461343f565b6117c4565b61022261030a366004613784565b60016000935093915050565b610222610324366004613527565b6118a3565b6101d46118db565b61034461033f3660046134f5565b6118ea565b604051901515815260200161018e565b61036761036236600461392b565b611ae1565b60405161018e929190613bd7565b6101b46103833660046134f5565b611e83565b6101aa611fc1565b609a546101d4906001600160a01b031681565b6101aa6103b136600461343f565b612071565b6101aa6103c436600461343f565b6120ea565b6103d1612114565b6001600160a01b039283166000818152609c60208181526040808420969097168352948552858220805462ffffff90951662ffffff199586168117909155908552858220928252919093529290912080549091169091179055565b6097805461043990613e74565b80601f016020809104026020016040519081016040528092919081815260200182805461046590613e74565b80156104b25780601f10610487576101008083540402835291602001916104b2565b820191906000526020600020905b81548152906001019060200180831161049557829003601f168201915b505050505081565b6104c2612114565b609960009054906101000a90046001600160a01b03166001600160a01b0316634aa4a4fc6040518163ffffffff1660e01b815260040160206040518083038186803b15801561051057600080fd5b505afa158015610524573d6000803e3d6000fd5b505050506040513d601f19601f82011682018060405250810190610548919061345b565b609880546001600160a01b0319166001600160a01b0392909216919091179055565b600080610576846118ea565b61058557506000905080610622565b609b546000906001600160a01b0316632f80bb1d6105a287611e83565b866040518363ffffffff1660e01b81526004016105c0929190613c05565b600060405180830381600087803b1580156105da57600080fd5b505af11580156105ee573d6000803e3d6000fd5b505050506040513d6000823e601f3d908101601f1916820160405261061691908101906137c5565b50600195509193505050505b9250929050565b600054610100900460ff16158080156106495750600054600160ff909116105b806106635750303b158015610663575060005460ff166001145b6106cb5760405162461bcd60e51b815260206004820152602e60248201527f496e697469616c697a61626c653a20636f6e747261637420697320616c72656160448201526d191e481a5b9a5d1a585b1a5e995960921b60648201526084015b60405180910390fd5b6000805460ff1916600117905580156106ee576000805461ff0019166101001790555b6106f6612173565b6106fe6121a2565b8351610711906097906020870190613286565b50609980546001600160a01b0319166001600160a01b0385169081179091556040805163c45a015560e01b8152905163c45a015591600480820192602092909190829003018186803b15801561076657600080fd5b505afa15801561077a573d6000803e3d6000fd5b505050506040513d601f19601f8201168201806040525081019061079e919061345b565b609a80546001600160a01b03199081166001600160a01b0393841617909155609b8054909116848316179055609954604080516312a9293f60e21b815290519190921691634aa4a4fc916004808301926020929190829003018186803b15801561080757600080fd5b505afa15801561081b573d6000803e3d6000fd5b505050506040513d601f19601f8201168201806040525081019061083f919061345b565b609880546001600160a01b0319166001600160a01b039290921691909117905580156108a5576000805461ff0019169055604051600181527f7f26b83ff96e1f2b6a682f133852f6798a09c465da95921460cefb38474024989060200160405180910390a15b50505050565b6108b3612114565b609d80546001600160a01b0319166001600160a01b0392909216919091179055565b6060816000815181106108f857634e487b7160e01b600052603260045260246000fd5b60200260200101516040516020016109109190613aa4565b60408051601f19818403018152919052905060015b82518110156109f95760008361093c600184613e1a565b8151811061095a57634e487b7160e01b600052603260045260246000fd5b60200260200101519050600084838151811061098657634e487b7160e01b600052603260045260246000fd5b6020908102919091018101516001600160a01b038085166000908152609c84526040808220928416825291845281902054905191935062ffffff16916109d29187918491869101613ad8565b604051602081830303815290604052945050505080806109f190613ea9565b915050610925565b50919050565b600080600080610a0d6121d1565b609d546001600160a01b0316610a605760405162461bcd60e51b8152602060048201526018602482015277141bdcda5d1a5bdb881b585b9859d95c881b9bdd081cd95d60421b60448201526064016106c2565b84602001516001600160a01b031685600001516001600160a01b03161415610ab85760405162461bcd60e51b815260206004820152600b60248201526a53616d6520746f6b656e7360a81b60448201526064016106c2565b60008560a00151118015610ad0575060008560c00151115b610b0b5760405162461bcd60e51b815260206004820152600c60248201526b5a65726f20616d6f756e747360a01b60448201526064016106c2565b846080015160020b856060015160020b12610b5d5760405162461bcd60e51b8152602060048201526012602482015271496e76616c6964207469636b2072616e676560701b60448201526064016106c2565b60a08501518551610b7d916001600160a01b03909116903390309061222b565b610ba533308760c0015188602001516001600160a01b031661222b909392919063ffffffff16565b845160995460a087015160405163095ea7b360e01b81526001600160a01b039384169363095ea7b393610bdd93911691600401613b5b565b602060405180830381600087803b158015610bf757600080fd5b505af1158015610c0b573d6000803e3d6000fd5b505050506040513d601f19601f82011682018060405250810190610c2f9190613569565b50602085015160995460c087015160405163095ea7b360e01b81526001600160a01b039384169363095ea7b393610c6b93911691600401613b5b565b602060405180830381600087803b158015610c8557600080fd5b505af1158015610c99573d6000803e3d6000fd5b505050506040513d601f19601f82011682018060405250810190610cbd9190613569565b508451609d5460405163095ea7b360e01b81526001600160a01b039283169263095ea7b392610cf59291169060001990600401613b5b565b602060405180830381600087803b158015610d0f57600080fd5b505af1158015610d23573d6000803e3d6000fd5b505050506040513d601f19601f82011682018060405250810190610d479190613569565b506020850151609d5460405163095ea7b360e01b81526001600160a01b039283169263095ea7b392610d829291169060001990600401613b5b565b602060405180830381600087803b158015610d9c57600080fd5b505af1158015610db0573d6000803e3d6000fd5b505050506040513d601f19601f82011682018060405250810190610dd49190613569565b50609a54855160208701516040808901519051630b4c774160e11b81526000946001600160a01b031693631698ee8293610e15939192909190600401613b33565b60206040518083038186803b158015610e2d57600080fd5b505afa158015610e41573d6000803e3d6000fd5b505050506040513d601f19601f82011682018060405250810190610e65919061345b565b6001600160a01b0316633850c7bd6040518163ffffffff1660e01b815260040160e06040518083038186803b158015610e9d57600080fd5b505afa158015610eb1573d6000803e3d6000fd5b505050506040513d601f19601f82011682018060405250810190610ed591906136d6565b50505050505090506000610f0c82610ef08960600151612296565b610efd8a60800151612296565b8a60a001518b60c00151612551565b9050600080610f3584610f228b60600151612296565b610f2f8c60800151612296565b86612615565b915091506000808211610f5057670de0b6b3a7640000610f6d565b81610f6384670de0b6b3a7640000613dfb565b610f6d9190613ddb565b90506000808b60c0015111610f8457600019610faa565b60c08b015160a08c0151610fa090670de0b6b3a7640000613dfb565b610faa9190613ddb565b905081811115610fdb57610fd68b600001518c602001518d604001518e60a001518f60c00151876126b1565b611024565b8181108015610fea5750600082115b15611024576110248b602001518c600001518d604001518e60c001518f60a0015187670de0b6b3a764000061101f9190613ddb565b6126b1565b8a516040516370a0823160e01b81526001600160a01b03909116906370a0823190611053903090600401613b1f565b60206040518083038186803b15801561106b57600080fd5b505afa15801561107f573d6000803e3d6000fd5b505050506040513d601f19601f820116820180604052508101906110a3919061376c565b60208c01516040516370a0823160e01b81529199506001600160a01b0316906370a08231906110d6903090600401613b1f565b60206040518083038186803b1580156110ee57600080fd5b505afa158015611102573d6000803e3d6000fd5b505050506040513d601f19601f82011682018060405250810190611126919061376c565b9650609d60009054906101000a90046001600160a01b03166001600160a01b031663883164566040518061016001604052808e600001516001600160a01b031681526020018e602001516001600160a01b031681526020018e6040015162ffffff1681526020018e6060015160020b81526020018e6080015160020b81526020018b81526020018a81526020016000815260200160008152602001336001600160a01b03168152602001428152506040518263ffffffff1660e01b81526004016111f09190613cba565b608060405180830381600087803b15801561120a57600080fd5b505af115801561121e573d6000803e3d6000fd5b505050506040513d601f19601f82011682018060405250810190611242919061389d565b50508c516040516370a0823160e01b8152929c50909a506000916001600160a01b03909116906370a082319061127c903090600401613b1f565b60206040518083038186803b15801561129457600080fd5b505afa1580156112a8573d6000803e3d6000fd5b505050506040513d601f19601f820116820180604052508101906112cc919061376c565b905060008c602001516001600160a01b03166370a08231306040518263ffffffff1660e01b81526004016113009190613b1f565b60206040518083038186803b15801561131857600080fd5b505afa15801561132c573d6000803e3d6000fd5b505050506040513d601f19601f82011682018060405250810190611350919061376c565b9050811561136e578c5161136e906001600160a01b031633846127d9565b801561138d5760208d015161138d906001600160a01b031633836127d9565b505050505050505061139f6001606555565b9193509193565b6113ae612114565b565b60608060008060005b600186516113c79190613e1a565b8110156117bc57609a5486516001600160a01b0390911690631698ee829088908490811061140557634e487b7160e01b600052603260045260246000fd5b60200260200101518884600161141b9190613dc3565b8151811061143957634e487b7160e01b600052603260045260246000fd5b6020026020010151609c60008b878151811061146557634e487b7160e01b600052603260045260246000fd5b60200260200101516001600160a01b03166001600160a01b0316815260200190815260200160002060008b87600161149d9190613dc3565b815181106114bb57634e487b7160e01b600052603260045260246000fd5b60200260200101516001600160a01b03166001600160a01b0316815260200190815260200160002060009054906101000a900462ffffff166040518463ffffffff1660e01b815260040161151193929190613b33565b60206040518083038186803b15801561152957600080fd5b505afa15801561153d573d6000803e3d6000fd5b505050506040513d601f19601f82011682018060405250810190611561919061345b565b9250826001600160a01b0316633850c7bd6040518163ffffffff1660e01b815260040160e06040518083038186803b15801561159c57600080fd5b505afa1580156115b0573d6000803e3d6000fd5b505050506040513d601f19601f820116820180604052508101906115d491906136d6565b505089516001600160a01b03909516965086948a94508693508310915061160d905057634e487b7160e01b600052603260045260246000fd5b60200260200101818152505085818151811061163957634e487b7160e01b600052603260045260246000fd5b60200260200101516001600160a01b0316836001600160a01b0316630dfe16816040518163ffffffff1660e01b815260040160206040518083038186803b15801561168357600080fd5b505afa158015611697573d6000803e3d6000fd5b505050506040513d601f19601f820116820180604052508101906116bb919061345b565b6001600160a01b03161415611737578581815181106116ea57634e487b7160e01b600052603260045260246000fd5b602002602001015184828151811061171257634e487b7160e01b600052603260045260246000fd5b60200260200101906001600160a01b031690816001600160a01b0316815250506117aa565b85611743826001613dc3565b8151811061176157634e487b7160e01b600052603260045260246000fd5b602002602001015184828151811061178957634e487b7160e01b600052603260045260246000fd5b60200260200101906001600160a01b031690816001600160a01b0316815250505b806117b481613ea9565b9150506113b9565b505050915091565b806001600160a01b0381166117eb5760405162461bcd60e51b81526004016106c290613c27565b6117f3612114565b609980546001600160a01b0319166001600160a01b0384169081179091556040805163c45a015560e01b8152905163c45a015591600480820192602092909190829003018186803b15801561184757600080fd5b505afa15801561185b573d6000803e3d6000fd5b505050506040513d601f19601f8201168201806040525081019061187f919061345b565b609a80546001600160a01b0319166001600160a01b03929092169190911790555050565b6000806118af846118ea565b6118be57506000905080610622565b609b546000906001600160a01b031663cdca17536105a2876108d5565b6033546001600160a01b031690565b6000806002835110156119005750600092915050565b60005b600184516119119190613e1a565b811015611ad757609a5484516001600160a01b0390911690631698ee829086908490811061194f57634e487b7160e01b600052603260045260246000fd5b6020026020010151868460016119659190613dc3565b8151811061198357634e487b7160e01b600052603260045260246000fd5b6020026020010151609c60008987815181106119af57634e487b7160e01b600052603260045260246000fd5b60200260200101516001600160a01b03166001600160a01b031681526020019081526020016000206000898760016119e79190613dc3565b81518110611a0557634e487b7160e01b600052603260045260246000fd5b60200260200101516001600160a01b03166001600160a01b0316815260200190815260200160002060009054906101000a900462ffffff166040518463ffffffff1660e01b8152600401611a5b93929190613b33565b60206040518083038186803b158015611a7357600080fd5b505afa158015611a87573d6000803e3d6000fd5b505050506040513d601f19601f82011682018060405250810190611aab919061345b565b91506001600160a01b038216611ac5575060009392505050565b80611acf81613ea9565b915050611903565b5060019392505050565b60006060611aed6121d1565b846001600160a01b038116611b145760405162461bcd60e51b81526004016106c290613c27565b6000611b238a8a8a8989612804565b90945090508315611e6c57604080516002808252606082018352600092602083019080368337019050509350611b973330848c600081518110611b7657634e487b7160e01b600052603260045260246000fd5b60200260200101516001600160a01b031661222b909392919063ffffffff16565b88600081518110611bb857634e487b7160e01b600052603260045260246000fd5b602090810291909101015160995460405163095ea7b360e01b81526001600160a01b039283169263095ea7b392611bf6929116908690600401613b5b565b602060405180830381600087803b158015611c1057600080fd5b505af1158015611c24573d6000803e3d6000fd5b505050506040513d601f19601f82011682018060405250810190611c489190613569565b5060018615151415611d3f576099546001600160a01b031663c04b8d59611c72848d8d8d8d6128c0565b6040518263ffffffff1660e01b8152600401611c8e9190613ca7565b602060405180830381600087803b158015611ca857600080fd5b505af1158015611cbc573d6000803e3d6000fd5b505050506040513d601f19601f82011682018060405250810190611ce0919061376c565b90508184600081518110611d0457634e487b7160e01b600052603260045260246000fd5b6020026020010181815250508084600181518110611d3257634e487b7160e01b600052603260045260246000fd5b6020026020010181815250505b85611e2f576099546001600160a01b031663f28c0498611d62848d8d8d8d61293d565b6040518263ffffffff1660e01b8152600401611d7e9190613ca7565b602060405180830381600087803b158015611d9857600080fd5b505af1158015611dac573d6000803e3d6000fd5b505050506040513d601f19601f82011682018060405250810190611dd0919061376c565b90508084600081518110611df457634e487b7160e01b600052603260045260246000fd5b6020026020010181815250508984600181518110611e2257634e487b7160e01b600052603260045260246000fd5b6020026020010181815250505b7fe1010d0ab476908054981d12fbb96915efcceb8d57a09ae8ca62f4bda731837389858a604051611e6293929190613b74565b60405180910390a1505b5050611e786001606555565b965096945050505050565b60608160018351611e949190613e1a565b81518110611eb257634e487b7160e01b600052603260045260246000fd5b6020026020010151604051602001611eca9190613aa4565b6040516020818303038152906040529050600060018351611eeb9190613e1a565b90505b80156109f9576000838281518110611f1657634e487b7160e01b600052603260045260246000fd5b60200260200101519050600084600184611f309190613e1a565b81518110611f4e57634e487b7160e01b600052603260045260246000fd5b6020908102919091018101516001600160a01b038085166000908152609c84526040808220928416825291845281902054905191935062ffffff1691611f9a9187918491869101613ad8565b60405160208183030381529060405294505050508080611fb990613e5d565b915050611eee565b611fc9612114565b609960009054906101000a90046001600160a01b03166001600160a01b031663c45a01556040518163ffffffff1660e01b815260040160206040518083038186803b15801561201757600080fd5b505afa15801561202b573d6000803e3d6000fd5b505050506040513d601f19601f8201168201806040525081019061204f919061345b565b609a80546001600160a01b0319166001600160a01b0392909216919091179055565b612079612114565b6001600160a01b0381166120de5760405162461bcd60e51b815260206004820152602660248201527f4f776e61626c653a206e6577206f776e657220697320746865207a65726f206160448201526564647265737360d01b60648201526084016106c2565b6120e7816129bb565b50565b6120f2612114565b609b80546001600160a01b0319166001600160a01b0392909216919091179055565b3361211d6118db565b6001600160a01b0316146113ae5760405162461bcd60e51b815260206004820181905260248201527f4f776e61626c653a2063616c6c6572206973206e6f7420746865206f776e657260448201526064016106c2565b600054610100900460ff1661219a5760405162461bcd60e51b81526004016106c290613c5c565b6113ae612a0d565b600054610100900460ff166121c95760405162461bcd60e51b81526004016106c290613c5c565b6113ae612a3d565b600260655414156122245760405162461bcd60e51b815260206004820152601f60248201527f5265656e7472616e637947756172643a207265656e7472616e742063616c6c0060448201526064016106c2565b6002606555565b6040516001600160a01b03808516602483015283166044820152606481018290526108a59085906323b872dd60e01b906084015b60408051601f198184030181529190526020810180516001600160e01b03166001600160e01b031990931692909217909152612a64565b60020b600060ff82901d80830118620d89e88111156122c0576122c06345c3193d60e11b84612b36565b7001fffcb933bd6fad37aa2d162d1a5940016001821602600160801b1860028216156122fc576ffff97272373d413259a46990580e213a0260801c5b600482161561231b576ffff2e50f5f656932ef12357cf3c7fdcc0260801c5b600882161561233a576fffe5caca7e10e4e61c3624eaa0941cd00260801c5b6010821615612359576fffcb9843d60f6159c9db58835c9266440260801c5b6020821615612378576fff973b41fa98c081472e6896dfb254c00260801c5b6040821615612397576fff2ea16466c96a3843ec78b326b528610260801c5b60808216156123b6576ffe5dee046a99a2a811c461f1969c30530260801c5b6101008216156123d6576ffcbe86c7900a88aedcffc83b479aa3a40260801c5b6102008216156123f6576ff987a7253ac413176f2b074cf7815e540260801c5b610400821615612416576ff3392b0822b70005940c7a398e4b70f30260801c5b610800821615612436576fe7159475a2c29b7443b29c7fa6e889d90260801c5b611000821615612456576fd097f3bdfd2022b8845ad8f792aa58250260801c5b612000821615612476576fa9f746462d870fdf8a65dc1f90e061e50260801c5b614000821615612496576f70d869a156d2a1b890bb3df62baf32f70260801c5b6180008216156124b6576f31be135f97d08fd981231505542fcfa60260801c5b620100008216156124d7576f09aa508b5b7a84e1c677de54f3e99bc90260801c5b620200008216156124f7576e5d6af8dedb81196699c329225ee6040260801c5b62040000821615612516576d2216e584f5fa1ea926041bedfe980260801c5b62080000821615612533576b048a170391f7dc42444e8fa20260801c5b600084131561254157600019045b63ffffffff0160201c9392505050565b6000836001600160a01b0316856001600160a01b03161115612571579293925b846001600160a01b0316866001600160a01b03161161259c57612595858585612b47565b905061260c565b836001600160a01b0316866001600160a01b031610156125fe5760006125c3878686612b47565b905060006125d2878986612bb5565b9050806001600160801b0316826001600160801b0316106125f357806125f5565b815b9250505061260c565b612609858584612bb5565b90505b95945050505050565b600080836001600160a01b0316856001600160a01b03161115612636579293925b846001600160a01b0316866001600160a01b0316116126615761265a858585612bfa565b91506126a8565b836001600160a01b0316866001600160a01b0316101561269a57612686868585612bfa565b9150612693858785612c77565b90506126a8565b6126a5858585612c77565b90505b94509492505050565b60006126c1878787878787612cba565b905080156127d05760408051610100810182526001600160a01b0389811682528881166020830190815262ffffff8981168486019081523060608601908152426080870190815260a08701898152600060c0890181815260e08a019182526099549a5163414bf38960e01b81528a518a166004820152975189166024890152945190951660448701529151861660648601525160848501525160a48401525160c483015251821660e48201529192169063414bf3899061010401602060405180830381600087803b15801561279557600080fd5b505af11580156127a9573d6000803e3d6000fd5b505050506040513d601f19601f820116820180604052508101906127cd919061376c565b50505b50505050505050565b6127f88363a9059cbb60e01b848460405160240161225f929190613b5b565b505050565b6001606555565b6000804284101561281a575060009050806128b6565b6001831515141561286e57600080612832878a6118a3565b90925090508161284a576000809350935050506128b6565b80881115612860576000809350935050506128b6565b6001899350935050506128b6565b60008061287b878961056a565b909250905081612893576000809350935050506128b6565b808910156128a9576000809350935050506128b6565b6001935091506128b69050565b9550959350505050565b6128fb6040518060a001604052806060815260200160006001600160a01b031681526020016000815260200160008152602001600081525090565b6040518060a0016040528061290f866108d5565b81526001600160a01b0390941660208501526040840192909252506060820194909452608001919091525090565b6129786040518060a001604052806060815260200160006001600160a01b031681526020016000815260200160008152602001600081525090565b6040518060a0016040528061298c86611e83565b8152602001846001600160a01b0316815260200183815260200186815260200187815250905095945050505050565b603380546001600160a01b038381166001600160a01b0319831681179093556040519116919082907f8be0079c531659141344cd1fd0a4f28419497f9722a3daafe3b4186f6b6457e090600090a35050565b600054610100900460ff16612a345760405162461bcd60e51b81526004016106c290613c5c565b6113ae336129bb565b600054610100900460ff166127fd5760405162461bcd60e51b81526004016106c290613c5c565b6000612ab9826040518060400160405280602081526020017f5361666545524332303a206c6f772d6c6576656c2063616c6c206661696c6564815250856001600160a01b0316612d3b9092919063ffffffff16565b8051909150156127f85780806020019051810190612ad79190613569565b6127f85760405162461bcd60e51b815260206004820152602a60248201527f5361666545524332303a204552433230206f7065726174696f6e20646964206e6044820152691bdd081cdd58d8d9595960b21b60648201526084016106c2565b816000528060020b60045260246000fd5b6000826001600160a01b0316846001600160a01b03161115612b67579192915b6000612b8a856001600160a01b0316856001600160a01b0316600160601b612d4a565b9050612baa612ba584838888036001600160a01b0316612d4a565b612de9565b9150505b9392505050565b6000826001600160a01b0316846001600160a01b03161115612bd5579192915b612bf2612ba583600160601b8787036001600160a01b0316612d4a565b949350505050565b6000826001600160a01b0316846001600160a01b03161115612c1a579192915b836001600160a01b0316612c53606060ff16846001600160801b0316901b8686036001600160a01b0316866001600160a01b0316612d4a565b81612c6e57634e487b7160e01b600052601260045260246000fd5b04949350505050565b6000826001600160a01b0316846001600160a01b03161115612c97579192915b612bf2826001600160801b03168585036001600160a01b0316600160601b612d4a565b6000831580612cc7575081155b15612cd457506000612d31565b8215612d0f57600083612cef86670de0b6b3a7640000613dfb565b612cf99190613ddb565b905082811415612d0d576000915050612d31565b505b6000612d1c858585612e0f565b9050612d2d88888888888887612eb0565b9150505b9695505050505050565b6060612bf28484600085613126565b60008383028160001985870982811083820303915050808411612d6c57600080fd5b80612d7c57508290049050612bae565b6000848688096000868103871696879004966002600389028118808a02820302808a02820302808a02820302808a02820302808a02820302808a02909103029181900381900460010186841190950394909402919094039290920491909117919091029150509392505050565b806001600160801b0381168114612e0a57612e0a6393dafdf160e01b613243565b919050565b600082612e2857612e21600285613ddb565b9050612bae565b600083612e3d86670de0b6b3a7640000613dfb565b612e479190613ddb565b90506000838211612e77578386612e5e8483613e1a565b612e689190613dfb565b612e729190613ddb565b612e97565b8385612e838285613e1a565b612e8d9190613dfb565b612e979190613ddb565b9050858111612ea65780612d31565b5093949350505050565b600080612ebe600487613ddb565b8311612ecb576001612ee0565b612ed6600487613ddb565b612ee09084613e1a565b90506000612eef600488613ddb565b612ef99085613dc3565b905086811115612f065750855b60005b601460ff8216108015612f1c5750818311155b156131165760006001612f2f8486613dc3565b901c9050609b60009054906101000a90046001600160a01b03166001600160a01b031663c6a5026a6040518060a001604052808f6001600160a01b031681526020018e6001600160a01b031681526020018481526020018d62ffffff16815260200160006001600160a01b03168152506040518263ffffffff1660e01b8152600401612ffe919081516001600160a01b0390811682526020808401518216908301526040808401519083015260608084015162ffffff1690830152608092830151169181019190915260a00190565b608060405180830381600087803b15801561301857600080fd5b505af1925050508015613048575060408051601f3d908101601f19168201909252613045918101906138e6565b60015b61305e57613057600182613e1a565b9250613104565b613068848d613dc3565b61308357613077600186613e1a565b96505050505050613106565b600061308f858e613dc3565b868f61309b9190613e1a565b6130ad90670de0b6b3a7640000613dfb565b6130b79190613ddb565b90508b8111156130d3576130cc866001613dc3565b98506130fe565b8b8110156130ed576130e6600187613e1a565b97506130fe565b85995050505050505050505061311b565b50505050505b505b61310f81613ec4565b9050612f09565b509150505b979650505050505050565b6060824710156131875760405162461bcd60e51b815260206004820152602660248201527f416464726573733a20696e73756666696369656e742062616c616e636520666f6044820152651c8818d85b1b60d21b60648201526084016106c2565b843b6131d55760405162461bcd60e51b815260206004820152601d60248201527f416464726573733a2063616c6c20746f206e6f6e2d636f6e747261637400000060448201526064016106c2565b600080866001600160a01b031685876040516131f19190613abc565b60006040518083038185875af1925050503d806000811461322e576040519150601f19603f3d011682016040523d82523d6000602084013e613233565b606091505b509150915061311b82828661324d565b8060005260046000fd5b6060831561325c575081612bae565b82511561326c5782518084602001fd5b8160405162461bcd60e51b81526004016106c29190613bf2565b82805461329290613e74565b90600052602060002090601f0160209004810192826132b457600085556132fa565b82601f106132cd57805160ff19168380011785556132fa565b828001600101855582156132fa579182015b828111156132fa5782518255916020019190600101906132df565b5061330692915061330a565b5090565b5b80821115613306576000815560010161330b565b8035612e0a81613f10565b600082601f83011261333a578081fd5b8135602061334f61334a83613da0565b613d70565b80838252828201915082860187848660051b890101111561336e578586fd5b855b8581101561339557813561338381613f10565b84529284019290840190600101613370565b5090979650505050505050565b600082601f8301126133b2578081fd5b815160206133c261334a83613da0565b80838252828201915082860187848660051b89010111156133e1578586fd5b855b85811015613395576133f48261342b565b845292840192908401906001016133e3565b805161ffff81168114612e0a57600080fd5b803562ffffff81168114612e0a57600080fd5b805163ffffffff81168114612e0a57600080fd5b600060208284031215613450578081fd5b8135612bae81613f10565b60006020828403121561346c578081fd5b8151612bae81613f10565b60008060408385031215613489578081fd5b823561349481613f10565b915060208301356134a481613f10565b809150509250929050565b6000806000606084860312156134c3578081fd5b83356134ce81613f10565b925060208401356134de81613f10565b91506134ec60408501613418565b90509250925092565b600060208284031215613506578081fd5b81356001600160401b0381111561351b578182fd5b612bf28482850161332a565b60008060408385031215613539578182fd5b82356001600160401b0381111561354e578283fd5b61355a8582860161332a565b95602094909401359450505050565b60006020828403121561357a578081fd5b8151612bae81613f25565b600080600060608486031215613599578081fd5b83356001600160401b03808211156135af578283fd5b818601915086601f8301126135c2578283fd5b81356020828211156135d6576135d6613efa565b6135e8601f8301601f19168201613d70565b925081835288818386010111156135fd578485fd5b81818501828501378481838501015282965061361a81890161331f565b9550505050506134ec6040850161331f565b600060e0828403121561363d578081fd5b60405160e081016001600160401b038111828210171561365f5761365f613efa565b604052823561366d81613f10565b8152602083013561367d81613f10565b602082015261368e60408401613418565b604082015260608301356136a181613f33565b606082015260808301356136b481613f33565b608082015260a0838101359082015260c0928301359281019290925250919050565b600080600080600080600060e0888a0312156136f0578485fd5b87516136fb81613f10565b602089015190975061370c81613f33565b955061371a60408901613406565b945061372860608901613406565b935061373660808901613406565b925060a088015160ff8116811461374b578283fd5b60c089015190925061375c81613f25565b8091505092959891949750929550565b60006020828403121561377d578081fd5b5051919050565b600080600060608486031215613798578081fd5b8335925060208401356137aa81613f10565b915060408401356137ba81613f10565b809150509250925092565b600080600080608085870312156137da578182fd5b8451602080870151919550906001600160401b03808211156137fa578485fd5b818801915088601f83011261380d578485fd5b815161381b61334a82613da0565b8082825285820191508585018c878560051b880101111561383a578889fd5b8895505b8386101561386557805161385181613f10565b83526001959095019491860191860161383e565b5060408b0151909850945050508083111561387e578485fd5b505061388c878288016133a2565b606096909601519497939650505050565b600080600080608085870312156138b2578182fd5b845160208601519094506001600160801b03811681146138d0578283fd5b6040860151606090960151949790965092505050565b600080600080608085870312156138fb578182fd5b84519350602085015161390d81613f10565b925061391b6040860161342b565b6060959095015193969295505050565b60008060008060008060c08789031215613943578384fd5b863595506020870135945060408701356001600160401b03811115613966578485fd5b61397289828a0161332a565b945050606087013561398381613f10565b92506080870135915060a087013561399a81613f25565b809150509295509295509295565b6001600160a01b03169052565b6000815180845260208085019450808401835b838110156139ed5781516001600160a01b0316875295820195908201906001016139c8565b509495945050505050565b6000815180845260208085019450808401835b838110156139ed57815187529582019590820190600101613a0b565b60008151808452613a3f816020860160208601613e31565b601f01601f19169290920160200192915050565b6000815160a08452613a6860a0850182613a27565b6020848101516001600160a01b031690860152604080850151908601526060808501519086015260809384015193909401929092525090919050565b60609190911b6001600160601b031916815260140190565b60008251613ace818460208701613e31565b9190910192915050565b60008451613aea818460208901613e31565b60e89490941b6001600160e81b0319169190930190815260609190911b6001600160601b031916600382015260170192915050565b6001600160a01b0391909116815260200190565b6001600160a01b03938416815291909216602082015262ffffff909116604082015260600190565b6001600160a01b03929092168252602082015260400190565b606081526000613b8760608301866139b5565b8281036020840152613b9981866139f8565b91505060018060a01b0383166040830152949350505050565b604081526000613bc560408301856139f8565b8281036020840152612baa81856139b5565b8215158152604060208201526000612bf260408301846139f8565b602081526000612bae6020830184613a27565b604081526000613c186040830185613a27565b90508260208301529392505050565b6020808252818101527f556e69737761705633436f6e6e6563746f723a207a65726f2061646472657373604082015260600190565b6020808252602b908201527f496e697469616c697a61626c653a20636f6e7472616374206973206e6f74206960408201526a6e697469616c697a696e6760a81b606082015260800190565b602081526000612bae6020830184613a53565b600061016082019050613cce8284516139a8565b6020830151613ce060208401826139a8565b506040830151613cf7604084018262ffffff169052565b506060830151613d0c606084018260020b9052565b506080830151613d21608084018260020b9052565b5060a083015160a083015260c083015160c083015260e083015160e083015261010080840151818401525061012080840151613d5f828501826139a8565b505061014092830151919092015290565b604051601f8201601f191681016001600160401b0381118282101715613d9857613d98613efa565b604052919050565b60006001600160401b03821115613db957613db9613efa565b5060051b60200190565b60008219821115613dd657613dd6613ee4565b500190565b600082613df657634e487b7160e01b81526012600452602481fd5b500490565b6000816000190483118215151615613e1557613e15613ee4565b500290565b600082821015613e2c57613e2c613ee4565b500390565b60005b83811015613e4c578181015183820152602001613e34565b838111156108a55750506000910152565b600081613e6c57613e6c613ee4565b506000190190565b600181811c90821680613e8857607f821691505b602082108114156109f957634e487b7160e01b600052602260045260246000fd5b6000600019821415613ebd57613ebd613ee4565b5060010190565b600060ff821660ff811415613edb57613edb613ee4565b60010192915050565b634e487b7160e01b600052601160045260246000fd5b634e487b7160e01b600052604160045260246000fd5b6001600160a01b03811681146120e757600080fd5b80151581146120e757600080fd5b8060020b81146120e757600080fdfea2646970667358221220602131d5bded81a8a013d55f5f8f2630ccafb276f0717c7440df33404f9acaea64736f6c63430008040033",
  "devdoc": {
    "kind": "dev",
    "methods": {
      "getExactInput(address[],uint256)": {
        "details": "Return (false, 0) if DEX cannot swap the input amount"
      },
      "getExactOutput(address[],uint256)": {
        "details": "Return (false, 0) if DEX cannot give the output amount.       Note: No need to reverse the path for this function"
      },
      "initialize(string,address,address)": {
        "params": {
          "_exchangeRouter": "Address of the DEX router contract",
          "_name": "Name of the underlying DEX"
        }
      },
      "isPathValid(address[])": {
        "params": {
          "_path": "List of tokens that are used for exchanging"
        }
      },
      "owner()": {
        "details": "Returns the address of the current owner."
      },
      "renounceOwnership()": {
        "details": "Leaves the contract without owner. It will not be possible to call `onlyOwner` functions. Can only be called by the current owner. NOTE: Renouncing ownership will leave the contract without an owner, thereby disabling any functionality that is only available to the owner."
      },
      "setExchangeRouter(address)": {
        "details": "Set address of liquidity pool factory from the exchange router",
        "params": {
          "_exchangeRouter": "Address of the new exchange router contract"
        }
      },
      "setFeeTier(address,address,uint24)": {
        "details": "We set the fee tier that is used for exchanging tokens"
      },
      "setLiquidityPoolFactory()": {
        "details": "Set address from exchange router"
      },
      "setWrappedNativeToken()": {
        "details": "Get address from exchange router"
      },
      "swap(uint256,uint256,address[],address,uint256,bool)": {
        "details": "Check exchange conditions before exchanging      We assume that the input token is not WETH (it is teleBTC)",
        "params": {
          "_deadline": "Deadline of exchanging tokens",
          "_inputAmount": "Amount of input token",
          "_isFixedToken": "True if the input token amount is fixed",
          "_outputAmount": "Amount of output token",
          "_path": "List of tokens that are used for exchanging",
          "_to": "Receiver address"
        },
        "returns": {
          "_amounts": "Amounts of tokens that are involved in exchanging",
          "_result": "True if the exchange is successful"
        }
      },
      "transferOwnership(address)": {
        "details": "Transfers ownership of the contract to a new account (`newOwner`). Can only be called by the current owner."
      }
    },
    "version": 1
  },
  "userdoc": {
    "kind": "user",
    "methods": {
      "getExactInput(address[],uint256)": {
        "notice": "Return the output amount for the given input amount"
      },
      "getExactOutput(address[],uint256)": {
        "notice": "Return the needed input amount to get the output amount"
      },
      "getInputAmount(uint256,address,address)": {
        "notice": "Deprecated for v3"
      },
      "getOutputAmount(uint256,address,address)": {
        "notice": "Deprecated for v3"
      },
      "getSqrtPriceX96(address[])": {
        "notice": "Return the square root price of given token pairs"
      },
      "initialize(string,address,address)": {
        "notice": "This contract is used for interacting with UniswapV3 contract"
      },
      "isPathValid(address[])": {
        "notice": "Return true if the exchange path is valid"
      },
      "setExchangeRouter(address)": {
        "notice": "Setter for exchange router"
      },
      "setFeeTier(address,address,uint24)": {
        "notice": "Setter for fee tier"
      },
      "setLiquidityPoolFactory()": {
        "notice": "Setter for liquidity pool factory"
      },
      "setPositionManager(address)": {
        "notice": "Setter for position manager"
      },
      "setQuoter(address)": {
        "notice": "Setter for quoter"
      },
      "setWrappedNativeToken()": {
        "notice": "Setter for wrapped native token"
      },
      "swap(uint256,uint256,address[],address,uint256,bool)": {
        "notice": "Exchange input token for output token through exchange router"
      },
      "swapAndAddLiquidity((address,address,uint24,int24,int24,uint256,uint256))": {
        "notice": "Zap tokens into a Uniswap V3 position in one call"
      }
    },
    "version": 1
  },
  "storageLayout": {
    "storage": [
      {
        "astId": 139,
        "contract": "contracts/dex_connectors/UniswapV3Connector.sol:UniswapV3Connector",
        "label": "_initialized",
        "offset": 0,
        "slot": "0",
        "type": "t_uint8"
      },
      {
        "astId": 142,
        "contract": "contracts/dex_connectors/UniswapV3Connector.sol:UniswapV3Connector",
        "label": "_initializing",
        "offset": 1,
        "slot": "0",
        "type": "t_bool"
      },
      {
        "astId": 766,
        "contract": "contracts/dex_connectors/UniswapV3Connector.sol:UniswapV3Connector",
        "label": "__gap",
        "offset": 0,
        "slot": "1",
        "type": "t_array(t_uint256)50_storage"
      },
      {
        "astId": 11,
        "contract": "contracts/dex_connectors/UniswapV3Connector.sol:UniswapV3Connector",
        "label": "_owner",
        "offset": 0,
        "slot": "51",
        "type": "t_address"
      },
      {
        "astId": 131,
        "contract": "contracts/dex_connectors/UniswapV3Connector.sol:UniswapV3Connector",
        "label": "__gap",
        "offset": 0,
        "slot": "52",
        "type": "t_array(t_uint256)49_storage"
      },
      {
        "astId": 316,
        "contract": "contracts/dex_connectors/UniswapV3Connector.sol:UniswapV3Connector",
        "label": "_status",
        "offset": 0,
        "slot": "101",
        "type": "t_uint256"
      },
      {
        "astId": 385,
        "contract": "contracts/dex_connectors/UniswapV3Connector.sol:UniswapV3Connector",
        "label": "__gap",
        "offset": 0,
        "slot": "102",
        "type": "t_array(t_uint256)49_storage"
      },
      {
        "astId": 1853,
        "contract": "contracts/dex_connectors/UniswapV3Connector.sol:UniswapV3Connector",
        "label": "name",
        "offset": 0,
        "slot": "151",
        "type": "t_string_storage"
      },
      {
        "astId": 1856,
        "contract": "contracts/dex_connectors/UniswapV3Connector.sol:UniswapV3Connector",
        "label": "wrappedNativeToken",
        "offset": 0,
        "slot": "152",
        "type": "t_address"
      },
      {
        "astId": 1859,
        "contract": "contracts/dex_connectors/UniswapV3Connector.sol:UniswapV3Connector",
        "label": "exchangeRouter",
        "offset": 0,
        "slot": "153",
        "type": "t_address"
      },
      {
        "astId": 1862,
        "contract": "contracts/dex_connectors/UniswapV3Connector.sol:UniswapV3Connector",
        "label": "liquidityPoolFactory",
        "offset": 0,
        "slot": "154",
        "type": "t_address"
      },
      {
        "astId": 1864,
        "contract": "contracts/dex_connectors/UniswapV3Connector.sol:UniswapV3Connector",
        "label": "quoterAddress",
        "offset": 0,
        "slot": "155",
        "type": "t_address"
      },
      {
        "astId": 1870,
        "contract": "contracts/dex_connectors/UniswapV3Connector.sol:UniswapV3Connector",
        "label": "feeTier",
        "offset": 0,
        "slot": "156",
        "type": "t_mapping(t_address,t_mapping(t_address,t_uint24))"
      },
      {
        "astId": 1872,
        "contract": "contracts/dex_connectors/UniswapV3Connector.sol:UniswapV3Connector",
        "label": "positionManager",
        "offset": 0,
        "slot": "157",
        "type": "t_address"
      }
    ],
    "types": {
      "t_address": {
        "encoding": "inplace",
        "label": "address",
        "numberOfBytes": "20"
      },
      "t_array(t_uint256)49_storage": {
        "base": "t_uint256",
        "encoding": "inplace",
        "label": "uint256[49]",
        "numberOfBytes": "1568"
      },
      "t_array(t_uint256)50_storage": {
        "base": "t_uint256",
        "encoding": "inplace",
        "label": "uint256[50]",
        "numberOfBytes": "1600"
      },
      "t_bool": {
        "encoding": "inplace",
        "label": "bool",
        "numberOfBytes": "1"
      },
      "t_mapping(t_address,t_mapping(t_address,t_uint24))": {
        "encoding": "mapping",
        "key": "t_address",
        "label": "mapping(address => mapping(address => uint24))",
        "numberOfBytes": "32",
        "value": "t_mapping(t_address,t_uint24)"
      },
      "t_mapping(t_address,t_uint24)": {
        "encoding": "mapping",
        "key": "t_address",
        "label": "mapping(address => uint24)",
        "numberOfBytes": "32",
        "value": "t_uint24"
      },
      "t_string_storage": {
        "encoding": "bytes",
        "label": "string",
        "numberOfBytes": "32"
      },
      "t_uint24": {
        "encoding": "inplace",
        "label": "uint24",
        "numberOfBytes": "3"
      },
      "t_uint256": {
        "encoding": "inplace",
        "label": "uint256",
        "numberOfBytes": "32"
      },
      "t_uint8": {
        "encoding": "inplace",
        "label": "uint8",
        "numberOfBytes": "1"
      }
    }
  }
}