{
  "address": "0x9EC4B5cE9067edE40542C5f9841B326CE04FaAC4",
  "abi": [
    {
      "anonymous": false,
      "inputs": [
        {
          "indexed": false,
          "internalType": "bool",
          "name": "_swapToken0ToToken1",
          "type": "bool"
        },
        {
          "indexed": false,
          "internalType": "uint256",
          "name": "_neededSwapAmount",
          "type": "uint256"
        },
        {
          "indexed": false,
          "internalType": "uint256",
          "name": "_receivedAmount",
          "type": "uint256"
        },
        {
          "indexed": false,
          "internalType": "uint256",
          "name": "_totalAmount0",
          "type": "uint256"
        },
        {
          "indexed": false,
          "internalType": "uint256",
          "name": "_totalAmount1",
          "type": "uint256"
        }
      ],
      "name": "ExecuteSwap",
      "type": "event"
    },
    {
      "anonymous": false,
      "inputs": [
        {
          "indexed": false,
          "internalType": "uint256",
          "name": "_newUserRatio",
          "type": "uint256"
        },
        {
          "indexed": false,
          "internalType": "uint256",
          "name": "_newTargetRatio",
          "type": "uint256"
        },
        {
          "indexed": false,
          "internalType": "uint256",
          "name": "_targetRatio",
          "type": "uint256"
        }
      ],
      "name": "FindOptimalSwapAmount",
      "type": "event"
    },
    {
      "anonymous": false,
      "inputs": [
        {
          "indexed": false,
          "internalType": "uint8",
          "name": "version",
          "type": "uint8"
        }
      ],
      "name": "Initialized",
      "type": "event"
    },
    {
      "anonymous": false,
      "inputs": [
        {
          "indexed": true,
          "internalType": "address",
          "name": "previousOwner",
          "type": "address"
        },
        {
          "indexed": true,
          "internalType": "address",
          "name": "newOwner",
          "type": "address"
        }
      ],
      "name": "OwnershipTransferred",
      "type": "event"
    },
    {
      "anonymous": false,
      "inputs": [
        {
          "indexed": false,
          "internalType": "address[]",
          "name": "path",
          "type": "address[]"
        },
        {
          "indexed": false,
          "internalType": "uint256[]",
          "name": "amounts",
          "type": "uint256[]"
        },
        {
          "indexed": false,
          "internalType": "address",
          "name": "receiver",
          "type": "address"
        }
      ],
      "name": "Swap",
      "type": "event"
    },
    {
      "anonymous": false,
      "inputs": [
        {
          "components": [
            {
              "internalType": "uint256",
              "name": "tokenId",
              "type": "uint256"
            },
            {
              "internalType": "address",
              "name": "token0",
              "type": "address"
            },
            {
              "internalType": "address",
              "name": "token1",
              "type": "address"
            },
            {
              "internalType": "uint24",
              "name": "feeTier",
              "type": "uint24"
            },
            {
              "internalType": "int24",
              "name": "tickLower",
              "type": "int24"
            },
            {
              "internalType": "int24",
              "name": "tickUpper",
              "type": "int24"
            },
            {
              "internalType": "uint256",
              "name": "amount0Desired",
              "type": "uint256"
            },
            {
              "internalType": "uint256",
              "name": "amount1Desired",
              "type": "uint256"
            },
            {
              "internalType": "address",
              "name": "user",
              "type": "address"
            }
          ],
          "indexed": false,
          "internalType": "struct UniswapV3Connector.AddLiquidityParams",
          "name": "_params",
          "type": "tuple"
        },
        {
          "indexed": false,
          "internalType": "uint256",
          "name": "_remaining0",
          "type": "uint256"
        },
        {
          "indexed": false,
          "internalType": "uint256",
          "name": "_remaining1",
          "type": "uint256"
        },
        {
          "indexed": false,
          "internalType": "uint256",
          "name": "_tokenId",
          "type": "uint256"
        }
      ],
      "name": "SwapAndAddLiquidity",
      "type": "event"
    },
    {
      "inputs": [],
      "name": "MAX_ITERS",
      "outputs": [
        {
          "internalType": "uint256",
          "name": "",
          "type": "uint256"
        }
      ],
      "stateMutability": "view",
      "type": "function"
    },
    {
      "inputs": [],
      "name": "ONE_HUNDRED_PERCENT",
      "outputs": [
        {
          "internalType": "uint256",
          "name": "",
          "type": "uint256"
        }
      ],
      "stateMutability": "view",
      "type": "function"
    },
    {
      "inputs": [],
      "name": "TOLERANCE",
      "outputs": [
        {
          "internalType": "uint256",
          "name": "",
          "type": "uint256"
        }
      ],
      "stateMutability": "view",
      "type": "function"
    },
    {
      "inputs": [
        {
          "internalType": "address[]",
          "name": "_path",
          "type": "address[]"
        }
      ],
      "name": "convertedPath",
      "outputs": [
        {
          "internalType": "bytes",
          "name": "packedData",
          "type": "bytes"
        }
      ],
      "stateMutability": "view",
      "type": "function"
    },
    {
      "inputs": [
        {
          "internalType": "address[]",
          "name": "_path",
          "type": "address[]"
        }
      ],
      "name": "convertedPathReversed",
      "outputs": [
        {
          "internalType": "bytes",
          "name": "packedData",
          "type": "bytes"
        }
      ],
      "stateMutability": "view",
      "type": "function"
    },
    {
      "inputs": [],
      "name": "exchangeRouter",
      "outputs": [
        {
          "internalType": "address",
          "name": "",
          "type": "address"
        }
      ],
      "stateMutability": "view",
      "type": "function"
    },
    {
      "inputs": [
        {
          "internalType": "address",
          "name": "",
          "type": "address"
        },
        {
          "internalType": "address",
          "name": "",
          "type": "address"
        }
      ],
      "name": "feeTier",
      "outputs": [
        {
          "internalType": "uint24",
          "name": "",
          "type": "uint24"
        }
      ],
      "stateMutability": "view",
      "type": "function"
    },
    {
      "inputs": [
        {
          "internalType": "uint160",
          "name": "_sqrtPrice",
          "type": "uint160"
        },
        {
          "internalType": "int24",
          "name": "_tickLower",
          "type": "int24"
        },
        {
          "internalType": "int24",
          "name": "_tickUpper",
          "type": "int24"
        },
        {
          "internalType": "uint128",
          "name": "_liquidity",
          "type": "uint128"
        }
      ],
      "name": "getAmountsForLiquidity",
      "outputs": [
        {
          "internalType": "uint256",
          "name": "",
          "type": "uint256"
        },
        {
          "internalType": "uint256",
          "name": "",
          "type": "uint256"
        }
      ],
      "stateMutability": "pure",
      "type": "function"
    },
    {
      "inputs": [
        {
          "internalType": "address[]",
          "name": "_path",
          "type": "address[]"
        },
        {
          "internalType": "uint256",
          "name": "_amountIn",
          "type": "uint256"
        }
      ],
      "name": "getExactInput",
      "outputs": [
        {
          "internalType": "bool",
          "name": "",
          "type": "bool"
        },
        {
          "internalType": "uint256",
          "name": "",
          "type": "uint256"
        }
      ],
      "stateMutability": "nonpayable",
      "type": "function"
    },
    {
      "inputs": [
        {
          "internalType": "address[]",
          "name": "_path",
          "type": "address[]"
        },
        {
          "internalType": "uint256",
          "name": "_amountOut",
          "type": "uint256"
        }
      ],
      "name": "getExactOutput",
      "outputs": [
        {
          "internalType": "bool",
          "name": "",
          "type": "bool"
        },
        {
          "internalType": "uint256",
          "name": "",
          "type": "uint256"
        }
      ],
      "stateMutability": "nonpayable",
      "type": "function"
    },
    {
      "inputs": [
        {
          "internalType": "uint256",
          "name": "",
          "type": "uint256"
        },
        {
          "internalType": "address",
          "name": "",
          "type": "address"
        },
        {
          "internalType": "address",
          "name": "",
          "type": "address"
        }
      ],
      "name": "getInputAmount",
      "outputs": [
        {
          "internalType": "bool",
          "name": "",
          "type": "bool"
        },
        {
          "internalType": "uint256",
          "name": "",
          "type": "uint256"
        }
      ],
      "stateMutability": "pure",
      "type": "function"
    },
    {
      "inputs": [
        {
          "internalType": "uint160",
          "name": "_sqrtPrice",
          "type": "uint160"
        },
        {
          "internalType": "int24",
          "name": "_tickLower",
          "type": "int24"
        },
        {
          "internalType": "int24",
          "name": "_tickUpper",
          "type": "int24"
        },
        {
          "internalType": "uint256",
          "name": "_amount0Desired",
          "type": "uint256"
        },
        {
          "internalType": "uint256",
          "name": "_amount1Desired",
          "type": "uint256"
        }
      ],
      "name": "getLiquidityForAmounts",
      "outputs": [
        {
          "internalType": "uint128",
          "name": "",
          "type": "uint128"
        }
      ],
      "stateMutability": "pure",
      "type": "function"
    },
    {
      "inputs": [
        {
          "internalType": "uint256",
          "name": "",
          "type": "uint256"
        },
        {
          "internalType": "address",
          "name": "",
          "type": "address"
        },
        {
          "internalType": "address",
          "name": "",
          "type": "address"
        }
      ],
      "name": "getOutputAmount",
      "outputs": [
        {
          "internalType": "bool",
          "name": "",
          "type": "bool"
        },
        {
          "internalType": "uint256",
          "name": "",
          "type": "uint256"
        }
      ],
      "stateMutability": "pure",
      "type": "function"
    },
    {
      "inputs": [
        {
          "internalType": "address",
          "name": "_token0",
          "type": "address"
        },
        {
          "internalType": "address",
          "name": "_token1",
          "type": "address"
        },
        {
          "internalType": "uint24",
          "name": "_feeTier",
          "type": "uint24"
        }
      ],
      "name": "getSqrtPrice",
      "outputs": [
        {
          "internalType": "uint160",
          "name": "_sqrtPrice",
          "type": "uint160"
        }
      ],
      "stateMutability": "view",
      "type": "function"
    },
    {
      "inputs": [
        {
          "internalType": "int24",
          "name": "_tick",
          "type": "int24"
        }
      ],
      "name": "getSqrtPriceAtTick",
      "outputs": [
        {
          "internalType": "uint160",
          "name": "",
          "type": "uint160"
        }
      ],
      "stateMutability": "pure",
      "type": "function"
    },
    {
      "inputs": [
        {
          "internalType": "address[]",
          "name": "_path",
          "type": "address[]"
        }
      ],
      "name": "getSqrtPriceX96",
      "outputs": [
        {
          "internalType": "uint256[]",
          "name": "_sqrtPriceX96",
          "type": "uint256[]"
        },
        {
          "internalType": "address[]",
          "name": "_firstToken",
          "type": "address[]"
        }
      ],
      "stateMutability": "view",
      "type": "function"
    },
    {
      "inputs": [
        {
          "internalType": "string",
          "name": "_name",
          "type": "string"
        },
        {
          "internalType": "address",
          "name": "_exchangeRouter",
          "type": "address"
        },
        {
          "internalType": "address",
          "name": "_quoterAddress",
          "type": "address"
        }
      ],
      "name": "initialize",
      "outputs": [],
      "stateMutability": "nonpayable",
      "type": "function"
    },
    {
      "inputs": [
        {
          "internalType": "address[]",
          "name": "_path",
          "type": "address[]"
        }
      ],
      "name": "isPathValid",
      "outputs": [
        {
          "internalType": "bool",
          "name": "_result",
          "type": "bool"
        }
      ],
      "stateMutability": "view",
      "type": "function"
    },
    {
      "inputs": [],
      "name": "liquidityPoolFactory",
      "outputs": [
        {
          "internalType": "address",
          "name": "",
          "type": "address"
        }
      ],
      "stateMutability": "view",
      "type": "function"
    },
    {
      "inputs": [],
      "name": "name",
      "outputs": [
        {
          "internalType": "string",
          "name": "",
          "type": "string"
        }
      ],
      "stateMutability": "view",
      "type": "function"
    },
    {
      "inputs": [],
      "name": "owner",
      "outputs": [
        {
          "internalType": "address",
          "name": "",
          "type": "address"
        }
      ],
      "stateMutability": "view",
      "type": "function"
    },
    {
      "inputs": [],
      "name": "positionManager",
      "outputs": [
        {
          "internalType": "address",
          "name": "",
          "type": "address"
        }
      ],
      "stateMutability": "view",
      "type": "function"
    },
    {
      "inputs": [],
      "name": "quoterAddress",
      "outputs": [
        {
          "internalType": "address",
          "name": "",
          "type": "address"
        }
      ],
      "stateMutability": "view",
      "type": "function"
    },
    {
      "inputs": [],
      "name": "renounceOwnership",
      "outputs": [],
      "stateMutability": "nonpayable",
      "type": "function"
    },
    {
      "inputs": [
        {
          "internalType": "address",
          "name": "_exchangeRouter",
          "type": "address"
        }
      ],
      "name": "setExchangeRouter",
      "outputs": [],
      "stateMutability": "nonpayable",
      "type": "function"
    },
    {
      "inputs": [
        {
          "internalType": "address",
          "name": "_firstToken",
          "type": "address"
        },
        {
          "internalType": "address",
          "name": "_secondToken",
          "type": "address"
        },
        {
          "internalType": "uint24",
          "name": "_feeTier",
          "type": "uint24"
        }
      ],
      "name": "setFeeTier",
      "outputs": [],
      "stateMutability": "nonpayable",
      "type": "function"
    },
    {
      "inputs": [],
      "name": "setLiquidityPoolFactory",
      "outputs": [],
      "stateMutability": "nonpayable",
      "type": "function"
    },
    {
      "inputs": [
        {
          "internalType": "uint256",
          "name": "_maxIters",
          "type": "uint256"
        }
      ],
      "name": "setMaxIters",
      "outputs": [],
      "stateMutability": "nonpayable",
      "type": "function"
    },
    {
      "inputs": [
        {
          "internalType": "address",
          "name": "_positionManager",
          "type": "address"
        }
      ],
      "name": "setPositionManager",
      "outputs": [],
      "stateMutability": "nonpayable",
      "type": "function"
    },
    {
      "inputs": [
        {
          "internalType": "address",
          "name": "_quoterAddress",
          "type": "address"
        }
      ],
      "name": "setQuoter",
      "outputs": [],
      "stateMutability": "nonpayable",
      "type": "function"
    },
    {
      "inputs": [
        {
          "internalType": "uint256",
          "name": "_tolerance",
          "type": "uint256"
        }
      ],
      "name": "setTolerance",
      "outputs": [],
      "stateMutability": "nonpayable",
      "type": "function"
    },
    {
      "inputs": [],
      "name": "setWrappedNativeToken",
      "outputs": [],
      "stateMutability": "nonpayable",
      "type": "function"
    },
    {
      "inputs": [
        {
          "internalType": "uint256",
          "name": "_inputAmount",
          "type": "uint256"
        },
        {
          "internalType": "uint256",
          "name": "_outputAmount",
          "type": "uint256"
        },
        {
          "internalType": "address[]",
          "name": "_path",
          "type": "address[]"
        },
        {
          "internalType": "address",
          "name": "_to",
          "type": "address"
        },
        {
          "internalType": "uint256",
          "name": "_deadline",
          "type": "uint256"
        },
        {
          "internalType": "bool",
          "name": "_isFixedToken",
          "type": "bool"
        }
      ],
      "name": "swap",
      "outputs": [
        {
          "internalType": "bool",
          "name": "_result",
          "type": "bool"
        },
        {
          "internalType": "uint256[]",
          "name": "_amounts",
          "type": "uint256[]"
        }
      ],
      "stateMutability": "nonpayable",
      "type": "function"
    },
    {
      "inputs": [
        {
          "components": [
            {
              "internalType": "uint256",
              "name": "tokenId",
              "type": "uint256"
            },
            {
              "internalType": "address",
              "name": "token0",
              "type": "address"
            },
            {
              "internalType": "address",
              "name": "token1",
              "type": "address"
            },
            {
              "internalType": "uint24",
              "name": "feeTier",
              "type": "uint24"
            },
            {
              "internalType": "int24",
              "name": "tickLower",
              "type": "int24"
            },
            {
              "internalType": "int24",
              "name": "tickUpper",
              "type": "int24"
            },
            {
              "internalType": "uint256",
              "name": "amount0Desired",
              "type": "uint256"
            },
            {
              "internalType": "uint256",
              "name": "amount1Desired",
              "type": "uint256"
            },
            {
              "internalType": "address",
              "name": "user",
              "type": "address"
            }
          ],
          "internalType": "struct UniswapV3Connector.AddLiquidityParams",
          "name": "params",
          "type": "tuple"
        }
      ],
      "name": "swapAndAddLiquidity",
      "outputs": [
        {
          "internalType": "uint256",
          "name": "_tokenId",
          "type": "uint256"
        },
        {
          "internalType": "uint256",
          "name": "_remaining0",
          "type": "uint256"
        },
        {
          "internalType": "uint256",
          "name": "_remaining1",
          "type": "uint256"
        }
      ],
      "stateMutability": "nonpayable",
      "type": "function"
    },
    {
      "inputs": [
        {
          "internalType": "address",
          "name": "newOwner",
          "type": "address"
        }
      ],
      "name": "transferOwnership",
      "outputs": [],
      "stateMutability": "nonpayable",
      "type": "function"
    },
    {
      "inputs": [],
      "name": "wrappedNativeToken",
      "outputs": [
        {
          "internalType": "address",
          "name": "",
          "type": "address"
        }
      ],
      "stateMutability": "view",
      "type": "function"
    }
  ],
  "transactionHash": "0x19841156dcd56f474c8c3b38aa4970a0343efa8ecb0be0a56a3065b66eb661a8",
  "args": [],
  "numDeployments": 1,
  "solcInputHash": "f0b8a49355edb0debd147c01cc7e3abe",
  "bytecode": "0x608060405234801561001057600080fd5b50614b7d806100206000396000f3fe608060405234801561001057600080fd5b50600436106101ac5760003560e01c806301e65db3146101b15780630337236a146101fa57806304fe3fcb1461022557806306fdde031461023a57806311a2f0cb1461024f5780631580b5e51461026f57806317fcb39b146102775780631cb858181461028a57806326829bf91461029d5780632a279b28146102b05780633566967d146102d85780633c5fd98214610302578063463fd1af146103155780635760f2e3146103285780636145f8761461033b578063671c6a231461034e578063715018a61461036157806378c3168414610369578063791b98bc1461038a5780638147b13b1461039d578063838b7ccb146103b05780638779e3d6146103c357806389883074146103e55780638b1937cd146103ff5780638da5cb5b146104125780639b4bca241461041a578063b0bbcd881461043d578063b18a313f1461045e578063b23e4fc614610471578063b52d5b1e14610479578063b9dc6bfa14610490578063dd0081c714610499578063df71d7f3146103e5578063e75d75d5146104a2578063f2fde38b146104b5578063f912c64b146104c8575b600080fd5b6101e16101bf366004613d3e565b609c60209081526000928352604080842090915290825290205462ffffff1681565b60405162ffffff90911681526020015b60405180910390f35b61020d610208366004614069565b6104db565b6040516001600160801b0390911681526020016101f1565b610238610233366004613d76565b610506565b005b610242610569565b6040516101f191906146ba565b609b54610262906001600160a01b031681565b6040516101f191906145e7565b6102386105f7565b609854610262906001600160a01b031681565b609954610262906001600160a01b031681565b6102386102ab366004614159565b6106a7565b6102c36102be36600461400e565b6106b4565b604080519283526020830191909152016101f1565b6102eb6102e6366004613df2565b6106e1565b6040805192151583526020830191909152016101f1565b610238610310366004614159565b6107a0565b610238610323366004613e6c565b6107ad565b610238610336366004613d06565b610a2f565b610242610349366004613dc0565b610a59565b61026261035c366004613d76565b610b83565b610238610cfa565b61037c610377366004613dc0565b610d04565b6040516101f192919061467a565b609d54610262906001600160a01b031681565b6102626103ab366004613e50565b611118565b6102386103be366004613d06565b611129565b6103d66103d1366004613f1c565b611208565b6040516101f1939291906148f0565b6102eb6103f3366004614189565b60016000935093915050565b6102eb61040d366004613df2565b611ee9565b610262611f21565b61042d610428366004613dc0565b611f30565b60405190151581526020016101f1565b61045061044b366004614319565b612127565b6040516101f192919061469f565b61024261046c366004613dc0565b6124c9565b610238612607565b610482609f5481565b6040519081526020016101f1565b610482609e5481565b61048261271081565b609a54610262906001600160a01b031681565b6102386104c3366004613d06565b6126b7565b6102386104d6366004613d06565b612730565b60006104fa866104ea8761275a565b6104f38761275a565b8686612a15565b90505b95945050505050565b61050e612acd565b6001600160a01b039283166000818152609c60208181526040808420969097168352948552858220805462ffffff90951662ffffff199586168117909155908552858220928252919093529290912080549091169091179055565b6097805461057690614a33565b80601f01602080910402602001604051908101604052809291908181526020018280546105a290614a33565b80156105ef5780601f106105c4576101008083540402835291602001916105ef565b820191906000526020600020905b8154815290600101906020018083116105d257829003601f168201915b505050505081565b6105ff612acd565b609960009054906101000a90046001600160a01b03166001600160a01b0316634aa4a4fc6040518163ffffffff1660e01b815260040160206040518083038186803b15801561064d57600080fd5b505afa158015610661573d6000803e3d6000fd5b505050506040513d601f19601f820116820180604052508101906106859190613d22565b609880546001600160a01b0319166001600160a01b0392909216919091179055565b6106af612acd565b609e55565b6000806106d3866106c48761275a565b6106cd8761275a565b86612b2c565b915091505b94509492505050565b6000806106ed84611f30565b6106fc57506000905080610799565b609b546000906001600160a01b0316632f80bb1d610719876124c9565b866040518363ffffffff1660e01b81526004016107379291906146cd565b600060405180830381600087803b15801561075157600080fd5b505af1158015610765573d6000803e3d6000fd5b505050506040513d6000823e601f3d908101601f1916820160405261078d91908101906141bf565b50600195509193505050505b9250929050565b6107a8612acd565b609f55565b600054610100900460ff16158080156107cd5750600054600160ff909116105b806107e75750303b1580156107e7575060005460ff166001145b61084f5760405162461bcd60e51b815260206004820152602e60248201527f496e697469616c697a61626c653a20636f6e747261637420697320616c72656160448201526d191e481a5b9a5d1a585b1a5e995960921b60648201526084015b60405180910390fd5b6000805460ff191660011790558015610872576000805461ff0019166101001790555b61087a612bc7565b610882612bf6565b8351610895906097906020870190613b1e565b50609980546001600160a01b0319166001600160a01b0385169081179091556040805163c45a015560e01b8152905163c45a015591600480820192602092909190829003018186803b1580156108ea57600080fd5b505afa1580156108fe573d6000803e3d6000fd5b505050506040513d601f19601f820116820180604052508101906109229190613d22565b609a80546001600160a01b03199081166001600160a01b0393841617909155609b8054909116848316179055609954604080516312a9293f60e21b815290519190921691634aa4a4fc916004808301926020929190829003018186803b15801561098b57600080fd5b505afa15801561099f573d6000803e3d6000fd5b505050506040513d601f19601f820116820180604052508101906109c39190613d22565b609880546001600160a01b0319166001600160a01b03929092169190911790558015610a29576000805461ff0019169055604051600181527f7f26b83ff96e1f2b6a682f133852f6798a09c465da95921460cefb38474024989060200160405180910390a15b50505050565b610a37612acd565b609d80546001600160a01b0319166001600160a01b0392909216919091179055565b606081600081518110610a7c57634e487b7160e01b600052603260045260246000fd5b6020026020010151604051602001610a94919061456c565b60408051601f19818403018152919052905060015b8251811015610b7d57600083610ac06001846149d9565b81518110610ade57634e487b7160e01b600052603260045260246000fd5b602002602001015190506000848381518110610b0a57634e487b7160e01b600052603260045260246000fd5b6020908102919091018101516001600160a01b038085166000908152609c84526040808220928416825291845281902054905191935062ffffff1691610b5691879184918691016145a0565b60405160208183030381529060405294505050508080610b7590614a68565b915050610aa9565b50919050565b609a54604051630b4c774160e11b815260009182916001600160a01b0390911690631698ee8290610bbc908890889088906004016145fb565b60206040518083038186803b158015610bd457600080fd5b505afa158015610be8573d6000803e3d6000fd5b505050506040513d601f19601f82011682018060405250810190610c0c9190613d22565b60408051600481526024810182526020810180516001600160e01b0316633850c7bd60e01b179052905191925060009182916001600160a01b03851691610c539190614584565b600060405180830381855afa9150503d8060008114610c8e576040519150601f19603f3d011682016040523d82523d6000602084013e610c93565b606091505b509150915081610cdb5760405162461bcd60e51b815260206004820152601360248201527204661696c656420746f2067657420736c6f743606c1b6044820152606401610846565b80806020019051810190610cef9190613d22565b979650505050505050565b610d02612acd565b565b60608060008060005b60018651610d1b91906149d9565b81101561111057609a5486516001600160a01b0390911690631698ee8290889084908110610d5957634e487b7160e01b600052603260045260246000fd5b602002602001015188846001610d6f9190614982565b81518110610d8d57634e487b7160e01b600052603260045260246000fd5b6020026020010151609c60008b8781518110610db957634e487b7160e01b600052603260045260246000fd5b60200260200101516001600160a01b03166001600160a01b0316815260200190815260200160002060008b876001610df19190614982565b81518110610e0f57634e487b7160e01b600052603260045260246000fd5b60200260200101516001600160a01b03166001600160a01b0316815260200190815260200160002060009054906101000a900462ffffff166040518463ffffffff1660e01b8152600401610e65939291906145fb565b60206040518083038186803b158015610e7d57600080fd5b505afa158015610e91573d6000803e3d6000fd5b505050506040513d601f19601f82011682018060405250810190610eb59190613d22565b9250826001600160a01b0316633850c7bd6040518163ffffffff1660e01b815260040160e06040518083038186803b158015610ef057600080fd5b505afa158015610f04573d6000803e3d6000fd5b505050506040513d601f19601f82011682018060405250810190610f2891906140c3565b505089516001600160a01b03909516965086948a945086935083109150610f61905057634e487b7160e01b600052603260045260246000fd5b602002602001018181525050858181518110610f8d57634e487b7160e01b600052603260045260246000fd5b60200260200101516001600160a01b0316836001600160a01b0316630dfe16816040518163ffffffff1660e01b815260040160206040518083038186803b158015610fd757600080fd5b505afa158015610feb573d6000803e3d6000fd5b505050506040513d601f19601f8201168201806040525081019061100f9190613d22565b6001600160a01b0316141561108b5785818151811061103e57634e487b7160e01b600052603260045260246000fd5b602002602001015184828151811061106657634e487b7160e01b600052603260045260246000fd5b60200260200101906001600160a01b031690816001600160a01b0316815250506110fe565b85611097826001614982565b815181106110b557634e487b7160e01b600052603260045260246000fd5b60200260200101518482815181106110dd57634e487b7160e01b600052603260045260246000fd5b60200260200101906001600160a01b031690816001600160a01b0316815250505b8061110881614a68565b915050610d0d565b505050915091565b60006111238261275a565b92915050565b806001600160a01b0381166111505760405162461bcd60e51b8152600401610846906146ef565b611158612acd565b609980546001600160a01b0319166001600160a01b0384169081179091556040805163c45a015560e01b8152905163c45a015591600480820192602092909190829003018186803b1580156111ac57600080fd5b505afa1580156111c0573d6000803e3d6000fd5b505050506040513d601f19601f820116820180604052508101906111e49190613d22565b609a80546001600160a01b0319166001600160a01b03929092169190911790555050565b6000806000611215612c25565b609a54602085015160408087015160608801519151630b4c774160e11b81526000946001600160a01b031693631698ee82936112559391926004016145fb565b60206040518083038186803b15801561126d57600080fd5b505afa158015611281573d6000803e3d6000fd5b505050506040513d601f19601f820116820180604052508101906112a59190613d22565b905084602001516001600160a01b0316816001600160a01b0316630dfe16816040518163ffffffff1660e01b815260040160206040518083038186803b1580156112ee57600080fd5b505afa158015611302573d6000803e3d6000fd5b505050506040513d601f19601f820116820180604052508101906113269190613d22565b6001600160a01b0316146113645760c0850180516020870180516040890180516001600160a01b039081169093529116905260e08701805190925290525b84511561154057609d54855160405163133f757160e31b81526004810191909152600091829182916001600160a01b0316906399fbab88906024016101806040518083038186803b1580156113b857600080fd5b505afa1580156113cc573d6000803e3d6000fd5b505050506040513d601f19601f820116820180604052508101906113f09190614396565b505050505096509650965050505050876060015162ffffff168362ffffff161461146a5760405162461bcd60e51b815260206004820152602560248201527f556e69737761705633436f6e6e6563746f723a204665652074696572206d69736044820152640dac2e8c6d60db1b6064820152608401610846565b876080015160020b8260020b146114d35760405162461bcd60e51b815260206004820152602760248201527f556e69737761705633436f6e6e6563746f723a205469636b206c6f776572206d6044820152660d2e6dac2e8c6d60cb1b6064820152608401610846565b8760a0015160020b8160020b1461153c5760405162461bcd60e51b815260206004820152602760248201527f556e69737761705633436f6e6e6563746f723a205469636b207570706572206d6044820152660d2e6dac2e8c6d60cb1b6064820152608401610846565b5050505b61156833308760c0015188602001516001600160a01b0316612c7f909392919063ffffffff16565b61159033308760e0015188604001516001600160a01b0316612c7f909392919063ffffffff16565b602085015160995460c087015160405163095ea7b360e01b81526001600160a01b039384169363095ea7b3936115cb93911691600401614623565b602060405180830381600087803b1580156115e557600080fd5b505af11580156115f9573d6000803e3d6000fd5b505050506040513d601f19601f8201168201806040525081019061161d9190613e34565b5060408086015160995460e0880151925163095ea7b360e01b81526001600160a01b039283169363095ea7b393611658931691600401614623565b602060405180830381600087803b15801561167257600080fd5b505af1158015611686573d6000803e3d6000fd5b505050506040513d601f19601f820116820180604052508101906116aa9190613e34565b506020850151609d5460405163095ea7b360e01b81526001600160a01b039283169263095ea7b3926116e59291169060001990600401614623565b602060405180830381600087803b1580156116ff57600080fd5b505af1158015611713573d6000803e3d6000fd5b505050506040513d601f19601f820116820180604052508101906117379190613e34565b50604080860151609d54915163095ea7b360e01b81526001600160a01b039182169263095ea7b3926117729291169060001990600401614623565b602060405180830381600087803b15801561178c57600080fd5b505af11580156117a0573d6000803e3d6000fd5b505050506040513d601f19601f820116820180604052508101906117c49190613e34565b5060006117de866020015187604001518860600151610b83565b9050600061180f826117f3896080015161275a565b6118008a60a0015161275a565b8a60c001518b60e00151612a15565b9050600080611832846118258b6080015161275a565b6106cd8c60a0015161275a565b91509150600080821161184757600019611864565b8161185a84670de0b6b3a76400006149ba565b611864919061499a565b90506000808b60e001511161187b576000196118a1565b60e08b015160c08c015161189790670de0b6b3a76400006149ba565b6118a1919061499a565b9050818111156118cf576118c8876001868e60c001516118c191906149d9565b8e86612cea565b505061191f565b81811080156118de5750600082115b1561191f5761191c876000858e60e001516118f991906149d9565b8e8861190d89670de0b6b3a76400006149ba565b611917919061499a565b612cea565b50505b8a51611b4e57609d60009054906101000a90046001600160a01b03166001600160a01b031663883164566040518061016001604052808e602001516001600160a01b031681526020018e604001516001600160a01b031681526020018e6060015162ffffff1681526020018e6080015160020b81526020018e60a0015160020b81526020018e602001516001600160a01b03166370a08231306040518263ffffffff1660e01b81526004016119d491906145e7565b60206040518083038186803b1580156119ec57600080fd5b505afa158015611a00573d6000803e3d6000fd5b505050506040513d601f19601f82011682018060405250810190611a249190614171565b81526020018e604001516001600160a01b03166370a08231306040518263ffffffff1660e01b8152600401611a5991906145e7565b60206040518083038186803b158015611a7157600080fd5b505afa158015611a85573d6000803e3d6000fd5b505050506040513d601f19601f82011682018060405250810190611aa99190614171565b815260200160008152602001600081526020018e61010001516001600160a01b03168152602001428152506040518263ffffffff1660e01b8152600401611af0919061483a565b608060405180830381600087803b158015611b0a57600080fd5b505af1158015611b1e573d6000803e3d6000fd5b505050506040513d601f19601f82011682018060405250810190611b429190614297565b50919b50611d52915050565b8a600001519950609d60009054906101000a90046001600160a01b03166001600160a01b031663219f5d176040518060c001604052808e6000015181526020018e602001516001600160a01b03166370a08231306040518263ffffffff1660e01b8152600401611bbe91906145e7565b60206040518083038186803b158015611bd657600080fd5b505afa158015611bea573d6000803e3d6000fd5b505050506040513d601f19601f82011682018060405250810190611c0e9190614171565b81526020018e604001516001600160a01b03166370a08231306040518263ffffffff1660e01b8152600401611c4391906145e7565b60206040518083038186803b158015611c5b57600080fd5b505afa158015611c6f573d6000803e3d6000fd5b505050506040513d601f19601f82011682018060405250810190611c939190614171565b8152600060208083018290526040808401929092524260609384015281516001600160e01b031960e087901b168152845160048201529084015160248201529083015160448201529082015160648201526080820151608482015260a09091015160a482015260c401606060405180830381600087803b158015611d1657600080fd5b505af1158015611d2a573d6000803e3d6000fd5b505050506040513d601f19601f82011682018060405250810190611d4e9190613fd8565b5050505b8a602001516001600160a01b03166370a08231306040518263ffffffff1660e01b8152600401611d8291906145e7565b60206040518083038186803b158015611d9a57600080fd5b505afa158015611dae573d6000803e3d6000fd5b505050506040513d601f19601f82011682018060405250810190611dd29190614171565b98508a604001516001600160a01b03166370a08231306040518263ffffffff1660e01b8152600401611e0491906145e7565b60206040518083038186803b158015611e1c57600080fd5b505afa158015611e30573d6000803e3d6000fd5b505050506040513d601f19601f82011682018060405250810190611e549190614171565b97508815611e755760208b0151611e75906001600160a01b0316338b6130b4565b8715611e945760408b0151611e94906001600160a01b0316338a6130b4565b7f1f515950ae0671cc6356d5014eac559a4c7093757efea02e83e7c21398fdb5d78b8a8a8d604051611ec9949392919061476f565b60405180910390a150505050505050611ee26001606555565b9193909250565b600080611ef584611f30565b611f0457506000905080610799565b609b546000906001600160a01b031663cdca175361071987610a59565b6033546001600160a01b031690565b600080600283511015611f465750600092915050565b60005b60018451611f5791906149d9565b81101561211d57609a5484516001600160a01b0390911690631698ee8290869084908110611f9557634e487b7160e01b600052603260045260246000fd5b602002602001015186846001611fab9190614982565b81518110611fc957634e487b7160e01b600052603260045260246000fd5b6020026020010151609c6000898781518110611ff557634e487b7160e01b600052603260045260246000fd5b60200260200101516001600160a01b03166001600160a01b0316815260200190815260200160002060008987600161202d9190614982565b8151811061204b57634e487b7160e01b600052603260045260246000fd5b60200260200101516001600160a01b03166001600160a01b0316815260200190815260200160002060009054906101000a900462ffffff166040518463ffffffff1660e01b81526004016120a1939291906145fb565b60206040518083038186803b1580156120b957600080fd5b505afa1580156120cd573d6000803e3d6000fd5b505050506040513d601f19601f820116820180604052508101906120f19190613d22565b91506001600160a01b03821661210b575060009392505050565b8061211581614a68565b915050611f49565b5060019392505050565b60006060612133612c25565b846001600160a01b03811661215a5760405162461bcd60e51b8152600401610846906146ef565b60006121698a8a8a89896130df565b909450905083156124b2576040805160028082526060820183526000926020830190803683370190505093506121dd3330848c6000815181106121bc57634e487b7160e01b600052603260045260246000fd5b60200260200101516001600160a01b0316612c7f909392919063ffffffff16565b886000815181106121fe57634e487b7160e01b600052603260045260246000fd5b602090810291909101015160995460405163095ea7b360e01b81526001600160a01b039283169263095ea7b39261223c929116908690600401614623565b602060405180830381600087803b15801561225657600080fd5b505af115801561226a573d6000803e3d6000fd5b505050506040513d601f19601f8201168201806040525081019061228e9190613e34565b5060018615151415612385576099546001600160a01b031663c04b8d596122b8848d8d8d8d61319b565b6040518263ffffffff1660e01b81526004016122d49190614827565b602060405180830381600087803b1580156122ee57600080fd5b505af1158015612302573d6000803e3d6000fd5b505050506040513d601f19601f820116820180604052508101906123269190614171565b9050818460008151811061234a57634e487b7160e01b600052603260045260246000fd5b602002602001018181525050808460018151811061237857634e487b7160e01b600052603260045260246000fd5b6020026020010181815250505b85612475576099546001600160a01b031663f28c04986123a8848d8d8d8d613218565b6040518263ffffffff1660e01b81526004016123c49190614827565b602060405180830381600087803b1580156123de57600080fd5b505af11580156123f2573d6000803e3d6000fd5b505050506040513d601f19601f820116820180604052508101906124169190614171565b9050808460008151811061243a57634e487b7160e01b600052603260045260246000fd5b602002602001018181525050898460018151811061246857634e487b7160e01b600052603260045260246000fd5b6020026020010181815250505b7fe1010d0ab476908054981d12fbb96915efcceb8d57a09ae8ca62f4bda731837389858a6040516124a89392919061463c565b60405180910390a1505b50506124be6001606555565b965096945050505050565b606081600183516124da91906149d9565b815181106124f857634e487b7160e01b600052603260045260246000fd5b6020026020010151604051602001612510919061456c565b604051602081830303815290604052905060006001835161253191906149d9565b90505b8015610b7d57600083828151811061255c57634e487b7160e01b600052603260045260246000fd5b6020026020010151905060008460018461257691906149d9565b8151811061259457634e487b7160e01b600052603260045260246000fd5b6020908102919091018101516001600160a01b038085166000908152609c84526040808220928416825291845281902054905191935062ffffff16916125e091879184918691016145a0565b604051602081830303815290604052945050505080806125ff90614a1c565b915050612534565b61260f612acd565b609960009054906101000a90046001600160a01b03166001600160a01b031663c45a01556040518163ffffffff1660e01b815260040160206040518083038186803b15801561265d57600080fd5b505afa158015612671573d6000803e3d6000fd5b505050506040513d601f19601f820116820180604052508101906126959190613d22565b609a80546001600160a01b0319166001600160a01b0392909216919091179055565b6126bf612acd565b6001600160a01b0381166127245760405162461bcd60e51b815260206004820152602660248201527f4f776e61626c653a206e6577206f776e657220697320746865207a65726f206160448201526564647265737360d01b6064820152608401610846565b61272d81613296565b50565b612738612acd565b609b80546001600160a01b0319166001600160a01b0392909216919091179055565b60020b600060ff82901d80830118620d89e8811115612784576127846345c3193d60e11b846132e8565b7001fffcb933bd6fad37aa2d162d1a5940016001821602600160801b1860028216156127c0576ffff97272373d413259a46990580e213a0260801c5b60048216156127df576ffff2e50f5f656932ef12357cf3c7fdcc0260801c5b60088216156127fe576fffe5caca7e10e4e61c3624eaa0941cd00260801c5b601082161561281d576fffcb9843d60f6159c9db58835c9266440260801c5b602082161561283c576fff973b41fa98c081472e6896dfb254c00260801c5b604082161561285b576fff2ea16466c96a3843ec78b326b528610260801c5b608082161561287a576ffe5dee046a99a2a811c461f1969c30530260801c5b61010082161561289a576ffcbe86c7900a88aedcffc83b479aa3a40260801c5b6102008216156128ba576ff987a7253ac413176f2b074cf7815e540260801c5b6104008216156128da576ff3392b0822b70005940c7a398e4b70f30260801c5b6108008216156128fa576fe7159475a2c29b7443b29c7fa6e889d90260801c5b61100082161561291a576fd097f3bdfd2022b8845ad8f792aa58250260801c5b61200082161561293a576fa9f746462d870fdf8a65dc1f90e061e50260801c5b61400082161561295a576f70d869a156d2a1b890bb3df62baf32f70260801c5b61800082161561297a576f31be135f97d08fd981231505542fcfa60260801c5b6201000082161561299b576f09aa508b5b7a84e1c677de54f3e99bc90260801c5b620200008216156129bb576e5d6af8dedb81196699c329225ee6040260801c5b620400008216156129da576d2216e584f5fa1ea926041bedfe980260801c5b620800008216156129f7576b048a170391f7dc42444e8fa20260801c5b6000841315612a0557600019045b63ffffffff0160201c9392505050565b6000836001600160a01b0316856001600160a01b03161115612a35579293925b846001600160a01b0316866001600160a01b031611612a6057612a598585856132f9565b90506104fd565b836001600160a01b0316866001600160a01b03161015612ac2576000612a878786866132f9565b90506000612a96878986613367565b9050806001600160801b0316826001600160801b031610612ab75780612ab9565b815b925050506104fd565b6104fa858584613367565b33612ad6611f21565b6001600160a01b031614610d025760405162461bcd60e51b815260206004820181905260248201527f4f776e61626c653a2063616c6c6572206973206e6f7420746865206f776e65726044820152606401610846565b600080836001600160a01b0316856001600160a01b03161115612b4d579293925b846001600160a01b0316866001600160a01b031611612b7857612b718585856133ac565b91506106d8565b836001600160a01b0316866001600160a01b03161015612bb157612b9d8685856133ac565b9150612baa858785613429565b90506106d8565b612bbc858585613429565b905094509492505050565b600054610100900460ff16612bee5760405162461bcd60e51b815260040161084690614724565b610d0261346c565b600054610100900460ff16612c1d5760405162461bcd60e51b815260040161084690614724565b610d0261349c565b60026065541415612c785760405162461bcd60e51b815260206004820152601f60248201527f5265656e7472616e637947756172643a207265656e7472616e742063616c6c006044820152606401610846565b6002606555565b6040516001600160a01b0380851660248301528316604482015260648101829052610a299085906323b872dd60e01b906084015b60408051601f198184030181529190526020810180516001600160e01b03166001600160e01b0319909316929092179091526134c3565b6040805161010081018252600080825260208201819052918101829052606081018290526080810182905260a0810182905260c0810182905260e0810182905281906000612d45866020015187604001518860600151610b83565b9050600080612dde83612d5b8a6080015161275a565b612d688b60a0015161275a565b8e6001600160a01b0316631a6865026040518163ffffffff1660e01b815260040160206040518083038186803b158015612da157600080fd5b505afa158015612db5573d6000803e3d6000fd5b505050506040513d601f19601f82011682018060405250810190612dd99190613fbc565b612b2c565b915091508915612e6f57612df58989898585613595565b955060405180610100016040528089602001516001600160a01b0316815260200189604001516001600160a01b03168152602001896060015162ffffff168152602001306001600160a01b031681526020014281526020018781526020016000815260200160006001600160a01b03168152509350612f7a565b6000604051806101200160405280600081526020018a604001516001600160a01b031681526020018a602001516001600160a01b031681526020018a6060015162ffffff1681526020018a6080015160020b81526020018a60a0015160020b81526020018a60e0015181526020018a60c001518152602001306001600160a01b03168152509050612f038a828a8587613595565b96506040518061010001604052808a604001516001600160a01b031681526020018a602001516001600160a01b031681526020018a6060015162ffffff168152602001306001600160a01b031681526020014281526020018881526020016000815260200160006001600160a01b03168152509450505b8515613055576099546040805163414bf38960e01b815286516001600160a01b0390811660048301526020880151811660248301529187015162ffffff1660448201526060870151821660648201526080870151608482015260a087015160a482015260c087015160c482015260e0870151821660e482015291169063414bf3899061010401602060405180830381600087803b15801561301a57600080fd5b505af115801561302e573d6000803e3d6000fd5b505050506040513d601f19601f820116820180604052508101906130529190614171565b94505b604080518b151581526020810188905290810186905260608101839052608081018290527f930522e019723ff432e1a8923b25ab0a8a9fe4dcc26f41b33762778f1b45bc989060a00160405180910390a1505050509550959350505050565b6130d38363a9059cbb60e01b8484604051602401612cb3929190614623565b505050565b6001606555565b600080428410156130f557506000905080613191565b600183151514156131495760008061310d878a611ee9565b90925090508161312557600080935093505050613191565b8088111561313b57600080935093505050613191565b600189935093505050613191565b60008061315687896106e1565b90925090508161316e57600080935093505050613191565b8089101561318457600080935093505050613191565b6001935091506131919050565b9550959350505050565b6131d66040518060a001604052806060815260200160006001600160a01b031681526020016000815260200160008152602001600081525090565b6040518060a001604052806131ea86610a59565b81526001600160a01b0390941660208501526040840192909252506060820194909452608001919091525090565b6132536040518060a001604052806060815260200160006001600160a01b031681526020016000815260200160008152602001600081525090565b6040518060a00160405280613267866124c9565b8152602001846001600160a01b0316815260200183815260200186815260200187815250905095945050505050565b603380546001600160a01b038381166001600160a01b0319831681179093556040519116919082907f8be0079c531659141344cd1fd0a4f28419497f9722a3daafe3b4186f6b6457e090600090a35050565b816000528060020b60045260246000fd5b6000826001600160a01b0316846001600160a01b03161115613319579192915b600061333c856001600160a01b0316856001600160a01b0316600160601b613809565b905061335c61335784838888036001600160a01b0316613809565b6138a8565b9150505b9392505050565b6000826001600160a01b0316846001600160a01b03161115613387579192915b6133a461335783600160601b8787036001600160a01b0316613809565b949350505050565b6000826001600160a01b0316846001600160a01b031611156133cc579192915b836001600160a01b0316613405606060ff16846001600160801b0316901b8686036001600160a01b0316866001600160a01b0316613809565b8161342057634e487b7160e01b600052601260045260246000fd5b04949350505050565b6000826001600160a01b0316846001600160a01b03161115613449579192915b6133a4826001600160801b03168585036001600160a01b0316600160601b613809565b600054610100900460ff166134935760405162461bcd60e51b815260040161084690614724565b610d0233613296565b600054610100900460ff166130d85760405162461bcd60e51b815260040161084690614724565b6000613518826040518060400160405280602081526020017f5361666545524332303a206c6f772d6c6576656c2063616c6c206661696c6564815250856001600160a01b03166138ce9092919063ffffffff16565b8051909150156130d357808060200190518101906135369190613e34565b6130d35760405162461bcd60e51b815260206004820152602a60248201527f5361666545524332303a204552433230206f7065726174696f6e20646964206e6044820152691bdd081cdd58d8d9595960b21b6064820152608401610846565b60008460c00151600014156135ac575060006104fd565b6000808660e00151116135c1576000196135e7565b60e086015160c08701516135dd90670de0b6b3a76400006149ba565b6135e7919061499a565b9050848114156135fb5760009150506104fd565b60006000198161360c60088b61499a565b9050896000805b609e548160ff1610156137cf57600061363a8d602001518e604001518f60600151876138dd565b9050808d60e0015161364c9190614982565b848e60c0015161365c91906149d9565b61366e90670de0b6b3a76400006149ba565b613678919061499a565b97506000613686828c6149d9565b11613693576000196136c3565b61369d818b6149d9565b6136a7858d614982565b6136b990670de0b6b3a76400006149ba565b6136c3919061499a565b925060008389116136f557886127106136dc82876149d9565b6136e691906149ba565b6136f0919061499a565b613717565b83612710613703828c6149d9565b61370d91906149ba565b613717919061499a565b90508681101561372c57809650849750613745565b61373760028761499a565b9550856137455750506137cf565b609f54811161378857600080516020614b2883398151915289858f60405161376f939291906148f0565b60405180910390a18799505050505050505050506104fd565b8c8911156137a15761379a8686614982565b94506137bc565b8585116137af5760006137b9565b6137b986866149d9565b94505b5050806137c890614a83565b9050613613565b50600080516020614b2883398151915286828c6040516137f1939291906148f0565b60405180910390a150929a9950505050505050505050565b6000838302816000198587098281108382030391505080841161382b57600080fd5b8061383b57508290049050613360565b6000848688096000868103871696879004966002600389028118808a02820302808a02820302808a02820302808a02820302808a02820302808a02909103029181900381900460010186841190950394909402919094039290920491909117919091029150509392505050565b806001600160801b03811681146138c9576138c96393dafdf160e01b6139c3565b919050565b60606133a484846000856139cd565b609b546040805160a0810182526001600160a01b0387811682528681166020830190815282840186815262ffffff888116606086019081526000608087018181529751636352813560e11b81529651861660048801529351851660248701529151604486015290511660648401529251811660848301529192919091169063c6a5026a9060a401608060405180830381600087803b15801561397e57600080fd5b505af1158015613992573d6000803e3d6000fd5b505050506040513d601f19601f820116820180604052508101906139b691906142d4565b5091979650505050505050565b8060005260046000fd5b606082471015613a2e5760405162461bcd60e51b815260206004820152602660248201527f416464726573733a20696e73756666696369656e742062616c616e636520666f6044820152651c8818d85b1b60d21b6064820152608401610846565b843b613a7c5760405162461bcd60e51b815260206004820152601d60248201527f416464726573733a2063616c6c20746f206e6f6e2d636f6e74726163740000006044820152606401610846565b600080866001600160a01b03168587604051613a989190614584565b60006040518083038185875af1925050503d8060008114613ad5576040519150601f19603f3d011682016040523d82523d6000602084013e613ada565b606091505b5091509150610cef82828660608315613af4575081613360565b825115613b045782518084602001fd5b8160405162461bcd60e51b815260040161084691906146ba565b828054613b2a90614a33565b90600052602060002090601f016020900481019282613b4c5760008555613b92565b82601f10613b6557805160ff1916838001178555613b92565b82800160010185558215613b92579182015b82811115613b92578251825591602001919060010190613b77565b50613b9e929150613ba2565b5090565b5b80821115613b9e5760008155600101613ba3565b80356138c981614acf565b80516138c981614acf565b600082601f830112613bdd578081fd5b81356020613bf2613bed8361495f565b61492f565b80838252828201915082860187848660051b8901011115613c11578586fd5b855b85811015613c38578135613c2681614acf565b84529284019290840190600101613c13565b5090979650505050505050565b600082601f830112613c55578081fd5b81516020613c65613bed8361495f565b80838252828201915082860187848660051b8901011115613c84578586fd5b855b85811015613c3857613c9782613cf2565b84529284019290840190600101613c86565b80356138c981614af2565b80516138c981614af2565b80516138c981614b01565b805161ffff811681146138c957600080fd5b80356138c981614b16565b80516138c981614b16565b805163ffffffff811681146138c957600080fd5b600060208284031215613d17578081fd5b813561336081614acf565b600060208284031215613d33578081fd5b815161336081614acf565b60008060408385031215613d50578081fd5b8235613d5b81614acf565b91506020830135613d6b81614acf565b809150509250929050565b600080600060608486031215613d8a578081fd5b8335613d9581614acf565b92506020840135613da581614acf565b91506040840135613db581614b16565b809150509250925092565b600060208284031215613dd1578081fd5b81356001600160401b03811115613de6578182fd5b6133a484828501613bcd565b60008060408385031215613e04578182fd5b82356001600160401b03811115613e19578283fd5b613e2585828601613bcd565b95602094909401359450505050565b600060208284031215613e45578081fd5b815161336081614ae4565b600060208284031215613e61578081fd5b813561336081614af2565b600080600060608486031215613e80578081fd5b83356001600160401b0380821115613e96578283fd5b818601915086601f830112613ea9578283fd5b8135602082821115613ebd57613ebd614ab9565b613ecf601f8301601f1916820161492f565b92508183528881838601011115613ee4578485fd5b818185018285013784818385010152829650613f01818901613bb7565b955050505050613f1360408501613bb7565b90509250925092565b60006101208284031215613f2e578081fd5b613f36614906565b82358152613f4660208401613bb7565b6020820152613f5760408401613bb7565b6040820152613f6860608401613cdc565b6060820152613f7960808401613ca9565b6080820152613f8a60a08401613ca9565b60a082015260c083013560c082015260e083013560e0820152610100613fb1818501613bb7565b908201529392505050565b600060208284031215613fcd578081fd5b815161336081614b01565b600080600060608486031215613fec578081fd5b8351613ff781614b01565b602085015160409095015190969495509392505050565b60008060008060808587031215614023578182fd5b843561402e81614acf565b9350602085013561403e81614af2565b9250604085013561404e81614af2565b9150606085013561405e81614b01565b939692955090935050565b600080600080600060a08688031215614080578283fd5b853561408b81614acf565b9450602086013561409b81614af2565b935060408601356140ab81614af2565b94979396509394606081013594506080013592915050565b600080600080600080600060e0888a0312156140dd578485fd5b87516140e881614acf565b60208901519097506140f981614af2565b955061410760408901613cca565b945061411560608901613cca565b935061412360808901613cca565b925060a088015160ff81168114614138578283fd5b60c089015190925061414981614ae4565b8091505092959891949750929550565b60006020828403121561416a578081fd5b5035919050565b600060208284031215614182578081fd5b5051919050565b60008060006060848603121561419d578081fd5b8335925060208401356141af81614acf565b91506040840135613db581614acf565b600080600080608085870312156141d4578182fd5b8451602080870151919550906001600160401b03808211156141f4578485fd5b818801915088601f830112614207578485fd5b8151614215613bed8261495f565b8082825285820191508585018c878560051b8801011115614234578889fd5b8895505b8386101561425f57805161424b81614acf565b835260019590950194918601918601614238565b5060408b01519098509450505080831115614278578485fd5b505061428687828801613c45565b606096909601519497939650505050565b600080600080608085870312156142ac578182fd5b8451935060208501516142be81614b01565b6040860151606090960151949790965092505050565b600080600080608085870312156142e9578182fd5b8451935060208501516142fb81614acf565b925061430960408601613cf2565b6060959095015193969295505050565b60008060008060008060c08789031215614331578384fd5b863595506020870135945060408701356001600160401b03811115614354578485fd5b61436089828a01613bcd565b945050606087013561437181614acf565b92506080870135915060a087013561438881614ae4565b809150509295509295509295565b6000806000806000806000806000806000806101808d8f0312156143b8578586fd5b8c516001600160601b03811681146143ce578687fd5b9b506143dc60208e01613bc2565b9a506143ea60408e01613bc2565b99506143f860608e01613bc2565b985061440660808e01613ce7565b975061441460a08e01613cb4565b965061442260c08e01613cb4565b955061443060e08e01613cbf565b94506101008d015193506101208d0151925061444f6101408e01613cbf565b915061445e6101608e01613cbf565b90509295989b509295989b509295989b565b6001600160a01b03169052565b6000815180845260208085019450808401835b838110156144b55781516001600160a01b031687529582019590820190600101614490565b509495945050505050565b6000815180845260208085019450808401835b838110156144b5578151875295820195908201906001016144d3565b600081518084526145078160208601602086016149f0565b601f01601f19169290920160200192915050565b6000815160a0845261453060a08501826144ef565b6020848101516001600160a01b031690860152604080850151908601526060808501519086015260809384015193909401929092525090919050565b60609190911b6001600160601b031916815260140190565b600082516145968184602087016149f0565b9190910192915050565b600084516145b28184602089016149f0565b60e89490941b6001600160e81b0319169190930190815260609190911b6001600160601b031916600382015260170192915050565b6001600160a01b0391909116815260200190565b6001600160a01b03938416815291909216602082015262ffffff909116604082015260600190565b6001600160a01b03929092168252602082015260400190565b60608152600061464f606083018661447d565b828103602084015261466181866144c0565b91505060018060a01b0383166040830152949350505050565b60408152600061468d60408301856144c0565b828103602084015261335c818561447d565b82151581526040602082015260006133a460408301846144c0565b60208152600061336060208301846144ef565b6040815260006146e060408301856144ef565b90508260208301529392505050565b6020808252818101527f556e69737761705633436f6e6e6563746f723a207a65726f2061646472657373604082015260600190565b6020808252602b908201527f496e697469616c697a61626c653a20636f6e7472616374206973206e6f74206960408201526a6e697469616c697a696e6760a81b606082015260800190565b845181526020808601516001600160a01b03169082015260408086015161018083019161479e90840182614470565b5060608601516147b5606084018262ffffff169052565b5060808601516147ca608084018260020b9052565b5060a08601516147df60a084018260020b9052565b5060c086015160c083015260e086015160e08301526101008087015161480782850182614470565b505084610120830152836101408301528261016083015295945050505050565b602081526000613360602083018461451b565b60006101608201905061484e828451614470565b60208301516148606020840182614470565b506040830151614877604084018262ffffff169052565b50606083015161488c606084018260020b9052565b5060808301516148a1608084018260020b9052565b5060a083015160a083015260c083015160c083015260e083015160e0830152610100808401518184015250610120808401516148df82850182614470565b505061014092830151919092015290565b9283526020830191909152604082015260600190565b60405161012081016001600160401b038111828210171561492957614929614ab9565b60405290565b604051601f8201601f191681016001600160401b038111828210171561495757614957614ab9565b604052919050565b60006001600160401b0382111561497857614978614ab9565b5060051b60200190565b6000821982111561499557614995614aa3565b500190565b6000826149b557634e487b7160e01b81526012600452602481fd5b500490565b60008160001904831182151516156149d4576149d4614aa3565b500290565b6000828210156149eb576149eb614aa3565b500390565b60005b83811015614a0b5781810151838201526020016149f3565b83811115610a295750506000910152565b600081614a2b57614a2b614aa3565b506000190190565b600181811c90821680614a4757607f821691505b60208210811415610b7d57634e487b7160e01b600052602260045260246000fd5b6000600019821415614a7c57614a7c614aa3565b5060010190565b600060ff821660ff811415614a9a57614a9a614aa3565b60010192915050565b634e487b7160e01b600052601160045260246000fd5b634e487b7160e01b600052604160045260246000fd5b6001600160a01b038116811461272d57600080fd5b801515811461272d57600080fd5b8060020b811461272d57600080fd5b6001600160801b038116811461272d57600080fd5b62ffffff8116811461272d57600080fdfea7a3c462ea5cf8a25c56064b25f60dc8dc6f9c22fe713da4044e8131ac28d483a26469706673582212209824ba152b719c0a5b674344aa81c0276ab2eb6aeea6b11147cc64d08916c9d664736f6c63430008040033",
  "devdoc": {
    "kind": "dev",
    "methods": {
      "getExactInput(address[],uint256)": {
        "details": "Return (false, 0) if DEX cannot swap the input amount"
      },
      "getExactOutput(address[],uint256)": {
        "details": "Return (false, 0) if DEX cannot give the output amount.       Note: No need to reverse the path for this function"
      },
      "initialize(string,address,address)": {
        "params": {
          "_exchangeRouter": "Address of the DEX router contract",
          "_name": "Name of the underlying DEX"
        }
      },
      "isPathValid(address[])": {
        "params": {
          "_path": "List of tokens that are used for exchanging"
        }
      },
      "owner()": {
        "details": "Returns the address of the current owner."
      },
      "renounceOwnership()": {
        "details": "Leaves the contract without owner. It will not be possible to call `onlyOwner` functions. Can only be called by the current owner. NOTE: Renouncing ownership will leave the contract without an owner, thereby disabling any functionality that is only available to the owner."
      },
      "setExchangeRouter(address)": {
        "details": "Set address of liquidity pool factory from the exchange router",
        "params": {
          "_exchangeRouter": "Address of the new exchange router contract"
        }
      },
      "setFeeTier(address,address,uint24)": {
        "details": "We set the fee tier that is used for exchanging tokens"
      },
      "setLiquidityPoolFactory()": {
        "details": "Set address from exchange router"
      },
      "setWrappedNativeToken()": {
        "details": "Get address from exchange router"
      },
      "swap(uint256,uint256,address[],address,uint256,bool)": {
        "details": "Check exchange conditions before exchanging      We assume that the input token is not WETH (it is teleBTC)",
        "params": {
          "_deadline": "Deadline of exchanging tokens",
          "_inputAmount": "Amount of input token",
          "_isFixedToken": "True if the input token amount is fixed",
          "_outputAmount": "Amount of output token",
          "_path": "List of tokens that are used for exchanging",
          "_to": "Receiver address"
        },
        "returns": {
          "_amounts": "Amounts of tokens that are involved in exchanging",
          "_result": "True if the exchange is successful"
        }
      },
      "transferOwnership(address)": {
        "details": "Transfers ownership of the contract to a new account (`newOwner`). Can only be called by the current owner."
      }
    },
    "version": 1
  },
  "userdoc": {
    "kind": "user",
    "methods": {
      "getExactInput(address[],uint256)": {
        "notice": "Return the output amount for the given input amount"
      },
      "getExactOutput(address[],uint256)": {
        "notice": "Return the needed input amount to get the output amount"
      },
      "getInputAmount(uint256,address,address)": {
        "notice": "Deprecated for v3"
      },
      "getOutputAmount(uint256,address,address)": {
        "notice": "Deprecated for v3"
      },
      "getSqrtPriceX96(address[])": {
        "notice": "Return the square root price of given token pairs"
      },
      "initialize(string,address,address)": {
        "notice": "This contract is used for interacting with UniswapV3 contract"
      },
      "isPathValid(address[])": {
        "notice": "Return true if the exchange path is valid"
      },
      "setExchangeRouter(address)": {
        "notice": "Setter for exchange router"
      },
      "setFeeTier(address,address,uint24)": {
        "notice": "Setter for fee tier"
      },
      "setLiquidityPoolFactory()": {
        "notice": "Setter for liquidity pool factory"
      },
      "setPositionManager(address)": {
        "notice": "Setter for position manager"
      },
      "setQuoter(address)": {
        "notice": "Setter for quoter"
      },
      "setWrappedNativeToken()": {
        "notice": "Setter for wrapped native token"
      },
      "swap(uint256,uint256,address[],address,uint256,bool)": {
        "notice": "Exchange input token for output token through exchange router"
      },
      "swapAndAddLiquidity((uint256,address,address,uint24,int24,int24,uint256,uint256,address))": {
        "notice": "Zap tokens into a Uniswap V3 position in one call"
      }
    },
    "version": 1
  },
  "storageLayout": {
    "storage": [
      {
        "astId": 11827,
        "contract": "contracts/dex_connectors/UniswapV3Connector.sol:UniswapV3Connector",
        "label": "_initialized",
        "offset": 0,
        "slot": "0",
        "type": "t_uint8"
      },
      {
        "astId": 11830,
        "contract": "contracts/dex_connectors/UniswapV3Connector.sol:UniswapV3Connector",
        "label": "_initializing",
        "offset": 1,
        "slot": "0",
        "type": "t_bool"
      },
      {
        "astId": 13298,
        "contract": "contracts/dex_connectors/UniswapV3Connector.sol:UniswapV3Connector",
        "label": "__gap",
        "offset": 0,
        "slot": "1",
        "type": "t_array(t_uint256)50_storage"
      },
      {
        "astId": 11699,
        "contract": "contracts/dex_connectors/UniswapV3Connector.sol:UniswapV3Connector",
        "label": "_owner",
        "offset": 0,
        "slot": "51",
        "type": "t_address"
      },
      {
        "astId": 11819,
        "contract": "contracts/dex_connectors/UniswapV3Connector.sol:UniswapV3Connector",
        "label": "__gap",
        "offset": 0,
        "slot": "52",
        "type": "t_array(t_uint256)49_storage"
      },
      {
        "astId": 12132,
        "contract": "contracts/dex_connectors/UniswapV3Connector.sol:UniswapV3Connector",
        "label": "_status",
        "offset": 0,
        "slot": "101",
        "type": "t_uint256"
      },
      {
        "astId": 12201,
        "contract": "contracts/dex_connectors/UniswapV3Connector.sol:UniswapV3Connector",
        "label": "__gap",
        "offset": 0,
        "slot": "102",
        "type": "t_array(t_uint256)49_storage"
      },
      {
        "astId": 26071,
        "contract": "contracts/dex_connectors/UniswapV3Connector.sol:UniswapV3Connector",
        "label": "name",
        "offset": 0,
        "slot": "151",
        "type": "t_string_storage"
      },
      {
        "astId": 26074,
        "contract": "contracts/dex_connectors/UniswapV3Connector.sol:UniswapV3Connector",
        "label": "wrappedNativeToken",
        "offset": 0,
        "slot": "152",
        "type": "t_address"
      },
      {
        "astId": 26077,
        "contract": "contracts/dex_connectors/UniswapV3Connector.sol:UniswapV3Connector",
        "label": "exchangeRouter",
        "offset": 0,
        "slot": "153",
        "type": "t_address"
      },
      {
        "astId": 26080,
        "contract": "contracts/dex_connectors/UniswapV3Connector.sol:UniswapV3Connector",
        "label": "liquidityPoolFactory",
        "offset": 0,
        "slot": "154",
        "type": "t_address"
      },
      {
        "astId": 26082,
        "contract": "contracts/dex_connectors/UniswapV3Connector.sol:UniswapV3Connector",
        "label": "quoterAddress",
        "offset": 0,
        "slot": "155",
        "type": "t_address"
      },
      {
        "astId": 26088,
        "contract": "contracts/dex_connectors/UniswapV3Connector.sol:UniswapV3Connector",
        "label": "feeTier",
        "offset": 0,
        "slot": "156",
        "type": "t_mapping(t_address,t_mapping(t_address,t_uint24))"
      },
      {
        "astId": 26090,
        "contract": "contracts/dex_connectors/UniswapV3Connector.sol:UniswapV3Connector",
        "label": "positionManager",
        "offset": 0,
        "slot": "157",
        "type": "t_address"
      },
      {
        "astId": 26092,
        "contract": "contracts/dex_connectors/UniswapV3Connector.sol:UniswapV3Connector",
        "label": "MAX_ITERS",
        "offset": 0,
        "slot": "158",
        "type": "t_uint256"
      },
      {
        "astId": 26094,
        "contract": "contracts/dex_connectors/UniswapV3Connector.sol:UniswapV3Connector",
        "label": "TOLERANCE",
        "offset": 0,
        "slot": "159",
        "type": "t_uint256"
      }
    ],
    "types": {
      "t_address": {
        "encoding": "inplace",
        "label": "address",
        "numberOfBytes": "20"
      },
      "t_array(t_uint256)49_storage": {
        "base": "t_uint256",
        "encoding": "inplace",
        "label": "uint256[49]",
        "numberOfBytes": "1568"
      },
      "t_array(t_uint256)50_storage": {
        "base": "t_uint256",
        "encoding": "inplace",
        "label": "uint256[50]",
        "numberOfBytes": "1600"
      },
      "t_bool": {
        "encoding": "inplace",
        "label": "bool",
        "numberOfBytes": "1"
      },
      "t_mapping(t_address,t_mapping(t_address,t_uint24))": {
        "encoding": "mapping",
        "key": "t_address",
        "label": "mapping(address => mapping(address => uint24))",
        "numberOfBytes": "32",
        "value": "t_mapping(t_address,t_uint24)"
      },
      "t_mapping(t_address,t_uint24)": {
        "encoding": "mapping",
        "key": "t_address",
        "label": "mapping(address => uint24)",
        "numberOfBytes": "32",
        "value": "t_uint24"
      },
      "t_string_storage": {
        "encoding": "bytes",
        "label": "string",
        "numberOfBytes": "32"
      },
      "t_uint24": {
        "encoding": "inplace",
        "label": "uint24",
        "numberOfBytes": "3"
      },
      "t_uint256": {
        "encoding": "inplace",
        "label": "uint256",
        "numberOfBytes": "32"
      },
      "t_uint8": {
        "encoding": "inplace",
        "label": "uint8",
        "numberOfBytes": "1"
      }
    }
  }
}