{
  "address": "0x055F4fb29E016c23900140e12e90F3CDB5B60c7e",
  "abi": [
    {
      "anonymous": false,
      "inputs": [
        {
          "indexed": false,
          "internalType": "uint8",
          "name": "version",
          "type": "uint8"
        }
      ],
      "name": "Initialized",
      "type": "event"
    },
    {
      "anonymous": false,
      "inputs": [
        {
          "indexed": false,
          "internalType": "address",
          "name": "account",
          "type": "address"
        },
        {
          "indexed": false,
          "internalType": "address",
          "name": "token",
          "type": "address"
        },
        {
          "indexed": false,
          "internalType": "uint256",
          "name": "amount",
          "type": "uint256"
        }
      ],
      "name": "LpTokenStaked",
      "type": "event"
    },
    {
      "anonymous": false,
      "inputs": [
        {
          "indexed": false,
          "internalType": "address",
          "name": "account",
          "type": "address"
        },
        {
          "indexed": false,
          "internalType": "address",
          "name": "token",
          "type": "address"
        },
        {
          "indexed": false,
          "internalType": "uint256",
          "name": "amount",
          "type": "uint256"
        },
        {
          "indexed": false,
          "internalType": "bytes32",
          "name": "tag",
          "type": "bytes32"
        }
      ],
      "name": "LpTokenUnstaked",
      "type": "event"
    },
    {
      "anonymous": false,
      "inputs": [
        {
          "indexed": false,
          "internalType": "address",
          "name": "token",
          "type": "address"
        },
        {
          "indexed": false,
          "internalType": "uint256",
          "name": "oldMinWaitTime",
          "type": "uint256"
        },
        {
          "indexed": false,
          "internalType": "uint256",
          "name": "newMinWaitTime",
          "type": "uint256"
        }
      ],
      "name": "NewLockTime",
      "type": "event"
    },
    {
      "anonymous": false,
      "inputs": [
        {
          "indexed": false,
          "internalType": "address",
          "name": "token",
          "type": "address"
        },
        {
          "indexed": false,
          "internalType": "uint256",
          "name": "oldUnlockRequestDeadline",
          "type": "uint256"
        },
        {
          "indexed": false,
          "internalType": "uint256",
          "name": "newUnlockRequestDeadline",
          "type": "uint256"
        }
      ],
      "name": "NewUnlockRequestDeadline",
      "type": "event"
    },
    {
      "anonymous": false,
      "inputs": [
        {
          "indexed": true,
          "internalType": "address",
          "name": "previousOwner",
          "type": "address"
        },
        {
          "indexed": true,
          "internalType": "address",
          "name": "newOwner",
          "type": "address"
        }
      ],
      "name": "OwnershipTransferred",
      "type": "event"
    },
    {
      "anonymous": false,
      "inputs": [
        {
          "indexed": false,
          "internalType": "address",
          "name": "account",
          "type": "address"
        },
        {
          "indexed": false,
          "internalType": "address",
          "name": "token",
          "type": "address"
        }
      ],
      "name": "Paused",
      "type": "event"
    },
    {
      "anonymous": false,
      "inputs": [
        {
          "indexed": false,
          "internalType": "address",
          "name": "account",
          "type": "address"
        },
        {
          "indexed": false,
          "internalType": "address",
          "name": "token",
          "type": "address"
        },
        {
          "indexed": false,
          "internalType": "uint256",
          "name": "amount",
          "type": "uint256"
        }
      ],
      "name": "RewardClaimed",
      "type": "event"
    },
    {
      "anonymous": false,
      "inputs": [
        {
          "indexed": false,
          "internalType": "address",
          "name": "token",
          "type": "address"
        },
        {
          "indexed": false,
          "internalType": "uint256",
          "name": "oldRewardPerDay",
          "type": "uint256"
        },
        {
          "indexed": false,
          "internalType": "uint256",
          "name": "newRewardPerDay",
          "type": "uint256"
        },
        {
          "indexed": false,
          "internalType": "uint256",
          "name": "updateTime",
          "type": "uint256"
        }
      ],
      "name": "RewardUpdated",
      "type": "event"
    },
    {
      "anonymous": false,
      "inputs": [
        {
          "indexed": false,
          "internalType": "address",
          "name": "account",
          "type": "address"
        },
        {
          "indexed": false,
          "internalType": "address",
          "name": "token",
          "type": "address"
        }
      ],
      "name": "Unpaused",
      "type": "event"
    },
    {
      "anonymous": false,
      "inputs": [
        {
          "indexed": false,
          "internalType": "address",
          "name": "account",
          "type": "address"
        },
        {
          "indexed": false,
          "internalType": "address",
          "name": "token",
          "type": "address"
        },
        {
          "indexed": false,
          "internalType": "uint256",
          "name": "currentBalance",
          "type": "uint256"
        },
        {
          "indexed": false,
          "internalType": "uint256",
          "name": "amount",
          "type": "uint256"
        },
        {
          "indexed": false,
          "internalType": "uint256",
          "name": "time",
          "type": "uint256"
        },
        {
          "indexed": false,
          "internalType": "bytes32",
          "name": "tag",
          "type": "bytes32"
        }
      ],
      "name": "UnstakeLpTokenRequest",
      "type": "event"
    },
    {
      "inputs": [],
      "name": "TST",
      "outputs": [
        {
          "internalType": "address",
          "name": "",
          "type": "address"
        }
      ],
      "stateMutability": "view",
      "type": "function"
    },
    {
      "inputs": [
        {
          "internalType": "uint256",
          "name": "_perDayInterest",
          "type": "uint256"
        },
        {
          "internalType": "address",
          "name": "_token",
          "type": "address"
        },
        {
          "internalType": "uint256",
          "name": "_lockTime",
          "type": "uint256"
        },
        {
          "internalType": "uint256",
          "name": "_unlockRequestDeadline",
          "type": "uint256"
        }
      ],
      "name": "addLpToken",
      "outputs": [],
      "stateMutability": "nonpayable",
      "type": "function"
    },
    {
      "inputs": [
        {
          "internalType": "address",
          "name": "_token",
          "type": "address"
        },
        {
          "internalType": "address",
          "name": "_account",
          "type": "address"
        }
      ],
      "name": "balanceOf",
      "outputs": [
        {
          "internalType": "uint256",
          "name": "",
          "type": "uint256"
        }
      ],
      "stateMutability": "view",
      "type": "function"
    },
    {
      "inputs": [
        {
          "internalType": "address",
          "name": "_token",
          "type": "address"
        }
      ],
      "name": "claimReward",
      "outputs": [],
      "stateMutability": "nonpayable",
      "type": "function"
    },
    {
      "inputs": [
        {
          "internalType": "address",
          "name": "_token",
          "type": "address"
        }
      ],
      "name": "currentRewardPerDay",
      "outputs": [
        {
          "internalType": "uint256",
          "name": "",
          "type": "uint256"
        }
      ],
      "stateMutability": "view",
      "type": "function"
    },
    {
      "inputs": [],
      "name": "getAvailableTst",
      "outputs": [
        {
          "internalType": "uint256",
          "name": "",
          "type": "uint256"
        }
      ],
      "stateMutability": "view",
      "type": "function"
    },
    {
      "inputs": [
        {
          "internalType": "address",
          "name": "_token",
          "type": "address"
        },
        {
          "internalType": "address",
          "name": "_account",
          "type": "address"
        }
      ],
      "name": "getRewardOfUser",
      "outputs": [
        {
          "internalType": "uint256",
          "name": "",
          "type": "uint256"
        }
      ],
      "stateMutability": "view",
      "type": "function"
    },
    {
      "inputs": [],
      "name": "initialize",
      "outputs": [],
      "stateMutability": "nonpayable",
      "type": "function"
    },
    {
      "inputs": [
        {
          "internalType": "address",
          "name": "_token",
          "type": "address"
        },
        {
          "internalType": "uint256",
          "name": "_amount",
          "type": "uint256"
        }
      ],
      "name": "instantUnstakeLpToken",
      "outputs": [],
      "stateMutability": "nonpayable",
      "type": "function"
    },
    {
      "inputs": [
        {
          "internalType": "address",
          "name": "",
          "type": "address"
        }
      ],
      "name": "isLpTokenSupported",
      "outputs": [
        {
          "internalType": "bool",
          "name": "",
          "type": "bool"
        }
      ],
      "stateMutability": "view",
      "type": "function"
    },
    {
      "inputs": [
        {
          "internalType": "address",
          "name": "",
          "type": "address"
        }
      ],
      "name": "lockTime",
      "outputs": [
        {
          "internalType": "uint256",
          "name": "",
          "type": "uint256"
        }
      ],
      "stateMutability": "view",
      "type": "function"
    },
    {
      "inputs": [],
      "name": "owner",
      "outputs": [
        {
          "internalType": "address",
          "name": "",
          "type": "address"
        }
      ],
      "stateMutability": "view",
      "type": "function"
    },
    {
      "inputs": [
        {
          "internalType": "address",
          "name": "token",
          "type": "address"
        }
      ],
      "name": "pause",
      "outputs": [],
      "stateMutability": "nonpayable",
      "type": "function"
    },
    {
      "inputs": [
        {
          "internalType": "address",
          "name": "token",
          "type": "address"
        }
      ],
      "name": "paused",
      "outputs": [
        {
          "internalType": "bool",
          "name": "",
          "type": "bool"
        }
      ],
      "stateMutability": "view",
      "type": "function"
    },
    {
      "inputs": [],
      "name": "renounceOwnership",
      "outputs": [],
      "stateMutability": "nonpayable",
      "type": "function"
    },
    {
      "inputs": [
        {
          "internalType": "address",
          "name": "_token",
          "type": "address"
        },
        {
          "internalType": "uint256",
          "name": "_amount",
          "type": "uint256"
        }
      ],
      "name": "requestToUnstakeLpToken",
      "outputs": [
        {
          "internalType": "bytes32",
          "name": "",
          "type": "bytes32"
        }
      ],
      "stateMutability": "nonpayable",
      "type": "function"
    },
    {
      "inputs": [
        {
          "internalType": "address",
          "name": "",
          "type": "address"
        },
        {
          "internalType": "uint256",
          "name": "",
          "type": "uint256"
        }
      ],
      "name": "rewardPerDay",
      "outputs": [
        {
          "internalType": "uint256",
          "name": "",
          "type": "uint256"
        }
      ],
      "stateMutability": "view",
      "type": "function"
    },
    {
      "inputs": [
        {
          "internalType": "address",
          "name": "",
          "type": "address"
        },
        {
          "internalType": "uint256",
          "name": "",
          "type": "uint256"
        }
      ],
      "name": "rewardPerDayUpdateTime",
      "outputs": [
        {
          "internalType": "uint256",
          "name": "",
          "type": "uint256"
        }
      ],
      "stateMutability": "view",
      "type": "function"
    },
    {
      "inputs": [
        {
          "internalType": "address",
          "name": "_token",
          "type": "address"
        },
        {
          "internalType": "address",
          "name": "_account",
          "type": "address"
        }
      ],
      "name": "sendBackToken",
      "outputs": [],
      "stateMutability": "nonpayable",
      "type": "function"
    },
    {
      "inputs": [
        {
          "internalType": "address",
          "name": "_token",
          "type": "address"
        },
        {
          "internalType": "uint256",
          "name": "_lockTime",
          "type": "uint256"
        }
      ],
      "name": "setLockTime",
      "outputs": [],
      "stateMutability": "nonpayable",
      "type": "function"
    },
    {
      "inputs": [
        {
          "internalType": "uint256",
          "name": "_perDayInterest",
          "type": "uint256"
        },
        {
          "internalType": "address",
          "name": "_token",
          "type": "address"
        },
        {
          "internalType": "uint256",
          "name": "_startTime",
          "type": "uint256"
        }
      ],
      "name": "setLpToken",
      "outputs": [],
      "stateMutability": "nonpayable",
      "type": "function"
    },
    {
      "inputs": [
        {
          "internalType": "address",
          "name": "_TST",
          "type": "address"
        }
      ],
      "name": "setTST",
      "outputs": [],
      "stateMutability": "nonpayable",
      "type": "function"
    },
    {
      "inputs": [
        {
          "internalType": "address",
          "name": "_token",
          "type": "address"
        },
        {
          "internalType": "uint256",
          "name": "_unlockRequestDeadline",
          "type": "uint256"
        }
      ],
      "name": "setUnlockRequestDeadline",
      "outputs": [],
      "stateMutability": "nonpayable",
      "type": "function"
    },
    {
      "inputs": [
        {
          "internalType": "address",
          "name": "_token",
          "type": "address"
        },
        {
          "internalType": "uint256",
          "name": "_amount",
          "type": "uint256"
        }
      ],
      "name": "stakeLpToken",
      "outputs": [],
      "stateMutability": "nonpayable",
      "type": "function"
    },
    {
      "inputs": [
        {
          "internalType": "address",
          "name": "",
          "type": "address"
        }
      ],
      "name": "stakedTotalSupply",
      "outputs": [
        {
          "internalType": "uint256",
          "name": "",
          "type": "uint256"
        }
      ],
      "stateMutability": "view",
      "type": "function"
    },
    {
      "inputs": [
        {
          "internalType": "address",
          "name": "_token",
          "type": "address"
        }
      ],
      "name": "stop",
      "outputs": [],
      "stateMutability": "nonpayable",
      "type": "function"
    },
    {
      "inputs": [],
      "name": "totalClaimedReward",
      "outputs": [
        {
          "internalType": "uint256",
          "name": "",
          "type": "uint256"
        }
      ],
      "stateMutability": "view",
      "type": "function"
    },
    {
      "inputs": [
        {
          "internalType": "address",
          "name": "_token",
          "type": "address"
        }
      ],
      "name": "totalRewardFromStart",
      "outputs": [
        {
          "internalType": "uint256",
          "name": "",
          "type": "uint256"
        }
      ],
      "stateMutability": "view",
      "type": "function"
    },
    {
      "inputs": [
        {
          "internalType": "address",
          "name": "_token",
          "type": "address"
        },
        {
          "internalType": "uint256",
          "name": "_start",
          "type": "uint256"
        },
        {
          "internalType": "uint256",
          "name": "_end",
          "type": "uint256"
        }
      ],
      "name": "totalRewardInPeriod",
      "outputs": [
        {
          "internalType": "uint256",
          "name": "",
          "type": "uint256"
        }
      ],
      "stateMutability": "view",
      "type": "function"
    },
    {
      "inputs": [
        {
          "internalType": "address",
          "name": "newOwner",
          "type": "address"
        }
      ],
      "name": "transferOwnership",
      "outputs": [],
      "stateMutability": "nonpayable",
      "type": "function"
    },
    {
      "inputs": [
        {
          "internalType": "address",
          "name": "",
          "type": "address"
        }
      ],
      "name": "unlockRequestDeadline",
      "outputs": [
        {
          "internalType": "uint256",
          "name": "",
          "type": "uint256"
        }
      ],
      "stateMutability": "view",
      "type": "function"
    },
    {
      "inputs": [
        {
          "internalType": "bytes32",
          "name": "",
          "type": "bytes32"
        }
      ],
      "name": "unlockRequestState",
      "outputs": [
        {
          "internalType": "uint8",
          "name": "",
          "type": "uint8"
        }
      ],
      "stateMutability": "view",
      "type": "function"
    },
    {
      "inputs": [
        {
          "internalType": "address",
          "name": "token",
          "type": "address"
        }
      ],
      "name": "unpause",
      "outputs": [],
      "stateMutability": "nonpayable",
      "type": "function"
    },
    {
      "inputs": [
        {
          "internalType": "address",
          "name": "_token",
          "type": "address"
        },
        {
          "internalType": "uint256",
          "name": "_amount",
          "type": "uint256"
        },
        {
          "internalType": "uint256",
          "name": "_time",
          "type": "uint256"
        },
        {
          "internalType": "bytes32",
          "name": "_tag",
          "type": "bytes32"
        }
      ],
      "name": "unstakeLpToken",
      "outputs": [],
      "stateMutability": "nonpayable",
      "type": "function"
    },
    {
      "inputs": [
        {
          "internalType": "address",
          "name": "_token",
          "type": "address"
        },
        {
          "internalType": "uint256",
          "name": "_newRewardPerDay",
          "type": "uint256"
        }
      ],
      "name": "updateRewardPerDay",
      "outputs": [],
      "stateMutability": "nonpayable",
      "type": "function"
    }
  ],
  "transactionHash": "0xada1cf1e6d9f743aa07635473ca97d85be1ae3cee0da8ea0458a4046637f9003",
  "args": [],
  "numDeployments": 1,
  "solcInputHash": "3f58da6a0f987b5016c9ec5d3467424d",
  "bytecode": "0x608060405234801561001057600080fd5b50612445806100206000396000f3fe608060405234801561001057600080fd5b50600436106102105760003560e01c806372cdec7611610125578063aee7b47d116100ad578063e3daba711161007c578063e3daba71146104cd578063ebba5644146104e0578063f2fde38b146104f3578063f73e3a9514610506578063f7888aec1461051957600080fd5b8063aee7b47d1461046a578063b32942d41461047d578063baaec59a146104b2578063d279c191146104ba57600080fd5b80638da5cb5b116100f45780638da5cb5b146103ec5780639d81c28014610411578063a4beda6314610424578063a7e3ea3514610444578063ae6fa9401461045757600080fd5b806372cdec76146103ab57806376a67a51146103be5780637b7bd217146103d15780638129fc1c146103e457600080fd5b806342b0d266116101a85780635432ad8f116101775780635432ad8f1461035757806357b001f91461036a57806359cdd8cb1461037d578063656cb0bc14610390578063715018a6146103a357600080fd5b806342b0d2661461031357806348f11ccc146103285780634fbdea4d1461033b57806352409ec41461034457600080fd5b80631d7b6496116101e45780631d7b6496146102a15780632e48152c146102b4578063366b4c8f146102e05780633dc8f9ec146102f357600080fd5b806214fde0146102155780630b09d94e1461024d5780630b75bd5c1461027b5780630be730af1461028e575b600080fd5b61023861022336600461207d565b60076020526000908152604090205460ff1681565b60405190151581526020015b60405180910390f35b61026d61025b36600461207d565b60016020526000908152604090205481565b604051908152602001610244565b61026d61028936600461209f565b610552565b61026d61029c36600461207d565b610697565b61026d6102af3660046120d2565b6106dc565b6102386102c236600461207d565b6001600160a01b03166000908152600e602052604090205460ff1690565b61026d6102ee36600461207d565b610862565b61026d61030136600461207d565b60066020526000908152604090205481565b6103266103213660046120d2565b6108aa565b005b6103266103363660046120d2565b610926565b61026d60a85481565b6103266103523660046120d2565b610a50565b6103266103653660046120fc565b610c56565b61032661037836600461207d565b610ca8565b61026d61038b3660046120d2565b610cbc565b61032661039e36600461207d565b610ced565b610326610d26565b6103266103b9366004612131565b610d3a565b6103266103cc36600461207d565b610db7565b6103266103df36600461209f565b610dc8565b610326610e41565b6073546001600160a01b03165b6040516001600160a01b039091168152602001610244565b61032661041f36600461216c565b610f61565b61026d61043236600461207d565b60006020819052908152604090205481565b6103266104523660046120d2565b61130d565b61026d6104653660046120d2565b6113b5565b61026d6104783660046121a5565b6113d1565b6104a061048b3660046121d8565b60026020526000908152604090205460ff1681565b60405160ff9091168152602001610244565b61026d6115e0565b6103266104c836600461207d565b611661565b60a7546103f9906001600160a01b031681565b6103266104ee3660046120d2565b611775565b61032661050136600461207d565b6117ef565b61032661051436600461207d565b611865565b61026d61052736600461209f565b6001600160a01b039182166000908152600b6020908152604080832093909416825291909152205490565b6001600160a01b03821660009081526006602052604081205481906105785760006105cc565b6001600160a01b0384166000908152600660209081526040808320546005909252909120546105ac9086906104788261188f565b6105c2906b204fce5e3e25026110000000612207565b6105cc9190612226565b6001600160a01b038086166000818152600a6020908152604080832094891683529381528382205492825260049052919091205461060a9190612248565b610614919061225f565b6001600160a01b038086166000908152600b60209081526040808320938816835292905220549091506b204fce5e3e25026110000000906106559083612207565b61065f9190612226565b6001600160a01b038086166000908152600c602090815260408083209388168352929052205461068f919061225f565b949350505050565b6001600160a01b038116600090815260a66020526040812080546106d691849184906106c5576106c5612277565b9060005260206000200154426113d1565b92915050565b6000826106e8816118d3565b6001600160a01b038416600090815260076020526040902054849060ff1661072b5760405162461bcd60e51b81526004016107229061228d565b60405180910390fd5b4260003387878460405160200161074594939291906122c4565b60408051601f1981840301815291815281516020928301206000818152600290935291205490915060ff16156107bd5760405162461bcd60e51b815260206004820152601f60248201527f5969656c644661726d696e673a20616c7265616479207375626d6974746564006044820152606401610722565b6000818152600260205260409020805460ff191660011790557fbc98e7585c241905f10d293c4529bec9052928fe17ee3732994906a20f487ee76107fe3390565b6001600160a01b038981166000818152600b6020908152604080832033845282529182902054825195909416855284019190915282810191909152606082018990526080820185905260a08201849052519081900360c00190a19695505050505050565b6001600160a01b038116600090815260a560205260408120805461088890600190612248565b8154811061089857610898612277565b90600052602060002001549050919050565b6108b261192f565b6001600160a01b0382166000818152600160209081526040918290205482519384529083015281018290527f65b054876e2393bcad05100c6a7add74232b1c6afddae31935d6ff0a8e062c159060600160405180910390a16001600160a01b03909116600090815260016020526040902055565b81610930816118d3565b6001600160a01b038316600090815260076020526040902054839060ff1661096a5760405162461bcd60e51b81526004016107229061228d565b610972611989565b6109876001600160a01b0385163330866119e3565b6109918433611a4e565b6001600160a01b0384166000908152600b60209081526040808320338452909152812080548592906109c490849061225f565b90915550506001600160a01b038416600090815260066020526040812080548592906109f190849061225f565b9091555050604080513381526001600160a01b03861660208201529081018490527fff615f6657350e674536408ce2dc5c176d4e5515a7aaf81d913b5a3e4534879f906060015b60405180910390a1610a4a6001600f55565b50505050565b81610a5a816118d3565b6001600160a01b038316600090815260076020526040902054839060ff16610a945760405162461bcd60e51b81526004016107229061228d565b610a9c611989565b6001600160a01b03841660009081526020819052604090205415610b165760405162461bcd60e51b815260206004820152602b60248201527f5969656c644661726d696e673a206d696e696d756d20776169742074696d652060448201526a6973206e6f74207a65726f60a81b6064820152608401610722565b6001600160a01b0384166000908152600b60209081526040808320338452909152902054831115610b855760405162461bcd60e51b81526020600482015260196024820152785969656c644661726d696e673a206c6f772062616c616e636560381b6044820152606401610722565b610b8f8433611a4e565b6001600160a01b0384166000908152600b6020908152604080832033845290915281208054859290610bc2908490612248565b90915550506001600160a01b03841660009081526006602052604081208054859290610bef908490612248565b90915550610c0990506001600160a01b0385163385611be0565b604080513381526001600160a01b0386166020820152908101849052600060608201527f4c168aadb2bdb3f9e9833c1eb567d6b026ff1436656d910dd7bf9a43360b05a590608001610a38565b610c5e61192f565b6001600160a01b03909116600081815260a560209081526040808320805460018181018355918552838520019690965592825260a681529181208054948501815581522090910155565b610cb061192f565b610cb981611c10565b50565b60a66020528160005260406000208181548110610cd857600080fd5b90600052602060002001600091509150505481565b610cf561192f565b6001600160a01b03166000908152600860209081526040808320805460ff1916600117905560099091529020429055565b610d2e61192f565b610d386000611c7a565b565b610d4261192f565b6001600160a01b039092166000818152600760209081526040808320805460ff1916600190811790915560a5835281842080548083018255908552838520019790975583835260a682528083208054808901825590845282842042910155928252818152828220939093559390915290912055565b610dbf61192f565b610cb981611ccc565b610dd061192f565b610dda8282611a4e565b6001600160a01b038083166000818152600b60209081526040808320948616835293815283822080549083905592825260069052918220805491928392610e22908490612248565b90915550610e3c90506001600160a01b0384168383611be0565b505050565b600d54610100900460ff1615808015610e615750600d54600160ff909116105b80610e7b5750303b158015610e7b5750600d5460ff166001145b610ede5760405162461bcd60e51b815260206004820152602e60248201527f496e697469616c697a61626c653a20636f6e747261637420697320616c72656160448201526d191e481a5b9a5d1a585b1a5e995960921b6064820152608401610722565b600d805460ff191660011790558015610f0157600d805461ff0019166101001790555b610f09611d31565b610f11611d60565b610f19611d8f565b8015610cb957600d805461ff0019169055604051600181527f7f26b83ff96e1f2b6a682f133852f6798a09c465da95921460cefb38474024989060200160405180910390a150565b83610f6b816118d3565b6001600160a01b038516600090815260076020526040902054859060ff16610fa55760405162461bcd60e51b81526004016107229061228d565b610fad611989565b33868686604051602001610fc494939291906122c4565b6040516020818303038152906040528051906020012083146110285760405162461bcd60e51b815260206004820152601760248201527f5969656c644661726d696e673a2077726f6e67207461670000000000000000006044820152606401610722565b6001600160a01b03861660009081526020819052604090205461104e9062015180612207565b6110588542612248565b10156110a65760405162461bcd60e51b815260206004820152601a60248201527f5969656c644661726d696e673a207374696c6c206c6f636b65640000000000006044820152606401610722565b6001600160a01b03861660009081526001602090815260408083205491839052909120546110d4919061225f565b6110e19062015180612207565b6110eb8542612248565b11156111395760405162461bcd60e51b815260206004820152601960248201527f5969656c644661726d696e673a207265712065787069726564000000000000006044820152606401610722565b60008381526002602052604090205460ff1660011461119a5760405162461bcd60e51b815260206004820152601e60248201527f5969656c644661726d696e673a20616c726561647920756e7374616b656400006044820152606401610722565b6001600160a01b0386166000908152600b602090815260408083203384529091529020548511156112095760405162461bcd60e51b81526020600482015260196024820152785969656c644661726d696e673a206c6f772062616c616e636560381b6044820152606401610722565b6112138633611a4e565b6001600160a01b0386166000908152600b6020908152604080832033845290915281208054879290611246908490612248565b90915550506001600160a01b03861660009081526006602052604081208054879290611273908490612248565b9091555061128d90506001600160a01b0387163387611be0565b6000838152600260208190526040909120805460ff191690911790557f4c168aadb2bdb3f9e9833c1eb567d6b026ff1436656d910dd7bf9a43360b05a533604080516001600160a01b039283168152918916602083015281018790526060810185905260800160405180910390a16113056001600f55565b505050505050565b61131561192f565b600061132083610862565b6001600160a01b038416600081815260a5602090815260408083208054600180820183559185528385200188905584845260a68352818420805491820181558452928290204293018390558051938452908301849052820185905260608201529091507f2154de89d5bc468103866cc236e52e0405df9bd8cf3888bb159579a365f51a089060800160405180910390a1505050565b60a56020528160005260406000208181548110610cd857600080fd5b6001600160a01b038316600090815260a5602052604081205481906113f890600190612248565b905060005b6001600160a01b038616600090815260a66020526040902080548390811061142757611427612277565b9060005260206000200154851015611571576001600160a01b038616600090815260a66020526040902080548390811061146357611463612277565b90600052602060002001548411611486578161147e816122f7565b9250506113fd565b6001600160a01b038616600090815260a5602052604090208054620151809190849081106114b6576114b6612277565b906000526020600020015460a66000896001600160a01b03166001600160a01b0316815260200190815260200160002084815481106114f7576114f7612277565b90600052602060002001548661150d9190612248565b6115179190612207565b6115219190612226565b61152b908261225f565b6001600160a01b038716600090815260a6602052604090208054919250908390811061155957611559612277565b90600052602060002001549350818061147e906122f7565b6001600160a01b038616600090815260a5602052604090208054620151809190849081106115a1576115a1612277565b906000526020600020015486866115b89190612248565b6115c29190612207565b6115cc9190612226565b6115d6908261225f565b9695505050505050565b60a7546040516370a0823160e01b81523060048201526000916001600160a01b0316906370a082319060240160206040518083038186803b15801561162457600080fd5b505afa158015611638573d6000803e3d6000fd5b505050506040513d601f19601f8201168201806040525081019061165c919061230e565b905090565b8061166b816118d3565b6001600160a01b038216600090815260076020526040902054829060ff166116a55760405162461bcd60e51b81526004016107229061228d565b6116ad611989565b6116b78333611a4e565b6001600160a01b0383166000908152600c60209081526040808320338452909152812080549082905560a88054919283926116f390849061225f565b9091555061172290503361170f83670de0b6b3a7640000612207565b60a7546001600160a01b03169190611be0565b604080513381526001600160a01b038616602082015280820183905290517f0aa4d283470c904c551d18bb894d37e17674920f3261a7f854be501e25f421b79181900360600190a150610e3c6001600f55565b61177d61192f565b6001600160a01b038216600081815260208181526040918290205482519384529083015281018290527f9e056386574330bae2895f4812920b4ffdbb2e2699af262b38cea73f83481ac89060600160405180910390a16001600160a01b03909116600090815260208190526040902055565b6117f761192f565b6001600160a01b03811661185c5760405162461bcd60e51b815260206004820152602660248201527f4f776e61626c653a206e6577206f776e657220697320746865207a65726f206160448201526564647265737360d01b6064820152608401610722565b610cb981611c7a565b61186d61192f565b60a780546001600160a01b0319166001600160a01b0392909216919091179055565b6001600160a01b03811660009081526008602052604081205460ff16156118cc57506001600160a01b031660009081526009602052604090205490565b5042919050565b6001600160a01b0381166000908152600e602052604090205460ff1615610cb95760405162461bcd60e51b815260206004820152601060248201526f14185d5cd8589b194e881c185d5cd95960821b6044820152606401610722565b6073546001600160a01b03163314610d385760405162461bcd60e51b815260206004820181905260248201527f4f776e61626c653a2063616c6c6572206973206e6f7420746865206f776e65726044820152606401610722565b6002600f5414156119dc5760405162461bcd60e51b815260206004820152601f60248201527f5265656e7472616e637947756172643a207265656e7472616e742063616c6c006044820152606401610722565b6002600f55565b6040516001600160a01b0380851660248301528316604482015260648101829052610a4a9085906323b872dd60e01b906084015b60408051601f198184030181529190526020810180516001600160e01b03166001600160e01b031990931692909217909152611db6565b6001600160a01b03821660009081526006602052604090205415611aee576001600160a01b038216600090815260066020908152604080832054600590925290912054611aa09084906104788261188f565b611ab6906b204fce5e3e25026110000000612207565b611ac09190612226565b6001600160a01b03831660009081526004602052604081208054909190611ae890849061225f565b90915550505b6001600160a01b038083166000818152600b6020908152604080832094861680845294825280832054848452600a83528184209584529482528083205493835260049091529020546b204fce5e3e250261100000009291611b4e91612248565b611b589190612207565b611b629190612226565b6001600160a01b038084166000908152600c6020908152604080832093861683529290529081208054909190611b9990849061225f565b90915550506001600160a01b0391821660009081526005602090815260408083204290556004825280832054600a83528184209490951683529290522055565b6001600f55565b6040516001600160a01b038316602482015260448101829052610e3c90849063a9059cbb60e01b90606401611a17565b80611c1a81611e8b565b6001600160a01b0382166000818152600e6020908152604091829020805460ff191690558151338152908101929092527f3d072963433794eb417a69355df67d08bbd73d5076ef653d6863861161d60af391015b60405180910390a15050565b607380546001600160a01b038381166001600160a01b0319831681179093556040519116919082907f8be0079c531659141344cd1fd0a4f28419497f9722a3daafe3b4186f6b6457e090600090a35050565b80611cd6816118d3565b6001600160a01b0382166000818152600e6020908152604091829020805460ff191660011790558151338152908101929092527f3dd4f37ca5eaf6c357698a52c806820426d7c9a26adb0991c3bebb09cf23352a9101611c6e565b600d54610100900460ff16611d585760405162461bcd60e51b815260040161072290612327565b610d38611eea565b600d54610100900460ff16611d875760405162461bcd60e51b815260040161072290612327565b610d38611f1a565b600d54610100900460ff16610d385760405162461bcd60e51b815260040161072290612327565b6000611e0b826040518060400160405280602081526020017f5361666545524332303a206c6f772d6c6576656c2063616c6c206661696c6564815250856001600160a01b0316611f419092919063ffffffff16565b9050805160001480611e2c575080806020019051810190611e2c9190612372565b610e3c5760405162461bcd60e51b815260206004820152602a60248201527f5361666545524332303a204552433230206f7065726174696f6e20646964206e6044820152691bdd081cdd58d8d9595960b21b6064820152608401610722565b6001600160a01b0381166000908152600e602052604090205460ff16610cb95760405162461bcd60e51b815260206004820152601460248201527314185d5cd8589b194e881b9bdd081c185d5cd95960621b6044820152606401610722565b600d54610100900460ff16611f115760405162461bcd60e51b815260040161072290612327565b610d3833611c7a565b600d54610100900460ff16611bd95760405162461bcd60e51b815260040161072290612327565b606061068f848460008585600080866001600160a01b03168587604051611f6891906123c0565b60006040518083038185875af1925050503d8060008114611fa5576040519150601f19603f3d011682016040523d82523d6000602084013e611faa565b606091505b5091509150611fbb87838387611fc6565b979650505050505050565b6060831561203257825161202b576001600160a01b0385163b61202b5760405162461bcd60e51b815260206004820152601d60248201527f416464726573733a2063616c6c20746f206e6f6e2d636f6e74726163740000006044820152606401610722565b508161068f565b61068f83838151156120475781518083602001fd5b8060405162461bcd60e51b815260040161072291906123dc565b80356001600160a01b038116811461207857600080fd5b919050565b60006020828403121561208f57600080fd5b61209882612061565b9392505050565b600080604083850312156120b257600080fd5b6120bb83612061565b91506120c960208401612061565b90509250929050565b600080604083850312156120e557600080fd5b6120ee83612061565b946020939093013593505050565b60008060006060848603121561211157600080fd5b8335925061212160208501612061565b9150604084013590509250925092565b6000806000806080858703121561214757600080fd5b8435935061215760208601612061565b93969395505050506040820135916060013590565b6000806000806080858703121561218257600080fd5b61218b85612061565b966020860135965060408601359560600135945092505050565b6000806000606084860312156121ba57600080fd5b6121c384612061565b95602085013595506040909401359392505050565b6000602082840312156121ea57600080fd5b5035919050565b634e487b7160e01b600052601160045260246000fd5b6000816000190483118215151615612221576122216121f1565b500290565b60008261224357634e487b7160e01b600052601260045260246000fd5b500490565b60008282101561225a5761225a6121f1565b500390565b60008219821115612272576122726121f1565b500190565b634e487b7160e01b600052603260045260246000fd5b6020808252601b908201527f5969656c644661726d696e673a206e6f7420737570706f727465640000000000604082015260600190565b6bffffffffffffffffffffffff19606095861b811682529390941b90921660148401526028830152604882015260680190565b600081612306576123066121f1565b506000190190565b60006020828403121561232057600080fd5b5051919050565b6020808252602b908201527f496e697469616c697a61626c653a20636f6e7472616374206973206e6f74206960408201526a6e697469616c697a696e6760a81b606082015260800190565b60006020828403121561238457600080fd5b8151801515811461209857600080fd5b60005b838110156123af578181015183820152602001612397565b83811115610a4a5750506000910152565b600082516123d2818460208701612394565b9190910192915050565b60208152600082518060208401526123fb816040850160208701612394565b601f01601f1916919091016040019291505056fea26469706673582212204a0864c9334d99f4f3eb717abb7f3b2025fb9f191d8ab602d467a3c4886136e964736f6c63430008090033",
  "devdoc": {
    "kind": "dev",
    "methods": {
      "claimReward(address)": {
        "details": "Reward amount should be multiplied by 10^18"
      },
      "owner()": {
        "details": "Returns the address of the current owner."
      },
      "paused(address)": {
        "details": "Returns true if the contract is paused, and false otherwise."
      },
      "renounceOwnership()": {
        "details": "Leaves the contract without owner. It will not be possible to call `onlyOwner` functions. Can only be called by the current owner. NOTE: Renouncing ownership will leave the contract without an owner, thereby disabling any functionality that is only available to the owner."
      },
      "requestToUnstakeLpToken(address,uint256)": {
        "details": "Should be used if min wait time is non-zero"
      },
      "stakeLpToken(address,uint256)": {
        "details": "Farming should exist for that token and not paused"
      },
      "transferOwnership(address)": {
        "details": "Transfers ownership of the contract to a new account (`newOwner`). Can only be called by the current owner."
      },
      "updateRewardPerDay(address,uint256)": {
        "details": "This value could be only updated few times since the contract      may run out of gas for calculating the interest"
      }
    },
    "version": 1
  },
  "userdoc": {
    "kind": "user",
    "methods": {
      "addLpToken(uint256,address,uint256,uint256)": {
        "notice": "Start farming for a LP token"
      },
      "balanceOf(address,address)": {
        "notice": "Return number of staked LP token of a user"
      },
      "claimReward(address)": {
        "notice": "Claim the farmed TST"
      },
      "getRewardOfUser(address,address)": {
        "notice": "Return farmed TST of an account"
      },
      "instantUnstakeLpToken(address,uint256)": {
        "notice": "Unstake LP token if there is no min wait time"
      },
      "pause(address)": {
        "notice": "Pause depositing for a LP token"
      },
      "requestToUnstakeLpToken(address,uint256)": {
        "notice": "Request to unstake LP tokens"
      },
      "sendBackToken(address,address)": {
        "notice": "Return LP token to staker"
      },
      "setLockTime(address,uint256)": {
        "notice": "Set the min staking time"
      },
      "setUnlockRequestDeadline(address,uint256)": {
        "notice": "Set the deadline for unstaking LP tokens after the"
      },
      "stakeLpToken(address,uint256)": {
        "notice": "Stake LP token to farm TST"
      },
      "stop(address)": {
        "notice": "Stop farming for a liquidity pool"
      },
      "totalRewardFromStart(address)": {
        "notice": "Return farmed TST amount from the start of farming"
      },
      "totalRewardInPeriod(address,uint256,uint256)": {
        "notice": "Return farmed TST amount during a period for all stakers"
      },
      "unpause(address)": {
        "notice": "Unpause depositing of a LP token"
      },
      "unstakeLpToken(address,uint256,uint256,bytes32)": {
        "notice": "Unstake LP token after the wait time is passed"
      },
      "updateRewardPerDay(address,uint256)": {
        "notice": "Update the reward per day for a LP token"
      }
    },
    "version": 1
  },
  "storageLayout": {
    "storage": [
      {
        "astId": 2827,
        "contract": "contracts/YieldFarmingLogic.sol:YieldFarmingLogic",
        "label": "lockTime",
        "offset": 0,
        "slot": "0",
        "type": "t_mapping(t_address,t_uint256)"
      },
      {
        "astId": 2831,
        "contract": "contracts/YieldFarmingLogic.sol:YieldFarmingLogic",
        "label": "unlockRequestDeadline",
        "offset": 0,
        "slot": "1",
        "type": "t_mapping(t_address,t_uint256)"
      },
      {
        "astId": 2835,
        "contract": "contracts/YieldFarmingLogic.sol:YieldFarmingLogic",
        "label": "unlockRequestState",
        "offset": 0,
        "slot": "2",
        "type": "t_mapping(t_bytes32,t_uint8)"
      },
      {
        "astId": 2839,
        "contract": "contracts/YieldFarmingLogic.sol:YieldFarmingLogic",
        "label": "_interestPerDay",
        "offset": 0,
        "slot": "3",
        "type": "t_mapping(t_address,t_uint256)"
      },
      {
        "astId": 2843,
        "contract": "contracts/YieldFarmingLogic.sol:YieldFarmingLogic",
        "label": "_overallCoefficient",
        "offset": 0,
        "slot": "4",
        "type": "t_mapping(t_address,t_uint256)"
      },
      {
        "astId": 2847,
        "contract": "contracts/YieldFarmingLogic.sol:YieldFarmingLogic",
        "label": "_lastUpdateTime",
        "offset": 0,
        "slot": "5",
        "type": "t_mapping(t_address,t_uint256)"
      },
      {
        "astId": 2851,
        "contract": "contracts/YieldFarmingLogic.sol:YieldFarmingLogic",
        "label": "stakedTotalSupply",
        "offset": 0,
        "slot": "6",
        "type": "t_mapping(t_address,t_uint256)"
      },
      {
        "astId": 2855,
        "contract": "contracts/YieldFarmingLogic.sol:YieldFarmingLogic",
        "label": "isLpTokenSupported",
        "offset": 0,
        "slot": "7",
        "type": "t_mapping(t_address,t_bool)"
      },
      {
        "astId": 2859,
        "contract": "contracts/YieldFarmingLogic.sol:YieldFarmingLogic",
        "label": "_isStopped",
        "offset": 0,
        "slot": "8",
        "type": "t_mapping(t_address,t_bool)"
      },
      {
        "astId": 2863,
        "contract": "contracts/YieldFarmingLogic.sol:YieldFarmingLogic",
        "label": "_stopTime",
        "offset": 0,
        "slot": "9",
        "type": "t_mapping(t_address,t_uint256)"
      },
      {
        "astId": 2869,
        "contract": "contracts/YieldFarmingLogic.sol:YieldFarmingLogic",
        "label": "_lastCoefficient",
        "offset": 0,
        "slot": "10",
        "type": "t_mapping(t_address,t_mapping(t_address,t_uint256))"
      },
      {
        "astId": 2875,
        "contract": "contracts/YieldFarmingLogic.sol:YieldFarmingLogic",
        "label": "_stakedBalance",
        "offset": 0,
        "slot": "11",
        "type": "t_mapping(t_address,t_mapping(t_address,t_uint256))"
      },
      {
        "astId": 2881,
        "contract": "contracts/YieldFarmingLogic.sol:YieldFarmingLogic",
        "label": "_rewardBalance",
        "offset": 0,
        "slot": "12",
        "type": "t_mapping(t_address,t_mapping(t_address,t_uint256))"
      },
      {
        "astId": 139,
        "contract": "contracts/YieldFarmingLogic.sol:YieldFarmingLogic",
        "label": "_initialized",
        "offset": 0,
        "slot": "13",
        "type": "t_uint8"
      },
      {
        "astId": 142,
        "contract": "contracts/YieldFarmingLogic.sol:YieldFarmingLogic",
        "label": "_initializing",
        "offset": 1,
        "slot": "13",
        "type": "t_bool"
      },
      {
        "astId": 1612,
        "contract": "contracts/YieldFarmingLogic.sol:YieldFarmingLogic",
        "label": "_paused",
        "offset": 0,
        "slot": "14",
        "type": "t_mapping(t_address,t_bool)"
      },
      {
        "astId": 316,
        "contract": "contracts/YieldFarmingLogic.sol:YieldFarmingLogic",
        "label": "_status",
        "offset": 0,
        "slot": "15",
        "type": "t_uint256"
      },
      {
        "astId": 385,
        "contract": "contracts/YieldFarmingLogic.sol:YieldFarmingLogic",
        "label": "__gap",
        "offset": 0,
        "slot": "16",
        "type": "t_array(t_uint256)49_storage"
      },
      {
        "astId": 766,
        "contract": "contracts/YieldFarmingLogic.sol:YieldFarmingLogic",
        "label": "__gap",
        "offset": 0,
        "slot": "65",
        "type": "t_array(t_uint256)50_storage"
      },
      {
        "astId": 11,
        "contract": "contracts/YieldFarmingLogic.sol:YieldFarmingLogic",
        "label": "_owner",
        "offset": 0,
        "slot": "115",
        "type": "t_address"
      },
      {
        "astId": 131,
        "contract": "contracts/YieldFarmingLogic.sol:YieldFarmingLogic",
        "label": "__gap",
        "offset": 0,
        "slot": "116",
        "type": "t_array(t_uint256)49_storage"
      },
      {
        "astId": 2889,
        "contract": "contracts/YieldFarmingLogic.sol:YieldFarmingLogic",
        "label": "rewardPerDay",
        "offset": 0,
        "slot": "165",
        "type": "t_mapping(t_address,t_array(t_uint256)dyn_storage)"
      },
      {
        "astId": 2894,
        "contract": "contracts/YieldFarmingLogic.sol:YieldFarmingLogic",
        "label": "rewardPerDayUpdateTime",
        "offset": 0,
        "slot": "166",
        "type": "t_mapping(t_address,t_array(t_uint256)dyn_storage)"
      },
      {
        "astId": 2896,
        "contract": "contracts/YieldFarmingLogic.sol:YieldFarmingLogic",
        "label": "TST",
        "offset": 0,
        "slot": "167",
        "type": "t_address"
      },
      {
        "astId": 2898,
        "contract": "contracts/YieldFarmingLogic.sol:YieldFarmingLogic",
        "label": "totalClaimedReward",
        "offset": 0,
        "slot": "168",
        "type": "t_uint256"
      }
    ],
    "types": {
      "t_address": {
        "encoding": "inplace",
        "label": "address",
        "numberOfBytes": "20"
      },
      "t_array(t_uint256)49_storage": {
        "base": "t_uint256",
        "encoding": "inplace",
        "label": "uint256[49]",
        "numberOfBytes": "1568"
      },
      "t_array(t_uint256)50_storage": {
        "base": "t_uint256",
        "encoding": "inplace",
        "label": "uint256[50]",
        "numberOfBytes": "1600"
      },
      "t_array(t_uint256)dyn_storage": {
        "base": "t_uint256",
        "encoding": "dynamic_array",
        "label": "uint256[]",
        "numberOfBytes": "32"
      },
      "t_bool": {
        "encoding": "inplace",
        "label": "bool",
        "numberOfBytes": "1"
      },
      "t_bytes32": {
        "encoding": "inplace",
        "label": "bytes32",
        "numberOfBytes": "32"
      },
      "t_mapping(t_address,t_array(t_uint256)dyn_storage)": {
        "encoding": "mapping",
        "key": "t_address",
        "label": "mapping(address => uint256[])",
        "numberOfBytes": "32",
        "value": "t_array(t_uint256)dyn_storage"
      },
      "t_mapping(t_address,t_bool)": {
        "encoding": "mapping",
        "key": "t_address",
        "label": "mapping(address => bool)",
        "numberOfBytes": "32",
        "value": "t_bool"
      },
      "t_mapping(t_address,t_mapping(t_address,t_uint256))": {
        "encoding": "mapping",
        "key": "t_address",
        "label": "mapping(address => mapping(address => uint256))",
        "numberOfBytes": "32",
        "value": "t_mapping(t_address,t_uint256)"
      },
      "t_mapping(t_address,t_uint256)": {
        "encoding": "mapping",
        "key": "t_address",
        "label": "mapping(address => uint256)",
        "numberOfBytes": "32",
        "value": "t_uint256"
      },
      "t_mapping(t_bytes32,t_uint8)": {
        "encoding": "mapping",
        "key": "t_bytes32",
        "label": "mapping(bytes32 => uint8)",
        "numberOfBytes": "32",
        "value": "t_uint8"
      },
      "t_uint256": {
        "encoding": "inplace",
        "label": "uint256",
        "numberOfBytes": "32"
      },
      "t_uint8": {
        "encoding": "inplace",
        "label": "uint8",
        "numberOfBytes": "1"
      }
    }
  }
}