{
  "address": "0xD0BD1B6A9aFf0A9E23E818F2Cc6232004a472111",
  "abi": [
    {
      "inputs": [
        {
          "internalType": "uint256",
          "name": "_blockNumber",
          "type": "uint256"
        },
        {
          "internalType": "uint256",
          "name": "startingBlockNumber",
          "type": "uint256"
        },
        {
          "internalType": "bytes4",
          "name": "_locktime",
          "type": "bytes4"
        },
        {
          "internalType": "address",
          "name": "lockers",
          "type": "address"
        },
        {
          "internalType": "bytes",
          "name": "_lockerLockingScript",
          "type": "bytes"
        },
        {
          "internalType": "uint256",
          "name": "_burnReqIndexesLength",
          "type": "uint256"
        },
        {
          "internalType": "uint256",
          "name": "_voutIndexesLength",
          "type": "uint256"
        }
      ],
      "name": "burnProofHelper",
      "outputs": [],
      "stateMutability": "view",
      "type": "function"
    },
    {
      "inputs": [
        {
          "internalType": "bytes",
          "name": "_userScript",
          "type": "bytes"
        },
        {
          "internalType": "enum ScriptTypes",
          "name": "_scriptType",
          "type": "ScriptTypes"
        },
        {
          "internalType": "address",
          "name": "lockers",
          "type": "address"
        },
        {
          "internalType": "bytes",
          "name": "_lockerLockingScript",
          "type": "bytes"
        }
      ],
      "name": "checkScriptTypeAndLocker",
      "outputs": [],
      "stateMutability": "view",
      "type": "function"
    },
    {
      "inputs": [
        {
          "internalType": "address",
          "name": "_relay",
          "type": "address"
        }
      ],
      "name": "finalizationParameter",
      "outputs": [
        {
          "internalType": "uint256",
          "name": "",
          "type": "uint256"
        }
      ],
      "stateMutability": "view",
      "type": "function"
    },
    {
      "inputs": [
        {
          "internalType": "address",
          "name": "_relay",
          "type": "address"
        },
        {
          "internalType": "uint256",
          "name": "_blockNumber",
          "type": "uint256"
        }
      ],
      "name": "getFinalizedBlockHeaderFee",
      "outputs": [
        {
          "internalType": "uint256",
          "name": "",
          "type": "uint256"
        }
      ],
      "stateMutability": "view",
      "type": "function"
    },
    {
      "inputs": [
        {
          "internalType": "address",
          "name": "_relay",
          "type": "address"
        }
      ],
      "name": "lastSubmittedHeight",
      "outputs": [
        {
          "internalType": "uint256",
          "name": "",
          "type": "uint256"
        }
      ],
      "stateMutability": "view",
      "type": "function"
    },
    {
      "inputs": [
        {
          "internalType": "address",
          "name": "lockers",
          "type": "address"
        },
        {
          "internalType": "bytes",
          "name": "_inputVout",
          "type": "bytes"
        },
        {
          "internalType": "bytes",
          "name": "_lockerLockingScript",
          "type": "bytes"
        },
        {
          "internalType": "uint256",
          "name": "_slasherPercentageReward",
          "type": "uint256"
        },
        {
          "internalType": "uint256",
          "name": "_MAX_PERCENTAGE_FEE",
          "type": "uint256"
        }
      ],
      "name": "prepareSlashLockerForDispute",
      "outputs": [
        {
          "internalType": "address",
          "name": "_lockerTargetAddress",
          "type": "address"
        },
        {
          "internalType": "uint256",
          "name": "slasherReward",
          "type": "uint256"
        },
        {
          "internalType": "uint256",
          "name": "totalValue",
          "type": "uint256"
        }
      ],
      "stateMutability": "view",
      "type": "function"
    }
  ],
  "transactionHash": "0x79a8deb4bbfe79cdd8a31c4e4f31fbd472b65387eb665e08a39a688b9eb0ee47",
  "args": [],
  "numDeployments": 1,
  "solcInputHash": "d9b7352e907befb3582d4e96b6873df3",
  "bytecode": "0x61470461003a600b82828239805160001a60731461002d57634e487b7160e01b600052600060045260246000fd5b30600052607381538281f3fe73000000000000000000000000000000000000000030146080604052600436106100b95760003560e01c806310889dc3146100be57806315755789146100e4578063191e28dc14610106578063441d3a211461013657806344922b64146101565780637ebc232714610169578063846852f9146101895780638d9da599146101c15780639de06606146101d4578063a779a392146101f4578063aa25f84014610207578063f876615014610227578063fadc64651461023a575b600080fd5b6100d16100cc366004613957565b61025a565b6040519081526020015b60405180910390f35b8180156100f057600080fd5b506101046100ff366004613eb3565b6102d3565b005b81801561011257600080fd5b50610126610121366004614058565b6104b5565b60405190151581526020016100db565b81801561014257600080fd5b50610104610151366004613b10565b61053e565b6101046101643660046140c1565b610995565b81801561017557600080fd5b50610126610184366004613aa8565b610b09565b61019c610197366004613c74565b610be2565b604080516001600160a01b0390941684526020840192909252908201526060016100db565b6100d16101cf366004613cf8565b610c9b565b8180156101e057600080fd5b506100d16101ef36600461398f565b610d24565b6100d1610202366004613957565b611252565b81801561021357600080fd5b506100d1610222366004613f02565b61128d565b610104610235366004613e00565b611466565b81801561024657600080fd5b506100d1610255366004613fb0565b6115ca565b6000816001600160a01b0316632f796d906040518163ffffffff1660e01b815260040160206040518083038186803b15801561029557600080fd5b505afa1580156102a9573d6000803e3d6000fd5b505050506040513d601f19601f820116820180604052508101906102cd9190613de8565b92915050565b6001600160a01b038516600090815260208790526040902080548590811061030b57634e487b7160e01b600052603260045260246000fd5b600091825260209091206005600790920201015460ff16156103745760405162461bcd60e51b815260206004820152601d60248201527f4275726e526f757465724c6f6769633a20616c7265616479207061696400000060448201526064015b60405180910390fd5b6001600160a01b03851660009081526020879052604090208054839190869081106103af57634e487b7160e01b600052603260045260246000fd5b906000526020600020906007020160040154106103de5760405162461bcd60e51b815260040161036b906142f3565b6103e883826144a7565b6001600160a01b038616600090815260208890526040902080548690811061042057634e487b7160e01b600052603260045260246000fd5b9060005260206000209060070201600401541161044f5760405162461bcd60e51b815260040161036b90614337565b6001600160a01b03851660009081526020879052604090208054600191908690811061048b57634e487b7160e01b600052603260045260246000fd5b60009182526020909120600790910201600501805460ff1916911515919091179055505050505050565b6000806104c28585611a04565b6001600160401b0316905060006104d886611b15565b9050811580156104e757508087145b80610505575081158015906105055750806105038860016144a7565b145b1561052e575050506000818152602086905260409020805460ff19166001908117909155610535565b6000925050505b95945050505050565b60405163aff2faa360e01b81526001600160a01b038d169063aff2faa39061056a908e9060040161423f565b60206040518083038186803b15801561058257600080fd5b505afa158015610596573d6000803e3d6000fd5b505050506040513d601f19601f820116820180604052508101906105ba9190613d23565b6105d65760405162461bcd60e51b815260040161036b906142be565b895160021480156105e8575082516002145b80156105f5575080516003145b6106415760405162461bcd60e51b815260206004820152601d60248201527f4275726e526f757465724c6f6769633a2077726f6e6720696e70757473000000604482015260640161036b565b848160028151811061066357634e487b7160e01b600052603260045260246000fd5b602002602001015110156106895760405162461bcd60e51b815260040161036b90614337565b6106e68685836002815181106106af57634e487b7160e01b600052603260045260246000fd5b602002602001015185856001815181106106d957634e487b7160e01b600052603260045260246000fd5b6020026020010151610b09565b6107325760405162461bcd60e51b815260206004820152601e60248201527f4275726e526f757465724c6f6769633a206e6f742066696e616c697a65640000604482015260640161036b565b60008481526020899052604090205460ff16156107915760405162461bcd60e51b815260206004820152601d60248201527f4275726e526f757465724c6f6769633a20616c72656164792075736564000000604482015260640161036b565b6000848152602089905260409020805460ff191660011790558051819060029081106107cd57634e487b7160e01b600052603260045260246000fd5b6020026020010151876107e091906144a7565b6107e98761025a565b116108065760405162461bcd60e51b815260040161036b906142f3565b6000806108418b8260200201518460008151811061083457634e487b7160e01b600052603260045260246000fd5b6020026020010151611b44565b915091506108cd8c60018151811061086957634e487b7160e01b600052603260045260246000fd5b60200260200101518c60016003811061089257634e487b7160e01b600052603260045260246000fd5b60200201518d60026020020151886001815181106108c057634e487b7160e01b600052603260045260246000fd5b6020026020010151611bcb565b821461091b5760405162461bcd60e51b815260206004820181905260248201527f4275726e526f757465724c6f6769633a2077726f6e67206f7574707574207478604482015260640161036b565b8c5160208e012060408c01516109319083611cfe565b80519060200120146109855760405162461bcd60e51b815260206004820152601f60248201527f4275726e526f757465724c6f6769633a206e6f7420666f72206c6f636b657200604482015260640161036b565b5050505050505050505050505050565b858710156109b55760405162461bcd60e51b815260040161036b90614337565b6001600160e01b0319851615610a195760405162461bcd60e51b815260206004820152602360248201527f4275726e526f757465724c6f6769633a206e6f6e2d7a65726f206c6f636b2074604482015262696d6560e81b606482015260840161036b565b60405163aff2faa360e01b81526001600160a01b0385169063aff2faa390610a4590869060040161423f565b60206040518083038186803b158015610a5d57600080fd5b505afa158015610a71573d6000803e3d6000fd5b505050506040513d601f19601f82011682018060405250810190610a959190613d23565b610ab15760405162461bcd60e51b815260040161036b906142be565b808214610b005760405162461bcd60e51b815260206004820152601e60248201527f4275726e526f757465724c6f6769633a2077726f6e6720696e64657865730000604482015260640161036b565b50505050505050565b600080610b168786610c9b565b905080341015610b605760405162461bcd60e51b8152602060048201526015602482015274426974636f696e52656c61793a206c6f772066656560581b604482015260640161036b565b6000610bad8888888888604051602401610b7d94939291906141e0565b60408051601f198184030181529190526020810180516001600160e01b0316634354da2560e01b17905284611d70565b9050610bc233610bbd8434614599565b611d96565b80806020019051810190610bd69190613d23565b98975050505050505050565b6000806000610bf087611eb1565b6001600160401b03169050876001600160a01b031663c4d10b6a876040518263ffffffff1660e01b8152600401610c27919061423f565b60206040518083038186803b158015610c3f57600080fd5b505afa158015610c53573d6000803e3d6000fd5b505050506040513d601f19601f82011682018060405250810190610c779190613973565b925083610c848683614551565b610c8e9190614531565b9150955095509592505050565b60405163d0a8973960e01b815260048101829052600060248201819052906001600160a01b0384169063d0a897399060440160206040518083038186803b158015610ce557600080fd5b505afa158015610cf9573d6000803e3d6000fd5b505050506040513d601f19601f82011682018060405250810190610d1d9190613de8565b9392505050565b6000876001600160a01b03168360018551610d3f9190614599565b81518110610d5d57634e487b7160e01b600052603260045260246000fd5b60200260200101516001600160a01b031614610d8b5760405162461bcd60e51b815260040161036b906143a1565b8451600214610ddc5760405162461bcd60e51b815260206004820152601e60248201527f4275726e526f757465724c6f6769633a2077726f6e6720616d6f756e74730000604482015260640161036b565b3415610f0b5784600081518110610e0357634e487b7160e01b600052603260045260246000fd5b60200260200101513414610e595760405162461bcd60e51b815260206004820152601f60248201527f4275726e526f757465724c6f6769633a20696e76616c696420616d6f756e7400604482015260640161036b565b82600081518110610e7a57634e487b7160e01b600052603260045260246000fd5b60200260200101516001600160a01b0316876001600160a01b031614610eb25760405162461bcd60e51b815260040161036b906143a1565b866001600160a01b031663d0e30db0346040518263ffffffff1660e01b81526004016000604051808303818588803b158015610eed57600080fd5b505af1158015610f01573d6000803e3d6000fd5b5050505050610ff9565b82600081518110610f2c57634e487b7160e01b600052603260045260246000fd5b60200260200101516001600160a01b03166323b872dd333088600081518110610f6557634e487b7160e01b600052603260045260246000fd5b60209081029190910101516040516001600160e01b031960e086901b1681526001600160a01b0393841660048201529290911660248301526044820152606401602060405180830381600087803b158015610fbf57600080fd5b505af1158015610fd3573d6000803e3d6000fd5b505050506040513d601f19601f82011682018060405250810190610ff79190613d23565b505b8260008151811061101a57634e487b7160e01b600052603260045260246000fd5b60200260200101516001600160a01b031663095ea7b3878760008151811061105257634e487b7160e01b600052603260045260246000fd5b60200260200101516040518363ffffffff1660e01b815260040161108b9291906001600160a01b03929092168252602082015260400190565b602060405180830381600087803b1580156110a557600080fd5b505af11580156110b9573d6000803e3d6000fd5b505050506040513d601f19601f820116820180604052508101906110dd9190613d23565b50600080876001600160a01b031663b0bbcd888860008151811061111157634e487b7160e01b600052603260045260246000fd5b60200260200101518960018151811061113a57634e487b7160e01b600052603260045260246000fd5b60200260200101518830898c6040518763ffffffff1660e01b8152600401611167969594939291906143d8565b600060405180830381600087803b15801561118157600080fd5b505af1158015611195573d6000803e3d6000fd5b505050506040513d6000823e601f3d908101601f191682016040526111bd9190810190613d3f565b915091508161120e5760405162461bcd60e51b815260206004820181905260248201527f4275726e526f757465724c6f6769633a2065786368616e6765206661696c6564604482015260640161036b565b806001825161121d9190614599565b8151811061123b57634e487b7160e01b600052603260045260246000fd5b602002602001015192505050979650505050505050565b6000816001600160a01b031663a072bc506040518163ffffffff1660e01b815260040160206040518083038186803b15801561029557600080fd5b604080516101008101825260006080820181905260a0820181905260c0820181815260e083018290528b8352602083018b90526001600160a01b0385169383019390935260608201899052918760058111156112f957634e487b7160e01b600052602160045260246000fd5b9081600581111561131a57634e487b7160e01b600052602160045260246000fd5b90525061132784876144a7565b6080820152600060a082018190526001600160a01b03861680825260208d8152604083205460e0850181905291909252908c905291506113688260016144a7565b6001600160a01b03868116600090815260208e81526040808320949094558f81528382208054600180820183559184529282902086516007909402019283558582015190830155928401516002820180546001600160a01b03191691909316179091556060830151805184936113e59260038501929101906136c7565b506080820151600482015560a08201516005808301805492151560ff1984168117825560c086015193919261ff001990911661ffff19909216919091179061010090849081111561144657634e487b7160e01b600052602160045260246000fd5b021790555060e082015181600601555050509a9950505050505050505050565b600084600581111561148857634e487b7160e01b600052602160045260246000fd5b14806114b3575060048460058111156114b157634e487b7160e01b600052602160045260246000fd5b145b806114dd575060058460058111156114db57634e487b7160e01b600052602160045260246000fd5b145b156115085784516020146115035760405162461bcd60e51b815260040161036b90614252565b611529565b84516014146115295760405162461bcd60e51b815260040161036b90614252565b60405163aff2faa360e01b81526001600160a01b0384169063aff2faa3906115579085908590600401614210565b60206040518083038186803b15801561156f57600080fd5b505afa158015611583573d6000803e3d6000fd5b505050506040513d601f19601f820116820180604052508101906115a79190613d23565b6115c35760405162461bcd60e51b815260040161036b906142be565b5050505050565b60008080805b85518110156119f7578061160d578481815181106115fe57634e487b7160e01b600052603260045260246000fd5b602002602001015191506116be565b8185828151811061162e57634e487b7160e01b600052603260045260246000fd5b6020026020010151116116935760405162461bcd60e51b815260206004820152602760248201527f4275726e526f757465724c6f6769633a20756e2d736f7274656420766f757420604482015266696e646578657360c81b606482015260840161036b565b8481815181106116b357634e487b7160e01b600052603260045260246000fd5b602002602001015191505b60008682815181106116e057634e487b7160e01b600052603260045260246000fd5b602002602001015190508a60008a6001600160a01b03166001600160a01b03168152602001908152602001600020818154811061172d57634e487b7160e01b600052603260045260246000fd5b600091825260209091206005600790920201015460ff1615801561179c57506001600160a01b038916600090815260208c90526040902080548b91908390811061178757634e487b7160e01b600052603260045260246000fd5b90600052602060002090600702016004015410155b156119e457611911888784815181106117c557634e487b7160e01b600052603260045260246000fd5b60200260200101518d60008d6001600160a01b03166001600160a01b03168152602001908152602001600020848154811061181057634e487b7160e01b600052603260045260246000fd5b9060005260206000209060070201600301805461182c90614603565b80601f016020809104026020016040519081016040528092919081815260200182805461185890614603565b80156118a55780601f1061187a576101008083540402835291602001916118a5565b820191906000526020600020905b81548152906001019060200180831161188857829003601f168201915b50505050508e60008e6001600160a01b03166001600160a01b0316815260200190815260200160002085815481106118ed57634e487b7160e01b600052603260045260246000fd5b906000526020600020906007020160050160019054906101000a900460ff16611f4e565b6001600160401b03169350838b60008b6001600160a01b03166001600160a01b03168152602001908152602001600020828154811061196057634e487b7160e01b600052603260045260246000fd5b90600052602060002090600702016001015414156119e4576001600160a01b038916600090815260208c905260409020805460019190839081106119b457634e487b7160e01b600052603260045260246000fd5b60009182526020909120600790910201600501805460ff19169115159190911790556119e18560016144a7565b94505b50806119ef81614638565b9150506115d0565b5050509695505050505050565b600080611a1b611a16825b86906121c2565b6121dd565b9050611a2c62ffffff198216612333565b15611a495760405162461bcd60e51b815260040161036b90614289565b6000806000611a5984600061233f565b6001600160401b0316905060005b81811015611b0a57611a798582612488565b9350611a84846125b3565b925086604051602001611a9791906141c4565b60405160208183030381529060405280519060200120611abc8462ffffff1916612604565b604051602001611acc91906141c4565b604051602081830303815290604052805190602001201415611af857611af18461264a565b9550611b0a565b80611b0281614638565b915050611a67565b505050505092915050565b600080611b27611a16825b85906121c2565b9050611b3481600061233f565b6001600160401b03169392505050565b60008080611b5c611b57825b87906121c2565b61266f565b9050611b6d62ffffff198216612333565b15611b8a5760405162461bcd60e51b815260040161036b9061436d565b6000611b968286612770565b90506000611ba382612877565b9050611bae8161289b565b9450611bb9816128bd565b63ffffffff1693505050509250929050565b600080611bda611b5782611b50565b9050611beb62ffffff198216612333565b15611c085760405162461bcd60e51b815260040161036b9061436d565b6000600287878787604051602001611c239493929190614171565b60408051601f1981840301815290829052611c3d916141c4565b602060405180830381855afa158015611c5a573d6000803e3d6000fd5b5050506040513d601f19601f82011682018060405250810190611c7d9190613de8565b90506000600282604051602001611c9691815260200190565b60408051601f1981840301815290829052611cb0916141c4565b602060405180830381855afa158015611ccd573d6000803e3d6000fd5b5050506040513d601f19601f82011682018060405250810190611cf09190613de8565b93505050505b949350505050565b60606000611d0e611a1682611a0f565b9050611d1f62ffffff198216612333565b15611d3c5760405162461bcd60e51b815260040161036b90614289565b6000611d488285612488565b90506000611d55826125b3565b9050611d6662ffffff198216612604565b9695505050505050565b6060611cf68484846040518060600160405280602981526020016146a6602991396128e7565b80471015611de65760405162461bcd60e51b815260206004820152601d60248201527f416464726573733a20696e73756666696369656e742062616c616e6365000000604482015260640161036b565b6000826001600160a01b03168260405160006040518083038185875af1925050503d8060008114611e33576040519150601f19603f3d011682016040523d82523d6000602084013e611e38565b606091505b5050905080611eac5760405162461bcd60e51b815260206004820152603a60248201527f416464726573733a20756e61626c6520746f2073656e642076616c75652c20726044820152791958da5c1a595b9d081b585e481a185d99481c995d995c9d195960321b606482015260840161036b565b505050565b600080611ec0611a1682611b20565b9050611ed162ffffff198216612333565b15611eee5760405162461bcd60e51b815260040161036b90614289565b600080611efc83600061233f565b6001600160401b0316905060005b81811015611f4557611f1c8482612488565b9250611f278361264a565b611f3190866144bf565b945080611f3d81614638565b915050611f0a565b50505050919050565b600080611f5e611a1687836121c2565b9050611f6f62ffffff198216612333565b15611f8c5760405162461bcd60e51b815260040161036b90614289565b6000611f988287612488565b90506000611fa5826125b3565b90506005856005811115611fc957634e487b7160e01b600052602160045260246000fd5b141561202e57611fe262ffffff19821660026020612a0f565b604051602001611ff491815260200190565b6040516020818303038152906040528051906020012086805190602001201461201e576000612027565b6120278261264a565b93506121b7565b600085600581111561205057634e487b7160e01b600052602160045260246000fd5b141561206957611fe262ffffff19821660016020612a0f565b600185600581111561208b57634e487b7160e01b600052602160045260246000fd5b14156120c5576120a262ffffff1982166003612b3d565b604051602001611ff4919060609190911b6001600160601b031916815260140190565b60028560058111156120e757634e487b7160e01b600052602160045260246000fd5b14156120fe576120a262ffffff1982166002612b3d565b600385600581111561212057634e487b7160e01b600052602160045260246000fd5b1415612137576120a262ffffff1982166002612b3d565b600485600581111561215957634e487b7160e01b600052602160045260246000fd5b14156121b75761217262ffffff19821660026020612a0f565b60405160200161218491815260200190565b604051602081830303815290604052805190602001208680519060200120146121ae576000611cf0565b611cf08261264a565b505050949350505050565b81516000906020840161053564ffffffffff85168284612b4b565b600081816121f3815b62ffffff19841690612b8f565b5061220362ffffff198516612c69565b6001600160601b031661221f57612218612c78565b925061232c565b600061222c85600061233f565b9050600061223f62ffffff198716612c69565b6001600160601b031690506001600160401b03821661226957612260612c78565b9450505061232c565b600061227483612c80565b60ff16905060005b836001600160401b03168110156122f2578282106122a75761229c612c78565b96505050505061232c565b60006122c76122b68486614599565b600e5b62ffffff198c169190612cde565b90506122d281612d08565b6122dc90846144a7565b92505080806122ea90614638565b91505061227c565b5081811461230c57612302612c78565b955050505061232c565b612326600f5b60d81b6301000000600160d81b0389161790565b95505050505b5050919050565b62ffffff199081161490565b60008061235462ffffff198516846001612d51565b905060fc811161236f5761236781612d81565b9150506102cd565b8060fd14156123d55761239d6123986123898560016144a7565b62ffffff198716906002612ded565b612d81565b91506123a882612c80565b60ff166003146123d0576123ce6123c962ffffff1986168560036000612f30565b612f96565b505b612481565b8060fe141561242a576123fe6123986123ef8560016144a7565b62ffffff198716906004612ded565b915061240982612c80565b60ff166005146123d0576123ce6123c962ffffff1986168560056000612f30565b8060ff1415612481576124536123986124448560016144a7565b62ffffff198716906008612ded565b915061245e82612c80565b60ff166009146124815761247f6123c962ffffff1986168560096000612f30565b505b5092915050565b600082600f612496816121e6565b5060006124a486600061233f565b6001600160401b0316905060006124c062ffffff198816612c69565b6001600160601b0316905081861061250e5760405162461bcd60e51b81526020600482015260116024820152702b37baba103932b0b21037bb32b9393ab760791b604482015260640161036b565b600061251983612c80565b60ff1690506000805b88811015612571576125486125378486614599565b600e5b62ffffff198d169190612cde565b915061255382612d08565b61255d90846144a7565b925061256a6001826144a7565b9050612522565b5061257f6122b68385614599565b9050600061258c82612d08565b90506125a58382600d5b62ffffff198e16929190612f30565b9a9950505050505050505050565b600081600d6125c1816121e6565b5060006125cf85600861233f565b90506105356125dd82612c80565b6125e89060086144ea565b62ffffff1987169060ff166001600160401b0384166007612f30565b606060008061261284612c69565b60405193508392506001600160601b03169050612639846126348460206144a7565b61301e565b508181016020016040529052919050565b600081600d612658816121e6565b50611cf661239862ffffff19861660006008612ded565b6000818161267c816121e6565b5061268c62ffffff198516612c69565b6001600160601b03166126a157612218612c78565b60006126ae85600061233f565b905060006126c162ffffff198716612c69565b6001600160601b031690506001600160401b0382166126e257612260612c78565b60006126ed83612c80565b60ff16905060005b836001600160401b0316811015612756578282106127155761229c612c78565b600061272b6127248486614599565b60056122b9565b905061273681613161565b61274090846144a7565b925050808061274e90614638565b9150506126f5565b5081811461276657612302612c78565b6123266006612312565b600082600661277e816121e6565b50600061278c86600061233f565b6001600160401b0316905060006127a862ffffff198816612c69565b6001600160601b031690508186106127f55760405162461bcd60e51b815260206004820152601060248201526f2b34b7103932b0b21037bb32b9393ab760811b604482015260640161036b565b600061280083612c80565b60ff1690506000805b8881101561284e5761282561281e8486614599565b600561253a565b915061283082613161565b61283a90846144a7565b92506128476001826144a7565b9050612809565b5061285c6127248385614599565b9050600061286982613161565b90506125a583826004612596565b6000816004612885816121e6565b50611cf662ffffff198516600060246003612f30565b60008160036128a9816121e6565b50611cf662ffffff19851660006020612a0f565b60008160036128cb816121e6565b50611cf66128e262ffffff19861660206004612ded565b6131b5565b6060824710156129485760405162461bcd60e51b815260206004820152602660248201527f416464726573733a20696e73756666696369656e742062616c616e636520666f6044820152651c8818d85b1b60d21b606482015260840161036b565b843b6129965760405162461bcd60e51b815260206004820152601d60248201527f416464726573733a2063616c6c20746f206e6f6e2d636f6e7472616374000000604482015260640161036b565b600080866001600160a01b031685876040516129b291906141c4565b60006040518083038185875af1925050503d80600081146129ef576040519150601f19603f3d011682016040523d82523d6000602084013e6129f4565b606091505b5091509150612a0482828661321a565b979650505050505050565b600060ff8216612a2157506000610d1d565b612a2a84612c69565b6001600160601b0316612a4060ff8416856144a7565b1115612a9057612a77612a5285613253565b6001600160601b0316612a6486612c69565b6001600160601b0316858560ff16613262565b60405162461bcd60e51b815260040161036b919061423f565b60208260ff161115612b075760405162461bcd60e51b815260206004820152603a60248201527f54797065644d656d566965772f696e646578202d20417474656d7074656420746044820152796f20696e646578206d6f7265207468616e20333220627974657360301b606482015260840161036b565b600882026000612b1686613253565b6001600160601b031690506000600160ff1b60001984011d91909501511695945050505050565b6000610d1d83836014612d51565b600080612b5883856144a7565b9050604051811115612b68575060005b80612b7a5762ffffff19915050610d1d565b5050606092831b9190911790911b1760181b90565b6000612b9b838361338c565b612c62576000612bba612bae8560d81c90565b64ffffffffff166133af565b9150506000612bcf8464ffffffffff166133af565b6040517f5479706520617373657274696f6e206661696c65642e20476f7420307800000060208201526001600160b01b031960b086811b8216603d8401526c05c408af0e0cac6e8cac84060f609b1b604784015283901b16605482015290925060009150605e015b60405160208183030381529060405290508060405162461bcd60e51b815260040161036b919061423f565b5090919050565b60181c6001600160601b031690565b62ffffff1990565b600060fc826001600160401b031611612c9b57506001919050565b61ffff826001600160401b031611612cb557506003919050565b63ffffffff826001600160401b031611612cd157506005919050565b506009919050565b919050565b6000611cf68484612cee87612c69565b6001600160601b0316612d019190614599565b8585612f30565b600081600e612d16816121e6565b506000612d2485600861233f565b9050806001600160401b0316612d3982612c80565b60ff16612d4691906144a7565b6105359060086144a7565b6000612d5e8260206145b0565b612d69906008614570565b60ff16612d77858585612a0f565b901c949350505050565b60006001600160401b03821115612de95760405162461bcd60e51b815260206004820152602660248201527f53616665436173743a2076616c756520646f65736e27742066697420696e203660448201526534206269747360d01b606482015260840161036b565b5090565b6000611cf6612dfd858585612a0f565b60008190506008817eff00ff00ff00ff00ff00ff00ff00ff00ff00ff00ff00ff00ff00ff00ff00ff16901b600882901c7eff00ff00ff00ff00ff00ff00ff00ff00ff00ff00ff00ff00ff00ff00ff00ff161790506010817dffff0000ffff0000ffff0000ffff0000ffff0000ffff0000ffff0000ffff16901b601082901c7dffff0000ffff0000ffff0000ffff0000ffff0000ffff0000ffff0000ffff161790506020817bffffffff00000000ffffffff00000000ffffffff00000000ffffffff16901b602082901c7bffffffff00000000ffffffff00000000ffffffff00000000ffffffff161790506040816001600160401b03600160801b03600160c01b0316901b604082901c6001600160401b03600160801b03600160c01b0316179050608081901b608082901c179050919050565b600080612f3c86613253565b6001600160601b03169050612f508661345b565b84612f5b87846144a7565b612f6591906144a7565b1115612f785762ffffff19915050611cf6565b612f8285826144a7565b9050611d668364ffffffffff168286612b4b565b60606000612fd4612fcf82612fc1612fb362ffffff198816612c69565b6001600160601b0316613488565b62ffffff1987169190612d51565b6133af565b6040517a09cdedc5adad2dcd2dac2d840ecc2e440d2dce85c408edee84060f602b1b60208201526001600160701b0319607083901b16603b82015290925060009150604d01612c37565b6000613029836134e9565b6130865760405162461bcd60e51b815260206004820152602860248201527f54797065644d656d566965772f636f7079546f202d204e756c6c20706f696e7460448201526732b9103232b932b360c11b606482015260840161036b565b61308f836134fb565b6130ef5760405162461bcd60e51b815260206004820152602b60248201527f54797065644d656d566965772f636f7079546f202d20496e76616c696420706f60448201526a34b73a32b9103232b932b360a91b606482015260840161036b565b60006130fa84612c69565b6001600160601b03169050600061311085613253565b6001600160601b0316905060006040519050848111156131305760206060fd5b8285848460045afa50611d666131468760d81c90565b64ffffffffff60601b606091821b168717901b841760181b90565b600081600561316f816121e6565b50600061317d85602461233f565b9050806001600160401b031661319282612c80565b60ff1661319f91906144a7565b6131aa9060246144a7565b6105359060046144a7565b600063ffffffff821115612de95760405162461bcd60e51b815260206004820152602660248201527f53616665436173743a2076616c756520646f65736e27742066697420696e203360448201526532206269747360d01b606482015260840161036b565b60608315613229575081610d1d565b8251156132395782518084602001fd5b8160405162461bcd60e51b815260040161036b919061423f565b60781c6001600160601b031690565b6060600061326f866133af565b915050600061327d866133af565b915050600061328b866133af565b9150506000613299866133af565b604080517f54797065644d656d566965772f696e646578202d204f76657272616e20746865602082015274040ecd2caee5c40a6d8d2c6ca40d2e640c2e84060f605b1b818301526001600160d01b031960d098891b811660558301526e040eed2e8d040d8cadccee8d04060f608b1b605b830181905297891b8116606a8301527f2e20417474656d7074656420746f20696e646578206174206f666673657420306070830152600f60fb1b609083015295881b861660918201526097810196909652951b90921660a68401525050601760f91b60ac8201528151808203608d01815260ad90910190915295945050505050565b60008164ffffffffff166133a08460d81c90565b64ffffffffff16149392505050565b600080601f5b600f8160ff16111561340d5760006133ce826008614570565b60ff1685901c90506133df81613539565b61ffff16841793508160ff166010146133fa57601084901b93505b506134066001826145b0565b90506133b5565b50600f5b60ff8160ff1610156134555760ff600882021684901c61343081613539565b61ffff16831792508160ff1660001461344b57601083901b92505b5060001901613411565b50915091565b600061346682612c69565b61346f83613253565b613479919061450f565b6001600160601b031692915050565b600060ff821115612de95760405162461bcd60e51b815260206004820152602560248201527f53616665436173743a2076616c756520646f65736e27742066697420696e2038604482015264206269747360d81b606482015260840161036b565b60006134f482612333565b1592915050565b60006135078260d81c90565b64ffffffffff1664ffffffffff141561352257506000919050565b600061352d8361345b565b60405110199392505050565b600061354b60048360ff16901c61356b565b60ff1661ffff919091161760081b6135628261356b565b60ff1617919050565b600060f08083179060ff821614156135865750603092915050565b8060ff1660f1141561359b5750603192915050565b8060ff1660f214156135b05750603292915050565b8060ff1660f314156135c55750603392915050565b8060ff1660f414156135da5750603492915050565b8060ff1660f514156135ef5750603592915050565b8060ff1660f614156136045750603692915050565b8060ff1660f714156136195750603792915050565b8060ff1660f8141561362e5750603892915050565b8060ff1660f914156136435750603992915050565b8060ff1660fa14156136585750606192915050565b8060ff1660fb141561366d5750606292915050565b8060ff1660fc14156136825750606392915050565b8060ff1660fd14156136975750606492915050565b8060ff1660fe14156136ac5750606592915050565b8060ff1660ff14156136c15750606692915050565b50919050565b8280546136d390614603565b90600052602060002090601f0160209004810192826136f5576000855561373b565b82601f1061370e57805160ff191683800117855561373b565b8280016001018555821561373b579182015b8281111561373b578251825591602001919060010190613720565b50612de99291505b80821115612de95760008155600101613743565b8035612cd98161467f565b600082601f830112613772578081fd5b8135602061378761378283614484565b614454565b80838252828201915082860187848660051b89010111156137a6578586fd5b855b858110156137cb576137b9826138c6565b845292840192908401906001016137a8565b5090979650505050505050565b600082601f8301126137e8578081fd5b604051606081016001600160401b03808211838310171561380b5761380b614669565b816040528291508486606087011115613822578485fd5b845b600381101561385d5781358381111561383b578687fd5b61384789828a016138de565b8552506020938401939190910190600101613824565b50929695505050505050565b600082601f830112613879578081fd5b8135602061388961378283614484565b80838252828201915082860187848660051b89010111156138a8578586fd5b855b858110156137cb578135845292840192908401906001016138aa565b80356001600160e01b031981168114612cd957600080fd5b600082601f8301126138ee578081fd5b81356001600160401b0381111561390757613907614669565b61391a601f8201601f1916602001614454565b81815284602083860101111561392e578283fd5b816020850160208301379081016020019190915292915050565b803560068110612cd957600080fd5b600060208284031215613968578081fd5b8135610d1d8161467f565b600060208284031215613984578081fd5b8151610d1d8161467f565b600080600080600080600060e0888a0312156139a9578283fd5b87356139b48161467f565b96506020888101356139c58161467f565b965060408901356139d58161467f565b955060608901356001600160401b03808211156139f0578586fd5b6139fc8c838d01613869565b965060808b01359150613a0e82614697565b90945060a08a01359080821115613a23578485fd5b508901601f81018b13613a34578384fd5b8035613a4261378282614484565b8082825284820191508484018e868560051b8701011115613a61578788fd5b8794505b83851015613a8c578035613a788161467f565b835260019490940193918501918501613a65565b50809650505050505060c0880135905092959891949750929550565b600080600080600060a08688031215613abf578283fd5b8535613aca8161467f565b9450602086013593506040860135925060608601356001600160401b03811115613af2578182fd5b613afe888289016138de565b95989497509295608001359392505050565b6000806000806000806000806000806000806101808d8f031215613b32578586fd5b613b3b8d613757565b9b506001600160401b0360208e01351115613b54578586fd5b613b648e60208f01358f016138de565b9a506001600160401b0360408e01351115613b7d578586fd5b613b8d8e60408f01358f01613762565b99506001600160401b0360608e01351115613ba6578586fd5b613bb68e60608f01358f016137d8565b985060808d0135975060a08d01359650613bd260c08e01613757565b955060e08d013594506101008d013593506001600160401b036101208e01351115613bfb578283fd5b613c0c8e6101208f01358f01613762565b92506001600160401b036101408e01351115613c26578081fd5b613c378e6101408f01358f016138de565b91506001600160401b036101608e01351115613c51578081fd5b613c628e6101608f01358f01613869565b90509295989b509295989b509295989b565b600080600080600060a08688031215613c8b578283fd5b8535613c968161467f565b945060208601356001600160401b0380821115613cb1578485fd5b613cbd89838a016138de565b95506040880135915080821115613cd2578485fd5b50613cdf888289016138de565b9598949750949560608101359550608001359392505050565b60008060408385031215613d0a578182fd5b8235613d158161467f565b946020939093013593505050565b600060208284031215613d34578081fd5b8151610d1d81614697565b60008060408385031215613d51578182fd5b8251613d5c81614697565b602084810151919350906001600160401b03811115613d79578283fd5b8401601f81018613613d89578283fd5b8051613d9761378282614484565b80828252848201915084840189868560051b8701011115613db6578687fd5b8694505b83851015613dd8578051835260019490940193918501918501613dba565b5080955050505050509250929050565b600060208284031215613df9578081fd5b5051919050565b600080600080600060808688031215613e17578283fd5b85356001600160401b0380821115613e2d578485fd5b613e3989838a016138de565b9650613e4760208901613948565b955060408801359150613e598261467f565b90935060608701359080821115613e6e578283fd5b818801915088601f830112613e81578283fd5b813581811115613e8f578384fd5b896020828501011115613ea0578384fd5b9699959850939650602001949392505050565b60008060008060008060c08789031215613ecb578384fd5b863595506020870135613edd8161467f565b95989597505050506040840135936060810135936080820135935060a0909101359150565b6000806000806000806000806000806101408b8d031215613f21578384fd5b8a35995060208b0135985060408b0135975060608b0135965060808b01356001600160401b03811115613f52578485fd5b613f5e8d828e016138de565b965050613f6d60a08c01613948565b945060c08b0135935060e08b0135613f848161467f565b92506101008b013591506101208b0135613f9d8161467f565b809150509295989b9194979a5092959850565b60008060008060008060c08789031215613fc8578384fd5b86359550602087013594506040870135613fe18161467f565b935060608701356001600160401b0380821115613ffc578384fd5b6140088a838b016138de565b9450608089013591508082111561401d578384fd5b6140298a838b01613869565b935060a089013591508082111561403e578283fd5b5061404b89828a01613869565b9150509295509295509295565b600080600080600060a0868803121561406f578283fd5b853594506020860135935060408601356001600160401b0380821115614093578485fd5b61409f89838a016138de565b945060608801359150808211156140b4578283fd5b50613afe888289016138de565b600080600080600080600060e0888a0312156140db578081fd5b87359650602088013595506140f2604089016138c6565b945060608801356141028161467f565b935060808801356001600160401b0381111561411c578182fd5b6141288a828b016138de565b93505060a0880135915060c0880135905092959891949750929550565b6000815180845261415d8160208601602086016145d3565b601f01601f19169290920160200192915050565b600063ffffffff60e01b80871683528551614193816004860160208a016145d3565b8551908401906141aa816004840160208a016145d3565b919094169301600481019390935250506008019392505050565b600082516141d68184602087016145d3565b9190910192915050565b8481528360208201526080604082015260006141ff6080830185614145565b905082606083015295945050505050565b60208152816020820152818360408301376000818301604090810191909152601f909201601f19160101919050565b602081526000610d1d6020830184614145565b6020808252601f908201527f4275726e526f757465724c6f6769633a20696e76616c69642073637269707400604082015260600190565b6020808252601b908201527a109a5d18dbda5b92195b1c195c8e881d9bdd5d081a5cc81b9d5b1b602a1b604082015260600190565b6020808252601b908201527a213ab9372937baba32b92637b3b4b19d103737ba103637b1b5b2b960291b604082015260600190565b60208082526024908201527f4275726e526f757465724c6f6769633a20646561646c696e65206e6f742070616040820152631cdcd95960e21b606082015260800190565b6020808252601c908201527b109d5c9b949bdd5d195c931bd9da58ce881bdb19081c995c5d595cdd60221b604082015260600190565b6020808252601a9082015279109a5d18dbda5b92195b1c195c8e881d9a5b881a5cc81b9d5b1b60321b604082015260600190565b6020808252601d908201527f4275726e526f757465724c6f6769633a20696e76616c69642070617468000000604082015260600190565b600060c082018883526020888185015260c0604085015281885180845260e086019150828a019350845b818110156144275784516001600160a01b031683529383019391830191600101614402565b50506001600160a01b039790971660608501525050506080810192909252151560a0909101529392505050565b604051601f8201601f191681016001600160401b038111828210171561447c5761447c614669565b604052919050565b60006001600160401b0382111561449d5761449d614669565b5060051b60200190565b600082198211156144ba576144ba614653565b500190565b60006001600160401b038281168482168083038211156144e1576144e1614653565b01949350505050565b600060ff821660ff84168060ff0382111561450757614507614653565b019392505050565b60006001600160601b038281168482168083038211156144e1576144e1614653565b60008261454c57634e487b7160e01b81526012600452602481fd5b500490565b600081600019048311821515161561456b5761456b614653565b500290565b600060ff821660ff84168160ff048111821515161561459157614591614653565b029392505050565b6000828210156145ab576145ab614653565b500390565b600060ff821660ff8416808210156145ca576145ca614653565b90039392505050565b60005b838110156145ee5781810151838201526020016145d6565b838111156145fd576000848401525b50505050565b600181811c9082168061461757607f821691505b602082108114156136c157634e487b7160e01b600052602260045260246000fd5b600060001982141561464c5761464c614653565b5060010190565b634e487b7160e01b600052601160045260246000fd5b634e487b7160e01b600052604160045260246000fd5b6001600160a01b038116811461469457600080fd5b50565b801515811461469457600080fdfe416464726573733a206c6f772d6c6576656c2063616c6c20776974682076616c7565206661696c6564a264697066735822122035704466d9ead063bbb45873118a825dd71cf4817ee900548c4168fdea3a467e64736f6c63430008040033",
  "devdoc": {
    "kind": "dev",
    "methods": {
      "checkPaidBurnRequests(mapping(address => IBurnRouter.burnRequest[]) storage,uint256,address,bytes,uint256[],uint256[])": {
        "params": {
          "_burnReqIndexes": "Indexes of requests that locker provides proof for them",
          "_burnRequests": "Array of burn requests for the locker",
          "_lockerTargetAddress": "Address of the locker on the target chain",
          "_paidBlockNumber": "Block number in which locker paid the burn request",
          "_vout": "Outputs of a transaction",
          "_voutIndexes": "Indexes of outputs that were used to pay burn requests"
        },
        "returns": {
          "paidOutputCounter": "Number of executed burn requests"
        }
      },
      "exchange(address,address,address,uint256[],bool,address[],uint256)": {
        "details": "Moved from BurnRouterLogic to reduce contract size"
      },
      "isConfirmed(address,bytes32,uint256,bytes,uint256)": {
        "details": "Calls the relay contract to check Merkle inclusion proof",
        "params": {
          "_blockNumber": "Height of the block containing the transaction",
          "_index": "Index of transaction in the block",
          "_intermediateNodes": "Merkle inclusion proof for the transaction",
          "_relay": "Address of Relay contract",
          "_txId": "of the transaction"
        },
        "returns": {
          "_0": "True if the transaction was included in the block"
        }
      },
      "prepareSlashLockerForDispute(address,bytes,bytes,uint256,uint256)": {
        "params": {
          "_MAX_PERCENTAGE_FEE": "Maximum percentage fee",
          "_inputVout": "Inputs of the malicious transaction",
          "_lockerLockingScript": "Malicious locker's locking script",
          "_slasherPercentageReward": "Percentage of reward for slasher",
          "lockers": "Address of lockers contract"
        },
        "returns": {
          "_lockerTargetAddress": "Address of the locker to slash",
          "slasherReward": "Reward amount for the slasher",
          "totalValue": "Total value to slash"
        }
      },
      "saveBurnRequest(mapping(address => IBurnRouter.burnRequest[]) storage,mapping(address => uint256) storage,uint256,uint256,bytes,ScriptTypes,uint256,address,uint256,address)": {
        "params": {
          "_amount": "Amount of wrapped token that user wants to burn",
          "_burnRequestCounter": "Counter of burn requests for the locker",
          "_burnRequests": "Array of burn requests for the locker",
          "_burntAmount": "Amount of wrapped token that actually gets burnt after deducting fees from the original value (_amount)",
          "_lastSubmittedHeight": "Last block header height submitted on the relay contract",
          "_lockerTargetAddress": "Locker's target chain address that the request belongs to",
          "_scriptType": "User's Bitcoin script type",
          "_sender": "Address of the sender",
          "_transferDeadline": "Deadline for the transfer",
          "_userScript": "User's Bitcoin script type"
        },
        "returns": {
          "requestId": "The ID of the created burn request"
        }
      },
      "updateIsUsedAsBurnProof(mapping(bytes32 => bool) storage,uint256,bytes,bytes,bytes32)": {
        "details": "One output might return the remaining value to the locker",
        "params": {
          "_lockerLockingScript": "Locking script of locker",
          "_paidOutputCounter": "Number of the tx outputs that pay a cc burn request",
          "_txId": "Transaction id",
          "_vout": "Outputs of a transaction"
        }
      }
    },
    "version": 1
  },
  "userdoc": {
    "kind": "user",
    "methods": {
      "checkPaidBurnRequests(mapping(address => IBurnRouter.burnRequest[]) storage,uint256,address,bytes,uint256[],uint256[])": {
        "notice": "Checks the burn requests that get paid by this transaction"
      },
      "checkScriptTypeAndLocker(bytes,ScriptTypes,address,bytes)": {
        "notice": "Checks the user hash script to be valid (based on its type)"
      },
      "exchange(address,address,address,uint256[],bool,address[],uint256)": {
        "notice": "Exchanges input token for teleBTC"
      },
      "isConfirmed(address,bytes32,uint256,bytes,uint256)": {
        "notice": "Checks inclusion of the transaction in the specified block"
      },
      "prepareSlashLockerForDispute(address,bytes,bytes,uint256,uint256)": {
        "notice": "Prepares data for slashing the malicious locker"
      },
      "saveBurnRequest(mapping(address => IBurnRouter.burnRequest[]) storage,mapping(address => uint256) storage,uint256,uint256,bytes,ScriptTypes,uint256,address,uint256,address)": {
        "notice": "Records burn request of user"
      },
      "updateIsUsedAsBurnProof(mapping(bytes32 => bool) storage,uint256,bytes,bytes,bytes32)": {
        "notice": "Checks if all outputs of the transaction used to pay a cc burn request"
      }
    },
    "version": 1
  },
  "storageLayout": {
    "storage": [],
    "types": null
  }
}