{
  "address": "0xf15E0a712Ee9B0E0E96e3e030B458eE0eA142961",
  "abi": [
    {
      "inputs": [],
      "name": "ZeroAddress",
      "type": "error"
    },
    {
      "anonymous": false,
      "inputs": [
        {
          "indexed": false,
          "internalType": "uint8",
          "name": "version",
          "type": "uint8"
        }
      ],
      "name": "Initialized",
      "type": "event"
    },
    {
      "anonymous": false,
      "inputs": [
        {
          "indexed": false,
          "internalType": "address",
          "name": "oldLockers",
          "type": "address"
        },
        {
          "indexed": false,
          "internalType": "address",
          "name": "newLockers",
          "type": "address"
        }
      ],
      "name": "NewLockers",
      "type": "event"
    },
    {
      "anonymous": false,
      "inputs": [
        {
          "indexed": false,
          "internalType": "uint256",
          "name": "oldProtocolPercentageFee",
          "type": "uint256"
        },
        {
          "indexed": false,
          "internalType": "uint256",
          "name": "newProtocolPercentageFee",
          "type": "uint256"
        }
      ],
      "name": "NewProtocolPercentageFee",
      "type": "event"
    },
    {
      "anonymous": false,
      "inputs": [
        {
          "indexed": false,
          "internalType": "address",
          "name": "oldRelay",
          "type": "address"
        },
        {
          "indexed": false,
          "internalType": "address",
          "name": "newRelay",
          "type": "address"
        }
      ],
      "name": "NewRelay",
      "type": "event"
    },
    {
      "anonymous": false,
      "inputs": [
        {
          "indexed": false,
          "internalType": "address",
          "name": "oldTeleBTC",
          "type": "address"
        },
        {
          "indexed": false,
          "internalType": "address",
          "name": "newTeleBTC",
          "type": "address"
        }
      ],
      "name": "NewTeleBTC",
      "type": "event"
    },
    {
      "anonymous": false,
      "inputs": [
        {
          "indexed": false,
          "internalType": "uint256",
          "name": "thirdPartyId",
          "type": "uint256"
        },
        {
          "indexed": false,
          "internalType": "address",
          "name": "oldThirdPartyAddress",
          "type": "address"
        },
        {
          "indexed": false,
          "internalType": "address",
          "name": "newThirdPartyAddress",
          "type": "address"
        }
      ],
      "name": "NewThirdPartyAddress",
      "type": "event"
    },
    {
      "anonymous": false,
      "inputs": [
        {
          "indexed": false,
          "internalType": "uint256",
          "name": "thirdPartyId",
          "type": "uint256"
        },
        {
          "indexed": false,
          "internalType": "uint256",
          "name": "oldThirdPartyFee",
          "type": "uint256"
        },
        {
          "indexed": false,
          "internalType": "uint256",
          "name": "newThirdPartyFee",
          "type": "uint256"
        }
      ],
      "name": "NewThirdPartyFee",
      "type": "event"
    },
    {
      "anonymous": false,
      "inputs": [
        {
          "indexed": false,
          "internalType": "address",
          "name": "oldTreasury",
          "type": "address"
        },
        {
          "indexed": false,
          "internalType": "address",
          "name": "newTreasury",
          "type": "address"
        }
      ],
      "name": "NewTreasury",
      "type": "event"
    },
    {
      "anonymous": false,
      "inputs": [
        {
          "indexed": false,
          "internalType": "bytes32",
          "name": "bitcoinTxId",
          "type": "bytes32"
        },
        {
          "indexed": true,
          "internalType": "bytes",
          "name": "lockerLockingScript",
          "type": "bytes"
        },
        {
          "indexed": false,
          "internalType": "address",
          "name": "lockerTargetAddress",
          "type": "address"
        },
        {
          "indexed": true,
          "internalType": "address",
          "name": "user",
          "type": "address"
        },
        {
          "indexed": false,
          "internalType": "address",
          "name": "teleporter",
          "type": "address"
        },
        {
          "indexed": false,
          "internalType": "uint256[2]",
          "name": "amounts",
          "type": "uint256[2]"
        },
        {
          "indexed": false,
          "internalType": "uint256[4]",
          "name": "fees",
          "type": "uint256[4]"
        },
        {
          "indexed": false,
          "internalType": "uint256",
          "name": "thirdPartyId",
          "type": "uint256"
        },
        {
          "indexed": false,
          "internalType": "uint256",
          "name": "destinationChainId",
          "type": "uint256"
        }
      ],
      "name": "NewWrap",
      "type": "event"
    },
    {
      "anonymous": false,
      "inputs": [
        {
          "indexed": true,
          "internalType": "address",
          "name": "previousOwner",
          "type": "address"
        },
        {
          "indexed": true,
          "internalType": "address",
          "name": "newOwner",
          "type": "address"
        }
      ],
      "name": "OwnershipTransferred",
      "type": "event"
    },
    {
      "inputs": [],
      "name": "appId",
      "outputs": [
        {
          "internalType": "uint256",
          "name": "",
          "type": "uint256"
        }
      ],
      "stateMutability": "view",
      "type": "function"
    },
    {
      "inputs": [
        {
          "internalType": "bytes32",
          "name": "",
          "type": "bytes32"
        }
      ],
      "name": "ccTransferRequests",
      "outputs": [
        {
          "internalType": "uint256",
          "name": "inputAmount",
          "type": "uint256"
        },
        {
          "internalType": "address",
          "name": "recipientAddress",
          "type": "address"
        },
        {
          "internalType": "uint256",
          "name": "fee",
          "type": "uint256"
        },
        {
          "internalType": "uint256",
          "name": "speed",
          "type": "uint256"
        },
        {
          "internalType": "bool",
          "name": "isUsed",
          "type": "bool"
        }
      ],
      "stateMutability": "view",
      "type": "function"
    },
    {
      "inputs": [],
      "name": "chainId",
      "outputs": [
        {
          "internalType": "uint256",
          "name": "",
          "type": "uint256"
        }
      ],
      "stateMutability": "view",
      "type": "function"
    },
    {
      "inputs": [
        {
          "internalType": "uint256",
          "name": "_startingBlockNumber",
          "type": "uint256"
        },
        {
          "internalType": "uint256",
          "name": "_protocolPercentageFee",
          "type": "uint256"
        },
        {
          "internalType": "uint256",
          "name": "_lockerPercentageFee",
          "type": "uint256"
        },
        {
          "internalType": "uint256",
          "name": "_chainId",
          "type": "uint256"
        },
        {
          "internalType": "uint256",
          "name": "_appId",
          "type": "uint256"
        },
        {
          "internalType": "address",
          "name": "_relay",
          "type": "address"
        },
        {
          "internalType": "address",
          "name": "_lockers",
          "type": "address"
        },
        {
          "internalType": "address",
          "name": "_teleBTC",
          "type": "address"
        },
        {
          "internalType": "address",
          "name": "_treasury",
          "type": "address"
        }
      ],
      "name": "initialize",
      "outputs": [],
      "stateMutability": "nonpayable",
      "type": "function"
    },
    {
      "inputs": [
        {
          "internalType": "bytes32",
          "name": "_txId",
          "type": "bytes32"
        }
      ],
      "name": "isRequestUsed",
      "outputs": [
        {
          "internalType": "bool",
          "name": "",
          "type": "bool"
        }
      ],
      "stateMutability": "view",
      "type": "function"
    },
    {
      "inputs": [
        {
          "internalType": "address",
          "name": "",
          "type": "address"
        }
      ],
      "name": "isTeleporter",
      "outputs": [
        {
          "internalType": "bool",
          "name": "",
          "type": "bool"
        }
      ],
      "stateMutability": "view",
      "type": "function"
    },
    {
      "inputs": [],
      "name": "lockerPercentageFee",
      "outputs": [
        {
          "internalType": "uint256",
          "name": "",
          "type": "uint256"
        }
      ],
      "stateMutability": "view",
      "type": "function"
    },
    {
      "inputs": [],
      "name": "lockers",
      "outputs": [
        {
          "internalType": "address",
          "name": "",
          "type": "address"
        }
      ],
      "stateMutability": "view",
      "type": "function"
    },
    {
      "inputs": [],
      "name": "owner",
      "outputs": [
        {
          "internalType": "address",
          "name": "",
          "type": "address"
        }
      ],
      "stateMutability": "view",
      "type": "function"
    },
    {
      "inputs": [],
      "name": "protocolPercentageFee",
      "outputs": [
        {
          "internalType": "uint256",
          "name": "",
          "type": "uint256"
        }
      ],
      "stateMutability": "view",
      "type": "function"
    },
    {
      "inputs": [],
      "name": "relay",
      "outputs": [
        {
          "internalType": "address",
          "name": "",
          "type": "address"
        }
      ],
      "stateMutability": "view",
      "type": "function"
    },
    {
      "inputs": [],
      "name": "renounceOwnership",
      "outputs": [],
      "stateMutability": "nonpayable",
      "type": "function"
    },
    {
      "inputs": [],
      "name": "rewardDistributor",
      "outputs": [
        {
          "internalType": "address",
          "name": "",
          "type": "address"
        }
      ],
      "stateMutability": "view",
      "type": "function"
    },
    {
      "inputs": [
        {
          "internalType": "uint256",
          "name": "_lockerPercentageFee",
          "type": "uint256"
        }
      ],
      "name": "setLockerPercentageFee",
      "outputs": [],
      "stateMutability": "nonpayable",
      "type": "function"
    },
    {
      "inputs": [
        {
          "internalType": "address",
          "name": "_lockers",
          "type": "address"
        }
      ],
      "name": "setLockers",
      "outputs": [],
      "stateMutability": "nonpayable",
      "type": "function"
    },
    {
      "inputs": [
        {
          "internalType": "uint256",
          "name": "_protocolPercentageFee",
          "type": "uint256"
        }
      ],
      "name": "setProtocolPercentageFee",
      "outputs": [],
      "stateMutability": "nonpayable",
      "type": "function"
    },
    {
      "inputs": [
        {
          "internalType": "address",
          "name": "_relay",
          "type": "address"
        }
      ],
      "name": "setRelay",
      "outputs": [],
      "stateMutability": "nonpayable",
      "type": "function"
    },
    {
      "inputs": [
        {
          "internalType": "address",
          "name": "_rewardDistributor",
          "type": "address"
        }
      ],
      "name": "setRewardDistributor",
      "outputs": [],
      "stateMutability": "nonpayable",
      "type": "function"
    },
    {
      "inputs": [
        {
          "internalType": "uint256",
          "name": "_startingBlockNumber",
          "type": "uint256"
        }
      ],
      "name": "setStartingBlockNumber",
      "outputs": [],
      "stateMutability": "nonpayable",
      "type": "function"
    },
    {
      "inputs": [
        {
          "internalType": "address",
          "name": "_teleBTC",
          "type": "address"
        }
      ],
      "name": "setTeleBTC",
      "outputs": [],
      "stateMutability": "nonpayable",
      "type": "function"
    },
    {
      "inputs": [
        {
          "internalType": "address",
          "name": "_teleporter",
          "type": "address"
        },
        {
          "internalType": "bool",
          "name": "_isTeleporter",
          "type": "bool"
        }
      ],
      "name": "setTeleporter",
      "outputs": [],
      "stateMutability": "nonpayable",
      "type": "function"
    },
    {
      "inputs": [
        {
          "internalType": "uint256",
          "name": "_thirdPartyId",
          "type": "uint256"
        },
        {
          "internalType": "address",
          "name": "_thirdPartyAddress",
          "type": "address"
        }
      ],
      "name": "setThirdPartyAddress",
      "outputs": [],
      "stateMutability": "nonpayable",
      "type": "function"
    },
    {
      "inputs": [
        {
          "internalType": "uint256",
          "name": "_thirdPartyId",
          "type": "uint256"
        },
        {
          "internalType": "uint256",
          "name": "_thirdPartyFee",
          "type": "uint256"
        }
      ],
      "name": "setThirdPartyFee",
      "outputs": [],
      "stateMutability": "nonpayable",
      "type": "function"
    },
    {
      "inputs": [
        {
          "internalType": "address",
          "name": "_treasury",
          "type": "address"
        }
      ],
      "name": "setTreasury",
      "outputs": [],
      "stateMutability": "nonpayable",
      "type": "function"
    },
    {
      "inputs": [],
      "name": "specialTeleporter",
      "outputs": [
        {
          "internalType": "address",
          "name": "",
          "type": "address"
        }
      ],
      "stateMutability": "view",
      "type": "function"
    },
    {
      "inputs": [],
      "name": "startingBlockNumber",
      "outputs": [
        {
          "internalType": "uint256",
          "name": "",
          "type": "uint256"
        }
      ],
      "stateMutability": "view",
      "type": "function"
    },
    {
      "inputs": [],
      "name": "teleBTC",
      "outputs": [
        {
          "internalType": "address",
          "name": "",
          "type": "address"
        }
      ],
      "stateMutability": "view",
      "type": "function"
    },
    {
      "inputs": [
        {
          "internalType": "bytes32",
          "name": "",
          "type": "bytes32"
        }
      ],
      "name": "thirdParty",
      "outputs": [
        {
          "internalType": "uint256",
          "name": "",
          "type": "uint256"
        }
      ],
      "stateMutability": "view",
      "type": "function"
    },
    {
      "inputs": [
        {
          "internalType": "uint256",
          "name": "",
          "type": "uint256"
        }
      ],
      "name": "thirdPartyAddress",
      "outputs": [
        {
          "internalType": "address",
          "name": "",
          "type": "address"
        }
      ],
      "stateMutability": "view",
      "type": "function"
    },
    {
      "inputs": [
        {
          "internalType": "uint256",
          "name": "",
          "type": "uint256"
        }
      ],
      "name": "thirdPartyFee",
      "outputs": [
        {
          "internalType": "uint256",
          "name": "",
          "type": "uint256"
        }
      ],
      "stateMutability": "view",
      "type": "function"
    },
    {
      "inputs": [
        {
          "internalType": "address",
          "name": "newOwner",
          "type": "address"
        }
      ],
      "name": "transferOwnership",
      "outputs": [],
      "stateMutability": "nonpayable",
      "type": "function"
    },
    {
      "inputs": [],
      "name": "treasury",
      "outputs": [
        {
          "internalType": "address",
          "name": "",
          "type": "address"
        }
      ],
      "stateMutability": "view",
      "type": "function"
    },
    {
      "inputs": [
        {
          "components": [
            {
              "internalType": "bytes4",
              "name": "version",
              "type": "bytes4"
            },
            {
              "internalType": "bytes",
              "name": "vin",
              "type": "bytes"
            },
            {
              "internalType": "bytes",
              "name": "vout",
              "type": "bytes"
            },
            {
              "internalType": "bytes4",
              "name": "locktime",
              "type": "bytes4"
            },
            {
              "internalType": "uint256",
              "name": "blockNumber",
              "type": "uint256"
            },
            {
              "internalType": "bytes",
              "name": "intermediateNodes",
              "type": "bytes"
            },
            {
              "internalType": "uint256",
              "name": "index",
              "type": "uint256"
            }
          ],
          "internalType": "struct ICcTransferRouter.TxAndProof",
          "name": "_txAndProof",
          "type": "tuple"
        },
        {
          "internalType": "bytes",
          "name": "_lockerLockingScript",
          "type": "bytes"
        }
      ],
      "name": "wrap",
      "outputs": [
        {
          "internalType": "bool",
          "name": "",
          "type": "bool"
        }
      ],
      "stateMutability": "payable",
      "type": "function"
    },
    {
      "stateMutability": "payable",
      "type": "receive"
    }
  ],
  "transactionHash": "0xcd73b3c130c1249fa9b1d63da66b2e9cf789d52c87e37f8628d000796470d993",
  "args": [],
  "numDeployments": 1,
  "solcInputHash": "900adfee8623d7fbe984da1c7164e96f",
  "bytecode": "0x608060405234801561001057600080fd5b506143a7806100206000396000f3fe6080604052600436106101825760003560e01c806303c673591461018e578063136dfb63146101d35780631812adb6146101f55780631876dec4146102195780631e7107c71461025157806359fd0b0c1461027157806361d027b31461029e57806363908020146102be5780636600203d146102d457806370872aa5146102f4578063715018a61461030a578063765f02331461031f57806379023909146103a85780637ed55748146103c85780637f0f1817146103e857806380afdea81461040857806380bc47261461041e5780638d3d78cd1461043e5780638d5fc1d41461045e5780638da5cb5b1461047e5780638f9eb78b146104935780639a8a0592146104b3578063a1809b95146104c9578063a9b68271146104e9578063acc2166a1461051f578063b07acef21461053f578063b14d35321461055f578063b59589d11461057f578063b866d6ea1461059f578063c805f68b146105b2578063e9770e93146105d2578063f0f44260146105ff578063f2fde38b1461061f57600080fd5b3661018957005b600080fd5b34801561019a57600080fd5b506101be6101a9366004613c13565b60a66020526000908152604090205460ff1681565b60405190151581526020015b60405180910390f35b3480156101df57600080fd5b506101f36101ee366004613e23565b61063f565b005b34801561020157600080fd5b5061020b60035481565b6040519081526020016101ca565b34801561022557600080fd5b50600554610239906001600160a01b031681565b6040516001600160a01b0390911681526020016101ca565b34801561025d57600080fd5b506101f361026c366004613c9f565b6107af565b34801561027d57600080fd5b5061020b61028c366004613c9f565b60a16020526000908152604090205481565b3480156102aa57600080fd5b50600854610239906001600160a01b031681565b3480156102ca57600080fd5b5061020b60a45481565b3480156102e057600080fd5b506101f36102ef366004613c9f565b6107c3565b34801561030057600080fd5b5061020b60005481565b34801561031657600080fd5b506101f36107d4565b34801561032b57600080fd5b5061037661033a366004613c9f565b6009602052600090815260409020805460018201546002830154600384015460049094015492936001600160a01b039092169290919060ff1685565b604080519586526001600160a01b0390941660208601529284019190915260608301521515608082015260a0016101ca565b3480156103b457600080fd5b50600754610239906001600160a01b031681565b3480156103d457600080fd5b506101f36103e3366004613c9f565b6107de565b3480156103f457600080fd5b506101f3610403366004613c13565b6107ef565b34801561041457600080fd5b5061020b60025481565b34801561042a57600080fd5b506101be610439366004613c9f565b610800565b34801561044a57600080fd5b50600654610239906001600160a01b031681565b34801561046a57600080fd5b506101f3610479366004613dde565b610829565b34801561048a57600080fd5b5061023961083f565b34801561049f57600080fd5b506101f36104ae366004613e02565b61084e565b3480156104bf57600080fd5b5061020b60015481565b3480156104d557600080fd5b506101f36104e4366004613c13565b610860565b3480156104f557600080fd5b50610239610504366004613c9f565b60a2602052600090815260409020546001600160a01b031681565b34801561052b57600080fd5b5060a554610239906001600160a01b031681565b34801561054b57600080fd5b506101f361055a366004613c4b565b61088a565b34801561056b57600080fd5b506101f361057a366004613c13565b6108bd565b34801561058b57600080fd5b50600454610239906001600160a01b031681565b6101be6105ad366004613ccf565b6108ce565b3480156105be57600080fd5b506101f36105cd366004613c13565b610d2d565b3480156105de57600080fd5b5061020b6105ed366004613c9f565b60a36020526000908152604090205481565b34801561060b57600080fd5b506101f361061a366004613c13565b610d3e565b34801561062b57600080fd5b506101f361063a366004613c13565b610d4f565b600a54610100900460ff161580801561065f5750600a54600160ff909116105b806106795750303b1580156106795750600a5460ff166001145b6106e15760405162461bcd60e51b815260206004820152602e60248201527f496e697469616c697a61626c653a20636f6e747261637420697320616c72656160448201526d191e481a5b9a5d1a585b1a5e995960921b60648201526084015b60405180910390fd5b600a805460ff19166001179055801561070457600a805461ff0019166101001790555b61070c610dc5565b610714610df4565b600187905560028690556107278a610e23565b61073089610e8b565b61073988610f35565b61074285610fa1565b61074b84611033565b610754836110c5565b61075d82611157565b80156107a357600a805461ff0019169055604051600181527f7f26b83ff96e1f2b6a682f133852f6798a09c465da95921460cefb38474024989060200160405180910390a15b50505050505050505050565b6107b76111e9565b6107c081610e23565b50565b6107cb6111e9565b6107c081610f35565b6107dc6111e9565b565b6107e66111e9565b6107c081610e8b565b6107f76111e9565b6107c0816110c5565b60008181526009602052604081206004015460ff16610820576000610823565b60015b92915050565b6108316111e9565b61083b8282611248565b5050565b603d546001600160a01b031690565b6108566111e9565b61083b82826112e4565b6108686111e9565b60a580546001600160a01b0319166001600160a01b0392909216919091179055565b6108926111e9565b6001600160a01b0391909116600090815260a660205260409020805460ff1916911515919091179055565b6108c56111e9565b6107c081611033565b60006108d8611345565b33600090815260a6602052604090205460ff166109375760405162461bcd60e51b815260206004820181905260248201527f43435472616e73666572526f757465723a20696e76616c69642073656e64657260448201526064016106d8565b600054846080015110156109995760405162461bcd60e51b8152602060048201526024808201527f43435472616e73666572526f757465723a207265717565737420697320746f6f604482015263081bdb1960e21b60648201526084016106d8565b60006109b7856000015186602001518760400151886060015161139f565b60008181526009602052604090206004015490915060ff1615610a335760405162461bcd60e51b815260206004820152602e60248201527f43435472616e73666572526f757465723a20726571756573742068617320626560448201526d656e2075736564206265666f726560901b60648201526084016106d8565b60608501516001600160e01b03191615610aa05760405162461bcd60e51b815260206004820152602860248201527f43435472616e73666572526f757465723a206c6f636b2074696d65206973206e6044820152676f6e202d7a65726f60c01b60648201526084016106d8565b610ae484848080601f016020809104026020016040519081016040528093929190818152602001838380828437600092019190915250505050604087015183611507565b610afc8186608001518760a001518860c001516119df565b610b695760405162461bcd60e51b815260206004820152603860248201527f43435472616e73666572526f757465723a207472616e73616374696f6e2068616044820152771cc81b9bdd081899595b88199a5b985b1a5e9959081e595d60421b60648201526084016106d8565b6000806000806000610bb289898080601f0160208091040260200160405190810160405280939291908181526020018383808284376000920191909152508a9250611b5d915050565b60008b81526009602052604090819020600101549051959a50939850919650945092506001600160a01b031690610bec908b908b90613f30565b60405180910390207fdebe45dc811f213ee5572218ab9c9e7d78fac393b0ca5c50ea9edbe5c8bcb61788600560009054906101000a90046001600160a01b03166001600160a01b031663c4d10b6a8e8e6040518363ffffffff1660e01b8152600401610c5992919061407b565b60206040518083038186803b158015610c7157600080fd5b505afa158015610c85573d6000803e3d6000fd5b505050506040513d601f19601f82011682018060405250810190610ca99190613c2f565b60408051808201825260008d8152600960209081528382205483528083018e905283516080810185528c81528082018b90528085018e9052606081018c90528f835260a390915290839020546001549351610d0a9695943394939291613fbe565b60405180910390a360019650505050505050610d266001606f55565b9392505050565b610d356111e9565b6107c081610fa1565b610d466111e9565b6107c081611157565b610d576111e9565b6001600160a01b038116610dbc5760405162461bcd60e51b815260206004820152602660248201527f4f776e61626c653a206e6577206f776e657220697320746865207a65726f206160448201526564647265737360d01b60648201526084016106d8565b6107c081611c26565b600a54610100900460ff16610dec5760405162461bcd60e51b81526004016106d8906140eb565b6107dc611c78565b600a54610100900460ff16610e1b5760405162461bcd60e51b81526004016106d8906140eb565b6107dc611ca8565b6000548111610e865760405162461bcd60e51b815260206004820152602960248201527f43435472616e73666572526f757465723a206c6f77207374617274696e67426c60448201526837b1b5a73ab6b132b960b91b60648201526084016106d8565b600055565b806127101015610ef45760405162461bcd60e51b815260206004820152602e60248201527f43435472616e73666572526f757465723a2070726f746f636f6c20666565206960448201526d73206f7574206f662072616e676560901b60648201526084016106d8565b60035460408051918252602082018390527f7d205f60891f60851c61cd244ba387d72b6589e7c0ac41b9d909ab0ce2c2a53b910160405180910390a1600355565b806127101015610f9c5760405162461bcd60e51b815260206004820152602c60248201527f43435472616e73666572526f757465723a206c6f636b6572206665652069732060448201526b6f7574206f662072616e676560a01b60648201526084016106d8565b60a455565b806001600160a01b038116610fc95760405163d92e233d60e01b815260040160405180910390fd5b6004546040517f4c28a3f61a715259c4dc930c23e7423b8fa52e13232c061a6e488729c66184f491611008916001600160a01b03909116908590613f8b565b60405180910390a150600480546001600160a01b0319166001600160a01b0392909216919091179055565b806001600160a01b03811661105b5760405163d92e233d60e01b815260040160405180910390fd5b6005546040517ffa021c2ec0f46429a53e7f88b88065e40001f50c9d38b2e8b713beaf9828d4c39161109a916001600160a01b03909116908590613f8b565b60405180910390a150600580546001600160a01b0319166001600160a01b0392909216919091179055565b806001600160a01b0381166110ed5760405163d92e233d60e01b815260040160405180910390fd5b6006546040517f36a4c08a38b736dcecb6c328dba61238529620e83ccb23db2cc43cd34ec260969161112c916001600160a01b03909116908590613f8b565b60405180910390a150600680546001600160a01b0319166001600160a01b0392909216919091179055565b806001600160a01b03811661117f5760405163d92e233d60e01b815260040160405180910390fd5b6008546040517f567657fa3f286518b318f4a29870674f433f622fdfc819691acb13105b228225916111be916001600160a01b03909116908590613f8b565b60405180910390a150600880546001600160a01b0319166001600160a01b0392909216919091179055565b336111f261083f565b6001600160a01b0316146107dc5760405162461bcd60e51b815260206004820181905260248201527f4f776e61626c653a2063616c6c6572206973206e6f7420746865206f776e657260448201526064016106d8565b600082815260a26020526040908190205490517f1e73962bcff5b98a9ac70c9b0f71fbb31dc0f5a09348c6d3ceab164169a9e729916112ae9185916001600160a01b03169085909283526001600160a01b03918216602084015216604082015260600190565b60405180910390a1600091825260a2602052604090912080546001600160a01b0319166001600160a01b03909216919091179055565b600082815260a16020908152604091829020548251858152918201529081018290527f188adabf806a6b6d814acc1dbd9f09e5a251c8c065d6285749a5824e4579b6459060600160405180910390a1600091825260a1602052604090912055565b6002606f5414156113985760405162461bcd60e51b815260206004820152601f60248201527f5265656e7472616e637947756172643a207265656e7472616e742063616c6c0060448201526064016106d8565b6002606f55565b6000806113b66113b1825b8790611ccf565b611cf3565b90506113c762ffffff198216611e49565b156114115760405162461bcd60e51b815260206004820152601a602482015279109a5d18dbda5b92195b1c195c8e881d9a5b881a5cc81b9d5b1b60321b60448201526064016106d8565b600060028787878760405160200161142c9493929190613edd565b60408051601f198184030181529082905261144691613f40565b602060405180830381855afa158015611463573d6000803e3d6000fd5b5050506040513d601f19601f820116820180604052508101906114869190613cb7565b9050600060028260405160200161149f91815260200190565b60408051601f19818403018152908290526114b991613f40565b602060405180830381855afa1580156114d6573d6000803e3d6000fd5b5050506040513d601f19601f820116820180604052508101906114f99190613cb7565b93505050505b949350505050565b60055460405163aff2faa360e01b81526001600160a01b039091169063aff2faa3906115379086906004016140aa565b60206040518083038186803b15801561154f57600080fd5b505afa158015611563573d6000803e3d6000fd5b505050506040513d601f19601f820116820180604052508101906115879190613c83565b6115fb576040805162461bcd60e51b81526020600482015260248101919091527f43435472616e73666572526f757465723a206e6f206c6f636b6572207769746860448201527f2074686520676976656e206c6f636b696e67207363726970742065786973747360648201526084016106d8565b6116386040518060a001604052806000815260200160006001600160a01b0316815260200160008152602001600081526020016000151581525090565b60606116448486611e55565b6001600160401b0390911683528051909150601c1480611665575080516028145b6116b15760405162461bcd60e51b815260206004820152601d60248201527f43435472616e73666572526f757465723a20696e76616c6964206c656e00000060448201526064016106d8565b815161170e5760405162461bcd60e51b815260206004820152602660248201527f43435472616e73666572526f757465723a20696e70757420616d6f756e74206960448201526573207a65726f60d01b60648201526084016106d8565b60015461171a82611fd0565b61ffff161461177d5760405162461bcd60e51b815260206004820152602960248201527f43435472616e73666572526f757465723a20636861696e206964206973206e6f6044820152681d0818dbdc9c9958dd60ba1b60648201526084016106d8565b60025461178982611feb565b60ff16146117e95760405162461bcd60e51b815260206004820152602760248201527f43435472616e73666572526f757465723a20617070206964206973206e6f742060448201526618dbdc9c9958dd60ca1b60648201526084016106d8565b8051601c1415611852576117fc81612005565b6001600160a01b0316602083015261181381612020565b62ffffff1660408301526118268161203b565b60ff1660608301526118378161204a565b600084815260a36020526040902060ff9190911690556118b7565b8051602814156118b75761186581612059565b6001600160a01b0316602083015261187c81612074565b62ffffff16604083015261188f81612084565b60ff1660608301526118a081612093565b600084815260a36020526040902060ff9190911690555b81516040830151111561190a5760405162461bcd60e51b815260206004820152601b60248201527a43435472616e73666572526f757465723a2077726f6e672066656560281b60448201526064016106d8565b60608201511561196c5760405162461bcd60e51b815260206004820152602760248201527f43435472616e73666572526f757465723a207370656564206973206f7574206f604482015266662072616e676560c81b60648201526084016106d8565b50600160808201818152600093845260096020908152604094859020845181559084015192810180546001600160a01b0319166001600160a01b0390941693909317909255928201516002820155606090910151600382015590516004909101805460ff19169115159190911790555050565b6004805460405163d0a8973960e01b81529182018590526000602483018190529182916001600160a01b03169063d0a897399060440160206040518083038186803b158015611a2d57600080fd5b505afa158015611a41573d6000803e3d6000fd5b505050506040513d601f19601f82011682018060405250810190611a659190613cb7565b905080341015611acc5760405162461bcd60e51b815260206004820152602c60248201527f43435472616e73666572526f757465723a207061696420666565206973206e6f60448201526b1d081cdd59999a58da595b9d60a21b60648201526084016106d8565b600454604051600091611b29916001600160a01b0390911690611af9908a908a908a908a9060240161404b565b60408051601f198184030181529190526020810180516001600160e01b0316634354da2560e01b179052846120a2565b9050611b3e33611b398434614250565b6120c8565b80806020019051810190611b529190613c83565b979650505050505050565b6000806000806000611b6f87876121e3565b60065460008c8152600960205260409081902060010154905163a9059cbb60e01b8152969b5094995092975090955093506001600160a01b039081169263a9059cbb92611bc29216908990600401613fa5565b602060405180830381600087803b158015611bdc57600080fd5b505af1158015611bf0573d6000803e3d6000fd5b505050506040513d601f19601f82011682018060405250810190611c149190613c83565b509295509295909350565b6001606f55565b603d80546001600160a01b038381166001600160a01b0319831681179093556040519116919082907f8be0079c531659141344cd1fd0a4f28419497f9722a3daafe3b4186f6b6457e090600090a35050565b600a54610100900460ff16611c9f5760405162461bcd60e51b81526004016106d8906140eb565b6107dc33611c26565b600a54610100900460ff16611c1f5760405162461bcd60e51b81526004016106d8906140eb565b815160009060208401611cea64ffffffffff851682846125d5565b95945050505050565b60008181611d09815b62ffffff19841690612619565b50611d1962ffffff1985166126f3565b6001600160601b0316611d3557611d2e612702565b9250611e42565b6000611d4285600061270a565b90506000611d5562ffffff1987166126f3565b6001600160601b031690506001600160401b038216611d7f57611d76612702565b94505050611e42565b6000611d8a83612853565b60ff16905060005b836001600160401b0316811015611e0857828210611dbd57611db2612702565b965050505050611e42565b6000611ddd611dcc8486614250565b60055b62ffffff198c1691906128b1565b9050611de8816128db565b611df2908461415e565b9250508080611e00906142de565b915050611d92565b50818114611e2257611e18612702565b9550505050611e42565b611e3c60065b60d81b6301000000600160d81b0389161790565b95505050505b5050919050565b62ffffff199081161490565b6000606081611e6b611e66826113aa565b61292f565b9050611e7c62ffffff198216611e49565b15611ec75760405162461bcd60e51b815260206004820152601b60248201527a109a5d18dbda5b92195b1c195c8e881d9bdd5d081a5cc81b9d5b1b602a1b60448201526064016106d8565b6000806000806000611eda86600061270a565b6001600160401b0316905060005b81811015611fc257611efa8782612a30565b9550611f0586612b55565b9450611f1086612ba9565b9350611f1b84612bf3565b925062ffffff198084161415611f9e5789604051602001611f3c9190613f40565b60405160208183030381529060405280519060200120611f618662ffffff1916612d15565b604051602001611f719190613f40565b604051602081830303815290604052805190602001201415611f9957611f9686612d5b565b98505b611fb0565b611fad62ffffff198416612d15565b97505b80611fba816142de565b915050611ee8565b505050505050509250929050565b600080611fe08360006001612d80565b600201519392505050565b600080611ffa83600280612d80565b600101519392505050565b6000806120158360036016612d80565b601401519392505050565b6000806120308360176019612d80565b600301519392505050565b600080611ffa83601a80612d80565b600080611ffa83601b80612d80565b6000806120698360036022612d80565b602001519392505050565b6000806120308360236025612d80565b600080611ffa83602680612d80565b600080611ffa83602780612d80565b60606114ff84848460405180606001604052806029815260200161434960299139612e05565b804710156121185760405162461bcd60e51b815260206004820152601d60248201527f416464726573733a20696e73756666696369656e742062616c616e636500000060448201526064016106d8565b6000826001600160a01b03168260405160006040518083038185875af1925050503d8060008114612165576040519150601f19603f3d011682016040523d82523d6000602084013e61216a565b606091505b50509050806121de5760405162461bcd60e51b815260206004820152603a60248201527f416464726573733a20756e61626c6520746f2073656e642076616c75652c20726044820152791958da5c1a595b9d081b585e481a185d99481c995d995c9d195960321b60648201526084016106d8565b505050565b6005546000828152600960205260408082205490516307f3f86760e21b8152919283928392839283926001600160a01b0390911691631fcfe19c9161222f918b913091906004016140bd565b602060405180830381600087803b15801561224957600080fd5b505af115801561225d573d6000803e3d6000fd5b505050506040513d601f19601f820116820180604052508101906122819190613cb7565b50600354600087815260096020526040902054612710916122a191614208565b6122ab91906141e8565b6000878152600960208181526040808420600281015460a3845282862054865260a1845291852054948c90529290915290549296509450612710916122f09190614208565b6122fa91906141e8565b60a4546000888152600960205260409020549193506127109161231d9190614208565b61232791906141e8565b905082156123b3576006546001600160a01b031663a9059cbb33856040518363ffffffff1660e01b815260040161235f929190613fa5565b602060405180830381600087803b15801561237957600080fd5b505af115801561238d573d6000803e3d6000fd5b505050506040513d601f19601f820116820180604052508101906123b19190613c83565b505b83156124435760065460085460405163a9059cbb60e01b81526001600160a01b039283169263a9059cbb926123ef929116908890600401613fa5565b602060405180830381600087803b15801561240957600080fd5b505af115801561241d573d6000803e3d6000fd5b505050506040513d601f19601f820116820180604052508101906124419190613c83565b505b81156124ed57600654600087815260a36020908152604080832054835260a29091529081902054905163a9059cbb60e01b81526001600160a01b039283169263a9059cbb92612499929116908690600401613fa5565b602060405180830381600087803b1580156124b357600080fd5b505af11580156124c7573d6000803e3d6000fd5b505050506040513d601f19601f820116820180604052508101906124eb9190613c83565b505b801561258b5760055460405163626885b560e11b815261258b916001600160a01b03169063c4d10b6a90612525908b906004016140aa565b60206040518083038186803b15801561253d57600080fd5b505afa158015612551573d6000803e3d6000fd5b505050506040513d601f19601f820116820180604052508101906125759190613c2f565b600088815260a360205260409020548390612f22565b6000868152600960205260409020548190839085906125ab908890614250565b6125b59190614250565b6125bf9190614250565b6125c99190614250565b94509295509295909350565b6000806125e2838561415e565b90506040518111156125f2575060005b806126045762ffffff19915050610d26565b5050606092831b9190911790911b1760181b90565b600061262583836130aa565b6126ec5760006126446126388560d81c90565b64ffffffffff166130cd565b91505060006126598464ffffffffff166130cd565b6040517f5479706520617373657274696f6e206661696c65642e20476f7420307800000060208201526001600160b01b031960b086811b8216603d8401526c05c408af0e0cac6e8cac84060f609b1b604784015283901b16605482015290925060009150605e015b60405160208183030381529060405290508060405162461bcd60e51b81526004016106d891906140aa565b5090919050565b60181c6001600160601b031690565b62ffffff1990565b60008061271f62ffffff198516846001613179565b905060fc811161273a57612732816131a9565b915050610823565b8060fd14156127a05761276861276361275485600161415e565b62ffffff198716906002613215565b6131a9565b915061277382612853565b60ff1660031461279b5761279961279462ffffff1986168560036000613358565b6133be565b505b61284c565b8060fe14156127f5576127c96127636127ba85600161415e565b62ffffff198716906004613215565b91506127d482612853565b60ff1660051461279b5761279961279462ffffff1986168560056000613358565b8060ff141561284c5761281e61276361280f85600161415e565b62ffffff198716906008613215565b915061282982612853565b60ff1660091461284c5761284a61279462ffffff1986168560096000613358565b505b5092915050565b600060fc826001600160401b03161161286e57506001919050565b61ffff826001600160401b03161161288857506003919050565b63ffffffff826001600160401b0316116128a457506005919050565b506009919050565b919050565b60006114ff84846128c1876126f3565b6001600160601b03166128d49190614250565b8585613358565b60008160056128e981611cfc565b5060006128f785602461270a565b9050806001600160401b031661290c82612853565b60ff16612919919061415e565b61292490602461415e565b611cea90600461415e565b6000818161293c81611cfc565b5061294c62ffffff1985166126f3565b6001600160601b031661296157611d2e612702565b600061296e85600061270a565b9050600061298162ffffff1987166126f3565b6001600160601b031690506001600160401b0382166129a257611d76612702565b60006129ad83612853565b60ff16905060005b836001600160401b0316811015612a16578282106129d557611db2612702565b60006129eb6129e48486614250565b600e611dcf565b90506129f681613446565b612a00908461415e565b9250508080612a0e906142de565b9150506129b5565b50818114612a2657611e18612702565b611e3c600f611e28565b600082600f612a3e81611cfc565b506000612a4c86600061270a565b6001600160401b031690506000612a6862ffffff1988166126f3565b6001600160601b03169050818610612ab65760405162461bcd60e51b81526020600482015260116024820152702b37baba103932b0b21037bb32b9393ab760791b60448201526064016106d8565b6000612ac183612853565b60ff1690506000805b88811015612b1757612aee612adf8486614250565b62ffffff198c1690600e6128b1565b9150612af982613446565b612b03908461415e565b9250612b1060018261415e565b9050612aca565b50612b256129e48385614250565b90506000612b3282613446565b9050612b4762ffffff198b168483600d613358565b9a9950505050505050505050565b600081600d612b6381611cfc565b506000612b7185600861270a565b9050611cea612b7f82612853565b612b8a9060086141a1565b60ff166001600160401b03831660075b62ffffff198916929190613358565b600081600d612bb781611cfc565b506000612bc585600861270a565b9050611cea600882612bd684612853565b60ff16612be39190614176565b6001600160401b03166007612b9a565b6000816007612c0181611cfc565b506000612c0f85600061270a565b90506000612c2961276362ffffff19881660026001613179565b9050612c3d62ffffff198716600180613179565b606a141580612c715750612c52600283614267565b6001600160401b0316612c6e62ffffff19881660026001613179565b14155b15612c7e57611d76612702565b604d826001600160401b031611158015612ca257506004826001600160401b031610155b612cee5760405162461bcd60e51b815260206004820152601f60248201527f426974636f696e48656c7065723a20696e76616c6964206f7072657475726e0060448201526064016106d8565b612d0b62ffffff19871660036001600160401b038416600c613358565b9695505050505050565b6060600080612d23846126f3565b60405193508392506001600160601b03169050612d4a84612d4584602061415e565b61348f565b508181016020016040529052919050565b600081600d612d6981611cfc565b506114ff61276362ffffff19861660006008613215565b60606000835b612d9184600161415e565b811015612dfc57858181518110612db857634e487b7160e01b600052603260045260246000fd5b602001015160f81c60f81b91508282604051602001612dd8929190613f5c565b60405160208183030381529060405292508080612df4906142de565b915050612d86565b50509392505050565b606082471015612e665760405162461bcd60e51b815260206004820152602660248201527f416464726573733a20696e73756666696369656e742062616c616e636520666f6044820152651c8818d85b1b60d21b60648201526084016106d8565b843b612eb45760405162461bcd60e51b815260206004820152601d60248201527f416464726573733a2063616c6c20746f206e6f6e2d636f6e747261637400000060448201526064016106d8565b600080866001600160a01b03168587604051612ed09190613f40565b60006040518083038185875af1925050503d8060008114612f0d576040519150601f19603f3d011682016040523d82523d6000602084013e612f12565b606091505b5091509150611b528282866135d2565b81156121de5760a5546001600160a01b03161580612f3f57508015155b15612fce5760065460405163a9059cbb60e01b81526001600160a01b039091169063a9059cbb90612f769086908690600401613fa5565b602060405180830381600087803b158015612f9057600080fd5b505af1158015612fa4573d6000803e3d6000fd5b505050506040513d601f19601f82011682018060405250810190612fc89190613c83565b50505050565b60065460a55460405163095ea7b360e01b81526001600160a01b039283169263095ea7b392613004929116908690600401613fa5565b602060405180830381600087803b15801561301e57600080fd5b505af1158015613032573d6000803e3d6000fd5b505050506040513d601f19601f820116820180604052508101906130569190613c83565b5060a554604051612fc8916001600160a01b03169061307b9086908690602401613fa5565b60408051601f198184030181529190526020810180516001600160e01b0316637db4e28f60e01b17905261360b565b60008164ffffffffff166130be8460d81c90565b64ffffffffff16149392505050565b600080601f5b600f8160ff16111561312b5760006130ec826008614227565b60ff1685901c90506130fd8161364d565b61ffff16841793508160ff1660101461311857601084901b93505b5061312460018261428f565b90506130d3565b50600f5b60ff8160ff1610156131735760ff600882021684901c61314e8161364d565b61ffff16831792508160ff1660001461316957601083901b92505b506000190161312f565b50915091565b600061318682602061428f565b613191906008614227565b60ff1661319f85858561367f565b901c949350505050565b60006001600160401b038211156132115760405162461bcd60e51b815260206004820152602660248201527f53616665436173743a2076616c756520646f65736e27742066697420696e203660448201526534206269747360d01b60648201526084016106d8565b5090565b60006114ff61322585858561367f565b60008190506008817eff00ff00ff00ff00ff00ff00ff00ff00ff00ff00ff00ff00ff00ff00ff00ff16901b600882901c7eff00ff00ff00ff00ff00ff00ff00ff00ff00ff00ff00ff00ff00ff00ff00ff161790506010817dffff0000ffff0000ffff0000ffff0000ffff0000ffff0000ffff0000ffff16901b601082901c7dffff0000ffff0000ffff0000ffff0000ffff0000ffff0000ffff0000ffff161790506020817bffffffff00000000ffffffff00000000ffffffff00000000ffffffff16901b602082901c7bffffffff00000000ffffffff00000000ffffffff00000000ffffffff161790506040816001600160401b03600160801b03600160c01b0316901b604082901c6001600160401b03600160801b03600160c01b0316179050608081901b608082901c179050919050565b600080613364866137ad565b6001600160601b03169050613378866137bc565b84613383878461415e565b61338d919061415e565b11156133a05762ffffff199150506114ff565b6133aa858261415e565b9050612d0b8364ffffffffff1682866125d5565b606060006133fc6133f7826133e96133db62ffffff1988166126f3565b6001600160601b03166137e9565b62ffffff1987169190613179565b6130cd565b6040517a09cdedc5adad2dcd2dac2d840ecc2e440d2dce85c408edee84060f602b1b60208201526001600160701b0319607083901b16603b82015290925060009150604d016126c1565b600081600e61345481611cfc565b50600061346285600861270a565b9050806001600160401b031661347782612853565b60ff16613484919061415e565b611cea90600861415e565b600061349a8361384a565b6134f75760405162461bcd60e51b815260206004820152602860248201527f54797065644d656d566965772f636f7079546f202d204e756c6c20706f696e7460448201526732b9103232b932b360c11b60648201526084016106d8565b6135008361385c565b6135605760405162461bcd60e51b815260206004820152602b60248201527f54797065644d656d566965772f636f7079546f202d20496e76616c696420706f60448201526a34b73a32b9103232b932b360a91b60648201526084016106d8565b600061356b846126f3565b6001600160601b031690506000613581856137ad565b6001600160601b0316905060006040519050848111156135a15760206060fd5b8285848460045afa50612d0b6135b78760d81c90565b64ffffffffff60601b606091821b168717901b841760181b90565b606083156135e1575081610d26565b8251156135f15782518084602001fd5b8160405162461bcd60e51b81526004016106d891906140aa565b6060610d2683836040518060400160405280601e81526020017f416464726573733a206c6f772d6c6576656c2063616c6c206661696c6564000081525061389a565b600061365f60048360ff16901c6138a9565b60ff1661ffff919091161760081b613676826138a9565b60ff1617919050565b600060ff821661369157506000610d26565b61369a846126f3565b6001600160601b03166136b060ff84168561415e565b1115613700576136e76136c2856137ad565b6001600160601b03166136d4866126f3565b6001600160601b0316858560ff16613a05565b60405162461bcd60e51b81526004016106d891906140aa565b60208260ff1611156137775760405162461bcd60e51b815260206004820152603a60248201527f54797065644d656d566965772f696e646578202d20417474656d7074656420746044820152796f20696e646578206d6f7265207468616e20333220627974657360301b60648201526084016106d8565b600882026000613786866137ad565b6001600160601b031690506000600160ff1b60001984011d91909501511695945050505050565b60781c6001600160601b031690565b60006137c7826126f3565b6137d0836137ad565b6137da91906141c6565b6001600160601b031692915050565b600060ff8211156132115760405162461bcd60e51b815260206004820152602560248201527f53616665436173743a2076616c756520646f65736e27742066697420696e2038604482015264206269747360d81b60648201526084016106d8565b600061385582611e49565b1592915050565b60006138688260d81c90565b64ffffffffff1664ffffffffff141561388357506000919050565b600061388e836137bc565b60405110199392505050565b60606114ff8484600085612e05565b600060f08083179060ff821614156138c45750603092915050565b8060ff1660f114156138d95750603192915050565b8060ff1660f214156138ee5750603292915050565b8060ff1660f314156139035750603392915050565b8060ff1660f414156139185750603492915050565b8060ff1660f5141561392d5750603592915050565b8060ff1660f614156139425750603692915050565b8060ff1660f714156139575750603792915050565b8060ff1660f8141561396c5750603892915050565b8060ff1660f914156139815750603992915050565b8060ff1660fa14156139965750606192915050565b8060ff1660fb14156139ab5750606292915050565b8060ff1660fc14156139c05750606392915050565b8060ff1660fd14156139d55750606492915050565b8060ff1660fe14156139ea5750606592915050565b8060ff1660ff14156139ff5750606692915050565b50919050565b60606000613a12866130cd565b9150506000613a20866130cd565b9150506000613a2e866130cd565b9150506000613a3c866130cd565b604080517f54797065644d656d566965772f696e646578202d204f76657272616e20746865602082015274040ecd2caee5c40a6d8d2c6ca40d2e640c2e84060f605b1b818301526001600160d01b031960d098891b811660558301526e040eed2e8d040d8cadccee8d04060f608b1b605b830181905297891b8116606a8301527f2e20417474656d7074656420746f20696e646578206174206f666673657420306070830152600f60fb1b609083015295881b861660918201526097810196909652951b90921660a68401525050601760f91b60ac8201528151808203608d01815260ad90910190915295945050505050565b80356001600160e01b0319811681146128ac57600080fd5b60008083601f840112613b58578182fd5b5081356001600160401b03811115613b6e578182fd5b602083019150836020828501011115613b8657600080fd5b9250929050565b600082601f830112613b9d578081fd5b81356001600160401b0380821115613bb757613bb761430f565b604051601f8301601f19908116603f01168101908282118183101715613bdf57613bdf61430f565b81604052838152866020858801011115613bf7578485fd5b8360208701602083013792830160200193909352509392505050565b600060208284031215613c24578081fd5b8135610d2681614325565b600060208284031215613c40578081fd5b8151610d2681614325565b60008060408385031215613c5d578081fd5b8235613c6881614325565b91506020830135613c788161433a565b809150509250929050565b600060208284031215613c94578081fd5b8151610d268161433a565b600060208284031215613cb0578081fd5b5035919050565b600060208284031215613cc8578081fd5b5051919050565b600080600060408486031215613ce3578081fd5b83356001600160401b0380821115613cf9578283fd5b9085019060e08288031215613d0c578283fd5b613d14614136565b613d1d83613b2f565b8152602083013582811115613d30578485fd5b613d3c89828601613b8d565b602083015250604083013582811115613d53578485fd5b613d5f89828601613b8d565b604083015250613d7160608401613b2f565b60608201526080830135608082015260a083013582811115613d91578485fd5b613d9d89828601613b8d565b60a08301525060c083013560c0820152809550506020860135915080821115613dc4578283fd5b50613dd186828701613b47565b9497909650939450505050565b60008060408385031215613df0578182fd5b823591506020830135613c7881614325565b60008060408385031215613e14578182fd5b50508035926020909101359150565b60008060008060008060008060006101208a8c031215613e41578485fd5b8935985060208a0135975060408a0135965060608a0135955060808a0135945060a08a0135613e6f81614325565b935060c08a0135613e7f81614325565b925060e08a0135613e8f81614325565b91506101008a0135613ea081614325565b809150509295985092959850929598565b60008151808452613ec98160208601602086016142b2565b601f01601f19169290920160200192915050565b600063ffffffff60e01b80871683528551613eff816004860160208a016142b2565b855190840190613f16816004840160208a016142b2565b919094169301600481019390935250506008019392505050565b8183823760009101908152919050565b60008251613f528184602087016142b2565b9190910192915050565b60008351613f6e8184602088016142b2565b6001600160f81b0319939093169190920190815260010192915050565b6001600160a01b0392831681529116602082015260400190565b6001600160a01b03929092168252602082015260400190565b8781526001600160a01b038781166020808401919091529087166040830152610160820190606083018760005b600281101561400857815183529183019190830190600101613feb565b50505060a083018660005b600481101561403057815183529183019190830190600101614013565b50505050610120820193909352610140015295945050505050565b84815283602082015260806040820152600061406a6080830185613eb1565b905082606083015295945050505050565b60208152816020820152818360408301376000818301604090810191909152601f909201601f19160101919050565b602081526000610d266020830184613eb1565b6060815260006140d06060830186613eb1565b6001600160a01b039490941660208301525060400152919050565b6020808252602b908201527f496e697469616c697a61626c653a20636f6e7472616374206973206e6f74206960408201526a6e697469616c697a696e6760a81b606082015260800190565b60405160e081016001600160401b03811182821017156141585761415861430f565b60405290565b60008219821115614171576141716142f9565b500190565b60006001600160401b03828116848216808303821115614198576141986142f9565b01949350505050565b600060ff821660ff84168060ff038211156141be576141be6142f9565b019392505050565b60006001600160601b03828116848216808303821115614198576141986142f9565b60008261420357634e487b7160e01b81526012600452602481fd5b500490565b6000816000190483118215151615614222576142226142f9565b500290565b600060ff821660ff84168160ff0481118215151615614248576142486142f9565b029392505050565b600082821015614262576142626142f9565b500390565b60006001600160401b0383811690831681811015614287576142876142f9565b039392505050565b600060ff821660ff8416808210156142a9576142a96142f9565b90039392505050565b60005b838110156142cd5781810151838201526020016142b5565b83811115612fc85750506000910152565b60006000198214156142f2576142f26142f9565b5060010190565b634e487b7160e01b600052601160045260246000fd5b634e487b7160e01b600052604160045260246000fd5b6001600160a01b03811681146107c057600080fd5b80151581146107c057600080fdfe416464726573733a206c6f772d6c6576656c2063616c6c20776974682076616c7565206661696c6564a264697066735822122029461e48b970bca0336757ec1ab4f45b4b5eccc1afcc34fad417f9489c9eac2a64736f6c63430008040033",
  "devdoc": {
    "kind": "dev",
    "methods": {
      "initialize(uint256,uint256,uint256,uint256,uint256,address,address,address,address)": {
        "params": {
          "_appId": "Id of ccTransfer dApp",
          "_chainId": "Id of the underlying chain",
          "_lockers": "Lockers' contract address",
          "_protocolPercentageFee": "Percentage amount of protocol fee (min: %0.01)",
          "_relay": "The Relay address to validate data from source chain",
          "_startingBlockNumber": "Requests that are included in a block older than _startingBlockNumber cannot be executed",
          "_teleBTC": "TeleportDAO BTC ERC20 token address",
          "_treasury": "Address of treasury that collects protocol fees"
        }
      },
      "isRequestUsed(bytes32)": {
        "details": "This is to avoid re-submitting a used request",
        "params": {
          "_txId": "The txId of request on the source chain"
        },
        "returns": {
          "_0": "True if the request has been executed"
        }
      },
      "owner()": {
        "details": "Returns the address of the current owner."
      },
      "renounceOwnership()": {
        "details": "Leaves the contract without owner. It will not be possible to call `onlyOwner` functions. Can only be called by the current owner. NOTE: Renouncing ownership will leave the contract without an owner, thereby disabling any functionality that is only available to the owner."
      },
      "setLockerPercentageFee(uint256)": {
        "details": "Only owner can call this",
        "params": {
          "_lockerPercentageFee": "Percentage amount of locker fee"
        }
      },
      "setLockers(address)": {
        "details": "Only owner can call this",
        "params": {
          "_lockers": "Address of the lockers contract"
        }
      },
      "setProtocolPercentageFee(uint256)": {
        "details": "Only owner can call this",
        "params": {
          "_protocolPercentageFee": "Percentage amount of protocol fee"
        }
      },
      "setRelay(address)": {
        "details": "Only owner can call this",
        "params": {
          "_relay": "Address of the relay contract"
        }
      },
      "setRewardDistributor(address)": {
        "details": "This contract distributes locker fee between locker and stakers"
      },
      "setTeleBTC(address)": {
        "details": "Only owner can call this",
        "params": {
          "_teleBTC": "TeleportDAO BTC ERC20 token address"
        }
      },
      "setThirdPartyAddress(uint256,address)": {
        "details": "Only owner can call this",
        "params": {
          "_thirdPartyAddress": "third party address"
        }
      },
      "setThirdPartyFee(uint256,uint256)": {
        "details": "Only owner can call this",
        "params": {
          "_thirdPartyFee": "third party fee"
        }
      },
      "setTreasury(address)": {
        "details": "Only owner can call this",
        "params": {
          "_treasury": "Treasury address"
        }
      },
      "transferOwnership(address)": {
        "details": "Transfers ownership of the contract to a new account (`newOwner`). Can only be called by the current owner."
      },
      "wrap((bytes4,bytes,bytes,bytes4,uint256,bytes,uint256),bytes)": {
        "details": "Validates the transfer request, then, if speed is 1, the request is instant which pays back the loan, if the speed is 0, it is a normal transfer",
        "params": {
          "_lockerLockingScript": "Locking script of locker that user has sent BTC to it",
          "_txAndProof": "Transaction and merkle proof data"
        },
        "returns": {
          "_0": "True if the transfer is successful"
        }
      }
    },
    "version": 1
  },
  "userdoc": {
    "events": {
      "NewLockers(address,address)": {
        "notice": "Emits when changes made to Lockers address"
      },
      "NewProtocolPercentageFee(uint256,uint256)": {
        "notice": "Emits when changes made to protocol percentage fee"
      },
      "NewRelay(address,address)": {
        "notice": "Emits when changes made to relay address"
      },
      "NewTeleBTC(address,address)": {
        "notice": "Emits when changes made to TeleBTC address"
      },
      "NewThirdPartyAddress(uint256,address,address)": {
        "notice": "Emits when changes made to third party address"
      },
      "NewThirdPartyFee(uint256,uint256,uint256)": {
        "notice": "Emits when changes made to third party fee"
      },
      "NewTreasury(address,address)": {
        "notice": "Emits when changes made to Treasury address"
      },
      "NewWrap(bytes32,bytes,address,address,address,uint256[2],uint256[4],uint256,uint256)": {
        "notice": "Emits when a cc transfer request gets done"
      }
    },
    "kind": "user",
    "methods": {
      "initialize(uint256,uint256,uint256,uint256,uint256,address,address,address,address)": {
        "notice": "Gives default params to initiate cc transfer router"
      },
      "isRequestUsed(bytes32)": {
        "notice": "Check if the request has been executed before"
      },
      "setLockerPercentageFee(uint256)": {
        "notice": "Setter for locker percentage fee"
      },
      "setLockers(address)": {
        "notice": "Setter for lockers"
      },
      "setProtocolPercentageFee(uint256)": {
        "notice": "Setter for protocol percentage fee"
      },
      "setRelay(address)": {
        "notice": "Setter for relay"
      },
      "setRewardDistributor(address)": {
        "notice": "Setter for reward distributor"
      },
      "setStartingBlockNumber(uint256)": {
        "notice": "Setter for starting block number"
      },
      "setTeleBTC(address)": {
        "notice": "Setter for teleBTC"
      },
      "setTeleporter(address,bool)": {
        "notice": "Setter for teleporter"
      },
      "setThirdPartyAddress(uint256,address)": {
        "notice": "Setter for third party address"
      },
      "setThirdPartyFee(uint256,uint256)": {
        "notice": "Setter for third party fee"
      },
      "setTreasury(address)": {
        "notice": "Setter for treasury"
      },
      "wrap((bytes4,bytes,bytes,bytes4,uint256,bytes,uint256),bytes)": {
        "notice": "Executes the cross chain transfer request"
      }
    },
    "version": 1
  },
  "storageLayout": {
    "storage": [
      {
        "astId": 47023,
        "contract": "contracts/routers/CcTransferRouterLogic.sol:CcTransferRouterLogic",
        "label": "startingBlockNumber",
        "offset": 0,
        "slot": "0",
        "type": "t_uint256"
      },
      {
        "astId": 47026,
        "contract": "contracts/routers/CcTransferRouterLogic.sol:CcTransferRouterLogic",
        "label": "chainId",
        "offset": 0,
        "slot": "1",
        "type": "t_uint256"
      },
      {
        "astId": 47029,
        "contract": "contracts/routers/CcTransferRouterLogic.sol:CcTransferRouterLogic",
        "label": "appId",
        "offset": 0,
        "slot": "2",
        "type": "t_uint256"
      },
      {
        "astId": 47032,
        "contract": "contracts/routers/CcTransferRouterLogic.sol:CcTransferRouterLogic",
        "label": "protocolPercentageFee",
        "offset": 0,
        "slot": "3",
        "type": "t_uint256"
      },
      {
        "astId": 47035,
        "contract": "contracts/routers/CcTransferRouterLogic.sol:CcTransferRouterLogic",
        "label": "relay",
        "offset": 0,
        "slot": "4",
        "type": "t_address"
      },
      {
        "astId": 47038,
        "contract": "contracts/routers/CcTransferRouterLogic.sol:CcTransferRouterLogic",
        "label": "lockers",
        "offset": 0,
        "slot": "5",
        "type": "t_address"
      },
      {
        "astId": 47041,
        "contract": "contracts/routers/CcTransferRouterLogic.sol:CcTransferRouterLogic",
        "label": "teleBTC",
        "offset": 0,
        "slot": "6",
        "type": "t_address"
      },
      {
        "astId": 47043,
        "contract": "contracts/routers/CcTransferRouterLogic.sol:CcTransferRouterLogic",
        "label": "specialTeleporter",
        "offset": 0,
        "slot": "7",
        "type": "t_address"
      },
      {
        "astId": 47046,
        "contract": "contracts/routers/CcTransferRouterLogic.sol:CcTransferRouterLogic",
        "label": "treasury",
        "offset": 0,
        "slot": "8",
        "type": "t_address"
      },
      {
        "astId": 47051,
        "contract": "contracts/routers/CcTransferRouterLogic.sol:CcTransferRouterLogic",
        "label": "ccTransferRequests",
        "offset": 0,
        "slot": "9",
        "type": "t_mapping(t_bytes32,t_struct(ccTransferRequest)48474_storage)"
      },
      {
        "astId": 11827,
        "contract": "contracts/routers/CcTransferRouterLogic.sol:CcTransferRouterLogic",
        "label": "_initialized",
        "offset": 0,
        "slot": "10",
        "type": "t_uint8"
      },
      {
        "astId": 11830,
        "contract": "contracts/routers/CcTransferRouterLogic.sol:CcTransferRouterLogic",
        "label": "_initializing",
        "offset": 1,
        "slot": "10",
        "type": "t_bool"
      },
      {
        "astId": 13298,
        "contract": "contracts/routers/CcTransferRouterLogic.sol:CcTransferRouterLogic",
        "label": "__gap",
        "offset": 0,
        "slot": "11",
        "type": "t_array(t_uint256)50_storage"
      },
      {
        "astId": 11699,
        "contract": "contracts/routers/CcTransferRouterLogic.sol:CcTransferRouterLogic",
        "label": "_owner",
        "offset": 0,
        "slot": "61",
        "type": "t_address"
      },
      {
        "astId": 11819,
        "contract": "contracts/routers/CcTransferRouterLogic.sol:CcTransferRouterLogic",
        "label": "__gap",
        "offset": 0,
        "slot": "62",
        "type": "t_array(t_uint256)49_storage"
      },
      {
        "astId": 12132,
        "contract": "contracts/routers/CcTransferRouterLogic.sol:CcTransferRouterLogic",
        "label": "_status",
        "offset": 0,
        "slot": "111",
        "type": "t_uint256"
      },
      {
        "astId": 12201,
        "contract": "contracts/routers/CcTransferRouterLogic.sol:CcTransferRouterLogic",
        "label": "__gap",
        "offset": 0,
        "slot": "112",
        "type": "t_array(t_uint256)49_storage"
      },
      {
        "astId": 47059,
        "contract": "contracts/routers/CcTransferRouterLogic.sol:CcTransferRouterLogic",
        "label": "thirdPartyFee",
        "offset": 0,
        "slot": "161",
        "type": "t_mapping(t_uint256,t_uint256)"
      },
      {
        "astId": 47063,
        "contract": "contracts/routers/CcTransferRouterLogic.sol:CcTransferRouterLogic",
        "label": "thirdPartyAddress",
        "offset": 0,
        "slot": "162",
        "type": "t_mapping(t_uint256,t_address)"
      },
      {
        "astId": 47067,
        "contract": "contracts/routers/CcTransferRouterLogic.sol:CcTransferRouterLogic",
        "label": "thirdParty",
        "offset": 0,
        "slot": "163",
        "type": "t_mapping(t_bytes32,t_uint256)"
      },
      {
        "astId": 47069,
        "contract": "contracts/routers/CcTransferRouterLogic.sol:CcTransferRouterLogic",
        "label": "lockerPercentageFee",
        "offset": 0,
        "slot": "164",
        "type": "t_uint256"
      },
      {
        "astId": 47071,
        "contract": "contracts/routers/CcTransferRouterLogic.sol:CcTransferRouterLogic",
        "label": "rewardDistributor",
        "offset": 0,
        "slot": "165",
        "type": "t_address"
      },
      {
        "astId": 47075,
        "contract": "contracts/routers/CcTransferRouterLogic.sol:CcTransferRouterLogic",
        "label": "isTeleporter",
        "offset": 0,
        "slot": "166",
        "type": "t_mapping(t_address,t_bool)"
      }
    ],
    "types": {
      "t_address": {
        "encoding": "inplace",
        "label": "address",
        "numberOfBytes": "20"
      },
      "t_array(t_uint256)49_storage": {
        "base": "t_uint256",
        "encoding": "inplace",
        "label": "uint256[49]",
        "numberOfBytes": "1568"
      },
      "t_array(t_uint256)50_storage": {
        "base": "t_uint256",
        "encoding": "inplace",
        "label": "uint256[50]",
        "numberOfBytes": "1600"
      },
      "t_bool": {
        "encoding": "inplace",
        "label": "bool",
        "numberOfBytes": "1"
      },
      "t_bytes32": {
        "encoding": "inplace",
        "label": "bytes32",
        "numberOfBytes": "32"
      },
      "t_mapping(t_address,t_bool)": {
        "encoding": "mapping",
        "key": "t_address",
        "label": "mapping(address => bool)",
        "numberOfBytes": "32",
        "value": "t_bool"
      },
      "t_mapping(t_bytes32,t_struct(ccTransferRequest)48474_storage)": {
        "encoding": "mapping",
        "key": "t_bytes32",
        "label": "mapping(bytes32 => struct ICcTransferRouter.ccTransferRequest)",
        "numberOfBytes": "32",
        "value": "t_struct(ccTransferRequest)48474_storage"
      },
      "t_mapping(t_bytes32,t_uint256)": {
        "encoding": "mapping",
        "key": "t_bytes32",
        "label": "mapping(bytes32 => uint256)",
        "numberOfBytes": "32",
        "value": "t_uint256"
      },
      "t_mapping(t_uint256,t_address)": {
        "encoding": "mapping",
        "key": "t_uint256",
        "label": "mapping(uint256 => address)",
        "numberOfBytes": "32",
        "value": "t_address"
      },
      "t_mapping(t_uint256,t_uint256)": {
        "encoding": "mapping",
        "key": "t_uint256",
        "label": "mapping(uint256 => uint256)",
        "numberOfBytes": "32",
        "value": "t_uint256"
      },
      "t_struct(ccTransferRequest)48474_storage": {
        "encoding": "inplace",
        "label": "struct ICcTransferRouter.ccTransferRequest",
        "members": [
          {
            "astId": 48465,
            "contract": "contracts/routers/CcTransferRouterLogic.sol:CcTransferRouterLogic",
            "label": "inputAmount",
            "offset": 0,
            "slot": "0",
            "type": "t_uint256"
          },
          {
            "astId": 48467,
            "contract": "contracts/routers/CcTransferRouterLogic.sol:CcTransferRouterLogic",
            "label": "recipientAddress",
            "offset": 0,
            "slot": "1",
            "type": "t_address"
          },
          {
            "astId": 48469,
            "contract": "contracts/routers/CcTransferRouterLogic.sol:CcTransferRouterLogic",
            "label": "fee",
            "offset": 0,
            "slot": "2",
            "type": "t_uint256"
          },
          {
            "astId": 48471,
            "contract": "contracts/routers/CcTransferRouterLogic.sol:CcTransferRouterLogic",
            "label": "speed",
            "offset": 0,
            "slot": "3",
            "type": "t_uint256"
          },
          {
            "astId": 48473,
            "contract": "contracts/routers/CcTransferRouterLogic.sol:CcTransferRouterLogic",
            "label": "isUsed",
            "offset": 0,
            "slot": "4",
            "type": "t_bool"
          }
        ],
        "numberOfBytes": "160"
      },
      "t_uint256": {
        "encoding": "inplace",
        "label": "uint256",
        "numberOfBytes": "32"
      },
      "t_uint8": {
        "encoding": "inplace",
        "label": "uint8",
        "numberOfBytes": "1"
      }
    }
  }
}