{
  "address": "0xc5353501293cE0991D1Afa8D22F5578797F3Fd8b",
  "abi": [
    {
      "inputs": [],
      "name": "ZeroAddress",
      "type": "error"
    },
    {
      "anonymous": false,
      "inputs": [
        {
          "indexed": false,
          "internalType": "address",
          "name": "oldAcross",
          "type": "address"
        },
        {
          "indexed": false,
          "internalType": "address",
          "name": "newAcross",
          "type": "address"
        }
      ],
      "name": "AcrossUpdated",
      "type": "event"
    },
    {
      "anonymous": false,
      "inputs": [
        {
          "indexed": false,
          "internalType": "address",
          "name": "oldBurnRouter",
          "type": "address"
        },
        {
          "indexed": false,
          "internalType": "address",
          "name": "newBurnRouter",
          "type": "address"
        }
      ],
      "name": "BurnRouterUpdated",
      "type": "event"
    },
    {
      "anonymous": false,
      "inputs": [
        {
          "indexed": false,
          "internalType": "address",
          "name": "oldEthConnector",
          "type": "address"
        },
        {
          "indexed": false,
          "internalType": "address",
          "name": "newEthConnector",
          "type": "address"
        }
      ],
      "name": "EthConnectorUpdated",
      "type": "event"
    },
    {
      "anonymous": false,
      "inputs": [
        {
          "indexed": false,
          "internalType": "uint256",
          "name": "uniqueCounter",
          "type": "uint256"
        },
        {
          "indexed": false,
          "internalType": "uint256",
          "name": "chainId",
          "type": "uint256"
        },
        {
          "indexed": false,
          "internalType": "address",
          "name": "exchangeConnector",
          "type": "address"
        },
        {
          "indexed": false,
          "internalType": "address",
          "name": "inputToken",
          "type": "address"
        },
        {
          "indexed": false,
          "internalType": "uint256",
          "name": "inputAmount",
          "type": "uint256"
        },
        {
          "indexed": true,
          "internalType": "address",
          "name": "userTargetAddress",
          "type": "address"
        },
        {
          "indexed": false,
          "internalType": "bytes",
          "name": "userScript",
          "type": "bytes"
        },
        {
          "indexed": false,
          "internalType": "enum ScriptTypes",
          "name": "scriptType",
          "type": "uint8"
        },
        {
          "indexed": false,
          "internalType": "address[]",
          "name": "path",
          "type": "address[]"
        },
        {
          "indexed": false,
          "internalType": "uint256",
          "name": "thirdPartyId",
          "type": "uint256"
        }
      ],
      "name": "FailedSwapAndUnwrap",
      "type": "event"
    },
    {
      "anonymous": false,
      "inputs": [
        {
          "indexed": false,
          "internalType": "uint256",
          "name": "uniqueCounter",
          "type": "uint256"
        },
        {
          "indexed": false,
          "internalType": "uint256",
          "name": "chainId",
          "type": "uint256"
        },
        {
          "indexed": true,
          "internalType": "address",
          "name": "userTargetAddress",
          "type": "address"
        },
        {
          "indexed": false,
          "internalType": "uint256",
          "name": "thirdPartyId",
          "type": "uint256"
        },
        {
          "indexed": false,
          "internalType": "uint256",
          "name": "internalId",
          "type": "uint256"
        },
        {
          "indexed": false,
          "internalType": "uint256",
          "name": "appId",
          "type": "uint256"
        },
        {
          "indexed": false,
          "internalType": "uint256",
          "name": "amount",
          "type": "uint256"
        },
        {
          "indexed": false,
          "internalType": "uint256",
          "name": "inputAmount",
          "type": "uint256"
        },
        {
          "indexed": false,
          "internalType": "address[]",
          "name": "path",
          "type": "address[]"
        },
        {
          "indexed": false,
          "internalType": "bytes",
          "name": "userScript",
          "type": "bytes"
        },
        {
          "indexed": false,
          "internalType": "enum ScriptTypes",
          "name": "scriptType",
          "type": "uint8"
        }
      ],
      "name": "FailedSwapAndUnwrapRune",
      "type": "event"
    },
    {
      "anonymous": false,
      "inputs": [
        {
          "indexed": false,
          "internalType": "uint256",
          "name": "uniqueCounter",
          "type": "uint256"
        },
        {
          "indexed": false,
          "internalType": "uint256",
          "name": "chainId",
          "type": "uint256"
        },
        {
          "indexed": false,
          "internalType": "address",
          "name": "exchangeConnector",
          "type": "address"
        },
        {
          "indexed": false,
          "internalType": "address",
          "name": "inputToken",
          "type": "address"
        },
        {
          "indexed": false,
          "internalType": "uint256",
          "name": "inputAmount",
          "type": "uint256"
        },
        {
          "indexed": true,
          "internalType": "bytes32",
          "name": "userTargetAddress",
          "type": "bytes32"
        },
        {
          "indexed": false,
          "internalType": "bytes",
          "name": "userScript",
          "type": "bytes"
        },
        {
          "indexed": false,
          "internalType": "enum ScriptTypes",
          "name": "scriptType",
          "type": "uint8"
        },
        {
          "indexed": false,
          "internalType": "address[]",
          "name": "path",
          "type": "address[]"
        },
        {
          "indexed": false,
          "internalType": "uint256",
          "name": "thirdPartyId",
          "type": "uint256"
        }
      ],
      "name": "FailedSwapAndUnwrapUniversal",
      "type": "event"
    },
    {
      "anonymous": false,
      "inputs": [
        {
          "indexed": false,
          "internalType": "uint8",
          "name": "version",
          "type": "uint8"
        }
      ],
      "name": "Initialized",
      "type": "event"
    },
    {
      "anonymous": false,
      "inputs": [
        {
          "indexed": false,
          "internalType": "address",
          "name": "oldLockersProxy",
          "type": "address"
        },
        {
          "indexed": false,
          "internalType": "address",
          "name": "newLockersProxy",
          "type": "address"
        }
      ],
      "name": "LockersProxyUpdated",
      "type": "event"
    },
    {
      "anonymous": false,
      "inputs": [
        {
          "indexed": false,
          "internalType": "string",
          "name": "functionName",
          "type": "string"
        },
        {
          "indexed": false,
          "internalType": "uint256",
          "name": "uniqueCounter",
          "type": "uint256"
        },
        {
          "indexed": false,
          "internalType": "uint256",
          "name": "chainId",
          "type": "uint256"
        },
        {
          "indexed": false,
          "internalType": "bytes",
          "name": "data",
          "type": "bytes"
        }
      ],
      "name": "MsgReceived",
      "type": "event"
    },
    {
      "anonymous": false,
      "inputs": [
        {
          "indexed": false,
          "internalType": "uint256",
          "name": "uniqueCounter",
          "type": "uint256"
        },
        {
          "indexed": false,
          "internalType": "bytes",
          "name": "data",
          "type": "bytes"
        },
        {
          "indexed": false,
          "internalType": "address",
          "name": "sourceChainInputToken",
          "type": "address"
        },
        {
          "indexed": false,
          "internalType": "uint256",
          "name": "amount",
          "type": "uint256"
        },
        {
          "indexed": false,
          "internalType": "int64",
          "name": "bridgePercentageFee",
          "type": "int64"
        }
      ],
      "name": "MsgSent",
      "type": "event"
    },
    {
      "anonymous": false,
      "inputs": [
        {
          "indexed": false,
          "internalType": "uint256",
          "name": "uniqueCounter",
          "type": "uint256"
        },
        {
          "indexed": false,
          "internalType": "uint256",
          "name": "chainId",
          "type": "uint256"
        },
        {
          "indexed": false,
          "internalType": "address",
          "name": "exchangeConnector",
          "type": "address"
        },
        {
          "indexed": false,
          "internalType": "address",
          "name": "inputToken",
          "type": "address"
        },
        {
          "indexed": false,
          "internalType": "uint256",
          "name": "inputAmount",
          "type": "uint256"
        },
        {
          "indexed": true,
          "internalType": "address",
          "name": "userTargetAddress",
          "type": "address"
        },
        {
          "indexed": false,
          "internalType": "bytes",
          "name": "userScript",
          "type": "bytes"
        },
        {
          "indexed": false,
          "internalType": "enum ScriptTypes",
          "name": "scriptType",
          "type": "uint8"
        },
        {
          "indexed": false,
          "internalType": "address",
          "name": "lockerTargetAddress",
          "type": "address"
        },
        {
          "indexed": false,
          "internalType": "uint256",
          "name": "requestIdOfLocker",
          "type": "uint256"
        },
        {
          "indexed": false,
          "internalType": "address[]",
          "name": "path",
          "type": "address[]"
        },
        {
          "indexed": false,
          "internalType": "uint256",
          "name": "thirdPartyId",
          "type": "uint256"
        }
      ],
      "name": "NewSwapAndUnwrap",
      "type": "event"
    },
    {
      "anonymous": false,
      "inputs": [
        {
          "indexed": false,
          "internalType": "uint256",
          "name": "uniqueCounter",
          "type": "uint256"
        },
        {
          "indexed": false,
          "internalType": "uint256",
          "name": "chainId",
          "type": "uint256"
        },
        {
          "indexed": true,
          "internalType": "address",
          "name": "userTargetAddress",
          "type": "address"
        },
        {
          "indexed": false,
          "internalType": "uint256",
          "name": "thirdPartyId",
          "type": "uint256"
        },
        {
          "indexed": false,
          "internalType": "uint256",
          "name": "internalId",
          "type": "uint256"
        },
        {
          "indexed": false,
          "internalType": "uint256",
          "name": "appId",
          "type": "uint256"
        },
        {
          "indexed": false,
          "internalType": "uint256",
          "name": "amount",
          "type": "uint256"
        },
        {
          "indexed": false,
          "internalType": "uint256",
          "name": "inputAmount",
          "type": "uint256"
        },
        {
          "indexed": false,
          "internalType": "address[]",
          "name": "path",
          "type": "address[]"
        },
        {
          "indexed": false,
          "internalType": "bytes",
          "name": "userScript",
          "type": "bytes"
        },
        {
          "indexed": false,
          "internalType": "enum ScriptTypes",
          "name": "scriptType",
          "type": "uint8"
        },
        {
          "indexed": false,
          "internalType": "uint256",
          "name": "requestIdOfLocker",
          "type": "uint256"
        }
      ],
      "name": "NewSwapAndUnwrapRune",
      "type": "event"
    },
    {
      "anonymous": false,
      "inputs": [
        {
          "indexed": false,
          "internalType": "uint256",
          "name": "uniqueCounter",
          "type": "uint256"
        },
        {
          "indexed": false,
          "internalType": "uint256",
          "name": "chainId",
          "type": "uint256"
        },
        {
          "indexed": false,
          "internalType": "address",
          "name": "exchangeConnector",
          "type": "address"
        },
        {
          "indexed": false,
          "internalType": "address",
          "name": "inputToken",
          "type": "address"
        },
        {
          "indexed": false,
          "internalType": "uint256",
          "name": "inputAmount",
          "type": "uint256"
        },
        {
          "indexed": true,
          "internalType": "bytes32",
          "name": "userTargetAddress",
          "type": "bytes32"
        },
        {
          "indexed": false,
          "internalType": "bytes",
          "name": "userScript",
          "type": "bytes"
        },
        {
          "indexed": false,
          "internalType": "enum ScriptTypes",
          "name": "scriptType",
          "type": "uint8"
        },
        {
          "indexed": false,
          "internalType": "address",
          "name": "lockerTargetAddress",
          "type": "address"
        },
        {
          "indexed": false,
          "internalType": "uint256",
          "name": "requestIdOfLocker",
          "type": "uint256"
        },
        {
          "indexed": false,
          "internalType": "address[]",
          "name": "path",
          "type": "address[]"
        },
        {
          "indexed": false,
          "internalType": "uint256",
          "name": "thirdPartyId",
          "type": "uint256"
        }
      ],
      "name": "NewSwapAndUnwrapUniversal",
      "type": "event"
    },
    {
      "anonymous": false,
      "inputs": [
        {
          "indexed": true,
          "internalType": "address",
          "name": "previousOwner",
          "type": "address"
        },
        {
          "indexed": true,
          "internalType": "address",
          "name": "newOwner",
          "type": "address"
        }
      ],
      "name": "OwnershipTransferred",
      "type": "event"
    },
    {
      "anonymous": false,
      "inputs": [
        {
          "indexed": false,
          "internalType": "address",
          "name": "account",
          "type": "address"
        }
      ],
      "name": "Paused",
      "type": "event"
    },
    {
      "anonymous": false,
      "inputs": [
        {
          "indexed": false,
          "internalType": "address",
          "name": "account",
          "type": "address"
        }
      ],
      "name": "Unpaused",
      "type": "event"
    },
    {
      "anonymous": false,
      "inputs": [
        {
          "indexed": false,
          "internalType": "uint256",
          "name": "uniqueCounter",
          "type": "uint256"
        },
        {
          "indexed": false,
          "internalType": "uint256",
          "name": "chainId",
          "type": "uint256"
        },
        {
          "indexed": false,
          "internalType": "address",
          "name": "token",
          "type": "address"
        },
        {
          "indexed": false,
          "internalType": "uint256",
          "name": "amount",
          "type": "uint256"
        },
        {
          "indexed": false,
          "internalType": "int64",
          "name": "relayerFeePercentage",
          "type": "int64"
        },
        {
          "indexed": false,
          "internalType": "address",
          "name": "user",
          "type": "address"
        }
      ],
      "name": "WithdrawnFundsToSourceChain",
      "type": "event"
    },
    {
      "anonymous": false,
      "inputs": [
        {
          "indexed": false,
          "internalType": "uint256",
          "name": "uniqueCounter",
          "type": "uint256"
        },
        {
          "indexed": false,
          "internalType": "uint256",
          "name": "chainId",
          "type": "uint256"
        },
        {
          "indexed": false,
          "internalType": "address",
          "name": "token",
          "type": "address"
        },
        {
          "indexed": false,
          "internalType": "uint256",
          "name": "amount",
          "type": "uint256"
        },
        {
          "indexed": false,
          "internalType": "int64",
          "name": "relayerFeePercentage",
          "type": "int64"
        },
        {
          "indexed": false,
          "internalType": "bytes32",
          "name": "refundAddress",
          "type": "bytes32"
        }
      ],
      "name": "WithdrawnFundsToSourceChainV2",
      "type": "event"
    },
    {
      "anonymous": false,
      "inputs": [
        {
          "indexed": false,
          "internalType": "uint256",
          "name": "uniqueCounter",
          "type": "uint256"
        },
        {
          "indexed": false,
          "internalType": "uint256",
          "name": "chainId",
          "type": "uint256"
        },
        {
          "indexed": false,
          "internalType": "address",
          "name": "token",
          "type": "address"
        },
        {
          "indexed": false,
          "internalType": "uint256",
          "name": "amount",
          "type": "uint256"
        },
        {
          "indexed": false,
          "internalType": "int64",
          "name": "relayerFeePercentage",
          "type": "int64"
        },
        {
          "indexed": false,
          "internalType": "bytes32",
          "name": "refundAddress",
          "type": "bytes32"
        },
        {
          "indexed": false,
          "internalType": "bytes32[]",
          "name": "pathFromIntermediaryToInputOnSourceChain",
          "type": "bytes32[]"
        },
        {
          "indexed": false,
          "internalType": "uint256[]",
          "name": "amountsFromIntermediaryToInputOnSourceChain",
          "type": "uint256[]"
        }
      ],
      "name": "WithdrewFundsToSourceChainUniversal",
      "type": "event"
    },
    {
      "inputs": [],
      "name": "ETH_ADDR",
      "outputs": [
        {
          "internalType": "address",
          "name": "",
          "type": "address"
        }
      ],
      "stateMutability": "view",
      "type": "function"
    },
    {
      "inputs": [],
      "name": "across",
      "outputs": [
        {
          "internalType": "address",
          "name": "",
          "type": "address"
        }
      ],
      "stateMutability": "view",
      "type": "function"
    },
    {
      "inputs": [],
      "name": "acrossAdmin",
      "outputs": [
        {
          "internalType": "address",
          "name": "",
          "type": "address"
        }
      ],
      "stateMutability": "view",
      "type": "function"
    },
    {
      "inputs": [
        {
          "internalType": "uint256",
          "name": "",
          "type": "uint256"
        }
      ],
      "name": "bridgeConnectorMapping",
      "outputs": [
        {
          "internalType": "bytes32",
          "name": "",
          "type": "bytes32"
        }
      ],
      "stateMutability": "view",
      "type": "function"
    },
    {
      "inputs": [
        {
          "internalType": "address",
          "name": "",
          "type": "address"
        },
        {
          "internalType": "uint256",
          "name": "",
          "type": "uint256"
        }
      ],
      "name": "bridgeTokenMapping",
      "outputs": [
        {
          "internalType": "address",
          "name": "",
          "type": "address"
        }
      ],
      "stateMutability": "view",
      "type": "function"
    },
    {
      "inputs": [
        {
          "internalType": "address",
          "name": "",
          "type": "address"
        },
        {
          "internalType": "uint256",
          "name": "",
          "type": "uint256"
        }
      ],
      "name": "bridgeTokenMappingUniversal",
      "outputs": [
        {
          "internalType": "bytes32",
          "name": "",
          "type": "bytes32"
        }
      ],
      "stateMutability": "view",
      "type": "function"
    },
    {
      "inputs": [],
      "name": "burnRouterProxy",
      "outputs": [
        {
          "internalType": "address",
          "name": "",
          "type": "address"
        }
      ],
      "stateMutability": "view",
      "type": "function"
    },
    {
      "inputs": [],
      "name": "chainId",
      "outputs": [
        {
          "internalType": "uint256",
          "name": "",
          "type": "uint256"
        }
      ],
      "stateMutability": "view",
      "type": "function"
    },
    {
      "inputs": [
        {
          "internalType": "address",
          "name": "_token",
          "type": "address"
        },
        {
          "internalType": "address",
          "name": "_to",
          "type": "address"
        },
        {
          "internalType": "uint256",
          "name": "_amount",
          "type": "uint256"
        }
      ],
      "name": "emergencyWithdraw",
      "outputs": [],
      "stateMutability": "nonpayable",
      "type": "function"
    },
    {
      "inputs": [
        {
          "internalType": "address",
          "name": "",
          "type": "address"
        },
        {
          "internalType": "uint256",
          "name": "",
          "type": "uint256"
        },
        {
          "internalType": "address",
          "name": "",
          "type": "address"
        }
      ],
      "name": "failedReqs",
      "outputs": [
        {
          "internalType": "uint256",
          "name": "",
          "type": "uint256"
        }
      ],
      "stateMutability": "view",
      "type": "function"
    },
    {
      "inputs": [
        {
          "internalType": "bytes32",
          "name": "",
          "type": "bytes32"
        },
        {
          "internalType": "uint256",
          "name": "",
          "type": "uint256"
        },
        {
          "internalType": "uint256",
          "name": "",
          "type": "uint256"
        },
        {
          "internalType": "address",
          "name": "",
          "type": "address"
        }
      ],
      "name": "failedSwapAndUnwrapReqs",
      "outputs": [
        {
          "internalType": "uint256",
          "name": "intermediaryTokenAmount",
          "type": "uint256"
        }
      ],
      "stateMutability": "view",
      "type": "function"
    },
    {
      "inputs": [
        {
          "internalType": "bytes32",
          "name": "",
          "type": "bytes32"
        },
        {
          "internalType": "uint256",
          "name": "",
          "type": "uint256"
        },
        {
          "internalType": "bytes32",
          "name": "",
          "type": "bytes32"
        },
        {
          "internalType": "address",
          "name": "",
          "type": "address"
        }
      ],
      "name": "failedWrapAndSwapRefundReqs",
      "outputs": [
        {
          "internalType": "uint256",
          "name": "",
          "type": "uint256"
        }
      ],
      "stateMutability": "view",
      "type": "function"
    },
    {
      "inputs": [],
      "name": "gasLimit",
      "outputs": [
        {
          "internalType": "uint256",
          "name": "",
          "type": "uint256"
        }
      ],
      "stateMutability": "view",
      "type": "function"
    },
    {
      "inputs": [
        {
          "internalType": "address",
          "name": "_tokenSent",
          "type": "address"
        },
        {
          "internalType": "uint256",
          "name": "_amount",
          "type": "uint256"
        },
        {
          "internalType": "address",
          "name": "",
          "type": "address"
        },
        {
          "internalType": "bytes",
          "name": "_message",
          "type": "bytes"
        }
      ],
      "name": "handleV3AcrossMessage",
      "outputs": [],
      "stateMutability": "nonpayable",
      "type": "function"
    },
    {
      "inputs": [
        {
          "internalType": "address",
          "name": "_lockersProxy",
          "type": "address"
        },
        {
          "internalType": "address",
          "name": "_burnRouterProxy",
          "type": "address"
        },
        {
          "internalType": "address",
          "name": "_across",
          "type": "address"
        },
        {
          "internalType": "address",
          "name": "_runeRouterProxy",
          "type": "address"
        }
      ],
      "name": "initialize",
      "outputs": [],
      "stateMutability": "nonpayable",
      "type": "function"
    },
    {
      "inputs": [],
      "name": "lockersProxy",
      "outputs": [
        {
          "internalType": "address",
          "name": "",
          "type": "address"
        }
      ],
      "stateMutability": "view",
      "type": "function"
    },
    {
      "inputs": [
        {
          "internalType": "address",
          "name": "",
          "type": "address"
        },
        {
          "internalType": "uint256",
          "name": "",
          "type": "uint256"
        },
        {
          "internalType": "uint256",
          "name": "",
          "type": "uint256"
        },
        {
          "internalType": "address",
          "name": "",
          "type": "address"
        }
      ],
      "name": "newFailedReqs",
      "outputs": [
        {
          "internalType": "uint256",
          "name": "",
          "type": "uint256"
        }
      ],
      "stateMutability": "view",
      "type": "function"
    },
    {
      "inputs": [
        {
          "internalType": "bytes32",
          "name": "",
          "type": "bytes32"
        },
        {
          "internalType": "uint256",
          "name": "",
          "type": "uint256"
        },
        {
          "internalType": "uint256",
          "name": "",
          "type": "uint256"
        },
        {
          "internalType": "address",
          "name": "",
          "type": "address"
        }
      ],
      "name": "newFailedReqsV2",
      "outputs": [
        {
          "internalType": "uint256",
          "name": "",
          "type": "uint256"
        }
      ],
      "stateMutability": "view",
      "type": "function"
    },
    {
      "inputs": [],
      "name": "owner",
      "outputs": [
        {
          "internalType": "address",
          "name": "",
          "type": "address"
        }
      ],
      "stateMutability": "view",
      "type": "function"
    },
    {
      "inputs": [],
      "name": "paused",
      "outputs": [
        {
          "internalType": "bool",
          "name": "",
          "type": "bool"
        }
      ],
      "stateMutability": "view",
      "type": "function"
    },
    {
      "inputs": [
        {
          "internalType": "uint256",
          "name": "",
          "type": "uint256"
        },
        {
          "internalType": "uint256",
          "name": "",
          "type": "uint256"
        }
      ],
      "name": "processedRequests",
      "outputs": [
        {
          "internalType": "bool",
          "name": "",
          "type": "bool"
        }
      ],
      "stateMutability": "view",
      "type": "function"
    },
    {
      "inputs": [],
      "name": "renounceOwnership",
      "outputs": [],
      "stateMutability": "nonpayable",
      "type": "function"
    },
    {
      "inputs": [],
      "name": "runeRouterProxy",
      "outputs": [
        {
          "internalType": "address",
          "name": "",
          "type": "address"
        }
      ],
      "stateMutability": "view",
      "type": "function"
    },
    {
      "inputs": [
        {
          "internalType": "address",
          "name": "_across",
          "type": "address"
        }
      ],
      "name": "setAcross",
      "outputs": [],
      "stateMutability": "nonpayable",
      "type": "function"
    },
    {
      "inputs": [
        {
          "internalType": "address",
          "name": "_acrossAdmin",
          "type": "address"
        }
      ],
      "name": "setAcrossAdmin",
      "outputs": [],
      "stateMutability": "nonpayable",
      "type": "function"
    },
    {
      "inputs": [
        {
          "internalType": "uint256",
          "name": "_destinationChainId",
          "type": "uint256"
        },
        {
          "internalType": "bytes32",
          "name": "_bridgeConnector",
          "type": "bytes32"
        }
      ],
      "name": "setBridgeConnectorMapping",
      "outputs": [],
      "stateMutability": "nonpayable",
      "type": "function"
    },
    {
      "inputs": [
        {
          "internalType": "address",
          "name": "_sourceToken",
          "type": "address"
        },
        {
          "internalType": "uint256",
          "name": "_destinationChainId",
          "type": "uint256"
        },
        {
          "internalType": "address",
          "name": "_destinationToken",
          "type": "address"
        }
      ],
      "name": "setBridgeTokenMapping",
      "outputs": [],
      "stateMutability": "nonpayable",
      "type": "function"
    },
    {
      "inputs": [
        {
          "internalType": "address",
          "name": "_sourceToken",
          "type": "address"
        },
        {
          "internalType": "uint256",
          "name": "_destinationChainId",
          "type": "uint256"
        },
        {
          "internalType": "bytes32",
          "name": "_destinationToken",
          "type": "bytes32"
        }
      ],
      "name": "setBridgeTokenMappingUniversal",
      "outputs": [],
      "stateMutability": "nonpayable",
      "type": "function"
    },
    {
      "inputs": [
        {
          "internalType": "address",
          "name": "_burnRouterProxy",
          "type": "address"
        }
      ],
      "name": "setBurnRouterProxy",
      "outputs": [],
      "stateMutability": "nonpayable",
      "type": "function"
    },
    {
      "inputs": [
        {
          "internalType": "uint256",
          "name": "_chainId",
          "type": "uint256"
        }
      ],
      "name": "setCurrChainId",
      "outputs": [],
      "stateMutability": "nonpayable",
      "type": "function"
    },
    {
      "inputs": [
        {
          "internalType": "uint256",
          "name": "_gasLimit",
          "type": "uint256"
        }
      ],
      "name": "setGasLimit",
      "outputs": [],
      "stateMutability": "nonpayable",
      "type": "function"
    },
    {
      "inputs": [
        {
          "internalType": "address",
          "name": "_lockersProxy",
          "type": "address"
        }
      ],
      "name": "setLockersProxy",
      "outputs": [],
      "stateMutability": "nonpayable",
      "type": "function"
    },
    {
      "inputs": [
        {
          "internalType": "address",
          "name": "_runeRouterProxy",
          "type": "address"
        }
      ],
      "name": "setRuneRouterProxy",
      "outputs": [],
      "stateMutability": "nonpayable",
      "type": "function"
    },
    {
      "inputs": [
        {
          "internalType": "address",
          "name": "_token",
          "type": "address"
        },
        {
          "internalType": "uint256",
          "name": "_decimals",
          "type": "uint256"
        }
      ],
      "name": "setTokenDecimalsOnDestinationChain",
      "outputs": [],
      "stateMutability": "nonpayable",
      "type": "function"
    },
    {
      "inputs": [
        {
          "internalType": "bytes32",
          "name": "_bitcoinTxId",
          "type": "bytes32"
        },
        {
          "internalType": "address",
          "name": "_token",
          "type": "address"
        },
        {
          "internalType": "bytes32",
          "name": "_refundAddress",
          "type": "bytes32"
        },
        {
          "internalType": "address",
          "name": "_exchangeConnector",
          "type": "address"
        },
        {
          "internalType": "uint256",
          "name": "_minOutputAmount",
          "type": "uint256"
        },
        {
          "components": [
            {
              "internalType": "bytes",
              "name": "userScript",
              "type": "bytes"
            },
            {
              "internalType": "enum ScriptTypes",
              "name": "scriptType",
              "type": "uint8"
            },
            {
              "internalType": "bytes",
              "name": "lockerLockingScript",
              "type": "bytes"
            }
          ],
          "internalType": "struct IPolyConnector.UserAndLockerScript",
          "name": "_userAndLockerScript",
          "type": "tuple"
        },
        {
          "internalType": "address[]",
          "name": "_path",
          "type": "address[]"
        },
        {
          "internalType": "uint256[]",
          "name": "_amounts",
          "type": "uint256[]"
        }
      ],
      "name": "swapBackAndRefundBTCByAdmin",
      "outputs": [],
      "stateMutability": "nonpayable",
      "type": "function"
    },
    {
      "inputs": [
        {
          "internalType": "address",
          "name": "",
          "type": "address"
        }
      ],
      "name": "tokenDecimalsOnDestinationChain",
      "outputs": [
        {
          "internalType": "uint256",
          "name": "",
          "type": "uint256"
        }
      ],
      "stateMutability": "view",
      "type": "function"
    },
    {
      "inputs": [
        {
          "internalType": "address",
          "name": "newOwner",
          "type": "address"
        }
      ],
      "name": "transferOwnership",
      "outputs": [],
      "stateMutability": "nonpayable",
      "type": "function"
    },
    {
      "inputs": [
        {
          "internalType": "bytes",
          "name": "_message",
          "type": "bytes"
        },
        {
          "internalType": "uint8",
          "name": "_v",
          "type": "uint8"
        },
        {
          "internalType": "bytes32",
          "name": "_r",
          "type": "bytes32"
        },
        {
          "internalType": "bytes32",
          "name": "_s",
          "type": "bytes32"
        }
      ],
      "name": "withdrawFundsToSourceChain",
      "outputs": [],
      "stateMutability": "nonpayable",
      "type": "function"
    },
    {
      "inputs": [
        {
          "internalType": "bytes32",
          "name": "_refundAddress",
          "type": "bytes32"
        },
        {
          "internalType": "uint256",
          "name": "_chainId",
          "type": "uint256"
        },
        {
          "internalType": "uint256",
          "name": "_uniqueCounter",
          "type": "uint256"
        },
        {
          "internalType": "address",
          "name": "_token",
          "type": "address"
        },
        {
          "internalType": "int64",
          "name": "_bridgePercentageFee",
          "type": "int64"
        },
        {
          "internalType": "bytes32[]",
          "name": "_pathFromIntermediaryToInputOnSourceChain",
          "type": "bytes32[]"
        },
        {
          "internalType": "uint256[]",
          "name": "_amountsFromIntermediaryToInputOnSourceChain",
          "type": "uint256[]"
        }
      ],
      "name": "withdrawFundsToSourceChainByAdminUniversal",
      "outputs": [],
      "stateMutability": "nonpayable",
      "type": "function"
    },
    {
      "inputs": [
        {
          "internalType": "address",
          "name": "_user",
          "type": "address"
        },
        {
          "internalType": "uint256",
          "name": "_chainId",
          "type": "uint256"
        },
        {
          "internalType": "uint256",
          "name": "_uniqueCounter",
          "type": "uint256"
        },
        {
          "internalType": "address",
          "name": "_token",
          "type": "address"
        },
        {
          "internalType": "int64",
          "name": "_relayerFeePercentage",
          "type": "int64"
        }
      ],
      "name": "withdrawFundsToSourceChainByOwnerOrAdmin",
      "outputs": [],
      "stateMutability": "nonpayable",
      "type": "function"
    },
    {
      "stateMutability": "payable",
      "type": "receive"
    }
  ],
  "transactionHash": "0x67a90ba6e1a2945c7df6239704f5234fa8063cffb5309d98e2275cd64cc8dde3",
  "args": [],
  "numDeployments": 1,
  "solcInputHash": "d9b7352e907befb3582d4e96b6873df3",
  "bytecode": "0x608060405234801561001057600080fd5b506159a680620000216000396000f3fe6080604052600436106101cf5760003560e01c80630474b8fb146101db578063057e42421461021b5780630597865c1461026557806307dd72dd146102925780630d2c8c70146102dd5780631dbd94ff14610324578063292c1d9214610346578063296079f1146103665780633168bd38146103865780633a5be8cb146103a65780633cbc048f146103c65780633e938097146103e65780633f3eb1b5146104065780633f8c6ae01461043e5780634d6e8f9d1461045e5780634f12fb431461047e57806357d95b87146104c557806359841888146104e55780635c975abb146105055780635f9491291461051d57806361be10f21461055e5780636b45bf251461057e578063715018a6146105ab5780637753f47b146105c057806377902f07146105e85780638642050314610608578063878269b51461062857806387c554f8146106485780638907eb5c146106685780638da5cb5b146106a65780639a8a0592146106bb578063baf7f918146106d1578063cf75dfd214610718578063d7829a5314610738578063d7fe6b7d14610758578063e63ea40814610778578063ee7d72b414610798578063f2fde38b146107b8578063f68016b7146107d8578063f8c8765e146107ee57600080fd5b366101d657005b600080fd5b3480156101e757600080fd5b506102086101f63660046143d5565b60d46020526000908152604090205481565b6040519081526020015b60405180910390f35b34801561022757600080fd5b50610208610236366004614738565b60d660209081526000948552604080862082529385528385208152918452828420909152825290206001015481565b34801561027157600080fd5b5060ce54610285906001600160a01b031681565b6040516102129190614e1a565b34801561029e57600080fd5b506102cd6102ad366004614bfc565b60d560209081526000928352604080842090915290825290205460ff1681565b6040519015158152602001610212565b3480156102e957600080fd5b506102086102f8366004614738565b60d260209081526000948552604080862082529385528385208152918452828420909152825290205481565b34801561033057600080fd5b5061034461033f3660046143d5565b61080e565b005b34801561035257600080fd5b5060cb54610285906001600160a01b031681565b34801561037257600080fd5b5060c954610285906001600160a01b031681565b34801561039257600080fd5b506103446103a1366004614bfc565b610861565b3480156103b257600080fd5b506103446103c1366004614514565b61087b565b3480156103d257600080fd5b506103446103e136600461457d565b610bb4565b3480156103f257600080fd5b5061034461040136600461481d565b610be2565b34801561041257600080fd5b506102086104213660046144a8565b60d860209081526000928352604080842090915290825290205481565b34801561044a57600080fd5b5060ca54610285906001600160a01b031681565b34801561046a57600080fd5b506103446104793660046143d5565b610cc3565b34801561048a57600080fd5b50610208610499366004614738565b60d760209081526000948552604080862082529385528385208152918452828420909152825290205481565b3480156104d157600080fd5b506103446104e0366004614bcc565b610d16565b3480156104f157600080fd5b506103446105003660046143d5565b610d23565b34801561051157600080fd5b5060975460ff166102cd565b34801561052957600080fd5b506102856105383660046144a8565b60d16020908152600092835260408084209091529082529020546001600160a01b031681565b34801561056a57600080fd5b506103446105793660046143d5565b610d76565b34801561058a57600080fd5b50610208610599366004614bcc565b60d96020526000908152604090205481565b3480156105b757600080fd5b50610344610dc9565b3480156105cc57600080fd5b5061028573eeeeeeeeeeeeeeeeeeeeeeeeeeeeeeeeeeeeeeee81565b3480156105f457600080fd5b506103446106033660046144a8565b610ddd565b34801561061457600080fd5b506103446106233660046145ef565b610e01565b34801561063457600080fd5b506103446106433660046143d5565b610efd565b34801561065457600080fd5b5060cf54610285906001600160a01b031681565b34801561067457600080fd5b506102086106833660046144d3565b60cc60209081526000938452604080852082529284528284209052825290205481565b3480156106b257600080fd5b50610285610f27565b3480156106c757600080fd5b5061020860d35481565b3480156106dd57600080fd5b506102086106ec3660046145b1565b60cd60209081526000948552604080862082529385528385208152918452828420909152825290205481565b34801561072457600080fd5b50610344610733366004614667565b610f36565b34801561074457600080fd5b5061034461075336600461476d565b611253565b34801561076457600080fd5b506103446107733660046144d3565b6116e3565b34801561078457600080fd5b50610344610793366004614468565b611726565b3480156107a457600080fd5b506103446107b3366004614bcc565b611829565b3480156107c457600080fd5b506103446107d33660046143d5565b611836565b3480156107e457600080fd5b5061020860d05481565b3480156107fa57600080fd5b5061034461080936600461440d565b6118af565b610816611a1d565b806001600160a01b03811661083e5760405163d92e233d60e01b815260040160405180910390fd5b5060ce80546001600160a01b0319166001600160a01b0392909216919091179055565b610869611a1d565b600091825260d9602052604090912055565b610883611a7c565b60d0545a10156108da5760405162461bcd60e51b815260206004820152601e60248201527f506f6c79676f6e436f6e6e6563746f724c6f6769633a206c6f7720676173000060448201526064015b60405180910390fd5b60cb546001600160a01b0316331461093e5760405162461bcd60e51b815260206004820152602160248201527f506f6c79676f6e436f6e6e6563746f724c6f6769633a206e6f74206163726f736044820152607360f81b60648201526084016108d1565b600080600061094c84611ad6565b9250925092507fd8883c6af9aa96506569d2db74cafb52037a26374320a8aeaf9fd5cd7df3d2288383838760405161098794939291906150a9565b60405180910390a1600081815260d56020908152604080832085845290915290205460ff1615610a405760cf5460405163a9059cbb60e01b81526001600160a01b038981169263a9059cbb926109e592909116908a90600401614ff8565b602060405180830381600087803b1580156109ff57600080fd5b505af1158015610a13573d6000803e3d6000fd5b505050506040513d601f19601f82011682018060405250810190610a37919061464d565b50505050610ba4565b600081815260d560209081526040808320858452825291829020805460ff191660011790558151808301909252600d82526c073776170416e64556e7772617609c1b90820152610a91908490611bc3565b15610aa657610aa1868589611c1d565b610ba0565b610ad9836040518060400160405280601181526020017073776170416e64556e7772617052756e6560781b815250611bc3565b15610ae957610aa186858961219b565b610b1e836040518060400160405280601381526020017273776170416e64556e77726170536f6c616e6160681b815250611bc3565b80610b5c5750610b5c83604051806040016040528060168152602001751cddd85c105b99155b9ddc985c155b9a5d995c9cd85b60521b815250611bc3565b80610b8f5750610b8f83604051806040016040528060148152602001600080516020615931833981519152815250611bc3565b15610ba057610ba08387868a6125ec565b5050505b610bae6001606555565b50505050565b610bbc611a1d565b6001600160a01b03909216600090815260d8602090815260408083209383529290522055565b610bea611a7c565b6000610bf885848487612d7c565b905060008060008088806020019051810190610c149190614c1d565b6001600160a01b03898116600090815260cd6020908152604080832088845282528083208784528252808320938616835292905290812080549190559397509195509350915080610c775760405162461bcd60e51b81526004016108d190615294565b610c848686858486612eab565b60008051602061591183398151915284868584868b604051610cab9695949392919061546e565b60405180910390a1505050505050610bae6001606555565b610ccb611a1d565b806001600160a01b038116610cf35760405163d92e233d60e01b815260040160405180910390fd5b5060ca80546001600160a01b0319166001600160a01b0392909216919091179055565b610d1e611a1d565b60d355565b610d2b611a1d565b806001600160a01b038116610d535760405163d92e233d60e01b815260040160405180910390fd5b5060c980546001600160a01b0319166001600160a01b0392909216919091179055565b610d7e611a1d565b806001600160a01b038116610da65760405163d92e233d60e01b815260040160405180910390fd5b5060cb80546001600160a01b0319166001600160a01b0392909216919091179055565b610dd1611a1d565b610ddb600061304a565b565b610de5611a1d565b6001600160a01b03909116600090815260d46020526040902055565b610e09611a7c565b60cf546001600160a01b0316331480610e3a5750610e25610f27565b6001600160a01b0316336001600160a01b0316145b610e565760405162461bcd60e51b81526004016108d190615327565b6001600160a01b03858116600090815260cd60209081526040808320888452825280832087845282528083209386168352929052908120805491905580610eaf5760405162461bcd60e51b81526004016108d190615294565b610ebc8686858486612eab565b60008051602061591183398151915284868584868b604051610ee39695949392919061546e565b60405180910390a150610ef66001606555565b5050505050565b610f05611a1d565b60cf80546001600160a01b0319166001600160a01b0392909216919091179055565b6033546001600160a01b031690565b610f3e611a7c565b60cf546001600160a01b0316331480610f6f5750610f5a610f27565b6001600160a01b0316336001600160a01b0316145b610f8b5760405162461bcd60e51b81526004016108d190615327565b600088815260d76020908152604080832060d354845282528083208d845282528083206001600160a01b038d168452909152812054908390839081610fe057634e487b7160e01b600052603260045260246000fd5b9050602002013581146110435760405162461bcd60e51b815260206004820152602560248201527f506f6c79676f6e436f6e6e6563746f724c6f6769633a20696e76616c696420616044820152641b5bdd5b9d60da1b60648201526084016108d1565b6040516370a0823160e01b815281906001600160a01b038c16906370a0823190611071903090600401614e1a565b60206040518083038186803b15801561108957600080fd5b505afa15801561109d573d6000803e3d6000fd5b505050506040513d601f19601f820116820180604052508101906110c19190614be4565b10156111235760405162461bcd60e51b815260206004820152602b60248201527f506f6c79676f6e436f6e6e6563746f724c6f6769633a20696e7375666669636960448201526a656e742062616c616e636560a81b60648201526084016108d1565b600089815260d76020908152604080832060d354845282528083208e845282528083206001600160a01b038e168452909152812055806111755760405162461bcd60e51b81526004016108d190615294565b604080516000818301818152606083019093529181908152602001878780806020026020016040519081016040528093929190818152602001838360200280828437600081840152601f19601f82011690508083019250505050505050815250905060008c60001c60d3548c8c8c6001878e6000604051602001611201999897969594939291906150da565b60408051601f19818403018152828201909152601482526000805160206159318339815191526020830152915061123a9084838f6125ec565b5050506112476001606555565b50505050505050505050565b61125b611a7c565b60cf546001600160a01b031633148061128c5750611277610f27565b6001600160a01b0316336001600160a01b0316145b6112a85760405162461bcd60e51b81526004016108d190615327565b600089815260d6602090815260408083208b845282528083208a845282528083206001600160a01b038a168452825280832081518154606094810282018501845292810183815290939192849284919084018282801561132757602002820191906000526020600020905b815481526020019060010190808311611313575b50505091835250506001919091015460209182015260008c815260d6825260408082208d835283528082208c835283528082206001600160a01b038c1683529092529081209192506113798282613ee7565b6001820160009055505060008160200151116113a75760405162461bcd60e51b81526004016108d190615294565b836113c2576113bd8a8a8984602001518a61309c565b611680565b848460008181106113e357634e487b7160e01b600052603260045260246000fd5b90506020020135816000015160018360000151516114019190615855565b8151811061141f57634e487b7160e01b600052603260045260246000fd5b60200260200101511461147c5760405162461bcd60e51b81526020600482015260316024820152600080516020615951833981519152604482015270373a32b936b2b234b0b93c903a37b5b2b760791b60648201526084016108d1565b8484611489600182615855565b8181106114a657634e487b7160e01b600052603260045260246000fd5b9050602002013581600001516000815181106114d257634e487b7160e01b600052603260045260246000fd5b6020026020010151146115285760405162461bcd60e51b815260206004820152602a602482015260008051602061595183398151915260448201526937383aba103a37b5b2b760b11b60648201526084016108d1565b606089651f2abb7bf89b141561156b57888a8c888888886040516020016115559796959493929190615248565b604051602081830303815290604052905061166d565b6000856001600160401b0381111561159357634e487b7160e01b600052604160045260246000fd5b6040519080825280602002602001820160405280156115bc578160200160208202803683370190505b50905060005b8681101561163e578787828181106115ea57634e487b7160e01b600052603260045260246000fd5b9050602002013560001c82828151811061161457634e487b7160e01b600052603260045260246000fd5b6001600160a01b03909216602092830291909101909101528061163681615898565b9150506115c2565b5060405161165a908b908d908f9085908a908a906020016151e5565b6040516020818303038152906040529150505b61167e8a8984602001518a856132a6565b505b7f5e04d4350da2d1568ae88ef3b16d2d6215cc92ad80065848bcb0483a39e0f201888a8984602001518a8f8b8b8b8b6040516116c59a999897969594939291906154a5565b60405180910390a1506116d86001606555565b505050505050505050565b6116eb611a1d565b6001600160a01b03928316600090815260d1602090815260408083209483529390529190912080546001600160a01b03191691909216179055565b61172e611a1d565b6001600160a01b03831673eeeeeeeeeeeeeeeeeeeeeeeeeeeeeeeeeeeeeeee14156117a9576040516001600160a01b038316908290600081818185875af1925050503d806000811461179c576040519150601f19603f3d011682016040523d82523d6000602084013e6117a1565b606091505b505050505050565b60405163a9059cbb60e01b81526001600160a01b0384169063a9059cbb906117d79085908590600401614ff8565b602060405180830381600087803b1580156117f157600080fd5b505af1158015611805573d6000803e3d6000fd5b505050506040513d601f19601f82011682018060405250810190610bae919061464d565b611831611a1d565b60d055565b61183e611a1d565b6001600160a01b0381166118a35760405162461bcd60e51b815260206004820152602660248201527f4f776e61626c653a206e6577206f776e657220697320746865207a65726f206160448201526564647265737360d01b60648201526084016108d1565b6118ac8161304a565b50565b600054610100900460ff16158080156118cf5750600054600160ff909116105b806118e95750303b1580156118e9575060005460ff166001145b61194c5760405162461bcd60e51b815260206004820152602e60248201527f496e697469616c697a61626c653a20636f6e747261637420697320616c72656160448201526d191e481a5b9a5d1a585b1a5e995960921b60648201526084016108d1565b6000805460ff19166001179055801561196f576000805461ff0019166101001790555b61197761343c565b61197f61346b565b61198761349a565b60c980546001600160a01b038088166001600160a01b03199283161790925560ca805487841690831617905560cb805486841690831617905560ce8054928516929091169190911790558015610ef6576000805461ff0019169055604051600181527f7f26b83ff96e1f2b6a682f133852f6798a09c465da95921460cefb38474024989060200160405180910390a15050505050565b33611a26610f27565b6001600160a01b031614610ddb5760405162461bcd60e51b815260206004820181905260248201527f4f776e61626c653a2063616c6c6572206973206e6f7420746865206f776e657260448201526064016108d1565b60026065541415611acf5760405162461bcd60e51b815260206004820152601f60248201527f5265656e7472616e637947756172643a207265656e7472616e742063616c6c0060448201526064016108d1565b6002606555565b60606000806023845110611ba057600080604051602001611b10907273776170416e64556e77726170536f6c616e6160681b815260130190565b604051602081830303815290604052905060006020870151925060208201519050806001600160681b031916836001600160681b0319161415611b9c57611b588760136134c9565b9450611b6587601b6134c9565b60408051808201909152601381527273776170416e64556e77726170536f6c616e6160681b602082015296509350611bbc92505050565b5050505b83806020019051810190611bb4919061487e565b919450925090505b9193909250565b600081604051602001611bd69190614dd5565b6040516020818303038152906040528051906020012083604051602001611bfd9190614dd5565b604051602081830303815290604052805190602001201490505b92915050565b6000611c2883613534565b9050816001600160a01b03168160c00151600081518110611c5957634e487b7160e01b600052603260045260246000fd5b60200260200101516001600160a01b031614611c875760405162461bcd60e51b81526004016108d1906151a2565b6040805160028082526060820183526000926020830190803683370190505090508481600081518110611cca57634e487b7160e01b600052603260045260246000fd5b602002602001018181525050816080015181600181518110611cfc57634e487b7160e01b600052603260045260246000fd5b6020908102919091018101919091526001600160a01b03808516600081815260d8845260408082208786015183529094528390205460ca54935163095ea7b360e01b81529093919263095ea7b392611d5b929116908a90600401614ff8565b602060405180830381600087803b158015611d7557600080fd5b505af1158015611d89573d6000803e3d6000fd5b505050506040513d601f19601f82011682018060405250810190611dad919061464d565b5060ca54606084015160a085015160c086015160e087015180516020808301516040938401516101008c0151928c0151945163cf3641f560e01b81526001600160a01b039099169863cf3641f598611e1b9890978d9791969095429591949193919290918e90600401614eba565b602060405180830381600087803b158015611e3557600080fd5b505af1925050508015611e65575060408051601f3d908101601f19168201909252611e6291810190614be4565b60015b611feb5760ca5460405163095ea7b360e01b81526001600160a01b038681169263095ea7b392611e9e9290911690600090600401614ff8565b602060405180830381600087803b158015611eb857600080fd5b505af1158015611ecc573d6000803e3d6000fd5b505050506040513d601f19601f82011682018060405250810190611ef0919061464d565b508560cd600085604001516001600160a01b03166001600160a01b031681526020019081526020016000206000856020015181526020019081526020016000206000856000015181526020019081526020016000206000866001600160a01b03166001600160a01b031681526020019081526020016000208190555082604001516001600160a01b03167fa79aee2abfa3037b36c3689636c9932b113a82cebda0057ac4ce2386371fc969846000015185602001518660600151888b8960e00151600001518a60e00151602001518b60c001518c6101000151604051611fde999897969594939291906153f4565b60405180910390a26117a1565b5060c95460e0840151604090810151905163626885b560e11b81526000926001600160a01b03169163c4d10b6a916120269190600401615096565b60206040518083038186803b15801561203e57600080fd5b505afa158015612052573d6000803e3d6000fd5b505050506040513d601f19601f8201168201806040525081019061207691906143f1565b905083604001516001600160a01b03167f124f82fb68081b8c772a74ce98c0c92b659dd79e4fd3f03cf49988818eb04e8b856000015186602001518760600151898c8a60e00151600001518b60e001516020015189600160ca60009054906101000a90046001600160a01b03166001600160a01b031663930a60e88d6040518263ffffffff1660e01b815260040161210e9190614e1a565b60206040518083038186803b15801561212657600080fd5b505afa15801561213a573d6000803e3d6000fd5b505050506040513d601f19601f8201168201806040525081019061215e9190614be4565b6121689190615855565b8e60c001518f610100015160405161218a9b9a9998979695949392919061536c565b60405180910390a250505050505050565b60006121a6836135b0565b9050816001600160a01b03168160e001516000815181106121d757634e487b7160e01b600052603260045260246000fd5b60200260200101516001600160a01b0316146122055760405162461bcd60e51b81526004016108d1906151a2565b60ce5460405163095ea7b360e01b81526001600160a01b038481169263095ea7b39261223992909116908890600401614ff8565b602060405180830381600087803b15801561225357600080fd5b505af1158015612267573d6000803e3d6000fd5b505050506040513d601f19601f8201168201806040525081019061228b919061464d565b5060ce546060820151608083015160c0840151610100850151805160209091015160a087015160e088015160405163e91ffefd60e01b81526001600160a01b039098169763e91ffefd976000976122f2979196909591949093919290918f9160040161550f565b6020604051808303818588803b15801561230b57600080fd5b505af19350505050801561233c575060408051601f3d908101601f1916820190925261233991810190614be4565b60015b6124cd5760ce5460405163095ea7b360e01b81526001600160a01b038481169263095ea7b3926123759290911690600090600401614ff8565b602060405180830381600087803b15801561238f57600080fd5b505af11580156123a3573d6000803e3d6000fd5b505050506040513d601f19601f820116820180604052508101906123c7919061464d565b508360cd600083604001516001600160a01b03166001600160a01b031681526020019081526020016000206000836020015181526020019081526020016000206000836000015181526020019081526020016000206000846001600160a01b03166001600160a01b031681526020019081526020016000208190555080604001516001600160a01b03167feef470645928135b5faf5eb6a2f7076448531d47f42149c2b1ceaa9fe1d624a082600001518360200151846060015185608001518660a001518760c001518b8960e001518a6101000151600001518b6101000151602001516040516124c09a99989796959493929190615571565b60405180910390a2610bae565b5080604001516001600160a01b03167f13a9049471d86bfc267b825d08be20c5ebfc793c109c11eb159af6781cda310582600001518360200151846060015185608001518660a001518760c001518b8960e001518a6101000151600001518b610100015160200151600160ce60009054906101000a90046001600160a01b03166001600160a01b03166390665eca6040518163ffffffff1660e01b815260040160206040518083038186803b15801561258557600080fd5b505afa158015612599573d6000803e3d6000fd5b505050506040513d601f19601f820116820180604052508101906125bd9190614be4565b6125c79190615855565b6040516125de9b9a999897969594939291906155d5565b60405180910390a250505050565b6125f4613f05565b61262c85604051806040016040528060168152602001751cddd85c105b99155b9ddc985c155b9a5d995c9cd85b60521b815250611bc3565b8061265f575061265f85604051806040016040528060148152602001600080516020615931833981519152815250611bc3565b156126745761266d83613628565b90506126ba565b6126a9856040518060400160405280601381526020017273776170416e64556e77726170536f6c616e6160681b815250611bc3565b156126ba576126b7836136a2565b90505b816001600160a01b03168160c00151602001516000815181106126ed57634e487b7160e01b600052603260045260246000fd5b60200260200101516001600160a01b03161461271b5760405162461bcd60e51b81526004016108d1906151a2565b604080516002808252606082018352600092602083019080368337019050509050848160008151811061275e57634e487b7160e01b600052603260045260246000fd5b60200260200101818152505081608001518160018151811061279057634e487b7160e01b600052603260045260246000fd5b6020908102919091018101919091526001600160a01b03808516600081815260d8845260408082208786015183529094528390205460ca54935163095ea7b360e01b81529093919263095ea7b3926127ef929116908a90600401614ff8565b602060405180830381600087803b15801561280957600080fd5b505af115801561281d573d6000803e3d6000fd5b505050506040513d601f19601f82011682018060405250810190612841919061464d565b5060ca54606084015160a085015160c086015160209081015160e08801518051818401516040928301516101008c0151958c0151935163cf3641f560e01b81526001600160a01b039099169863cf3641f5986128b29890978d97919691954295909490939092908e90600401614eba565b602060405180830381600087803b1580156128cc57600080fd5b505af19250505080156128fc575060408051601f3d908101601f191682019092526128f991810190614be4565b60015b612bc85760ca5460405163095ea7b360e01b81526001600160a01b038681169263095ea7b3926129359290911690600090600401614ff8565b602060405180830381600087803b15801561294f57600080fd5b505af1158015612963573d6000803e3d6000fd5b505050506040513d601f19601f82011682018060405250810190612987919061464d565b506129b587604051806040016040528060148152602001600080516020615931833981519152815250611bc3565b156129fa57604080840151600090815260d7602090815282822081870151835281528282208651835281528282206001600160a01b0388168352905220869055612b4e565b60c083015151516000906001600160401b03811115612a2957634e487b7160e01b600052604160045260246000fd5b604051908082528060200260200182016040528015612a52578160200160208202803683370190505b50905060005b60c08501515151811015612add5760c085015151805182908110612a8c57634e487b7160e01b600052603260045260246000fd5b60200260200101516001600160a01b031660001b828281518110612ac057634e487b7160e01b600052603260045260246000fd5b602090810291909101015280612ad581615898565b915050612a58565b5060408051808201825282815260208082018a905286830151600090815260d6825283812088830151825282528381208851825282528381206001600160a01b038a1682528252929092208151805192938493612b3d9284920190613f80565b506020820151816001015590505050505b82604001517ff86038a2d77cc08a4df197836cca8bfd5b8f31c2c524ea1ca1c24b61a2c8c6a3846000015185602001518660600151888b8960e00151600001518a60e00151602001518b60c00151602001518c6101000151604051612bbb999897969594939291906153f4565b60405180910390a2612d6c565b5060c95460e0840151604090810151905163626885b560e11b81526000926001600160a01b03169163c4d10b6a91612c039190600401615096565b60206040518083038186803b158015612c1b57600080fd5b505afa158015612c2f573d6000803e3d6000fd5b505050506040513d601f19601f82011682018060405250810190612c5391906143f1565b905083604001517f33d28a02b6f25171e40ef509e2b97bfd82260ef601512c16c75e032dd9d88aa0856000015186602001518760600151898c8a60e00151600001518b60e001516020015189600160ca60009054906101000a90046001600160a01b03166001600160a01b031663930a60e88d6040518263ffffffff1660e01b8152600401612ce29190614e1a565b60206040518083038186803b158015612cfa57600080fd5b505afa158015612d0e573d6000803e3d6000fd5b505050506040513d601f19601f82011682018060405250810190612d329190614be4565b612d3c9190615855565b8e60c00151602001518f6101000151604051612d629b9a9998979695949392919061536c565b60405180910390a2505b50505050505050565b6001606555565b60008085805190602001209050600081604051602001612dc791907b0ca2ba3432b932bab69029b4b3b732b21026b2b9b9b0b3b29d05199960211b8152601c810191909152603c0190565b60408051601f198184030181528282528051602091820120600080855291840180845281905260ff88169284019290925260608301899052608083018890529092509060019060a0016020604051602081039080840390855afa158015612e32573d6000803e3d6000fd5b5050604051601f1901519150506001600160a01b038116612ea05760405162461bcd60e51b815260206004820152602260248201527f506f6c79676f6e436f6e6e6563746f724c6f6769633a20496e76616c69642073604482015261696760f01b60648201526084016108d1565b979650505050505050565b60cb5460405163095ea7b360e01b81526001600160a01b038581169263095ea7b392612edf92909116908690600401614ff8565b602060405180830381600087803b158015612ef957600080fd5b505af1158015612f0d573d6000803e3d6000fd5b505050506040513d601f19601f82011682018060405250810190612f31919061464d565b506000612f3f848487613baa565b90506000670de0b6b3a7640000612f5f6001600160401b03851682615855565b612f699084615836565b612f73919061572b565b60cf546001600160a01b03878116600090815260d1602090815260408083208c845290915281205493945092918116918a9189911688868c8742612fb981613840615713565b6040805160208101825260008082529151612fe29c9b9a99989796959493929190602401614e2e565b60408051601f19818403018152918152602080830180516001600160e01b0316633dc9c91960e11b179052905191925060009161302191849101614df1565b60408051601f1981840301815291905260cb54909150611247906001600160a01b031682613c4a565b603380546001600160a01b038381166001600160a01b0319831681179093556040519116919082907f8be0079c531659141344cd1fd0a4f28419497f9722a3daafe3b4186f6b6457e090600090a35050565b60cb5460405163095ea7b360e01b81526001600160a01b038581169263095ea7b3926130d092909116908690600401614ff8565b602060405180830381600087803b1580156130ea57600080fd5b505af11580156130fe573d6000803e3d6000fd5b505050506040513d601f19601f82011682018060405250810190613122919061464d565b5060606000613132858588613baa565b90506000670de0b6b3a76400006131526001600160401b03861682615855565b61315c9084615836565b613166919061572b565b905086606514156131f75760cf546001600160a01b03908116908990881660008885651f2abb7bf89b834261319d81613840615713565b60408051602081018252600080825291516131c69c9b9a99989796959493929190602401615011565b60408051601f198184030181529190526020810180516001600160e01b03166356aa12e360e11b1790529250613293565b60cf546001600160a01b03878116600090815260d1602090815260408083208c8452909152812054928216928b928a92911690899086908d904261323d81613840615713565b60408051602081018252600080825291516132669c9b9a99989796959493929190602401614e2e565b60408051601f198184030181529190526020810180516001600160e01b0316633dc9c91960e11b17905292505b6000836040516020016130219190614df1565b60cb5460405163095ea7b360e01b81526001600160a01b038681169263095ea7b3926132da92909116908790600401614ff8565b602060405180830381600087803b1580156132f457600080fd5b505af1158015613308573d6000803e3d6000fd5b505050506040513d601f19601f8201168201806040525081019061332c919061464d565b5060cf54600086815260d960209081526040808320546001600160a01b0389811680865260d885528386208c8752909452918420549394919091169290919087670de0b6b3a76400006133886001600160401b038a1682615855565b613392908b615836565b61339c919061572b565b8b6000426133ac81613840615713565b60008c6040516024016133ca9c9b9a99989796959493929190614f84565b60408051601f19818403018152918152602080830180516001600160e01b03166356aa12e360e11b179052905191925060009161340991849101614df1565b60408051601f1981840301815291905260cb54909150613432906001600160a01b031682613c4a565b5050505050505050565b600054610100900460ff166134635760405162461bcd60e51b81526004016108d1906152dc565b610ddb613c8c565b600054610100900460ff166134925760405162461bcd60e51b81526004016108d1906152dc565b610ddb613cbc565b600054610100900460ff166134c15760405162461bcd60e51b81526004016108d1906152dc565b610ddb613ce3565b600080805b600881101561352c576134e2816008615836565b856134ed8387615713565b8151811061350b57634e487b7160e01b600052603260045260246000fd5b016020015160f81c901b91909117908061352481615898565b9150506134ce565b509392505050565b61353c613fcb565b8180602001905181019061355091906148cb565b60e08a015260c0890152151560a088015260808701526001600160a01b039081166060870152166040850152602080850191909152908352835161359b92508401810190840161499e565b6101008b015250979998505050505050505050565b6135b8614024565b818060200190518101906135cc9190614a7c565b505050608088015260c087015260a08601526001600160a01b03166040850152602080850191909152908352835161360b925084018101908401614a7c565b60608b01526101008a015260e08901525095979650505050505050565b613630613f05565b818060200190518101906136449190614b32565b505060c0890152151560a088015260808701526001600160a01b0316606086015260408501526020808501919091529083528351613689925084018101908401614b32565b6101008b015260e08a0152509698975050505050505050565b6136aa613f05565b60006136b7601382615713565b90506136c383826134c9565b82526136d0600882615713565b90506136dc83826134c9565b60208301526136ec600882615713565b838101602001519091506040830152613706602082615713565b90506000613718848360209101015190565b6001600160a01b03811660608501529050613734602083615713565b84810160200151909250608084015261374e602083615713565b915083828151811061377057634e487b7160e01b600052603260045260246000fd5b01602001516001600160f81b031916151560a0840152613791600183615713565b9150600061379f8584613d16565b90506137ac600484615713565b92508063ffffffff166001600160401b038111156137da57634e487b7160e01b600052604160045260246000fd5b604051908082528060200260200182016040528015613803578160200160208202803683370190505b5060c08501516020015260005b8163ffffffff1681101561388857838601602001518060001c8660c0015160200151838151811061385157634e487b7160e01b600052603260045260246000fd5b6001600160a01b039092166020928302919091018201526138729086615713565b945050808061388090615898565b915050613810565b5060006138958685613d16565b90506138a2600485615713565b935060008163ffffffff166001600160401b038111156138d257634e487b7160e01b600052604160045260246000fd5b6040519080825280601f01601f1916602001820160405280156138fc576020820181803683370190505b50905060005b8263ffffffff1681101561398d578761391b8288615713565b8151811061393957634e487b7160e01b600052603260045260246000fd5b602001015160f81c60f81b82828151811061396457634e487b7160e01b600052603260045260246000fd5b60200101906001600160f81b031916908160001a9053508061398581615898565b915050613902565b5061399e63ffffffff831686615713565b945060008786815181106139c257634e487b7160e01b600052603260045260246000fd5b016020015160f81c60058111156139e957634e487b7160e01b600052602160045260246000fd5b90506139f6600187615713565b95506000613a048988613d16565b9050613a11600488615713565b965060008163ffffffff166001600160401b03811115613a4157634e487b7160e01b600052604160045260246000fd5b6040519080825280601f01601f191660200182016040528015613a6b576020820181803683370190505b50905060005b8263ffffffff16811015613afc578a613a8a828b615713565b81518110613aa857634e487b7160e01b600052603260045260246000fd5b602001015160f81c60f81b828281518110613ad357634e487b7160e01b600052603260045260246000fd5b60200101906001600160f81b031916908160001a90535080613af481615898565b915050613a71565b50613b0d63ffffffff831689615713565b60e08a01805186905251909850602001836005811115613b3d57634e487b7160e01b600052602160045260246000fd5b90816005811115613b5e57634e487b7160e01b600052602160045260246000fd5b90525060e089015160400181905289518a9089908110613b8e57634e487b7160e01b600052603260045260246000fd5b016020015160f81c6101008a0152509698975050505050505050565b6001600160a01b038316600090815260d4602052604090205460d35483919015801590613bd657508015155b1561352c5760d354831461352c5760d35460381415613c1657613bfa816012615855565b613c0590600a61578e565b613c0f908561572b565b915061352c565b826038141561352c57613c2a816012615855565b613c3590600a61578e565b613c3f9085615836565b9150505b9392505050565b6060613c4383836040518060400160405280601e81526020017f416464726573733a206c6f772d6c6576656c2063616c6c206661696c65640000815250613d7f565b600054610100900460ff16613cb35760405162461bcd60e51b81526004016108d1906152dc565b610ddb3361304a565b600054610100900460ff16612d755760405162461bcd60e51b81526004016108d1906152dc565b600054610100900460ff16613d0a5760405162461bcd60e51b81526004016108d1906152dc565b6097805460ff19169055565b600080805b600481101561352c57613d2f816008615836565b63ffffffff1685613d408387615713565b81518110613d5e57634e487b7160e01b600052603260045260246000fd5b016020015160f81c901b919091179080613d7781615898565b915050613d1b565b6060613d8e8484600085613d96565b949350505050565b606082471015613df75760405162461bcd60e51b815260206004820152602660248201527f416464726573733a20696e73756666696369656e742062616c616e636520666f6044820152651c8818d85b1b60d21b60648201526084016108d1565b843b613e455760405162461bcd60e51b815260206004820152601d60248201527f416464726573733a2063616c6c20746f206e6f6e2d636f6e747261637400000060448201526064016108d1565b600080866001600160a01b03168587604051613e619190614dd5565b60006040518083038185875af1925050503d8060008114613e9e576040519150601f19603f3d011682016040523d82523d6000602084013e613ea3565b606091505b5091509150612ea082828660608315613ebd575081613c43565b825115613ecd5782518084602001fd5b8160405162461bcd60e51b81526004016108d19190615096565b50805460008255906000526020600020908101906118ac9190614091565b60405180610120016040528060008152602001600081526020016000801916815260200160006001600160a01b0316815260200160008152602001600015158152602001613f66604051806040016040528060608152602001606081525090565b8152602001613f736140a6565b8152602001600081525090565b828054828255906000526020600020908101928215613fbb579160200282015b82811115613fbb578251825591602001919060010190613fa0565b50613fc7929150614091565b5090565b604051806101200160405280600081526020016000815260200160006001600160a01b0316815260200160006001600160a01b031681526020016000815260200160001515815260200160608152602001613f736140a6565b604051806101200160405280600081526020016000815260200160006001600160a01b03168152602001600081526020016000815260200160008152602001600081526020016060815260200161408c60408051808201909152606081526000602082015290565b905290565b5b80821115613fc75760008155600101614092565b6040805160608082018352808252600060208301529181019190915290565b80356140d0816158df565b919050565b80516140d0816158df565b60008083601f8401126140f1578182fd5b5081356001600160401b03811115614107578182fd5b6020830191508360208260051b850101111561412257600080fd5b9250929050565b600082601f830112614139578081fd5b815160206001600160401b03821115614154576141546158c9565b8160051b614163828201615678565b83815282810190868401838801850189101561417d578687fd5b8693505b858410156141a8578051614194816158df565b835260019390930192918401918401614181565b50979650505050505050565b805180151581146140d057600080fd5b600082601f8301126141d4578081fd5b81356141e76141e2826156a8565b615678565b8181528460208386010111156141fb578283fd5b816020850160208301379081016020019190915292915050565b600082601f830112614225578081fd5b81516142336141e2826156a8565b818152846020838601011115614247578283fd5b613d8e82602083016020870161586c565b600060408284031215614269578081fd5b614271615650565b82519091506001600160401b038082111561428b57600080fd5b61429785838601614129565b835260208401519150808211156142ad57600080fd5b506142ba84828501614129565b60208301525092915050565b6000606082840312156142d7578081fd5b50919050565b6000606082840312156142ee578081fd5b604051606081016001600160401b038082118383101715614311576143116158c9565b81604052829350845191508082111561432957600080fd5b61433586838701614215565b835260208501519150614347826158f4565b816020840152604085015191508082111561436157600080fd5b5061436e85828601614215565b6040830152505092915050565b60006040828403121561438c578081fd5b614394615650565b82519091506001600160401b038111156143ad57600080fd5b6143b984828501614215565b82525060208201516143ca816158f4565b602082015292915050565b6000602082840312156143e6578081fd5b8135613c43816158df565b600060208284031215614402578081fd5b8151613c43816158df565b60008060008060808587031215614422578283fd5b843561442d816158df565b9350602085013561443d816158df565b9250604085013561444d816158df565b9150606085013561445d816158df565b939692955090935050565b60008060006060848603121561447c578081fd5b8335614487816158df565b92506020840135614497816158df565b929592945050506040919091013590565b600080604083850312156144ba578182fd5b82356144c5816158df565b946020939093013593505050565b6000806000606084860312156144e7578081fd5b83356144f2816158df565b9250602084013591506040840135614509816158df565b809150509250925092565b60008060008060808587031215614529578182fd5b8435614534816158df565b935060208501359250604085013561454b816158df565b915060608501356001600160401b03811115614565578182fd5b614571878288016141c4565b91505092959194509250565b600080600060608486031215614591578081fd5b833561459c816158df565b95602085013595506040909401359392505050565b600080600080608085870312156145c6578182fd5b84356145d1816158df565b93506020850135925060408501359150606085013561445d816158df565b600080600080600060a08688031215614606578283fd5b8535614611816158df565b94506020860135935060408601359250606086013561462f816158df565b9150608086013561463f81615901565b809150509295509295909350565b60006020828403121561465e578081fd5b613c43826141b4565b6000806000806000806000806000806101008b8d031215614686578788fd5b8a35995061469660208c016140c5565b985060408b013597506146ab60608c016140c5565b965060808b0135955060a08b01356001600160401b03808211156146cd578687fd5b6146d98e838f016142c6565b965060c08d01359150808211156146ee578586fd5b6146fa8e838f016140e0565b909650945060e08d0135915080821115614712578384fd5b5061471f8d828e016140e0565b915080935050809150509295989b9194979a5092959850565b6000806000806080858703121561474d578182fd5b843593506020850135925060408501359150606085013561445d816158df565b600080600080600080600080600060e08a8c03121561478a578283fd5b8935985060208a0135975060408a0135965060608a01356147aa816158df565b955060808a01356147ba81615901565b945060a08a01356001600160401b03808211156147d5578485fd5b6147e18d838e016140e0565b909650945060c08c01359150808211156147f9578384fd5b506148068c828d016140e0565b915080935050809150509295985092959850929598565b60008060008060808587031215614832578182fd5b84356001600160401b03811115614847578283fd5b614853878288016141c4565b945050602085013560ff81168114614869578283fd5b93969395505050506040820135916060013590565b600080600060608486031215614892578081fd5b83516001600160401b038111156148a7578182fd5b6148b386828701614215565b93505060208401519150604084015190509250925092565b60008060008060008060008060006101208a8c0312156148e9578283fd5b89516001600160401b03808211156148ff578485fd5b61490b8d838e01614215565b9a5060208c0151995060408c0151985061492760608d016140d5565b975061493560808d016140d5565b965060a08c0151955061494a60c08d016141b4565b945060e08c015191508082111561495f578384fd5b61496b8d838e01614129565b93506101008c0151915080821115614981578283fd5b5061498e8c828d016142dd565b9150509295985092959850929598565b6000806000806000806000806000806101408b8d0312156149bd578384fd5b8a516001600160401b03808211156149d3578586fd5b6149df8e838f01614215565b9b5060208d01519a5060408d015199506149fb60608e016140d5565b9850614a0960808e016140d5565b975060a08d01519650614a1e60c08e016141b4565b955060e08d0151915080821115614a33578485fd5b614a3f8e838f01614129565b94506101008d0151915080821115614a55578384fd5b50614a628d828e016142dd565b9250506101208b015190509295989b9194979a5092959850565b6000806000806000806000806000806101408b8d031215614a9b578384fd5b8a516001600160401b0380821115614ab1578586fd5b614abd8e838f01614215565b9b5060208d01519a5060408d01519950614ad960608e016140d5565b985060808d0151975060a08d0151965060c08d0151955060e08d0151915080821115614b03578485fd5b614b0f8e838f01614129565b94506101008d0151915080821115614b25578384fd5b50614a628d828e0161437b565b6000806000806000806000806000806101408b8d031215614b51578384fd5b8a516001600160401b0380821115614b67578586fd5b614b738e838f01614215565b9b5060208d01519a5060408d0151995060608d01519850614b9660808e016140d5565b975060a08d01519650614bab60c08e016141b4565b955060e08d0151915080821115614bc0578485fd5b614a3f8e838f01614258565b600060208284031215614bdd578081fd5b5035919050565b600060208284031215614bf5578081fd5b5051919050565b60008060408385031215614c0e578182fd5b50508035926020909101359150565b60008060008060808587031215614c32578182fd5b84519350602085015192506040850151614c4b816158df565b606086015190925061445d81615901565b6000815180845260208085019450808401835b83811015614c945781516001600160a01b031687529582019590820190600101614c6f565b509495945050505050565b81835260006001600160fb1b03831115614cb7578081fd5b8260051b80836020870137939093016020019283525090919050565b81835281816020850137506000828201602090810191909152601f909101601f19169091010190565b60008151808452614d1481602086016020860161586c565b601f01601f19169290920160200192915050565b60068110614d4657634e487b7160e01b600052602160045260246000fd5b9052565b60118152701cddd85c109858dad05b991499599d5b99607a1b602082015260400190565b6000614d7a82836156cf565b60608552614d8c606086018284614cd3565b9150506020830135614d9d816158f4565b614daa6020860182614d28565b50614db860408401846156cf565b8583036040870152614dcb838284614cd3565b9695505050505050565b60008251614de781846020870161586c565b9190910192915050565b60008251614e0381846020870161586c565b641dc0de008360d81b920191825250600501919050565b6001600160a01b0391909116815260200190565b6001600160a01b038d811682528c811660208301528b811660408301528a81166060830152608082018a905260a0820189905260c08201889052861660e082015263ffffffff858116610100830152841661012082015260ff83166101408201526000610180610160830152614ea8610180830184614cfc565b9e9d5050505050505050505050505050565b6001600160a01b038c16815261016060208083018290528c519183018290526000916101808401918e0190835b81811015614f05578251845260209384019390920191600101614ee7565b5050508b151560408401528281036060840152614f22818c614c5c565b905089608084015282810360a0840152614f3c818a614cfc565b9050614f4b60c0840189614d28565b82810360e0840152614f5d8188614cfc565b61010084019690965250506101208101929092526101409091015298975050505050505050565b600060018060a01b03808f1683528d60208401528c60408401528b60608401528a60808401528960a08401528860c084015280881660e08401525063ffffffff8087166101008401528086166101208401525060ff8416610140830152610180610160830152614ea8610180830184614cfc565b6001600160a01b03929092168252602082015260400190565b60006101808e83528d60208401528c604084015260ff8c1660608401528a60808401528960a084015265ffffffffffff891660c08401528760e084015263ffffffff8088166101008501528087166101208501525060ff85166101408401528061016084015261508381840185614cfc565b9f9e505050505050505050505050505050565b602081526000613c436020830184614cfc565b6080815260006150bc6080830187614cfc565b8560208401528460408401528281036060840152612ea08185614cfc565b6000610140808352601481840152506000805160206159318339815191526101608301526101808b60208401528a604084015289606084015260018060a01b03891660808401528760a084015286151560c08401528060e0840152855160408285015261514b6101c0850182614c5c565b915050602086015161017f19848303016101a085015261516b8282614c5c565b9150508281036101008401526151818186614d6e565b91505061519461012083018460ff169052565b9a9950505050505050505050565b60208082526023908201527f506f6c79676f6e436f6e6e6563746f724c6f6769633a20696e76616c696420706040820152620c2e8d60eb1b606082015260800190565b60c0815260006151f760c08301614d4a565b60208301899052604083018890526001600160a01b038716606084015282810360808401526152268187614c5c565b905082810360a084015261523b818587614c9f565b9998505050505050505050565b60c08152600061525a60c08301614d4a565b896020840152886040840152876060840152828103608084015261527f818789614c9f565b905082810360a0840152615194818587614c9f565b60208082526028908201527f506f6c79676f6e436f6e6e6563746f724c6f6769633a20616c7265616479207760408201526734ba34323930bbb760c11b606082015260800190565b6020808252602b908201527f496e697469616c697a61626c653a20636f6e7472616374206973206e6f74206960408201526a6e697469616c697a696e6760a81b606082015260800190565b60208082526025908201527f506f6c79676f6e436f6e6e6563746f724c6f6769633a206e6f7420617574686f6040820152641c9a5e995960da1b606082015260800190565b60006101608d83528c602084015260018060a01b03808d166040850152808c1660608501528a60808501528160a08501526153a98285018b614cfc565b91506153b860c085018a614d28565b871660e084015261010083018690528281036101208401526153da8186614c5c565b915050826101408301529c9b505050505050505050505050565b898152602081018990526001600160a01b038881166040830152871660608201526080810186905261012060a0820181905260009061543583820188614cfc565b905061544460c0840187614d28565b82810360e08401526154568186614c5c565b915050826101008301529a9950505050505050505050565b95865260208601949094526001600160a01b039283166040860152606085019190915260070b60808401521660a082015260c00190565b60006101008c83528b602084015260018060a01b038b1660408401528960608401528860070b60808401528760a08401528060c08401526154e98184018789614c9f565b905082810360e08401526154fe818587614c9f565b9d9c50505050505050505050505050565b60006101008a835289602084015288604084015280606084015261553581840189614cfc565b90506155446080840188614d28565b8560a08401528460c084015282810360e08401526155628185614c5c565b9b9a5050505050505050505050565b60006101408c83528b60208401528a60408401528960608401528860808401528760a08401528660c08401528060e08401526155af81840187614c5c565b90508281036101008401526155c48186614cfc565b915050615562610120830184614d28565b60006101608d83528c60208401528b60408401528a60608401528960808401528860a08401528760c08401528060e084015261561381840188614c5c565b90508281036101008401526156288187614cfc565b915050615639610120830185614d28565b826101408301529c9b505050505050505050505050565b604080519081016001600160401b0381118282101715615672576156726158c9565b60405290565b604051601f8201601f191681016001600160401b03811182821017156156a0576156a06158c9565b604052919050565b60006001600160401b038211156156c1576156c16158c9565b50601f01601f191660200190565b6000808335601e198436030181126156e5578283fd5b83016020810192503590506001600160401b0381111561570457600080fd5b80360383131561412257600080fd5b60008219821115615726576157266158b3565b500190565b60008261574657634e487b7160e01b81526012600452602481fd5b500490565b600181815b8085111561578657816000190482111561576c5761576c6158b3565b8085161561577957918102915b93841c9390800290615750565b509250929050565b6000613c4383836000826157a457506001611c17565b816157b157506000611c17565b81600181146157c757600281146157d1576157ed565b6001915050611c17565b60ff8411156157e2576157e26158b3565b50506001821b611c17565b5060208310610133831016604e8410600b8410161715615810575081810a611c17565b61581a838361574b565b806000190482111561582e5761582e6158b3565b029392505050565b6000816000190483118215151615615850576158506158b3565b500290565b600082821015615867576158676158b3565b500390565b60005b8381101561588757818101518382015260200161586f565b83811115610bae5750506000910152565b60006000198214156158ac576158ac6158b3565b5060010190565b634e487b7160e01b600052601160045260246000fd5b634e487b7160e01b600052604160045260246000fd5b6001600160a01b03811681146118ac57600080fd5b600681106118ac57600080fd5b8060070b81146118ac57600080fdfef43f17a174cd55d7d75e934475f1cec7890c2bf3fabbf376de3868f0d8ce6897737761704261636b416e64526566756e64425443000000000000000000000000506f6c79676f6e436f6e6e6563746f724c6f6769633a20696e76616c69642069a2646970667358221220805c85f6bf96222f18fa38d41b0e666f39ed4ecc443958a535deeb0ca2c0999c64736f6c63430008040033",
  "devdoc": {
    "kind": "dev",
    "methods": {
      "emergencyWithdraw(address,address,uint256)": {
        "details": "Only owner can call this"
      },
      "owner()": {
        "details": "Returns the address of the current owner."
      },
      "paused()": {
        "details": "Returns true if the contract is paused, and false otherwise."
      },
      "renounceOwnership()": {
        "details": "Leaves the contract without owner. It will not be possible to call `onlyOwner` functions. Can only be called by the current owner. NOTE: Renouncing ownership will leave the contract without an owner, thereby disabling any functionality that is only available to the owner."
      },
      "setBridgeConnectorMapping(uint256,bytes32)": {
        "params": {
          "_bridgeConnector": "Address of the bridge connector",
          "_destinationChainId": "The ID of the destination chain"
        }
      },
      "setBridgeTokenMapping(address,uint256,address)": {
        "params": {
          "_destinationToken": "Address of the token on the target chain",
          "_sourceToken": "Address of the token on the current chain"
        }
      },
      "setBridgeTokenMappingUniversal(address,uint256,bytes32)": {
        "params": {
          "_destinationChainId": "The ID of the destination chain",
          "_destinationToken": "Address of the token on the target chain (bytes32)",
          "_sourceToken": "Address of the token on the current chain"
        }
      },
      "setCurrChainId(uint256)": {
        "params": {
          "_chainId": "The new current chain ID to set."
        }
      },
      "setTokenDecimalsOnDestinationChain(address,uint256)": {
        "details": "Used for handling decimal differences (e.g., USDT: 18 on BSC, 6 on other chains)",
        "params": {
          "_decimals": "Decimals of the token on destination chains (e.g., 6 for USDT on non-BSC chains)",
          "_token": "Address of the token on the current chain"
        }
      },
      "transferOwnership(address)": {
        "details": "Transfers ownership of the contract to a new account (`newOwner`). Can only be called by the current owner."
      },
      "withdrawFundsToSourceChain(bytes,uint8,bytes32,bytes32)": {
        "details": "This function is used for both failed BTC and Rune requests",
        "params": {
          "_message": "The signed message",
          "_r": "Signature r",
          "_s": "Signature s",
          "_v": "Signature v"
        }
      },
      "withdrawFundsToSourceChainByAdminUniversal(bytes32,uint256,uint256,address,int64,bytes32[],uint256[])": {
        "details": "Owner can set the bridge percentage fee, path and amounts of the source chain swap",
        "params": {
          "_chainId": "The original request's chainId"
        }
      },
      "withdrawFundsToSourceChainByOwnerOrAdmin(address,uint256,uint256,address,int64)": {
        "details": "Owner can only set the relayer fee percentage"
      }
    },
    "version": 1
  },
  "userdoc": {
    "kind": "user",
    "methods": {
      "emergencyWithdraw(address,address,uint256)": {
        "notice": "Withdraws tokens in the emergency case"
      },
      "handleV3AcrossMessage(address,uint256,address,bytes)": {
        "notice": "Process requests coming from Ethereum (using Across V3)"
      },
      "setAcross(address)": {
        "notice": "Setter for AcrossV3"
      },
      "setAcrossAdmin(address)": {
        "notice": "Setter for Across Admin"
      },
      "setBridgeConnectorMapping(uint256,bytes32)": {
        "notice": "Setter for bridge connector mapping"
      },
      "setBridgeTokenMapping(address,uint256,address)": {
        "notice": "Setter for bridge token mapping"
      },
      "setBridgeTokenMappingUniversal(address,uint256,bytes32)": {
        "notice": "Setter for bridge token mapping universal"
      },
      "setBurnRouterProxy(address)": {
        "notice": "Setter for BurnRouterProxy"
      },
      "setCurrChainId(uint256)": {
        "notice": "Setter for chainId"
      },
      "setGasLimit(uint256)": {
        "notice": "Setter for Gas Limit"
      },
      "setLockersProxy(address)": {
        "notice": "Setter for LockersProxy"
      },
      "setRuneRouterProxy(address)": {
        "notice": "Setter for runeRouterProxy"
      },
      "setTokenDecimalsOnDestinationChain(address,uint256)": {
        "notice": "Setter for token decimals on destination chain"
      },
      "swapBackAndRefundBTCByAdmin(bytes32,address,bytes32,address,uint256,(bytes,uint8,bytes),address[],uint256[])": {
        "notice": "Called by admin to swap failed refund request to teleBTC and refund BTC to user"
      },
      "withdrawFundsToSourceChain(bytes,uint8,bytes32,bytes32)": {
        "notice": "Send back tokens to the source chain"
      },
      "withdrawFundsToSourceChainByAdminUniversal(bytes32,uint256,uint256,address,int64,bytes32[],uint256[])": {
        "notice": "Send back tokens to the source chain by owner (after a failed swap and unwrap)"
      },
      "withdrawFundsToSourceChainByOwnerOrAdmin(address,uint256,uint256,address,int64)": {
        "notice": "Send back tokens to the source chain by owner"
      }
    },
    "version": 1
  },
  "storageLayout": {
    "storage": [
      {
        "astId": 139,
        "contract": "contracts/chain_connectors/PolyConnectorLogic.sol:PolyConnectorLogic",
        "label": "_initialized",
        "offset": 0,
        "slot": "0",
        "type": "t_uint8"
      },
      {
        "astId": 142,
        "contract": "contracts/chain_connectors/PolyConnectorLogic.sol:PolyConnectorLogic",
        "label": "_initializing",
        "offset": 1,
        "slot": "0",
        "type": "t_bool"
      },
      {
        "astId": 972,
        "contract": "contracts/chain_connectors/PolyConnectorLogic.sol:PolyConnectorLogic",
        "label": "__gap",
        "offset": 0,
        "slot": "1",
        "type": "t_array(t_uint256)50_storage"
      },
      {
        "astId": 11,
        "contract": "contracts/chain_connectors/PolyConnectorLogic.sol:PolyConnectorLogic",
        "label": "_owner",
        "offset": 0,
        "slot": "51",
        "type": "t_address"
      },
      {
        "astId": 131,
        "contract": "contracts/chain_connectors/PolyConnectorLogic.sol:PolyConnectorLogic",
        "label": "__gap",
        "offset": 0,
        "slot": "52",
        "type": "t_array(t_uint256)49_storage"
      },
      {
        "astId": 444,
        "contract": "contracts/chain_connectors/PolyConnectorLogic.sol:PolyConnectorLogic",
        "label": "_status",
        "offset": 0,
        "slot": "101",
        "type": "t_uint256"
      },
      {
        "astId": 513,
        "contract": "contracts/chain_connectors/PolyConnectorLogic.sol:PolyConnectorLogic",
        "label": "__gap",
        "offset": 0,
        "slot": "102",
        "type": "t_array(t_uint256)49_storage"
      },
      {
        "astId": 323,
        "contract": "contracts/chain_connectors/PolyConnectorLogic.sol:PolyConnectorLogic",
        "label": "_paused",
        "offset": 0,
        "slot": "151",
        "type": "t_bool"
      },
      {
        "astId": 428,
        "contract": "contracts/chain_connectors/PolyConnectorLogic.sol:PolyConnectorLogic",
        "label": "__gap",
        "offset": 0,
        "slot": "152",
        "type": "t_array(t_uint256)49_storage"
      },
      {
        "astId": 9839,
        "contract": "contracts/chain_connectors/PolyConnectorLogic.sol:PolyConnectorLogic",
        "label": "lockersProxy",
        "offset": 0,
        "slot": "201",
        "type": "t_address"
      },
      {
        "astId": 9842,
        "contract": "contracts/chain_connectors/PolyConnectorLogic.sol:PolyConnectorLogic",
        "label": "burnRouterProxy",
        "offset": 0,
        "slot": "202",
        "type": "t_address"
      },
      {
        "astId": 9845,
        "contract": "contracts/chain_connectors/PolyConnectorLogic.sol:PolyConnectorLogic",
        "label": "across",
        "offset": 0,
        "slot": "203",
        "type": "t_address"
      },
      {
        "astId": 9854,
        "contract": "contracts/chain_connectors/PolyConnectorLogic.sol:PolyConnectorLogic",
        "label": "failedReqs",
        "offset": 0,
        "slot": "204",
        "type": "t_mapping(t_address,t_mapping(t_uint256,t_mapping(t_address,t_uint256)))"
      },
      {
        "astId": 9865,
        "contract": "contracts/chain_connectors/PolyConnectorLogic.sol:PolyConnectorLogic",
        "label": "newFailedReqs",
        "offset": 0,
        "slot": "205",
        "type": "t_mapping(t_address,t_mapping(t_uint256,t_mapping(t_uint256,t_mapping(t_address,t_uint256))))"
      },
      {
        "astId": 9868,
        "contract": "contracts/chain_connectors/PolyConnectorLogic.sol:PolyConnectorLogic",
        "label": "runeRouterProxy",
        "offset": 0,
        "slot": "206",
        "type": "t_address"
      },
      {
        "astId": 9870,
        "contract": "contracts/chain_connectors/PolyConnectorLogic.sol:PolyConnectorLogic",
        "label": "acrossAdmin",
        "offset": 0,
        "slot": "207",
        "type": "t_address"
      },
      {
        "astId": 9872,
        "contract": "contracts/chain_connectors/PolyConnectorLogic.sol:PolyConnectorLogic",
        "label": "gasLimit",
        "offset": 0,
        "slot": "208",
        "type": "t_uint256"
      },
      {
        "astId": 9878,
        "contract": "contracts/chain_connectors/PolyConnectorLogic.sol:PolyConnectorLogic",
        "label": "bridgeTokenMapping",
        "offset": 0,
        "slot": "209",
        "type": "t_mapping(t_address,t_mapping(t_uint256,t_address))"
      },
      {
        "astId": 9888,
        "contract": "contracts/chain_connectors/PolyConnectorLogic.sol:PolyConnectorLogic",
        "label": "newFailedReqsV2",
        "offset": 0,
        "slot": "210",
        "type": "t_mapping(t_bytes32,t_mapping(t_uint256,t_mapping(t_uint256,t_mapping(t_address,t_uint256))))"
      },
      {
        "astId": 9890,
        "contract": "contracts/chain_connectors/PolyConnectorLogic.sol:PolyConnectorLogic",
        "label": "chainId",
        "offset": 0,
        "slot": "211",
        "type": "t_uint256"
      },
      {
        "astId": 9894,
        "contract": "contracts/chain_connectors/PolyConnectorLogic.sol:PolyConnectorLogic",
        "label": "tokenDecimalsOnDestinationChain",
        "offset": 0,
        "slot": "212",
        "type": "t_mapping(t_address,t_uint256)"
      },
      {
        "astId": 9900,
        "contract": "contracts/chain_connectors/PolyConnectorLogic.sol:PolyConnectorLogic",
        "label": "processedRequests",
        "offset": 0,
        "slot": "213",
        "type": "t_mapping(t_uint256,t_mapping(t_uint256,t_bool))"
      },
      {
        "astId": 9911,
        "contract": "contracts/chain_connectors/PolyConnectorLogic.sol:PolyConnectorLogic",
        "label": "failedSwapAndUnwrapReqs",
        "offset": 0,
        "slot": "214",
        "type": "t_mapping(t_bytes32,t_mapping(t_uint256,t_mapping(t_uint256,t_mapping(t_address,t_struct(SwapAndUnwrapUniversalData)9833_storage))))"
      },
      {
        "astId": 9921,
        "contract": "contracts/chain_connectors/PolyConnectorLogic.sol:PolyConnectorLogic",
        "label": "failedWrapAndSwapRefundReqs",
        "offset": 0,
        "slot": "215",
        "type": "t_mapping(t_bytes32,t_mapping(t_uint256,t_mapping(t_bytes32,t_mapping(t_address,t_uint256))))"
      },
      {
        "astId": 9927,
        "contract": "contracts/chain_connectors/PolyConnectorLogic.sol:PolyConnectorLogic",
        "label": "bridgeTokenMappingUniversal",
        "offset": 0,
        "slot": "216",
        "type": "t_mapping(t_address,t_mapping(t_uint256,t_bytes32))"
      },
      {
        "astId": 9931,
        "contract": "contracts/chain_connectors/PolyConnectorLogic.sol:PolyConnectorLogic",
        "label": "bridgeConnectorMapping",
        "offset": 0,
        "slot": "217",
        "type": "t_mapping(t_uint256,t_bytes32)"
      }
    ],
    "types": {
      "t_address": {
        "encoding": "inplace",
        "label": "address",
        "numberOfBytes": "20"
      },
      "t_array(t_bytes32)dyn_storage": {
        "base": "t_bytes32",
        "encoding": "dynamic_array",
        "label": "bytes32[]",
        "numberOfBytes": "32"
      },
      "t_array(t_uint256)49_storage": {
        "base": "t_uint256",
        "encoding": "inplace",
        "label": "uint256[49]",
        "numberOfBytes": "1568"
      },
      "t_array(t_uint256)50_storage": {
        "base": "t_uint256",
        "encoding": "inplace",
        "label": "uint256[50]",
        "numberOfBytes": "1600"
      },
      "t_bool": {
        "encoding": "inplace",
        "label": "bool",
        "numberOfBytes": "1"
      },
      "t_bytes32": {
        "encoding": "inplace",
        "label": "bytes32",
        "numberOfBytes": "32"
      },
      "t_mapping(t_address,t_mapping(t_uint256,t_address))": {
        "encoding": "mapping",
        "key": "t_address",
        "label": "mapping(address => mapping(uint256 => address))",
        "numberOfBytes": "32",
        "value": "t_mapping(t_uint256,t_address)"
      },
      "t_mapping(t_address,t_mapping(t_uint256,t_bytes32))": {
        "encoding": "mapping",
        "key": "t_address",
        "label": "mapping(address => mapping(uint256 => bytes32))",
        "numberOfBytes": "32",
        "value": "t_mapping(t_uint256,t_bytes32)"
      },
      "t_mapping(t_address,t_mapping(t_uint256,t_mapping(t_address,t_uint256)))": {
        "encoding": "mapping",
        "key": "t_address",
        "label": "mapping(address => mapping(uint256 => mapping(address => uint256)))",
        "numberOfBytes": "32",
        "value": "t_mapping(t_uint256,t_mapping(t_address,t_uint256))"
      },
      "t_mapping(t_address,t_mapping(t_uint256,t_mapping(t_uint256,t_mapping(t_address,t_uint256))))": {
        "encoding": "mapping",
        "key": "t_address",
        "label": "mapping(address => mapping(uint256 => mapping(uint256 => mapping(address => uint256))))",
        "numberOfBytes": "32",
        "value": "t_mapping(t_uint256,t_mapping(t_uint256,t_mapping(t_address,t_uint256)))"
      },
      "t_mapping(t_address,t_struct(SwapAndUnwrapUniversalData)9833_storage)": {
        "encoding": "mapping",
        "key": "t_address",
        "label": "mapping(address => struct PolyConnectorStorage.SwapAndUnwrapUniversalData)",
        "numberOfBytes": "32",
        "value": "t_struct(SwapAndUnwrapUniversalData)9833_storage"
      },
      "t_mapping(t_address,t_uint256)": {
        "encoding": "mapping",
        "key": "t_address",
        "label": "mapping(address => uint256)",
        "numberOfBytes": "32",
        "value": "t_uint256"
      },
      "t_mapping(t_bytes32,t_mapping(t_address,t_uint256))": {
        "encoding": "mapping",
        "key": "t_bytes32",
        "label": "mapping(bytes32 => mapping(address => uint256))",
        "numberOfBytes": "32",
        "value": "t_mapping(t_address,t_uint256)"
      },
      "t_mapping(t_bytes32,t_mapping(t_uint256,t_mapping(t_bytes32,t_mapping(t_address,t_uint256))))": {
        "encoding": "mapping",
        "key": "t_bytes32",
        "label": "mapping(bytes32 => mapping(uint256 => mapping(bytes32 => mapping(address => uint256))))",
        "numberOfBytes": "32",
        "value": "t_mapping(t_uint256,t_mapping(t_bytes32,t_mapping(t_address,t_uint256)))"
      },
      "t_mapping(t_bytes32,t_mapping(t_uint256,t_mapping(t_uint256,t_mapping(t_address,t_struct(SwapAndUnwrapUniversalData)9833_storage))))": {
        "encoding": "mapping",
        "key": "t_bytes32",
        "label": "mapping(bytes32 => mapping(uint256 => mapping(uint256 => mapping(address => struct PolyConnectorStorage.SwapAndUnwrapUniversalData))))",
        "numberOfBytes": "32",
        "value": "t_mapping(t_uint256,t_mapping(t_uint256,t_mapping(t_address,t_struct(SwapAndUnwrapUniversalData)9833_storage)))"
      },
      "t_mapping(t_bytes32,t_mapping(t_uint256,t_mapping(t_uint256,t_mapping(t_address,t_uint256))))": {
        "encoding": "mapping",
        "key": "t_bytes32",
        "label": "mapping(bytes32 => mapping(uint256 => mapping(uint256 => mapping(address => uint256))))",
        "numberOfBytes": "32",
        "value": "t_mapping(t_uint256,t_mapping(t_uint256,t_mapping(t_address,t_uint256)))"
      },
      "t_mapping(t_uint256,t_address)": {
        "encoding": "mapping",
        "key": "t_uint256",
        "label": "mapping(uint256 => address)",
        "numberOfBytes": "32",
        "value": "t_address"
      },
      "t_mapping(t_uint256,t_bool)": {
        "encoding": "mapping",
        "key": "t_uint256",
        "label": "mapping(uint256 => bool)",
        "numberOfBytes": "32",
        "value": "t_bool"
      },
      "t_mapping(t_uint256,t_bytes32)": {
        "encoding": "mapping",
        "key": "t_uint256",
        "label": "mapping(uint256 => bytes32)",
        "numberOfBytes": "32",
        "value": "t_bytes32"
      },
      "t_mapping(t_uint256,t_mapping(t_address,t_struct(SwapAndUnwrapUniversalData)9833_storage))": {
        "encoding": "mapping",
        "key": "t_uint256",
        "label": "mapping(uint256 => mapping(address => struct PolyConnectorStorage.SwapAndUnwrapUniversalData))",
        "numberOfBytes": "32",
        "value": "t_mapping(t_address,t_struct(SwapAndUnwrapUniversalData)9833_storage)"
      },
      "t_mapping(t_uint256,t_mapping(t_address,t_uint256))": {
        "encoding": "mapping",
        "key": "t_uint256",
        "label": "mapping(uint256 => mapping(address => uint256))",
        "numberOfBytes": "32",
        "value": "t_mapping(t_address,t_uint256)"
      },
      "t_mapping(t_uint256,t_mapping(t_bytes32,t_mapping(t_address,t_uint256)))": {
        "encoding": "mapping",
        "key": "t_uint256",
        "label": "mapping(uint256 => mapping(bytes32 => mapping(address => uint256)))",
        "numberOfBytes": "32",
        "value": "t_mapping(t_bytes32,t_mapping(t_address,t_uint256))"
      },
      "t_mapping(t_uint256,t_mapping(t_uint256,t_bool))": {
        "encoding": "mapping",
        "key": "t_uint256",
        "label": "mapping(uint256 => mapping(uint256 => bool))",
        "numberOfBytes": "32",
        "value": "t_mapping(t_uint256,t_bool)"
      },
      "t_mapping(t_uint256,t_mapping(t_uint256,t_mapping(t_address,t_struct(SwapAndUnwrapUniversalData)9833_storage)))": {
        "encoding": "mapping",
        "key": "t_uint256",
        "label": "mapping(uint256 => mapping(uint256 => mapping(address => struct PolyConnectorStorage.SwapAndUnwrapUniversalData)))",
        "numberOfBytes": "32",
        "value": "t_mapping(t_uint256,t_mapping(t_address,t_struct(SwapAndUnwrapUniversalData)9833_storage))"
      },
      "t_mapping(t_uint256,t_mapping(t_uint256,t_mapping(t_address,t_uint256)))": {
        "encoding": "mapping",
        "key": "t_uint256",
        "label": "mapping(uint256 => mapping(uint256 => mapping(address => uint256)))",
        "numberOfBytes": "32",
        "value": "t_mapping(t_uint256,t_mapping(t_address,t_uint256))"
      },
      "t_struct(SwapAndUnwrapUniversalData)9833_storage": {
        "encoding": "inplace",
        "label": "struct PolyConnectorStorage.SwapAndUnwrapUniversalData",
        "members": [
          {
            "astId": 9830,
            "contract": "contracts/chain_connectors/PolyConnectorLogic.sol:PolyConnectorLogic",
            "label": "pathFromInputToIntermediaryOnSourceChain",
            "offset": 0,
            "slot": "0",
            "type": "t_array(t_bytes32)dyn_storage"
          },
          {
            "astId": 9832,
            "contract": "contracts/chain_connectors/PolyConnectorLogic.sol:PolyConnectorLogic",
            "label": "intermediaryTokenAmount",
            "offset": 0,
            "slot": "1",
            "type": "t_uint256"
          }
        ],
        "numberOfBytes": "64"
      },
      "t_uint256": {
        "encoding": "inplace",
        "label": "uint256",
        "numberOfBytes": "32"
      },
      "t_uint8": {
        "encoding": "inplace",
        "label": "uint8",
        "numberOfBytes": "1"
      }
    }
  }
}