{
  "address": "0xaF54Ed19C9621d7e8395fC7e2e824611e6B5050B",
  "abi": [
    {
      "inputs": [],
      "name": "ZeroAddress",
      "type": "error"
    },
    {
      "anonymous": false,
      "inputs": [
        {
          "indexed": false,
          "internalType": "address",
          "name": "oldAcross",
          "type": "address"
        },
        {
          "indexed": false,
          "internalType": "address",
          "name": "newAcross",
          "type": "address"
        }
      ],
      "name": "AcrossUpdated",
      "type": "event"
    },
    {
      "anonymous": false,
      "inputs": [
        {
          "indexed": false,
          "internalType": "address",
          "name": "oldBurnRouter",
          "type": "address"
        },
        {
          "indexed": false,
          "internalType": "address",
          "name": "newBurnRouter",
          "type": "address"
        }
      ],
      "name": "BurnRouterUpdated",
      "type": "event"
    },
    {
      "anonymous": false,
      "inputs": [
        {
          "indexed": false,
          "internalType": "address",
          "name": "oldEthConnector",
          "type": "address"
        },
        {
          "indexed": false,
          "internalType": "address",
          "name": "newEthConnector",
          "type": "address"
        }
      ],
      "name": "EthConnectorUpdated",
      "type": "event"
    },
    {
      "anonymous": false,
      "inputs": [
        {
          "indexed": false,
          "internalType": "uint256",
          "name": "uniqueCounter",
          "type": "uint256"
        },
        {
          "indexed": false,
          "internalType": "uint256",
          "name": "chainId",
          "type": "uint256"
        },
        {
          "indexed": false,
          "internalType": "address",
          "name": "exchangeConnector",
          "type": "address"
        },
        {
          "indexed": false,
          "internalType": "address",
          "name": "inputToken",
          "type": "address"
        },
        {
          "indexed": false,
          "internalType": "uint256",
          "name": "inputAmount",
          "type": "uint256"
        },
        {
          "indexed": true,
          "internalType": "address",
          "name": "userTargetAddress",
          "type": "address"
        },
        {
          "indexed": false,
          "internalType": "bytes",
          "name": "userScript",
          "type": "bytes"
        },
        {
          "indexed": false,
          "internalType": "enum ScriptTypes",
          "name": "scriptType",
          "type": "uint8"
        },
        {
          "indexed": false,
          "internalType": "address[]",
          "name": "path",
          "type": "address[]"
        },
        {
          "indexed": false,
          "internalType": "uint256",
          "name": "thirdPartyId",
          "type": "uint256"
        }
      ],
      "name": "FailedSwapAndUnwrap",
      "type": "event"
    },
    {
      "anonymous": false,
      "inputs": [
        {
          "indexed": false,
          "internalType": "uint256",
          "name": "uniqueCounter",
          "type": "uint256"
        },
        {
          "indexed": false,
          "internalType": "uint256",
          "name": "chainId",
          "type": "uint256"
        },
        {
          "indexed": true,
          "internalType": "address",
          "name": "userTargetAddress",
          "type": "address"
        },
        {
          "indexed": false,
          "internalType": "uint256",
          "name": "thirdPartyId",
          "type": "uint256"
        },
        {
          "indexed": false,
          "internalType": "uint256",
          "name": "internalId",
          "type": "uint256"
        },
        {
          "indexed": false,
          "internalType": "uint256",
          "name": "appId",
          "type": "uint256"
        },
        {
          "indexed": false,
          "internalType": "uint256",
          "name": "amount",
          "type": "uint256"
        },
        {
          "indexed": false,
          "internalType": "uint256",
          "name": "inputAmount",
          "type": "uint256"
        },
        {
          "indexed": false,
          "internalType": "address[]",
          "name": "path",
          "type": "address[]"
        },
        {
          "indexed": false,
          "internalType": "bytes",
          "name": "userScript",
          "type": "bytes"
        },
        {
          "indexed": false,
          "internalType": "enum ScriptTypes",
          "name": "scriptType",
          "type": "uint8"
        }
      ],
      "name": "FailedSwapAndUnwrapRune",
      "type": "event"
    },
    {
      "anonymous": false,
      "inputs": [
        {
          "indexed": false,
          "internalType": "uint256",
          "name": "uniqueCounter",
          "type": "uint256"
        },
        {
          "indexed": false,
          "internalType": "uint256",
          "name": "chainId",
          "type": "uint256"
        },
        {
          "indexed": false,
          "internalType": "address",
          "name": "exchangeConnector",
          "type": "address"
        },
        {
          "indexed": false,
          "internalType": "address",
          "name": "inputToken",
          "type": "address"
        },
        {
          "indexed": false,
          "internalType": "uint256",
          "name": "inputAmount",
          "type": "uint256"
        },
        {
          "indexed": true,
          "internalType": "bytes32",
          "name": "userTargetAddress",
          "type": "bytes32"
        },
        {
          "indexed": false,
          "internalType": "bytes",
          "name": "userScript",
          "type": "bytes"
        },
        {
          "indexed": false,
          "internalType": "enum ScriptTypes",
          "name": "scriptType",
          "type": "uint8"
        },
        {
          "indexed": false,
          "internalType": "address[]",
          "name": "path",
          "type": "address[]"
        },
        {
          "indexed": false,
          "internalType": "uint256",
          "name": "thirdPartyId",
          "type": "uint256"
        }
      ],
      "name": "FailedSwapAndUnwrapV2",
      "type": "event"
    },
    {
      "anonymous": false,
      "inputs": [
        {
          "indexed": false,
          "internalType": "uint8",
          "name": "version",
          "type": "uint8"
        }
      ],
      "name": "Initialized",
      "type": "event"
    },
    {
      "anonymous": false,
      "inputs": [
        {
          "indexed": false,
          "internalType": "address",
          "name": "oldLockersProxy",
          "type": "address"
        },
        {
          "indexed": false,
          "internalType": "address",
          "name": "newLockersProxy",
          "type": "address"
        }
      ],
      "name": "LockersProxyUpdated",
      "type": "event"
    },
    {
      "anonymous": false,
      "inputs": [
        {
          "indexed": false,
          "internalType": "string",
          "name": "functionName",
          "type": "string"
        },
        {
          "indexed": false,
          "internalType": "uint256",
          "name": "uniqueCounter",
          "type": "uint256"
        },
        {
          "indexed": false,
          "internalType": "uint256",
          "name": "chainId",
          "type": "uint256"
        },
        {
          "indexed": false,
          "internalType": "bytes",
          "name": "data",
          "type": "bytes"
        }
      ],
      "name": "MsgReceived",
      "type": "event"
    },
    {
      "anonymous": false,
      "inputs": [
        {
          "indexed": false,
          "internalType": "uint256",
          "name": "uniqueCounter",
          "type": "uint256"
        },
        {
          "indexed": false,
          "internalType": "uint256",
          "name": "chainId",
          "type": "uint256"
        },
        {
          "indexed": false,
          "internalType": "address",
          "name": "exchangeConnector",
          "type": "address"
        },
        {
          "indexed": false,
          "internalType": "address",
          "name": "inputToken",
          "type": "address"
        },
        {
          "indexed": false,
          "internalType": "uint256",
          "name": "inputAmount",
          "type": "uint256"
        },
        {
          "indexed": true,
          "internalType": "address",
          "name": "userTargetAddress",
          "type": "address"
        },
        {
          "indexed": false,
          "internalType": "bytes",
          "name": "userScript",
          "type": "bytes"
        },
        {
          "indexed": false,
          "internalType": "enum ScriptTypes",
          "name": "scriptType",
          "type": "uint8"
        },
        {
          "indexed": false,
          "internalType": "address",
          "name": "lockerTargetAddress",
          "type": "address"
        },
        {
          "indexed": false,
          "internalType": "uint256",
          "name": "requestIdOfLocker",
          "type": "uint256"
        },
        {
          "indexed": false,
          "internalType": "address[]",
          "name": "path",
          "type": "address[]"
        },
        {
          "indexed": false,
          "internalType": "uint256",
          "name": "thirdPartyId",
          "type": "uint256"
        }
      ],
      "name": "NewSwapAndUnwrap",
      "type": "event"
    },
    {
      "anonymous": false,
      "inputs": [
        {
          "indexed": false,
          "internalType": "uint256",
          "name": "uniqueCounter",
          "type": "uint256"
        },
        {
          "indexed": false,
          "internalType": "uint256",
          "name": "chainId",
          "type": "uint256"
        },
        {
          "indexed": true,
          "internalType": "address",
          "name": "userTargetAddress",
          "type": "address"
        },
        {
          "indexed": false,
          "internalType": "uint256",
          "name": "thirdPartyId",
          "type": "uint256"
        },
        {
          "indexed": false,
          "internalType": "uint256",
          "name": "internalId",
          "type": "uint256"
        },
        {
          "indexed": false,
          "internalType": "uint256",
          "name": "appId",
          "type": "uint256"
        },
        {
          "indexed": false,
          "internalType": "uint256",
          "name": "amount",
          "type": "uint256"
        },
        {
          "indexed": false,
          "internalType": "uint256",
          "name": "inputAmount",
          "type": "uint256"
        },
        {
          "indexed": false,
          "internalType": "address[]",
          "name": "path",
          "type": "address[]"
        },
        {
          "indexed": false,
          "internalType": "bytes",
          "name": "userScript",
          "type": "bytes"
        },
        {
          "indexed": false,
          "internalType": "enum ScriptTypes",
          "name": "scriptType",
          "type": "uint8"
        },
        {
          "indexed": false,
          "internalType": "uint256",
          "name": "requestIdOfLocker",
          "type": "uint256"
        }
      ],
      "name": "NewSwapAndUnwrapRune",
      "type": "event"
    },
    {
      "anonymous": false,
      "inputs": [
        {
          "indexed": false,
          "internalType": "uint256",
          "name": "uniqueCounter",
          "type": "uint256"
        },
        {
          "indexed": false,
          "internalType": "uint256",
          "name": "chainId",
          "type": "uint256"
        },
        {
          "indexed": false,
          "internalType": "address",
          "name": "exchangeConnector",
          "type": "address"
        },
        {
          "indexed": false,
          "internalType": "address",
          "name": "inputToken",
          "type": "address"
        },
        {
          "indexed": false,
          "internalType": "uint256",
          "name": "inputAmount",
          "type": "uint256"
        },
        {
          "indexed": true,
          "internalType": "bytes32",
          "name": "userTargetAddress",
          "type": "bytes32"
        },
        {
          "indexed": false,
          "internalType": "bytes",
          "name": "userScript",
          "type": "bytes"
        },
        {
          "indexed": false,
          "internalType": "enum ScriptTypes",
          "name": "scriptType",
          "type": "uint8"
        },
        {
          "indexed": false,
          "internalType": "address",
          "name": "lockerTargetAddress",
          "type": "address"
        },
        {
          "indexed": false,
          "internalType": "uint256",
          "name": "requestIdOfLocker",
          "type": "uint256"
        },
        {
          "indexed": false,
          "internalType": "address[]",
          "name": "path",
          "type": "address[]"
        },
        {
          "indexed": false,
          "internalType": "uint256",
          "name": "thirdPartyId",
          "type": "uint256"
        }
      ],
      "name": "NewSwapAndUnwrapV2",
      "type": "event"
    },
    {
      "anonymous": false,
      "inputs": [
        {
          "indexed": true,
          "internalType": "address",
          "name": "previousOwner",
          "type": "address"
        },
        {
          "indexed": true,
          "internalType": "address",
          "name": "newOwner",
          "type": "address"
        }
      ],
      "name": "OwnershipTransferred",
      "type": "event"
    },
    {
      "anonymous": false,
      "inputs": [
        {
          "indexed": false,
          "internalType": "address",
          "name": "account",
          "type": "address"
        }
      ],
      "name": "Paused",
      "type": "event"
    },
    {
      "anonymous": false,
      "inputs": [
        {
          "indexed": false,
          "internalType": "address",
          "name": "account",
          "type": "address"
        }
      ],
      "name": "Unpaused",
      "type": "event"
    },
    {
      "anonymous": false,
      "inputs": [
        {
          "indexed": false,
          "internalType": "uint256",
          "name": "uniqueCounter",
          "type": "uint256"
        },
        {
          "indexed": false,
          "internalType": "uint256",
          "name": "chainId",
          "type": "uint256"
        },
        {
          "indexed": false,
          "internalType": "address",
          "name": "token",
          "type": "address"
        },
        {
          "indexed": false,
          "internalType": "uint256",
          "name": "amount",
          "type": "uint256"
        },
        {
          "indexed": false,
          "internalType": "int64",
          "name": "relayerFeePercentage",
          "type": "int64"
        },
        {
          "indexed": false,
          "internalType": "address",
          "name": "user",
          "type": "address"
        }
      ],
      "name": "WithdrawnFundsToSourceChain",
      "type": "event"
    },
    {
      "anonymous": false,
      "inputs": [
        {
          "indexed": false,
          "internalType": "uint256",
          "name": "uniqueCounter",
          "type": "uint256"
        },
        {
          "indexed": false,
          "internalType": "uint256",
          "name": "chainId",
          "type": "uint256"
        },
        {
          "indexed": false,
          "internalType": "address",
          "name": "token",
          "type": "address"
        },
        {
          "indexed": false,
          "internalType": "uint256",
          "name": "amount",
          "type": "uint256"
        },
        {
          "indexed": false,
          "internalType": "int64",
          "name": "relayerFeePercentage",
          "type": "int64"
        },
        {
          "indexed": false,
          "internalType": "bytes32",
          "name": "refundAddress",
          "type": "bytes32"
        }
      ],
      "name": "WithdrawnFundsToSourceChainV2",
      "type": "event"
    },
    {
      "inputs": [],
      "name": "ETH_ADDR",
      "outputs": [
        {
          "internalType": "address",
          "name": "",
          "type": "address"
        }
      ],
      "stateMutability": "view",
      "type": "function"
    },
    {
      "inputs": [],
      "name": "across",
      "outputs": [
        {
          "internalType": "address",
          "name": "",
          "type": "address"
        }
      ],
      "stateMutability": "view",
      "type": "function"
    },
    {
      "inputs": [],
      "name": "acrossAdmin",
      "outputs": [
        {
          "internalType": "address",
          "name": "",
          "type": "address"
        }
      ],
      "stateMutability": "view",
      "type": "function"
    },
    {
      "inputs": [
        {
          "internalType": "address",
          "name": "",
          "type": "address"
        },
        {
          "internalType": "uint256",
          "name": "",
          "type": "uint256"
        }
      ],
      "name": "bridgeTokenMapping",
      "outputs": [
        {
          "internalType": "address",
          "name": "",
          "type": "address"
        }
      ],
      "stateMutability": "view",
      "type": "function"
    },
    {
      "inputs": [],
      "name": "burnRouterProxy",
      "outputs": [
        {
          "internalType": "address",
          "name": "",
          "type": "address"
        }
      ],
      "stateMutability": "view",
      "type": "function"
    },
    {
      "inputs": [],
      "name": "chainId",
      "outputs": [
        {
          "internalType": "uint256",
          "name": "",
          "type": "uint256"
        }
      ],
      "stateMutability": "view",
      "type": "function"
    },
    {
      "inputs": [
        {
          "internalType": "address",
          "name": "_token",
          "type": "address"
        },
        {
          "internalType": "address",
          "name": "_to",
          "type": "address"
        },
        {
          "internalType": "uint256",
          "name": "_amount",
          "type": "uint256"
        }
      ],
      "name": "emergencyWithdraw",
      "outputs": [],
      "stateMutability": "nonpayable",
      "type": "function"
    },
    {
      "inputs": [
        {
          "internalType": "address",
          "name": "",
          "type": "address"
        },
        {
          "internalType": "uint256",
          "name": "",
          "type": "uint256"
        },
        {
          "internalType": "address",
          "name": "",
          "type": "address"
        }
      ],
      "name": "failedReqs",
      "outputs": [
        {
          "internalType": "uint256",
          "name": "",
          "type": "uint256"
        }
      ],
      "stateMutability": "view",
      "type": "function"
    },
    {
      "inputs": [],
      "name": "gasLimit",
      "outputs": [
        {
          "internalType": "uint256",
          "name": "",
          "type": "uint256"
        }
      ],
      "stateMutability": "view",
      "type": "function"
    },
    {
      "inputs": [
        {
          "internalType": "address",
          "name": "_tokenSent",
          "type": "address"
        },
        {
          "internalType": "uint256",
          "name": "_amount",
          "type": "uint256"
        },
        {
          "internalType": "address",
          "name": "",
          "type": "address"
        },
        {
          "internalType": "bytes",
          "name": "_message",
          "type": "bytes"
        }
      ],
      "name": "handleV3AcrossMessage",
      "outputs": [],
      "stateMutability": "nonpayable",
      "type": "function"
    },
    {
      "inputs": [
        {
          "internalType": "address",
          "name": "_lockersProxy",
          "type": "address"
        },
        {
          "internalType": "address",
          "name": "_burnRouterProxy",
          "type": "address"
        },
        {
          "internalType": "address",
          "name": "_across",
          "type": "address"
        },
        {
          "internalType": "address",
          "name": "_runeRouterProxy",
          "type": "address"
        }
      ],
      "name": "initialize",
      "outputs": [],
      "stateMutability": "nonpayable",
      "type": "function"
    },
    {
      "inputs": [],
      "name": "lockersProxy",
      "outputs": [
        {
          "internalType": "address",
          "name": "",
          "type": "address"
        }
      ],
      "stateMutability": "view",
      "type": "function"
    },
    {
      "inputs": [
        {
          "internalType": "address",
          "name": "",
          "type": "address"
        },
        {
          "internalType": "uint256",
          "name": "",
          "type": "uint256"
        },
        {
          "internalType": "uint256",
          "name": "",
          "type": "uint256"
        },
        {
          "internalType": "address",
          "name": "",
          "type": "address"
        }
      ],
      "name": "newFailedReqs",
      "outputs": [
        {
          "internalType": "uint256",
          "name": "",
          "type": "uint256"
        }
      ],
      "stateMutability": "view",
      "type": "function"
    },
    {
      "inputs": [
        {
          "internalType": "bytes32",
          "name": "",
          "type": "bytes32"
        },
        {
          "internalType": "uint256",
          "name": "",
          "type": "uint256"
        },
        {
          "internalType": "uint256",
          "name": "",
          "type": "uint256"
        },
        {
          "internalType": "address",
          "name": "",
          "type": "address"
        }
      ],
      "name": "newFailedReqsV2",
      "outputs": [
        {
          "internalType": "uint256",
          "name": "",
          "type": "uint256"
        }
      ],
      "stateMutability": "view",
      "type": "function"
    },
    {
      "inputs": [],
      "name": "owner",
      "outputs": [
        {
          "internalType": "address",
          "name": "",
          "type": "address"
        }
      ],
      "stateMutability": "view",
      "type": "function"
    },
    {
      "inputs": [],
      "name": "paused",
      "outputs": [
        {
          "internalType": "bool",
          "name": "",
          "type": "bool"
        }
      ],
      "stateMutability": "view",
      "type": "function"
    },
    {
      "inputs": [],
      "name": "renounceOwnership",
      "outputs": [],
      "stateMutability": "nonpayable",
      "type": "function"
    },
    {
      "inputs": [],
      "name": "runeRouterProxy",
      "outputs": [
        {
          "internalType": "address",
          "name": "",
          "type": "address"
        }
      ],
      "stateMutability": "view",
      "type": "function"
    },
    {
      "inputs": [
        {
          "internalType": "address",
          "name": "_across",
          "type": "address"
        }
      ],
      "name": "setAcross",
      "outputs": [],
      "stateMutability": "nonpayable",
      "type": "function"
    },
    {
      "inputs": [
        {
          "internalType": "address",
          "name": "_acrossAdmin",
          "type": "address"
        }
      ],
      "name": "setAcrossAdmin",
      "outputs": [],
      "stateMutability": "nonpayable",
      "type": "function"
    },
    {
      "inputs": [
        {
          "internalType": "address",
          "name": "_sourceToken",
          "type": "address"
        },
        {
          "internalType": "uint256",
          "name": "_destinationChainId",
          "type": "uint256"
        },
        {
          "internalType": "address",
          "name": "_destinationToken",
          "type": "address"
        }
      ],
      "name": "setBridgeTokenMapping",
      "outputs": [],
      "stateMutability": "nonpayable",
      "type": "function"
    },
    {
      "inputs": [
        {
          "internalType": "address",
          "name": "_burnRouterProxy",
          "type": "address"
        }
      ],
      "name": "setBurnRouterProxy",
      "outputs": [],
      "stateMutability": "nonpayable",
      "type": "function"
    },
    {
      "inputs": [
        {
          "internalType": "uint256",
          "name": "_chainId",
          "type": "uint256"
        }
      ],
      "name": "setChainId",
      "outputs": [],
      "stateMutability": "nonpayable",
      "type": "function"
    },
    {
      "inputs": [
        {
          "internalType": "uint256",
          "name": "_gasLimit",
          "type": "uint256"
        }
      ],
      "name": "setGasLimit",
      "outputs": [],
      "stateMutability": "nonpayable",
      "type": "function"
    },
    {
      "inputs": [
        {
          "internalType": "address",
          "name": "_lockersProxy",
          "type": "address"
        }
      ],
      "name": "setLockersProxy",
      "outputs": [],
      "stateMutability": "nonpayable",
      "type": "function"
    },
    {
      "inputs": [
        {
          "internalType": "address",
          "name": "_runeRouterProxy",
          "type": "address"
        }
      ],
      "name": "setRuneRouterProxy",
      "outputs": [],
      "stateMutability": "nonpayable",
      "type": "function"
    },
    {
      "inputs": [
        {
          "internalType": "address",
          "name": "_token",
          "type": "address"
        },
        {
          "internalType": "uint256",
          "name": "_decimals",
          "type": "uint256"
        }
      ],
      "name": "setTokenDecimalsOnDestinationChain",
      "outputs": [],
      "stateMutability": "nonpayable",
      "type": "function"
    },
    {
      "inputs": [
        {
          "internalType": "address",
          "name": "",
          "type": "address"
        }
      ],
      "name": "tokenDecimalsOnDestinationChain",
      "outputs": [
        {
          "internalType": "uint256",
          "name": "",
          "type": "uint256"
        }
      ],
      "stateMutability": "view",
      "type": "function"
    },
    {
      "inputs": [
        {
          "internalType": "address",
          "name": "newOwner",
          "type": "address"
        }
      ],
      "name": "transferOwnership",
      "outputs": [],
      "stateMutability": "nonpayable",
      "type": "function"
    },
    {
      "inputs": [
        {
          "internalType": "bytes",
          "name": "_message",
          "type": "bytes"
        },
        {
          "internalType": "uint8",
          "name": "_v",
          "type": "uint8"
        },
        {
          "internalType": "bytes32",
          "name": "_r",
          "type": "bytes32"
        },
        {
          "internalType": "bytes32",
          "name": "_s",
          "type": "bytes32"
        }
      ],
      "name": "withdrawFundsToSourceChain",
      "outputs": [],
      "stateMutability": "nonpayable",
      "type": "function"
    },
    {
      "inputs": [
        {
          "internalType": "bytes32",
          "name": "_refundAddress",
          "type": "bytes32"
        },
        {
          "internalType": "uint256",
          "name": "_chainId",
          "type": "uint256"
        },
        {
          "internalType": "uint256",
          "name": "_uniqueCounter",
          "type": "uint256"
        },
        {
          "internalType": "address",
          "name": "_token",
          "type": "address"
        },
        {
          "internalType": "int64",
          "name": "_bridgePercentageFee",
          "type": "int64"
        }
      ],
      "name": "withdrawFundsToSourceChainByAdminV2",
      "outputs": [],
      "stateMutability": "nonpayable",
      "type": "function"
    },
    {
      "inputs": [
        {
          "internalType": "address",
          "name": "_user",
          "type": "address"
        },
        {
          "internalType": "uint256",
          "name": "_chainId",
          "type": "uint256"
        },
        {
          "internalType": "uint256",
          "name": "_uniqueCounter",
          "type": "uint256"
        },
        {
          "internalType": "address",
          "name": "_token",
          "type": "address"
        },
        {
          "internalType": "int64",
          "name": "_relayerFeePercentage",
          "type": "int64"
        }
      ],
      "name": "withdrawFundsToSourceChainByOwnerOrAdmin",
      "outputs": [],
      "stateMutability": "nonpayable",
      "type": "function"
    },
    {
      "stateMutability": "payable",
      "type": "receive"
    }
  ],
  "transactionHash": "0x4ae15ef84931efd3cd43d98b5499f5993ad92cbe50c73ec99ff1617f50614a25",
  "args": [],
  "numDeployments": 1,
  "solcInputHash": "76e1e727b01670ad568f02e964635c4b",
  "bytecode": "0x608060405234801561001057600080fd5b506142cf806100206000396000f3fe6080604052600436106101775760003560e01c80630474b8fb146101835780630597865c146101c35780630d2c8c70146101f05780630daada01146102375780631dbd94ff14610259578063292c1d9214610279578063296079f1146102995780633a5be8cb146102b95780633e938097146102d95780633f8c6ae0146102f95780634d6e8f9d1461031957806359841888146103395780635c975abb146103595780635f9491291461037c57806361be10f2146103bd578063715018a6146103dd5780637753f47b146103f257806377902f071461041a578063864205031461043a578063878269b51461045a57806387c554f81461047a5780638907eb5c1461049a5780638da5cb5b146104d85780639a8a0592146104ed578063baf7f91814610503578063d7fe6b7d1461054a578063e63ea4081461056a578063ee7d72b41461058a578063ef0e2ff4146105aa578063f2fde38b146105ca578063f68016b7146105ea578063f8c8765e1461060057600080fd5b3661017e57005b600080fd5b34801561018f57600080fd5b506101b061019e366004613354565b60d46020526000908152604090205481565b6040519081526020015b60405180910390f35b3480156101cf57600080fd5b5060ce546101e3906001600160a01b031681565b6040516101ba9190613a78565b3480156101fc57600080fd5b506101b061020b3660046135b2565b60d260209081526000948552604080862082529385528385208152918452828420909152825290205481565b34801561024357600080fd5b506102576102523660046135e7565b610620565b005b34801561026557600080fd5b50610257610274366004613354565b610756565b34801561028557600080fd5b5060cb546101e3906001600160a01b031681565b3480156102a557600080fd5b5060c9546101e3906001600160a01b031681565b3480156102c557600080fd5b506102576102d4366004613493565b6107a9565b3480156102e557600080fd5b506102576102f436600461361e565b610997565b34801561030557600080fd5b5060ca546101e3906001600160a01b031681565b34801561032557600080fd5b50610257610334366004613354565b610a78565b34801561034557600080fd5b50610257610354366004613354565b610acb565b34801561036557600080fd5b5060975460ff1660405190151581526020016101ba565b34801561038857600080fd5b506101e3610397366004613427565b60d16020908152600092835260408084209091529082529020546001600160a01b031681565b3480156103c957600080fd5b506102576103d8366004613354565b610b1e565b3480156103e957600080fd5b50610257610b71565b3480156103fe57600080fd5b506101e373eeeeeeeeeeeeeeeeeeeeeeeeeeeeeeeeeeeeeeee81565b34801561042657600080fd5b50610257610435366004613427565b610b85565b34801561044657600080fd5b5061025761045536600461353a565b610ba9565b34801561046657600080fd5b50610257610475366004613354565b610c8b565b34801561048657600080fd5b5060cf546101e3906001600160a01b031681565b3480156104a657600080fd5b506101b06104b5366004613452565b60cc60209081526000938452604080852082529284528284209052825290205481565b3480156104e457600080fd5b506101e3610cb5565b3480156104f957600080fd5b506101b060d35481565b34801561050f57600080fd5b506101b061051e3660046134fc565b60cd60209081526000948552604080862082529385528385208152918452828420909152825290205481565b34801561055657600080fd5b50610257610565366004613452565b610cc4565b34801561057657600080fd5b506102576105853660046133e7565b610d07565b34801561059657600080fd5b506102576105a5366004613933565b610e0a565b3480156105b657600080fd5b506102576105c5366004613933565b610e17565b3480156105d657600080fd5b506102576105e5366004613354565b610e24565b3480156105f657600080fd5b506101b060d05481565b34801561060c57600080fd5b5061025761061b36600461338c565b610e9d565b61062861100b565b60cf546001600160a01b03163314806106595750610644610cb5565b6001600160a01b0316336001600160a01b0316145b61067e5760405162461bcd60e51b815260040161067590613d8b565b60405180910390fd5b600085815260d260209081526040808320878452825280832086845282528083206001600160a01b038616845290915281208054919055806106d25760405162461bcd60e51b815260040161067590613cf8565b6106df8686858486611065565b60408051858152602081018790526001600160a01b0385169181019190915260608101829052600783900b608082015260a081018790527f73f04e25d893c427907bd37b5f4a3f289020af48582a9647567c143376c571e59060c0015b60405180910390a15061074f6001606555565b5050505050565b61075e6112ab565b806001600160a01b0381166107865760405163d92e233d60e01b815260040160405180910390fd5b5060ce80546001600160a01b0319166001600160a01b0392909216919091179055565b6107b161100b565b60d0545a10156108035760405162461bcd60e51b815260206004820152601e60248201527f506f6c79676f6e436f6e6e6563746f724c6f6769633a206c6f772067617300006044820152606401610675565b60cb546001600160a01b031633146108675760405162461bcd60e51b815260206004820152602160248201527f506f6c79676f6e436f6e6e6563746f724c6f6769633a206e6f74206163726f736044820152607360f81b6064820152608401610675565b60008060006108758461130a565b9250925092507fd8883c6af9aa96506569d2db74cafb52037a26374320a8aeaf9fd5cd7df3d228838383876040516108b09493929190613c84565b60405180910390a16108e7836040518060400160405280600d81526020016c073776170416e64556e7772617609c1b8152506113f7565b156108fc576108f7868589611451565b610984565b61092f836040518060400160405280601181526020017073776170416e64556e7772617052756e6560781b8152506113f7565b1561093f576108f78685896119a4565b610974836040518060400160405280601381526020017273776170416e64556e77726170536f6c616e6160681b8152506113f7565b1561098457610984868589611df5565b5050506109916001606555565b50505050565b61099f61100b565b60006109ad8584848761228b565b9050600080600080888060200190518101906109c99190613963565b6001600160a01b03898116600090815260cd6020908152604080832088845282528083208784528252808320938616835292905290812080549190559397509195509350915080610a2c5760405162461bcd60e51b815260040161067590613cf8565b610a3986868584866123ba565b60008051602061427a83398151915284868584868b604051610a6096959493929190613eba565b60405180910390a15050505050506109916001606555565b610a806112ab565b806001600160a01b038116610aa85760405163d92e233d60e01b815260040160405180910390fd5b5060ca80546001600160a01b0319166001600160a01b0392909216919091179055565b610ad36112ab565b806001600160a01b038116610afb5760405163d92e233d60e01b815260040160405180910390fd5b5060c980546001600160a01b0319166001600160a01b0392909216919091179055565b610b266112ab565b806001600160a01b038116610b4e5760405163d92e233d60e01b815260040160405180910390fd5b5060cb80546001600160a01b0319166001600160a01b0392909216919091179055565b610b796112ab565b610b836000612530565b565b610b8d6112ab565b6001600160a01b03909116600090815260d46020526040902055565b610bb161100b565b60cf546001600160a01b0316331480610be25750610bcd610cb5565b6001600160a01b0316336001600160a01b0316145b610bfe5760405162461bcd60e51b815260040161067590613d8b565b6001600160a01b03858116600090815260cd60209081526040808320888452825280832087845282528083209386168352929052908120805491905580610c575760405162461bcd60e51b815260040161067590613cf8565b610c6486868584866123ba565b60008051602061427a83398151915284868584868b60405161073c96959493929190613eba565b610c936112ab565b60cf80546001600160a01b0319166001600160a01b0392909216919091179055565b6033546001600160a01b031690565b610ccc6112ab565b6001600160a01b03928316600090815260d1602090815260408083209483529390529190912080546001600160a01b03191691909216179055565b610d0f6112ab565b6001600160a01b03831673eeeeeeeeeeeeeeeeeeeeeeeeeeeeeeeeeeeeeeee1415610d8a576040516001600160a01b038316908290600081818185875af1925050503d8060008114610d7d576040519150601f19603f3d011682016040523d82523d6000602084013e610d82565b606091505b505050505050565b60405163a9059cbb60e01b81526001600160a01b0384169063a9059cbb90610db89085908590600401613bd3565b602060405180830381600087803b158015610dd257600080fd5b505af1158015610de6573d6000803e3d6000fd5b505050506040513d601f19601f820116820180604052508101906109919190613598565b610e126112ab565b60d055565b610e1f6112ab565b60d355565b610e2c6112ab565b6001600160a01b038116610e915760405162461bcd60e51b815260206004820152602660248201527f4f776e61626c653a206e6577206f776e657220697320746865207a65726f206160448201526564647265737360d01b6064820152608401610675565b610e9a81612530565b50565b600054610100900460ff1615808015610ebd5750600054600160ff909116105b80610ed75750303b158015610ed7575060005460ff166001145b610f3a5760405162461bcd60e51b815260206004820152602e60248201527f496e697469616c697a61626c653a20636f6e747261637420697320616c72656160448201526d191e481a5b9a5d1a585b1a5e995960921b6064820152608401610675565b6000805460ff191660011790558015610f5d576000805461ff0019166101001790555b610f65612582565b610f6d6125b1565b610f756125e0565b60c980546001600160a01b038088166001600160a01b03199283161790925560ca805487841690831617905560cb805486841690831617905560ce805492851692909116919091179055801561074f576000805461ff0019169055604051600181527f7f26b83ff96e1f2b6a682f133852f6798a09c465da95921460cefb38474024989060200160405180910390a15050505050565b6002606554141561105e5760405162461bcd60e51b815260206004820152601f60248201527f5265656e7472616e637947756172643a207265656e7472616e742063616c6c006044820152606401610675565b6002606555565b60cb5460405163095ea7b360e01b81526001600160a01b038581169263095ea7b39261109992909116908690600401613bd3565b602060405180830381600087803b1580156110b357600080fd5b505af11580156110c7573d6000803e3d6000fd5b505050506040513d601f19601f820116820180604052508101906110eb9190613598565b50606060006110fb85858861260f565b90506000670de0b6b3a764000061111b6001600160401b038616826141cb565b61112590846141ac565b61112f91906140a1565b905086606514156111c05760cf546001600160a01b03908116908990881660008885651f2abb7bf89b834261116681613840614089565b604080516020810182526000808252915161118f9c9b9a99989796959493929190602401613bec565b60408051601f198184030181529190526020810180516001600160e01b03166356aa12e360e11b179052925061125c565b60cf546001600160a01b03878116600090815260d1602090815260408083208c8452909152812054928216928b928a92911690899086908d904261120681613840614089565b604080516020810182526000808252915161122f9c9b9a99989796959493929190602401613a8c565b60408051601f198184030181529190526020810180516001600160e01b0316633dc9c91960e11b17905292505b60008360405160200161126f9190613a4f565b60408051601f1981840301815291905260cb54909150611298906001600160a01b0316826126b0565b50505050505050505050565b6001606555565b336112b4610cb5565b6001600160a01b031614610b835760405162461bcd60e51b815260206004820181905260248201527f4f776e61626c653a2063616c6c6572206973206e6f7420746865206f776e65726044820152606401610675565b606060008060238451106113d457600080604051602001611344907273776170416e64556e77726170536f6c616e6160681b815260130190565b604051602081830303815290604052905060006020870151925060208201519050806001600160681b031916836001600160681b03191614156113d05761138c8760136126f2565b945061139987601b6126f2565b60408051808201909152601381527273776170416e64556e77726170536f6c616e6160681b6020820152965093506113f092505050565b5050505b838060200190518101906113e8919061367f565b919450925090505b9193909250565b60008160405160200161140a9190613a33565b60405160208183030381529060405280519060200120836040516020016114319190613a33565b604051602081830303815290604052805190602001201490505b92915050565b600061145c83612755565b9050816001600160a01b03168160c0015160008151811061148d57634e487b7160e01b600052603260045260246000fd5b60200260200101516001600160a01b0316146114bb5760405162461bcd60e51b815260040161067590613cb5565b60408051600280825260608201835260009260208301908036833701905050905084816000815181106114fe57634e487b7160e01b600052603260045260246000fd5b60200260200101818152505081608001518160018151811061153057634e487b7160e01b600052603260045260246000fd5b602090810291909101015260ca5460405163095ea7b360e01b81526001600160a01b038581169263095ea7b39261156f92909116908990600401613bd3565b602060405180830381600087803b15801561158957600080fd5b505af115801561159d573d6000803e3d6000fd5b505050506040513d601f19601f820116820180604052508101906115c19190613598565b5060ca54606083015160a084015160c085015160e0860151805160208201516040928301516101008a015193516344dd6aa560e01b81526001600160a01b03909816976344dd6aa5976116259790968b969195909442949193909290600401613b18565b602060405180830381600087803b15801561163f57600080fd5b505af192505050801561166f575060408051601f3d908101601f1916820190925261166c9181019061394b565b60015b6117f55760ca5460405163095ea7b360e01b81526001600160a01b038581169263095ea7b3926116a89290911690600090600401613bd3565b602060405180830381600087803b1580156116c257600080fd5b505af11580156116d6573d6000803e3d6000fd5b505050506040513d601f19601f820116820180604052508101906116fa9190613598565b508460cd600084604001516001600160a01b03166001600160a01b031681526020019081526020016000206000846020015181526020019081526020016000206000846000015181526020019081526020016000206000856001600160a01b03166001600160a01b031681526020019081526020016000208190555081604001516001600160a01b03167fa79aee2abfa3037b36c3689636c9932b113a82cebda0057ac4ce2386371fc969836000015184602001518560600151878a8860e00151600001518960e00151602001518a60c001518b61010001516040516117e899989796959493929190613e58565b60405180910390a261074f565b5060c95460e0830151604090810151905163626885b560e11b81526000926001600160a01b03169163c4d10b6a916118309190600401613c71565b60206040518083038186803b15801561184857600080fd5b505afa15801561185c573d6000803e3d6000fd5b505050506040513d601f19601f820116820180604052508101906118809190613370565b905082604001516001600160a01b03167f124f82fb68081b8c772a74ce98c0c92b659dd79e4fd3f03cf49988818eb04e8b846000015185602001518660600151888b8960e00151600001518a60e001516020015189600160ca60009054906101000a90046001600160a01b03166001600160a01b031663930a60e88d6040518263ffffffff1660e01b81526004016119189190613a78565b60206040518083038186803b15801561193057600080fd5b505afa158015611944573d6000803e3d6000fd5b505050506040513d601f19601f82011682018060405250810190611968919061394b565b61197291906141cb565b8d60c001518e61010001516040516119949b9a99989796959493929190613dd0565b60405180910390a2505050505050565b60006119af836127d1565b9050816001600160a01b03168160e001516000815181106119e057634e487b7160e01b600052603260045260246000fd5b60200260200101516001600160a01b031614611a0e5760405162461bcd60e51b815260040161067590613cb5565b60ce5460405163095ea7b360e01b81526001600160a01b038481169263095ea7b392611a4292909116908890600401613bd3565b602060405180830381600087803b158015611a5c57600080fd5b505af1158015611a70573d6000803e3d6000fd5b505050506040513d601f19601f82011682018060405250810190611a949190613598565b5060ce546060820151608083015160c0840151610100850151805160209091015160a087015160e088015160405163e91ffefd60e01b81526001600160a01b039098169763e91ffefd97600097611afb979196909591949093919290918f91600401613ef1565b6020604051808303818588803b158015611b1457600080fd5b505af193505050508015611b45575060408051601f3d908101601f19168201909252611b429181019061394b565b60015b611cd65760ce5460405163095ea7b360e01b81526001600160a01b038481169263095ea7b392611b7e9290911690600090600401613bd3565b602060405180830381600087803b158015611b9857600080fd5b505af1158015611bac573d6000803e3d6000fd5b505050506040513d601f19601f82011682018060405250810190611bd09190613598565b508360cd600083604001516001600160a01b03166001600160a01b031681526020019081526020016000206000836020015181526020019081526020016000206000836000015181526020019081526020016000206000846001600160a01b03166001600160a01b031681526020019081526020016000208190555080604001516001600160a01b03167feef470645928135b5faf5eb6a2f7076448531d47f42149c2b1ceaa9fe1d624a082600001518360200151846060015185608001518660a001518760c001518b8960e001518a6101000151600001518b610100015160200151604051611cc99a99989796959493929190613f53565b60405180910390a2610991565b5080604001516001600160a01b03167f13a9049471d86bfc267b825d08be20c5ebfc793c109c11eb159af6781cda310582600001518360200151846060015185608001518660a001518760c001518b8960e001518a6101000151600001518b610100015160200151600160ce60009054906101000a90046001600160a01b03166001600160a01b03166390665eca6040518163ffffffff1660e01b815260040160206040518083038186803b158015611d8e57600080fd5b505afa158015611da2573d6000803e3d6000fd5b505050506040513d601f19601f82011682018060405250810190611dc6919061394b565b611dd091906141cb565b604051611de79b9a99989796959493929190613fb7565b60405180910390a250505050565b6000611e0083612849565b9050816001600160a01b03168160c00151600081518110611e3157634e487b7160e01b600052603260045260246000fd5b60200260200101516001600160a01b031614611e5f5760405162461bcd60e51b815260040161067590613cb5565b6040805160028082526060820183526000926020830190803683370190505090508481600081518110611ea257634e487b7160e01b600052603260045260246000fd5b602002602001018181525050816080015181600181518110611ed457634e487b7160e01b600052603260045260246000fd5b602090810291909101015260ca5460405163095ea7b360e01b81526001600160a01b038581169263095ea7b392611f1392909116908990600401613bd3565b602060405180830381600087803b158015611f2d57600080fd5b505af1158015611f41573d6000803e3d6000fd5b505050506040513d601f19601f82011682018060405250810190611f659190613598565b5060ca54606083015160a084015160c085015160e0860151805160208201516040928301516101008a015193516344dd6aa560e01b81526001600160a01b03909816976344dd6aa597611fc99790968b969195909442949193909290600401613b18565b602060405180830381600087803b158015611fe357600080fd5b505af1925050508015612013575060408051601f3d908101601f191682019092526120109181019061394b565b60015b6121715760ca5460405163095ea7b360e01b81526001600160a01b038581169263095ea7b39261204c9290911690600090600401613bd3565b602060405180830381600087803b15801561206657600080fd5b505af115801561207a573d6000803e3d6000fd5b505050506040513d601f19601f8201168201806040525081019061209e9190613598565b508460d26000846040015181526020019081526020016000206000846020015181526020019081526020016000206000846000015181526020019081526020016000206000856001600160a01b03166001600160a01b031681526020019081526020016000208190555081604001517fb17828193b4763de79b6775e487212e0fac3348f5ef445ae4419b0806bf760a1836000015184602001518560600151878a8860e00151600001518960e00151602001518a60c001518b61010001516040516117e899989796959493929190613e58565b5060c95460e0830151604090810151905163626885b560e11b81526000926001600160a01b03169163c4d10b6a916121ac9190600401613c71565b60206040518083038186803b1580156121c457600080fd5b505afa1580156121d8573d6000803e3d6000fd5b505050506040513d601f19601f820116820180604052508101906121fc9190613370565b905082604001517f55e61be1ca8704cfaf63bfd3a4a99c40ff55c149c7cb6a34816b33650ac2a44d846000015185602001518660600151888b8960e00151600001518a60e001516020015189600160ca60009054906101000a90046001600160a01b03166001600160a01b031663930a60e88d6040518263ffffffff1660e01b81526004016119189190613a78565b600080858051906020012090506000816040516020016122d691907b0ca2ba3432b932bab69029b4b3b732b21026b2b9b9b0b3b29d05199960211b8152601c810191909152603c0190565b60408051601f198184030181528282528051602091820120600080855291840180845281905260ff88169284019290925260608301899052608083018890529092509060019060a0016020604051602081039080840390855afa158015612341573d6000803e3d6000fd5b5050604051601f1901519150506001600160a01b0381166123af5760405162461bcd60e51b815260206004820152602260248201527f506f6c79676f6e436f6e6e6563746f724c6f6769633a20496e76616c69642073604482015261696760f01b6064820152608401610675565b979650505050505050565b60cb5460405163095ea7b360e01b81526001600160a01b038581169263095ea7b3926123ee92909116908690600401613bd3565b602060405180830381600087803b15801561240857600080fd5b505af115801561241c573d6000803e3d6000fd5b505050506040513d601f19601f820116820180604052508101906124409190613598565b50600061244e84848761260f565b90506000670de0b6b3a764000061246e6001600160401b038516826141cb565b61247890846141ac565b61248291906140a1565b60cf546001600160a01b03878116600090815260d1602090815260408083208c845290915281205493945092918116918a9189911688868c87426124c881613840614089565b60408051602081018252600080825291516124f19c9b9a99989796959493929190602401613a8c565b60408051601f19818403018152918152602080830180516001600160e01b0316633dc9c91960e11b179052905191925060009161126f91849101613a4f565b603380546001600160a01b038381166001600160a01b0319831681179093556040519116919082907f8be0079c531659141344cd1fd0a4f28419497f9722a3daafe3b4186f6b6457e090600090a35050565b600054610100900460ff166125a95760405162461bcd60e51b815260040161067590613d40565b610b83612db1565b600054610100900460ff166125d85760405162461bcd60e51b815260040161067590613d40565b610b83612de1565b600054610100900460ff166126075760405162461bcd60e51b815260040161067590613d40565b610b83612e08565b6001600160a01b038316600090815260d4602052604090205460d3548391901580159061263b57508015155b156126a75760d35483146126a75760d3546038141561267b5761265f8160126141cb565b61266a90600a614104565b61267490856140a1565b91506126a7565b82603814156126a75761268f8160126141cb565b61269a90600a614104565b6126a490856141ac565b91505b505b9392505050565b60606126a983836040518060400160405280601e81526020017f416464726573733a206c6f772d6c6576656c2063616c6c206661696c65640000815250612e3b565b600080805b60088110156126a75761270b8160086141ac565b856127168387614089565b8151811061273457634e487b7160e01b600052603260045260246000fd5b016020015160f81c901b91909117908061274d8161420e565b9150506126f7565b61275d61300c565b8180602001905181019061277191906136cc565b60e08a015260c0890152151560a088015260808701526001600160a01b03908116606087015216604085015260208085019190915290835283516127bc92508401810190840161379f565b6101008b015250979998505050505050505050565b6127d961308c565b818060200190518101906127ed919061387d565b505050608088015260c087015260a08601526001600160a01b03166040850152602080850191909152908352835161282c92508401810190840161387d565b60608b01526101008a015260e08901525095979650505050505050565b6128b960405180610120016040528060008152602001600081526020016000801916815260200160006001600160a01b03168152602001600081526020016000151581526020016060815260200161307f6040805160608082018352808252600060208301529181019190915290565b60006128c6601382614089565b90506128d283826126f2565b82526128df600882614089565b90506128eb83826126f2565b60208301526128fb600882614089565b838101602001519091506040830152612915602082614089565b90506000612927848360209101015190565b6001600160a01b03811660608501529050612943602083614089565b84810160200151909250608084015261295d602083614089565b915083828151811061297f57634e487b7160e01b600052603260045260246000fd5b01602001516001600160f81b031916151560a08401526129a0600183614089565b915060006129ae8584612e52565b90506129bb600484614089565b92508063ffffffff166001600160401b038111156129e957634e487b7160e01b600052604160045260246000fd5b604051908082528060200260200182016040528015612a12578160200160208202803683370190505b5060c085015260005b8163ffffffff16811015612a8f57838601602001518060001c8660c001518381518110612a5857634e487b7160e01b600052603260045260246000fd5b6001600160a01b03909216602092830291909101820152612a799086614089565b9450508080612a879061420e565b915050612a1b565b506000612a9c8685612e52565b9050612aa9600485614089565b935060008163ffffffff166001600160401b03811115612ad957634e487b7160e01b600052604160045260246000fd5b6040519080825280601f01601f191660200182016040528015612b03576020820181803683370190505b50905060005b8263ffffffff16811015612b945787612b228288614089565b81518110612b4057634e487b7160e01b600052603260045260246000fd5b602001015160f81c60f81b828281518110612b6b57634e487b7160e01b600052603260045260246000fd5b60200101906001600160f81b031916908160001a90535080612b8c8161420e565b915050612b09565b50612ba563ffffffff831686614089565b94506000878681518110612bc957634e487b7160e01b600052603260045260246000fd5b016020015160f81c6005811115612bf057634e487b7160e01b600052602160045260246000fd5b9050612bfd600187614089565b95506000612c0b8988612e52565b9050612c18600488614089565b965060008163ffffffff166001600160401b03811115612c4857634e487b7160e01b600052604160045260246000fd5b6040519080825280601f01601f191660200182016040528015612c72576020820181803683370190505b50905060005b8263ffffffff16811015612d03578a612c91828b614089565b81518110612caf57634e487b7160e01b600052603260045260246000fd5b602001015160f81c60f81b828281518110612cda57634e487b7160e01b600052603260045260246000fd5b60200101906001600160f81b031916908160001a90535080612cfb8161420e565b915050612c78565b50612d1463ffffffff831689614089565b60e08a01805186905251909850602001836005811115612d4457634e487b7160e01b600052602160045260246000fd5b90816005811115612d6557634e487b7160e01b600052602160045260246000fd5b90525060e089015160400181905289518a9089908110612d9557634e487b7160e01b600052603260045260246000fd5b016020015160f81c6101008a0152509698975050505050505050565b600054610100900460ff16612dd85760405162461bcd60e51b815260040161067590613d40565b610b8333612530565b600054610100900460ff166112a45760405162461bcd60e51b815260040161067590613d40565b600054610100900460ff16612e2f5760405162461bcd60e51b815260040161067590613d40565b6097805460ff19169055565b6060612e4a8484600085612ebb565b949350505050565b600080805b60048110156126a757612e6b8160086141ac565b63ffffffff1685612e7c8387614089565b81518110612e9a57634e487b7160e01b600052603260045260246000fd5b016020015160f81c901b919091179080612eb38161420e565b915050612e57565b606082471015612f1c5760405162461bcd60e51b815260206004820152602660248201527f416464726573733a20696e73756666696369656e742062616c616e636520666f6044820152651c8818d85b1b60d21b6064820152608401610675565b843b612f6a5760405162461bcd60e51b815260206004820152601d60248201527f416464726573733a2063616c6c20746f206e6f6e2d636f6e74726163740000006044820152606401610675565b600080866001600160a01b03168587604051612f869190613a33565b60006040518083038185875af1925050503d8060008114612fc3576040519150601f19603f3d011682016040523d82523d6000602084013e612fc8565b606091505b50915091506123af82828660608315612fe25750816126a9565b825115612ff25782518084602001fd5b8160405162461bcd60e51b81526004016106759190613c71565b604051806101200160405280600081526020016000815260200160006001600160a01b0316815260200160006001600160a01b03168152602001600081526020016000151581526020016060815260200161307f6040805160608082018352808252600060208301529181019190915290565b8152602001600081525090565b604051806101200160405280600081526020016000815260200160006001600160a01b0316815260200160008152602001600081526020016000815260200160008152602001606081526020016130f460408051808201909152606081526000602082015290565b905290565b805161310481614255565b919050565b600082601f830112613119578081fd5b815160206001600160401b038211156131345761313461423f565b8160051b613143828201614032565b83815282810190868401838801850189101561315d578687fd5b8693505b8584101561318857805161317481614255565b835260019390930192918401918401613161565b50979650505050505050565b8051801515811461310457600080fd5b600082601f8301126131b4578081fd5b81356131c76131c282614062565b614032565b8181528460208386010111156131db578283fd5b816020850160208301379081016020019190915292915050565b600082601f830112613205578081fd5b81516132136131c282614062565b818152846020838601011115613227578283fd5b612e4a8260208301602087016141e2565b80516006811061310457600080fd5b600060608284031215613258578081fd5b604051606081016001600160401b03808211838310171561327b5761327b61423f565b81604052829350845191508082111561329357600080fd5b61329f868387016131f5565b83526132ad60208601613238565b602084015260408501519150808211156132c657600080fd5b506132d3858286016131f5565b6040830152505092915050565b6000604082840312156132f1578081fd5b604080519081016001600160401b0380821183831017156133145761331461423f565b81604052829350845191508082111561332c57600080fd5b50613339858286016131f5565b82525061334860208401613238565b60208201525092915050565b600060208284031215613365578081fd5b81356126a981614255565b600060208284031215613381578081fd5b81516126a981614255565b600080600080608085870312156133a1578283fd5b84356133ac81614255565b935060208501356133bc81614255565b925060408501356133cc81614255565b915060608501356133dc81614255565b939692955090935050565b6000806000606084860312156133fb578283fd5b833561340681614255565b9250602084013561341681614255565b929592945050506040919091013590565b60008060408385031215613439578182fd5b823561344481614255565b946020939093013593505050565b600080600060608486031215613466578081fd5b833561347181614255565b925060208401359150604084013561348881614255565b809150509250925092565b600080600080608085870312156134a8578182fd5b84356134b381614255565b93506020850135925060408501356134ca81614255565b915060608501356001600160401b038111156134e4578182fd5b6134f0878288016131a4565b91505092959194509250565b60008060008060808587031215613511578182fd5b843561351c81614255565b9350602085013592506040850135915060608501356133dc81614255565b600080600080600060a08688031215613551578283fd5b853561355c81614255565b94506020860135935060408601359250606086013561357a81614255565b9150608086013561358a8161426a565b809150509295509295909350565b6000602082840312156135a9578081fd5b6126a982613194565b600080600080608085870312156135c7578182fd5b84359350602085013592506040850135915060608501356133dc81614255565b600080600080600060a086880312156135fe578283fd5b853594506020860135935060408601359250606086013561357a81614255565b60008060008060808587031215613633578182fd5b84356001600160401b03811115613648578283fd5b613654878288016131a4565b945050602085013560ff8116811461366a578283fd5b93969395505050506040820135916060013590565b600080600060608486031215613693578081fd5b83516001600160401b038111156136a8578182fd5b6136b4868287016131f5565b93505060208401519150604084015190509250925092565b60008060008060008060008060006101208a8c0312156136ea578687fd5b89516001600160401b0380821115613700578889fd5b61370c8d838e016131f5565b9a5060208c0151995060408c0151985061372860608d016130f9565b975061373660808d016130f9565b965060a08c0151955061374b60c08d01613194565b945060e08c0151915080821115613760578384fd5b61376c8d838e01613109565b93506101008c0151915080821115613782578283fd5b5061378f8c828d01613247565b9150509295985092959850929598565b6000806000806000806000806000806101408b8d0312156137be578384fd5b8a516001600160401b03808211156137d4578586fd5b6137e08e838f016131f5565b9b5060208d01519a5060408d015199506137fc60608e016130f9565b985061380a60808e016130f9565b975060a08d0151965061381f60c08e01613194565b955060e08d0151915080821115613834578283fd5b6138408e838f01613109565b94506101008d0151915080821115613856578283fd5b506138638d828e01613247565b9250506101208b015190509295989b9194979a5092959850565b6000806000806000806000806000806101408b8d03121561389c578384fd5b8a516001600160401b03808211156138b2578586fd5b6138be8e838f016131f5565b9b5060208d01519a5060408d015199506138da60608e016130f9565b985060808d0151975060a08d0151965060c08d0151955060e08d0151915080821115613904578485fd5b6139108e838f01613109565b94506101008d0151915080821115613926578384fd5b506138638d828e016132e0565b600060208284031215613944578081fd5b5035919050565b60006020828403121561395c578081fd5b5051919050565b60008060008060808587031215613978578182fd5b8451935060208501519250604085015161399181614255565b60608601519092506133dc8161426a565b6000815180845260208085019450808401835b838110156139da5781516001600160a01b0316875295820195908201906001016139b5565b509495945050505050565b600081518084526139fd8160208601602086016141e2565b601f01601f19169290920160200192915050565b60068110613a2f57634e487b7160e01b600052602160045260246000fd5b9052565b60008251613a458184602087016141e2565b9190910192915050565b60008251613a618184602087016141e2565b641dc0de008360d81b920191825250600501919050565b6001600160a01b0391909116815260200190565b6001600160a01b038d811682528c811660208301528b811660408301528a81166060830152608082018a905260a0820189905260c08201889052861660e082015263ffffffff858116610100830152841661012082015260ff83166101408201526000610180610160830152613b066101808301846139e5565b9e9d5050505050505050505050505050565b6001600160a01b038a16815261012060208083018290528a519183018290526000916101408401918c810191845b81811015613b6257835185529382019392820192600101613b46565b5050505089151560408401528281036060840152613b80818a6139a2565b905087608084015282810360a0840152613b9a81886139e5565b9050613ba960c0840187613a11565b82810360e0840152613bbb81866139e5565b915050826101008301529a9950505050505050505050565b6001600160a01b03929092168252602082015260400190565b60006101808e83528d60208401528c604084015260ff8c1660608401528a60808401528960a084015265ffffffffffff891660c08401528760e084015263ffffffff8088166101008501528087166101208501525060ff851661014084015280610160840152613c5e818401856139e5565b9f9e505050505050505050505050505050565b6020815260006126a960208301846139e5565b608081526000613c9760808301876139e5565b85602084015284604084015282810360608401526123af81856139e5565b60208082526023908201527f506f6c79676f6e436f6e6e6563746f724c6f6769633a20696e76616c696420706040820152620c2e8d60eb1b606082015260800190565b60208082526028908201527f506f6c79676f6e436f6e6e6563746f724c6f6769633a20616c7265616479207760408201526734ba34323930bbb760c11b606082015260800190565b6020808252602b908201527f496e697469616c697a61626c653a20636f6e7472616374206973206e6f74206960408201526a6e697469616c697a696e6760a81b606082015260800190565b60208082526025908201527f506f6c79676f6e436f6e6e6563746f724c6f6769633a206e6f7420617574686f6040820152641c9a5e995960da1b606082015260800190565b60006101608d83528c602084015260018060a01b03808d166040850152808c1660608501528a60808501528160a0850152613e0d8285018b6139e5565b9150613e1c60c085018a613a11565b871660e08401526101008301869052828103610120840152613e3e81866139a2565b915050826101408301529c9b505050505050505050505050565b898152602081018990526001600160a01b038881166040830152871660608201526080810186905261012060a08201819052600090613e99838201886139e5565b9050613ea860c0840187613a11565b82810360e0840152613bbb81866139a2565b95865260208601949094526001600160a01b039283166040860152606085019190915260070b60808401521660a082015260c00190565b60006101008a8352896020840152886040840152806060840152613f17818401896139e5565b9050613f266080840188613a11565b8560a08401528460c084015282810360e0840152613f4481856139a2565b9b9a5050505050505050505050565b60006101408c83528b60208401528a60408401528960608401528860808401528760a08401528660c08401528060e0840152613f91818401876139a2565b9050828103610100840152613fa681866139e5565b915050613f44610120830184613a11565b60006101608d83528c60208401528b60408401528a60608401528960808401528860a08401528760c08401528060e0840152613ff5818401886139a2565b905082810361010084015261400a81876139e5565b91505061401b610120830185613a11565b826101408301529c9b505050505050505050505050565b604051601f8201601f191681016001600160401b038111828210171561405a5761405a61423f565b604052919050565b60006001600160401b0382111561407b5761407b61423f565b50601f01601f191660200190565b6000821982111561409c5761409c614229565b500190565b6000826140bc57634e487b7160e01b81526012600452602481fd5b500490565b600181815b808511156140fc5781600019048211156140e2576140e2614229565b808516156140ef57918102915b93841c93908002906140c6565b509250929050565b60006126a9838360008261411a5750600161144b565b816141275750600061144b565b816001811461413d576002811461414757614163565b600191505061144b565b60ff84111561415857614158614229565b50506001821b61144b565b5060208310610133831016604e8410600b8410161715614186575081810a61144b565b61419083836140c1565b80600019048211156141a4576141a4614229565b029392505050565b60008160001904831182151516156141c6576141c6614229565b500290565b6000828210156141dd576141dd614229565b500390565b60005b838110156141fd5781810151838201526020016141e5565b838111156109915750506000910152565b600060001982141561422257614222614229565b5060010190565b634e487b7160e01b600052601160045260246000fd5b634e487b7160e01b600052604160045260246000fd5b6001600160a01b0381168114610e9a57600080fd5b8060070b8114610e9a57600080fdfef43f17a174cd55d7d75e934475f1cec7890c2bf3fabbf376de3868f0d8ce6897a264697066735822122028017f7d5124534d3b7e764fb61e0306e6453cdb2df145830e092e10482f6a6164736f6c63430008040033",
  "devdoc": {
    "kind": "dev",
    "methods": {
      "emergencyWithdraw(address,address,uint256)": {
        "details": "Only owner can call this"
      },
      "owner()": {
        "details": "Returns the address of the current owner."
      },
      "paused()": {
        "details": "Returns true if the contract is paused, and false otherwise."
      },
      "renounceOwnership()": {
        "details": "Leaves the contract without owner. It will not be possible to call `onlyOwner` functions. Can only be called by the current owner. NOTE: Renouncing ownership will leave the contract without an owner, thereby disabling any functionality that is only available to the owner."
      },
      "setBridgeTokenMapping(address,uint256,address)": {
        "params": {
          "_destinationToken": "Address of the token on the target chain",
          "_sourceToken": "Address of the token on the current chain"
        }
      },
      "setTokenDecimalsOnDestinationChain(address,uint256)": {
        "details": "Used for handling decimal differences (e.g., USDT: 18 on BSC, 6 on other chains)",
        "params": {
          "_decimals": "Decimals of the token on destination chains (e.g., 6 for USDT on non-BSC chains)",
          "_token": "Address of the token on the current chain"
        }
      },
      "transferOwnership(address)": {
        "details": "Transfers ownership of the contract to a new account (`newOwner`). Can only be called by the current owner."
      },
      "withdrawFundsToSourceChain(bytes,uint8,bytes32,bytes32)": {
        "details": "This function is used for both failed BTC and Rune requests",
        "params": {
          "_message": "The signed message",
          "_r": "Signature r",
          "_s": "Signature s",
          "_v": "Signature v"
        }
      },
      "withdrawFundsToSourceChainByAdminV2(bytes32,uint256,uint256,address,int64)": {
        "details": "Owner can only set the relayer fee percentage"
      },
      "withdrawFundsToSourceChainByOwnerOrAdmin(address,uint256,uint256,address,int64)": {
        "details": "Owner can only set the relayer fee percentage"
      }
    },
    "version": 1
  },
  "userdoc": {
    "kind": "user",
    "methods": {
      "emergencyWithdraw(address,address,uint256)": {
        "notice": "Withdraws tokens in the emergency case"
      },
      "handleV3AcrossMessage(address,uint256,address,bytes)": {
        "notice": "Process requests coming from Ethereum (using Across V3)"
      },
      "setAcross(address)": {
        "notice": "Setter for AcrossV3"
      },
      "setAcrossAdmin(address)": {
        "notice": "Setter for Across Admin"
      },
      "setBridgeTokenMapping(address,uint256,address)": {
        "notice": "Setter for bridge token mapping"
      },
      "setBurnRouterProxy(address)": {
        "notice": "Setter for BurnRouterProxy"
      },
      "setChainId(uint256)": {
        "notice": "Setter for Chain ID"
      },
      "setGasLimit(uint256)": {
        "notice": "Setter for Gas Limit"
      },
      "setLockersProxy(address)": {
        "notice": "Setter for LockersProxy"
      },
      "setRuneRouterProxy(address)": {
        "notice": "Setter for runeRouterProxy"
      },
      "setTokenDecimalsOnDestinationChain(address,uint256)": {
        "notice": "Setter for token decimals on destination chain"
      },
      "withdrawFundsToSourceChain(bytes,uint8,bytes32,bytes32)": {
        "notice": "Send back tokens to the source chain"
      },
      "withdrawFundsToSourceChainByAdminV2(bytes32,uint256,uint256,address,int64)": {
        "notice": "Send back tokens to the source chain by owner"
      },
      "withdrawFundsToSourceChainByOwnerOrAdmin(address,uint256,uint256,address,int64)": {
        "notice": "Send back tokens to the source chain by owner"
      }
    },
    "version": 1
  },
  "storageLayout": {
    "storage": [
      {
        "astId": 139,
        "contract": "contracts/chain_connectors/PolyConnectorLogic.sol:PolyConnectorLogic",
        "label": "_initialized",
        "offset": 0,
        "slot": "0",
        "type": "t_uint8"
      },
      {
        "astId": 142,
        "contract": "contracts/chain_connectors/PolyConnectorLogic.sol:PolyConnectorLogic",
        "label": "_initializing",
        "offset": 1,
        "slot": "0",
        "type": "t_bool"
      },
      {
        "astId": 894,
        "contract": "contracts/chain_connectors/PolyConnectorLogic.sol:PolyConnectorLogic",
        "label": "__gap",
        "offset": 0,
        "slot": "1",
        "type": "t_array(t_uint256)50_storage"
      },
      {
        "astId": 11,
        "contract": "contracts/chain_connectors/PolyConnectorLogic.sol:PolyConnectorLogic",
        "label": "_owner",
        "offset": 0,
        "slot": "51",
        "type": "t_address"
      },
      {
        "astId": 131,
        "contract": "contracts/chain_connectors/PolyConnectorLogic.sol:PolyConnectorLogic",
        "label": "__gap",
        "offset": 0,
        "slot": "52",
        "type": "t_array(t_uint256)49_storage"
      },
      {
        "astId": 444,
        "contract": "contracts/chain_connectors/PolyConnectorLogic.sol:PolyConnectorLogic",
        "label": "_status",
        "offset": 0,
        "slot": "101",
        "type": "t_uint256"
      },
      {
        "astId": 513,
        "contract": "contracts/chain_connectors/PolyConnectorLogic.sol:PolyConnectorLogic",
        "label": "__gap",
        "offset": 0,
        "slot": "102",
        "type": "t_array(t_uint256)49_storage"
      },
      {
        "astId": 323,
        "contract": "contracts/chain_connectors/PolyConnectorLogic.sol:PolyConnectorLogic",
        "label": "_paused",
        "offset": 0,
        "slot": "151",
        "type": "t_bool"
      },
      {
        "astId": 428,
        "contract": "contracts/chain_connectors/PolyConnectorLogic.sol:PolyConnectorLogic",
        "label": "__gap",
        "offset": 0,
        "slot": "152",
        "type": "t_array(t_uint256)49_storage"
      },
      {
        "astId": 3509,
        "contract": "contracts/chain_connectors/PolyConnectorLogic.sol:PolyConnectorLogic",
        "label": "lockersProxy",
        "offset": 0,
        "slot": "201",
        "type": "t_address"
      },
      {
        "astId": 3512,
        "contract": "contracts/chain_connectors/PolyConnectorLogic.sol:PolyConnectorLogic",
        "label": "burnRouterProxy",
        "offset": 0,
        "slot": "202",
        "type": "t_address"
      },
      {
        "astId": 3515,
        "contract": "contracts/chain_connectors/PolyConnectorLogic.sol:PolyConnectorLogic",
        "label": "across",
        "offset": 0,
        "slot": "203",
        "type": "t_address"
      },
      {
        "astId": 3524,
        "contract": "contracts/chain_connectors/PolyConnectorLogic.sol:PolyConnectorLogic",
        "label": "failedReqs",
        "offset": 0,
        "slot": "204",
        "type": "t_mapping(t_address,t_mapping(t_uint256,t_mapping(t_address,t_uint256)))"
      },
      {
        "astId": 3535,
        "contract": "contracts/chain_connectors/PolyConnectorLogic.sol:PolyConnectorLogic",
        "label": "newFailedReqs",
        "offset": 0,
        "slot": "205",
        "type": "t_mapping(t_address,t_mapping(t_uint256,t_mapping(t_uint256,t_mapping(t_address,t_uint256))))"
      },
      {
        "astId": 3538,
        "contract": "contracts/chain_connectors/PolyConnectorLogic.sol:PolyConnectorLogic",
        "label": "runeRouterProxy",
        "offset": 0,
        "slot": "206",
        "type": "t_address"
      },
      {
        "astId": 3540,
        "contract": "contracts/chain_connectors/PolyConnectorLogic.sol:PolyConnectorLogic",
        "label": "acrossAdmin",
        "offset": 0,
        "slot": "207",
        "type": "t_address"
      },
      {
        "astId": 3542,
        "contract": "contracts/chain_connectors/PolyConnectorLogic.sol:PolyConnectorLogic",
        "label": "gasLimit",
        "offset": 0,
        "slot": "208",
        "type": "t_uint256"
      },
      {
        "astId": 3548,
        "contract": "contracts/chain_connectors/PolyConnectorLogic.sol:PolyConnectorLogic",
        "label": "bridgeTokenMapping",
        "offset": 0,
        "slot": "209",
        "type": "t_mapping(t_address,t_mapping(t_uint256,t_address))"
      },
      {
        "astId": 3558,
        "contract": "contracts/chain_connectors/PolyConnectorLogic.sol:PolyConnectorLogic",
        "label": "newFailedReqsV2",
        "offset": 0,
        "slot": "210",
        "type": "t_mapping(t_bytes32,t_mapping(t_uint256,t_mapping(t_uint256,t_mapping(t_address,t_uint256))))"
      },
      {
        "astId": 3560,
        "contract": "contracts/chain_connectors/PolyConnectorLogic.sol:PolyConnectorLogic",
        "label": "chainId",
        "offset": 0,
        "slot": "211",
        "type": "t_uint256"
      },
      {
        "astId": 3564,
        "contract": "contracts/chain_connectors/PolyConnectorLogic.sol:PolyConnectorLogic",
        "label": "tokenDecimalsOnDestinationChain",
        "offset": 0,
        "slot": "212",
        "type": "t_mapping(t_address,t_uint256)"
      }
    ],
    "types": {
      "t_address": {
        "encoding": "inplace",
        "label": "address",
        "numberOfBytes": "20"
      },
      "t_array(t_uint256)49_storage": {
        "base": "t_uint256",
        "encoding": "inplace",
        "label": "uint256[49]",
        "numberOfBytes": "1568"
      },
      "t_array(t_uint256)50_storage": {
        "base": "t_uint256",
        "encoding": "inplace",
        "label": "uint256[50]",
        "numberOfBytes": "1600"
      },
      "t_bool": {
        "encoding": "inplace",
        "label": "bool",
        "numberOfBytes": "1"
      },
      "t_bytes32": {
        "encoding": "inplace",
        "label": "bytes32",
        "numberOfBytes": "32"
      },
      "t_mapping(t_address,t_mapping(t_uint256,t_address))": {
        "encoding": "mapping",
        "key": "t_address",
        "label": "mapping(address => mapping(uint256 => address))",
        "numberOfBytes": "32",
        "value": "t_mapping(t_uint256,t_address)"
      },
      "t_mapping(t_address,t_mapping(t_uint256,t_mapping(t_address,t_uint256)))": {
        "encoding": "mapping",
        "key": "t_address",
        "label": "mapping(address => mapping(uint256 => mapping(address => uint256)))",
        "numberOfBytes": "32",
        "value": "t_mapping(t_uint256,t_mapping(t_address,t_uint256))"
      },
      "t_mapping(t_address,t_mapping(t_uint256,t_mapping(t_uint256,t_mapping(t_address,t_uint256))))": {
        "encoding": "mapping",
        "key": "t_address",
        "label": "mapping(address => mapping(uint256 => mapping(uint256 => mapping(address => uint256))))",
        "numberOfBytes": "32",
        "value": "t_mapping(t_uint256,t_mapping(t_uint256,t_mapping(t_address,t_uint256)))"
      },
      "t_mapping(t_address,t_uint256)": {
        "encoding": "mapping",
        "key": "t_address",
        "label": "mapping(address => uint256)",
        "numberOfBytes": "32",
        "value": "t_uint256"
      },
      "t_mapping(t_bytes32,t_mapping(t_uint256,t_mapping(t_uint256,t_mapping(t_address,t_uint256))))": {
        "encoding": "mapping",
        "key": "t_bytes32",
        "label": "mapping(bytes32 => mapping(uint256 => mapping(uint256 => mapping(address => uint256))))",
        "numberOfBytes": "32",
        "value": "t_mapping(t_uint256,t_mapping(t_uint256,t_mapping(t_address,t_uint256)))"
      },
      "t_mapping(t_uint256,t_address)": {
        "encoding": "mapping",
        "key": "t_uint256",
        "label": "mapping(uint256 => address)",
        "numberOfBytes": "32",
        "value": "t_address"
      },
      "t_mapping(t_uint256,t_mapping(t_address,t_uint256))": {
        "encoding": "mapping",
        "key": "t_uint256",
        "label": "mapping(uint256 => mapping(address => uint256))",
        "numberOfBytes": "32",
        "value": "t_mapping(t_address,t_uint256)"
      },
      "t_mapping(t_uint256,t_mapping(t_uint256,t_mapping(t_address,t_uint256)))": {
        "encoding": "mapping",
        "key": "t_uint256",
        "label": "mapping(uint256 => mapping(uint256 => mapping(address => uint256)))",
        "numberOfBytes": "32",
        "value": "t_mapping(t_uint256,t_mapping(t_address,t_uint256))"
      },
      "t_uint256": {
        "encoding": "inplace",
        "label": "uint256",
        "numberOfBytes": "32"
      },
      "t_uint8": {
        "encoding": "inplace",
        "label": "uint8",
        "numberOfBytes": "1"
      }
    }
  }
}