{
  "address": "0x5c4b3E19F5BfCE21B06249eDA02585177076e89a",
  "abi": [
    {
      "anonymous": false,
      "inputs": [
        {
          "indexed": false,
          "internalType": "bool",
          "name": "_swapToken0ToToken1",
          "type": "bool"
        },
        {
          "indexed": false,
          "internalType": "uint256",
          "name": "_neededSwapAmount",
          "type": "uint256"
        },
        {
          "indexed": false,
          "internalType": "uint256",
          "name": "_receivedAmount",
          "type": "uint256"
        },
        {
          "indexed": false,
          "internalType": "uint256",
          "name": "_totalAmount0",
          "type": "uint256"
        },
        {
          "indexed": false,
          "internalType": "uint256",
          "name": "_totalAmount1",
          "type": "uint256"
        }
      ],
      "name": "ExecuteSwap",
      "type": "event"
    },
    {
      "anonymous": false,
      "inputs": [
        {
          "indexed": false,
          "internalType": "uint256",
          "name": "_newUserRatio",
          "type": "uint256"
        },
        {
          "indexed": false,
          "internalType": "uint256",
          "name": "_newTargetRatio",
          "type": "uint256"
        },
        {
          "indexed": false,
          "internalType": "uint256",
          "name": "_targetRatio",
          "type": "uint256"
        }
      ],
      "name": "FindOptimalSwapAmount",
      "type": "event"
    },
    {
      "anonymous": false,
      "inputs": [
        {
          "indexed": false,
          "internalType": "address",
          "name": "tokenIn",
          "type": "address"
        },
        {
          "indexed": false,
          "internalType": "address",
          "name": "tokenOut",
          "type": "address"
        },
        {
          "indexed": false,
          "internalType": "uint24",
          "name": "fee",
          "type": "uint24"
        },
        {
          "indexed": false,
          "internalType": "uint256",
          "name": "amountIn",
          "type": "uint256"
        },
        {
          "indexed": false,
          "internalType": "uint256",
          "name": "amountOut",
          "type": "uint256"
        }
      ],
      "name": "GetQuoteResult",
      "type": "event"
    },
    {
      "anonymous": false,
      "inputs": [
        {
          "indexed": false,
          "internalType": "uint8",
          "name": "version",
          "type": "uint8"
        }
      ],
      "name": "Initialized",
      "type": "event"
    },
    {
      "anonymous": false,
      "inputs": [
        {
          "indexed": true,
          "internalType": "address",
          "name": "previousOwner",
          "type": "address"
        },
        {
          "indexed": true,
          "internalType": "address",
          "name": "newOwner",
          "type": "address"
        }
      ],
      "name": "OwnershipTransferred",
      "type": "event"
    },
    {
      "anonymous": false,
      "inputs": [
        {
          "indexed": false,
          "internalType": "address[]",
          "name": "path",
          "type": "address[]"
        },
        {
          "indexed": false,
          "internalType": "uint256[]",
          "name": "amounts",
          "type": "uint256[]"
        },
        {
          "indexed": false,
          "internalType": "address",
          "name": "receiver",
          "type": "address"
        }
      ],
      "name": "Swap",
      "type": "event"
    },
    {
      "anonymous": false,
      "inputs": [
        {
          "components": [
            {
              "internalType": "uint256",
              "name": "tokenId",
              "type": "uint256"
            },
            {
              "internalType": "address",
              "name": "token0",
              "type": "address"
            },
            {
              "internalType": "address",
              "name": "token1",
              "type": "address"
            },
            {
              "internalType": "uint24",
              "name": "feeTier",
              "type": "uint24"
            },
            {
              "internalType": "int24",
              "name": "tickLower",
              "type": "int24"
            },
            {
              "internalType": "int24",
              "name": "tickUpper",
              "type": "int24"
            },
            {
              "internalType": "uint256",
              "name": "amount0Desired",
              "type": "uint256"
            },
            {
              "internalType": "uint256",
              "name": "amount1Desired",
              "type": "uint256"
            },
            {
              "internalType": "address",
              "name": "user",
              "type": "address"
            }
          ],
          "indexed": false,
          "internalType": "struct UniswapV3Connector.AddLiquidityParams",
          "name": "_params",
          "type": "tuple"
        },
        {
          "indexed": false,
          "internalType": "uint256",
          "name": "_remaining0",
          "type": "uint256"
        },
        {
          "indexed": false,
          "internalType": "uint256",
          "name": "_remaining1",
          "type": "uint256"
        },
        {
          "indexed": false,
          "internalType": "uint256",
          "name": "_tokenId",
          "type": "uint256"
        }
      ],
      "name": "SwapAndAddLiquidity",
      "type": "event"
    },
    {
      "anonymous": false,
      "inputs": [
        {
          "components": [
            {
              "internalType": "address",
              "name": "tokenIn",
              "type": "address"
            },
            {
              "internalType": "address",
              "name": "tokenOut",
              "type": "address"
            },
            {
              "internalType": "uint24",
              "name": "fee",
              "type": "uint24"
            },
            {
              "internalType": "address",
              "name": "recipient",
              "type": "address"
            },
            {
              "internalType": "uint256",
              "name": "deadline",
              "type": "uint256"
            },
            {
              "internalType": "uint256",
              "name": "amountIn",
              "type": "uint256"
            },
            {
              "internalType": "uint256",
              "name": "amountOutMinimum",
              "type": "uint256"
            },
            {
              "internalType": "uint160",
              "name": "sqrtPriceLimitX96",
              "type": "uint160"
            }
          ],
          "indexed": false,
          "internalType": "struct ISwapRouter.ExactInputSingleParams",
          "name": "_params",
          "type": "tuple"
        }
      ],
      "name": "SwapFailed",
      "type": "event"
    },
    {
      "inputs": [],
      "name": "MAX_ITERS",
      "outputs": [
        {
          "internalType": "uint256",
          "name": "",
          "type": "uint256"
        }
      ],
      "stateMutability": "view",
      "type": "function"
    },
    {
      "inputs": [],
      "name": "ONE_HUNDRED_PERCENT",
      "outputs": [
        {
          "internalType": "uint256",
          "name": "",
          "type": "uint256"
        }
      ],
      "stateMutability": "view",
      "type": "function"
    },
    {
      "inputs": [],
      "name": "TOLERANCE",
      "outputs": [
        {
          "internalType": "uint256",
          "name": "",
          "type": "uint256"
        }
      ],
      "stateMutability": "view",
      "type": "function"
    },
    {
      "inputs": [
        {
          "internalType": "address[]",
          "name": "_path",
          "type": "address[]"
        }
      ],
      "name": "convertedPath",
      "outputs": [
        {
          "internalType": "bytes",
          "name": "packedData",
          "type": "bytes"
        }
      ],
      "stateMutability": "view",
      "type": "function"
    },
    {
      "inputs": [
        {
          "internalType": "address[]",
          "name": "_path",
          "type": "address[]"
        }
      ],
      "name": "convertedPathReversed",
      "outputs": [
        {
          "internalType": "bytes",
          "name": "packedData",
          "type": "bytes"
        }
      ],
      "stateMutability": "view",
      "type": "function"
    },
    {
      "inputs": [],
      "name": "exchangeRouter",
      "outputs": [
        {
          "internalType": "address",
          "name": "",
          "type": "address"
        }
      ],
      "stateMutability": "view",
      "type": "function"
    },
    {
      "inputs": [
        {
          "internalType": "address",
          "name": "",
          "type": "address"
        },
        {
          "internalType": "address",
          "name": "",
          "type": "address"
        }
      ],
      "name": "feeTier",
      "outputs": [
        {
          "internalType": "uint24",
          "name": "",
          "type": "uint24"
        }
      ],
      "stateMutability": "view",
      "type": "function"
    },
    {
      "inputs": [
        {
          "internalType": "uint160",
          "name": "_sqrtPrice",
          "type": "uint160"
        },
        {
          "internalType": "int24",
          "name": "_tickLower",
          "type": "int24"
        },
        {
          "internalType": "int24",
          "name": "_tickUpper",
          "type": "int24"
        },
        {
          "internalType": "uint128",
          "name": "_liquidity",
          "type": "uint128"
        }
      ],
      "name": "getAmountsForLiquidity",
      "outputs": [
        {
          "internalType": "uint256",
          "name": "",
          "type": "uint256"
        },
        {
          "internalType": "uint256",
          "name": "",
          "type": "uint256"
        }
      ],
      "stateMutability": "pure",
      "type": "function"
    },
    {
      "inputs": [
        {
          "internalType": "address[]",
          "name": "_path",
          "type": "address[]"
        },
        {
          "internalType": "uint256",
          "name": "_amountIn",
          "type": "uint256"
        }
      ],
      "name": "getExactInput",
      "outputs": [
        {
          "internalType": "bool",
          "name": "",
          "type": "bool"
        },
        {
          "internalType": "uint256",
          "name": "",
          "type": "uint256"
        }
      ],
      "stateMutability": "nonpayable",
      "type": "function"
    },
    {
      "inputs": [
        {
          "internalType": "address[]",
          "name": "_path",
          "type": "address[]"
        },
        {
          "internalType": "uint256",
          "name": "_amountOut",
          "type": "uint256"
        }
      ],
      "name": "getExactOutput",
      "outputs": [
        {
          "internalType": "bool",
          "name": "",
          "type": "bool"
        },
        {
          "internalType": "uint256",
          "name": "",
          "type": "uint256"
        }
      ],
      "stateMutability": "nonpayable",
      "type": "function"
    },
    {
      "inputs": [
        {
          "internalType": "uint256",
          "name": "",
          "type": "uint256"
        },
        {
          "internalType": "address",
          "name": "",
          "type": "address"
        },
        {
          "internalType": "address",
          "name": "",
          "type": "address"
        }
      ],
      "name": "getInputAmount",
      "outputs": [
        {
          "internalType": "bool",
          "name": "",
          "type": "bool"
        },
        {
          "internalType": "uint256",
          "name": "",
          "type": "uint256"
        }
      ],
      "stateMutability": "pure",
      "type": "function"
    },
    {
      "inputs": [
        {
          "internalType": "uint160",
          "name": "_sqrtPrice",
          "type": "uint160"
        },
        {
          "internalType": "int24",
          "name": "_tickLower",
          "type": "int24"
        },
        {
          "internalType": "int24",
          "name": "_tickUpper",
          "type": "int24"
        },
        {
          "internalType": "uint256",
          "name": "_amount0Desired",
          "type": "uint256"
        },
        {
          "internalType": "uint256",
          "name": "_amount1Desired",
          "type": "uint256"
        }
      ],
      "name": "getLiquidityForAmounts",
      "outputs": [
        {
          "internalType": "uint128",
          "name": "",
          "type": "uint128"
        }
      ],
      "stateMutability": "pure",
      "type": "function"
    },
    {
      "inputs": [
        {
          "internalType": "uint256",
          "name": "",
          "type": "uint256"
        },
        {
          "internalType": "address",
          "name": "",
          "type": "address"
        },
        {
          "internalType": "address",
          "name": "",
          "type": "address"
        }
      ],
      "name": "getOutputAmount",
      "outputs": [
        {
          "internalType": "bool",
          "name": "",
          "type": "bool"
        },
        {
          "internalType": "uint256",
          "name": "",
          "type": "uint256"
        }
      ],
      "stateMutability": "pure",
      "type": "function"
    },
    {
      "inputs": [
        {
          "internalType": "address",
          "name": "_token0",
          "type": "address"
        },
        {
          "internalType": "address",
          "name": "_token1",
          "type": "address"
        },
        {
          "internalType": "uint24",
          "name": "_feeTier",
          "type": "uint24"
        }
      ],
      "name": "getSqrtPrice",
      "outputs": [
        {
          "internalType": "uint160",
          "name": "_sqrtPrice",
          "type": "uint160"
        }
      ],
      "stateMutability": "view",
      "type": "function"
    },
    {
      "inputs": [
        {
          "internalType": "int24",
          "name": "_tick",
          "type": "int24"
        }
      ],
      "name": "getSqrtPriceAtTick",
      "outputs": [
        {
          "internalType": "uint160",
          "name": "",
          "type": "uint160"
        }
      ],
      "stateMutability": "pure",
      "type": "function"
    },
    {
      "inputs": [
        {
          "internalType": "address[]",
          "name": "_path",
          "type": "address[]"
        }
      ],
      "name": "getSqrtPriceX96",
      "outputs": [
        {
          "internalType": "uint256[]",
          "name": "_sqrtPriceX96",
          "type": "uint256[]"
        },
        {
          "internalType": "address[]",
          "name": "_firstToken",
          "type": "address[]"
        }
      ],
      "stateMutability": "view",
      "type": "function"
    },
    {
      "inputs": [
        {
          "internalType": "string",
          "name": "_name",
          "type": "string"
        },
        {
          "internalType": "address",
          "name": "_exchangeRouter",
          "type": "address"
        },
        {
          "internalType": "address",
          "name": "_quoterAddress",
          "type": "address"
        }
      ],
      "name": "initialize",
      "outputs": [],
      "stateMutability": "nonpayable",
      "type": "function"
    },
    {
      "inputs": [
        {
          "internalType": "address[]",
          "name": "_path",
          "type": "address[]"
        }
      ],
      "name": "isPathValid",
      "outputs": [
        {
          "internalType": "bool",
          "name": "_result",
          "type": "bool"
        }
      ],
      "stateMutability": "view",
      "type": "function"
    },
    {
      "inputs": [],
      "name": "liquidityPoolFactory",
      "outputs": [
        {
          "internalType": "address",
          "name": "",
          "type": "address"
        }
      ],
      "stateMutability": "view",
      "type": "function"
    },
    {
      "inputs": [],
      "name": "name",
      "outputs": [
        {
          "internalType": "string",
          "name": "",
          "type": "string"
        }
      ],
      "stateMutability": "view",
      "type": "function"
    },
    {
      "inputs": [],
      "name": "owner",
      "outputs": [
        {
          "internalType": "address",
          "name": "",
          "type": "address"
        }
      ],
      "stateMutability": "view",
      "type": "function"
    },
    {
      "inputs": [],
      "name": "positionManager",
      "outputs": [
        {
          "internalType": "address",
          "name": "",
          "type": "address"
        }
      ],
      "stateMutability": "view",
      "type": "function"
    },
    {
      "inputs": [],
      "name": "quoterAddress",
      "outputs": [
        {
          "internalType": "address",
          "name": "",
          "type": "address"
        }
      ],
      "stateMutability": "view",
      "type": "function"
    },
    {
      "inputs": [],
      "name": "renounceOwnership",
      "outputs": [],
      "stateMutability": "nonpayable",
      "type": "function"
    },
    {
      "inputs": [
        {
          "internalType": "address",
          "name": "_exchangeRouter",
          "type": "address"
        }
      ],
      "name": "setExchangeRouter",
      "outputs": [],
      "stateMutability": "nonpayable",
      "type": "function"
    },
    {
      "inputs": [
        {
          "internalType": "address",
          "name": "_firstToken",
          "type": "address"
        },
        {
          "internalType": "address",
          "name": "_secondToken",
          "type": "address"
        },
        {
          "internalType": "uint24",
          "name": "_feeTier",
          "type": "uint24"
        }
      ],
      "name": "setFeeTier",
      "outputs": [],
      "stateMutability": "nonpayable",
      "type": "function"
    },
    {
      "inputs": [],
      "name": "setLiquidityPoolFactory",
      "outputs": [],
      "stateMutability": "nonpayable",
      "type": "function"
    },
    {
      "inputs": [
        {
          "internalType": "uint256",
          "name": "_maxIters",
          "type": "uint256"
        }
      ],
      "name": "setMaxIters",
      "outputs": [],
      "stateMutability": "nonpayable",
      "type": "function"
    },
    {
      "inputs": [
        {
          "internalType": "address",
          "name": "_positionManager",
          "type": "address"
        }
      ],
      "name": "setPositionManager",
      "outputs": [],
      "stateMutability": "nonpayable",
      "type": "function"
    },
    {
      "inputs": [
        {
          "internalType": "address",
          "name": "_quoterAddress",
          "type": "address"
        }
      ],
      "name": "setQuoter",
      "outputs": [],
      "stateMutability": "nonpayable",
      "type": "function"
    },
    {
      "inputs": [
        {
          "internalType": "uint256",
          "name": "_tolerance",
          "type": "uint256"
        }
      ],
      "name": "setTolerance",
      "outputs": [],
      "stateMutability": "nonpayable",
      "type": "function"
    },
    {
      "inputs": [],
      "name": "setWrappedNativeToken",
      "outputs": [],
      "stateMutability": "nonpayable",
      "type": "function"
    },
    {
      "inputs": [
        {
          "internalType": "uint256",
          "name": "_inputAmount",
          "type": "uint256"
        },
        {
          "internalType": "uint256",
          "name": "_outputAmount",
          "type": "uint256"
        },
        {
          "internalType": "address[]",
          "name": "_path",
          "type": "address[]"
        },
        {
          "internalType": "address",
          "name": "_to",
          "type": "address"
        },
        {
          "internalType": "uint256",
          "name": "_deadline",
          "type": "uint256"
        },
        {
          "internalType": "bool",
          "name": "_isFixedToken",
          "type": "bool"
        }
      ],
      "name": "swap",
      "outputs": [
        {
          "internalType": "bool",
          "name": "_result",
          "type": "bool"
        },
        {
          "internalType": "uint256[]",
          "name": "_amounts",
          "type": "uint256[]"
        }
      ],
      "stateMutability": "nonpayable",
      "type": "function"
    },
    {
      "inputs": [
        {
          "components": [
            {
              "internalType": "uint256",
              "name": "tokenId",
              "type": "uint256"
            },
            {
              "internalType": "address",
              "name": "token0",
              "type": "address"
            },
            {
              "internalType": "address",
              "name": "token1",
              "type": "address"
            },
            {
              "internalType": "uint24",
              "name": "feeTier",
              "type": "uint24"
            },
            {
              "internalType": "int24",
              "name": "tickLower",
              "type": "int24"
            },
            {
              "internalType": "int24",
              "name": "tickUpper",
              "type": "int24"
            },
            {
              "internalType": "uint256",
              "name": "amount0Desired",
              "type": "uint256"
            },
            {
              "internalType": "uint256",
              "name": "amount1Desired",
              "type": "uint256"
            },
            {
              "internalType": "address",
              "name": "user",
              "type": "address"
            }
          ],
          "internalType": "struct UniswapV3Connector.AddLiquidityParams",
          "name": "params",
          "type": "tuple"
        }
      ],
      "name": "swapAndAddLiquidity",
      "outputs": [
        {
          "internalType": "uint256",
          "name": "_tokenId",
          "type": "uint256"
        },
        {
          "internalType": "uint256",
          "name": "_remaining0",
          "type": "uint256"
        },
        {
          "internalType": "uint256",
          "name": "_remaining1",
          "type": "uint256"
        }
      ],
      "stateMutability": "nonpayable",
      "type": "function"
    },
    {
      "inputs": [
        {
          "internalType": "address",
          "name": "newOwner",
          "type": "address"
        }
      ],
      "name": "transferOwnership",
      "outputs": [],
      "stateMutability": "nonpayable",
      "type": "function"
    },
    {
      "inputs": [],
      "name": "wrappedNativeToken",
      "outputs": [
        {
          "internalType": "address",
          "name": "",
          "type": "address"
        }
      ],
      "stateMutability": "view",
      "type": "function"
    }
  ],
  "transactionHash": "0x35b7933bfedc3ccf424556e39aa07f0b98e5f2129206d7e75f9691c75eb17f2a",
  "args": [],
  "numDeployments": 1,
  "solcInputHash": "4cec7f93ce829ca200c233b98d902d7b",
  "bytecode": "0x608060405234801561001057600080fd5b50614c51806100206000396000f3fe608060405234801561001057600080fd5b50600436106101ac5760003560e01c806301e65db3146101b15780630337236a146101fa57806304fe3fcb1461022557806306fdde031461023a57806311a2f0cb1461024f5780631580b5e51461026f57806317fcb39b146102775780631cb858181461028a57806326829bf91461029d5780632a279b28146102b05780633566967d146102d85780633c5fd98214610302578063463fd1af146103155780635760f2e3146103285780636145f8761461033b578063671c6a231461034e578063715018a61461036157806378c3168414610369578063791b98bc1461038a5780638147b13b1461039d578063838b7ccb146103b05780638779e3d6146103c357806389883074146103e55780638b1937cd146103ff5780638da5cb5b146104125780639b4bca241461041a578063b0bbcd881461043d578063b18a313f1461045e578063b23e4fc614610471578063b52d5b1e14610479578063b9dc6bfa14610490578063dd0081c714610499578063df71d7f3146103e5578063e75d75d5146104a2578063f2fde38b146104b5578063f912c64b146104c8575b600080fd5b6101e16101bf366004613da9565b609c60209081526000928352604080842090915290825290205462ffffff1681565b60405162ffffff90911681526020015b60405180910390f35b61020d6102083660046140d4565b6104db565b6040516001600160801b0390911681526020016101f1565b610238610233366004613de1565b610506565b005b610242610569565b6040516101f19190614725565b609b54610262906001600160a01b031681565b6040516101f19190614652565b6102386105f7565b609854610262906001600160a01b031681565b609954610262906001600160a01b031681565b6102386102ab3660046141c4565b6106a7565b6102c36102be366004614079565b6106b4565b604080519283526020830191909152016101f1565b6102eb6102e6366004613e5d565b6106e1565b6040805192151583526020830191909152016101f1565b6102386103103660046141c4565b6107a0565b610238610323366004613ed7565b6107ad565b610238610336366004613d71565b610a2f565b610242610349366004613e2b565b610a59565b61026261035c366004613de1565b610b83565b610238610cfa565b61037c610377366004613e2b565b610d04565b6040516101f19291906146e5565b609d54610262906001600160a01b031681565b6102626103ab366004613ebb565b611118565b6102386103be366004613d71565b611129565b6103d66103d1366004613f87565b611208565b6040516101f1939291906149c4565b6102eb6103f33660046141f4565b60016000935093915050565b6102eb61040d366004613e5d565b611ef7565b610262611f2f565b61042d610428366004613e2b565b611f3e565b60405190151581526020016101f1565b61045061044b366004614384565b612135565b6040516101f192919061470a565b61024261046c366004613e2b565b6124d7565b610238612615565b610482609f5481565b6040519081526020016101f1565b610482609e5481565b61048261271081565b609a54610262906001600160a01b031681565b6102386104c3366004613d71565b6126c5565b6102386104d6366004613d71565b61273e565b60006104fa866104ea87612768565b6104f387612768565b8686612a23565b90505b95945050505050565b61050e612adb565b6001600160a01b039283166000818152609c60208181526040808420969097168352948552858220805462ffffff90951662ffffff199586168117909155908552858220928252919093529290912080549091169091179055565b6097805461057690614b07565b80601f01602080910402602001604051908101604052809291908181526020018280546105a290614b07565b80156105ef5780601f106105c4576101008083540402835291602001916105ef565b820191906000526020600020905b8154815290600101906020018083116105d257829003601f168201915b505050505081565b6105ff612adb565b609960009054906101000a90046001600160a01b03166001600160a01b0316634aa4a4fc6040518163ffffffff1660e01b815260040160206040518083038186803b15801561064d57600080fd5b505afa158015610661573d6000803e3d6000fd5b505050506040513d601f19601f820116820180604052508101906106859190613d8d565b609880546001600160a01b0319166001600160a01b0392909216919091179055565b6106af612adb565b609e55565b6000806106d3866106c487612768565b6106cd87612768565b86612b3a565b915091505b94509492505050565b6000806106ed84611f3e565b6106fc57506000905080610799565b609b546000906001600160a01b0316632f80bb1d610719876124d7565b866040518363ffffffff1660e01b8152600401610737929190614738565b600060405180830381600087803b15801561075157600080fd5b505af1158015610765573d6000803e3d6000fd5b505050506040513d6000823e601f3d908101601f1916820160405261078d919081019061422a565b50600195509193505050505b9250929050565b6107a8612adb565b609f55565b600054610100900460ff16158080156107cd5750600054600160ff909116105b806107e75750303b1580156107e7575060005460ff166001145b61084f5760405162461bcd60e51b815260206004820152602e60248201527f496e697469616c697a61626c653a20636f6e747261637420697320616c72656160448201526d191e481a5b9a5d1a585b1a5e995960921b60648201526084015b60405180910390fd5b6000805460ff191660011790558015610872576000805461ff0019166101001790555b61087a612bd5565b610882612c04565b8351610895906097906020870190613b89565b50609980546001600160a01b0319166001600160a01b0385169081179091556040805163c45a015560e01b8152905163c45a015591600480820192602092909190829003018186803b1580156108ea57600080fd5b505afa1580156108fe573d6000803e3d6000fd5b505050506040513d601f19601f820116820180604052508101906109229190613d8d565b609a80546001600160a01b03199081166001600160a01b0393841617909155609b8054909116848316179055609954604080516312a9293f60e21b815290519190921691634aa4a4fc916004808301926020929190829003018186803b15801561098b57600080fd5b505afa15801561099f573d6000803e3d6000fd5b505050506040513d601f19601f820116820180604052508101906109c39190613d8d565b609880546001600160a01b0319166001600160a01b03929092169190911790558015610a29576000805461ff0019169055604051600181527f7f26b83ff96e1f2b6a682f133852f6798a09c465da95921460cefb38474024989060200160405180910390a15b50505050565b610a37612adb565b609d80546001600160a01b0319166001600160a01b0392909216919091179055565b606081600081518110610a7c57634e487b7160e01b600052603260045260246000fd5b6020026020010151604051602001610a9491906145d7565b60408051601f19818403018152919052905060015b8251811015610b7d57600083610ac0600184614aad565b81518110610ade57634e487b7160e01b600052603260045260246000fd5b602002602001015190506000848381518110610b0a57634e487b7160e01b600052603260045260246000fd5b6020908102919091018101516001600160a01b038085166000908152609c84526040808220928416825291845281902054905191935062ffffff1691610b56918791849186910161460b565b60405160208183030381529060405294505050508080610b7590614b3c565b915050610aa9565b50919050565b609a54604051630b4c774160e11b815260009182916001600160a01b0390911690631698ee8290610bbc90889088908890600401614666565b60206040518083038186803b158015610bd457600080fd5b505afa158015610be8573d6000803e3d6000fd5b505050506040513d601f19601f82011682018060405250810190610c0c9190613d8d565b60408051600481526024810182526020810180516001600160e01b0316633850c7bd60e01b179052905191925060009182916001600160a01b03851691610c5391906145ef565b600060405180830381855afa9150503d8060008114610c8e576040519150601f19603f3d011682016040523d82523d6000602084013e610c93565b606091505b509150915081610cdb5760405162461bcd60e51b815260206004820152601360248201527204661696c656420746f2067657420736c6f743606c1b6044820152606401610846565b80806020019051810190610cef9190613d8d565b979650505050505050565b610d02612adb565b565b60608060008060005b60018651610d1b9190614aad565b81101561111057609a5486516001600160a01b0390911690631698ee8290889084908110610d5957634e487b7160e01b600052603260045260246000fd5b602002602001015188846001610d6f9190614a56565b81518110610d8d57634e487b7160e01b600052603260045260246000fd5b6020026020010151609c60008b8781518110610db957634e487b7160e01b600052603260045260246000fd5b60200260200101516001600160a01b03166001600160a01b0316815260200190815260200160002060008b876001610df19190614a56565b81518110610e0f57634e487b7160e01b600052603260045260246000fd5b60200260200101516001600160a01b03166001600160a01b0316815260200190815260200160002060009054906101000a900462ffffff166040518463ffffffff1660e01b8152600401610e6593929190614666565b60206040518083038186803b158015610e7d57600080fd5b505afa158015610e91573d6000803e3d6000fd5b505050506040513d601f19601f82011682018060405250810190610eb59190613d8d565b9250826001600160a01b0316633850c7bd6040518163ffffffff1660e01b815260040160e06040518083038186803b158015610ef057600080fd5b505afa158015610f04573d6000803e3d6000fd5b505050506040513d601f19601f82011682018060405250810190610f28919061412e565b505089516001600160a01b03909516965086948a945086935083109150610f61905057634e487b7160e01b600052603260045260246000fd5b602002602001018181525050858181518110610f8d57634e487b7160e01b600052603260045260246000fd5b60200260200101516001600160a01b0316836001600160a01b0316630dfe16816040518163ffffffff1660e01b815260040160206040518083038186803b158015610fd757600080fd5b505afa158015610feb573d6000803e3d6000fd5b505050506040513d601f19601f8201168201806040525081019061100f9190613d8d565b6001600160a01b0316141561108b5785818151811061103e57634e487b7160e01b600052603260045260246000fd5b602002602001015184828151811061106657634e487b7160e01b600052603260045260246000fd5b60200260200101906001600160a01b031690816001600160a01b0316815250506110fe565b85611097826001614a56565b815181106110b557634e487b7160e01b600052603260045260246000fd5b60200260200101518482815181106110dd57634e487b7160e01b600052603260045260246000fd5b60200260200101906001600160a01b031690816001600160a01b0316815250505b8061110881614b3c565b915050610d0d565b505050915091565b600061112382612768565b92915050565b806001600160a01b0381166111505760405162461bcd60e51b81526004016108469061475a565b611158612adb565b609980546001600160a01b0319166001600160a01b0384169081179091556040805163c45a015560e01b8152905163c45a015591600480820192602092909190829003018186803b1580156111ac57600080fd5b505afa1580156111c0573d6000803e3d6000fd5b505050506040513d601f19601f820116820180604052508101906111e49190613d8d565b609a80546001600160a01b0319166001600160a01b03929092169190911790555050565b6000806000611215612c33565b609a54602085015160408087015160608801519151630b4c774160e11b81526000946001600160a01b031693631698ee8293611255939192600401614666565b60206040518083038186803b15801561126d57600080fd5b505afa158015611281573d6000803e3d6000fd5b505050506040513d601f19601f820116820180604052508101906112a59190613d8d565b905084602001516001600160a01b0316816001600160a01b0316630dfe16816040518163ffffffff1660e01b815260040160206040518083038186803b1580156112ee57600080fd5b505afa158015611302573d6000803e3d6000fd5b505050506040513d601f19601f820116820180604052508101906113269190613d8d565b6001600160a01b0316146113645760c0850180516020870180516040890180516001600160a01b039081169093529116905260e08701805190925290525b84511561154057609d54855160405163133f757160e31b81526004810191909152600091829182916001600160a01b0316906399fbab88906024016101806040518083038186803b1580156113b857600080fd5b505afa1580156113cc573d6000803e3d6000fd5b505050506040513d601f19601f820116820180604052508101906113f09190614401565b505050505096509650965050505050876060015162ffffff168362ffffff161461146a5760405162461bcd60e51b815260206004820152602560248201527f556e69737761705633436f6e6e6563746f723a204665652074696572206d69736044820152640dac2e8c6d60db1b6064820152608401610846565b876080015160020b8260020b146114d35760405162461bcd60e51b815260206004820152602760248201527f556e69737761705633436f6e6e6563746f723a205469636b206c6f776572206d6044820152660d2e6dac2e8c6d60cb1b6064820152608401610846565b8760a0015160020b8160020b1461153c5760405162461bcd60e51b815260206004820152602760248201527f556e69737761705633436f6e6e6563746f723a205469636b207570706572206d6044820152660d2e6dac2e8c6d60cb1b6064820152608401610846565b5050505b61156833308760c0015188602001516001600160a01b0316612c8d909392919063ffffffff16565b61159033308760e0015188604001516001600160a01b0316612c8d909392919063ffffffff16565b602085015160995460c087015160405163095ea7b360e01b81526001600160a01b039384169363095ea7b3936115cb9391169160040161468e565b602060405180830381600087803b1580156115e557600080fd5b505af11580156115f9573d6000803e3d6000fd5b505050506040513d601f19601f8201168201806040525081019061161d9190613e9f565b5060408086015160995460e0880151925163095ea7b360e01b81526001600160a01b039283169363095ea7b39361165893169160040161468e565b602060405180830381600087803b15801561167257600080fd5b505af1158015611686573d6000803e3d6000fd5b505050506040513d601f19601f820116820180604052508101906116aa9190613e9f565b506020850151609d5460405163095ea7b360e01b81526001600160a01b039283169263095ea7b3926116e5929116906000199060040161468e565b602060405180830381600087803b1580156116ff57600080fd5b505af1158015611713573d6000803e3d6000fd5b505050506040513d601f19601f820116820180604052508101906117379190613e9f565b50604080860151609d54915163095ea7b360e01b81526001600160a01b039182169263095ea7b392611772929116906000199060040161468e565b602060405180830381600087803b15801561178c57600080fd5b505af11580156117a0573d6000803e3d6000fd5b505050506040513d601f19601f820116820180604052508101906117c49190613e9f565b5060006117de866020015187604001518860600151610b83565b9050600061180f826117f38960800151612768565b6118008a60a00151612768565b8a60c001518b60e00151612a23565b9050600080611832846118258b60800151612768565b6106cd8c60a00151612768565b91509150600080821161184757600019611864565b8161185a84670de0b6b3a7640000614a8e565b6118649190614a6e565b90506000808b60e001511161187b576000196118a1565b60e08b015160c08c015161189790670de0b6b3a7640000614a8e565b6118a19190614a6e565b90506000828211156118d1576118ca886001878f60c001516118c39190614aad565b8f87612cf8565b9050611921565b82821080156118e05750600083115b156119215761191e886000868f60e001516118fb9190614aad565b8f8961190f8a670de0b6b3a7640000614a8e565b6119199190614a6e565b612cf8565b90505b60018115151415611d5f578b51611b5b57609d60009054906101000a90046001600160a01b03166001600160a01b031663883164566040518061016001604052808f602001516001600160a01b031681526020018f604001516001600160a01b031681526020018f6060015162ffffff1681526020018f6080015160020b81526020018f60a0015160020b81526020018f602001516001600160a01b03166370a08231306040518263ffffffff1660e01b81526004016119e19190614652565b60206040518083038186803b1580156119f957600080fd5b505afa158015611a0d573d6000803e3d6000fd5b505050506040513d601f19601f82011682018060405250810190611a3191906141dc565b81526020018f604001516001600160a01b03166370a08231306040518263ffffffff1660e01b8152600401611a669190614652565b60206040518083038186803b158015611a7e57600080fd5b505afa158015611a92573d6000803e3d6000fd5b505050506040513d601f19601f82011682018060405250810190611ab691906141dc565b815260200160008152602001600081526020018f61010001516001600160a01b03168152602001428152506040518263ffffffff1660e01b8152600401611afd919061490e565b608060405180830381600087803b158015611b1757600080fd5b505af1158015611b2b573d6000803e3d6000fd5b505050506040513d601f19601f82011682018060405250810190611b4f9190614302565b50919c50611d5f915050565b8b600001519a50609d60009054906101000a90046001600160a01b03166001600160a01b031663219f5d176040518060c001604052808f6000015181526020018f602001516001600160a01b03166370a08231306040518263ffffffff1660e01b8152600401611bcb9190614652565b60206040518083038186803b158015611be357600080fd5b505afa158015611bf7573d6000803e3d6000fd5b505050506040513d601f19601f82011682018060405250810190611c1b91906141dc565b81526020018f604001516001600160a01b03166370a08231306040518263ffffffff1660e01b8152600401611c509190614652565b60206040518083038186803b158015611c6857600080fd5b505afa158015611c7c573d6000803e3d6000fd5b505050506040513d601f19601f82011682018060405250810190611ca091906141dc565b8152600060208083018290526040808401929092524260609384015281516001600160e01b031960e087901b168152845160048201529084015160248201529083015160448201529082015160648201526080820151608482015260a09091015160a482015260c401606060405180830381600087803b158015611d2357600080fd5b505af1158015611d37573d6000803e3d6000fd5b505050506040513d601f19601f82011682018060405250810190611d5b9190614043565b5050505b8b602001516001600160a01b03166370a08231306040518263ffffffff1660e01b8152600401611d8f9190614652565b60206040518083038186803b158015611da757600080fd5b505afa158015611dbb573d6000803e3d6000fd5b505050506040513d601f19601f82011682018060405250810190611ddf91906141dc565b99508b604001516001600160a01b03166370a08231306040518263ffffffff1660e01b8152600401611e119190614652565b60206040518083038186803b158015611e2957600080fd5b505afa158015611e3d573d6000803e3d6000fd5b505050506040513d601f19601f82011682018060405250810190611e6191906141dc565b98508915611e825760208c0151611e82906001600160a01b0316338c6130c1565b8815611ea15760408c0151611ea1906001600160a01b0316338b6130c1565b7f1f515950ae0671cc6356d5014eac559a4c7093757efea02e83e7c21398fdb5d78c8b8b8e604051611ed694939291906147da565b60405180910390a15050505050505050611ef06001606555565b9193909250565b600080611f0384611f3e565b611f1257506000905080610799565b609b546000906001600160a01b031663cdca175361071987610a59565b6033546001600160a01b031690565b600080600283511015611f545750600092915050565b60005b60018451611f659190614aad565b81101561212b57609a5484516001600160a01b0390911690631698ee8290869084908110611fa357634e487b7160e01b600052603260045260246000fd5b602002602001015186846001611fb99190614a56565b81518110611fd757634e487b7160e01b600052603260045260246000fd5b6020026020010151609c600089878151811061200357634e487b7160e01b600052603260045260246000fd5b60200260200101516001600160a01b03166001600160a01b0316815260200190815260200160002060008987600161203b9190614a56565b8151811061205957634e487b7160e01b600052603260045260246000fd5b60200260200101516001600160a01b03166001600160a01b0316815260200190815260200160002060009054906101000a900462ffffff166040518463ffffffff1660e01b81526004016120af93929190614666565b60206040518083038186803b1580156120c757600080fd5b505afa1580156120db573d6000803e3d6000fd5b505050506040513d601f19601f820116820180604052508101906120ff9190613d8d565b91506001600160a01b038216612119575060009392505050565b8061212381614b3c565b915050611f57565b5060019392505050565b60006060612141612c33565b846001600160a01b0381166121685760405162461bcd60e51b81526004016108469061475a565b60006121778a8a8a89896130ec565b909450905083156124c0576040805160028082526060820183526000926020830190803683370190505093506121eb3330848c6000815181106121ca57634e487b7160e01b600052603260045260246000fd5b60200260200101516001600160a01b0316612c8d909392919063ffffffff16565b8860008151811061220c57634e487b7160e01b600052603260045260246000fd5b602090810291909101015160995460405163095ea7b360e01b81526001600160a01b039283169263095ea7b39261224a92911690869060040161468e565b602060405180830381600087803b15801561226457600080fd5b505af1158015612278573d6000803e3d6000fd5b505050506040513d601f19601f8201168201806040525081019061229c9190613e9f565b5060018615151415612393576099546001600160a01b031663c04b8d596122c6848d8d8d8d6131a8565b6040518263ffffffff1660e01b81526004016122e29190614892565b602060405180830381600087803b1580156122fc57600080fd5b505af1158015612310573d6000803e3d6000fd5b505050506040513d601f19601f8201168201806040525081019061233491906141dc565b9050818460008151811061235857634e487b7160e01b600052603260045260246000fd5b602002602001018181525050808460018151811061238657634e487b7160e01b600052603260045260246000fd5b6020026020010181815250505b85612483576099546001600160a01b031663f28c04986123b6848d8d8d8d613225565b6040518263ffffffff1660e01b81526004016123d29190614892565b602060405180830381600087803b1580156123ec57600080fd5b505af1158015612400573d6000803e3d6000fd5b505050506040513d601f19601f8201168201806040525081019061242491906141dc565b9050808460008151811061244857634e487b7160e01b600052603260045260246000fd5b602002602001018181525050898460018151811061247657634e487b7160e01b600052603260045260246000fd5b6020026020010181815250505b7fe1010d0ab476908054981d12fbb96915efcceb8d57a09ae8ca62f4bda731837389858a6040516124b6939291906146a7565b60405180910390a1505b50506124cc6001606555565b965096945050505050565b606081600183516124e89190614aad565b8151811061250657634e487b7160e01b600052603260045260246000fd5b602002602001015160405160200161251e91906145d7565b604051602081830303815290604052905060006001835161253f9190614aad565b90505b8015610b7d57600083828151811061256a57634e487b7160e01b600052603260045260246000fd5b602002602001015190506000846001846125849190614aad565b815181106125a257634e487b7160e01b600052603260045260246000fd5b6020908102919091018101516001600160a01b038085166000908152609c84526040808220928416825291845281902054905191935062ffffff16916125ee918791849186910161460b565b6040516020818303038152906040529450505050808061260d90614af0565b915050612542565b61261d612adb565b609960009054906101000a90046001600160a01b03166001600160a01b031663c45a01556040518163ffffffff1660e01b815260040160206040518083038186803b15801561266b57600080fd5b505afa15801561267f573d6000803e3d6000fd5b505050506040513d601f19601f820116820180604052508101906126a39190613d8d565b609a80546001600160a01b0319166001600160a01b0392909216919091179055565b6126cd612adb565b6001600160a01b0381166127325760405162461bcd60e51b815260206004820152602660248201527f4f776e61626c653a206e6577206f776e657220697320746865207a65726f206160448201526564647265737360d01b6064820152608401610846565b61273b816132a3565b50565b612746612adb565b609b80546001600160a01b0319166001600160a01b0392909216919091179055565b60020b600060ff82901d80830118620d89e8811115612792576127926345c3193d60e11b846132f5565b7001fffcb933bd6fad37aa2d162d1a5940016001821602600160801b1860028216156127ce576ffff97272373d413259a46990580e213a0260801c5b60048216156127ed576ffff2e50f5f656932ef12357cf3c7fdcc0260801c5b600882161561280c576fffe5caca7e10e4e61c3624eaa0941cd00260801c5b601082161561282b576fffcb9843d60f6159c9db58835c9266440260801c5b602082161561284a576fff973b41fa98c081472e6896dfb254c00260801c5b6040821615612869576fff2ea16466c96a3843ec78b326b528610260801c5b6080821615612888576ffe5dee046a99a2a811c461f1969c30530260801c5b6101008216156128a8576ffcbe86c7900a88aedcffc83b479aa3a40260801c5b6102008216156128c8576ff987a7253ac413176f2b074cf7815e540260801c5b6104008216156128e8576ff3392b0822b70005940c7a398e4b70f30260801c5b610800821615612908576fe7159475a2c29b7443b29c7fa6e889d90260801c5b611000821615612928576fd097f3bdfd2022b8845ad8f792aa58250260801c5b612000821615612948576fa9f746462d870fdf8a65dc1f90e061e50260801c5b614000821615612968576f70d869a156d2a1b890bb3df62baf32f70260801c5b618000821615612988576f31be135f97d08fd981231505542fcfa60260801c5b620100008216156129a9576f09aa508b5b7a84e1c677de54f3e99bc90260801c5b620200008216156129c9576e5d6af8dedb81196699c329225ee6040260801c5b620400008216156129e8576d2216e584f5fa1ea926041bedfe980260801c5b62080000821615612a05576b048a170391f7dc42444e8fa20260801c5b6000841315612a1357600019045b63ffffffff0160201c9392505050565b6000836001600160a01b0316856001600160a01b03161115612a43579293925b846001600160a01b0316866001600160a01b031611612a6e57612a67858585613306565b90506104fd565b836001600160a01b0316866001600160a01b03161015612ad0576000612a95878686613306565b90506000612aa4878986613374565b9050806001600160801b0316826001600160801b031610612ac55780612ac7565b815b925050506104fd565b6104fa858584613374565b33612ae4611f2f565b6001600160a01b031614610d025760405162461bcd60e51b815260206004820181905260248201527f4f776e61626c653a2063616c6c6572206973206e6f7420746865206f776e65726044820152606401610846565b600080836001600160a01b0316856001600160a01b03161115612b5b579293925b846001600160a01b0316866001600160a01b031611612b8657612b7f8585856133b9565b91506106d8565b836001600160a01b0316866001600160a01b03161015612bbf57612bab8685856133b9565b9150612bb8858785613436565b90506106d8565b612bca858585613436565b905094509492505050565b600054610100900460ff16612bfc5760405162461bcd60e51b81526004016108469061478f565b610d02613479565b600054610100900460ff16612c2b5760405162461bcd60e51b81526004016108469061478f565b610d026134a9565b60026065541415612c865760405162461bcd60e51b815260206004820152601f60248201527f5265656e7472616e637947756172643a207265656e7472616e742063616c6c006044820152606401610846565b6002606555565b6040516001600160a01b0380851660248301528316604482015260648101829052610a299085906323b872dd60e01b906084015b60408051601f198184030181529190526020810180516001600160e01b03166001600160e01b0319909316929092179091526134d0565b6040805161010081018252600080825260208201819052918101829052606081018290526080810182905260a0810182905260c0810182905260e08101829052819081906000612d55876020015188604001518960600151610b83565b9050600080612dee83612d6b8b60800151612768565b612d788c60a00151612768565b8f6001600160a01b0316631a6865026040518163ffffffff1660e01b815260040160206040518083038186803b158015612db157600080fd5b505afa158015612dc5573d6000803e3d6000fd5b505050506040513d601f19601f82011682018060405250810190612de99190614027565b612b3a565b915091508a15612e7f57612e058a8a8a85856135a2565b95506040518061010001604052808a602001516001600160a01b031681526020018a604001516001600160a01b031681526020018a6060015162ffffff168152602001306001600160a01b031681526020014281526020018781526020016000815260200160006001600160a01b03168152509350612f8a565b6000604051806101200160405280600081526020018b604001516001600160a01b031681526020018b602001516001600160a01b031681526020018b6060015162ffffff1681526020018b6080015160020b81526020018b60a0015160020b81526020018b60e0015181526020018b60c001518152602001306001600160a01b03168152509050612f138b828b85876135a2565b96506040518061010001604052808b604001516001600160a01b031681526020018b602001516001600160a01b031681526020018b6060015162ffffff168152602001306001600160a01b031681526020014281526020018881526020016000815260200160006001600160a01b03168152509450505b85156130555760995460405163414bf38960e01b81526001600160a01b039091169063414bf38990612fc09087906004016148a5565b602060405180830381600087803b158015612fda57600080fd5b505af192505050801561300a575060408051601f3d908101601f19168201909252613007918101906141dc565b60015b61304e577f9d59876b18f79e115be9d302366cea861bf07717ed73b2e4978566b4a8ba36d08460405161303d91906148a5565b60405180910390a160009650613055565b6001975094505b600187151514156130b257604080518c151581526020810188905290810186905260608101839052608081018290527f930522e019723ff432e1a8923b25ab0a8a9fe4dcc26f41b33762778f1b45bc989060a00160405180910390a15b50505050505095945050505050565b6130e08363a9059cbb60e01b8484604051602401612cc192919061468e565b505050565b6001606555565b600080428410156131025750600090508061319e565b600183151514156131565760008061311a878a611ef7565b9092509050816131325760008093509350505061319e565b808811156131485760008093509350505061319e565b60018993509350505061319e565b60008061316387896106e1565b90925090508161317b5760008093509350505061319e565b808910156131915760008093509350505061319e565b60019350915061319e9050565b9550959350505050565b6131e36040518060a001604052806060815260200160006001600160a01b031681526020016000815260200160008152602001600081525090565b6040518060a001604052806131f786610a59565b81526001600160a01b0390941660208501526040840192909252506060820194909452608001919091525090565b6132606040518060a001604052806060815260200160006001600160a01b031681526020016000815260200160008152602001600081525090565b6040518060a00160405280613274866124d7565b8152602001846001600160a01b0316815260200183815260200186815260200187815250905095945050505050565b603380546001600160a01b038381166001600160a01b0319831681179093556040519116919082907f8be0079c531659141344cd1fd0a4f28419497f9722a3daafe3b4186f6b6457e090600090a35050565b816000528060020b60045260246000fd5b6000826001600160a01b0316846001600160a01b03161115613326579192915b6000613349856001600160a01b0316856001600160a01b0316600160601b613816565b905061336961336484838888036001600160a01b0316613816565b6138b5565b9150505b9392505050565b6000826001600160a01b0316846001600160a01b03161115613394579192915b6133b161336483600160601b8787036001600160a01b0316613816565b949350505050565b6000826001600160a01b0316846001600160a01b031611156133d9579192915b836001600160a01b0316613412606060ff16846001600160801b0316901b8686036001600160a01b0316866001600160a01b0316613816565b8161342d57634e487b7160e01b600052601260045260246000fd5b04949350505050565b6000826001600160a01b0316846001600160a01b03161115613456579192915b6133b1826001600160801b03168585036001600160a01b0316600160601b613816565b600054610100900460ff166134a05760405162461bcd60e51b81526004016108469061478f565b610d02336132a3565b600054610100900460ff166130e55760405162461bcd60e51b81526004016108469061478f565b6000613525826040518060400160405280602081526020017f5361666545524332303a206c6f772d6c6576656c2063616c6c206661696c6564815250856001600160a01b03166138db9092919063ffffffff16565b8051909150156130e057808060200190518101906135439190613e9f565b6130e05760405162461bcd60e51b815260206004820152602a60248201527f5361666545524332303a204552433230206f7065726174696f6e20646964206e6044820152691bdd081cdd58d8d9595960b21b6064820152608401610846565b60008460c00151600014156135b9575060006104fd565b6000808660e00151116135ce576000196135f4565b60e086015160c08701516135ea90670de0b6b3a7640000614a8e565b6135f49190614a6e565b9050848114156136085760009150506104fd565b60006000198161361960088b614a6e565b9050896000805b609e548160ff1610156137dc5760006136478d602001518e604001518f60600151876138ea565b9050808d60e001516136599190614a56565b848e60c001516136699190614aad565b61367b90670de0b6b3a7640000614a8e565b6136859190614a6e565b97506000613693828c614aad565b116136a0576000196136d0565b6136aa818b614aad565b6136b4858d614a56565b6136c690670de0b6b3a7640000614a8e565b6136d09190614a6e565b9250600083891161370257836127106136e98b83614aad565b6136f39190614a8e565b6136fd9190614a6e565b613724565b83612710613710828c614aad565b61371a9190614a8e565b6137249190614a6e565b90508681101561373957809650849750613752565b613744600287614a6e565b9550856137525750506137dc565b609f54811161379557600080516020614bfc83398151915289858f60405161377c939291906149c4565b60405180910390a18799505050505050505050506104fd565b8c8911156137ae576137a78686614a56565b94506137c9565b8585116137bc5760006137c6565b6137c68686614aad565b94505b5050806137d590614b57565b9050613620565b50600080516020614bfc83398151915286828c6040516137fe939291906149c4565b60405180910390a150929a9950505050505050505050565b6000838302816000198587098281108382030391505080841161383857600080fd5b806138485750829004905061336d565b6000848688096000868103871696879004966002600389028118808a02820302808a02820302808a02820302808a02820302808a02820302808a02909103029181900381900460010186841190950394909402919094039290920491909117919091029150509392505050565b806001600160801b03811681146138d6576138d66393dafdf160e01b613a2e565b919050565b60606133b18484600085613a38565b609b546040805160a0810182526001600160a01b0387811682528681166020830190815282840186815262ffffff888116606086019081526000608087018181529751636352813560e11b81529651861660048801529351851660248701529151604486015290511660648401529251811660848301529192919091169063c6a5026a9060a401608060405180830381600087803b15801561398b57600080fd5b505af115801561399f573d6000803e3d6000fd5b505050506040513d601f19601f820116820180604052508101906139c3919061433f565b5050604080516001600160a01b0389811682528816602082015262ffffff871681830152606081018690526080810184905290519293507f81b09b5692a89d67c3335a9f1bc50937627e1853e978e56ad6964b65756289ee929081900360a0019150a1949350505050565b8060005260046000fd5b606082471015613a995760405162461bcd60e51b815260206004820152602660248201527f416464726573733a20696e73756666696369656e742062616c616e636520666f6044820152651c8818d85b1b60d21b6064820152608401610846565b843b613ae75760405162461bcd60e51b815260206004820152601d60248201527f416464726573733a2063616c6c20746f206e6f6e2d636f6e74726163740000006044820152606401610846565b600080866001600160a01b03168587604051613b0391906145ef565b60006040518083038185875af1925050503d8060008114613b40576040519150601f19603f3d011682016040523d82523d6000602084013e613b45565b606091505b5091509150610cef82828660608315613b5f57508161336d565b825115613b6f5782518084602001fd5b8160405162461bcd60e51b81526004016108469190614725565b828054613b9590614b07565b90600052602060002090601f016020900481019282613bb75760008555613bfd565b82601f10613bd057805160ff1916838001178555613bfd565b82800160010185558215613bfd579182015b82811115613bfd578251825591602001919060010190613be2565b50613c09929150613c0d565b5090565b5b80821115613c095760008155600101613c0e565b80356138d681614ba3565b80516138d681614ba3565b600082601f830112613c48578081fd5b81356020613c5d613c5883614a33565b614a03565b80838252828201915082860187848660051b8901011115613c7c578586fd5b855b85811015613ca3578135613c9181614ba3565b84529284019290840190600101613c7e565b5090979650505050505050565b600082601f830112613cc0578081fd5b81516020613cd0613c5883614a33565b80838252828201915082860187848660051b8901011115613cef578586fd5b855b85811015613ca357613d0282613d5d565b84529284019290840190600101613cf1565b80356138d681614bc6565b80516138d681614bc6565b80516138d681614bd5565b805161ffff811681146138d657600080fd5b80356138d681614bea565b80516138d681614bea565b805163ffffffff811681146138d657600080fd5b600060208284031215613d82578081fd5b813561336d81614ba3565b600060208284031215613d9e578081fd5b815161336d81614ba3565b60008060408385031215613dbb578081fd5b8235613dc681614ba3565b91506020830135613dd681614ba3565b809150509250929050565b600080600060608486031215613df5578081fd5b8335613e0081614ba3565b92506020840135613e1081614ba3565b91506040840135613e2081614bea565b809150509250925092565b600060208284031215613e3c578081fd5b81356001600160401b03811115613e51578182fd5b6133b184828501613c38565b60008060408385031215613e6f578182fd5b82356001600160401b03811115613e84578283fd5b613e9085828601613c38565b95602094909401359450505050565b600060208284031215613eb0578081fd5b815161336d81614bb8565b600060208284031215613ecc578081fd5b813561336d81614bc6565b600080600060608486031215613eeb578081fd5b83356001600160401b0380821115613f01578283fd5b818601915086601f830112613f14578283fd5b8135602082821115613f2857613f28614b8d565b613f3a601f8301601f19168201614a03565b92508183528881838601011115613f4f578485fd5b818185018285013784818385010152829650613f6c818901613c22565b955050505050613f7e60408501613c22565b90509250925092565b60006101208284031215613f99578081fd5b613fa16149da565b82358152613fb160208401613c22565b6020820152613fc260408401613c22565b6040820152613fd360608401613d47565b6060820152613fe460808401613d14565b6080820152613ff560a08401613d14565b60a082015260c083013560c082015260e083013560e082015261010061401c818501613c22565b908201529392505050565b600060208284031215614038578081fd5b815161336d81614bd5565b600080600060608486031215614057578081fd5b835161406281614bd5565b602085015160409095015190969495509392505050565b6000806000806080858703121561408e578182fd5b843561409981614ba3565b935060208501356140a981614bc6565b925060408501356140b981614bc6565b915060608501356140c981614bd5565b939692955090935050565b600080600080600060a086880312156140eb578283fd5b85356140f681614ba3565b9450602086013561410681614bc6565b9350604086013561411681614bc6565b94979396509394606081013594506080013592915050565b600080600080600080600060e0888a031215614148578485fd5b875161415381614ba3565b602089015190975061416481614bc6565b955061417260408901613d35565b945061418060608901613d35565b935061418e60808901613d35565b925060a088015160ff811681146141a3578283fd5b60c08901519092506141b481614bb8565b8091505092959891949750929550565b6000602082840312156141d5578081fd5b5035919050565b6000602082840312156141ed578081fd5b5051919050565b600080600060608486031215614208578081fd5b83359250602084013561421a81614ba3565b91506040840135613e2081614ba3565b6000806000806080858703121561423f578182fd5b8451602080870151919550906001600160401b038082111561425f578485fd5b818801915088601f830112614272578485fd5b8151614280613c5882614a33565b8082825285820191508585018c878560051b880101111561429f578889fd5b8895505b838610156142ca5780516142b681614ba3565b8352600195909501949186019186016142a3565b5060408b015190985094505050808311156142e3578485fd5b50506142f187828801613cb0565b606096909601519497939650505050565b60008060008060808587031215614317578182fd5b84519350602085015161432981614bd5565b6040860151606090960151949790965092505050565b60008060008060808587031215614354578182fd5b84519350602085015161436681614ba3565b925061437460408601613d5d565b6060959095015193969295505050565b60008060008060008060c0878903121561439c578384fd5b863595506020870135945060408701356001600160401b038111156143bf578485fd5b6143cb89828a01613c38565b94505060608701356143dc81614ba3565b92506080870135915060a08701356143f381614bb8565b809150509295509295509295565b6000806000806000806000806000806000806101808d8f031215614423578586fd5b8c516001600160601b0381168114614439578687fd5b9b5061444760208e01613c2d565b9a5061445560408e01613c2d565b995061446360608e01613c2d565b985061447160808e01613d52565b975061447f60a08e01613d1f565b965061448d60c08e01613d1f565b955061449b60e08e01613d2a565b94506101008d015193506101208d015192506144ba6101408e01613d2a565b91506144c96101608e01613d2a565b90509295989b509295989b509295989b565b6001600160a01b03169052565b6000815180845260208085019450808401835b838110156145205781516001600160a01b0316875295820195908201906001016144fb565b509495945050505050565b6000815180845260208085019450808401835b838110156145205781518752958201959082019060010161453e565b60008151808452614572816020860160208601614ac4565b601f01601f19169290920160200192915050565b6000815160a0845261459b60a085018261455a565b6020848101516001600160a01b031690860152604080850151908601526060808501519086015260809384015193909401929092525090919050565b60609190911b6001600160601b031916815260140190565b60008251614601818460208701614ac4565b9190910192915050565b6000845161461d818460208901614ac4565b60e89490941b6001600160e81b0319169190930190815260609190911b6001600160601b031916600382015260170192915050565b6001600160a01b0391909116815260200190565b6001600160a01b03938416815291909216602082015262ffffff909116604082015260600190565b6001600160a01b03929092168252602082015260400190565b6060815260006146ba60608301866144e8565b82810360208401526146cc818661452b565b91505060018060a01b0383166040830152949350505050565b6040815260006146f8604083018561452b565b828103602084015261336981856144e8565b82151581526040602082015260006133b1604083018461452b565b60208152600061336d602083018461455a565b60408152600061474b604083018561455a565b90508260208301529392505050565b6020808252818101527f556e69737761705633436f6e6e6563746f723a207a65726f2061646472657373604082015260600190565b6020808252602b908201527f496e697469616c697a61626c653a20636f6e7472616374206973206e6f74206960408201526a6e697469616c697a696e6760a81b606082015260800190565b845181526020808601516001600160a01b031690820152604080860151610180830191614809908401826144db565b506060860151614820606084018262ffffff169052565b506080860151614835608084018260020b9052565b5060a086015161484a60a084018260020b9052565b5060c086015160c083015260e086015160e083015261010080870151614872828501826144db565b505084610120830152836101408301528261016083015295945050505050565b60208152600061336d6020830184614586565b81516001600160a01b03908116825260208084015182169083015260408084015162ffffff16908301526060808401518216908301526080808401519083015260a0838101519083015260c0808401519083015260e09283015116918101919091526101000190565b6000610160820190506149228284516144db565b602083015161493460208401826144db565b50604083015161494b604084018262ffffff169052565b506060830151614960606084018260020b9052565b506080830151614975608084018260020b9052565b5060a083015160a083015260c083015160c083015260e083015160e0830152610100808401518184015250610120808401516149b3828501826144db565b505061014092830151919092015290565b9283526020830191909152604082015260600190565b60405161012081016001600160401b03811182821017156149fd576149fd614b8d565b60405290565b604051601f8201601f191681016001600160401b0381118282101715614a2b57614a2b614b8d565b604052919050565b60006001600160401b03821115614a4c57614a4c614b8d565b5060051b60200190565b60008219821115614a6957614a69614b77565b500190565b600082614a8957634e487b7160e01b81526012600452602481fd5b500490565b6000816000190483118215151615614aa857614aa8614b77565b500290565b600082821015614abf57614abf614b77565b500390565b60005b83811015614adf578181015183820152602001614ac7565b83811115610a295750506000910152565b600081614aff57614aff614b77565b506000190190565b600181811c90821680614b1b57607f821691505b60208210811415610b7d57634e487b7160e01b600052602260045260246000fd5b6000600019821415614b5057614b50614b77565b5060010190565b600060ff821660ff811415614b6e57614b6e614b77565b60010192915050565b634e487b7160e01b600052601160045260246000fd5b634e487b7160e01b600052604160045260246000fd5b6001600160a01b038116811461273b57600080fd5b801515811461273b57600080fd5b8060020b811461273b57600080fd5b6001600160801b038116811461273b57600080fd5b62ffffff8116811461273b57600080fdfea7a3c462ea5cf8a25c56064b25f60dc8dc6f9c22fe713da4044e8131ac28d483a2646970667358221220dede5d79bb3790eb40bb2c54ca415b43be89d97709ae2b4cd01a92bca3edc79364736f6c63430008040033",
  "devdoc": {
    "kind": "dev",
    "methods": {
      "getExactInput(address[],uint256)": {
        "details": "Return (false, 0) if DEX cannot swap the input amount"
      },
      "getExactOutput(address[],uint256)": {
        "details": "Return (false, 0) if DEX cannot give the output amount.       Note: No need to reverse the path for this function"
      },
      "initialize(string,address,address)": {
        "params": {
          "_exchangeRouter": "Address of the DEX router contract",
          "_name": "Name of the underlying DEX"
        }
      },
      "isPathValid(address[])": {
        "params": {
          "_path": "List of tokens that are used for exchanging"
        }
      },
      "owner()": {
        "details": "Returns the address of the current owner."
      },
      "renounceOwnership()": {
        "details": "Leaves the contract without owner. It will not be possible to call `onlyOwner` functions. Can only be called by the current owner. NOTE: Renouncing ownership will leave the contract without an owner, thereby disabling any functionality that is only available to the owner."
      },
      "setExchangeRouter(address)": {
        "details": "Set address of liquidity pool factory from the exchange router",
        "params": {
          "_exchangeRouter": "Address of the new exchange router contract"
        }
      },
      "setFeeTier(address,address,uint24)": {
        "details": "We set the fee tier that is used for exchanging tokens"
      },
      "setLiquidityPoolFactory()": {
        "details": "Set address from exchange router"
      },
      "setWrappedNativeToken()": {
        "details": "Get address from exchange router"
      },
      "swap(uint256,uint256,address[],address,uint256,bool)": {
        "details": "Check exchange conditions before exchanging      We assume that the input token is not WETH (it is teleBTC)",
        "params": {
          "_deadline": "Deadline of exchanging tokens",
          "_inputAmount": "Amount of input token",
          "_isFixedToken": "True if the input token amount is fixed",
          "_outputAmount": "Amount of output token",
          "_path": "List of tokens that are used for exchanging",
          "_to": "Receiver address"
        },
        "returns": {
          "_amounts": "Amounts of tokens that are involved in exchanging",
          "_result": "True if the exchange is successful"
        }
      },
      "transferOwnership(address)": {
        "details": "Transfers ownership of the contract to a new account (`newOwner`). Can only be called by the current owner."
      }
    },
    "version": 1
  },
  "userdoc": {
    "kind": "user",
    "methods": {
      "getExactInput(address[],uint256)": {
        "notice": "Return the output amount for the given input amount"
      },
      "getExactOutput(address[],uint256)": {
        "notice": "Return the needed input amount to get the output amount"
      },
      "getInputAmount(uint256,address,address)": {
        "notice": "Deprecated for v3"
      },
      "getOutputAmount(uint256,address,address)": {
        "notice": "Deprecated for v3"
      },
      "getSqrtPriceX96(address[])": {
        "notice": "Return the square root price of given token pairs"
      },
      "initialize(string,address,address)": {
        "notice": "This contract is used for interacting with UniswapV3 contract"
      },
      "isPathValid(address[])": {
        "notice": "Return true if the exchange path is valid"
      },
      "setExchangeRouter(address)": {
        "notice": "Setter for exchange router"
      },
      "setFeeTier(address,address,uint24)": {
        "notice": "Setter for fee tier"
      },
      "setLiquidityPoolFactory()": {
        "notice": "Setter for liquidity pool factory"
      },
      "setPositionManager(address)": {
        "notice": "Setter for position manager"
      },
      "setQuoter(address)": {
        "notice": "Setter for quoter"
      },
      "setWrappedNativeToken()": {
        "notice": "Setter for wrapped native token"
      },
      "swap(uint256,uint256,address[],address,uint256,bool)": {
        "notice": "Exchange input token for output token through exchange router"
      },
      "swapAndAddLiquidity((uint256,address,address,uint24,int24,int24,uint256,uint256,address))": {
        "notice": "Zap tokens into a Uniswap V3 position in one call"
      }
    },
    "version": 1
  },
  "storageLayout": {
    "storage": [
      {
        "astId": 139,
        "contract": "contracts/dex_connectors/UniswapV3Connector.sol:UniswapV3Connector",
        "label": "_initialized",
        "offset": 0,
        "slot": "0",
        "type": "t_uint8"
      },
      {
        "astId": 142,
        "contract": "contracts/dex_connectors/UniswapV3Connector.sol:UniswapV3Connector",
        "label": "_initializing",
        "offset": 1,
        "slot": "0",
        "type": "t_bool"
      },
      {
        "astId": 766,
        "contract": "contracts/dex_connectors/UniswapV3Connector.sol:UniswapV3Connector",
        "label": "__gap",
        "offset": 0,
        "slot": "1",
        "type": "t_array(t_uint256)50_storage"
      },
      {
        "astId": 11,
        "contract": "contracts/dex_connectors/UniswapV3Connector.sol:UniswapV3Connector",
        "label": "_owner",
        "offset": 0,
        "slot": "51",
        "type": "t_address"
      },
      {
        "astId": 131,
        "contract": "contracts/dex_connectors/UniswapV3Connector.sol:UniswapV3Connector",
        "label": "__gap",
        "offset": 0,
        "slot": "52",
        "type": "t_array(t_uint256)49_storage"
      },
      {
        "astId": 316,
        "contract": "contracts/dex_connectors/UniswapV3Connector.sol:UniswapV3Connector",
        "label": "_status",
        "offset": 0,
        "slot": "101",
        "type": "t_uint256"
      },
      {
        "astId": 385,
        "contract": "contracts/dex_connectors/UniswapV3Connector.sol:UniswapV3Connector",
        "label": "__gap",
        "offset": 0,
        "slot": "102",
        "type": "t_array(t_uint256)49_storage"
      },
      {
        "astId": 1853,
        "contract": "contracts/dex_connectors/UniswapV3Connector.sol:UniswapV3Connector",
        "label": "name",
        "offset": 0,
        "slot": "151",
        "type": "t_string_storage"
      },
      {
        "astId": 1856,
        "contract": "contracts/dex_connectors/UniswapV3Connector.sol:UniswapV3Connector",
        "label": "wrappedNativeToken",
        "offset": 0,
        "slot": "152",
        "type": "t_address"
      },
      {
        "astId": 1859,
        "contract": "contracts/dex_connectors/UniswapV3Connector.sol:UniswapV3Connector",
        "label": "exchangeRouter",
        "offset": 0,
        "slot": "153",
        "type": "t_address"
      },
      {
        "astId": 1862,
        "contract": "contracts/dex_connectors/UniswapV3Connector.sol:UniswapV3Connector",
        "label": "liquidityPoolFactory",
        "offset": 0,
        "slot": "154",
        "type": "t_address"
      },
      {
        "astId": 1864,
        "contract": "contracts/dex_connectors/UniswapV3Connector.sol:UniswapV3Connector",
        "label": "quoterAddress",
        "offset": 0,
        "slot": "155",
        "type": "t_address"
      },
      {
        "astId": 1870,
        "contract": "contracts/dex_connectors/UniswapV3Connector.sol:UniswapV3Connector",
        "label": "feeTier",
        "offset": 0,
        "slot": "156",
        "type": "t_mapping(t_address,t_mapping(t_address,t_uint24))"
      },
      {
        "astId": 1872,
        "contract": "contracts/dex_connectors/UniswapV3Connector.sol:UniswapV3Connector",
        "label": "positionManager",
        "offset": 0,
        "slot": "157",
        "type": "t_address"
      },
      {
        "astId": 1874,
        "contract": "contracts/dex_connectors/UniswapV3Connector.sol:UniswapV3Connector",
        "label": "MAX_ITERS",
        "offset": 0,
        "slot": "158",
        "type": "t_uint256"
      },
      {
        "astId": 1876,
        "contract": "contracts/dex_connectors/UniswapV3Connector.sol:UniswapV3Connector",
        "label": "TOLERANCE",
        "offset": 0,
        "slot": "159",
        "type": "t_uint256"
      }
    ],
    "types": {
      "t_address": {
        "encoding": "inplace",
        "label": "address",
        "numberOfBytes": "20"
      },
      "t_array(t_uint256)49_storage": {
        "base": "t_uint256",
        "encoding": "inplace",
        "label": "uint256[49]",
        "numberOfBytes": "1568"
      },
      "t_array(t_uint256)50_storage": {
        "base": "t_uint256",
        "encoding": "inplace",
        "label": "uint256[50]",
        "numberOfBytes": "1600"
      },
      "t_bool": {
        "encoding": "inplace",
        "label": "bool",
        "numberOfBytes": "1"
      },
      "t_mapping(t_address,t_mapping(t_address,t_uint24))": {
        "encoding": "mapping",
        "key": "t_address",
        "label": "mapping(address => mapping(address => uint24))",
        "numberOfBytes": "32",
        "value": "t_mapping(t_address,t_uint24)"
      },
      "t_mapping(t_address,t_uint24)": {
        "encoding": "mapping",
        "key": "t_address",
        "label": "mapping(address => uint24)",
        "numberOfBytes": "32",
        "value": "t_uint24"
      },
      "t_string_storage": {
        "encoding": "bytes",
        "label": "string",
        "numberOfBytes": "32"
      },
      "t_uint24": {
        "encoding": "inplace",
        "label": "uint24",
        "numberOfBytes": "3"
      },
      "t_uint256": {
        "encoding": "inplace",
        "label": "uint256",
        "numberOfBytes": "32"
      },
      "t_uint8": {
        "encoding": "inplace",
        "label": "uint8",
        "numberOfBytes": "1"
      }
    }
  }
}