{
  "address": "0xdF7f55Be71e6dB010De6cfC92794D96223fd898C",
  "abi": [
    {
      "inputs": [],
      "name": "ZeroAddress",
      "type": "error"
    },
    {
      "anonymous": false,
      "inputs": [
        {
          "indexed": false,
          "internalType": "address",
          "name": "oldAcross",
          "type": "address"
        },
        {
          "indexed": false,
          "internalType": "address",
          "name": "newAcross",
          "type": "address"
        }
      ],
      "name": "AcrossUpdated",
      "type": "event"
    },
    {
      "anonymous": false,
      "inputs": [
        {
          "indexed": false,
          "internalType": "uint256",
          "name": "uniqueCounter",
          "type": "uint256"
        },
        {
          "indexed": false,
          "internalType": "uint256",
          "name": "chainId",
          "type": "uint256"
        },
        {
          "indexed": false,
          "internalType": "address",
          "name": "refundAddress",
          "type": "address"
        },
        {
          "indexed": false,
          "internalType": "address",
          "name": "inputToken",
          "type": "address"
        },
        {
          "indexed": false,
          "internalType": "address",
          "name": "tokenSent",
          "type": "address"
        },
        {
          "indexed": false,
          "internalType": "uint256",
          "name": "tokenSentAmount",
          "type": "uint256"
        }
      ],
      "name": "FailedSwapBackAndRefundToSourceChain",
      "type": "event"
    },
    {
      "anonymous": false,
      "inputs": [
        {
          "indexed": false,
          "internalType": "bytes32",
          "name": "bitcoinTxId",
          "type": "bytes32"
        },
        {
          "indexed": false,
          "internalType": "uint256",
          "name": "destinationChainId",
          "type": "uint256"
        },
        {
          "indexed": false,
          "internalType": "uint256",
          "name": "intermediaryChainId",
          "type": "uint256"
        },
        {
          "indexed": false,
          "internalType": "address",
          "name": "targetAddress",
          "type": "address"
        },
        {
          "indexed": false,
          "internalType": "uint256",
          "name": "destTokenAmount",
          "type": "uint256"
        },
        {
          "indexed": false,
          "internalType": "address[]",
          "name": "pathFromIntermediaryToDestTokenOnDestChain",
          "type": "address[]"
        },
        {
          "indexed": false,
          "internalType": "uint256[]",
          "name": "amountsFromIntermediaryToDestTokenOnDestChain",
          "type": "uint256[]"
        }
      ],
      "name": "FailedWrapAndSwapToDestChain",
      "type": "event"
    },
    {
      "anonymous": false,
      "inputs": [
        {
          "indexed": false,
          "internalType": "uint8",
          "name": "version",
          "type": "uint8"
        }
      ],
      "name": "Initialized",
      "type": "event"
    },
    {
      "anonymous": false,
      "inputs": [
        {
          "indexed": false,
          "internalType": "string",
          "name": "functionName",
          "type": "string"
        },
        {
          "indexed": false,
          "internalType": "uint256",
          "name": "uniqueCounter",
          "type": "uint256"
        },
        {
          "indexed": false,
          "internalType": "uint256",
          "name": "chainId",
          "type": "uint256"
        },
        {
          "indexed": false,
          "internalType": "bytes",
          "name": "data",
          "type": "bytes"
        }
      ],
      "name": "MsgReceived",
      "type": "event"
    },
    {
      "anonymous": false,
      "inputs": [
        {
          "indexed": false,
          "internalType": "uint256",
          "name": "uniqueCounter",
          "type": "uint256"
        },
        {
          "indexed": false,
          "internalType": "bytes",
          "name": "data",
          "type": "bytes"
        },
        {
          "indexed": false,
          "internalType": "address",
          "name": "sourceChainInputToken",
          "type": "address"
        },
        {
          "indexed": false,
          "internalType": "uint256",
          "name": "amount",
          "type": "uint256"
        },
        {
          "indexed": false,
          "internalType": "int64",
          "name": "relayerFeePercentage",
          "type": "int64"
        }
      ],
      "name": "MsgSent",
      "type": "event"
    },
    {
      "anonymous": false,
      "inputs": [
        {
          "indexed": false,
          "internalType": "uint256",
          "name": "uniqueCounter",
          "type": "uint256"
        },
        {
          "indexed": false,
          "internalType": "bytes",
          "name": "data",
          "type": "bytes"
        },
        {
          "indexed": false,
          "internalType": "address",
          "name": "sourceChainInputToken",
          "type": "address"
        },
        {
          "indexed": false,
          "internalType": "uint256",
          "name": "amount",
          "type": "uint256"
        },
        {
          "indexed": false,
          "internalType": "int64",
          "name": "relayerFeePercentage",
          "type": "int64"
        }
      ],
      "name": "MsgSentRune",
      "type": "event"
    },
    {
      "anonymous": false,
      "inputs": [
        {
          "indexed": true,
          "internalType": "address",
          "name": "previousOwner",
          "type": "address"
        },
        {
          "indexed": true,
          "internalType": "address",
          "name": "newOwner",
          "type": "address"
        }
      ],
      "name": "OwnershipTransferred",
      "type": "event"
    },
    {
      "anonymous": false,
      "inputs": [
        {
          "indexed": false,
          "internalType": "address",
          "name": "account",
          "type": "address"
        }
      ],
      "name": "Paused",
      "type": "event"
    },
    {
      "anonymous": false,
      "inputs": [
        {
          "indexed": false,
          "internalType": "uint256",
          "name": "uniqueCounter",
          "type": "uint256"
        },
        {
          "indexed": false,
          "internalType": "address",
          "name": "refundAddress",
          "type": "address"
        },
        {
          "indexed": false,
          "internalType": "address",
          "name": "inputToken",
          "type": "address"
        },
        {
          "indexed": false,
          "internalType": "uint256",
          "name": "inputTokenAmount",
          "type": "uint256"
        },
        {
          "indexed": false,
          "internalType": "address[]",
          "name": "pathFromIntermediaryToInputOnSourceChain",
          "type": "address[]"
        },
        {
          "indexed": false,
          "internalType": "uint256[]",
          "name": "amountsFromIntermediaryToInputOnSourceChain",
          "type": "uint256[]"
        }
      ],
      "name": "RefundedFailedSwapAndUnwrapUniversal",
      "type": "event"
    },
    {
      "anonymous": false,
      "inputs": [
        {
          "indexed": false,
          "internalType": "uint256",
          "name": "uniqueCounter",
          "type": "uint256"
        },
        {
          "indexed": false,
          "internalType": "uint256",
          "name": "chainId",
          "type": "uint256"
        },
        {
          "indexed": false,
          "internalType": "address",
          "name": "token",
          "type": "address"
        },
        {
          "indexed": false,
          "internalType": "uint256",
          "name": "amount",
          "type": "uint256"
        },
        {
          "indexed": false,
          "internalType": "int64",
          "name": "bridgePercentageFee",
          "type": "int64"
        },
        {
          "indexed": false,
          "internalType": "address",
          "name": "refundAddress",
          "type": "address"
        },
        {
          "indexed": false,
          "internalType": "address[]",
          "name": "pathFromIntermediaryToInputOnSourceChain",
          "type": "address[]"
        },
        {
          "indexed": false,
          "internalType": "uint256[]",
          "name": "amountsFromIntermediaryToInputOnSourceChain",
          "type": "uint256[]"
        }
      ],
      "name": "SwappedBackAndRefundedBTCUniversal",
      "type": "event"
    },
    {
      "anonymous": false,
      "inputs": [
        {
          "indexed": false,
          "internalType": "uint256",
          "name": "uniqueCounter",
          "type": "uint256"
        },
        {
          "indexed": false,
          "internalType": "uint256",
          "name": "chainId",
          "type": "uint256"
        },
        {
          "indexed": false,
          "internalType": "address",
          "name": "refundAddress",
          "type": "address"
        },
        {
          "indexed": false,
          "internalType": "uint256",
          "name": "inputTokenAmount",
          "type": "uint256"
        },
        {
          "indexed": false,
          "internalType": "address[]",
          "name": "pathFromIntermediaryToInputOnSourceChain",
          "type": "address[]"
        },
        {
          "indexed": false,
          "internalType": "uint256[]",
          "name": "amountsFromIntermediaryToInputOnSourceChain",
          "type": "uint256[]"
        }
      ],
      "name": "SwappedBackAndRefundedToSourceChain",
      "type": "event"
    },
    {
      "anonymous": false,
      "inputs": [
        {
          "indexed": false,
          "internalType": "address",
          "name": "oldTargetChainConnector",
          "type": "address"
        },
        {
          "indexed": false,
          "internalType": "address",
          "name": "newTargetChainConnector",
          "type": "address"
        }
      ],
      "name": "TargetChainConnectorUpdated",
      "type": "event"
    },
    {
      "anonymous": false,
      "inputs": [
        {
          "indexed": false,
          "internalType": "address",
          "name": "account",
          "type": "address"
        }
      ],
      "name": "Unpaused",
      "type": "event"
    },
    {
      "anonymous": false,
      "inputs": [
        {
          "indexed": false,
          "internalType": "bytes32",
          "name": "bitcoinTxId",
          "type": "bytes32"
        },
        {
          "indexed": false,
          "internalType": "uint256",
          "name": "destinationChainId",
          "type": "uint256"
        },
        {
          "indexed": false,
          "internalType": "uint256",
          "name": "intermediaryChainId",
          "type": "uint256"
        },
        {
          "indexed": false,
          "internalType": "address",
          "name": "targetAddress",
          "type": "address"
        },
        {
          "indexed": false,
          "internalType": "uint256",
          "name": "destTokenAmount",
          "type": "uint256"
        },
        {
          "indexed": false,
          "internalType": "address[]",
          "name": "pathFromIntermediaryToDestTokenOnDestChain",
          "type": "address[]"
        },
        {
          "indexed": false,
          "internalType": "uint256[]",
          "name": "amountsFromIntermediaryToDestTokenOnDestChain",
          "type": "uint256[]"
        }
      ],
      "name": "WrappedAndSwappedToDestChain",
      "type": "event"
    },
    {
      "anonymous": false,
      "inputs": [
        {
          "indexed": false,
          "internalType": "address",
          "name": "oldWrappedNativeToken",
          "type": "address"
        },
        {
          "indexed": false,
          "internalType": "address",
          "name": "newWrappedNativeToken",
          "type": "address"
        }
      ],
      "name": "WrappedNativeTokenUpdated",
      "type": "event"
    },
    {
      "inputs": [],
      "name": "ETH_ADDR",
      "outputs": [
        {
          "internalType": "address",
          "name": "",
          "type": "address"
        }
      ],
      "stateMutability": "view",
      "type": "function"
    },
    {
      "inputs": [],
      "name": "ONE_HUNDRED_PERCENT",
      "outputs": [
        {
          "internalType": "uint256",
          "name": "",
          "type": "uint256"
        }
      ],
      "stateMutability": "view",
      "type": "function"
    },
    {
      "inputs": [],
      "name": "across",
      "outputs": [
        {
          "internalType": "address",
          "name": "",
          "type": "address"
        }
      ],
      "stateMutability": "view",
      "type": "function"
    },
    {
      "inputs": [],
      "name": "acrossAdmin",
      "outputs": [
        {
          "internalType": "address",
          "name": "",
          "type": "address"
        }
      ],
      "stateMutability": "view",
      "type": "function"
    },
    {
      "inputs": [
        {
          "internalType": "address",
          "name": "_token",
          "type": "address"
        },
        {
          "internalType": "address",
          "name": "_spender",
          "type": "address"
        },
        {
          "internalType": "uint256",
          "name": "_amount",
          "type": "uint256"
        }
      ],
      "name": "approveToken",
      "outputs": [],
      "stateMutability": "nonpayable",
      "type": "function"
    },
    {
      "inputs": [
        {
          "internalType": "address",
          "name": "",
          "type": "address"
        }
      ],
      "name": "bridgeConnectorMapping",
      "outputs": [
        {
          "internalType": "uint256",
          "name": "targetChainId",
          "type": "uint256"
        },
        {
          "internalType": "address",
          "name": "targetChainConnectorProxy",
          "type": "address"
        }
      ],
      "stateMutability": "view",
      "type": "function"
    },
    {
      "inputs": [
        {
          "internalType": "address",
          "name": "",
          "type": "address"
        },
        {
          "internalType": "uint256",
          "name": "",
          "type": "uint256"
        }
      ],
      "name": "bridgeTokenMapping",
      "outputs": [
        {
          "internalType": "address",
          "name": "",
          "type": "address"
        }
      ],
      "stateMutability": "view",
      "type": "function"
    },
    {
      "inputs": [],
      "name": "currChainId",
      "outputs": [
        {
          "internalType": "uint256",
          "name": "",
          "type": "uint256"
        }
      ],
      "stateMutability": "view",
      "type": "function"
    },
    {
      "inputs": [
        {
          "internalType": "address",
          "name": "_token",
          "type": "address"
        },
        {
          "internalType": "address",
          "name": "_to",
          "type": "address"
        },
        {
          "internalType": "uint256",
          "name": "_amount",
          "type": "uint256"
        }
      ],
      "name": "emergencyWithdraw",
      "outputs": [],
      "stateMutability": "nonpayable",
      "type": "function"
    },
    {
      "inputs": [],
      "name": "exchangeConnector",
      "outputs": [
        {
          "internalType": "address",
          "name": "",
          "type": "address"
        }
      ],
      "stateMutability": "view",
      "type": "function"
    },
    {
      "inputs": [
        {
          "internalType": "address",
          "name": "",
          "type": "address"
        },
        {
          "internalType": "address",
          "name": "",
          "type": "address"
        },
        {
          "internalType": "uint256",
          "name": "",
          "type": "uint256"
        },
        {
          "internalType": "address",
          "name": "",
          "type": "address"
        }
      ],
      "name": "failedSwapAndUnwrapRefundReqs",
      "outputs": [
        {
          "internalType": "uint256",
          "name": "",
          "type": "uint256"
        }
      ],
      "stateMutability": "view",
      "type": "function"
    },
    {
      "inputs": [
        {
          "internalType": "address",
          "name": "",
          "type": "address"
        },
        {
          "internalType": "uint256",
          "name": "",
          "type": "uint256"
        },
        {
          "internalType": "bytes32",
          "name": "",
          "type": "bytes32"
        },
        {
          "internalType": "address",
          "name": "",
          "type": "address"
        }
      ],
      "name": "failedWrapAndSwapReqs",
      "outputs": [
        {
          "internalType": "uint256",
          "name": "",
          "type": "uint256"
        }
      ],
      "stateMutability": "view",
      "type": "function"
    },
    {
      "inputs": [],
      "name": "gasLimit",
      "outputs": [
        {
          "internalType": "uint256",
          "name": "",
          "type": "uint256"
        }
      ],
      "stateMutability": "view",
      "type": "function"
    },
    {
      "inputs": [
        {
          "internalType": "address",
          "name": "_tokenSent",
          "type": "address"
        },
        {
          "internalType": "uint256",
          "name": "_amount",
          "type": "uint256"
        },
        {
          "internalType": "address",
          "name": "",
          "type": "address"
        },
        {
          "internalType": "bytes",
          "name": "_message",
          "type": "bytes"
        }
      ],
      "name": "handleV3AcrossMessage",
      "outputs": [],
      "stateMutability": "nonpayable",
      "type": "function"
    },
    {
      "inputs": [
        {
          "internalType": "address",
          "name": "_across",
          "type": "address"
        },
        {
          "internalType": "address",
          "name": "_wrappedNativeToken",
          "type": "address"
        },
        {
          "internalType": "uint256",
          "name": "_targetChainId",
          "type": "uint256"
        },
        {
          "internalType": "uint256",
          "name": "_currChainId",
          "type": "uint256"
        }
      ],
      "name": "initialize",
      "outputs": [],
      "stateMutability": "nonpayable",
      "type": "function"
    },
    {
      "inputs": [
        {
          "internalType": "address",
          "name": "",
          "type": "address"
        },
        {
          "internalType": "uint256",
          "name": "",
          "type": "uint256"
        }
      ],
      "name": "outputTokenDecimalsOnDestinationChain",
      "outputs": [
        {
          "internalType": "uint256",
          "name": "",
          "type": "uint256"
        }
      ],
      "stateMutability": "view",
      "type": "function"
    },
    {
      "inputs": [],
      "name": "owner",
      "outputs": [
        {
          "internalType": "address",
          "name": "",
          "type": "address"
        }
      ],
      "stateMutability": "view",
      "type": "function"
    },
    {
      "inputs": [],
      "name": "paused",
      "outputs": [
        {
          "internalType": "bool",
          "name": "",
          "type": "bool"
        }
      ],
      "stateMutability": "view",
      "type": "function"
    },
    {
      "inputs": [
        {
          "internalType": "uint256",
          "name": "_uniqueCounter",
          "type": "uint256"
        },
        {
          "internalType": "address",
          "name": "_refundAddress",
          "type": "address"
        },
        {
          "internalType": "address",
          "name": "_inputToken",
          "type": "address"
        },
        {
          "internalType": "address[]",
          "name": "_pathFromIntermediaryToInputOnSourceChain",
          "type": "address[]"
        },
        {
          "internalType": "uint256[]",
          "name": "_amountsFromIntermediaryToInputOnSourceChain",
          "type": "uint256[]"
        }
      ],
      "name": "refundFailedSwapAndUnwrapUniversal",
      "outputs": [],
      "stateMutability": "nonpayable",
      "type": "function"
    },
    {
      "inputs": [],
      "name": "renounceOwnership",
      "outputs": [],
      "stateMutability": "nonpayable",
      "type": "function"
    },
    {
      "inputs": [
        {
          "internalType": "address",
          "name": "_across",
          "type": "address"
        }
      ],
      "name": "setAcross",
      "outputs": [],
      "stateMutability": "nonpayable",
      "type": "function"
    },
    {
      "inputs": [
        {
          "internalType": "address",
          "name": "_acrossAdmin",
          "type": "address"
        }
      ],
      "name": "setAcrossAdmin",
      "outputs": [],
      "stateMutability": "nonpayable",
      "type": "function"
    },
    {
      "inputs": [
        {
          "internalType": "address",
          "name": "_exchangeConnector",
          "type": "address"
        },
        {
          "internalType": "uint256",
          "name": "_targetChainId",
          "type": "uint256"
        },
        {
          "internalType": "address",
          "name": "_targetChainConnectorProxy",
          "type": "address"
        }
      ],
      "name": "setBridgeConnectorMapping",
      "outputs": [],
      "stateMutability": "nonpayable",
      "type": "function"
    },
    {
      "inputs": [
        {
          "internalType": "address",
          "name": "_sourceToken",
          "type": "address"
        },
        {
          "internalType": "uint256",
          "name": "_destinationChainId",
          "type": "uint256"
        },
        {
          "internalType": "address",
          "name": "_destinationToken",
          "type": "address"
        }
      ],
      "name": "setBridgeTokenMapping",
      "outputs": [],
      "stateMutability": "nonpayable",
      "type": "function"
    },
    {
      "inputs": [
        {
          "internalType": "address",
          "name": "_exchangeConnector",
          "type": "address"
        }
      ],
      "name": "setExchangeConnector",
      "outputs": [],
      "stateMutability": "nonpayable",
      "type": "function"
    },
    {
      "inputs": [
        {
          "internalType": "uint256",
          "name": "_gasLimit",
          "type": "uint256"
        }
      ],
      "name": "setGasLimit",
      "outputs": [],
      "stateMutability": "nonpayable",
      "type": "function"
    },
    {
      "inputs": [
        {
          "internalType": "address",
          "name": "_outputToken",
          "type": "address"
        },
        {
          "internalType": "uint256",
          "name": "_destinationChainId",
          "type": "uint256"
        },
        {
          "internalType": "uint256",
          "name": "_decimalsOnDestinationChain",
          "type": "uint256"
        }
      ],
      "name": "setOutputTokenDecimalsOnDestinationChain",
      "outputs": [],
      "stateMutability": "nonpayable",
      "type": "function"
    },
    {
      "inputs": [
        {
          "internalType": "address",
          "name": "_wrappedNativeToken",
          "type": "address"
        }
      ],
      "name": "setWrappedNativeToken",
      "outputs": [],
      "stateMutability": "nonpayable",
      "type": "function"
    },
    {
      "inputs": [],
      "name": "stargate",
      "outputs": [
        {
          "internalType": "address",
          "name": "",
          "type": "address"
        }
      ],
      "stateMutability": "view",
      "type": "function"
    },
    {
      "inputs": [
        {
          "internalType": "address",
          "name": "_token",
          "type": "address"
        },
        {
          "internalType": "address",
          "name": "_exchangeConnector",
          "type": "address"
        },
        {
          "internalType": "uint256[]",
          "name": "_amounts",
          "type": "uint256[]"
        },
        {
          "internalType": "bool",
          "name": "_isInputFixed",
          "type": "bool"
        },
        {
          "internalType": "address[]",
          "name": "_path",
          "type": "address[]"
        },
        {
          "components": [
            {
              "internalType": "bytes",
              "name": "userScript",
              "type": "bytes"
            },
            {
              "internalType": "enum ScriptTypes",
              "name": "scriptType",
              "type": "uint8"
            },
            {
              "internalType": "bytes",
              "name": "lockerLockingScript",
              "type": "bytes"
            }
          ],
          "internalType": "struct IEthConnector.UserAndLockerScript",
          "name": "_userAndLockerScript",
          "type": "tuple"
        },
        {
          "internalType": "int64",
          "name": "_bridgePercentageFee",
          "type": "int64"
        },
        {
          "internalType": "uint256",
          "name": "_thirdParty",
          "type": "uint256"
        }
      ],
      "name": "swapAndUnwrap",
      "outputs": [],
      "stateMutability": "payable",
      "type": "function"
    },
    {
      "inputs": [
        {
          "internalType": "address",
          "name": "_token",
          "type": "address"
        },
        {
          "internalType": "uint256",
          "name": "_appId",
          "type": "uint256"
        },
        {
          "internalType": "address",
          "name": "_exchangeConnector",
          "type": "address"
        },
        {
          "internalType": "uint256[]",
          "name": "_amounts",
          "type": "uint256[]"
        },
        {
          "internalType": "uint256",
          "name": "_internalId",
          "type": "uint256"
        },
        {
          "internalType": "address[]",
          "name": "_path",
          "type": "address[]"
        },
        {
          "components": [
            {
              "internalType": "bytes",
              "name": "userScript",
              "type": "bytes"
            },
            {
              "internalType": "enum ScriptTypes",
              "name": "scriptType",
              "type": "uint8"
            }
          ],
          "internalType": "struct IEthConnector.UserScript",
          "name": "_userScript",
          "type": "tuple"
        },
        {
          "internalType": "int64",
          "name": "_bridgePercentageFee",
          "type": "int64"
        },
        {
          "internalType": "uint256",
          "name": "_thirdParty",
          "type": "uint256"
        }
      ],
      "name": "swapAndUnwrapRune",
      "outputs": [],
      "stateMutability": "payable",
      "type": "function"
    },
    {
      "inputs": [
        {
          "components": [
            {
              "internalType": "address[]",
              "name": "_pathFromInputToIntermediaryOnSourceChain",
              "type": "address[]"
            },
            {
              "internalType": "uint256[2]",
              "name": "_amountsFromInputToIntermediaryOnSourceChain",
              "type": "uint256[2]"
            },
            {
              "internalType": "address[]",
              "name": "_pathFromIntermediaryToOutputOnIntermediaryChain",
              "type": "address[]"
            },
            {
              "internalType": "uint256",
              "name": "_minOutputAmount",
              "type": "uint256"
            },
            {
              "internalType": "int64",
              "name": "_bridgePercentageFee",
              "type": "int64"
            }
          ],
          "internalType": "struct IEthConnector.SwapAndUnwrapUniversalArguments",
          "name": "_arguments",
          "type": "tuple"
        },
        {
          "internalType": "address",
          "name": "_exchangeConnector",
          "type": "address"
        },
        {
          "internalType": "bool",
          "name": "_isInputFixed",
          "type": "bool"
        },
        {
          "components": [
            {
              "internalType": "bytes",
              "name": "userScript",
              "type": "bytes"
            },
            {
              "internalType": "enum ScriptTypes",
              "name": "scriptType",
              "type": "uint8"
            },
            {
              "internalType": "bytes",
              "name": "lockerLockingScript",
              "type": "bytes"
            }
          ],
          "internalType": "struct IEthConnector.UserAndLockerScript",
          "name": "_userAndLockerScript",
          "type": "tuple"
        },
        {
          "internalType": "uint256",
          "name": "_thirdParty",
          "type": "uint256"
        },
        {
          "internalType": "address",
          "name": "_refundAddress",
          "type": "address"
        }
      ],
      "name": "swapAndUnwrapUniversal",
      "outputs": [],
      "stateMutability": "payable",
      "type": "function"
    },
    {
      "inputs": [
        {
          "internalType": "address",
          "name": "_token",
          "type": "address"
        },
        {
          "internalType": "address",
          "name": "_exchangeConnector",
          "type": "address"
        },
        {
          "internalType": "uint256[]",
          "name": "_amounts",
          "type": "uint256[]"
        },
        {
          "internalType": "bool",
          "name": "_isInputFixed",
          "type": "bool"
        },
        {
          "internalType": "address[]",
          "name": "_path",
          "type": "address[]"
        },
        {
          "components": [
            {
              "internalType": "bytes",
              "name": "userScript",
              "type": "bytes"
            },
            {
              "internalType": "enum ScriptTypes",
              "name": "scriptType",
              "type": "uint8"
            },
            {
              "internalType": "bytes",
              "name": "lockerLockingScript",
              "type": "bytes"
            }
          ],
          "internalType": "struct IEthConnector.UserAndLockerScript",
          "name": "_userAndLockerScript",
          "type": "tuple"
        },
        {
          "internalType": "int64",
          "name": "_bridgePercentageFee",
          "type": "int64"
        },
        {
          "internalType": "uint256",
          "name": "_thirdParty",
          "type": "uint256"
        },
        {
          "internalType": "address",
          "name": "_refundAddress",
          "type": "address"
        }
      ],
      "name": "swapAndUnwrapV2",
      "outputs": [],
      "stateMutability": "payable",
      "type": "function"
    },
    {
      "inputs": [
        {
          "components": [
            {
              "internalType": "address",
              "name": "targetAddress",
              "type": "address"
            },
            {
              "internalType": "address",
              "name": "destToken",
              "type": "address"
            },
            {
              "internalType": "address",
              "name": "tokenSent",
              "type": "address"
            },
            {
              "internalType": "bytes32",
              "name": "bitcoinTxId",
              "type": "bytes32"
            },
            {
              "internalType": "address",
              "name": "exchangeConnector",
              "type": "address"
            },
            {
              "internalType": "uint256",
              "name": "minOutputAmount",
              "type": "uint256"
            },
            {
              "components": [
                {
                  "internalType": "bytes",
                  "name": "userScript",
                  "type": "bytes"
                },
                {
                  "internalType": "enum ScriptTypes",
                  "name": "scriptType",
                  "type": "uint8"
                },
                {
                  "internalType": "bytes",
                  "name": "lockerLockingScript",
                  "type": "bytes"
                }
              ],
              "internalType": "struct IEthConnector.UserAndLockerScript",
              "name": "userAndLockerScript",
              "type": "tuple"
            },
            {
              "internalType": "address[]",
              "name": "path",
              "type": "address[]"
            },
            {
              "internalType": "uint256[]",
              "name": "amounts",
              "type": "uint256[]"
            },
            {
              "internalType": "int64",
              "name": "bridgePercentageFee",
              "type": "int64"
            },
            {
              "internalType": "uint256",
              "name": "intermediaryChainId",
              "type": "uint256"
            }
          ],
          "internalType": "struct IEthConnector.SwapBackAndRefundBTCArguments",
          "name": "_args",
          "type": "tuple"
        }
      ],
      "name": "swapBackAndRefundBTCByAdmin",
      "outputs": [],
      "stateMutability": "nonpayable",
      "type": "function"
    },
    {
      "inputs": [],
      "name": "targetChainConnectorProxy",
      "outputs": [
        {
          "internalType": "address",
          "name": "",
          "type": "address"
        }
      ],
      "stateMutability": "view",
      "type": "function"
    },
    {
      "inputs": [],
      "name": "targetChainId",
      "outputs": [
        {
          "internalType": "uint256",
          "name": "",
          "type": "uint256"
        }
      ],
      "stateMutability": "view",
      "type": "function"
    },
    {
      "inputs": [
        {
          "internalType": "address",
          "name": "newOwner",
          "type": "address"
        }
      ],
      "name": "transferOwnership",
      "outputs": [],
      "stateMutability": "nonpayable",
      "type": "function"
    },
    {
      "inputs": [],
      "name": "uniqueCounter",
      "outputs": [
        {
          "internalType": "uint256",
          "name": "",
          "type": "uint256"
        }
      ],
      "stateMutability": "view",
      "type": "function"
    },
    {
      "inputs": [],
      "name": "unwrapFee",
      "outputs": [
        {
          "internalType": "uint256",
          "name": "",
          "type": "uint256"
        }
      ],
      "stateMutability": "view",
      "type": "function"
    },
    {
      "inputs": [],
      "name": "wrappedNativeToken",
      "outputs": [
        {
          "internalType": "address",
          "name": "",
          "type": "address"
        }
      ],
      "stateMutability": "view",
      "type": "function"
    },
    {
      "stateMutability": "payable",
      "type": "receive"
    }
  ],
  "transactionHash": "0xc2af868faa878831af30f1d0dda83d1509ef841d99a40c66d158be09a570f7cd",
  "args": [],
  "numDeployments": 1,
  "solcInputHash": "e814191c952a743a7a272a4f64bac817",
  "bytecode": "0x608060405234801561001057600080fd5b506146a4806100206000396000f3fe6080604052600436106101cf5760003560e01c8063146ffb26146101db57806317fcb39b14610204578063201c527c14610231578063230b497614610246578063292c1d921461026657806337324807146102865780633a5be8cb146102cd5780634d5f71bb146102ed57806359eb422d1461030d5780635c975abb1461032d5780635f9491291461035057806361be10f214610391578063628270eb146103b15780636c099dee146103c4578063715018a6146103e45780637753f47b146103f95780637e628c0514610421578063878269b51461047b57806387c554f81461049b5780638da5cb5b146104bb578063966ca0ac146104d05780639aed4279146104e35780639c47559f146104f9578063b4baac2314610540578063b55d363314610578578063bb8fc8d614610598578063c0924b80146105b8578063cab1344e146105d8578063d4dfc8c3146105f8578063d7fe6b7d1461060e578063d83f0fc51461062e578063da058ae314610644578063da3e339714610664578063dd0081c714610684578063e63ea4081461069a578063eb990c59146106ba578063ee7d72b4146106da578063f2fde38b146106fa578063f68016b71461071a578063fa4df5061461073057600080fd5b366101d657005b600080fd5b3480156101e757600080fd5b506101f160cc5481565b6040519081526020015b60405180910390f35b34801561021057600080fd5b5060cd54610224906001600160a01b031681565b6040516101fb9190613b6b565b61024461023f366004613045565b610743565b005b34801561025257600080fd5b50610244610261366004613519565b610880565b34801561027257600080fd5b5060c954610224906001600160a01b031681565b34801561029257600080fd5b506101f16102a13660046134db565b60d860209081526000948552604080862082529385528385208152918452828420909152825290205481565b3480156102d957600080fd5b506102446102e836600461343a565b6108ae565b3480156102f957600080fd5b5060ca54610224906001600160a01b031681565b34801561031957600080fd5b50610244610328366004613890565b610a61565b34801561033957600080fd5b5060975460ff1660405190151581526020016101fb565b34801561035c57600080fd5b5061022461036b3660046132eb565b60d26020908152600092835260408084209091529082529020546001600160a01b031681565b34801561039d57600080fd5b506102446103ac366004613029565b610d94565b6102446103bf366004613123565b610da8565b3480156103d057600080fd5b5060d354610224906001600160a01b031681565b3480156103f057600080fd5b50610244610eda565b34801561040557600080fd5b5061022473eeeeeeeeeeeeeeeeeeeeeeeeeeeeeeeeeeeeeeee81565b34801561042d57600080fd5b5061045e61043c366004613029565b60d460205260009081526040902080546001909101546001600160a01b031682565b604080519283526001600160a01b039091166020830152016101fb565b34801561048757600080fd5b50610244610496366004613029565b610eee565b3480156104a757600080fd5b5060d154610224906001600160a01b031681565b3480156104c757600080fd5b50610224610f18565b6102446104de36600461377b565b610f27565b3480156104ef57600080fd5b506101f160d05481565b34801561050557600080fd5b506101f1610514366004613254565b60d760209081526000948552604080862082529385528385208152918452828420909152825290205481565b34801561054c57600080fd5b506101f161055b3660046132eb565b60d560209081526000928352604080842090915290825290205481565b34801561058457600080fd5b50610244610593366004613316565b61118b565b3480156105a457600080fd5b506102446105b3366004613828565b6111e1565b3480156105c457600080fd5b5060cb54610224906001600160a01b031681565b3480156105e457600080fd5b506102446105f3366004613029565b6116ca565b34801561060457600080fd5b506101f160ce5481565b34801561061a57600080fd5b50610244610629366004613316565b61171d565b34801561063a57600080fd5b506101f160cf5481565b34801561065057600080fd5b5061024461065f366004613029565b611760565b34801561067057600080fd5b5061024461067f366004613214565b611771565b34801561069057600080fd5b506101f161271081565b3480156106a657600080fd5b506102446106b5366004613214565b611792565b3480156106c657600080fd5b506102446106d53660046132a6565b61181c565b3480156106e657600080fd5b506102446106f5366004613860565b611962565b34801561070657600080fd5b50610244610715366004613029565b61196f565b34801561072657600080fd5b506101f160d65481565b61024461073e366004613357565b6119e5565b61074b611b01565b61077c8a8989600081811061077057634e487b7160e01b600052603260045260246000fd5b90506020020135611b5b565b600060ce5460cf54328c8c8c60018181106107a757634e487b7160e01b600052603260045260246000fd5b905060200201358b8b8b8b8a6040516020016107cc9a99989796959493929190613d7b565b604051602081830303815290604052905060008051602061464f83398151915260ce54828d8c8c600081811061081257634e487b7160e01b600052603260045260246000fd5b905060200201358760405161082b959493929190614184565b60405180910390a16108698a8c8b8b600081811061085957634e487b7160e01b600052603260045260246000fd5b9050602002013584876000611bd9565b506108746001606555565b50505050505050505050565b610888611d36565b6001600160a01b03909216600090815260d5602090815260408083209383529290522055565b6108b6611b01565b60d6545a101561090a5760405162461bcd60e51b815260206004820152601a602482015279457468436f6e6e6563746f724c6f6769633a206c6f772067617360301b60448201526064015b60405180910390fd5b60c9546001600160a01b031633146109645760405162461bcd60e51b815260206004820152601d60248201527f457468436f6e6e6563746f724c6f6769633a206e6f74206163726f73730000006044820152606401610901565b60008060008380602001905181019061097d9190613685565b9250925092507fd8883c6af9aa96506569d2db74cafb52037a26374320a8aeaf9fd5cd7df3d228838383876040516109b89493929190613caa565b60405180910390a16109f383604051806040016040528060118152602001701cddd85c109858dad05b991499599d5b99607a1b815250611d95565b15610a0857610a03868589611def565b610a4e565b610a3e83604051806040016040528060148152602001731ddc985c105b9914ddd85c155b9a5d995c9cd85b60621b815250611d95565b15610a4e57610a4e868589612020565b505050610a5b6001606555565b50505050565b610a69611b01565b60d1546001600160a01b0316331480610a9a5750610a85610f18565b6001600160a01b0316336001600160a01b0316145b610ab65760405162461bcd60e51b815260040161090190613f2a565b600084846000818110610ad957634e487b7160e01b600052603260045260246000fd5b9050602002016020810190610aee9190613029565b6001600160a01b03808916600090815260d7602090815260408083208b8516845282528083208d845282528083209385168352929052908120549192508490849081610b4a57634e487b7160e01b600052603260045260246000fd5b905060200201358114610b6f5760405162461bcd60e51b815260040161090190614074565b83836000818110610b9057634e487b7160e01b600052603260045260246000fd5b90506020020135826001600160a01b03166370a08231306040518263ffffffff1660e01b8152600401610bc39190613b6b565b60206040518083038186803b158015610bdb57600080fd5b505afa158015610bef573d6000803e3d6000fd5b505050506040513d601f19601f82011682018060405250810190610c139190613878565b1015610c315760405162461bcd60e51b8152600401610901906140f5565b6001600160a01b03808916600090815260d7602090815260408083208b8516845282528083208d845282528083209386168352928152828220829055825188820281810183019094528881529192610cd792918a918a9182919085019084908082843760009201919091525050604080516020808b0282810182019093528a82529093508a9250899182918501908490808284376000920191909152506122a892505050565b905060008111610d255760405162461bcd60e51b8152602060048201526019602482015278115d1a10dbdb9b9958dd1bdc8e881cddd85c0819985a5b1959603a1b6044820152606401610901565b7ff80ecdf6aa6c07f5546ab513d82f65f80c6617334130dc5b4fe6e60a59b08ffc8a8a8a848b8b8b8b604051610d62989796959493929190614128565b60405180910390a1610d7e6001600160a01b0389168a8361246c565b505050610d8b6001606555565b50505050505050565b610d9c611d36565b610da5816124c2565b50565b610db0611b01565b610dd58b8a8a600081811061077057634e487b7160e01b600052603260045260246000fd5b600060ce5460cf54838d8d8d6001818110610e0057634e487b7160e01b600052603260045260246000fd5b905060200201358c8c8c8c8b604051602001610e259a99989796959493929190613d7b565b604051602081830303815290604052905060008051602061464f83398151915260ce54828e8d8d6000818110610e6b57634e487b7160e01b600052603260045260246000fd5b9050602002013588604051610e84959493929190614184565b60405180910390a1610ec28b8d8c8c6000818110610eb257634e487b7160e01b600052603260045260246000fd5b9050602002013584886000611bd9565b50610ecd6001606555565b5050505050505050505050565b610ee2611d36565b610eec6000612554565b565b610ef6611d36565b60d180546001600160a01b0319166001600160a01b0392909216919091179055565b6033546001600160a01b031690565b610f2f611b01565b610f7a610f3c878061431c565b6000818110610f5b57634e487b7160e01b600052603260045260246000fd5b9050602002016020810190610f709190613029565b6020880135611b5b565b6000610f86878061431c565b6001610f928a8061431c565b610f9d929150614578565b818110610fba57634e487b7160e01b600052603260045260246000fd5b9050602002016020810190610fcf9190613029565b90506000610fe9610fe0898061431c565b8a6020016125a6565b60408051808201909152909150600090806110048b8061431c565b8080602002602001604051908101604052809392919081815260200183836020028082843760009201919091525050509082525060200161104860608c018c61431c565b80806020026020016040519081016040528093929190818152602001838360200280828437600081840152601f19601f820116905080830192505050505050508152509050600060ce5460cf54868b8d608001358c878d8d6040516020016110b899989796959493929190613f60565b60408051601f1981840301815291905260ce5490915060008051602061464f83398151915290826110e98d8061431c565b600081811061110857634e487b7160e01b600052603260045260246000fd5b905060200201602081019061111d9190613029565b60208e01600060200201358e60a001602081019061113b91906135b7565b60405161114c959493929190614184565b60405180910390a1611175898585848e60a001602081019061116e91906135b7565b6001611bd9565b505050506111836001606555565b505050505050565b611193611d36565b6040805180820182529283526001600160a01b039182166020808501918252948316600090815260d49095529320915182559151600190910180546001600160a01b03191691909216179055565b6111e9611b01565b60d1546001600160a01b031633148061121a5750611205610f18565b6001600160a01b0316336001600160a01b0316145b6112365760405162461bcd60e51b815260040161090190613f2a565b600060d8816112486020850185613029565b6001600160a01b0316815260208082019290925260409081016000908120610140860135825283528181206060860180358352935281812092909161128f91908601613029565b6001600160a01b0316815260208101919091526040016000205490506112b961010083018361431c565b60008181106112d857634e487b7160e01b600052603260045260246000fd5b9050602002013581146112fd5760405162461bcd60e51b815260040161090190614074565b8061130e6060840160408501613029565b6001600160a01b03166370a08231306040518263ffffffff1660e01b81526004016113399190613b6b565b60206040518083038186803b15801561135157600080fd5b505afa158015611365573d6000803e3d6000fd5b505050506040513d601f19601f820116820180604052508101906113899190613878565b10156113a75760405162461bcd60e51b8152600401610901906140f5565b6113b76060830160408401613029565b6001600160a01b03166113cd60e084018461431c565b60008181106113ec57634e487b7160e01b600052603260045260246000fd5b90506020020160208101906114019190613029565b6001600160a01b0316146114545760405162461bcd60e51b815260206004820152601a60248201527908ae8d086dedcdccac6e8dee47440d2dcecc2d8d2c840e0c2e8d60331b6044820152606401610901565b60d860006114656020850185613029565b6001600160a01b031681526020808201929092526040908101600090812061014086013582528352818120606086018035835293528181209290916114ac91908601613029565b6001600160a01b03166001600160a01b0316815260200190815260200160002060009055600081116115205760405162461bcd60e51b815260206004820152601f60248201527f457468436f6e6e6563746f723a20616c72656164792077697468647261776e006044820152606401610901565b604080516000818301818152606083019093529181526020810161154760e086018661431c565b808060200260200160405190810160405280939291908181526020018383602002808284376000920182905250939094525092935091505060608401356101408501356115976020870187613029565b6001600160a01b03166115b060a0880160808901613029565b60a08801356001876115c560c08c018c614363565b60006040516020016115df99989796959493929190613cdb565b60408051601f198184030181529181529091507f3f6072bef585d7ef7134e48bedfc939cd73c5d5b6d8f7c127f3083636505cdd090606086018035916101408801359161162d918901613029565b866116406101408a016101208b016135b7565b61164d60208b018b613029565b61165a60e08c018c61431c565b6116686101008e018e61431c565b60405161167e9a99989796959493929190614218565b60405180910390a16116bd61169960a0860160808701613029565b6116a96060870160408801613029565b858461116e6101408a016101208b016135b7565b505050610da56001606555565b6116d2611d36565b806001600160a01b0381166116fa5760405163d92e233d60e01b815260040160405180910390fd5b5060cb80546001600160a01b0319166001600160a01b0392909216919091179055565b611725611d36565b6001600160a01b03928316600090815260d2602090815260408083209483529390529190912080546001600160a01b03191691909216179055565b611768611d36565b610da581612747565b611779611d36565b61178d6001600160a01b03841683836127d9565b505050565b61179a611d36565b6001600160a01b03831673eeeeeeeeeeeeeeeeeeeeeeeeeeeeeeeeeeeeeeee1415611808576040516001600160a01b038316908290600081818185875af1925050503d8060008114611183576040519150601f19603f3d011682016040523d82523d6000602084013e611183565b61178d6001600160a01b038416838361246c565b600054610100900460ff161580801561183c5750600054600160ff909116105b806118565750303b158015611856575060005460ff166001145b6118b95760405162461bcd60e51b815260206004820152602e60248201527f496e697469616c697a61626c653a20636f6e747261637420697320616c72656160448201526d191e481a5b9a5d1a585b1a5e995960921b6064820152608401610901565b6000805460ff1916600117905580156118dc576000805461ff0019166101001790555b6118e46128eb565b6118ec61291a565b6118f4612949565b6118fd856124c2565b61190684612747565b60cc83905560cf829055600060ce55801561195b576000805461ff0019169055604051600181527f7f26b83ff96e1f2b6a682f133852f6798a09c465da95921460cefb38474024989060200160405180910390a15b5050505050565b61196a611d36565b60d655565b611977611d36565b6001600160a01b0381166119dc5760405162461bcd60e51b815260206004820152602660248201527f4f776e61626c653a206e6577206f776e657220697320746865207a65726f206160448201526564647265737360d01b6064820152608401610901565b610da581612554565b6119ed611b01565b611a128b8989600081811061077057634e487b7160e01b600052603260045260246000fd5b600060ce5460cf54328d8c8c6001818110611a3d57634e487b7160e01b600052603260045260246000fd5b905060200201358b8b8b8b8a604051602001611a629a99989796959493929190613e5b565b60405160208183030381529060405290507ffae1fd145a544fd4b9a3f59113a4133d16b3cc0e015c89e90755bbe0ce06377f60ce54828e8c8c6000818110611aba57634e487b7160e01b600052603260045260246000fd5b9050602002013587604051611ad3959493929190614184565b60405180910390a1610ec28a8d8b8b600081811061085957634e487b7160e01b600052603260045260246000fd5b60026065541415611b545760405162461bcd60e51b815260206004820152601f60248201527f5265656e7472616e637947756172643a207265656e7472616e742063616c6c006044820152606401610901565b6002606555565b80341415611bbb576001600160a01b03821673eeeeeeeeeeeeeeeeeeeeeeeeeeeeeeeeeeeeeeee1480611b9b575060cd546001600160a01b038381169116145b611bb75760405162461bcd60e51b81526004016109019061403d565b5050565b3415611bb75760405162461bcd60e51b81526004016109019061403d565b60ce8054906000611be9836145bb565b90915550506001600160a01b038616600090815260d46020526040902080543415611c215760cd546001600160a01b03169650611c55565b82611c3b57611c3b6001600160a01b038816333089612978565b60c954611c55906001600160a01b038981169116886127d9565b6001600160a01b03808816600090815260d26020908152604080832085845282528083205490931680835260d5825283832085845290915291902054879015611cdf576001600160a01b038216600090815260d560209081526040808320868452909152902054611cc7906012614578565b611cd290600a6144b1565b611cdc9089614559565b90505b670de0b6b3a7640000611cfb6001600160401b03881682614578565b611d059083614559565b611d0f919061444e565b6001850154909150610874906001600160a01b03168a848b85888d6129b0565b6001606555565b33611d3f610f18565b6001600160a01b031614610eec5760405162461bcd60e51b815260206004820181905260248201527f4f776e61626c653a2063616c6c6572206973206e6f7420746865206f776e65726044820152606401610901565b600081604051602001611da89190613b26565b6040516020818303038152906040528051906020012083604051602001611dcf9190613b26565b604051602081830303815290604052805190602001201490505b92915050565b6000611dfa83612a5a565b9050816001600160a01b03168160800151600081518110611e2b57634e487b7160e01b600052603260045260246000fd5b60200260200101516001600160a01b031614611e595760405162461bcd60e51b815260040161090190614006565b838160a00151600081518110611e7f57634e487b7160e01b600052603260045260246000fd5b602002602001015114611ea45760405162461bcd60e51b815260040161090190613e1a565b6080810151805160009190611ebb90600190614578565b81518110611ed957634e487b7160e01b600052603260045260246000fd5b602002602001015190506000611ef783608001518460a001516122a8565b90508015611f73576040830151611f19906001600160a01b038416908361246c565b7ff26626bebac2994376f5da4d86b60949db208bb90e08574df0bfbd8142f143088360000151846020015185604001518487608001518860a00151604051611f66969594939291906141c6565b60405180910390a1611183565b604083810180516001600160a01b03908116600090815260d760209081528482208784168084529082528583208951845282528583208a8516808552908352928690208c90558851828a015195518751918252928101959095529216938301939093526060820152608081019190915260a081018790527fb1219c96b80275564b7ed58d5b5441a0b51752188fc765e572256edea554c3f39060c0015b60405180910390a1505050505050565b600061202b83612ade565b9050816001600160a01b03168160c0015160008151811061205c57634e487b7160e01b600052603260045260246000fd5b60200260200101516001600160a01b03161461208a5760405162461bcd60e51b815260040161090190614006565b838160e001516000815181106120b057634e487b7160e01b600052603260045260246000fd5b6020026020010151146120d55760405162461bcd60e51b815260040161090190613e1a565b60cf5481606001511461213f5760405162461bcd60e51b815260206004820152602c60248201527f457468436f6e6e6563746f724c6f6769633a20696e76616c696420646573746960448201526b3730ba34b7b71031b430b4b760a11b6064820152608401610901565b60c081015180516000919061215690600190614578565b8151811061217457634e487b7160e01b600052603260045260246000fd5b6020026020010151905060006121928360c001518460e001516122a8565b90508015612214577fab92a34f0c7ca6b8a3273ec0d27ea20e3efe69b8b43d5e72aa5bf782814071e78360000151846060015185604001518660800151858860c001518960e001516040516121ed9796959493929190613c3e565b60405180910390a1608083015161220f906001600160a01b038416908361246c565b611183565b6080830180516001600160a01b03908116600090815260d86020908152604080832081890180518552908352818420895185528352818420948a1684529390915290819020899055855160608701519251935160c088015160e089015193517fff04824005d23da5bce38626acd202229ec4a996535b0f6aae1555c3fa281d85966120109694959093928992909190613c3e565b600080836000815181106122cc57634e487b7160e01b600052603260045260246000fd5b6020026020010151905061233160cb60009054906101000a90046001600160a01b03168460008151811061231057634e487b7160e01b600052603260045260246000fd5b6020026020010151836001600160a01b03166127d99092919063ffffffff16565b60cb54835160009182916001600160a01b039091169063b0bbcd88908790849061236b57634e487b7160e01b600052603260045260246000fd5b60200260200101518760018151811061239457634e487b7160e01b600052603260045260246000fd5b602002602001015189304260016040518763ffffffff1660e01b81526004016123c2969594939291906142d4565b600060405180830381600087803b1580156123dc57600080fd5b505af11580156123f0573d6000803e3d6000fd5b505050506040513d6000823e601f3d908101601f191682016040526124189190810190613569565b91509150811561245e5780600182516124319190614578565b8151811061244f57634e487b7160e01b600052603260045260246000fd5b60200260200101519350612463565b600093505b50505092915050565b61178d8363a9059cbb60e01b848460405160240161248b929190613c25565b60408051601f198184030181529190526020810180516001600160e01b03166001600160e01b031990931692909217909152612b73565b806001600160a01b0381166124ea5760405163d92e233d60e01b815260040160405180910390fd5b60c9546040517f06e5f2ca1234f717a2031f662608c02182d4f8bdc3dab013ec4c04eb9755313291612529916001600160a01b03909116908590613b7f565b60405180910390a15060c980546001600160a01b0319166001600160a01b0392909216919091179055565b603380546001600160a01b038381166001600160a01b0319831681179093556040519116919082907f8be0079c531659141344cd1fd0a4f28419497f9722a3daafe3b4186f6b6457e090600090a35050565b600080848460008181106125ca57634e487b7160e01b600052603260045260246000fd5b90506020020160208101906125df9190613029565b90506125f76001600160a01b03821633308635612978565b60cb54612612906001600160a01b03838116911685356127d9565b60cb5460405163161779b160e31b815260009182916001600160a01b039091169063b0bbcd88906126599088359060208a0135908c908c903090429060019060040161428a565b600060405180830381600087803b15801561267357600080fd5b505af1158015612687573d6000803e3d6000fd5b505050506040513d6000823e601f3d908101601f191682016040526126af9190810190613569565b9150915081156126f55780600182516126c89190614578565b815181106126e657634e487b7160e01b600052603260045260246000fd5b6020026020010151935061273d565b60405162461bcd60e51b815260206004820152601e60248201527f457468436f6e6e6563746f724c6f6769633a2073776170206661696c656400006044820152606401610901565b5050509392505050565b806001600160a01b03811661276f5760405163d92e233d60e01b815260040160405180910390fd5b60cd546040517fffd9582901c27177dbd18194ae8017f10d8b21f98a0da2ea5197e0b20dc13d70916127ae916001600160a01b03909116908590613b7f565b60405180910390a15060cd80546001600160a01b0319166001600160a01b0392909216919091179055565b8015806128615750604051636eb1769f60e11b81526001600160a01b0384169063dd62ed3e9061280f9030908690600401613b7f565b60206040518083038186803b15801561282757600080fd5b505afa15801561283b573d6000803e3d6000fd5b505050506040513d601f19601f8201168201806040525081019061285f9190613878565b155b6128cc5760405162461bcd60e51b815260206004820152603660248201527f5361666545524332303a20617070726f76652066726f6d206e6f6e2d7a65726f60448201527520746f206e6f6e2d7a65726f20616c6c6f77616e636560501b6064820152608401610901565b61178d8363095ea7b360e01b848460405160240161248b929190613c25565b600054610100900460ff166129125760405162461bcd60e51b8152600401610901906140aa565b610eec612c45565b600054610100900460ff166129415760405162461bcd60e51b8152600401610901906140aa565b610eec612c75565b600054610100900460ff166129705760405162461bcd60e51b8152600401610901906140aa565b610eec612c9c565b6040516001600160a01b0380851660248301528316604482015260648101829052610a5b9085906323b872dd60e01b9060840161248b565b60d1546000906001600160a01b031688888888888887426129d381613840614436565b60008c6040516024016129f19c9b9a99989796959493929190613b99565b60408051601f19818403018152918152602080830180516001600160e01b0316633dc9c91960e11b1790529051919250600091612a3091849101613b42565b60408051601f1981840301815291905260c954909150610874906001600160a01b03168234612ccf565b612aa56040518060c00160405280600081526020016000815260200160006001600160a01b0316815260200160006001600160a01b0316815260200160608152602001606081525090565b81806020019051810190612ab991906136d2565b60a087015260808601526001600160a01b031660408501526020840152825250919050565b612b356040518061010001604052806000801916815260200160008019168152602001600081526020016000815260200160006001600160a01b031681526020016000815260200160608152602001606081525090565b81806020019051810190612b4991906135d1565b60e088015260c08701526001600160a01b0316608086015260408501526060840152825250919050565b6000612bc8826040518060400160405280602081526020017f5361666545524332303a206c6f772d6c6576656c2063616c6c206661696c6564815250856001600160a01b0316612cff9092919063ffffffff16565b80519091501561178d5780806020019051810190612be6919061354d565b61178d5760405162461bcd60e51b815260206004820152602a60248201527f5361666545524332303a204552433230206f7065726174696f6e20646964206e6044820152691bdd081cdd58d8d9595960b21b6064820152608401610901565b600054610100900460ff16612c6c5760405162461bcd60e51b8152600401610901906140aa565b610eec33612554565b600054610100900460ff16611d2f5760405162461bcd60e51b8152600401610901906140aa565b600054610100900460ff16612cc35760405162461bcd60e51b8152600401610901906140aa565b6097805460ff19169055565b6060612cf584848460405180606001604052806029815260200161462660299139612d0a565b90505b9392505050565b6060612cf584846000855b606082471015612d6b5760405162461bcd60e51b815260206004820152602660248201527f416464726573733a20696e73756666696369656e742062616c616e636520666f6044820152651c8818d85b1b60d21b6064820152608401610901565b843b612db95760405162461bcd60e51b815260206004820152601d60248201527f416464726573733a2063616c6c20746f206e6f6e2d636f6e74726163740000006044820152606401610901565b600080866001600160a01b03168587604051612dd59190613b26565b60006040518083038185875af1925050503d8060008114612e12576040519150601f19603f3d011682016040523d82523d6000602084013e612e17565b606091505b5091509150612e27828286612e32565b979650505050505050565b60608315612e41575081612cf8565b825115612e515782518084602001fd5b8160405162461bcd60e51b81526004016109019190613c97565b8035612e7681614602565b919050565b60008083601f840112612e8c578182fd5b5081356001600160401b03811115612ea2578182fd5b6020830191508360208260051b8501011115612ebd57600080fd5b9250929050565b600082601f830112612ed4578081fd5b81516020612ee9612ee4836143a8565b614378565b80838252828201915082860187848660051b8901011115612f08578586fd5b855b85811015612f2f578151612f1d81614602565b84529284019290840190600101612f0a565b5090979650505050505050565b600082601f830112612f4c578081fd5b81516020612f5c612ee4836143a8565b80838252828201915082860187848660051b8901011115612f7b578586fd5b855b85811015612f2f57815184529284019290840190600101612f7d565b8035612e7681614617565b8035600781900b8114612e7657600080fd5b600082601f830112612fc6578081fd5b8151612fd4612ee4826143cb565b818152846020838601011115612fe8578283fd5b612ff982602083016020870161458f565b949350505050565b600060608284031215613012578081fd5b50919050565b600060408284031215613012578081fd5b60006020828403121561303a578081fd5b8135612cf881614602565b6000806000806000806000806000806101008b8d031215613064578586fd5b61306d8b612e6b565b995061307b60208c01612e6b565b985060408b01356001600160401b0380821115613096578788fd5b6130a28e838f01612e7b565b909a5098508891506130b660608e01612f99565b975060808d01359150808211156130cb578687fd5b6130d78e838f01612e7b565b909750955060a08d01359150808211156130ef578485fd5b506130fc8d828e01613001565b93505061310b60c08c01612fa4565b915060e08b013590509295989b9194979a5092959850565b60008060008060008060008060008060006101208c8e031215613144578485fd5b61314d8c612e6b565b9a5061315b60208d01612e6b565b99506001600160401b0360408d0135811015613175578586fd5b6131858e60408f01358f01612e7b565b909a50985061319660608e01612f99565b97508060808e013511156131a8578586fd5b6131b88e60808f01358f01612e7b565b909750955060a08d01358110156131cd578182fd5b506131de8d60a08e01358e01613001565b93506131ec60c08d01612fa4565b925060e08c013591506132026101008d01612e6b565b90509295989b509295989b9093969950565b600080600060608486031215613228578081fd5b833561323381614602565b9250602084013561324381614602565b929592945050506040919091013590565b60008060008060808587031215613269578182fd5b843561327481614602565b9350602085013561328481614602565b925060408501359150606085013561329b81614602565b939692955090935050565b600080600080608085870312156132bb578182fd5b84356132c681614602565b935060208501356132d681614602565b93969395505050506040820135916060013590565b600080604083850312156132fd578182fd5b823561330881614602565b946020939093013593505050565b60008060006060848603121561332a578081fd5b833561333581614602565b925060208401359150604084013561334c81614602565b809150509250925092565b60008060008060008060008060008060006101208c8e031215613378578485fd5b6133818c612e6b565b9a5060208c0135995061339660408d01612e6b565b98506001600160401b0360608d01358110156133b0578586fd5b6133c08e60608f01358f01612e7b565b909950975060808d0135965060a08d01358110156133dc578586fd5b6133ec8e60a08f01358f01612e7b565b909650945060c08d0135811015613401578182fd5b506134128d60c08e01358e01613018565b925061342060e08d01612fa4565b91506101008c013590509295989b509295989b9093969950565b6000806000806080858703121561344f578182fd5b843561345a81614602565b935060208501359250604085013561347181614602565b915060608501356001600160401b0381111561348b578182fd5b8501601f8101871361349b578182fd5b80356134a9612ee4826143cb565b8181528860208385010111156134bd578384fd5b81602084016020830137908101602001929092525092959194509250565b600080600080608085870312156134f0578182fd5b84356134fb81614602565b93506020850135925060408501359150606085013561329b81614602565b60008060006060848603121561352d578081fd5b833561353881614602565b95602085013595506040909401359392505050565b60006020828403121561355e578081fd5b8151612cf881614617565b6000806040838503121561357b578182fd5b825161358681614617565b60208401519092506001600160401b038111156135a1578182fd5b6135ad85828601612f3c565b9150509250929050565b6000602082840312156135c8578081fd5b612cf882612fa4565b600080600080600080600060e0888a0312156135eb578081fd5b87516001600160401b0380821115613601578283fd5b61360d8b838c01612fb6565b985060208a0151975060408a0151965060608a0151955060808a0151915061363482614602565b60a08a015191945080821115613648578283fd5b6136548b838c01612ec4565b935060c08a0151915080821115613669578283fd5b506136768a828b01612f3c565b91505092959891949750929550565b600080600060608486031215613699578081fd5b83516001600160401b038111156136ae578182fd5b6136ba86828701612fb6565b93505060208401519150604084015190509250925092565b60008060008060008060c087890312156136ea578384fd5b86516001600160401b0380821115613700578586fd5b61370c8a838b01612fb6565b975060208901519650604089015195506060890151915061372c82614602565b608089015191945080821115613740578384fd5b61374c8a838b01612ec4565b935060a0890151915080821115613761578283fd5b5061376e89828a01612f3c565b9150509295509295509295565b60008060008060008060c08789031215613793578384fd5b86356001600160401b03808211156137a9578586fd5b9088019060c0828b0312156137bc578586fd5b9096506020880135906137ce82614602565b9095506040880135906137e082614617565b909450606088013590808211156137f5578384fd5b5061380289828a01613001565b9350506080870135915060a087013561381a81614602565b809150509295509295509295565b600060208284031215613839578081fd5b81356001600160401b0381111561384e578182fd5b82016101608185031215612cf8578182fd5b600060208284031215613871578081fd5b5035919050565b600060208284031215613889578081fd5b5051919050565b600080600080600080600060a0888a0312156138aa578081fd5b8735965060208801356138bc81614602565b955060408801356138cc81614602565b945060608801356001600160401b03808211156138e7578283fd5b6138f38b838c01612e7b565b909650945060808a013591508082111561390b578283fd5b506139188a828b01612e7b565b989b979a50959850939692959293505050565b81835260006020808501945082825b8581101561396857813561394d81614602565b6001600160a01b03168752958201959082019060010161393a565b509495945050505050565b6000815180845260208085019450808401835b838110156139685781516001600160a01b031687529582019590820190600101613986565b81835260006001600160fb1b038311156139c3578081fd5b8260051b80836020870137939093016020019283525090919050565b6000815180845260208085019450808401835b83811015613968578151875295820195908201906001016139f2565b81835281816020850137506000828201602090810191909152601f909101601f19169091010190565b60008151808452613a4f81602086016020860161458f565b601f01601f19169290920160200192915050565b60068110613a8157634e487b7160e01b600052602160045260246000fd5b9052565b6000815160408452613a9a6040850182613973565b905060208301518482036020860152613ab38282613973565b95945050505050565b6000613ac882836143f2565b60608552613ada606086018284613a0e565b915050602083013560068110613aee578283fd5b613afb6020860182613a63565b50613b0960408401846143f2565b8583036040870152613b1c838284613a0e565b9695505050505050565b60008251613b3881846020870161458f565b9190910192915050565b60008251613b5481846020870161458f565b641dc0de008360d81b920191825250600501919050565b6001600160a01b0391909116815260200190565b6001600160a01b0392831681529116602082015260400190565b6001600160a01b038d811682528c811660208301528b811660408301528a81166060830152608082018a905260a0820189905260c08201889052861660e082015263ffffffff858116610100830152841661012082015260ff83166101408201526000610180610160830152613c13610180830184613a37565b9e9d5050505050505050505050505050565b6001600160a01b03929092168252602082015260400190565b87815286602082015285604082015260018060a01b038516606082015283608082015260e060a08201526000613c7760e0830185613973565b82810360c0840152613c8981856139df565b9a9950505050505050505050565b602081526000612cf86020830184613a37565b608081526000613cbd6080830187613a37565b8560208401528460408401528281036060840152612e278185613a37565b60006101408083526014818401525073737761704261636b416e64526566756e6442544360601b6101608301526101808b60208401528a604084015289606084015260018060a01b03891660808401528760a084015286151560c08401528060e0840152613d4b81840187613a85565b9050828103610100840152613d608186613abc565b91505060ff83166101208301529a9950505050505050505050565b610140808252600d908201526c073776170416e64556e7772617609c1b610160820152602081018b9052604081018a90526001600160a01b0389811660608301528816608082015260a0810187905285151560c082015261018060e08201819052600090613dec818401878961392b565b9050828103610100840152613e018186613abc565b915050826101208301529b9a5050505050505050505050565b60208082526021908201527f457468436f6e6e6563746f724c6f6769633a20696e76616c696420616d6f756e6040820152601d60fa1b606082015260800190565b6000610140808352601181840152507073776170416e64556e7772617052756e6560781b6101608301526101808c60208401528b604084015260018060a01b038b1660608401528960808401528860a08401528760c08401528060e0840152613ec7818401878961392b565b9050828103610100840152613edc85866143f2565b60408352613eee604084018284613a0e565b915050602086013560068110613f02578384fd5b613f0f6020840182613a63565b506101209390930193909352509a9950505050505050505050565b6020808252601c908201527b115d1a10dbdb9b9958dd1bdc8e881b9bdd08185d5d1a1bdc9a5e995960221b604082015260600190565b610140808252601690820152751cddd85c105b99155b9ddc985c155b9a5d995c9cd85b60521b610160820152602081018a9052604081018990526001600160a01b0388811660608301528716608082015260a0810186905284151560c082015261018060e08201819052600090613fd981840187613a85565b9050828103610100840152613fee8186613abc565b915050826101208301529a9950505050505050505050565b6020808252601f908201527f457468436f6e6e6563746f724c6f6769633a20696e76616c6964207061746800604082015260600190565b6020808252601e908201527f457468436f6e6e6563746f724c6f6769633a2077726f6e672076616c75650000604082015260600190565b6020808252601c908201527b115d1a10dbdb9b9958dd1bdc8e881a5b9d985b1a5908185b5bdd5b9d60221b604082015260600190565b6020808252602b908201527f496e697469616c697a61626c653a20636f6e7472616374206973206e6f74206960408201526a6e697469616c697a696e6760a81b606082015260800190565b602080825260199082015278457468436f6e6e6563746f723a206c6f772062616c616e636560381b604082015260600190565b8881526001600160a01b038881166020830152871660408201526060810186905260c060808201819052600090614162908301868861392b565b82810360a08401526141758185876139ab565b9b9a5050505050505050505050565b85815260a06020820152600061419d60a0830187613a37565b6001600160a01b0395909516604083015250606081019290925260070b60809091015292915050565b86815285602082015260018060a01b038516604082015283606082015260c0608082015260006141f960c0830185613973565b82810360a084015261420b81856139df565b9998505050505050505050565b8a8152602081018a90526001600160a01b03898116604083015260608201899052600788900b6080830152861660a082015261010060c08201819052600090614264838201878961392b565b905082810360e08401526142798185876139ab565b9d9c50505050505050505050505050565b87815286602082015260c0604082015260006142aa60c08301878961392b565b6001600160a01b03959095166060830152506080810192909252151560a090910152949350505050565b86815285602082015260c0604082015260006142f360c0830187613973565b6001600160a01b03959095166060830152506080810192909252151560a0909101529392505050565b6000808335601e19843603018112614332578283fd5b8301803591506001600160401b0382111561434b578283fd5b6020019150600581901b3603821315612ebd57600080fd5b60008235605e19833603018112613b38578182fd5b604051601f8201601f191681016001600160401b03811182821017156143a0576143a06145ec565b604052919050565b60006001600160401b038211156143c1576143c16145ec565b5060051b60200190565b60006001600160401b038211156143e4576143e46145ec565b50601f01601f191660200190565b6000808335601e19843603018112614408578283fd5b83016020810192503590506001600160401b0381111561442757600080fd5b803603831315612ebd57600080fd5b60008219821115614449576144496145d6565b500190565b60008261446957634e487b7160e01b81526012600452602481fd5b500490565b600181815b808511156144a957816000190482111561448f5761448f6145d6565b8085161561449c57918102915b93841c9390800290614473565b509250929050565b6000612cf883836000826144c757506001611de9565b816144d457506000611de9565b81600181146144ea57600281146144f457614510565b6001915050611de9565b60ff841115614505576145056145d6565b50506001821b611de9565b5060208310610133831016604e8410600b8410161715614533575081810a611de9565b61453d838361446e565b8060001904821115614551576145516145d6565b029392505050565b6000816000190483118215151615614573576145736145d6565b500290565b60008282101561458a5761458a6145d6565b500390565b60005b838110156145aa578181015183820152602001614592565b83811115610a5b5750506000910152565b60006000198214156145cf576145cf6145d6565b5060010190565b634e487b7160e01b600052601160045260246000fd5b634e487b7160e01b600052604160045260246000fd5b6001600160a01b0381168114610da557600080fd5b8015158114610da557600080fdfe416464726573733a206c6f772d6c6576656c2063616c6c20776974682076616c7565206661696c6564d953c900c00c8d83f745d17aa6ce067c29cb0fdd7c3dda8dd5aee0e79feb850aa2646970667358221220fc2229fe5c87200a6b785b080d4997692aa3b865355dbdd18753ed540112b2b964736f6c63430008040033",
  "devdoc": {
    "kind": "dev",
    "methods": {
      "emergencyWithdraw(address,address,uint256)": {
        "details": "Only owner can call this"
      },
      "owner()": {
        "details": "Returns the address of the current owner."
      },
      "paused()": {
        "details": "Returns true if the contract is paused, and false otherwise."
      },
      "refundFailedSwapAndUnwrapUniversal(uint256,address,address,address[],uint256[])": {
        "details": "When swap fails in _swapBackAndRefund, the intermediary token amount is saved in failedSwapAndUnwrapRefundReqs.      This function allows admin to swap the intermediary token back to input token and refund it to the user.",
        "params": {
          "_amountsFromIntermediaryToInputOnSourceChain": "Swap amounts [intermediaryTokenAmount, inputTokenAmount]",
          "_inputToken": "Input token address that the user originally sent",
          "_pathFromIntermediaryToInputOnSourceChain": "Swap path from intermediary token to input token on source chain",
          "_refundAddress": "Address to receive the input token (user's address)",
          "_uniqueCounter": "Unique counter from the original swap and unwrap universal request"
        }
      },
      "renounceOwnership()": {
        "details": "Leaves the contract without owner. It will not be possible to call `onlyOwner` functions. Can only be called by the current owner. NOTE: Renouncing ownership will leave the contract without an owner, thereby disabling any functionality that is only available to the owner."
      },
      "setBridgeConnectorMapping(address,uint256,address)": {
        "params": {
          "_exchangeConnector": "Address of the exchange connector",
          "_targetChainConnectorProxy": "Address of the target chain connector proxy",
          "_targetChainId": "Target chain ID"
        }
      },
      "setBridgeTokenMapping(address,uint256,address)": {
        "params": {
          "_destinationToken": "Address of the token on the target chain",
          "_sourceToken": "Address of the token on the current chain"
        }
      },
      "swapAndUnwrap(address,address,uint256[],bool,address[],(bytes,uint8,bytes),int64,uint256)": {
        "details": "To find teleBTCAmount, _bridgePercentageFee should be reduced from the inputTokenAmount",
        "params": {
          "_amounts": "[inputTokenAmount, teleBTCAmount]",
          "_bridgePercentageFee": "Fee percentage for relayer",
          "_exchangeConnector": "Address of exchange connector to be used",
          "_path": "of exchanging inputToken to teleBTC (these are Polygon token addresses, so _path[0] != _token)",
          "_thirdParty": "Id of third party",
          "_token": "Address of input token (on the current chain)"
        }
      },
      "swapAndUnwrapUniversal((address[],uint256[2],address[],uint256,int64),address,bool,(bytes,uint8,bytes),uint256,address)": {
        "params": {
          "_arguments": "Struct containing swap arguments",
          "_exchangeConnector": "Address of exchange connector to be used on the intermediary chain",
          "_isInputFixed": "Whether the input token amount is fixed",
          "_refundAddress": "Address to receive the input token in case of failure (user's address)",
          "_thirdParty": "Third party ID",
          "_userAndLockerScript": "User and locker script"
        }
      },
      "swapBackAndRefundBTCByAdmin((address,address,address,bytes32,address,uint256,(bytes,uint8,bytes),address[],uint256[],int64,uint256))": {
        "details": "When a wrap and swap fails on this chain, admin can call this to send a cross-chain message      to the intermediary chain (eg. polygon) to swap the intermediary token to TeleBTC and unwrap to BTC",
        "params": {
          "_args": "Struct containing all function arguments"
        }
      },
      "transferOwnership(address)": {
        "details": "Transfers ownership of the contract to a new account (`newOwner`). Can only be called by the current owner."
      }
    },
    "version": 1
  },
  "userdoc": {
    "kind": "user",
    "methods": {
      "approveToken(address,address,uint256)": {
        "notice": "Approve token for spender"
      },
      "emergencyWithdraw(address,address,uint256)": {
        "notice": "Withdraw tokens in the emergency case"
      },
      "handleV3AcrossMessage(address,uint256,address,bytes)": {
        "notice": "Process requests coming from Ethereum (using Across V3)"
      },
      "refundFailedSwapAndUnwrapUniversal(uint256,address,address,address[],uint256[])": {
        "notice": "Allows admin to swap failed swap back and refund requests and send input token to user"
      },
      "setAcross(address)": {
        "notice": "Setter for Across"
      },
      "setAcrossAdmin(address)": {
        "notice": "Setter for Across Admin"
      },
      "setBridgeConnectorMapping(address,uint256,address)": {
        "notice": "Setter for bridge connector mapping"
      },
      "setBridgeTokenMapping(address,uint256,address)": {
        "notice": "Setter for bridge token mapping"
      },
      "setExchangeConnector(address)": {
        "notice": "Setter for Exchange Connector"
      },
      "setGasLimit(uint256)": {
        "notice": "Setter for Gas Limit"
      },
      "setOutputTokenDecimalsOnDestinationChain(address,uint256,uint256)": {
        "notice": "Setter for input token decimals on destination chain"
      },
      "setWrappedNativeToken(address)": {
        "notice": "Setter for WrappedNativeToken"
      },
      "swapAndUnwrap(address,address,uint256[],bool,address[],(bytes,uint8,bytes),int64,uint256)": {
        "notice": "Request exchanging token for BTC"
      },
      "swapAndUnwrapRune(address,uint256,address,uint256[],uint256,address[],(bytes,uint8),int64,uint256)": {
        "notice": "Request exchanging token for RUNE"
      },
      "swapAndUnwrapUniversal((address[],uint256[2],address[],uint256,int64),address,bool,(bytes,uint8,bytes),uint256,address)": {
        "notice": "Request exchanging token for BTC using universal route"
      },
      "swapBackAndRefundBTCByAdmin((address,address,address,bytes32,address,uint256,(bytes,uint8,bytes),address[],uint256[],int64,uint256))": {
        "notice": "Called by admin to swap failed wrap and swap request to teleBTC and refund BTC to user"
      }
    },
    "version": 1
  },
  "storageLayout": {
    "storage": [
      {
        "astId": 139,
        "contract": "contracts/chain_connectors/EthConnectorLogic.sol:EthConnectorLogic",
        "label": "_initialized",
        "offset": 0,
        "slot": "0",
        "type": "t_uint8"
      },
      {
        "astId": 142,
        "contract": "contracts/chain_connectors/EthConnectorLogic.sol:EthConnectorLogic",
        "label": "_initializing",
        "offset": 1,
        "slot": "0",
        "type": "t_bool"
      },
      {
        "astId": 972,
        "contract": "contracts/chain_connectors/EthConnectorLogic.sol:EthConnectorLogic",
        "label": "__gap",
        "offset": 0,
        "slot": "1",
        "type": "t_array(t_uint256)50_storage"
      },
      {
        "astId": 11,
        "contract": "contracts/chain_connectors/EthConnectorLogic.sol:EthConnectorLogic",
        "label": "_owner",
        "offset": 0,
        "slot": "51",
        "type": "t_address"
      },
      {
        "astId": 131,
        "contract": "contracts/chain_connectors/EthConnectorLogic.sol:EthConnectorLogic",
        "label": "__gap",
        "offset": 0,
        "slot": "52",
        "type": "t_array(t_uint256)49_storage"
      },
      {
        "astId": 444,
        "contract": "contracts/chain_connectors/EthConnectorLogic.sol:EthConnectorLogic",
        "label": "_status",
        "offset": 0,
        "slot": "101",
        "type": "t_uint256"
      },
      {
        "astId": 513,
        "contract": "contracts/chain_connectors/EthConnectorLogic.sol:EthConnectorLogic",
        "label": "__gap",
        "offset": 0,
        "slot": "102",
        "type": "t_array(t_uint256)49_storage"
      },
      {
        "astId": 323,
        "contract": "contracts/chain_connectors/EthConnectorLogic.sol:EthConnectorLogic",
        "label": "_paused",
        "offset": 0,
        "slot": "151",
        "type": "t_bool"
      },
      {
        "astId": 428,
        "contract": "contracts/chain_connectors/EthConnectorLogic.sol:EthConnectorLogic",
        "label": "__gap",
        "offset": 0,
        "slot": "152",
        "type": "t_array(t_uint256)49_storage"
      },
      {
        "astId": 8743,
        "contract": "contracts/chain_connectors/EthConnectorLogic.sol:EthConnectorLogic",
        "label": "across",
        "offset": 0,
        "slot": "201",
        "type": "t_address"
      },
      {
        "astId": 8745,
        "contract": "contracts/chain_connectors/EthConnectorLogic.sol:EthConnectorLogic",
        "label": "targetChainConnectorProxy",
        "offset": 0,
        "slot": "202",
        "type": "t_address"
      },
      {
        "astId": 8747,
        "contract": "contracts/chain_connectors/EthConnectorLogic.sol:EthConnectorLogic",
        "label": "exchangeConnector",
        "offset": 0,
        "slot": "203",
        "type": "t_address"
      },
      {
        "astId": 8749,
        "contract": "contracts/chain_connectors/EthConnectorLogic.sol:EthConnectorLogic",
        "label": "targetChainId",
        "offset": 0,
        "slot": "204",
        "type": "t_uint256"
      },
      {
        "astId": 8751,
        "contract": "contracts/chain_connectors/EthConnectorLogic.sol:EthConnectorLogic",
        "label": "wrappedNativeToken",
        "offset": 0,
        "slot": "205",
        "type": "t_address"
      },
      {
        "astId": 8753,
        "contract": "contracts/chain_connectors/EthConnectorLogic.sol:EthConnectorLogic",
        "label": "uniqueCounter",
        "offset": 0,
        "slot": "206",
        "type": "t_uint256"
      },
      {
        "astId": 8755,
        "contract": "contracts/chain_connectors/EthConnectorLogic.sol:EthConnectorLogic",
        "label": "currChainId",
        "offset": 0,
        "slot": "207",
        "type": "t_uint256"
      },
      {
        "astId": 8757,
        "contract": "contracts/chain_connectors/EthConnectorLogic.sol:EthConnectorLogic",
        "label": "unwrapFee",
        "offset": 0,
        "slot": "208",
        "type": "t_uint256"
      },
      {
        "astId": 8759,
        "contract": "contracts/chain_connectors/EthConnectorLogic.sol:EthConnectorLogic",
        "label": "acrossAdmin",
        "offset": 0,
        "slot": "209",
        "type": "t_address"
      },
      {
        "astId": 8765,
        "contract": "contracts/chain_connectors/EthConnectorLogic.sol:EthConnectorLogic",
        "label": "bridgeTokenMapping",
        "offset": 0,
        "slot": "210",
        "type": "t_mapping(t_address,t_mapping(t_uint256,t_address))"
      },
      {
        "astId": 8767,
        "contract": "contracts/chain_connectors/EthConnectorLogic.sol:EthConnectorLogic",
        "label": "stargate",
        "offset": 0,
        "slot": "211",
        "type": "t_address"
      },
      {
        "astId": 8772,
        "contract": "contracts/chain_connectors/EthConnectorLogic.sol:EthConnectorLogic",
        "label": "bridgeConnectorMapping",
        "offset": 0,
        "slot": "212",
        "type": "t_mapping(t_address,t_struct(BridgeConnectorData)11800_storage)"
      },
      {
        "astId": 8778,
        "contract": "contracts/chain_connectors/EthConnectorLogic.sol:EthConnectorLogic",
        "label": "outputTokenDecimalsOnDestinationChain",
        "offset": 0,
        "slot": "213",
        "type": "t_mapping(t_address,t_mapping(t_uint256,t_uint256))"
      },
      {
        "astId": 8780,
        "contract": "contracts/chain_connectors/EthConnectorLogic.sol:EthConnectorLogic",
        "label": "gasLimit",
        "offset": 0,
        "slot": "214",
        "type": "t_uint256"
      },
      {
        "astId": 8790,
        "contract": "contracts/chain_connectors/EthConnectorLogic.sol:EthConnectorLogic",
        "label": "failedSwapAndUnwrapRefundReqs",
        "offset": 0,
        "slot": "215",
        "type": "t_mapping(t_address,t_mapping(t_address,t_mapping(t_uint256,t_mapping(t_address,t_uint256))))"
      },
      {
        "astId": 8800,
        "contract": "contracts/chain_connectors/EthConnectorLogic.sol:EthConnectorLogic",
        "label": "failedWrapAndSwapReqs",
        "offset": 0,
        "slot": "216",
        "type": "t_mapping(t_address,t_mapping(t_uint256,t_mapping(t_bytes32,t_mapping(t_address,t_uint256))))"
      }
    ],
    "types": {
      "t_address": {
        "encoding": "inplace",
        "label": "address",
        "numberOfBytes": "20"
      },
      "t_array(t_uint256)49_storage": {
        "base": "t_uint256",
        "encoding": "inplace",
        "label": "uint256[49]",
        "numberOfBytes": "1568"
      },
      "t_array(t_uint256)50_storage": {
        "base": "t_uint256",
        "encoding": "inplace",
        "label": "uint256[50]",
        "numberOfBytes": "1600"
      },
      "t_bool": {
        "encoding": "inplace",
        "label": "bool",
        "numberOfBytes": "1"
      },
      "t_bytes32": {
        "encoding": "inplace",
        "label": "bytes32",
        "numberOfBytes": "32"
      },
      "t_mapping(t_address,t_mapping(t_address,t_mapping(t_uint256,t_mapping(t_address,t_uint256))))": {
        "encoding": "mapping",
        "key": "t_address",
        "label": "mapping(address => mapping(address => mapping(uint256 => mapping(address => uint256))))",
        "numberOfBytes": "32",
        "value": "t_mapping(t_address,t_mapping(t_uint256,t_mapping(t_address,t_uint256)))"
      },
      "t_mapping(t_address,t_mapping(t_uint256,t_address))": {
        "encoding": "mapping",
        "key": "t_address",
        "label": "mapping(address => mapping(uint256 => address))",
        "numberOfBytes": "32",
        "value": "t_mapping(t_uint256,t_address)"
      },
      "t_mapping(t_address,t_mapping(t_uint256,t_mapping(t_address,t_uint256)))": {
        "encoding": "mapping",
        "key": "t_address",
        "label": "mapping(address => mapping(uint256 => mapping(address => uint256)))",
        "numberOfBytes": "32",
        "value": "t_mapping(t_uint256,t_mapping(t_address,t_uint256))"
      },
      "t_mapping(t_address,t_mapping(t_uint256,t_mapping(t_bytes32,t_mapping(t_address,t_uint256))))": {
        "encoding": "mapping",
        "key": "t_address",
        "label": "mapping(address => mapping(uint256 => mapping(bytes32 => mapping(address => uint256))))",
        "numberOfBytes": "32",
        "value": "t_mapping(t_uint256,t_mapping(t_bytes32,t_mapping(t_address,t_uint256)))"
      },
      "t_mapping(t_address,t_mapping(t_uint256,t_uint256))": {
        "encoding": "mapping",
        "key": "t_address",
        "label": "mapping(address => mapping(uint256 => uint256))",
        "numberOfBytes": "32",
        "value": "t_mapping(t_uint256,t_uint256)"
      },
      "t_mapping(t_address,t_struct(BridgeConnectorData)11800_storage)": {
        "encoding": "mapping",
        "key": "t_address",
        "label": "mapping(address => struct IEthConnector.BridgeConnectorData)",
        "numberOfBytes": "32",
        "value": "t_struct(BridgeConnectorData)11800_storage"
      },
      "t_mapping(t_address,t_uint256)": {
        "encoding": "mapping",
        "key": "t_address",
        "label": "mapping(address => uint256)",
        "numberOfBytes": "32",
        "value": "t_uint256"
      },
      "t_mapping(t_bytes32,t_mapping(t_address,t_uint256))": {
        "encoding": "mapping",
        "key": "t_bytes32",
        "label": "mapping(bytes32 => mapping(address => uint256))",
        "numberOfBytes": "32",
        "value": "t_mapping(t_address,t_uint256)"
      },
      "t_mapping(t_uint256,t_address)": {
        "encoding": "mapping",
        "key": "t_uint256",
        "label": "mapping(uint256 => address)",
        "numberOfBytes": "32",
        "value": "t_address"
      },
      "t_mapping(t_uint256,t_mapping(t_address,t_uint256))": {
        "encoding": "mapping",
        "key": "t_uint256",
        "label": "mapping(uint256 => mapping(address => uint256))",
        "numberOfBytes": "32",
        "value": "t_mapping(t_address,t_uint256)"
      },
      "t_mapping(t_uint256,t_mapping(t_bytes32,t_mapping(t_address,t_uint256)))": {
        "encoding": "mapping",
        "key": "t_uint256",
        "label": "mapping(uint256 => mapping(bytes32 => mapping(address => uint256)))",
        "numberOfBytes": "32",
        "value": "t_mapping(t_bytes32,t_mapping(t_address,t_uint256))"
      },
      "t_mapping(t_uint256,t_uint256)": {
        "encoding": "mapping",
        "key": "t_uint256",
        "label": "mapping(uint256 => uint256)",
        "numberOfBytes": "32",
        "value": "t_uint256"
      },
      "t_struct(BridgeConnectorData)11800_storage": {
        "encoding": "inplace",
        "label": "struct IEthConnector.BridgeConnectorData",
        "members": [
          {
            "astId": 11797,
            "contract": "contracts/chain_connectors/EthConnectorLogic.sol:EthConnectorLogic",
            "label": "targetChainId",
            "offset": 0,
            "slot": "0",
            "type": "t_uint256"
          },
          {
            "astId": 11799,
            "contract": "contracts/chain_connectors/EthConnectorLogic.sol:EthConnectorLogic",
            "label": "targetChainConnectorProxy",
            "offset": 0,
            "slot": "1",
            "type": "t_address"
          }
        ],
        "numberOfBytes": "64"
      },
      "t_uint256": {
        "encoding": "inplace",
        "label": "uint256",
        "numberOfBytes": "32"
      },
      "t_uint8": {
        "encoding": "inplace",
        "label": "uint8",
        "numberOfBytes": "1"
      }
    }
  }
}